:100000000C94D7040C94FF040C94FF040C94FF048C
:100010000C94FF040C94FF040C94FF040C94FF0454
:100020000C94FF040C94FF040C94FF040C94FF0444
:100030000C94FF040C94FF040C94FF040C94FF0434
:100040000C9420160C94FF040C94FC140C94D614FD
:100050000C94FF040C94FF040C94FF040C94FF0414
:100060000C946A160C94FF04FB2B032C0A2C0E2C08
:100070001C2C202C272C232C46494E44204D4F4429
:10008000454C004F4646004F4E20004F53443A2007
:100090000020002020202020202020200053455434
:1000A0005550204D454E55004D41494E204D454E31
:1000B0005500202020202020202020004641564F9F
:1000C00052495445530044495645525349545900E6
:1000D0004D414E55414C204D4F44450042414E4408
:1000E000205343414E4E4552004155544F204D4FF1
:1000F0004445004D4F44452053454C454354494FDA
:100100004E0035393435003538303000353336322D
:10011000004D696E3A20202020204D61783A00522F
:1001200053534920534554555000424553543A00C7
:1001300042414E44205343414E4E455200353934DE
:1001400035003538303000353336320042414E44C8
:100150003A004155544F205345454B204D4F44459F
:10016000004D414E55414C204D4F444500464156AF
:100170004F52495445204D4F4445002D2D204445B4
:100180004C45544544202D2D0046415620434841BE
:100190004E4E454C3A004348414E4E454C20465247
:1001A00045513A0044454C455445204641564F522E
:1001B000495445204348414E0042004100414E54BD
:1001C000204200414E542041004155544F004C4FB5
:1001D00057205349474E414C0025204100420041E1
:1001E0003A00524543454956455220420052454344
:1001F00045495645522041004155544F0044495607
:1002000045525349545900454D50545900464156A2
:100210004F5249544553004155544F205345454B87
:10022000204D4F4445004155544F204D4F444520EB
:100230004C4F434B00412020202020202020004212
:1002400020202020202020200045202020202020A9
:10025000202000462F4169727761766500432F5256
:1002600061636520202000442F352E33202020207C
:100270000020202000202020005341564520262029
:10028000455849540043414C49425241544520523B
:10029000535349005349474E203A20004F464600E9
:1002A0004F4E200042454550533A2000465245519A
:1002B00055454E4359004348414E4E454C20200081
:1002C0004F524445523A20005345545550204D4515
:1002D0004E5500A1A2A3A4A5A6A7A8B1B2B3B4B5D8
:1002E000B6B7B8E1E2E3E4E5E6E7E8F1F2F3F4F506
:1002F000F6F7F8C1C2C3C4C5C6C7C8D1D2D3D4D5D6
:10030000D6D7D8E916D516C116AD16991685167129
:10031000165D16651678168B169E16B116C416D77E
:1003200016EA164916351621160D16FD1611172553
:100330001739176C1680169416A816BC16D016E43A
:1003400016F8161A163F1664168916AE16D316F846
:10035000161D17F21417153C1561158615AB15D02F
:1003600015F51528292A2B2C2D2E2F13122011219B
:10037000100722081806091905230A1A040B1B0383
:10038000240C1C020D1D25010E1E000F1F26141526
:10039000271617052A9B29912987291D2913290921
:1003A000299F2803290C2916291F29892992299C6C
:1003B00029052A95288B28812817280F2A192A838E
:1003C0002A8D2A062910291A2984298E299829027A
:1003D0002A0C2A1D2890280229152987299A290CD8
:1003E0002A1F2A09261C268E2601271327862798CE
:1003F000270B2800000000003E5B4F5B3E3E6B4F2A
:100400006B3E1C3E7C3E1C183C7E3C181C577D57A6
:100410001C1C5E7F5E1C00183C1800FFE7C3E7FF52
:100420000018241800FFE7DBE7FF30483A060E26E5
:1004300029792926407F050507407F05253F5A3C3D
:10044000E73C5A7F3E1C1C08081C1C3E7F14227F80
:1004500022145F5F005F5F06097F017F0066899558
:100460006A606060606094A2FFA29408047E040841
:1004700010207E201008082A1C08081C2A08081EC4
:10048000101010100C1E0C1E0C30383E3830060EAA
:100490003E0E06000000000000005F0000000700A4
:1004A0000700147F147F14242A7F2A122313086460
:1004B0006236495620500008070300001C22410004
:1004C0000041221C002A1C7F1C2A08083E08080044
:1004D00080703000080808080800006060002010E4
:1004E0000804023E5149453E00427F40007249499E
:1004F00049462141494D331814127F10274545457F
:10050000393C4A494931412111090736494949369F
:10051000464949291E000014000000403400000034
:100520000814224114141414140041221408020166
:100530005909063E415D594E7C1211127C7F494992
:1005400049363E414141227F4141413E7F4949492F
:10055000417F090909013E414151737F0808087F25
:1005600000417F41002040413F017F081422417F2C
:10057000404040407F021C027F7F0408107F3E41C4
:1005800041413E7F090909063E4151215E7F09191B
:100590002946264949493203017F01033F40404033
:1005A0003F1F2040201F3F4038403F631408146322
:1005B00003047804036159494D43007F41414102DE
:1005C00004081020004141417F0402010204404020
:1005D000404040000307080020545478407F2844DE
:1005E00044383844444428384444287F38545454C8
:1005F0001800087E090218A4A49C787F08040478D7
:1006000000447D40002040403D007F102844000011
:10061000417F40007C047804787C080404783844E6
:10062000444438FC1824241818242418FC7C08049A
:100630000408485454542404043F44243C404020BB
:100640007C1C2040201C3C4030403C442810284466
:100650004C9090907C4464544C4400083641000017
:1006600000770000004136080002010204023C2627
:1006700023263C1EA1A161123A4040207A385454EE
:100680005559215555794122545478422155547871
:100690004020545579400C1E527212395555555907
:1006A000395454545939555454580000457C41002C
:1006B00002457D420001457C407D1211127DF028EB
:1006C0002528F07C545545002054547C547C0A095C
:1006D0007F4932494949323A4444443A324A4848C7
:1006E000303A4141217A3A42402078009DA0A07DD5
:1006F0003D4242423D3D4040403D3C24FF24244891
:100700007E4943662B2FFC2F2BFF0929F620C0883A
:100710007E090320545479410000447D413048480B
:100720004A32384040227A007A0A0A727D0D193125
:100730007D2629292F28262929292630484D402081
:10074000380808080808080808382F10C8ACBA2F5D
:10075000102834FA00007B000008142A1422221406
:100760002A14085500550055AA55AA55AAFF55FF49
:1007700055FF000000FF00101010FF00141414FFBC
:10078000001010FF00FF1010F010F0141414FC0003
:100790001414F700FF0000FF00FF1414F404FC140D
:1007A0001417101F10101F101F1414141F00101006
:1007B00010F0000000001F101010101F101010107B
:1007C000F010000000FF101010101010101010FF9B
:1007D00010000000FF140000FF00FF00001F1017B2
:1007E0000000FC04F414141710171414F404F4009B
:1007F00000FF00F714141414141414F700F7141461
:1008000014171410101F101F141414F4141010F0E7
:1008100010F000001F101F0000001F14000000FC5B
:10082000140000F010F01010FF10FF141414FF1447
:100830001010101F00000000F010FFFFFFFFFFF07E
:10084000F0F0F0F0FFFFFF0000000000FFFF0F0FCF
:100850000F0F0F3844443844FC4A4A4A347E02029F
:100860000606027E027E0263554941633844443CD9
:1008700004407E201E2006027E020299A5E7A5996B
:100880001C2A492A1C4C7201724C304A4D4D3030A2
:1008900048784830BC625A463D3E494949007E018D
:1008A00001017E2A2A2A2A2A44445F444440514AAC
:1008B000444040444A51400000FF0103E080FF00F3
:1008C0000008086B6B083612362436060F090F062F
:1008D000000018180000001010003040FF01010057
:1008E0001F01011E00191D1712003C3C3C3C00007A
:1008F00000000000000000240027002A0000000083
:1009000000250028002B00000000002300260029FD
:1009100000040404040404040402020202020203A8
:1009200003030303030102040810204080010204B2
:100930000810200102040810200000000800020135
:100940000000030407000000000000000053454CB5
:100950004543544544204641564F5249544520434F
:1009600048002D2D205341564544202D2D00465240
:1009700045513A202020202047487A002020464137
:1009800056204348414E3A004348414E3A005345B1
:100990005454494E47532053415645440053415601
:1009A000452053455454494E4753000032301124DA
:1009B0001FBECFEFD8E0DEBFCDBF27E0AAEDB5E088
:1009C00001C01D92AB39B207E1F715E0A0E0B1E03C
:1009D000E2EAF7E602C005900D92AA3DB107D9F709
:1009E00014E0C7EDD4E004C02197FE010E94BF309F
:1009F000C63DD107C9F70E94991A0C94CF330C94C5
:100A000000006F927F928F929F92AF92BF92CF928F
:100A1000DF92EF92FF920F931F93CF93DF93EC013E
:100A20004B015A0169013801E881F9810284F3859B
:100A3000E02D87010995E881F981A501460D571D33
:100A4000415051090284F385E02D9601B401CE0195
:100A50000995E881F9810084F185E02D9301A501D4
:100A6000B401CE010995E881F981C80CD91CB60101
:100A7000615071090084F185E02D9301A501CE013B
:100A80000995DF91CF911F910F91FF90EF90DF902B
:100A9000CF90BF90AF909F908F907F906F90089570
:100AA0002F923F924F925F926F927F928F929F927E
:100AB000AF92BF92CF92DF92EF92FF920F931F936C
:100AC000CF93DF9300D01F92CDB7DEB74C017B836D
:100AD0006A836A01590117019801241B350B37FFFE
:100AE00003C0319521953109C5014A815B81841B81
:100AF000950B97FF03C091958195910951E059831A
:100B00008217930714F019820BC09A2D8B2D580170
:100B1000092F182F9A818B81DB82CA82C92ED82E89
:100B20008A819B81A816B9065CF49C2D8D2D6801E5
:100B3000092F182F9A818B81BB82AA82A92EB82EE9
:100B40002501AA81BB814A1A5B0A38016C187D080D
:100B500077FE03C0719461947108720157FE03C05F
:100B6000BFEFEB1AFB0AF594E794C016D1061CF010
:100B70000FEF1FEF1FC001E010E01CC0D401ED918A
:100B8000FC91B9810480F581E02D9101BB23C1F076
:100B90004A815B81B601C4010995E618F708F7FEA2
:100BA00004C0C00ED11EE40CF51CEA81FB81319615
:100BB000FB83EA834A815B81A416B506FCF604C078
:100BC000A6016A817B81E7CF0F900F900F90DF9194
:100BD000CF911F910F91FF90EF90DF90CF90BF903A
:100BE000AF909F908F907F906F905F904F903F90CD
:100BF0002F9008950F931F93CF93DF93DC015596A9
:100C00008C915597823071F0833009F1813009F071
:100C10008CC01496ED91FC911597E41BF50BE21B2B
:100C2000F30B20C01496ED91FC911597CF01861B14
:100C3000970BBC01615071091696ED91FC911797C5
:100C4000CF01841B950BAC01421B530B6EC0169653
:100C5000ED91FC911797CF01861B970BBC0161505A
:100C60007109FA0177FD1BC116968D919C9117971A
:100C7000681779070CF013C1F7FF04C02E0F3F1F50
:100C8000E0E0F0E014968D919C911597AF01420F32
:100C9000531F841795071CF49C012E1B3F0B121643
:100CA00013060CF0FCC0CB0177FD079643E0959549
:100CB00087954A95E1F79695982F88279795879578
:100CC000E80FF91FE45BFE4F6770772781E090E043
:100CD00001C0880F6A95EAF7482F0130110541F0ED
:100CE00088F00230110509F0DAC02E0F3F1F15C041
:100CF0002E0F3F1FE217F30709F4D1C08081842B28
:100D00008193F8CF80952E0F3F1FE217F30709F468
:100D1000C6C0908198239193F8CFE217F30709F4A6
:100D2000BEC0808184278193F8CF77FDB8C0149628
:100D30008D919C911597681779070CF0B0C057FFFB
:100D400004C0240F351F40E050E016968D919C9111
:100D50001797FA01E20FF31F8E179F071CF49C01EF
:100D6000241B350B121613060CF099C0A22F842FEA
:100D700086958695869590E8899F600D711D112452
:100D8000FB01E45BFE4F4770A9F198E0941B492FEB
:100D900050E0EA01CC56DA4F8881291790F4421BC3
:100DA00051092FEF30E002C0359527954A95E2F7BB
:100DB00082230130110541F068F00230110589F0FD
:100DC0006EC00130110519F42081822B0CC0013056
:100DD000110520F480952081822305C00230110581
:100DE00031F4208182278083A91708F458C0A91BF9
:100DF000E058FF4FA83048F10230110559F4EF01D7
:100E00008A2F988190959883C058DF4F88508830FA
:100E1000C0F730C081E00130110509F080E0819514
:100E2000EF019A2F8883C058DF4F98509830D0F741
:100E300088EF8A0F86958695869590E8899FE00DC4
:100E4000F11D1124E058FF4FA770AA2341F1B0E033
:100E5000A457BA4F8C910130110529F038F00230B7
:100E60001105D1F01CC09081892B18C0809590810C
:100E7000892314C088EF8A0F86958695869590E819
:100E8000899FE00DF11D1124E058FF4FA77039F044
:100E9000B0E0A457BA4F8C91908189278083DF916D
:100EA000CF911F910F9108950F931F93CF93DF93CD
:100EB000DC01FB0155968C915597823081F083308F
:100EC00019F1813051F514968D919C911597BC01C3
:100ED000641B750BAB0141505109BF0181C01496D1
:100EE0006D917C911597CB018E1B9F0BFC01169683
:100EF0008D919C911797BC01641B750BAB01415000
:100F00005109E21BF30B09C016966D917C9117975E
:100F10006E1B7F0B621B730B63C057FD1CC11696C3
:100F20008D919C911797481759070CF014C1F7FF42
:100F300004C02E0F3F1FE0E0F0E014968D919C91CD
:100F40001597BF01620F731F861797071CF49C014A
:100F50002E1B3F0B121613060CF0FDC0CA0157FDE5
:100F6000079663E0959587956A95E1F79695982F92
:100F7000882797958795E80FF91FE45BFE4F477028
:100F8000552781E090E001C0880F4A95EAF7482F85
:100F90000130110541F088F00230110509F0DBC085
:100FA0002E0F3F1F15C02E0F3F1FE217F30709F446
:100FB000D2C08081842B8193F8CF80952E0F3F1F64
:100FC000E217F30709F4C7C0908198239193F8CFF3
:100FD000E217F30709F4BFC0808184278193F8CF1B
:100FE00057FDB9C014968D919C91159748175907D4
:100FF0000CF0B1C077FF04C0260F371F60E070E02F
:1010000016968D919C911797FB01E20FF31F8E1797
:101010009F071CF49C01261B370B121613060CF0BD
:101020009AC0A22F862F86958695869590E8899FEF
:10103000400D511D1124FA01E45BFE4F6770A9F1C8
:1010400098E0961B492F50E0EA01CC56DA4F888190
:10105000291790F4421B51092FEF30E002C035955B
:1010600027954A95E2F782230130110541F068F097
:101070000230110589F06FC00130110519F420818B
:10108000822B0CC00130110520F480952081822331
:1010900005C00230110531F4208182278083A91711
:1010A00008F459C0A91BE058FF4FA83048F102309E
:1010B000110559F4EF018A2F988190959883C058B3
:1010C000DF4F88508830C0F731C081E00130110512
:1010D00009F080E08195EF019A2F8883C058DF4F97
:1010E00098509830D0F788EF8A0F86958695869528
:1010F00060E8869FE00DF11D1124E058FF4FA770B6
:10110000AA2349F1B0E0A457BA4F8C9101301105E0
:1011100029F038F002301105D9F01DC09081892BDB
:1011200003C0809590818923808315C088EF8A0F42
:1011300086958695869570E8879FE00DF11D1124B0
:10114000E058FF4FA77039F0B0E0A457BA4F8C9128
:1011500090818927E9CFDF91CF911F910F91089559
:10116000FC0177FD9AC080859185681779070CF09E
:1011700094C057FD92C082859385481759070CF09B
:101180008CC08589823009F07CC084819581DC0126
:10119000A61BB70BBD016150710986819781FC01C7
:1011A000E41BF50BAF01415051090AC0813041F4F5
:1011B00084819581841B950BAB01BC016150710941
:1011C0002130310529F008F122303105E1F108958F
:1011D000FA0157FD3796A3E0F595E795AA95E1F753
:1011E000F695FE2FEE27F795E7956E0F7F1FFB0113
:1011F000E45BFE4F4770552781E090E001C0880F07
:101200004A95EAF79081892B3AC0FA0157FD379643
:1012100023E0F595E7952A95E1F7F695FE2FEE2761
:10122000F795E7956E0F7F1FFB01E45BFE4F47705C
:10123000552781E090E001C0880F4A95EAF7809534
:10124000908189231CC0FA0157FD379683E0F595FC
:10125000E7958A95E1F7F695FE2FEE27F795E79546
:101260006E0F7F1FFB01E45BFE4F4770552781E047
:1012700090E001C0880F4A95EAF790818927808322
:101280000895833009F092CF86819781861B970B52
:10129000BA01AC014150510993CF089561E08BE050
:1012A0000C94571560E08CE00E94571560E08AE0CE
:1012B0000E94571561E08CE00E94571560E08CE0B9
:1012C0000C94571560E08CE00E94571561E08AE0AD
:1012D0000E94571561E08CE00E94571560E08CE099
:1012E0000C9457150C9466330C945E3386EB96E0A1
:1012F0000E9412101816190694F486EB96E00E94CC
:10130000F00F8D3511F482E003C08B3521F481E0BC
:101310008093E20508951092E20580E00895089513
:101320000F931F93CF93DF93CDB7DEB7C555D10988
:101330000FB6F894DEBF0FBECDBF20912E01809175
:10134000300190913101211105C08D392FEF9207A5
:1013500009F0B2C040E250E060E070E021964CAF8E
:101360005DAF6EAF7FAF219722961FAE22978E01A1
:10137000075D1F4F24E1D8011D922A95E9F74AE045
:10138000BE016F5A7F4F0E9429334AE0BE01645B61
:101390007F4F80913201909133010E9429334AE0BE
:1013A000BE01695B7F4F80913401909135010E94AD
:1013B00029334AE0BE016E5B7F4F809136019091E8
:1013C00037010E94293388E0E4E6F5E0DE01559616
:1013D00001900D928A95E1F7FE017D968CE0DF0188
:1013E0001D928A95E9F78AE0E8E7F5E0DE011196BB
:1013F00001900D928A95E1F7FE013B968AE0DF01AC
:101400001D928A95E9F76AE371E0C8010E941733DB
:1014100080913001909131018D399F4F39F0809149
:101420003601909137010196A1F40AC0D801FE015E
:10143000759684E18E0F91919D938E13FCCFEFCF23
:10144000D801FE01319684E18E0F91919D938E1308
:10145000FCCFBE01635C7F4FC8010E941733BE0101
:101460006F5A7F4FC8010E941733BE01635C7F4FE4
:10147000C8010E941733BE01645B7F4FC8010E9400
:101480001733BE01635C7F4FC8010E941733BE0152
:10149000695B7F4FC8010E941733B80186EB96E065
:1014A0000E94C11464ED75E086EB96E00E94C114C1
:1014B0001092370110923601CB5ADF4F0FB6F894D5
:1014C000DEBF0FBECDBFDF91CF911F910F91089569
:1014D0000F931F93CF93E82FF0E0EE0FFF1FED5611
:1014E000FC4F059114910E944E0960E08BE00E9430
:1014F00057150E9452090E9452090E9452090E94E7
:1015000062090E945209C4E10E945209C150E1F7E8
:101510000E944E0960E08BE00E9457150E944E0920
:1015200060E08BE00E9457150E9462090E945209F8
:101530000E9452090E9452090E946209C0E100FF04
:1015400003C00E94620902C00E94520916950795C5
:10155000C150A9F70E9452090E9452090E945209E3
:101560000E9452090E944E0960E08BE00E945715CC
:1015700060E08CE00E94571560E08AE0CF911F91F7
:101580000F910C9457152F923F924F925F926F924A
:101590007F928F929F92AF92BF92CF92DF92EF9203
:1015A000FF920F931F93CF93DF93782E9AE0F92E3B
:1015B000C0E0D0E000E010E084E10E94C31584E1C7
:1015C0000E94C315080F191F85E10E94C31585E10C
:1015D0000E94C315C80FD91FFA94F110EDCFEAE0AD
:1015E000F0E0C801BF010E94AB309B01CE01BF01FA
:1015F0000E94AB308B0180912F01873061F5809183
:101600002601909127012817390720F430932701EC
:101610002093260180912401909125018217930740
:1016200020F4309325012093240180911E01909194
:101630001F010817190720F410931F0100931E01C2
:1016400080911C0190911D018017910720F4109347
:101650001D0100931C01C0902A01D0902B01E12CA8
:10166000F12CC901330FAA0BBB0B9C01AD012C1946
:101670003D094E095F09A3E6B0E00E949333209133
:101680002801309129014901A12CB12CA501940117
:101690002C193D094E095F090E94743369017A01D2
:1016A0008FEFC81AD80AE80AF80AE60180902201EA
:1016B00090902301A12CB12CC801110FAA0BBB0BD8
:1016C0009C01AD01281939094A095B09A3E6B0E07C
:1016D0000E9493332091200130912101890120E063
:1016E00030E0A9019801281939094A095B090E94CB
:1016F000743349015A018FEF881A980AA80AB80A68
:1017000084018FEF781272C08091DF05882321F069
:10171000823009F450C04CC0B401092C000C880B75
:10172000990B0E94F0312B013C01B6010D2C000CED
:10173000880B990B0E94F031A30192010E94D930CD
:10174000A30192010E94463120E030E048EC52E4CF
:101750000E9481322B013C0120E030E0A9010E946F
:101760007C3218161CF4C301B20103C0C301B201DC
:1017700090580E94B83164307105BCF08091190610
:101780000C171D0724F4181654F4815006C0C01716
:10179000D1072CF487301CF48F5F80931906809159
:1017A0001906882329F0873034F47090040105C0AD
:1017B0007724739402C082E0782E8091390190E002
:1017C000272D072C000C330B8217930779F07092AA
:1017D000390181E0781204C088B18C7F816003C038
:1017E00088B18C7F826088B97092040181E078169C
:1017F00031F080912F01873011F0E40101C0E60142
:101800002090150630901606409017065090180646
:10181000211431044104510429F10E94141692014B
:101820008101005C104E2F4F3F4F06171707280706
:101830003907C0F480912F018830A1F42091040170
:101840008091380182131BC08091140690E0AE0194
:101850004C5351098417950794F048585F4F481727
:1018600059076CF01C161D063CF4CE01C536D10597
:1018700074F184E690E02BC081E090E028C02093D2
:101880003801C0931406D0923101C0923001909279
:10189000330180923201872D770C990B909335019B
:1018A000809334018FEF9FEF90933701809336013F
:1018B0000E94900981E090E0A0E0B0E080931506DE
:1018C00090931606A0931706B0931806CBCFDF911E
:1018D000CF911F910F91FF90EF90DF90CF90BF902D
:1018E000AF909F908F907F906F905F904F903F90C0
:1018F0002F9008950E941416609315067093160693
:1019000080931706909318060E9414162091DA050A
:101910003091DB05621B730B6931710550F489E16D
:1019200090E09C01261B370BB90180E090E00C94FD
:10193000DA150895982FE3E6F3E080E02491291763
:1019400029F08F5F31968033C9F780E00895CF93F7
:10195000DF93EC0161E08DE00E94571580911A0140
:10196000882321F060E086E00E945715BE0176953D
:10197000679580E090E00E94DA1560E08DE00E94BB
:10198000571561E086E0DF91CF910C9457150F93C6
:101990001F93CF93DF9387B1836087B9409AE0911B
:1019A000C606F091C70682E08083E091C606F091FA
:1019B000C7061082E091C206F091C3061082E09142
:1019C000C406F091C50680E180831092CE06E091B6
:1019D000CA06F091CB0686E08083E091C806F091BC
:1019E000C906808180618083E091C806F091C906B4
:1019F000808188608083E091C806F091C90680816B
:101A000080688083E091C806F091C90680818F7D4F
:101A1000808361E08DE00E94871561E08DE00E9487
:101A2000571561E086E00E94871561E086E00E941C
:101A3000571560E082E00E94871562E082E00E9414
:101A4000571560E083E00E94871562E083E00E9402
:101A5000571560E084E00E94871562E084E00E94F0
:101A6000571560E085E00E94871562E085E00E94DE
:101A7000571561E08BE00E94871561E08AE00E94C3
:101A8000871561E08CE00E94871580E090E00E945D
:101A900074098F3F09F05EC061E080E090E00E9431
:101AA000720960E081E090E00E94720960911A0181
:101AB0008BE090E00E94720960912E0181E790E036
:101AC0000E947209609119018CE090E00E947209F5
:101AD0006AE582E090E00E94720960E083E090E0B5
:101AE0000E9472096CED84E090E00E94720960E04F
:101AF00085E090E00E94720967ED75E081E997E06A
:101B00000E94223301E917E0C4E1D0E0F8016191BD
:101B10008F01CE010E9472092196CE31D105B1F715
:101B20006091DF0586E090E00E9472096AE587E037
:101B300090E00E94720960E088E090E00E947209E3
:101B40006CED89E090E00E94720960E08AE090E02C
:101B50000E94720980E090E00E94740980932F0136
:101B600081E090E00E9474098093E0050E94680A79
:101B70008091E0058093DE058BE090E00E9474097F
:101B800091E0811101C090E090931A0181E790E00B
:101B90000E94740991E0811101C090E090932E01A0
:101BA0008CE090E00E94740991E0811101C090E006
:101BB0009093190101E917E0C4E1D0E0CE010E9441
:101BC0007409F80181938F012196CE31D105B1F7C7
:101BD00083E090E00E947409C82F82E090E00E94A8
:101BE00074092C2F30E0322F2227282B30932B0121
:101BF00020932A0185E090E00E947409C82F84E0B8
:101C000090E00E9474092C2F30E0322F2227282BDD
:101C1000309329012093280186E090E00E94740906
:101C20008093DF0588E090E00E947409C82F87E068
:101C300090E00E9474092C2F30E0322F2227282BAD
:101C400030932301209322018AE090E00E947409DE
:101C5000C82F89E090E00E9474092C2F30E0322FC9
:101C60002227282B309321012093200181E08093AB
:101C7000E10592E090937D079CE390937C0790911F
:101C80007E079F3F09F4BDC061E0809180070E94FC
:101C9000871561E0809182070E94871580918207F5
:101CA000082E000C990BFC01EF5EF64FE491F0E07A
:101CB000EE0FFF1FE350F74F2591349130938907C2
:101CC00020938807FC01EB5DF64FE491E0938E07CB
:101CD00080918007082E000C990BFC01EF5EF64FF7
:101CE000E491F0E0EE0FFF1FE350F74F25913491A0
:101CF00030938B0720938A07FC01EB5DF64FE4914C
:101D0000E0938F078091830781113EC061E080914D
:101D10007E070E94871561E080917F070E948715EA
:101D200080917F07082E000C990BFC01EF5EF64FA7
:101D3000E491F0E0EE0FFF1FE350F74F259134914F
:101D40003093870720938607FC01EB5DF64FE49103
:101D5000E0938D0780917E07082E000C990BFC0103
:101D6000EF5EF64FE491F0E0EE0FFF1FE350F74F08
:101D7000259134913093850720938407FC01EB5D16
:101D8000F64FE491E0938C0780918307882309F450
:101D90005EC0CFB7F89480911306811127C0EBE1A4
:101DA000F9E08491EFE2F9E09491E82FF0E0EE0F92
:101DB000FF1FED50F74FA591B491EC91E92321F469
:101DC00061E08AE00E94571561E08AE00E94871571
:101DD0008CB580618CBD8CB580648CBD61E08DE07C
:101DE0000E94871561E08BE00E94871580911306A1
:101DF0008F5F80931306CFBF80E58CBD81E08DBDE2
:101E000026C010921B0610921A0610929406109289
:101E1000B506109292068093910610926C0661E0CE
:101E200082E10E94571561E083E10E94571580917D
:101E3000B9008E7F8093B9008091B9008D7F809327
:101E4000B90088E48093B80085E48093BC00809159
:101E5000810787FD1EC061E00E94871561E08091C7
:101E600081070E94571561E070E080E090E00E94D9
:101E7000DA1560E0809181070E9457156AE070E0F2
:101E800080E090E00E94DA1561E0809181070E9475
:101E900057158EEA0E94441885ED0E94441880E888
:101EA0000E94441888EA0E9444188FE30E94441854
:101EB00083ED0E94441880E00E94441880E40E9450
:101EC00044188DE80E94441884E10E94441880E27E
:101ED0000E94441880E00E94441881EA0E9444183D
:101EE00088EC0E9444188AED0E94441882E10E9406
:101EF000441881E80E9444188FEC0E94441889ED30
:101F00000E94441881EF0E9444188BED0E944418EF
:101F100080E40E94441884EA0E94441886EA0E94E1
:101F200044188EE20E9444188FEA0E9444180E94CE
:101F30008D1860ED77E080E090E00E94DA150E9455
:101F40002B1885E10E94C315059714F41092DF0544
:101F500060E08DE0DF91CF911F910F910C945715A8
:101F6000FC01A5EFB5E090E02491222331F09E31F1
:101F700021F02D9331969F5FF7CFE92FF0E0EB50E2
:101F8000FA4F208385EF95E00895CF92DF92EF928C
:101F9000FF920F931F93CF93DF936C017A018B0114
:101FA000C0E0D0E0CE15DF0589F0D8016D918D013C
:101FB000D601ED91FC910190F081E02DC6010995CB
:101FC000892B11F47E0102C02196ECCFC701DF916D
:101FD000CF911F910F91FF90EF90DF90CF900895D8
:101FE000FC01918D828D981761F0828DDF01A80F21
:101FF000B11D5D968C91928D9F5F9F73928F90E043
:1020000008958FEF9FEF0895FC01918D828D9817B1
:1020100031F0828DE80FF11D858D90E008958FEFEE
:102020009FEF0895FC01918D228D892F90E0805CB7
:102030009F4F821B91098F739927089586EB96E035
:102040000E94121021E0892B09F420E0822F0895CC
:10205000FC01848DDF01A80FB11DA35ABF4F2C9145
:10206000848D90E001968F739927848FA689B78914
:102070002C93A089B1898C9180648C93938D848DED
:10208000981306C00288F389E02D80818F7D8083BC
:102090000895EF92FF920F931F93CF93DF93EC017C
:1020A00081E0888F9B8D8C8D981305C0E889F98914
:1020B000808185FD24C0F62E0B8D10E00F5F1F4F31
:1020C0000F731127E02E8C8DE8120CC00FB607FCA1
:1020D000FACFE889F989808185FFF5CFCE010E948A
:1020E0002810F1CF8B8DFE01E80FF11DE35AFF4F51
:1020F000F0820B8FEA89FB898081806207C0EE89BC
:10210000FF896083E889F98980818064808381E028
:1021100090E0DF91CF911F910F91FF90EF90089584
:10212000CF93DF93EC01888D8823C9F0EA89FB897E
:10213000808185FD05C0A889B9898C9186FD0FC075
:102140000FB607FCF5CF808185FFF2CFA889B9894A
:102150008C9185FFEDCFCE010E942810E7CFDF9153
:10216000CF91089580E090E0892B29F00E941E1005
:1021700081110C9400000895833081F028F481309F
:1021800099F08230A1F008958730A9F08830B9F035
:102190008430D1F4809180008F7D03C080918000D5
:1021A0008F7780938000089584B58F7702C084B5BF
:1021B0008F7D84BD08958091B0008F7703C080919A
:1021C000B0008F7D8093B00008953FB7F894809160
:1021D000680690916906A0916A06B0916B0626B5D3
:1021E000A89B05C02F3F19F00196A11DB11D3FBF4F
:1021F000BA2FA92F982F8827820F911DA11DB11DDD
:10220000BC01CD0142E0660F771F881F991F4A95D8
:10221000D1F7089585ED8093BC008091BC0084FDCA
:10222000FCCF10929206089540913E06262F30E092
:10223000240F311D21323105DCF420919206243027
:10224000C9F4FC0180E090E0861758F430913E0616
:102250002191DC01A45EB94FA30FB11D2C9301960F
:10226000F3CF80913E06680F60933E0680E00895AC
:1022700081E0089582E00895089581E090E0309132
:102280001B0620911A06321710F480E090E0919519
:1022900081959109089580911B0690911A068917DE
:1022A00030F48F5F80931B0680E090E008958FEFFD
:1022B0009FEF089580911A0690E020911B06821BE3
:1022C00091090895CF92DF92EF92FF920F931F939F
:1022D000CF93DF937C01262F972F8A01809193065D
:1022E000882391F0C62FD72F6E01C40ED51ECC15B2
:1022F000DD0571F06991D701ED91FC910190F081BC
:10230000E02DC7010995F3CF642F822F0E9414118D
:10231000C801DF91CF911F910F91FF90EF90DF9057
:10232000CF900895CF93DF931F92CDB7DEB7698327
:10233000209193062223D1F02091B506203240F05F
:1023400021E030E0FC013383228380E090E015C07F
:1023500080919406E82FF0E0EB56F94F9981908335
:102360008F5F809394068093B50605C061E0CE012F
:1023700001960E94141181E090E00F90DF91CF91BF
:10238000089508952F923F924F925F926F927F929D
:102390008F929F92AF92BF92CF92DF92EF92FF9275
:1023A0000F931F93CF93DF93CDB7DEB76B970FB625
:1023B000F894DEBF0FBECDBF4C015A8349831F8303
:1023C0000E83FD82EC82CB82DC0158964D915C91AC
:1023D00059974115510509F0A5C018968D919C910A
:1023E0001997681779070CF05AC11A968D919C912C
:1023F0001B97E981FA81E817F9070CF050C1D12C3D
:10240000CB013B81F6E03F9F800D911D11241816F2
:1024100019060CF044C1C60133E0880F991F3A95A4
:10242000E1F749815A81840F951F181619060CF09F
:1024300036C157968C91811103C0203B08F02F5F65
:1024400055E0259F900111247E876D875B01212C2B
:10245000C901861B970B99878887A981BA8118962D
:10246000BB87AA87B5E02B1641F0E885F985EA0D10
:10247000FB1DED50FC4F349001C0312C69807A80F7
:10248000230130FE12C0D401ED91FC91BB81B1302B
:1024900031F40480F581E02D2E813F8118C006843F
:1024A000F785E02DEE80FF801CC0EC81FD812E8140
:1024B0003F81E217F307E1F0D401ED91FC91BB817C
:1024C000B13051F40480F581E02D2C813D81A301D0
:1024D000B501C40109950CC00684F785E02DEC8098
:1024E000FD8086019601A2016D857E85C401099556
:1024F0003694EFEF6E1A7E0A4C0C5D1C2A853B85E4
:102500006216730609F0BDCF23943FEFA31AB30AF6
:102510004D855E854C0D5D1D5E874D8756E025120D
:10252000A1CFBDC0FA013496349132978591949130
:10253000231BA7E02A9F800D911D1124FA012591EC
:1025400034913A8B298BFC0125903490FC01329612
:1025500034913887319644914C873196E491FC014F
:102560003596A491319684915B81523050F06A2E59
:102570000A2E000C7708E82F082E000CFF0BFB87B3
:10258000EA87FB81CF2ED12C6C9C90016D9C300D85
:102590007C9C300D1124A901460F571F588B4F8783
:1025A0001C82A12CEA2FAA0FFF0B3B016E0E7F1E8F
:1025B0005885650F711DDB01AE0FBF1FBF8BAE8B42
:1025C000E981FA81E80FF11D87FDFA95F98FE88F0F
:1025D0009C85A91608F063C08A2D90E04A855B852A
:1025E000480F591F4C9D90014D9D300D5C9D300D45
:1025F0001124A981BA81A20FB31FBE87AD877B8E3C
:102600006A8E4F845888BC81B619BB8BE88DF98DD2
:10261000E80FF91FFD8BEC8B8B89FA8D8F0F2A8DBC
:102620003B8D4E895F892417350799F1877041F4F6
:10263000C1010196E989FA89E20DF31DB4901C01EC
:10264000B7FE1EC0D401ED91FC91BB81B13061F4A5
:102650000480F581E02D2E813F814C895D896A8D52
:102660007B8DC40109950CC00684F785E02DEE80B2
:10267000FF80860196014D855E85B201C4010995F2
:10268000BB0CEA8DFB8D3196FB8FEA8F4C0C5D1CE9
:10269000C3CF5C818885580F5C83A39499CF6B96D8
:1026A0000FB6F894DEBF0FBECDBFDF91CF911F9163
:1026B0000F91FF90EF90DF90CF90BF90AF909F90E1
:1026C0008F907F906F905F904F903F902F900895E4
:1026D000AF92BF92CF92EF92FF920F931F93CF933F
:1026E000DF93EC01262F888D998D009709F042C069
:1026F0006A3069F42C898E859F8538E0239F800D90
:10270000911D11249F878E871D861C86ACC06D305D
:1027100009F4A9C08E898823C1F03C898C859D85E8
:1027200046E0349F800D911D1124488559858417FA
:1027300095075CF01D861C868E859F85E8E03E9F90
:10274000800D911D11249F878E87EA88FB88088958
:1027500019894E855F856C857D85CC88CE010E9468
:10276000C2112C898C859D85F6E02F9F800D911DCF
:10277000112441C06A3079F41D861C862C89FC0125
:102780003696E4918E859F852E9F800D911D112494
:102790009F878E8768C06D3009F465C0AC014C5FBF
:1027A0005F4FFA013491631708F45DC03196E491EC
:1027B000E61708F458C0FA014491362F341BFC0187
:1027C0003296A590B490F7E03F9FA00CB11C112465
:1027D000F501329634913196E491332311F0E111F1
:1027E0000DC0F5013496E4912C898C859D85E29F7E
:1027F000800D911D11249D878C8735C0F50135967C
:1028000044915E89552311F16C89E32FF0E0E40FC8
:10281000F11D47FDFA956E9FD0016F9FB00D1124F9
:102820004C855D854A0F5B1FE885F9854E175F076C
:102830006CF01D861C86FC013696E4918E859F8582
:102840006E9F800D911D11249F878E87EA88FB88DB
:10285000088919894E855F856C857D85CC88CE0178
:102860000E94C211BECF81E090E0DF91CF911F9115
:102870000F91FF90EF90CF90BF90AF900895EF929F
:10288000FF920F931F93DC01ED91FC9111971A9623
:102890000D911C911B9718962D913C9119970684C8
:1028A000F785E02D7B0140E050E060E070E00995A5
:1028B0001F910F91FF90EF9008956F927F928F92EA
:1028C0009F92AF92BF92CF92DF92EF92FF920F93BF
:1028D0001F93CF93DF936C015A014801EB013B0139
:1028E000620E731EC615D70574F4D601ED91FC91E6
:1028F0000084F185E02D87019401A501BE01C60188
:1029000009952196EFCFDF91CF911F910F91FF9005
:10291000EF90DF90CF90BF90AF909F908F907F907F
:102920006F900895EF92FF920F931F93DC01ED914A
:10293000FC91260F371F215031090680F781E02DC9
:1029400078018A0109951F910F91FF90EF900895EA
:10295000EF92FF920F931F937801DC01ED91FC91B0
:10296000240F351F8901015011090680F781E02DE0
:102970009B0109951F910F91FF90EF9008950E9480
:1029800012336115710579F0FB0101900020E9F720
:102990003197AF01461B570BDC01ED91FC91028092
:1029A000F381E02D099480E090E008951F920F924A
:1029B0000FB60F9211242F933F934F935F936F9312
:1029C0007F938F939F93AF93BF93EF93FF9386EB88
:1029D00096E00E942810FF91EF91BF91AF919F91D7
:1029E0008F917F916F915F914F913F912F910F90B8
:1029F0000FBE0F901F9018951F920F920FB60F9257
:102A000011242F938F939F93EF93FF93E091C6062A
:102A1000F091C7068081E091CC06F091CD0682FD51
:102A200012C090818091CF068F5F8F732091D00666
:102A3000821751F0E091CF06F0E0EA54F94F958FFC
:102A40008093CF0601C08081FF91EF919F918F917C
:102A50002F910F900FBE0F901F901895CF93DF937B
:102A6000282F30E0F901E75CF64F8491F901EB5D26
:102A7000F64FD491F901EF5EF64FC491CC2391F05B
:102A800081110E94BC10EC2FF0E0EE0FFF1FE95FF8
:102A9000F64FA591B491EC91ED2381E090E021F403
:102AA00080E002C080E090E0DF91CF9108951F9315
:102AB000CF93DF93282F30E0F901E75CF64F849144
:102AC000F901EB5DF64FD491F901EF5EF64FC49139
:102AD000CC23C9F0162F81110E94BC10EC2FF0E01E
:102AE000EE0FFF1FE350F74FA591B4918FB7F89405
:102AF000111105C09C91ED2FE095E92302C0EC91E6
:102B0000ED2BEC938FBFDF91CF911F910895CF9361
:102B1000DF9390E0FC01EB5DF64F2491FC01EF5E4A
:102B2000F64F8491882361F190E0880F991FFC0192
:102B3000ED50F74FC591D491FC01E350F74FA591AB
:102B4000B491611109C09FB7F894888120958223C0
:102B50008883EC912E230BC0623061F49FB7F89408
:102B60003881822F809583238883EC912E2B2C93A0
:102B70009FBF06C08FB7F894E8812E2B28838FBFA4
:102B8000DF91CF9108958E3008F08E508770806469
:102B900080937C0080917A00806480937A00809199
:102BA0007A0086FDFCCF809178002091790090E03A
:102BB000922B08958F929F92AF92BF92CF92DF9205
:102BC000EF92FF926B017C010E94E5104B015C01CA
:102BD000C114D104E104F104F1F00E94E510DC011C
:102BE000CB0188199909AA09BB09883E9340A10520
:102BF000B10570F321E0C21AD108E108F10888EEAE
:102C0000880E83E0981EA11CB11CC114D104E104FC
:102C1000F10419F7DDCFFF90EF90DF90CF90BF90D8
:102C2000AF909F908F9008952FB7F89460916406AD
:102C30007091650680916606909167062FBF089592
:102C40001F920F920FB60F9211242F933F938F93E1
:102C50009F93AF93BF938091640690916506A09176
:102C60006606B09167063091630623E0230F2D3787
:102C700020F40196A11DB11D05C026E8230F029680
:102C8000A11DB11D20936306809364069093650691
:102C9000A0936606B09367068091680690916906D6
:102CA000A0916A06B0916B060196A11DB11D80939B
:102CB000680690936906A0936A06B0936B06BF916D
:102CC000AF919F918F913F912F910F900FBE0F90D9
:102CD0001F9018951F920F920FB60F9211242F93E9
:102CE0003F934F935F936F937F938F939F93AF9394
:102CF000BF93EF93FF938091B900887F803609F4EA
:102D00009CC068F5883209F45BC090F4803109F406
:102D100054C038F4882309F4F6C0883009F44DC053
:102D2000F6C0883109F44CC0803209F45DC0EFC0B0
:102D3000803409F468C048F4803309F455C08833FE
:102D400009F0E5C080939006D8C0803509F44FC0E3
:102D5000883509F45DC0883409F0D9C0D6C08839F7
:102D600009F4C7C0A8F4883709F467C038F4883676
:102D700009F463C0803709F460C0C9C0883809F419
:102D8000B8C0803909F45FC0803809F0C0C05BC0AA
:102D9000803B09F486C038F4803A09F466C0883A6A
:102DA00009F47FC0B4C0803C09F4A7C0883C09F492
:102DB000A4C0883B09F48AC0AAC080916D0610C0E7
:102DC00090918F0680918E06981770F5E0918F068E
:102DD00081E08E0F80938F06F0E0E259F94F8081F9
:102DE0008093BB0085EC86C0809390068EC0E091F6
:102DF0008F0681E08E0F80938F068091BB00F0E0FC
:102E0000E259F94F808390918F0680918E066EC0B3
:102E1000E0918F0681E08E0F80938F068091BB003A
:102E2000F0E0E259F94F80838091910681116DC0E5
:102E300081E080936C0684EA61C083E0809392060F
:102E400010926206CFCF80916206803208F051C0A6
:102E5000E091620681E08E0F809362068091BB0054
:102E6000F0E0EE5BF94F8083BDCF85EC8093BC0032
:102E70001092920680916206803230F4E0916206F0
:102E8000F0E0EE5BF94F10826091620670E0E09135
:102E90004006F091410682E496E0099510926206A0
:102EA00036C084E08093920610923F0610923E0650
:102EB000E0913C06F0913D06099580913E06811116
:102EC00005C081E080933E0610921C06E0913F060B
:102ED00081E08E0F80933F06F0E0E45EF94F808141
:102EE0008093BB0090913F0680913E06981708F4AE
:102EF00079CF85E88093BC000AC085EC8093BC0044
:102F00001092920604C0109290060E940A11FF913E
:102F1000EF91BF91AF919F918F917F916F915F9151
:102F20004F913F912F910F900FBE0F901F901895CA
:102F30002091B50690919007213208F04AC0809107
:102F400092068111FCCF32E03093920631E030934B
:102F500091063FEF3093900610928F0620938E06D5
:102F6000A5E9B6E04EE656E0FA013E2F341B3217D3
:102F700018F43D913193F9CF10926D0620916D06B2
:102F8000990F922B90936D0690916C06913061F49D
:102F900010926C0690916D069093BB009091BC00CE
:102FA00093FDF8CF95EC01C095EE9093BC00909105
:102FB00092069230E1F3909190069F3F79F08091D4
:102FC0009006803241F080919006803331F084E0A9
:102FD00005C081E003C082E001C083E01092940646
:102FE0001092B50610929306089590918307992345
:102FF00039F08EBD00000DB407FEFDCF8EB50895EB
:1030000028E030E040E8E0918607F09187075081A2
:1030100090918D07909595239083E0918407F0918E
:10302000850790918C07542F582319F05081952BC8
:1030300003C05081909595239083E0918607F0918D
:103040008707508190918D07952B9083469521504D
:103050003109C9F6089580E094E0ECE4F1E0DF0185
:103060009C011D9221503040E1F7E2E6F7E0158621
:1030700014861786168681E0848B81E090E0938B1E
:10308000828B918B808B0895CF93C82F80917E0780
:103090008F3F59F1E0918807F091890780819091E5
:1030A0008E07982B9083E0918A07F0918B072081FF
:1030B00090918F07909592239083E0918807F091EB
:1030C0008907208190918E079095922390838C2F71
:1030D0000E94F517E0918807F0918907908180910F
:1030E0008E07892B8083CF91089580917C0791E092
:1030F0009093930680939007109294061092B506D1
:1031000060E083E597E00E9492116C2F83E597E0E1
:103110000E949211CF910C949817EF92FF920F9307
:103120001F93CF93DF9381E20E94441880E00E94B6
:1031300044188FE70E94441882E20E94441880E0FD
:103140000E94441887E00E94441880917E078F3FB8
:1031500079F1E0918807F0918907908180918E073D
:10316000892B8083E0918A07F0918B079081809171
:103170008F07892B8083E0918807F09189079081E0
:1031800080918E07809589238083CCE4D1E089915A
:103190000E94F51785E0CC34D807C9F7E09188077D
:1031A000F0918907908180918E07892B808330C0B0
:1031B000F090B8008CE08093B800CCE4D1E0EE242D
:1031C000E39480917C07E09293068093900710929D
:1031D00094061092B50660E483E597E00E94921190
:1031E00000E010E0FE01E00FF11F608183E597E051
:1031F0000E9492110F5F1F4F0031110599F70E9435
:103200009817609685E0CC34D807D9F6F092B800CC
:10321000DF91CF911F910F91FF90EF900895BC0126
:1032200082E697E00C94C114CF92DF92EF92FF9266
:103230000F931F93CF93DF936C01C2E6D7E00A850B
:103240001B8528853985EE24E394F12C40E050E07D
:1032500060E070E0CE010E940105288539850BE011
:1032600010E040E050E060E070E0CE010E945D14AC
:1032700081E08C8B1B8A1A8A198A188AF6010190C0
:103280000020E9F73197EC19FD0926E02E9FC001D7
:103290002F9F900D112428853985281B390B3695D1
:1032A00027953D872C8782E090E09F878E87C60117
:1032B0000E940F1981E090E09B8B8A8B998B888B01
:1032C000DF91CF911F910F91FF90EF90DF90CF9002
:1032D00008958F929F92AF92BF920F931F93CF93B7
:1032E000DF93CDB7DEB7A1970FB6F894DEBF0FBE60
:1032F000CDBF19A2423008F44AE08E010F5D1F4F86
:10330000842E912CA12CB12CA50194010E949E33F6
:10331000E62FB901CA0101501109EA3014F4E05D49
:1033200001C0E95CD801EC93232B242B252B61F7FA
:10333000B80182E697E00E94C114A1960FB6F894F6
:10334000DEBF0FBECDBFDF91CF911F910F91BF9018
:10335000AF909F908F900895CF93C82F0E942B1805
:103360008DE499E00E94B00F0E941419E2E6F7E0A4
:1033700085E0848B81E090E0938B828B918B808BB6
:1033800084E190E095878487978786876C2F70E02B
:1033900080E090E04AE00E9469190E948D18CF9168
:1033A0000C942B18E0916207F09163070190F08173
:1033B000E02D682F82E697E00994CF92DF92EF929A
:1033C000FF920F931F93CF93DF93182FEB016A01A6
:1033D0000E942B188DE999E00E94B00F0E941419E9
:1033E00081E090E090937507809374079093730742
:1033F0008093720735E0E32EF12CF0926F07E09294
:103400006E078CE090E090937107809370078EE8D0
:1034100099E00E94B00F0E940F19F0926F07E0929E
:103420006E074CE1E42EF12CF0927107E0927007E8
:1034300088E899E00E94B00F0E940F1986E290E0A0
:1034400090936F0780936E07F0927107E092700778
:10345000612F67706F5F70E080E090E04AE00E944B
:1034600069198DE9C8168FEFD806E9F08CE799E065
:103470000E94B00F0E940F190D2C000CEE08FF08DF
:10348000F7FE0CC08DE20E94D21966277727CB0188
:103490006C197D098E099F094AE003C04AE0C70103
:1034A000B6010E94691985E090E090936F078093C0
:1034B0006E0704E210E010937107009370078EE628
:1034C00099E00E94B00F0E940F1986E290E090935D
:1034D0006F0780936E071093710700937007BE010A
:1034E00080E090E04AE00E94691980916A0790911B
:1034F0006B078254910997FD019695958795909356
:103500006F0780936E0784E390E090937107809338
:10351000700782E699E00E94B00F0E940F19DF91B8
:10352000CF911F910F91FF90EF90DF90CF900C946F
:103530008D18CF93DF93CDB7DEB72D970FB6F894E4
:10354000DEBF0FBECDBF789484B5826084BD84B5E4
:10355000816084BD85B5826085BD85B5816085BD8E
:1035600080916E00816080936E0010928100809146
:1035700081008260809381008091810081608093CE
:103580008100809180008160809380008091B100F3
:1035900084608093B1008091B00081608093B0001E
:1035A00080917A00846080937A0080917A008260B2
:1035B00080937A0080917A00816080937A00809174
:1035C0007A00806880937A001092C1000E94C70C34
:1035D00045E0642E712C83E00E942E15892B09F0A2
:1035E00062C01092F1051092F2051092F30510924C
:1035F000F40582E390E00E94A70C64E670E080E0AE
:1036000090E00E94DA1582E390E00E94A70C64E645
:1036100070E080E090E00E94DA15D12C83E00E94F7
:103620002E15892B59F42AE0D21641F064E670E099
:1036300080E090E00E94DA15D394F0CF109231012F
:103640001092300183E090E0909333018093320137
:103650000E94900980912F01811103C081E0809325
:103660002F0132E03A8382E3898387E1882E912C0F
:1036700091E2292E312C25E3422E512C35E0A32E48
:1036800099E09D1510F00C94ED2B86E080932F01AE
:103690008EEF9FEF90933101809330010E9490094B
:1036A0008FEF80932C011092ED0585E00E942E157E
:1036B000892B19F486E080932F018091E105109108
:1036C0002F01811105C080912C01181709F4EFC357
:1036D0001092E105133011F40C941F2E48F41130B0
:1036E00009F4FDC0123009F0DEC310932D0152C061
:1036F000173029F1193009F4B9C3163009F0D3C3D2
:103700006091E00581E090E00E94720960912D01D6
:1037100080E090E00E94720960911A018BE090E0D5
:103720000E947209609119018CE090E00E94720978
:1037300061E9E62E67E0F62E04E110E0CDC162E318
:1037400070E070932B0160932A014CE251E050939A
:103750002901409328012CED30E03093270120937C
:1037600026018AE590E090932501809324017093CF
:103770002301609322015093210140932001309353
:103780001F0120931E0190931D0180931C0183E073
:103790008093EC051092EB05E3E6F3E0E491E0930F
:1037A000E0051092EA051092E90581E08093EE05AC
:1037B0000E942B1810926007123099F480E391E078
:1037C0000E94B00F0E94141970926F0760926E07EA
:1037D0008CE090E090937107809370078AE291E00B
:1037E00012C08FE191E00E94B00F0E9414197092F4
:1037F0006F0760926E078CE090E090937107809362
:10380000700781E191E00E94B00F0E940F19209192
:103810006A0730916B07EE24E394F12C04E110E089
:1038200044E150E060E070E082E697E00E945005DD
:1038300040916C0750916D074B50510920916A07D8
:1038400030916B078A0160E070E082E697E00E94A9
:10385000500580916C0790916D07099722E030E048
:1038600030936F0720936E079093710780937007D2
:103870008CE091E00E94B00F0E940F1980916C07BC
:1038800090916D07099727E330E030936F072093FD
:103890006E07909371078093700787E091E00E9414
:1038A000B00F0E940F1980916C0790916D070997D6
:1038B00020916A0730916B072951310930936F07C6
:1038C00020936E07909371078093700782E091E0D8
:1038D0000E94B00F0E940F190E948D18E4C280E56B
:1038E00080931B011092EA051092E9051093F005F0
:1038F0001092F1051092F2051092F3051092F40562
:103900008FEF809361070E942B18193019F48DE610
:1039100091E009C0133019F481E691E004C0113040
:1039200031F482E591E00E94B00F0E94141981E009
:1039300090E090937507809374079093730780933A
:10394000720720916A0730916B0701E010E044E1B3
:1039500050E060E070E082E697E00E94540720911A
:103960006A0730916B0740E250E060E070E082E669
:1039700097E00E94540770926F0760926E078CE088
:1039800090E09093710780937007EE24E394F12CFC
:1039900004E110E021E630E04BE050E061E670E049
:1039A00082E697E00E9450058CE491E00E94B00FFF
:1039B0000E940F1921E308E010E0F7E1EF2EF12C4F
:1039C00010936F0700936E07F0927107E0927007F3
:1039D000822F2B870E94D219015F1F4F2B852F5FEB
:1039E000293371F720916A0730916B07EE24E39435
:1039F000F12C04E210E044E250E060E070E082E686
:103A000097E00E94500540916C0750916D074B5014
:103A1000510920916A0730916B078A0160E070E0DC
:103A200082E697E00E94500580916C0790916D07A7
:103A3000099722E030E030936F0720936E07909350
:103A400071078093700787E491E00E94B00F0E9495
:103A50000F1980916C0790916D07099727E330E06B
:103A600030936F0720936E079093710780937007D0
:103A700082E491E00E94B00F0E940F1980916C07C0
:103A800090916D07099720916A0730916B07295132
:103A9000310930936F0720936E07909371078093DD
:103AA00070078DE391E00E94B00F0E940F190E94F1
:103AB0008D1880912D01823031F0893021F0809174
:103AC0002C01873031F481E090E00E9474098093EA
:103AD000E00580912F01E5C1F70161917F01C801E7
:103AE0000E9472090F5F1F4F0E311105A9F76091F7
:103AF000DF0586E090E00E94720980912C018530FC
:103B000009F46BC080912D01893009F466C08FE6FD
:103B100090E00E9474098F3FE9F08CE690E00E94EB
:103B2000740990E08930910521F08C010F5F1F4FDF
:103B300002C000E010E0F801EE0FFF1FE05BFA4F5B
:103B40006FEF808191810E947209602F8CE690E076
:103B50000E947209E12CF12CF701EE0FFF1FE05BD0
:103B6000FA4F00811181C8010E9474098F3F69F4E6
:103B70006091E005C8010E9472096E2D8CE690E00C
:103B80000E9472093CE0E32EF12CFFEFEF1AFF0ACE
:103B90002AE0E216F10404F38EEF9FEF90933101D7
:103BA0008093300110923301109232010E949009EB
:103BB0008CE690E00E9474099091E005E92FF0E016
:103BC000EE0FFF1FED5FFC4F65917491482F50E0A1
:103BD0004F5F5F4F892F0E94DD1980912C01853046
:103BE000D1F48EEF9FEF90933101809330011092CA
:103BF0003301109232010E9490098091E005E82F74
:103C0000F0E0EE0FFF1FED5FFC4F659174914DE901
:103C10005FEF0E94DD1980912D01893009F00BC101
:103C200080912C018F3F09F006C18DEF9FEF90939B
:103C300031018093300110923301109232010E94C1
:103C40009009E091E705F091E805EE0FFF1FE05BBA
:103C5000FA4F6FEF808191810E947209D090E70541
:103C6000D394E091E005F0E0EE0FFF1FED5FFC4F15
:103C7000A590B4900E942B1884EA91E00E94B00FA6
:103C80000E94141981E090E0909375078093740767
:103C9000909373078093720770926F0760926E071C
:103CA000BCE0EB2EF12CF0927107E092700786E9F0
:103CB00091E00E94B00F0E940F1905E510E01093EB
:103CC0006F0700936E07F0927107E0927007B501DD
:103CD00080E090E04AE00E94691970926F0760925C
:103CE0006E0784E1E82EF12CF0927107E0927007E4
:103CF00089E891E00E94B00F0E940F1910936F079E
:103D000000936E07F0927107E09270076D2D70E0DE
:103D100080E090E04AE00E94691980916A079091E2
:103D20006B078254910997FD01969595879590931D
:103D30006F0780936E0784E390E090937107809300
:103D400070078BE791E00E94B00F0E940F190E944C
:103D50008D1865E0E62E61E0F62EF7018FEF90E01A
:103D60008193919331E0E931F307D1F700E515E054
:103D70006801F601819191916F010E9474098F3F52
:103D800031F4F4E6CF16F5E0DF0699F717C090E0BE
:103D900020E030E0F901EE0FFF1FEB5FFE4F4081A6
:103DA00051814F3F510521F4918380832CE030E015
:103DB0002F5F3F4F2A3031056CF3E3CFF70160816D
:103DC000F2E0EF0EF11CF801819191918F010E94B8
:103DD0007209F9E1EF16F1E0FF0681F71092E605AE
:103DE00068EE73E080E090E00E94DA1560E08CE617
:103DF00090E00E94720984E690E00E94740980932A
:103E0000E0051092E8051092E70584E690E00E9434
:103E100074098093E00581E00E94AC196091E0058F
:103E2000862F6B870E949A0C8093EB056B8581E04F
:103E300090E00E94720915E084E690E00E94A70CD1
:103E400064E670E080E090E00E94DA151150A1F77E
:103E500060E273E080E090E00E94DA1580912D012D
:103E600080932F0181E08093E1051DC00E9414160C
:103E70006093F1057093F2058093F3059093F40538
:103E800080912D01823031F0893021F080912C0118
:103E9000873031F481E090E00E9474098093E0055E
:103EA00089E080932D0180912F0180932C018091D6
:103EB0002F01982F9D7F983009F0BDC26091E005D9
:103EC00070E0FB01EE0FFF1FED5FFC4FE590F490FB
:103ED000FB01ED52FD4FA490B090DF050E942B181E
:103EE00084E08093760788248394912C90927507C0
:103EF00080927407909273078092720702E010E03C
:103F000010936F0700936E0710927107109270075D
:103F1000B70180E090E04AE00E946919FF24F39421
:103F2000F092760710926F0710926E078CE190E086
:103F3000909371078093700781E997E00E940F19B1
:103F400082E08093760722E6C22ED12CD0926F07B2
:103F5000C0926E07109371070093700790927507D7
:103F60008092740790927307809272076A2D70E0B6
:103F700080E090E040E10E946919F0927607E12C20
:103F8000F12C0BE110E022E330E04BE150E060E087
:103F900070E082E697E00E94500585E10E94C3151B
:103FA000059734F1D0926F07C0926E0784E190E0DC
:103FB00090937107809370079092730780927207B5
:103FC000109275071092740721E0B21659F0B216DC
:103FD00030F032E0B3120CC08DEB91E005C089ECFB
:103FE00091E002C083EC91E00E94B00F0E940F1993
:103FF0001092730710927207CC24C394D12CD092E4
:104000007507C092740740916C0750916D074B5132
:104010005109EE24E394F12C0DE010E027E030E0AC
:1040200060E070E082E697E00E945D1480916C078A
:1040300090916D074897D0926F07C0926E0790934A
:104040007107809370078BEB91E00E94B00F0E9484
:104050000F196AE082E697E00E94681310927307D6
:1040600010927207D0927507C092740740916C0746
:1040700050916D074D50510927E030E060E070E04D
:1040800082E697E00E945D1480916C0790916D0725
:104090000B97D0926F07C0926E0790937107809331
:1040A000700789EB91E00E94B00F0E940F190E94E7
:1040B0008D180E9414166093F1057093F205809399
:1040C000F3059093F40588248394912C07E7A02EA0
:1040D000B12C8FEF0E94C30A8093E505C090F105D3
:1040E000D090F205E090F305F090F405C114D104EE
:1040F000E104F10479F00E941416E0E7CE0EE7E146
:10410000DE1EE11CF11CC616D706E806F90610F4FF
:104110000C942B2E82E00E94C30AD82E81E00E94CC
:10412000C30A89835090E505C090040180912F0156
:104130008A3009F068C00E942B18F9812F2E312C8B
:10414000412C512CA2019101215031094109510901
:10415000A4E7B0E00E94933323E630E040E050E073
:104160000E947433DA01C9010396A11DB11D282FE5
:1041700030E0EE24E394F12C0EE110E04EE150E04B
:1041800060E070E082E697E00E945D1427E730E08F
:104190004EE150E060E070E082E697E00E940105A9
:1041A00024E020937607909275078092740790928E
:1041B00073078092720784E190E090936F07809379
:1041C0006E0710927107109270074AE0C201B101A8
:1041D0000E94691989ED91E00E94B00F0E940F19A9
:1041E00010926F0710926E0710927107109270076D
:1041F0009981923310F068E101C069E182E697E0AD
:104200000E946813FAC085E10E94C31505970CF45B
:10421000BFC0E9818E2F90E0A0E0B0E09C01AD012D
:104220002150310941095109A4E7B0E00E949333BC
:1042300023E630E040E050E00E947433DA01C90127
:104240000396A11DB11D282E312C95012219330989
:1042500040916C0750916D074B515109B101695F55
:104260007F4FE12CF12C0DE010E082E697E00E94F8
:104270005D1440916C0750916D07F1E04B5151096D
:10428000CF120BC0EE24E394F12C910167E070E0B3
:1042900082E697E00E945D141CC0E12CF12C0DE039
:1042A00010E027E730E067E070E082E697E00E94E8
:1042B0005D1440916C0750916D074B515109EE24EC
:1042C000E394F12C910167E070E082E697E00E94B0
:1042D00001058D2D90E0A0E0B0E09C01AD012150E2
:1042E000310941095109A4E7B0E00E94933323E664
:1042F00030E040E050E00E947433DA01C9010396D7
:10430000A11DB11D282E312C950122193309409190
:104310006C0750916D074D505109B101695F7F4F96
:10432000E12CF12C0DE010E082E697E00E945D1494
:1043300040916C0750916D0722E04D505109C21217
:104340000BC0EE24E394F12C910167E070E082E66B
:1043500097E00E945D141CC0E12CF12C0DE010E0F0
:1043600027E730E067E070E082E697E00E945D14A6
:1043700040916C0750916D074D505109EE24E39424
:10438000F12C910167E070E082E697E00E94010560
:1043900033E1351578F10E9414162AEF30E040E041
:1043A00050E00E949E3321E030E06D3771058105B9
:1043B000910510F020E030E03093730720937207EE
:1043C000109275071092740780916C0790916D0799
:1043D0004297EDE2F0E0F0936F07E0936E07909361
:1043E0007107809370078EEC91E00E94B00F0E94DD
:1043F0000F1903C085E10E94C3150E948D1883E048
:104400000E942E15019711F00C943D2E82E00E941F
:104410002E15019711F00C943D2E84E00E942E156C
:10442000019711F00C943D2E0E947609882309F41F
:1044300050CE0C943D2E843009F0C5C14090DF056C
:1044400087E1882E912C91E2292E312C2CE6A22E88
:10445000B12C4092DF050E942B188DEF91E00E9455
:10446000B00F0E94141920916A0730916B07FAE08F
:104470004F9EA0011124445F5F4FEE24E394F12C82
:104480000AE010E060E070E082E697E00E945D14D0
:1044900081E090E0411002C080E090E090937507C9
:1044A00080937407909373078093720770926F07DD
:1044B00060926E072DE030E0309371072093700713
:1044C00088EF91E00E94B00F0E940F1981E090E008
:1044D00031E0431202C080E090E090937507809332
:1044E0007407909373078093720770926F076092BE
:1044F0006E0790927107809270078DEE91E00E9496
:10450000B00F0E940F1981E090E0E2E04E1202C06D
:1045100080E090E090937507809374079093730701
:104520008093720770926F0760926E0730927107E6
:104530002092700782EE91E00E94B00F0E940F1946
:1045400081E090E0909375078093740790937307D0
:104550008093720720916A0730916B0740916C0736
:1045600050916D0745515109EE24E394F12C0BE075
:1045700010E060E070E082E697E00E940105809123
:104580006C0790916D07439770926F0760926E076A
:1045900090937107809370078FED91E00E94B00FA8
:1045A0000E940F1980916C0790916D070997709286
:1045B0006F0760926E0790937107809370078DED7F
:1045C00091E00E94B00F0E940F190E948D188FEF8A
:1045D0000E94C30A82E00E94C30A898381E00E948C
:1045E000C30A5090040190E0A0E0B0E09C01AD014E
:1045F0002150310941095109ABE6B0E00E949333E3
:1046000023E630E040E050E00E947433DA01C90153
:104610000196A11DB11DC82ED12C95012C193D0963
:1046200040916C0750916D0743515109B6016E5E80
:104630007F4FE12CF12C07E010E082E697E00E942A
:104640005D1440916C0750916D07F1E043515109A1
:104650005F120BC0EE24E394F12C960162E170E04E
:1046600082E697E00E945D141BC0E12CF12C07E06C
:1046700010E0960162E170E082E697E00E945D142E
:1046800040916C0750916D0743515109EE24E3941A
:10469000F12C960162E170E082E697E00E9401054C
:1046A0002981822F90E0A0E0B0E09C01AD01215073
:1046B000310941095109ABE6B0E00E94933323E68A
:1046C00030E040E050E00E947433DA01C901019605
:1046D000A11DB11DC82ED12C95012C193D09409169
:1046E0006C0750916D0749505109B6016E5E7F4FBE
:1046F000E12CF12C07E010E082E697E00E945D14C7
:1047000040916C0750916D0732E0495051095312A6
:104710000BC0EE24E394F12C960162E170E082E696
:1047200097E00E945D141BC0E12CF12C07E010E023
:10473000960162E170E082E697E00E945D1440918C
:104740006C0750916D0749505109EE24E394F12C08
:10475000960162E170E082E697E00E9401050E9406
:104760008D1883E00E942E15019779F482E00E9453
:104770002E15019751F484E00E942E15019729F41B
:104780000E947609882309F422CF83E00E942E1527
:10479000892B11F00C94422E10E082E0841514F065
:1047A0000C944C2E412C82E390E00E94A70C68EC04
:1047B00070E080E090E00E94DA1511114ACE8091FD
:1047C0002D0180932F0180912F01893019F01092D3
:1047D000E605A5C00E947A0C8FEF0E94C30A809361
:1047E000E5052091E9053091EA0590E082179307ED
:1047F00008F4C9019093EA058093E9050E94141614
:104800006093F1057093F2058093F3059093F4059E
:104810008091E60581111FC069E080E090E00E9470
:1048200072091092E40560E5E62E65E0F62E10E0D0
:1048300001E0F701819191917F010E9474098F3FFE
:1048400021F01093E3050093E4051F5F1A3089F708
:1048500081E08093E60582E00E942E15892B11F4F9
:104860000C94662E8091E205813011F40C94662E32
:1048700084E00E942E15892B11F40C94C82E80918F
:10488000E205823011F40C94C82E8091E405811168
:104890000C94612E0E942B188DE092E00E94B00FC4
:1048A0000E94141983E08093760781E090E0909352
:1048B000750780937407909373078093720784E160
:1048C00090E090936F0780936E07909371078093A9
:1048D000700787E092E00E94B00F0E940F190E94BB
:1048E0008D1884E090E09093310180933001E09145
:1048F000E005F0E0EE0FFF1FED5FFC4F8591949116
:1049000090933301809332018091E7059091E805FF
:10491000019690933501809334010E949009809113
:104920002F01982F9D7F913009F09DC30E947A0C32
:104930008FEF0E94C30A8093E5050E947609182F25
:104940008093E2050091E005802F0E949A0CF82EDA
:104950008093EB0580912F01833009F08AC083E0BA
:1049600090E0909331018093300182E00E942E15F7
:10497000892B11F0113029F50E9414166093F1056E
:104980007093F2058093F3059093F40582E390E031
:104990000E94A70C68EC70E080E090E00E94DA15BD
:1049A0001092E2050F5F0093E00581E08F0D8033E8
:1049B00014F40C942B2F1092EB05003310F010928E
:1049C000E00584E00E942E15892B21F08091E205FC
:1049D000823039F50E9414166093F1057093F20548
:1049E0008093F3059093F40582E390E00E94A70C76
:1049F00068EC70E080E090E00E94DA151092E20529
:104A00009091E00591509093E0058091EB058150E5
:104A100087FD8FE28093EB05903318F08FE280934F
:104A2000E0058091E00590E0880F991F8D5F9C4F15
:104A3000FC0125913491409132015091330142178C
:104A4000530749F0FC0125913491309333012093B1
:104A500032010E9490098091190181110AC0E091F0
:104A6000EB050E2E000CFF0BED59FC4FE491E0938B
:104A7000E00580912F01813009F0A0C082E090E034
:104A800090933101809330016091E9057091EA05BE
:104A900080E090E00E94EE312DEC3CEC4CE45FE3D2
:104AA0000E9481320E94B83120911B0130E026170C
:104AB000370714F460931B012091EF05211144C0C6
:104AC0002091F005211114C03091E50520911B01C2
:104AD000231770F481E08093EF050E941416609311
:104AE000F1057093F2058093F3059093F4052CC0C3
:104AF0001092F0053091EB0520910301230F2093D4
:104B0000EB0520332CF060931B011092EB0507C0DE
:104B100027FF09C060931B018FE28093EB05109281
:104B2000EA051092E90580911B01853008F485E0C3
:104B300080931B01E091EB050E2E000CFF0BED594D
:104B4000FC4FE491E093E0050E947609182F8093D2
:104B5000E20582E00E942E15892B49F084E00E9434
:104B60002E15892B21F08FEF810F823028F582E0FE
:104B70000E942E15892B21F0113011F00C942F2F4B
:104B800081E08093030182E390E00E94A70C1092E1
:104B9000E20568EC70E080E090E00E94DA1581E0C8
:104BA0008093F0051092EF051092F1051092F20536
:104BB0001092F3051092F4050E949009C090F1053F
:104BC000D090F205E090F305F090F4050E941416E1
:104BD0009701860108571C4E2F4F3F4F06171707A6
:104BE0002807390760F4C114D104E104F104D9F0B5
:104BF0008091E505833310F00C94322F05C0C11469
:104C0000D104E104F10479F00E941416F0E7CF0E0C
:104C1000F7E1DF1EE11CF11CC616D706E806F9060F
:104C200010F40C94322F1091E0058091DE0581176D
:104C300009F40AC42090EF0530901B01E12FF0E049
:104C4000EE0FFF1FED5FFC4F859094905090E505AF
:104C50004090EB0520912F01298380916107481630
:104C600009F4A3C0841510F483E001C08FEF809392
:104C7000000181E090E09093730780937207109297
:104C800075071092740784E290E090936F07809309
:104C90006E078CE090E09093710780937007183254
:104CA00018F087E692E016C0103218F08DE592E019
:104CB00011C0183118F083E592E00CC0103118F0E3
:104CC00089E492E007C0183018F08FE392E002C048
:104CD00085E392E00E94B00F0E940F19177084E0E4
:104CE000A82EB12CC12CD12C812F90E09B838A83DC
:104CF000EE24E394F12CEA81FB81CE16DF0611F05D
:104D0000E12CF12C0BE010E02EE030E045E150E02A
:104D1000B50182E697E00E945D1481E090E02A816F
:104D20003B81C216D30611F480E090E090937507A2
:104D3000809374079093730780937207C50104965C
:104D400090936F0780936E0787E190E090937107CF
:104D50008093700781E38C0D0E94D2199FEFC91ACE
:104D6000D90AEFE0AE0EB11CF8E0CF16D10409F07D
:104D7000BFCF85E690E090936F0780936E078CE03D
:104D800090E0909371078093700781E090E090939A
:104D90007307809372071092750710927407B4011D
:104DA00080E090E04AE00E94691900916A07109142
:104DB0006B0703501109852C912CA12CB12C21E0FB
:104DC000821A9108A108B108C801012E000CAA0B93
:104DD000BB0BBC01CD016150710981099109A5018D
:104DE00094010E949B3023E630E040E050E00E94B6
:104DF0007433DA01C9010196A11DB11DC82ED12C51
:104E000098012C193D09B6016F5F7F4FE12CF12C01
:104E100003E010E041E250E082E697E00E945D147A
:104E2000EE24E394F12C960141E250E061E070E061
:104E300082E697E00E945D14ADE0B0E0A501940128
:104E40000E94933323E630E040E050E00E94743348
:104E500049015A018FEF881A980AA80AB80A93E004
:104E6000499E60011124E4E0CE0ED11C0EE010E05A
:104E70000819190940916C0750916D074A51510961
:104E8000E12CF12C22E030E0B60182E697E00E94AE
:104E90005D1440916C0750916D074C5051094819B1
:104EA0005909EE24E394F12C840122E030E0B601AC
:104EB00082E697E00E945D14F981F13009F0BFC0ED
:104EC00040916C0750916D074A51510925E0429E6F
:104ED000B0011124759567956C5F7F4F809100013B
:104EE000680F711D87FD7A95E12CF12C0EE010E022
:104EF00021E030E082E697E00E945D1440916C076B
:104F000050916D074A51510922E030E061E070E0B4
:104F100082E697E00E945D14832D90E0A0E0B0E06F
:104F20009C01AD012150310941095109ADE0B0E0CA
:104F30000E94933323E630E040E050E00E94743357
:104F400049015A018FEF881A980AA80AB80A4091B5
:104F50006C0750916D074C50510948195909EE24BE
:104F6000E394F12C8A0122E030E061E070E082E617
:104F700097E00E94500540916C0750916D074A518F
:104F8000510960916A0770916B0763507109E12CB8
:104F9000F12C0EE010E022E030E082E697E00E9483
:104FA0005D1440916C0750916D074C5051094819A0
:104FB000590920916A0730916B07B9016350710953
:104FC000EE24E394F12C8A0182E697E00E945005DA
:104FD00080916A0790916B07109273071092720785
:104FE00021E030E0309375072093740784559109D0
:104FF000222089F097FD01969595879590936F07EC
:1050000080936E0782E090E0909371078093700721
:1050100086E292E010C097FD019695958795909352
:105020006F0780936E0782E090E090937107809302
:10503000700787E192E00E94B00F0E940F19409222
:1050400061070E948D18E091E005F0E0EE0FFF1F70
:10505000ED5FFC4F859194919093330180933201E1
:105060000E949009F1C1823019F0873009F0ECC13B
:105070008FEF9FEF90933101809330010E94900950
:105080008091EE05882349F01092EE051091E0051D
:10509000812F0E94680A1093DE050E947A0C8FEF20
:1050A0000E94C30A6C01482E8093E50590912F0160
:1050B0009983923081F4E0E5EC1568F4C6019927F4
:1050C0002091E9053091EA052817390720F49093DB
:1050D000EA058093E9058091E00590E0FC01ED523E
:1050E000FD4F24912C83FC01EE0FFF1FED5FFC4F61
:1050F000859194919A878987E0912401F091250107
:10510000FE83ED83209126013091270138872F837C
:105110005090EB0520906C0730906D0780916107EF
:10512000581609F45CC0842D90E0A0E0B0E09C012A
:10513000AD012150310941095109ADE1B0E00E94B2
:10514000933323E630E040E050E00E94743349019D
:105150005A018FEF881A980AA80AB80A95E0599E52
:1051600090011124F901F595E795FD87EC873496B8
:10517000FB83EA830EE110E008191909A1014A52E4
:105180005109E12CF12C22E030E0BF0182E697E0EA
:105190000E945D14A1014C50510948195909EE248F
:1051A000E394F12C840122E030E06A817B8182E685
:1051B00097E00E945D1440916C0750916D074A5230
:1051C00051096C857D85695F7F4FE12CF12C0EE1E3
:1051D00010E021E030E082E697E00E945D14F98162
:1051E000F73009F447C020E5241508F091C08091FC
:1051F0006007841568F5C092600781E090E09093A5
:10520000730780937207109275071092740784E2F7
:1052100090E090936F0780936E070CE010E010937E
:105220007107009370073C81632F70E080E090E08D
:1052300040E10E94691984E390E090936F078093A6
:105240006E071093710700937007E985FA855AC0BD
:105250008091010190E0099620916A0730916B07D7
:105260002C503109821793070CF452C08CE38093C1
:1052700001014EC0BEE1CB2ED12CD0926F07C0925F
:105280006E071CE0E12EF12CF0927107E09270079E
:1052900001E010E0109373070093720710927507F6
:1052A0001092740785E792E00E94B00F0E940F19D8
:1052B000D0926F07C0926E07F0927107E09270076C
:1052C0002F813885B90180E090E04AE00E94691999
:1052D00085E590E090936F0780936E07F0927107D9
:1052E000E09270071093730700937207109275078E
:1052F0001092740781E792E00E94B00F0E940F198C
:10530000ED81FE81BF0180E090E04AE00E946919D2
:105310000E948D18509261078091EB058F3224F422
:105320008F5F8093EB0578C01092EB0580912F0181
:10533000873009F071C08091EC059FEF980F909332
:10534000EC05811169C0609126018091270160936D
:105350002A0180932B0180912401909125018D37A2
:10536000910510F48CED90E0909329018093280131
:1053700082E090E00E94720960912B0183E090E04E
:105380000E9472096091280184E090E00E947209F5
:105390006091290185E090E00E94720985E10E94F8
:1053A000C31505977CF160911E0180911F016093E8
:1053B00022018093230180911C0190911D01909303
:1053C0002101809320018D37910530F48CED90E020
:1053D000909321018093200187E090E00E94720960
:1053E0006091230188E090E00E94720960912001A1
:1053F00089E090E00E947209609121018AE090E0CA
:105400000E94720980E090E00E94740980932F014D
:1054100088EE93E00E94A70C0E947609182F8093D3
:10542000E20582E00E942E15892B09F428C511306F
:1054300009F425C5E091EB050E2E000CFF0BED598C
:10544000FC4FE491E093E00580912F01853009F055
:105450008DC181E090E09093310180933001909371
:105460003301809332010E949009CC24CA94DC2C31
:105470001A82E7E18E2E912C22242394312CABE268
:105480004A2E512CC982A0901901B0901A010E9495
:105490002B1888EC92E00E94B00F0E941419209102
:1054A0006A0730916B07FA818AE0F802A0011124A3
:1054B000445F5F4FEE24E394F12C0AE010E060E0DB
:1054C00070E082E697E00E945D1481E090E0EA815E
:1054D000E11102C080E090E090937507809374071B
:1054E000909373078093720770926F0760926E07B4
:1054F0002DE030E0309371072093700780EC92E04C
:105500000E94B00F0E940F19AA2019F086EB92E0BA
:1055100002C08CEA92E00E94B00F0E940F1981E055
:1055200090E03A81313011F480E090E0909375077B
:1055300080937407909373078093720770926F073C
:1055400060926E07909271078092700784EA92E0F1
:105550000E94B00F0E940F19BB2019F080EA92E060
:1055600002C08CE992E00E94B00F0E940F1981E006
:1055700090E0EA81E23011F480E090E090937507CA
:1055800080937407909373078093720770926F07EC
:1055900060926E0721E230E030937107209370072C
:1055A00084E992E00E94B00F0E940F19398137FD03
:1055B00048C020916A0730916B072A523109E12CCB
:1055C000F12C08E010E041E250E069E270E082E690
:1055D00097E00E945D148981A82E082E000CBB085C
:1055E00096E08902B0011124625D7F4FEE24E394BE
:1055F000F12C27E030E041E250E082E697E00E94A3
:105600005D1401E917E0E12CF12C81E090E0EA144F
:10561000FB0411F480E090E0909375078093740789
:105620009093730780937207F80181918F010E9414
:10563000D219FFEFEF1AFF0A2AE0E216F10429F768
:1056400004C081E997E00E940F1981E090E03A815F
:10565000333011F480E090E09093750780937407E5
:10566000909373078093720770926F0760926E0732
:10567000509271074092700785E892E00E94B00F47
:105680000E940F1981E090E0EA81E43011F480E09B
:1056900090E09093750780937407909373078093BD
:1056A000720770926F0760926E0725E330E03093C7
:1056B00071072093700789E792E00E94B00F0E9463
:1056C0000F190E948D1812E3115009F43AC483E0B7
:1056D0000E942E150197A9F482E00E942E150197D1
:1056E00081F484E00E942E15019759F40E947609F6
:1056F000811107C064E670E080E090E00E94DA1556
:10570000E3CF83E00E942E15892B09F050C43A8123
:10571000323009F42FC40CF023C4311117C4809126
:10572000190191E089278093190111E0309231012C
:1057300020923001FA818F2FFF0F990B01969093E1
:105740003301809332010E94900982E390E00E942D
:10575000A70C66E970E080E090E00E94DA152FEF78
:10576000C216D20609F43EC411118CCE1091E00588
:105770008091DE05811769F1812F0E94680A1093DC
:10578000DE050E9414166093DA057093DB058093A2
:10579000DC059093DD05809102018823D1F0109201
:1057A000020184E690E00E94A70C64E670E080E0CD
:1057B00090E00E94DA1584E690E00E94A70C64E66F
:1057C00070E080E090E00E94DA1584E690E00E94AC
:1057D000A70C0E94B2100C94EB1AEA818E2FEE0FE8
:1057E000990BAA0BBB0B8830910588F5FC01EC5C8A
:1057F000FF4F0C94BF3081E080932F018093F00520
:105800001092EF05D0C082E080932F0181E0809359
:10581000EE05C9C0F3E0F0932F01C5C085E10E94F9
:10582000C315059724F024E020932F01BCC0A0925B
:105830002F0134E03A83B7C089E080932F01B3C0D1
:10584000A0922F0108C09AE090932F0104C0EA8132
:10585000E5300CF4A8C0B0902E011BEFC12EFA81E8
:10586000CF0E0E942B1888EA90E00E94B00F0E9491
:10587000141920916A0730916B078AE0C89EA00135
:105880001124445F5F4FEE24E394F12C0AE010E012
:1058900060E070E082E697E00E945D1401E010E0B5
:1058A000C11002C000E010E0109375070093740768
:1058B000109373070093720770926F0760926E07E0
:1058C000EDE0F0E0F0937107E09370078DE990E070
:1058D0000E94B00F0E940F1983E990E00E94B00F60
:1058E0000E940F1968E182E697E00E946813109306
:1058F00075070093740710937307009372077092F3
:105900006F0760926E07909271078092700781E92D
:1059100090E00E94B00F0E940F1981E090E0F1E04A
:10592000CF1202C080E090E09093750780937407D7
:10593000909373078093720770926F0760926E075F
:1059400090927107809270078BE890E00E94B00FF0
:105950000E940F19BB2019F087E890E002C083E88D
:1059600090E00E94B00F0E940F1981E090E022E0C9
:10597000C21202C080E090E0909375078093740794
:10598000909373078093720770926F0760926E070F
:10599000309271072092700788E790E00E94B00F64
:1059A0000E940F19C3C00E942B1883EF90E00E9441
:1059B000B00F0E94141920916A0730916B079A81E9
:1059C0008AE0989FA0011124445F5F4FEE24E39486
:1059D000F12C0AE010E060E070E082E697E00E94BF
:1059E0005D1481E090E0EA81E11102C080E090E086
:1059F0009093750780937407909373078093720751
:105A000070926F0760926E072DE030E0309371075F
:105A10002093700789EE90E00E94B00F0E940F194A
:105A200081E090E03A81313011F480E090E0909391
:105A30007507809374079093730780937207709231
:105A40006F0760926E0790927107809270078CEDDD
:105A500090E00E94B00F0E940F1981E090E0EA816F
:105A6000E23011F480E090E0909375078093740722
:105A7000909373078093720770926F0760926E071E
:105A8000309271072092700780ED90E00E94B00F75
:105A90000E940F1985E10E94C3150597FCF081E073
:105AA00090E0FA81F33011F480E090E09093750774
:105AB00080937407909373078093720770926F07B7
:105AC00060926E072BE230E03093710720937007ED
:105AD00086EC90E00E94B00F0E940F1981E090E0E8
