:100000000C94B3020C9423080C94E5020C94E502C2
:100010000C949D070C94E5020C94E5020C94E50207
:100020000C94E5020C94E5020C94E5020C94E502B4
:100030000C94E5020C94E5020C94E5020C94E502A4
:100040000C94FE290C94E5020C94E92C0C941B2DC5
:100050000C94E5020C94E5020C94E5020C94E50284
:100060000C94E5020C94E502EA24F024F624FC2426
:100070009C2502259C259C2508259C2513251E25AD
:1000800029259C259C259C2534259C259C25492596
:100090005E2573259C259C259C259C259C259C25BF
:1000A000882505A84CCDB2D44EB93836A9020C50DB
:1000B000B9918688083CA6AAAA2ABE000000803F03
:1000C000450449041D04C6039B033703E902A90242
:1000D0005D020702BC017801700161015801AE01A7
:1000E000A1019B0195018C0187010102F201E3014D
:1000F000D501CD01C30155024B023C023302280257
:100100002002190210029C0290027D027102650217
:10011000DC02D3022804B102C602B9022403170389
:100120000603F4021703EE02280493038B0359031A
:100130004E0382037E03710363033F03C103BB03CA
:10014000B703B303AF03A903A50314040704FA0319
:10015000ED03E303DA03D1034C4F4F5054494D45AF
:100160000050494420434F4E54524F4C4C4552008E
:1001700050524F46494C4500414456414E4345205C
:1001800054554E494E4700414D5053004D41482073
:10019000583130300054494D455200535045454484
:1001A00000414C544954554445205831300044498D
:1001B0005354414E4345205831303000414C415258
:1001C0004D53004F5344205458204348004D41475D
:1001D0002043414C00444542554700312E315600E2
:1001E00035560056205245460050414C004E54535F
:1001F00043005349474E414C00494D50004D455432
:1002000000554E49545300414456414E4345440025
:100210004D4150204D4F44450047494D42414C000F
:1002200053454E534F52530047505320434F4F5264
:100230004453005448524F54544C45005343524F7A
:100240004C4C494E472042415253005349444520AB
:100250004241525300484F52495A4F4E004449536D
:10026000504C41590041444A555354205A45524F2D
:100270000041444A55535420414D50530055534575
:10028000205649525455414C2053454E534F52002D
:10029000444953504C4159204D4148004449535022
:1002A0004C415920414D50530043555252454E54F4
:1002B000005553452050574D005345542052535339
:1002C00049204D494E005345542052535349204D27
:1002D0004158005345542052535349004449535008
:1002E0004C415920525353490052535349004345FE
:1002F0004C4C5300444953504C41592056494420DA
:10030000564F4C5453004D41494E20564F4C545378
:1003100020414C41524D0041444A55535420564FC0
:100320004C545300444953504C4159204D41494E7F
:1003300020564F4C545300564F4C5441474500549F
:10034000504120425245414B504F494E5400504974
:10035000544348205241544500524F4C4C20524186
:100360005445005448524F54544C45204558504F22
:10037000005448524F54544C45204D494400545069
:10038000410059415720524154450052432045589D
:10039000504F00524320524154450052432054557F
:1003A0004E494E47004D4147004C4556454C00478D
:1003B000505300414C540059415700504954434850
:1003C00000524F4C4C0050494420434F4E46494741
:1003D000004D415820414D5053004D414820555348
:1003E0004544004D4158205350454544004D415827
:1003F00020414C544954554445004D4158204449EE
:100400005354414E434500544F54204449535441A2
:100410004E434500464C592054494D4500535441E4
:100420005449535449435300555345204643003CD7
:10043000504147453E00534156452B4558495400CD
:1004400045584954004F4646004F4E002B504954E2
:1004500043482046554C4C002B59415720524947A0
:100460004854004F50454E204D454E553A20544873
:100470005254204D4944444C450046432056455271
:1004800053494F4E3A004D572D4F5344202D205283
:10049000312E3600F704D504CE04EF04E704DE0461
:1004A000C504BB04B204A8044C4F5720564F4C540B
:1004B0005300204D495353494F4E004155544F204E
:1004C000484F4C44004155544F205254480020415D
:1004D000524D45440044495341524D4544004C4F10
:1004E00057205341545300204E4F20475053004E45
:1004F0004F204441544100001D1A1D1C1D191D1C94
:100500001D1B1D1C1D181D1C1D1A1D1C1D191D1C2D
:100510001D1B1D000000080002010000030407006D
:1005200000000000000000010204081020408001CB
:10053000020408102001020408102004040404042A
:100540000404040202020202020303030303030081
:10055000000000250028002B0000000000240027D8
:10056000002A00004B2DEBE6F8E085EA98E001C098
:100570008193EF3FF907E0F3D9F311241FBECFEFCA
:10058000D8E0DEBFCDBF12E0A0E0B1E0EEE7F3E6D9
:1005900002C005900D92A03DB107D9F728E0A0ED6B
:1005A000B2E001C01D92AB36B207E1F715E0C6E636
:1005B000D5E004C02297FE010E943831C436D1072D
:1005C000C9F70E94FE2D0C94BD310C9400000C94D0
:1005D0009F310C949731DC01ED91FC910190F081F9
:1005E000E02D0994EBE6F8E0CF018B56984020818E
:1005F000253A39F428E0EF3FF20709F010F431967C
:10060000F3CF08956091120670911306611571057C
:1006100081F420E030E044EB53E46091F805709100
:10062000F9058091FA059091FB050E947A2E0E94AF
:10063000E22E2091FD0684E6289F9001112481E09E
:10064000261737070CF080E008958091310681115C
:100650000EC080919C0781110AC080919B07811177
:1006600006C080E88093620781E080939B0708952D
:1006700080919B07882329F080E090E1A0E0B0E022
:100680005AC080919C07882329F08FED96E0ACE05A
:10069000B0E051C08AE490E0A0E0B0E08093920323
:1006A00090939303A0939403B093950320913A06FB
:1006B00021FF0CC08AE590E0A0E0B0E080939203B7
:1006C00090939303A0939403B09395038091B00704
:1006D000813089F08091920390919303A0919403CB
:1006E000B091950381608093920390939303A093BC
:1006F0009403B093950323FF11C0809192039091CE
:100700009303A0919403B0919503806A8093920320
:1007100090939303A0939403B0939503809135072E
:10072000811111C08091920390919303A091940341
:10073000B091950398608093920390939303A09354
:100740009403B09395038091F406811104C08091C5
:10075000EE06882389F08091920390919303A091F3
:100760009403B091950391608093920390939303C7
:10077000A0939403B093950380918E0390918F037F
:10078000A0919003B09191034091920350919303F3
:10079000609194037091950384239523A623B72336
:1007A00080938E0390938F03A0939003B093910353
:1007B0000895809129068823A1F18091310688232C
:1007C00081F160911B0670911C066115710549F15C
:1007D0002091060780E090E0222339F00E94132F39
:1007E00021EB32E047E55BE306C00E94132F2FE6C2
:1007F00032E143E85AE30E9402309B01AC01609170
:10080000DF027091E0028091E1029091E2020E9489
:100810000F2E6093DF027093E0028093E1029093C9
:10082000E2026091DF027091E0028091E10290911A
:10083000E2020E94E72E6093DE057093DF0580934D
:10084000E0059093E1050895EF92FF920F931F93B7
:10085000CF93DF9309EE16E0C0E0D0E0F80161919C
:100860008F01CE010E94E7022196CC34D105B1F769
:100870000BED16E0CCE4D0E0F8016081CE010E94DF
:10088000E702F80161810E5F1F4FCE0101960E94C1
:10089000E7022296CA35D10579F76CE080E090E056
:1008A000DF91CF911F910F91FF90EF900C94E70291
:1008B000DF92EF92FF920F931F93CF93DF930091FC
:1008C0009E0782E5089F80011124D0900707CAE89F
:1008D000D5E0065A1F4FC8010E94E902E82EF12C0C
:1008E000F982E882C80101960E94E902282F30E0CF
:1008F000322F22272E0D3F1D39832883DD2089F0DA
:10090000C90191708739910560F0A901425E5F4F7E
:1009100059834883813F910520F0245C3F4F398300
:1009200028830E5F1F4F229685E0CC3DD80799F6AD
:10093000DF91CF911F910F91FF90EF90DF9008957D
:10094000EF92FF920F931F93CF93DF9309EE16E080
:10095000C0E0D0E0CE010E94E902F80181938F014E
:100960002196CC34D105B1F70BED16E0CCE4D0E004
:10097000CE010E949731E82EF12CF801F182E0823D
:10098000CE0101960E949731282F30E0322F222786
:100990002E0D3F1DF801219331938F012296CA3508
:1009A000D10531F7DF91CF911F910F91FF90EF901B
:1009B0000C945804EF92FF920F931F93CF93DF9301
:1009C00080E090E00E94E9028C3009F45EC00FE5FF
:1009D00012E0C0E0D0E0F80161918F01CE010E94E9
:1009E000E7022196CC34D105B1F701E512E0CCE461
:1009F000D0E0F8016081CE010E94E702F801618138
:100A00000E5F1F4FCE0101960E94E7022296CA3563
:100A1000D10579F709EB11E021E2E22E21E0F22E77
:100A2000C0E0D0E0F8016081CE01865A9F4F0E945D
:100A3000E702F8016181CE01855A9F4F0E94E702CB
:100A4000F7016081CE0184559F4F0E94E702F701B4
:100A50006181CE0183559F4F0E94E702F8016081BA
:100A6000CE0182509F4F0E94E702F8016181CE01C2
:100A700081509F4F0E94E7020E5F1F4F2296F2E0C7
:100A8000EF0EF11CC235D10569F6DF91CF911F91B0
:100A90000F91FF90EF9008954F925F926F927F9227
:100AA000AF92BF92CF92DF92EF92FF920F931F937C
:100AB000CF93DF9344E0E42E41E0F42E0CE416E003
:100AC000C0E0D0E05AE0D52ED7018D917D010E9483
:100AD000EF2A2091DE02C11108C03091F4063323C1
:100AE00039F18091340690E023C0C43009F530918B
:100AF000EF063323A9F08091F2059091F3059595C7
:100B00008795009769F4DC9EF001DD9EF00D1124BD
:100B1000E20FF11DEE0FFF1FE45CF94F8081918120
:100B20003091EE06332321F080911006909111064A
:100B3000DC9EF001DD9EF00D1124E20FF11DEE0FA1
:100B4000FF1FE45CF94FD8012D913C911197408132
:100B50005181241B350B11963C932E9320813181BA
:100B6000280F391F36952795318320838D919C91CD
:100B70001197820F931F8D939C9321960C5E1F4FAC
:100B8000C530D10509F0A0CF8091F40660914C06E4
:100B900070914D06C0910E07811134C080E090E045
:100BA000D091F306C11115C00E94132F6B017C0177
:100BB0006D2F70E080E090E00E94152F9B01AC014A
:100BC000C701B6010E94023027E137EB41ED58E33F
:100BD00014C00E94132F6B017C016D2F70E080E028
:100BE00090E00E94152F9B01AC01C701B6010E9445
:100BF00002302FE632E143E05AE30E9402300E94C5
:100C0000E72E05C0E3E075956795EA95E1F77093E7
:100C1000F1056093F0058091EB068093EC056091FF
:100C200060067091610680E090E0D091FB06C111F2
:100C300015C00E94132F6B017C016D2F70E080E0C6
:100C400090E00E94152F9B01AC01C701B6010E94E4
:100C5000023027E137EB41ED58E314C00E94132F17
:100C60006B017C016D2F70E080E090E00E94152FF9
:100C70009B01AC01C701B6010E9402302FE632E1B0
:100C800043E05AE30E9402300E94E72E7093EF0582
:100C90006093EE058091F6068111C6C08091F8063A
:100CA000C091DD06D091DE060091DF061091E006CE
:100CB00081114EC0409074065090750653E05594D3
:100CC00047945A95E1F7662457FC6094762CC3014B
:100CD000B2010E94152F6093FC057093FD0580936F
:100CE000FE059093FF059E0140E050E0C8011F9271
:100CF0001F929F930F93A12CB12C6501E12C14E05E
:100D0000F12E00E010E0C301B2010E94B62D0E9456
:100D1000152F6B017C010F900F900F900F9020E02A
:100D200030E0A9010E94732E87FD09C0C092FC0526
:100D3000D092FD05E092FE05F092FF0589C0109269
:100D4000FC051092FD051092FE051092FF0580C073
:100D5000809117019091180160910B0170910C0125
:100D60008617970740F06091090170910A01861774
:100D7000970708F4BC0180E090E0685E7340810949
:100D80009109623FB3E07B078105910548F42AE0B1
:100D900030E040E050E00E94F53069017A0105C082
:100DA00044E6C42ED12CE12CF12CC701B6010E94DF
:100DB000132F2B013C01A7019601C701B6010E9428
:100DC000AF300E94132F2AE037ED43EA5CE30E9424
:100DD00002309B01AC01C301B2010E940F2E6B01D6
:100DE0007C01B80180E090E00E94132F9B01AC01D0
:100DF000C701B6010E9402302AE037ED43E25CE30E
:100E00000E9402306B017C0180913106BE01882373
:100E100099F080E090E00E94132F9B01AC01C70184
:100E2000B6010E940F2E0CC08091F6059091F70537
:100E30006AE070E00E94CD3080E090E00E94132FC5
:100E40006093FC057093FD058093FE059093FF056C
:100E50008091ED06882309F44DC060919C06709145
:100E60009D0633E0759567953A95E1F77093F50522
:100E70006093F40580919C07882389F08091B907DD
:100E80008F3029F47093E4066093E30608C0813044
:100E900031F47093E2066093E1061092B907E09096
:100EA000E306F090E40600E010E02091E1063091C6
:100EB000E20640E050E0882777FD8095982F1F924A
:100EC0001F921F92E4E6EF93A12CB12C65010E94C2
:100ED000B62D0F900F900F900F906536710514F09E
:100EE00064E670E077FF02C060E070E07093F505A3
:100EF0006093F4058091DE028F5F883018F4809350
:100F0000DE0202C01092DE02DF91CF911F910F919D
:100F1000FF90EF90DF90CF90BF90AF907F906F9059
:100F20005F904F9008953B98F89482E0809368001A
:100F300088E080936C00789408951F920F920FB60A
:100F40000F9211242F933F934F935F936F937F934F
:100F50008F939F93AF93BF93CF93EF93FF93C6B1BC
:100F600078940E94542AC3FD1EC02091DD022230D5
:100F7000A0F02091DB023091DC02621B730B109217
:100F8000DD02CB018F5E92408B3D954030F4709333
:100F9000F3056093F20510926C008091DD028F5F83
:100FA0008093DD0204C07093DC026093DB02FF914A
:100FB000EF91CF91BF91AF919F918F917F916F9161
:100FC0005F914F913F912F910F900FBE0F901F9007
:100FD0001895CF93DF93C0E0D0E060E0CE010E948F
:100FE000E7022196C11582E0D807B9F7DF91CF91CA
:100FF00008958EBD0DB407FEFDCF8EB5089520E097
:1010000030E066557C4FFC01E20FF11D4081442326
:1010100039F0FB01E20FF31F40832F5F3F4FF3CF07
:10102000089520E030E066557C4FFC01E20FF11D91
:10103000E491EE2339F0DB01A20FB31FEC932F5F95
:101040003F4FF3CF08951F920F920FB60F921124C6
:1010500010927F030F900FBE0F901F901895CF93A3
:10106000DF931F92CDB7DEB769830E94F9076981CC
:10107000862F0F90DF91CF910C94F907CF93DF93D8
:1010800061E08AE00E94352B60E08AE00E946E2BCE
:1010900064E670E080E090E00E94772A61E08AE0F8
:1010A0000E946E2B64E670E080E090E00E94772A58
:1010B00061E086E00E94352B61E086E00E946E2BA5
:1010C00061E08BE00E94352B60E08CE00E94352BC4
:1010D00061E08DE00E94352B60E082E00E94352BBC
:1010E00080E58CBDC1E0CDBD8DB58EB564E670E008
:1010F00080E090E00E94772A60E086E00E946E2BFC
:1011000062E080E00E942F0864E670E080E090E0FA
:101110000E94772A61E086E00E94352B60E086E03D
:101120000E946E2B80EA0E94F9078FEF0E94F90758
:1011300080FF03C0C093070703C081FD109207071B
:1011400080910707882341F080EE91E0909381031E
:1011500080938003D0E107C086E891E090938103FB
:1011600080938003DDE0C0E061E080E18C0F0E94AD
:101170002F08CF5FCD17C0F380E00E94F907809160
:101180000707882311F088E401C088E00E94F9076E
:1011900061E086E00E946E2B64E670E080E090E003
:1011A0000E94772AE89A80916900826080936900A2
:1011B0007894DF91CF9108951F93CF93DF93C82F39
:1011C00060E086E00E946E2B80E00E94F90780912B
:1011D0000707882311F080E401C080E00E94F9072E
:1011E00089E00E94F9078C2F0E94F907C5E6D7E035
:1011F00010E08AE00E94F907812F0E94F9078BE036
:101200000E94F90789910E94F9071F5F163389F739
:1012100088E00E94F90780EA0E94F90780EA0E94AC
:10122000F90785FDFBCF80E00E94F9078091070751
:10123000882311F08CE401C08CE00E94F90761E082
:1012400086E0DF91CF911F910C946E2BCF9361E0DC
:1012500086E00E94352B60E086E00E946E2B80E8DD
:101260000E94F9078FEF0E94F907C82F61E086E01E
:101270000E946E2BC3FD03C0CF910C943E08CF910A
:101280000895EF92FF920F931F93CF93DF93FB018B
:1012900097FF06C0919581959109FF24F39401C0B1
:1012A000F12CDF01A40FB11D1C92AEE2EA2ECAE0C0
:1012B000D0E0421306C04150DF01A40FB11DEC92F3
:1012C00020E03FEF340F8F01030F111DBE010E947C
:1012D000E130805DD8018C93CB01332379F0222358
:1012E00011F0432FE6CF0097E1F7FF2039F03EEFF2
:1012F000340FDF01A30FB11D8DE28C9380E2332305
:1013000031F03150DF01A30FB11D8C93F8CFCF0125
:10131000DF91CF911F910F91FF90EF9008958F92E1
:101320009F92AF92BF92DF92EF92FF920F931F9323
:10133000CF93DF93EA01F22E97FF08C09095809536
:10134000709561957F4F8F4F9F4F0E2D24E630E0B3
:1013500040E050E00E941731CA01B90126E02F0D8C
:10136000FE01E20FF11D108215E0E12EEF0CFE01EF
:10137000EE0DF11D00830AE0802E912CA12CB12CE2
:101380002EE2D22E2FEF2E0DEF1006C0E22EFE0120
:10139000E20FF11DD082F6CFE22E8E01020F111D59
:1013A000A50194010E941731605DF8016083B901C5
:1013B000CA01E11002C080E209C0F2E0FE1510F39C
:1013C0006115710581059105E9F6F5CFEE2031F043
:1013D000EA94FE01EE0DF11D8083F8CFCE01DF917E
:1013E000CF911F910F91FF90EF90DF90BF90AF9042
:1013F0009F908F9008953F924F925F926F927F924D
:101400008F929F92AF92BF92CF92DF92EF92FF9214
:101410000F931F93CF93DF93EA01522E211103C044
:10142000A5E06A2E02C0F8E06F2EFE01E60DF11D68
:101430001082762C452C4AE0842E912CA12CB12CC4
:1014400056E0C52ED12CE12CF12CEAE33E2E2FEFF5
:10145000270D8E01020F111D27FD1A95A50194017C
:101460000E94F530605DF80160838EEF870D8E017C
:10147000080F111D87FD1A95CA01B901A701960130
:101480000E94F530605DF8016083B901CA01FDEF8B
:101490007F0EFE01E70DF11D77FCFA9530824A942C
:1014A0002FEF4212D4CF252D220F250D621AEDEF1A
:1014B0006E0E3AE0C32ED12CE12CF12C6A948E01F1
:1014C000060D111D67FC1A95A70196010E94F530C3
:1014D000605DF8016083B901CA016115710581057C
:1014E000910511F480E203C06110E8CFFBCF6620C4
:1014F00041F06A94FE01E60DF11D67FCFA958083C8
:10150000F6CFCE01DF91CF911F910F91FF90EF9019
:10151000DF90CF90BF90AF909F908F907F906F9013
:101520005F904F903F90089580E0E82FF0E0EA56FA
:10153000FC4F9081992311F08F5FF7CF0895E82F2A
:10154000F0E0EE0FFF1FE657FA4F2081318122278E
:10155000307C81E02115304C09F080E00895CF9374
:10156000DF938091C307882309F4B7C180913A07BC
:1015700090913B07A0E0B0E04091360650913706CD
:10158000609138067091390684239523A623B723EA
:10159000892B8A2B8B2BD1F0809117078823B1F0F0
:1015A0001092980386E18093960387E180939703D6
:1015B0008EE10E949F0A882349F06091C6057091D0
:1015C000C705717086E993E00E94FF0780911D07AF
:1015D000882309F462C08091360690913706A09165
:1015E0003806B09139064091360750E060E070E06F
:1015F000482359236A237B23452B462B472B69F429
:101600004091370750E060E070E0482359236A2397
:101610007B23452B462B472B29F020EA209396036A
:10162000E1E001C0E0E04091380750E060E070E0A8
:10163000482359236A237B23452B462B472B39F01C
:10164000CE2FD0E0CA56DC4F22EA2883EF5F4091CC
:10165000390750E060E070E0482359236A237B2378
:10166000452B462B472B39F0AE2FB0E0AA56BC4F86
:1016700081EA8C93EF5FF0E0EA56FC4F108286E03F
:101680000E949F0A882349F0609196057091970502
:10169000717086E993E00E94FF0780913606909171
:1016A0003706A0913806B091390640914007509115
:1016B000410760E070E0482359236A237B23452BD0
:1016C000462B472B39F0109298038AEA80939603B1
:1016D0008BEA6BC040913C0750913D0760E070E0A1
:1016E000482359236A237B23452B462B472B49F05C
:1016F0008DE9809396038EE9809397031092980367
:1017000056C040913E0750913F0760E070E048238B
:1017100059236A237B23452B462B472B39F0109204
:1017200098038DEC809396038EEC3FC04091360772
:1017300050E060E070E0482359236A237B23452B67
:10174000462B472B39F0109298038CEA809396032E
:101750008DEA2BC04091370750E060E070E04823ED
:1017600059236A237B2310929803452B462B472B42
:1017700029F084EC8093960385EC17C02EEA209321
:1017800096032FEA2093970340914607509147070D
:101790006091480770914907482359236A237B23A6
:1017A000452B462B472B19F089E8809397038091AE
:1017B00010078823C9F181E20E949F0A8823A1F1C2
:1017C0006091CC057091CD05717086E993E00E941F
:1017D000FF078091420790914307A0914407B09181
:1017E0004507409136065091370660913806709152
:1017F000390684239523A623B723892B8A2B8B2B89
:1018000099F08AEE809396038BEE80939703109263
:1018100098036091CC057091CD057170625E7F4F29
:1018200086E993E00E94FF078091B507811155C0BA
:1018300084E20E949F0A882309F44FC04091360633
:1018400050913706609138067091390680913C07B7
:1018500090913D07A0E0B0E084239523A623B72311
:10186000892B8A2B8B2B01F580913E0790913F07A6
:10187000A0E0B0E084239523A623B723892B8A2BED
:101880008B2BA1F48091520790915307A09154079C
:10189000B091550784239523A623B723892B8A2B40
:1018A0008B2BD9F0E8E003C0E6E001C0E7E0F0E010
:1018B000EE0FFF1FEC56FB4F6591749186E993E0A4
:1018C0000E946B316091D2057091D305717086E9E9
:1018D00093E0DF91CF910C94FF07DF91CF910895B2
:1018E000EBE2F7E0A6E9B3E021912D9327E0E533A1
:1018F000F207D1F71092A003BC0186E993E00C94A3
:10190000FF07AF92BF92CF92DF92EF92FF920F93B9
:101910001F93CF93DF938C01EB0180911607811108
:1019200005C080911E07882309F4C9C08091310643
:10193000811104C010921C0610921B0620911B06F8
:1019400030911C068091170690911806AC01415FFA
:101950005F4F42175307F0F40E94482A60930A062B
:1019600070930B0680930C0690930D0682E0809393
:101970000F0680911B0690911C0690931806809389
:10198000170680910E01815080930E01803130F551
:1019900085E122C0215F3F4F28173907F8F40E94E4
:1019A000482A60930A0670930B0680930C06909366
:1019B0000D0681E080930F0680911B0690911C0616
:1019C000909318068093170680910E018F5F809385
:1019D0000E01863118F080E180930E018091A806F7
:1019E0009091A906A091AA06B091AB064091A406D9
:1019F0005091A5066091A6067091A7066A017B0129
:101A000024E1C20ED11CE11CF11CC816D906EA065D
:101A1000FB0634F50E94482A609306067093070679
:101A2000809308069093090682E080930E068091C9
:101A3000A8069091A906A091AA06B091AB06809342
:101A4000A4069093A506A093A606B093A70680913E
:101A50000D01815080930D01803188F585E12DC005
:101A60004496A11DB11D84179507A607B7073CF53D
:101A70000E94482A60930606709307068093080622
:101A80009093090681E080930E068091A8069091BC
:101A9000A906A091AA06B091AB068093A4069093E4
:101AA000A506A093A606B093A70680910D018F5FAF
:101AB00080930D01863118F080E180930D018091B3
:101AC0001607811105C083E180930E0180930D01FB
:101AD000E090BC05F090BD0581E0F822C93CD1053D
:101AE0003CF4C833AFEFDA072CF4C8E3DFEF02C0F1
:101AF000C8ECD0E0013921E012073CF400378EEF4A
:101B000018072CF400E71EEF02C000E911E0D090A6
:101B1000090789E10E949F0A8D2109F465C0CE0161
:101B20000A9697FD079663E0959587956A95E1F784
:101B3000EE27FF27E81BF90BB0901B0740E0C4E03D
:101B4000D0E079E0C72ED12CAEE1AA2E443009F4C2
:101B500045E0242F30E0BE01621B730B069FC001DD
:101B6000079F900D169F900D112497FDCF9656E07C
:101B7000959587955A95E1F78E0F9F1F8996823527
:101B80009105F8F42E0D3F1DB6010E94E130A69E8E
:101B9000D001A79EB00D11242A0F3B1F8058265557
:101BA0003C4FD901AC57B1098C93BB2051F09EEF4B
:101BB000940F953030F4AA55B1098C93AC54BF4FB3
:101BC0008C934F5F493010F282E20E949F0A81118C
:101BD0000BC0F701E655FC4FDF01119786E28C93AD
:101BE0008CEB81838EE78083C0910A078AE10E9493
:101BF0009F0A8C23A1F18091C4058F707091C2055A
:101C00007F70672F6195D0910E01C0910D019927CA
:101C100087FD9095A701481B590B9C0126553C4F09
:101C2000AEE16A02F0011124DF01A655BC4FA40FFA
:101C3000B51FDC93E20FF31FEE0DFF1DC0836F5F36
:101C4000761774F7F701E81BF90BE555FC4F83E0B5
:101C50008083F901EE0DFF1D319782E08083DF91D3
:101C6000CF911F910F91FF90EF90DF90CF90BF9099
:101C7000AF900895AF92BF92CF92DF92EF92FF9212
:101C80000F931F938091F406882339F080913406D6
:101C900090E09093F1058093F0058091F106809398
:101CA000ED058091F20680939F0790910B07992391
:101CB000D9F120911001829F90011124E0900F0131
:101CC0008E9D700111244091F0055091F10542174D
:101CD000530710F4622F07C0C7010297481759072E
:101CE00008F4CA01682F81E0E81AF1080027F7FC20
:101CF0000095102F442737FD4095542F70E080E069
:101D000090E01F921F921F92E7E0EF93A12CB12C5D
:101D100065010E94B62D86E9861B809396030F907D
:101D20000F900F900F9003C087E980939603209146
:101D3000F0053091F1058091ED0590E02817390705
:101D400028F48091B507882321F03EC082179307BD
:101D500068F08091AE02811109C06091A605709172
:101D6000A705717088EA94E00E94110885E10E943D
:101D70009F0AE091F005F091F105811106C0809174
:101D8000ED0590E08E179F07F8F023E044E067E947
:101D900073E0CF010E94410989EA80939B0310926E
:101DA0009C036091B4057091B50571706150710923
:101DB00086E993E01F910F91FF90EF90DF90CF9015
:101DC000BF90AF900C94FF071F910F91FF90EF9081
:101DD000DF90CF90BF90AF900895CF93DF93C091E5
:101DE000EE05D091EF058091EC0590E0C817D9077A
:101DF00020F48091B507811121C086E10E949F0ADD
:101E00008823E1F08FEB8093960323E044E067E9B9
:101E100073E0CE010E94410989EA80939B031092EE
:101E20009C036091B6057091B7057170615071099E
:101E300086E993E0DF91CF910C94FF07DF91CF917A
:101E40000895AF92BF92CF92DF92EF92FF920F93DD
:101E50001F938BE00E949F0A882309F483C080E2CD
:101E60008093970360911701709118018091090187
:101E700090910A018617970720F470930A016093E6
:101E8000090180910B0190910C016817790720F4EA
:101E900070930C0160930B018091090190910A01EC
:101EA0008330984030F082E098E090930A0180936C
:101EB000090180910B0190910C01863B934030F415
:101EC00086EB93E090930C0180930B018091310697
:101ED00081110BC080E2809398039DE29093990357
:101EE00090939A0380939B0327C0E0900901F090A0
:101EF0000A0100E010E020910B0130910C0140E05C
:101F000050E080E090E01F921F921F92E4E6EF9372
:101F1000A12CB12C65010E94B62DDC01CB0120E083
:101F200043E068E973E00E94410985E280939B03E6
:101F30000F900F900F900F9088EC80939603109263
:101F40009C036091A0057091A105717086E993E0F2
:101F50001F910F91FF90EF90DF90CF90BF90AF90C7
:101F60000C94FF071F910F91FF90EF90DF90CF909F
:101F7000BF90AF90089580911C07882309F44EC04C
:101F80008091A4059091A5058115924008F446C062
:101F9000809131068823F1F02091020630910306EA
:101FA000C9016CE370E00E94CD3080912A0790E077
:101FB0006817790720F08091B50781112FC0203173
:101FC0008EE0380728F48CE980939603B90116C097
:101FD00081E709C0609104067091050660312EE02A
:101FE000720720F48BE98093960308C080E7809302
:101FF0009603CB016CE370E00E94CD3080E090E06E
:1020000020E047E953E00E94FB096091A40570912C
:10201000A505717086E993E00C94FF070895CF92AF
:10202000DF92EF92FF92C090FC05D090FD05E0900A
:10203000FE05F090FF056091E2057091E30580E0F8
:1020400090E00E94132F9B01AC01C701B6010E94D2
:10205000FE2F181644F4C701B6010E94E72E7093B4
:10206000E3056093E20587E10E949F0A8823F1F06F
:10207000C701B6010E94E22EDC01CB0124E045E05D
:1020800066E973E00E9441098AE980939B031092FC
:102090009C036091B8057091B905717086E993E071
:1020A000FF90EF90DF90CF900C94FF07FF90EF90A0
:1020B000DF90CF90089588E10E949F0A882319F14C
:1020C00084EA8093960320E030E044EB53E460918F
:1020D000F8057091F9058091FA059091FB050E9431
:1020E0007A2E0E94E22EDC01CB014AE067E973E020
:1020F0000E9472316091BA057091BB05717086E9DA
:1021000093E00C94FF07089583E10E949F0A8823BF
:1021100029F18AEB809396034AE067E973E08091A6
:10212000F4059091F5050E9472310E94940AA82F3F
:10213000B0E0AA56BC4F95E29C938F5FE82FF0E089
:10214000EA56FC4F10826091B0057091B105717034
:102150006150710986E993E00C94FF07089587E0C8
:102160000E949F0A882381F180910407882361F1EE
:10217000809100069091010620910507222381F0AD
:1021800097FF02C088599E4F20E043E066E973E064
:102190000E9441098DEB8093990310929A030BC022
:1021A00020E044E066E973E00E9441098DEB8093F2
:1021B0009A0310929B036091980570919905717034
:1021C00086E993E00C94FF07089588E00E949F0A37
:1021D0008823F9F080911A078823D9F080910006AE
:1021E00090910106880F991F880F991F83509D4F6A
:1021F0006AE570E00E94E13067507B4F80919A055C
:1022000090919B05917049E050E086559C4F0C944D
:102210006231089562E270E086E894E00E9411085D
:102220006EE570E08AE794E00E941108809135061F
:1022300022E044E066E973E090E00E94410969E62B
:1022400070E00E94FF076CE770E083E694E00E9474
:10225000110864EA70E088E594E00E94110862ECDD
:1022600070E08CE494E00C941108809102078823BC
:1022700009F445C085E00E949F0A882309F43FC005
:1022800080910607E82FF0E0E854FD4F908190938D
:10229000960360911F0670912006882371F08827AD
:1022A00077FD8095982F0E94152F21EA38EF41E5A0
:1022B00050E40E9402300E94E72EF62FE72F862F6F
:1022C000972F6AE070E00E94CD302091280730E01F
:1022D0006217730720F08091B507811110C04AE0A2
:1022E00067E973E08F2F9E2F0E94723160919405F1
:1022F00070919505717086E993E00C94FF0708953D
:10230000EF920F93CF93DF9380912906882309F4EE
:102310006DC00E94351181E10E949F0A882309F453
:1023200065C040913606509137066091380670912D
:10233000390680913C0790913D0721E030E041153E
:1023400051056105710511F020E030E028233923A3
:10235000232B09F04BC0A0E0B0E084239523A623F3
:10236000B72320910007822B892B8A2B8B2BF1F12D
:10237000C091AC05D091AD05D1708AEC80939603E5
:102380006091250670912606809127069091280677
:1023900003E5E02E0EE424E047E953E00E948F09B4
:1023A000BE0186E993E00E94FF07C091AE05D0917F
:1023B000AF05D1708BEC80939603609121067091EC
:1023C0002206809123069091240627E5E22E05E45B
:1023D00024E047E953E00E948F09BE0186E993E0BB
:1023E000DF91CF910F91EF900C94FF07DF91CF9188
:1023F0000F91EF900895CF93C0911406C53020F44B
:102400008091B50781111CC080E00E949F0A88233B
:10241000B9F08EE1809396038FE1809397034AE0B1
:1024200068E973E08C2F90E00E94723160918A0518
:1024300070918B05717086E993E0CF910C94FF0742
:10244000CF9108950F931F93CF93DF938091290627
:10245000882309F457C080913106811104C010927D
:102460001C0610921B06C091060760911B06709116
:102470001C0680E090E0C11107C00E94132F2CEBD6
:1024800034E743E15DE306C00E94132F2DED3FE3E7
:1024900047EB5CE30E9402300E94E72E8B018091A3
:1024A000EA059091EB058017910720F41093EB0556
:1024B0000093EA0583E00E949F0A882319F1809126
:1024C000290790E08017910720F48091B5078111CA
:1024D00019C0D0E0C254DD4F8881809396034AE052
:1024E00067E973E0C8010E947231609190057091B4
:1024F0009105717086E993E0DF91CF911F910F9163
:102500000C94FF07DF91CF911F910F9108950F93C6
:102510001F93CF93DF93C09106076091A806709137
:10252000A9068091AA069091AB06CC2361F00E9487
:10253000152F2EEA31E646E05DE30E9402300E944C
:10254000E22E8B0107C024E630E040E050E00E941C
:102550001731890180913106882389F08091A50780
:102560009091A607069758F08091E8059091E905AB
:102570008017910724F41093E9050093E80589E09A
:102580000E949F0A882361F180911907882341F1F5
:10259000C8016AE070E00E94E1308091280790E075
:1025A0006817790724F08091B507811119C0D0E030
:1025B000C454DD4F8881809396034AE067E973E055
:1025C000C8010E94723160919C0570919D057170E7
:1025D00086E993E0DF91CF911F910F910C94FF0753
:1025E000DF91CF911F910F910895AF92BF92CF923B
:1025F000DF92EF92FF920F931F93CF93DF938AE0C6
:102600000E949F0A882309F44CC0809118078823F0
:1026100009F447C0C0919E05D0919F05D170C65561
:10262000DC4FFE017E978FE7808388838E8F8091B9
:102630003206909133068937910534F488382FEFAC
:10264000920724F0682F03C068E701C068E8772785
:1026500067FD7095872F972F1F921F921F9221E180
:102660002F93A12CB12C650118E8E12EFF24FA94D8
:102670000FEF1FEF28E730E040E050E00E94B62D5A
:10268000862F66E00E94BF3081502EE18202C00D8D
:10269000D11D11248FE8891B88830F900F900F9014
:1026A0000F90DF91CF911F910F91FF90EF90DF90EE
:1026B000CF90BF90AF900895EF92FF920F931F932A
:1026C000CF93DF9380912906882309F46BC0C091D2
:1026D0000607CC23A1F060912A0670912B06809109
:1026E0002C0690912D060E94132F21EA38EF41E528
:1026F00050E40E9402300E94E72E7B0104C0E0906B
:102700002A06F0902B06C701A0E0B0E00091E40596
:102710001091E5052091E6053091E70508171907A6
:102720002A073B0740F48093E4059093E505A093C6
:10273000E605B093E70582E00E949F0A882391F1A5
:10274000C70164E670E00E94CD308091270790E0D9
:102750006817790720F08091B507811123C0D0E078
:10276000C654DD4F8881809396034AE067E973E0A1
:10277000C7010E947231E0910607F0E0E654FD4F78
:1027800080818093960360918E0570918F057170A2
:1027900086E993E0DF91CF911F910F91FF90EF9029
:1027A0000C94FF07DF91CF911F910F91FF90EF9055
:1027B000089580912906882349F184E00E949F0AA8
:1027C000882321F180910307882301F18091140669
:1027D000853020F48091B507811118C020E043E0D6
:1027E00066E973E080911506909116060E944109F2
:1027F0008DEB8093990310929A03609192057091EA
:102800009305717086E993E00C94FF070895809119
:1028100029068823F1F181E00E949F0A8823C9F1EB
:1028200080912A0690912B06A0912C06B0912D063E
:102830000397A105B10520F48091B507811129C046
:1028400020918C0530918D0531708091000690911A
:102850000106845E9D4F4091150650911606841B1B
:10286000950B880F991F880F991F8D966AE570E068
:102870000E94E130CB0160E170E00E94E130805ABB
:102880008093960310929703B90186E993E00C9424
:10289000FF0708952091AD022A3059F48091AC02CF
:1028A000813009F4BFC0823009F4BFC08AE791E0EB
:1028B000AFC02A3008F0ACC03091AB02313081F5A6
:1028C000283019F42AE02093AD022091AD0229307E
:1028D00019F427E02093AD022091AC02213069F475
:1028E0002091AD0230E02E5F3F4F4EE1429FC0018C
:1028F000439F900D11240A968BC0223069F42091D9
:10290000AD0230E02E5F3F4F4EE1429FC001439F3A
:10291000900D112440967CC0233009F46DC078C01E
:10292000323009F440C0333071F43093AC022830B7
:1029300019F48AE08093AD028091AD02893009F0EC
:102940005BC087E045C0343079F483E08093AC020B
:10295000273019F48AE08093AD028091AD0289306E
:1029600009F04AC086E034C0353061F483E08093DA
:10297000AC02293011F43093AD028091AD02863063
:10298000D9F525C0363099F4293049F48091A00753
:10299000883011F48AE001C088E08093AD02209174
:1029A000AD022093A00783E08093AC0227C03730AC
:1029B00011F0383081F483E08093AC02293019F4AF
:1029C00086E08093AD028091AD028730A9F48AE061
:1029D0008093AD0211C03930D9F4293019F483E065
:1029E0008093AD028091AD02843019F48AE0809327
:1029F000AD0283E08093AC022091AD0230E02E5F07
:102A00003F4F4EE1429FC001439F900D11244696D7
:102A10002091B607222361F0FC01E655FC4F23E02C
:102A2000208308958AE691E0F3CF80E791E0F0CF2C
:102A30000895EF92FF920F931F93CF93DF938091AE
:102A40001507882331F108EA17E0C0E0D0E050E331
:102A5000F52E6AE3E62E20E047E068E973E0F8012E
:102A6000819191918F010E944109F0929603E09229
:102A700097036091DA057091DB0571706C0F7D1F13
:102A800086E993E00E94FF07F3946E96F4E3FF1249
:102A9000E2CFDF91CF911F910F91FF90EF900895BA
:102AA0002F923F924F925F926F927F928F929F925E
:102AB000AF92BF92CF92DF92EF92FF920F931F934C
:102AC000CF93DF93CDB7DEB762970FB6F894DEBF32
:102AD0000FBECDBF80910D078230A1F040F4813050
:102AE00009F0EEC101E010E01C830B8309C08330C4
:102AF00019F0843039F0E4C122E030E03C832B83CC
:102B00001F8206C082E090E09C838B8391E09F83CC
:102B100080912906882309F4D3C182E20E949F0A8A
:102B2000882309F4CDC11E821D82198A1A8A9F81C9
:102B3000AD819A0F9A83892F90E0EB81FC818E17EB
:102B40009F070CF0BDC18091150690911606AA81D1
:102B5000A13069F420912E0630912F06821B930B31
:102B6000845E9D4F68E671E00E94CD300CC08859AC
:102B70009E4F2091000630910106821B930B68E660
:102B800071E00E94E1309C016AE570E00E94E13052
:102B900061307105C1F03CF4672B29F5BFEFB98BAB
:102BA000E1E0EA8B20C062307105B9F06330710555
:102BB000D1F488E691E0821B930B9C019FEF998BE7
:102BC000AFEFAA8B10C0E4EBF0E0E21BF30B9F0128
:102BD000F1E0F98B01E00A8B06C0245B310911E0BA
:102BE000198B4FEF4A8BB901882777FD8095982F75
:102BF0000E94152F2BED3FE049E450E40E94023083
:102C000020E030E044E353E40E947A2E1B012C01C3
:102C100060912A0670912B0680912C0690912D06CA
:102C20000E94132F4B015C01C201B1010E9465306B
:102C30009B01AC01C501B4010E9402300E94E72E45
:102C40006B017C01C201B1010E94772E9B01AC0196
:102C5000C501B4010E9402300E94E72E8B019C0145
:102C60001B01412C512CB60180E090E0C016D1062A
:102C700018F44201310102C03B014C01F4E66F1629
:102C800071048104910490F004EF601601E0700675
:102C90008104910480F014EC611619E0710681043E
:102CA000910470F0930144E249830EC0A1E2A9832C
:102CB00024E630E009C0B2E2B98324EF31E004C079
:102CC000E3E2E98324EC39E079010027F7FC009581
:102CD000102FE886F9860A871B871F921F921F9282
:102CE00020E1F22EFF92A12CB12C6501E884F98439
:102CF0000A851B8520E030E0A9010E94B62D6C8773
:102D00007D878E879F871F921F921F920FE00F93E0
:102D1000E884F9840A851B8520E030E0A901C2011E
:102D2000B1010E94B62D0FB6F894DEBF0FBECDBF25
:102D300034E16316710481049104D8F0AA894A2F02
:102D4000552747FD5095EC85FD854E9F90014F9F7F
:102D5000300D5E9F300D1124F9894F2F552747FD07
:102D60005095469FF001479FF00D569FF00D11249E
:102D700004C0E0E0F0E020E030E0C090D005D0906A
:102D8000D10501E0D022790189010F5F1F4F37FD86
:102D90007801F594E794EC0CFD1CCF0163E070E042
:102DA0000E94E1304EE1469FC001479F900D1124E3
:102DB000E80EF91E4A81413011F045E001C044E0BF
:102DC000C90137FF04C088279927821B930BA82FBE
:102DD000A178A7FF03C0A150AE6FAF5F5A2FCF01FC
:102DE000F7FF04C0882799278E1B9F0B63E00E9482
:102DF000BF308989813019F482E0891B982FBA8904
:102E0000BF3F11F451E05A1B3296359718F491E008
:102E1000E9899E1B0330110528F451E02F3F3F4FF5
:102E200009F450E00A81002311F080ED01C086ED25
:102E300020910D07243031F0152F110F150F190FA8
:102E4000180F16C0809100069091010620912E0661
:102E500030912F06821B930B8A519D4F68E671E0DB
:102E60000E94CD306DE270E00E94CD3012E7160F67
:102E7000298120939603109297036091CE0570915B
:102E8000CF05717086E993E0488B0E94FF0710938D
:102E9000960310929703B70186E993E00E94FF071B
:102EA00048894093960310929703B60186E993E010
:102EB0000E94FF078D819E8101969E838D8337CE70
:102EC00062960FB6F894DEBF0FBECDBFDF91CF91F3
:102ED0001F910F91FF90EF90DF90CF90BF90AF9038
:102EE0009F908F907F906F905F904F903F902F902A
:102EF0000895CF93DF93EC01E62FF0E0E751F94F0F
:102F0000E081F0E0EE0FFF1FE054FF4F65917491F8
:102F100086E993E00E946B31BE0186E993E0DF9180
:102F2000CF910C94FF07CF92DF92EF92FF920F9315
:102F30001F93CF93DF93CDB7DEB764970FB6F894A6
:102F4000DEBF0FBECDBFE091AB02EE0FFF0BEC5327
:102F5000FF4F6591749186E993E00E946B3163E2C3
:102F600070E086E993E00E94FF076BE671E080E481
:102F700094E00E9411088091300681110CC061E735
:102F800071E086E394E00E9411086BE771E08FE244
:102F900094E00E9411088091AB02811179C020E079
:102FA00030E044EB53E46091F8057091F9058091AD
:102FB000FA059091FB050E947A2E0E94E22E6B0189
:102FC0007C014AE066E973E0C6010E94723180919B
:102FD000DE059091DF059C838B838091E4059091C1
:102FE000E5059E838D838091E8059091E90598879A
:102FF0008F838091EA059091EB059A878987DC861B
:10300000CB868091E2059091E3056AE070E00E9432
:10301000CD307E876D870AE4E02E01E0F02ECE01F0
:1030200001966C010DE510E0F7016591749186E958
:1030300093E00E946B31B80186E993E00E94FF079C
:103040004AE066E973E0F601819191916F010E9477
:103050007231B8016F5E7F4F0E94FF07F2E0EF0E02
:10306000F11C025E1F4F0F3281E01807E9F66091F4
:10307000DC057091DD0580E090E021E046E953E059
:103080000E94FB096DE670E086E993E00E94FF076D
:103090008091AB02813009F070C01CE3E12E11E099
:1030A000F12E0DE510E0F7016591749186E993E04A
:1030B0000E946B31B80186E993E00E94FF0792E01D
:1030C000E90EF11C025E1F4F0F32E1E01E0759F7B7
:1030D00000E0053019F0073028F001C007E0D02EDD
:1030E000025001C0D02EFEE10F9F80011124ED2C73
:1030F000F12CF701EF52F94F80814AE066E973E065
:1031000090E00E947231B8016B597F4F0E94FF0717
:10311000F701E953F94F80814AE066E973E090E0F6
:103120000E947231B80165597F4F0E94FF07F70175
:10313000E354F94F80814AE066E973E090E00E9431
:103140007231B8016F587F4F0E94FF0701E00D0DEB
:10315000093008F4BECF67E470E080EB92E00E9493
:10316000FF076DE470E082EB92E00E94FF0763E5E9
:1031700070E084EB92E00E94FF078091AB02823006
:10318000E9F18091AB02833009F0F3C00E944C0555
:1031900087E98093960323E044E067E973E0809138
:1031A000F0059091F1050E94410919EA10939B03E3
:1031B00010929C0364E370E086E993E00E94FF07AD
:1031C0008FEB8093960323E044E067E973E08091FE
:1031D000EE059091EF050E94410910939B03109218
:1031E0009C036CE270E086E993E00E94FF07ACE18B
:1031F000EA2EA1E0FA2E0DE510E05BC08091BC063E
:1032000090E09A8389838091BB0690E09C838B83B6
:103210008091BA0690E09E838D838091B90690E0FC
:1032200098878F838091B80690E09A8789878091EC
:10323000B70690E09C878B878091B60690E09E87CA
:103240008D878091B50690E0988B8F878091B3062B
:103250009091B4069A8B898BBAE2EB2EB1E0FB2EEB
:10326000CE0101966C010DE510E0F70165917491B6
:1032700086E993E00E946B31B80186E993E00E94F1
:10328000FF074AE066E973E0F601819191916F01D1
:103290000E947231B8016C5E7F4F0E94FF07F2E01E
:1032A000EF0EF11C025E1F4F0B3681E01807E9F6A6
:1032B00068CFF7016591749186E993E00E946B31C4
:1032C000B80186E993E00E94FF0792E0E90EF11C45
:1032D000025E1F4F0F32E1E01E0759F78091FA0698
:1032E0004AE066E973E090E00E9472316BEC70E0B6
:1032F0000E94FF0767E081E790E00E9479178091C4
:10330000F3064AE066E973E090E00E9472316FE8EC
:1033100070E00E94FF078091F1064AE066E973E0E1
:1033200090E00E9472316DEA70E00E94FF0761E157
:103330008BEC90E00E9479178091FB064AE066E9E9
:1033400073E090E00E94723169EE70E00E94FF0726
:103350008091F2064AE066E973E090E00E947231E3
:1033600067E071E00E94FF076BE085E291E00E9458
:1033700079178091AB02843009F074C04AE066E9A5
:1033800073E08091F4059091F5050E9472310E94DE
:10339000940AA82FB0E0AA56BC4F95E29C938F5F89
:1033A000E82FF0E0EA56FC4F108265E370E086E912
:1033B00093E00E94FF07F0E1EF2EF1E0FF2E0DE514
:1033C00010E0F7016591749186E993E00E946B31FA
:1033D000B80186E993E00E94FF07F2E0EF0EF11CCE
:1033E000025E1F4F013181E0180759F764E081E761
:1033F00090E00E9479178091B907882349F04AE04C
:1034000066E973E090E00E9472316FE870E004C0FA
:103410006FE870E086EB92E00E94FF0765E08DEABE
:1034200090E00E94791766E08BEC90E00E9479179B
:103430004AE066E973E08091E3069091E4060E9419
:10344000723169EE70E00E94FF074AE066E973E0BE
:103450008091E1069091E2060E94723167E071E08E
:103460000E94FF078091AB02853009F060C0609137
:10347000FC057091FD058091FE059091FF050E946D
:10348000E22EDC01CB0123E044E066E973E00E9418
:1034900041098AE980939A0310929B0364E370E0E8
:1034A00086E993E00E94FF07E6E0EE2EE1E0FE2EC3
:1034B0000DE510E0F7016591749186E993E00E94B3
:1034C0006B31B80186E993E00E94FF0792E0E90EB4
:1034D000F11C025E1F4F033F110561F76CE081E7AD
:1034E00090E00E9479176EE08FE890E00E947917D3
:1034F0006FE08DEA90E00E9479174AE066E973E098
:103500008091DF069091E0060E9472316BEC70E0D2
:103510000E94FF074AE066E973E08091DD06909122
:10352000DE060E94723169EE70E00E94FF07809112
:10353000AB02863009F04AC076EFE72E70E0F72E36
:103540000DE510E0F7016591749186E993E00E9422
:103550006B31B80186E993E00E94FF07E2E0EE0ECE
:10356000F11C025E1F4F0D34F1E01F0759F760E2B6
:1035700081E790E00E94791761E28FE890E00E9475
:1035800079176DE28DEA90E00E9479176FE18BEC7C
:1035900090E00E94791767E189EE90E00E94791728
:1035A00064E387E091E00E9479176EE285E291E0A2
:1035B0000E94791780910D074AE066E973E090E078
:1035C0000E94723163E471E00E94FF078091AB02B8
:1035D000873009F066C06AEEE62E60E0F62E0DE553
:1035E00010E0F7016591749186E993E00E946B31D8
:1035F000B80186E993E00E94FF0782E0E80EF11C23
:10360000025E1F4F013191E0190759F780910607BB
:1036100061E770E0811103C08DEF91E002C089EF96
:1036200091E00E941108809107076FE870E0811116
:1036300003C08DEE91E002C089EE91E00E94110876
:1036400080910E076DEA70E0882319F080EE91E01A
:1036500002C08BED91E00E9411086CE28BEC90E0CF
:103660000E9479178091BA07882349F04AE066E9F9
:1036700073E090E00E94723169EE70E004C069EE80
:1036800070E086EB92E00E94FF07809123074AE0FA
:1036900066E973E090E00E94723167E071E00E9499
:1036A000FF078091AB02883031F08091AB02893006
:1036B00009F087C04BC08091270790E09A838983E7
:1036C0008091280790E09C838B838091290790E06C
:1036D0009E838D8380912A0790E098878F838091C5
:1036E000FD0690E09A8789878091FE0690E09C878E
:1036F0008B875EEDE52E50E0F52EFE0131966F01D1
:103700000DE510E0F7016591749186E993E00E9460
:103710006B31B80186E993E00E94FF074AE066E951
:1037200073E0F601819191916F010E947231B801AD
:103730006C5E7F4F0E94FF07F2E0EF0EF11C025E0D
:103740001F4F013181E01807E9F6AFCF8091B10634
:1037500090E09A8389838091AE0690E09C838B836E
:103760008091AC069091AD069E838D8348EDE42E4A
:1037700040E0F42EFE0131966F010DE510E0F701F7
:103780006591749186E993E00E946B31B80186E9F6
:1037900093E00E94FF074AE066E973E0F601819139
:1037A00091916F010E947231B8016C5E7F4F0E944F
:1037B000FF07F2E0EF0EF11C025E1F4F073B110501
:1037C000F1F68091AB028A3014F01092AB0264964D
:1037D0000FB6F894DEBF0FBECDBFDF91CF911F9122
:1037E0000F91FF90EF90DF90CF900C944A14CF93FD
:1037F0008EE00E949F0A882309F457C08091310609
:10380000811105C09EE19093AE02C1E001C0C0E00D
:1038100090913A0693FF0AC090911406953008F4EF
:10382000C5E09091C407911101C0C4E09091C30715
:10383000911101C0C3E09091AE02992359F0882301
:1038400089F18091B607882359F191509093AE0287
:10385000C2E00EC0C33060F0811106C08091B50790
:10386000882331F0C1E004C08091B50781111DC0EB
:10387000EC2FF0E0EE0FFF1FEC56FB4F65917491BB
:1038800086E993E00E946B31CC2379F06091A60524
:103890007091A705717086E993E0CF910C94FF07B2
:1038A000C0E0E6CFC330D0F6E3CFCF910895E091EA
:1038B000E40281E08E0F8093E402F0E0E751FD4FD7
:1038C00080810895CF93DF930E94571CC82FD0E0CA
:1038D0000E94571C9E01382BC901DF91CF9108959A
:1038E000CF92DF92EF92FF920E94621C6C01E12C5A
:1038F000F12C0E94621CA0E0B0E0772766276C29BB
:103900007D298E299F29FF90EF90DF90CF90089519
:1039100026E040E052EC61E070E08EEC97E00E941F
:10392000872C8091C00082608093C0001092C500F7
:1039300080E18093C4008EEC97E00E94002C60E050
:1039400081E10E94352B60E081E10E94352B61E02E
:1039500087E00E94352B0E9493070E94DA040E94A0
:10396000A00464EF71E080E090E00E94772A8091EB
:103970000E07882311F081E001C083E00E94EC2A49
:103980000E943E080C943803CF93C82F682F8EEC0A
:1039900097E00E94222C9091E3029C279093E302EF
:1039A000CF910895CF93DF931F92CDB7DEB7998360
:1039B0000E94C41C9981892F0F90DF91CF910C94A4
:1039C000C41C6091E3028EEC97E00C94222CCF9300
:1039D000DF93D82FC62F64E270E08EEC97E00E9450
:1039E000EB026DE470E08EEC97E00E94EB026CE37A
:1039F00070E08EEC97E00E94EB021092E3028C2FB5
:103A00000E94C41C8D2F0E94C41CC11104C0DF91F0
:103A1000CF910C94E11CDF91CF9108951F93CF9328
:103A2000DF936FE18CED0E94E71C89E00E94C41CCB
:103A30001AE0C0916007D0916107CE010E94E902AF
:103A400080935F07CE010E94D21C80915F070E9485
:103A5000C41C809160079091610701969093610763
:103A600080936007115029F7DF91CF911F910C943B
:103A7000E11C63E08CED0E94E71C89E00E94C41CFD
:103A800080916007909161070E94D21C0C94E11C08
:103A900061E082ED0E94E71C8091B1060E94C41C87
:103AA0000E94E11C60E08AEF0E94E71C0E9438033C
:103AB00064E670E080E090E00C94772A81E08093E7
:103AC000AB028AE08093AD0283E08093AC02109257
:103AD0009C071092300680910C07882301F1109208
:103AE000DE051092DF051092E0051092E1051092BC
:103AF000E4051092E5051092E6051092E705109294
:103B0000E9051092E8051092EB051092EA05109273
:103B1000E3051092E2051092DD051092DC0580911C
:103B2000AF069091B106981721F08093B1060E94DC
:103B3000481D0C943803EF92FF920F931F93CF937D
:103B4000DF938091B1068093AF0661E08CE30E9421
:103B5000E71C8091AE060E94C41C0E94E11C62E03A
:103B60008AE40E94E71C8091AC069091AD060E9409
:103B7000D21C0E94E11C6EE18AEC0E94E71CC1EDA0
:103B8000D6E037ECE32E36E0F32E0DEB16E089910C
:103B90000E94C41CF70181917F010E94C41CF8019E
:103BA00081918F010E94C41CF6E0CB3DDF0779F7BD
:103BB0000E94E11C6BE08CEC0E94E71C8091BC062B
:103BC0000E94C41C8091BB060E94C41C8091BA064E
:103BD0000E94C41C8091B9060E94C41C8091B80642
:103BE0000E94C41C8091B7060E94C41C8091B60636
:103BF0000E94C41C8091B5060E94C41C8091B3062B
:103C00009091B4060E94D21C8091B2060E94C41CFE
:103C10000E94E11C0E94240460E08AEF0E94E71CDD
:103C2000DF91CF911F910F91FF90EF900C945E1D4B
:103C30008091AD028A30C9F49091AC029330A9F41E
:103C40009091A70792301CF091E09093A707909174
:103C5000A7079F3F1CF49FEF9093A7079091AB029B
:103C60002091A707920F9093AB029091AB0297FF20
:103C700003C099E09093AB029091AB029A3014F09C
:103C80001092AB029091AB02913019F5EFEFE80F73
:103C9000E73008F004C2863010F0E1E0E80F8091D0
:103CA000AC02813021F4F0E0EF52F94F05C08230D0
:103CB00049F4F0E0E953F94F80819091A707890F0B
:103CC0008083EDC1833009F0EAC1F0E0E354F94F9D
:103CD000F3CF923009F067C09091AC02933009F0B5
:103CE000DEC1813041F48091BC069091A707890F15
:103CF0008093BC06D4C1823041F48091BB06909180
:103D0000A707890F8093BB06CAC1833041F4809115
:103D1000BA069091A707890F8093BA06C0C1843074
:103D200041F48091B9069091A707890F8093B90655
:103D3000B6C1853041F48091B8069091A707890FEC
:103D40008093B806ACC1863041F48091B70690915B
:103D5000A707890F8093B706A2C1873041F48091ED
:103D6000B6069091A707890F8093B60698C1883050
:103D700041F48091B5069091A707890F8093B5060D
:103D80008EC1893009F08BC12091A7078091B306BD
:103D90009091B406820F911D27FD9A959093B406D9
:103DA0008093B3067CC1933009F04BC09091AC0274
:103DB000933009F074C1813039F49091F00691117B
:103DC00080E08093F0066BC1823041F48091A707B8
:103DD0009091F306890F8093F30661C1833041F41B
:103DE0008091A7079091F106890F8093F10657C142
:103DF000843041F481E09091FA06911180E0809343
:103E0000FA064DC1853041F48091A7079091FB06D9
:103E1000890F8093FB0643C1863041F48091A70748
:103E20009091F206890F8093F20639C1873009F02C
:103E300036C181E09091F406911180E08093F40600
:103E40002EC1943009F04BC09091AC02933009F030
:103E500026C1813039F49091ED06911180E0809374
:103E6000ED061DC1823021F48FE08093B90717C1A0
:103E7000833041F481E09091EE06911180E08093CF
:103E8000EE060DC1843041F481E09091EF0691116E
:103E900080E08093EF0603C1853079F42091A70775
:103EA0008091E3069091E406820F911D27FD9A957B
:103EB0009093E4068093E306F2C0863009F0EFC0E9
:103EC0002091A7078091E1069091E206820F911D53
:103ED00027FD9A959093E2068093E106E0C0953025
:103EE00009F045C09091AC02933009F0D8C0813000
:103EF00039F49091F506911180E08093F506CFC0DA
:103F0000823041F481E09091F706911180E0809336
:103F1000F706C5C0833041F481E09091F806911115
:103F200080E08093F806BBC0843079F42091A70725
:103F30008091DF069091E006820F911D27FD9A95F2
:103F40009093E0068093DF06AAC0853009F0A7C0F1
:103F50002091A7078091DD069091DE06820F911DCA
:103F600027FD9A959093DE068093DD0698C09630E3
:103F700009F055C09091AC02933009F090C08130A7
:103F800039F490910907911180E08093090787C067
:103F9000823041F481E090910A07911180E0809392
:103FA0000A077DC0833041F481E09091160791119A
:103FB00080E08093160773C0843041F481E09091D3
:103FC0000807911180E08093080769C0853041F4AB
:103FD00081E090910007911180E0809300075FC01D
:103FE000863041F481E090911D07911180E080932B
:103FF0001D0755C0873041F481E09091170791115A
:1040000080E0809317074BC0883009F048C080914A
:10401000A70790910D07890F80930D0740C0973037
:1040200009F03DC09091AC029330C9F5813039F46C
:1040300090910607911180E0809306070BC08230B3
:1040400049F481E090910707911180E08093070780
:104050000E943E088091AD02833041F481E090914E
:104060000E07911180E080930E0719C0843041F44F
:1040700081E090911507911180E0809315070FC0A2
:10408000853021F48AE08093BA0709C0863039F47C
:104090008091A70790912307890F80932307809130
:1040A000AB02883009F043C08091AC02833009F044
:1040B0006AC08091AD02813041F48091A707909150
:1040C0002707890F809327075EC0823041F48091D3
:1040D000A70790912807890F8093280754C0833041
:1040E00041F48091A70790912907890F80932907B0
:1040F0004AC0843041F48091A70790912A07890F24
:1041000080932A0740C0853041F48091A7079091A1
:10411000FD06890F8093FD0636C08630A1F580919B
:10412000A7079091FE06890F8093FE062CC0893068
:1041300051F58091AC02833031F58091AD02813030
:1041400041F48091B1069091A707890F8093B10641
:104150001AC0823041F48091AE069091A707890F72
:104160008093AE0610C0833071F42091A707809130
:10417000AC069091AD06820F911D27FD9A95909304
:10418000AD068093AC068091B106833010F010929A
:10419000B1069091B1068091B006981731F00E9457
:1041A000481D8091B1068093B0068091AD028A309F
:1041B00031F48091AC02813011F40E945E1D809137
:1041C000AD028A3031F48091AC02823011F40C944B
:1041D0009B1D08950F931F938091130190911401DB
:1041E000855195408F389140C8F48091110190918C
:1041F0001201855195408F38914080F480911501CE
:1042000090911601855195408F38914038F4109265
:10421000DA0288EE93E0A0E0B0E025C08091DA02F7
:10422000813049F50E94482A0091D2021091D302B0
:104230002091D4023091D502601B710B820B930B3D
:104240000091D6021091D7022091D8023091D90264
:10425000061717072807390710F41092DA028CE2C4
:1042600091E0A0E0B0E08093D6029093D702A093B3
:10427000D802B093D9028091DA028111DDC0809119
:1042800013019091140120919C078B33974020F1EA
:1042900080911501909116018B339740E8F0809141
:1042A0001701909118018F379440B0F02111B6C0DA
:1042B0008091A5079091A607069708F4AFC080915A
:1042C00031068111ABC082E08093DA0281E08093F5
:1042D0009C070E943803A2C0222309F49FC01091BA
:1042E000A7071092A70780913006882361F080917C
:1042F0001701909118018531954028F082E0809354
:10430000DA020E945E1D30919C07332309F451C0EC
:1043100080911101909112018B3327E0920778F080
:1043200081E08093DA028091AC028F5F8093AC02CF
:10433000843008F473C083E08093AC026FC08E3782
:10434000944068F491E09093DA028091AC0281503D
:104350008093AC02811162C09093AC025FC08091E7
:104360001301909114018B3327E0920788F091E0BC
:104370009093DA028091AD02815019F08093AD02E2
:1043800002C09093AD028091AB02811147C00DC075
:104390008E37944070F481E08093DA028091AD0210
:1043A0008F5F8093AD028B30C8F18AE08093AD02BD
:1043B00035C080913006811131C0332379F1212F2E
:1043C00016300CF025E02B3F0CF42BEF80911501FB
:1043D000909116018E3734E0930738F481E0809392
:1043E000DA0221502093A70717C08B339740B0F013
:1043F00081E08093DA022F5F2093A7078091AB02C0
:10440000883051F48091AC02833031F48091AD0258
:10441000853011F41092BA070E94181E8091DA02BA
:10442000813051F40E94482A6093D2027093D302E3
:104430008093D4029093D5021F910F910895CF924B
:10444000DF92EF92FF920F931F93CF93DF9310921F
:10445000E40283E08093C3078091E6028C3D09F07B
:10446000D4C00E94571C893041F50E94571CC82FA8
:10447000D0E0D0936107C09360070E94571CC80F1B
:10448000D11DD0936107C09360070E94571C809391
:104490005F0781E080935E070E94482A6854744F4A
:1044A0008F4F9F4F60935A0770935B0780935C0711
:1044B00090935D070E940E1DA8C0883009F052C07D
:1044C0001AE001E00E94571CC82FD0E0D09361078A
:1044D000C09360070E94571C282F30E0322F2227FC
:1044E0002C0F3D1F30936107209360070E94571CDB
:1044F00080935F0700935E070E94482A6854744FB8
:104500008F4F9F4F60935A0770935B0780935C07B0
:1045100090935D0760915F078091600790916107BC
:104520000E94E7026CE080E090E00E94E702809148
:104530006007909161078A35910519F080359140A7
:1045400011F40E94A004115009F0BCCF80916007C3
:1045500090916107019690936107809360070E9494
:10456000391D53C08730D1F46BE08CED0E94E71CFD
:1045700087E00E94C41CCCE4D6E08881998173E076
:10458000969587957A95E1F70E94D21C649686E00D
:10459000C03BD80791F70E94E11C37C0833049F532
:1045A0008091E702853081F40E94621C80329D4137
:1045B00061F50E94571C809364070E94571C8093EA
:1045C00063070E94250321C08833F9F4C5E6D7E0CC
:1045D0000E94571C8993F7E0CB39DF07C9F70E9487
:1045E000571CC82F0E94DC08CF3F79F40E943E0878
:1045F0000CC0863029F40E94E9070E94DA0402C048
:10460000853019F481E08093B2078091E602843608
:1046100041F481E08093B0070E94571C80933506D7
:104620004BC08536D9F50E94621C9093A4078093F5
:10463000A3070E94621C9093A2078093A1070E9487
:10464000621C90933B0680933A060E94701C609314
:10465000360670933706809338069093390620917A
:104660003507C22ED12CE12CF12CC622D722E8220C
:10467000F92221E0CD28CE28CF2809F420E020938C
:1046800031060E94571C8093B10690919C079111AE
:1046900013C08093AF068093B0060EC0893661F4D4
:1046A000C1E1D1E00E94621C8993999321E0C1325B
:1046B000D207C1F70E94EA208091E6028A3609F00B
:1046C00043C085E08093C4070E94571C882319F0DB
:1046D00081E0809329060E94571C809314060E9453
:1046E000701C60932506709326068093270690938E
:1046F00028060E94701C6093210670932206809306
:104700002306909324060E94621C209131062111F9
:1047100004C090931E0680931D0620911D063091C3
:104720001E06821B930B9093200680931F060E9407
:10473000621C90931C0680931B060E94621C90933F
:104740001A068093190602C28B3699F40E94621CE5
:10475000A0E0B0E080932A0690932B06A0932C064D
:10476000B0932D060E94621C909316068093150646
:10477000EDC18C36A9F40E94621C9093A10680932F
:10478000A0060E94621C9093A3068093A2060E943A
:10479000621C843B91050CF4D5C188569140D2C16E
:1047A0008D3689F40E94701C6093A8067093A90648
:1047B0008093AA069093AB060E94621C90933306E6
:1047C00080933206C3C18E36B9F40E94571C809381
:1047D00034060E94621C90931306809312060E9476
:1047E000621C90931106809310060E94621C9093A5
:1047F000F7058093F605AAC18F36A1F50E94571CD4
:104800008093BC060E94571C8093BB060E94571CD5
:104810008093BA060E94571C8093B9060E94571CC9
:104820008093B8060E94571C8093B7060E94571CBD
:104830008093B6060E94571C8093B5060E94621CA6
:104840009093B4068093B3060E94571C8093B206DF
:104850008091920390919303A0919403B09195035A
:104860009D7F46C0803719F5C1EDD6E007EC16E014
:104870006DEBE62E66E0F62E0E94571C89930E948F
:10488000571CF80181938F010E94571CF7018193F7
:104890007F01F6E0CB3DDF0779F78091920390919D
:1048A0009303A0919403B09195039B7F21C08B3318
:1048B00071F40E94571C8093AE06809192039091F0
:1048C0009303A0919403B0919503AB7F11C08934F9
:1048D000C1F40E94621C9093AD068093AC06809157
:1048E000920390919303A0919403B0919503A77FB5
:1048F0008093920390939303A0939403B0939503B2
:1049000025C1873709F022C181E08093B107C091AA
:10491000E70210923507109236071092370710926F
:1049200038071092390710923D0710923C071092F9
:104930003F0710923E0710925207109253071092B1
:10494000540710925507109256071092570710926D
:1049500058071092590710924E0710924F07109265
:104960005007109251071092410710924007109281
:104970004A0710924B0710924C0710924D07109265
:104980003B0710923A071092420710924307109289
:10499000440710924507109246071092470710925D
:1049A000480710924907C12CD12C7601C394CC231F
:1049B00009F4CCC00E94571C992787FD9095A92F18
:1049C000B92F8D31910508F0B7C0FC01EC5CFF4FA9
:1049D0000C943631809135078C2980933507ACC013
:1049E000809136078C2980933607A6C080913707BF
:1049F0008C2980933707A0C0809138078C29809339
:104A000038079AC0809139078C298093390794C060
:104A100080913A0790913B078C299D2990933B0701
:104A200080933A0789C080913C0790913D078C297B
:104A30009D2990933D0780933C077EC080913E075F
:104A400090913F078C299D2990933F0780933E07C3
:104A500073C080914007909141078C299D299093C4
:104A600041078093400768C080914E0790914F079F
:104A7000A0915007B09151078C299D29AE29BF29DB
:104A800080934E0790934F07A0935007B093510720
:104A900053C080914A0790914B07A0914C07B09169
:104AA0004D078C299D29AE29BF2980934A079093F1
:104AB0004B07A0934C07B0934D073EC0809152071F
:104AC00090915307A0915407B09155078C299D29C7
:104AD000AE29BF298093520790935307A0935407A0
:104AE000B093550729C08091560790915707A09120
:104AF0005807B09159078C299D29AE29BF29809369
:104B0000560790935707A0935807B093590714C0BE
:104B10008091420790914307A0914407B0914507C7
:104B20008C299D29AE29BF29809342079093430782
:104B3000A0934407B0934507CC0CDD1CEE1CFF1C72
:104B4000C15035CF9093010680930006DF91CF913D
:104B50001F910F91FF90EF90DF90CF900895FF92FB
:104B60000F931F93CF93DF93F82E8EEC97E00E9464
:104B7000A42B21E0892B09F420E0C5E0D0E004E07B
:104B800010E0213009F06DC08EEC97E00E94BD2B43
:104B90002091D0023091D1022115310529F421E074
:104BA00030E0843289F412C02130310529F48D348B
:104BB00059F422E030E00AC02230310561F48E332E
:104BC00019F423E030E002C020E030E03093D1025D
:104BD0002093D0023EC02330310559F4873960F567
:104BE0008093E7021093D1020093D0028093E502F4
:104BF00030C02430310571F4D093D102C093D0027B
:104C00008093E6029091E50298279093E502109236
:104C1000E8021FC025303105E1F49091E5029827A4
:104C20009093E502E091E8022091E702E21309C0C7
:104C3000911102C00E941F221092D1021092D00244
:104C400008C091E09E0F9093E802F0E0E751FD4F1D
:104C500080838EEC97E00E94A42B892B11F0F11039
:104C600093CFDF91CF911F910F91FF9008959F9265
:104C7000AF92BF92CF92DF92EF92FF920F931F936A
:104C8000CF93DF9360E086E00E946E2B84E00E9469
:104C9000F90781E00E94F90785E00E94F90780E0AA
:104CA0000E94F90786E00E94F90780E00E94F90758
:104CB00081E080937F030E94482A6B017C0188E297
:104CC000C80ED11CE11CF11C60E086E00E946E2B36
:104CD0000AEA13E0C0E0D0E0F7E0BF2EAA24A394D4
:104CE000A0E29A2E8091800390918103C817D90782
:104CF00070F5BEBCC03FD10559F40E94482A6B0133
:104D00007C01E8E2CE0ED11CE11CF11CA0927F03D5
:104D10000DB407FEFDCF80917F03882371F00E94C0
:104D2000482AC616D706E806F90618F410927F033B
:104D3000F2CF80E00E94AF25EECFF80180818EBDDA
:104D400091928F010DB407FEFDCF2196CBCF87E066
:104D50000E94F9078FEF0E94F90784E00E94F9078B
:104D600080E00E94F90761E086E0DF91CF911F911A
:104D70000F91FF90EF90DF90CF90BF90AF909F90FA
:104D80000C946E2BCF92DF92EF92FF928091B2073C
:104D9000882311F00C9400000E94F2029093AF0758
:104DA0008093AE07E091230710929E07809122071F
:104DB0008823A1F0F0E0EE0FFF1FEF5EFE4F808131
:104DC0009181813426E0920710F081E004C0893798
:104DD0009540E0F082E080939E0718C080914A07DA
:104DE00090914B07A0914C07B0914D07409136062A
:104DF00050913706609138067091390684239523C7
:104E0000A623B723892B8A2B8B2BF9F690919E072B
:104E100080919D0798130E94580480919E0780936B
:104E20009D078091B307863010F061E001C060E01B
:104E300087E00E946E2B0E94482A6B017C018091C2
:104E4000820390918303A0918403B0918503A7010D
:104E50009601281B390B4A0B5B0B243631054105A3
:104E6000510550F0C0928203D0928303E0928403F4
:104E7000F09285030E94930780918A0390918B039F
:104E8000A0918C03B0918D03B701A601481B590B6B
:104E90006A0B7B0B443651056105710508F445C06A
:104EA0008C599F4FAF4FBF4F80938A0390938B03D2
:104EB000A0938C03B0938D038091B3078F5F809391
:104EC000B3078091B4078F5F8093B40781E090911E
:104ED000B607911180E08093B6070E94D9038091B4
:104EE000F7068823D1F02091FC053091FD05409113
:104EF000FE055091FF056091F8057091F9058091CC
:104F0000FA059091FB050E940F2E6093F8057093AF
:104F1000F9058093FA059093FB0580919B07811119
:104F200004C060E08CE60E94E71C809186039091AB
:104F30008703A0918803B0918903C81AD90AEA0AA5
:104F4000FB0A32E3C316D104E104F10408F4B7C14B
:104F5000C296A11DB11D8093860390938703A093F1
:104F60008803B093890380918E0390918F03A09161
:104F70009003B0919103892B8A2B8B2B81F4809124
:104F8000920390919303A0919403B0919503809321
:104F90008E0390938F03A0939003B0939103C090DE
:104FA0008E03D0908F03E0909003F09091038827B8
:104FB0009927DC018C199D09AE09BF098C219D211F
:104FC000AE21BF21AC01BD01409550956095709513
:104FD0004C215D216E217F2140938E0350938F03DE
:104FE0006093900370939103811541E09407A105AC
:104FF000B10509F458C028F588309105A105B1051F
:1050000009F44BC068F481309105A105B10509F49C
:1050100042C00297A105B10509F051C085E650C014
:1050200080329105A105B105E1F180389105A10516
:10503000B105A9F14097A105B10509F040C08DE681
:105040003FC0811520E19207A105B105B1F198F4A7
:10505000811544E09407A105B10549F1811558E097
:105060009507A105B10539F181159240A105B1055A
:1050700031F58FE625C0009734E0A307B105A9F00C
:10508000009748E0A407B105A1F00097A140B10541
:10509000B1F482E715C084E613C089E611C08AE640
:1050A0000FC08BE60DC08EE60BC08BE309C080E716
:1050B00007C089E405C087E703C08CED01C080E02C
:1050C00090919B07911105C060E00E94E71C0E942F
:1050D00037260E944C058091A5079091A607089756
:1050E00060F40E940A118091040690910506CC9705
:1050F0009093B8078093B707E2C080913106882368
:1051000049F081E08093300680919C07813011F452
:105110000E945E1D80913006882399F080913106AF
:1051200081110FC084E18093AE021092AB028AE03D
:105130008093AD0281E08093AC0280939C070E9433
:10514000380380919C07882319F00E949317B7C0F9
:105150000E94380380913A0680FF0AC06091A2063F
:105160007091A3068091A0069091A1060E94810CE7
:105170008091F00681110E943A0E8091FA06811109
:105180000E94ED0E8091ED06882379F08091EC0667
:1051900090E02091F4053091F505821793071CF0FB
:1051A0008091B50781110E9484108091F5068823B3
:1051B00021F120E030E040E251E46091FC05709183
:1051C000FD058091FE059091FF050E947A2E6B01EE
:1051D0007C016091FE0670E080E090E00E94152F57
:1051E0009B01AC01C701B6010E94732E87FD03C06D
:1051F0008091B50781110E940F108091F7068823D6
:1052000049F00E940203882309F4F5C08091B50794
:105210008111F1C00E94BB0F0E94F71B809108070B
:1052200081110E94210F8091040690910506209122
:10523000B7073091B807A901445C5F4F4817590779
:10524000A0F4205C3F4F2817390720F49093B8074B
:105250008093B70780911107882339F08091D80592
:105260009091D90591700E94700C80913A0682FF4E
:1052700004C00E94E5100E94AF1080913A0681FFA1
:1052800004C00E9487120E94F51280913A0683FFA3
:1052900012C08091FF06882371F00E94FB110E94CA
:1052A00007140E945C130E94D9130E9422120E94CC
:1052B00080110E9450150E94AF0A0E94191580911A
:1052C000B407853048F01092B40781E09091B5079B
:1052D000911180E08093B5070E94482AC090BF07D3
:1052E000D090C007E090C107F090C20728EEC20E30
:1052F00023E0D21EE11CF11CC616D706E806F9060B
:1053000008F072C0C092BF07D092C007E092C107F8
:10531000F092C2071092B30780910406909105069F
:105320000196909305068093040680919B07811156
:1053300002C00E9426098091C407811103C0109207
:10534000140603C081508093C4078091C30788234B
:1053500019F081508093C30780913106811109C0F3
:10536000809100069091010690932F0680932E065F
:1053700016C0809102069091030601969093030651
:10538000809302068091DC059091DD050196909353
:10539000DD058093DC0510929C070E943803809104
:1053A000A5079091A60701969093A6078093A5075D
:1053B0008091BA07813051F480919C07882331F0A5
:1053C00060E08EEC0E94E71C1092BA078091BA0749
:1053D000882319F081508093BA078091B9078823F8
:1053E00019F081508093B90781E0FF90EF90DF9032
:1053F000CF900C94AF250E945B100CCF1F920F92A0
:105400000FB60F9211242F933F938F939F93AF93D7
:10541000BF938091C6079091C707A091C807B0912C
:10542000C9073091C50723E0230F2D3720F40196DB
:10543000A11DB11D05C026E8230F0296A11DB11DB7
:105440002093C5078093C6079093C707A093C8070A
:10545000B093C9078091CA079091CB07A091CC0760
:10546000B091CD070196A11DB11D8093CA079093FD
:10547000CB07A093CC07B093CD07BF91AF919F917D
:105480008F913F912F910F900FBE0F901F90189505
:105490002FB7F8946091C6077091C7078091C8072D
:1054A0009091C9072FBF08953FB7F8948091CA071C
:1054B0009091CB07A091CC07B091CD0726B5A89BC2
:1054C00005C02F3F19F00196A11DB11D3FBF6627F2
:1054D000782F892F9A2F620F711D811D911D42E037
:1054E000660F771F881F991F4A95D1F708958F92ED
:1054F0009F92AF92BF92CF92DF92EF92FF926B0199
:105500007C010E94542A4B015C01C114D104E104C6
:10551000F104F1F00E940D2E0E94542A68197909B5
:105520008A099B09683E73408105910570F321E06B
:10553000C21AD108E108F10888EE880E83E0981EAF
:10554000A11CB11CC114D104E104F10429F7DDCF81
:10555000FF90EF90DF90CF90BF90AF909F908F9093
:105560000895789484B5826084BD84B5816084BDDB
:1055700085B5826085BD85B5816085BDEEE6F0E0CC
:10558000808181608083E1E8F0E010828081826028
:105590008083808181608083E0E8F0E080818160A9
:1055A0008083E1EBF0E0808184608083E0EBF0E0D9
:1055B000808181608083EAE7F0E08081846080837D
:1055C0008081826080838081816080838081806827
:1055D00080831092C10008958093AF0208958E30A9
:1055E00008F08E5087702091AF0290E4299F9001BF
:1055F0001124822B80937C0080917A0080648093B8
:105600007A0080917A0086FDFCCF8091780020910D
:10561000790090E0922B0895833081F028F4813056
:1056200099F08230A1F008958730A9F08830B9F060
:105630008430D1F4809180008F7D03C08091800000
:105640008F7780938000089584B58F7702C084B5EA
:105650008F7D84BD08958091B0008F7703C08091C5
:10566000B0008F7D8093B0000895CF93DF9390E0DA
:10567000FC01E95DFA4F2491FC01E55CFA4F84914D
:10568000882349F190E0880F991FFC01E75AFA4FEF
:10569000A591B491815B9A4FFC01C591D4919FB7BC
:1056A000611108C0F8948C91209582238C93888195
:1056B00082230AC0623051F4F8948C91322F3095D5
:1056C00083238C938881822B888304C0F8948C91E7
:1056D000822B8C939FBFDF91CF9108950F931F93DF
:1056E000CF93DF931F92CDB7DEB7282F30E0F901BB
:1056F000ED5EFA4F8491F901E95DFA4F1491F901D9
:10570000E55CFA4F04910023C9F0882321F06983F6
:105710000E940C2B6981E02FF0E0EE0FFF1FE15B90
:10572000FA4FA591B4919FB7F8948C91611103C081
:105730001095812301C0812B8C939FBF0F90DF9127
:10574000CF911F910F910895FC01818D228D90E0E2
:10575000805C9F4F821B91098F7399270895FC01EC
:10576000918D828D981731F0828DE80FF11D858D16
:1057700090E008958FEF9FEF0895FC01918D828D49
:10578000981761F0828DDF01A80FB11D5D968C9195
:10579000928D9F5F9F73928F90E008958FEF9FEFA0
:1057A000089581E49DE2892B49F080E090E0892B07
:1057B00029F00E94412D81110C9400000895FC01F4
:1057C000848DDF01A80FB11DA35ABF4F2C91848D8A
:1057D00090E001968F739927848FA689B7892C93BF
:1057E000A089B1898C9180648C93938D848D98135A
:1057F00006C00288F389E02D80818F7D8083089523
:10580000CF93DF93EC01888D8823C9F0EA89FB8967
:10581000808185FD05C0A889B9898C9186FD0FC05E
:105820000FB607FCF5CF808185FFF2CFA889B98933
:105830008C9185FFEDCFCE010E94DF2BE7CFDF916A
:10584000CF910895CF92DF92FF920F931F93CF9342
:10585000DF931F92CDB7DEB76C0181E0D601589679
:105860008C9358975B969C915B975C968C915C9718
:10587000981307C05096ED91FC915197808185FD5A
:105880002EC0F601038D10E00F5F1F4F0F7311271D
:10589000F02EF601848DF81211C00FB607FCF9CF77
:1058A000D6015096ED91FC915197808185FFF1CF03
:1058B000C60169830E94DF2B6981EBCF838DE80FDE
:1058C000F11DE35AFF4F6083D6015B960C935B9703
:1058D0005296ED91FC915397808180620CC0D60165
:1058E0005696ED91FC91579760835096ED91FC91FF
:1058F000519780818064808381E090E00F90DF91F8
:10590000CF911F910F91FF90DF90CF900895BF929C
:10591000CF92DF92EF92FF92CF93DF93EC016A0177
:105920007B01B22EE889F98982E08083411581EEFE
:10593000580761057105A1F060E079E08DE390E022
:10594000A70196010E94F530215031094109510902
:105950005695479537952795211580E1380798F09A
:10596000E889F989108260E874E88EE190E0A70187
:1059700096010E94F530215031094109510956958F
:10598000479537952795EC85FD853083EE85FF8516
:105990002083188EEC89FD89B082EA89FB89808199
:1059A00080618083EA89FB89808188608083EA89BD
:1059B000FB89808180688083EA89FB8980818F7D73
:1059C0008083DF91CF91FF90EF90DF90CF90BF90D9
:1059D00008951F920F920FB60F9211242F938F9359
:1059E0009F93EF93FF93E091DE07F091DF078081B3
:1059F000E091E407F091E50782FD12C0908180916B
:105A0000E7078F5F8F732091E807821751F0E091CD
:105A1000E707F0E0E253F84F958F8093E70701C066
:105A20008081FF91EF919F918F912F910F900FBEE9
:105A30000F901F9018951F920F920FB60F9211247E
:105A40002F933F934F935F936F937F938F939F9386
:105A5000AF93BF93EF93FF938EEC97E00E94DF2B01
:105A6000FF91EF91BF91AF919F918F917F916F9136
:105A70005F914F913F912F910F900FBE0F901F900C
:105A800018958EEC97E00E94A42B21E0892B09F455
:105A900020E0822F08951092D1071092D00788EE4F
:105AA00093E0A0E0B0E08093D2079093D307A09357
:105AB000D407B093D50784EC92E09093CF078093FE
:105AC000CE0785EC90E09093DB078093DA0784ECB7
:105AD00090E09093DD078093DC0780EC90E090935A
