:100000000C9442030C9486240C94AD240C946A0343
:100010000C946A030C946A030C946A030C946A03AC
:100020000C946A030C946A030C946A030C946A039C
:100030000C946A030C946A030C946A030C946A038C
:100040000C94D4240C946A030C949F270C94D1270D
:100050000C946A030C946A030C946A030C946A036C
:100060000C946A030C946A032A1AFD19001A031AE5
:10007000061A091A0C1A0F1A121A151A181A1B1A2C
:100080001E1A211A241A271A202020202044454C09
:1000900045544544205355434345535346554C4CD2
:1000A0005921200020202020205341564544205330
:1000B00055434345535346554C4C5921200020206D
:1000C00020202054454D504F524152494C59205503
:1000D0005345204F4C454421200020202020202043
:1000E00020202020204641564F524954455300209D
:1000F00020202020202020204D414E55414C204DD5
:100100004F44450020202020202020202020415541
:10011000544F204D4F4445002020202020202020F7
:1001200020205345545550204D454E55004F5244C4
:100130004552202020202020202020424545505399
:100140002020202020202020205349474E202020FE
:100150002020202020202043414C49425241544538
:10016000205253534953415645202620455849545F
:100170000020202020202020202020204D41494EFA
:10018000204D454E55004155544F204D4F4445207C
:100190002020202042414E44205343414E4E4552A0
:1001A00020204D414E55414C204D4F4445202020AC
:1001B0004449564552534954592020202020464155
:1001C000564F524954455320202020205345545522
:1001D000502020202020202020204F53443A4F4EF2
:1001E000004745545F53454E5341444A3300474509
:1001F000545F53454E5341444A32004745545F5380
:10020000454E5341444A31004745545F53454E5390
:1002100041444A30004745545F434F4E54524F4C7F
:10022000004745545F53494C454E54004745545F81
:100230004543484F004745545F44454255470047B2
:1002400045545F454E41424C45004745545F4C4F35
:10025000474F004745545F52454652455348004773
:1002600045545F56444554454354004745545F54F4
:10027000494D454F5554004745545F4241554452FE
:10028000415445004745545F56455253494F4E002F
:100290005345545F53454E5341444A3300534554EC
:1002A0005F53454E5341444A32005345545F5345D2
:1002B0004E5341444A31005345545F53454E5341D8
:1002C000444A30005345545F434F4E54524F4C0004
:1002D0005345545F53494C454E54005345545F4574
:1002E00043484F005345545F4445425547005345EA
:1002F000545F454E41424C45005345545F4C4F4777
:100300004F005345545F52454652455348005345AC
:10031000545F56444554454354005345545F544933
:100320004D454F5554005345545F42415544524149
:100330005445005345545F56455253494F4E00446F
:100340005241575253534900445241574D454E551F
:10035000004745545F484549474854004745545F66
:100360005749445448004745545F464F4E54005344
:1003700045545F464F4E5400505F42414E4E4552E9
:1003800000505F57494E444F5700505F524157004D
:1003900043574C0043424C00494E534D5558320090
:1003A000494E534D55583100564F5300484F530056
:1003B000534156450044454641554C5453004C4F1B
:1003C00041440044554D5000434C45415200434C7C
:1003D00045415250415254005245534554004C49F6
:1003E00053540041424F555400E303DE03D803CE7B
:1003F00003C803C303BE03B503B003AC03A803A043
:10040000039803940390038A03810378036F0366C0
:10041000035C03510348033F03330326031A030E0F
:10042000030203F902EE02E402DB02D002C402B7C7
:1004300002AA029D029002840277026B025F0253BD
:10044000024A023F0235022C02210215020802FB79
:1004500001EE01E10153454E5341444A33005345F7
:100460004E5341444A320053454E5341444A3100B1
:1004700053454E5341444A3000434F4E54524F4C23
:100480000053494C454E54004543484F00444542B3
:10049000554700454E41424C45004C4F474F005296
:1004A000454652455348005644455445435400542C
:1004B000494D454F55540042415544524154450021
:1004C00056455253494F4E004D41585245475300EF
:1004D0001E001000040004000400040004000100D9
:1004E0000100010001000100020002000200020000
:1004F000C804C004B704AF04A7049F049A0493047B
:100500008D04880481047904700467045E04550432
:10051000506F6C797068656D75733E003C4641495B
:100520004C3E00506F6C797068656D75733E003C91
:10053000494E5445524E414C204552524F523E0076
:10054000506F6C797068656D75733E003C4F4B3E23
:1005500000506F6C797068656D75733E003C464164
:10056000494C3E00506F6C797068656D75733E0044
:100570003C4641494C3E00506F6C797068656D7522
:10058000733E00506F6C797068656D75733E003C0A
:100590004F4B3E003C4641494C3E00506F6C7970D9
:1005A00068656D75733E003C494E56414C49442088
:1005B0004152473E00506F6C797068656D75733EAF
:1005C000003C4F4B3E003C4641494C3E00506F6C56
:1005D000797068656D75733E003C494E5445524EC6
:1005E000414C204552524F523E00506F6C7970681A
:1005F000656D75733E003C53594E54415820455229
:10060000524F523E00506F6C797068656D75733E45
:10061000003C4F564552464C4F573E00506F6C7948
:100620007068656D75733E003C54494D454F555497
:100630003E00000000080002010000030407000063
:1006400000000000000001020408102040800102A8
:100650000408102001020408102004040404040407
:100660000404020202020202030303030303000064
:100670000000250028002B000000000024002700B7
:100680002A00012811241FBECFEFD8E0DEBFCDBF66
:1006900015E0A0E0B1E0ECEBFAE502C005900D92A8
:1006A000A03BB107D9F727E0A0EBB5E001C01D9250
:1006B000A537B207E1F716E0C4E8D6E004C02297F8
:1006C000FE010E94B629C238D107C9F70E946E29DF
:1006D0000C945C2D0C9400008F929F92AF92BF926D
:1006E000CF92DF92EF92FF928091C00581110DC0F1
:1006F0000E941E256093B4057093B5058093B605DE
:100700009093B70581E08093C0058091B805811171
:100710000DC00E941E256093B0057093B1058093B3
:10072000B2059093B30581E08093B8050E941E2521
:100730006B017C018091B4059091B505A091B6053F
:10074000B091B70546015701881A990AAA0ABB0A4F
:100750000E946D17681579058A059B0550F40E9463
:100760000E1DC092B405D092B505E092B605F09288
:10077000B7058091B0059091B105A091B205B091F7
:10078000B305A7019601281B390B4A0B5B0B2536D5
:1007900031054105510560F00E9488170E94401BF9
:1007A000C092B005D092B105E092B205F092B305C7
:1007B000FF90EF90DF90CF90BF90AF909F908F9081
:1007C0000C94CA1DCF92DF92EF92FF920F931F936A
:1007D000CF93DF93CDB7DEB768970FB6F894DEBF3F
:1007E0000FBECDBF68EB7BE080E090E00E944D251E
:1007F0000E942F240E94AB1781E00E94D81B81E049
:100800000E94241826E040E051EE60E070E084EDA4
:1008100096E00E943D270E940E1D0E947F176B01EB
:100820007C011616170618061906F4F58CE0ECE89C
:10083000F4E0DE011D9601900D928A95E1F78CE0BF
:10084000E8E9F4E08E010F5F1F4FD80101900D928F
:100850008A95E1F78CE395E09F938F931F9284E153
:100860008F931F921F92CE010D969F938F930E949C
:10087000390980E595E09F938F931F9284E08F93D1
:100880001F9287E08F931F930F930E943909C7012E
:10089000B6010E944D251F921F920E94A6080FB616
:1008A000F894DEBF0FBECDBF0E949117811112C018
:1008B0000E94941780FF05C061E084ED96E00E94DD
:1008C000D8260E94941780FF05C064E084ED96E06E
:1008D0000E94D82668960FB6F894DEBF0FBECDBF33
:1008E000DF91CF911F910F91FF90EF90DF90CF900C
:1008F00008952F923F924F925F926F927F928F92C4
:100900009F92AF92BF92CF92DF92EF92FF920F939E
:100910001F93CF93DF93FC01EB012A01390157FFAD
:1009200006C0519441945108CC24C39401C0C12CF9
:1009300077FE05C071946194710841E001C040E008
:10094000CC2081F011E01E161F060CF010E0809103
:100950000D0490910E049F01240D351D28173907B1
:100960001CF001C010E0C12C442389F0DD24D39495
:100970001C161D060CF0D12C80910B0490910C04D8
:100980009E01260D371D281739071CF001C0D12CF8
:1009900040E0112309F46CC0DD2009F46FC0209100
:1009A0000D0430910E045C2F51505203C001539F2F
:1009B000900D11242FEF2E0F820F911D27FD9A9578
:1009C000DC01A251BE4F23E02C939C0197FF02C093
:1009D000295F3F4F73E0359527957A95E1F72253CC
:1009E0003C4F68E070E00E947E2961E070E001C049
:1009F000660F8A95EAF7D9018C91862B8C9381E05A
:100A000080930F04CC20D1F120910D0430910E047D
:100A10005C2F51505203C001539F900D1124242D7F
:100A20002E0F820F911D27FD9A95DC01A251BE4F1A
:100A300024E02C939C0197FF02C0295F3F4F63E0A5
:100A4000359527956A95E1F722533C4F68E070E0B1
:100A50000E947E2961E070E001C0660F8A95EAF786
:100A6000D9018C91862B8C9381E080930F0406C072
:100A7000CC2009F4EAC0D110C7CF6FC0112309F40C
:100A80006CC0442309F46FC020910D0430910E0412
:100A90005C2F560D5203C001539F900D11242FEF70
:100AA0002E0F820F911D27FD9A95DC01A251BE4F9A
:100AB00025E02C939C0197FF02C0295F3F4F53E034
:100AC000359527955A95E1F722533C4F68E070E041
:100AD0000E947E2961E070E001C0660F8A95EAF706
:100AE000D9018C91862B8C9381E080930F04CC20CC
:100AF000D1F120910D0430910E045C2F560D52035C
:100B0000C001539F900D1124242D2E0F820F911D93
:100B100027FD9A95DC01A251BE4F26E02C939C0143
:100B200097FF02C0295F3F4F03E0359527950A954F
:100B3000E1F722533C4F68E070E00E947E2961E0BB
:100B400070E001C0660F8A95EAF7D9018C91862B77
:100B50008C9381E080930F0406C0CC2009F475C00B
:100B60004111C7CF02C0111103C0C1104DC06DC0EB
:100B7000E0900D04F0900E0480910F0400E010E06E
:100B80001E01260C371C88248A948E0E992487FC1B
:100B90009094AA24A394B12C2C2F200F332727FD47
:100BA00030950F5F1F4F221533055CF52E9DC00158
:100BB0002F9D900D3E9D900D1124880D991DDC01F7
:100BC000A251BE4F22E02C939C0197FF02C0295FE7
:100BD0003F4FA3E035952795AA95E1F722533C4F67
:100BE00068E070E00E947E29B50102C0660F771FA1
:100BF0008A95E2F7CB01D9019C91982B9C9381E0D7
:100C0000CBCF80930F04B1CF20900D0430900E0411
:100C100080910F0400E010E07E01E60CF71C842CAC
:100C20008E0E992487FC909462E0C62EAA24A39489
:100C3000B12C2C2F200F332727FD30950F5F1F4F2E
:100C40002E153F052CF080930F04D1102BC050C0FF
:100C5000229DC001239D900D329D900D1124880D81
:100C6000991DDC01A251BE4FCC929C0197FF02C09E
:100C7000295F3F4F53E0359527955A95E1F7225369
:100C80003C4F68E070E00E947E29B50102C0660F0B
:100C9000771F8A95E2F7CB01D9019C91982B9C9301
:100CA00081E0C7CF20910D0430910E045C2F51508C
:100CB00052036001539FD00C112420910F0400E0D7
:100CC00010E07F01E40CF51C33243394B8E0AB2E24
:100CD000B12C88248394912C802F8E0F992787FD27
:100CE00090950F5F1F4F8E159F05F4F020930F0412
:100CF000442309F465C04C2F460D20910D0430911A
:100D00000E0442038001439F100D112450910F04E3
:100D100020E030E04E0E5F1E41E068E0E62EF12C50
:100D2000CC24C394D12C40C08C0D9D1DDC01A2515C
:100D3000BE4F3C929C0197FF02C0295F3F4FA3E04A
:100D400035952795AA95E1F722533C4FB5010E94AE
:100D50007E29B40102C0660F771F8A95E2F7CB01A6
:100D6000D9019C91982B9C9321E0B6CF800F911FC5
:100D7000DC01A251BE4F4C93EC0197FD279653E046
:100D8000D595C7955A95E1F7C253DC4FB7010E943C
:100D90007E29B60102C0660F771F8A95E2F7CB0164
:100DA0009881982B988351E0822F8E0F992787FD89
:100DB00090952F5F3F4F84159505C4F250930F0413
:100DC000DF91CF911F910F91FF90EF90DF90CF9027
:100DD000BF90AF909F908F907F906F905F904F905B
:100DE0003F902F900895CF93DF93CDB7DEB7ED817D
:100DF000FE81808191810E94EF16DF91CF9108954D
:100E0000CF93DF93CDB7DEB7ED81FE816081718135
:100E1000828193810E94FA16DF91CF910895CF933A
:100E2000DF93CDB7DEB7ED81FE8160817181828174
:100E300093810E940417DF91CF910895CF93DF93A0
:100E4000CDB7DEB7ED81FE816081718182819381B2
:100E50000E940E17DF91CF910895CF93DF93CDB706
:100E6000DEB7ED81FE8160817181828193810E9474
:100E70001817DF91CF910895CF93DF93CDB7DEB7E9
:100E8000ED81FE8160817181828193810E942217B0
:100E9000DF91CF910895CF93DF93CDB7DEB781E097
:100EA000ED81FE814081518162817381452B462B0A
:100EB000472B09F480E00E942C17DF91CF91089511
:100EC000CF93DF93CDB7DEB781E0ED81FE81408126
:100ED000518162817381452B462B472B09F480E0B9
:100EE0000E943017DF91CF910895CF93DF93CDB754
:100EF000DEB781E0ED81FE814081518162817381A5
:100F0000452B462B472B09F480E00E943417DF91D4
:100F1000CF910895CF93DF93CDB7DEB781E0ED8118
:100F2000FE814081518162817381452B462B472B85
:100F300009F480E00E943817DF91CF910895CF9394
:100F4000DF93CDB7DEB7ED81FE8180810E943C1733
:100F5000DF91CF910895CF93DF93CDB7DEB7ED81C9
:100F6000FE81808191810E944017DF91CF91089589
:100F7000CF93DF93CDB7DEB7ED81FE818081918184
:100F80000E944617DF91CF910895CF93DF93CDB79D
:100F9000DEB7ED81FE81808191810E944C17DF9147
:100FA000CF910895CF93DF93CDB7DEB7ED81FE816A
:100FB000808191810E945217DF91CF9108952F92E5
:100FC0003F924F925F926F927F928F929F92AF92D9
:100FD000BF92CF92DF92EF92FF920F931F93CF9326
:100FE000DF9300D000D0CDB7DEB7E98DFA8DC08099
:100FF000D180A480B58000851185E484F5840E94A9
:101000009117811102C00E948B179601D7FE02C072
:1010100020E030E06501B7FE02C0C12CD12CE09188
:101020000D04F0910E0417FD8F0180910B04909137
:101030000C04F7FC7C012E173F071CF09F01215088
:101040003109C816D90624F06C0141E0C41AD10850
:101050001F01221A330A021513050CF418018C190A
:101060009D09E816F9060CF4C70140910F04CE9EC5
:101070004001CF9E900CDE9E900C1124E12CF12CAF
:10108000B601680F791F7A836983C40182519E4F2C
:101090009C838B83220E331E69817A81C616D70604
:1010A000DCF52701480C591C6B807C806E0C7F1C82
:1010B00089010215130554F5C801840D951DD3014E
:1010C000A00FB11F1C925C0197FF03C0A7E0AA0EFE
:1010D000B11CA3E0B594A794AA95E1F7A5014253EA
:1010E0005C4F5A0168E070E00E947E2961E070E088
:1010F00002C0660F771F8A95E2F7CB01D5019C915C
:10110000982B9C930F5F1F4F41E0D3CFBFEFCB1ABB
:10111000DB0AEE0EFF1EC0CF40930F0481E00F905C
:101120000F900F900F90DF91CF911F910F91FF9033
:10113000EF90DF90CF90BF90AF909F908F907F9077
:101140006F905F904F903F902F900895CF93DF93D3
:10115000CDB7DEB70E949117811102C00E948B1794
:1011600040910D0450910E0420910B0430910C0419
:10117000429FC001439F900D529F900D112441E06A
:1011800050E00197FC01E251FE4F1082FC01B3E0F8
:10119000F695E795BA95E1F7E253FC4F9C0127706D
:1011A0003327BA0102C0660F771F2A95E2F79B0129
:1011B0003081322B3083009721F781E080930F0438
:1011C000DF91CF910895CF93DF93CDB7DEB70E9423
:1011D0009117811102C00E948B1780E00E94751B3D
:1011E000DF91CF910895CF93DF93CDB7DEB70E9403
:1011F0009117811102C00E948B170E949F18DF91E6
:10120000CF910895CF93DF93CDB7DEB70E949117AA
:10121000811102C00E948B1780E00E942418DF9188
:10122000CF910895CF93DF93CDB7DEB70E9491178A
:10123000811102C00E948B170E94AB1781E0DF91E1
:10124000CF910895CF93DF93CDB7DEB70E9491176A
:10125000811102C00E948B1780E00E944D18DF911F
:10126000CF910895DC01ED91FC910190F081E02D8A
:1012700009942F923F924F925F926F927F928F923A
:101280009F92AF92BF92CF92DF92EF92FF920F9315
:101290001F93CF93DF93CDB7DEB7FE017596A19173
:1012A000B1918D909C9011971496ED90FC901597AC
:1012B0006F88788CC280D380048115810E94911739
:1012C00081111CC00E948B178823C1F05801C501F1
:1012D000801B910B8C159D058CF4D5014D905D0103
:1012E000552447FC5094C2010E940B2A892B79F3A4
:1012F000B20184ED96E00E943209E9CFF7FC5DC0AF
:1013000097FC5BC080910B0490910C04E816F906E1
:101310000CF053C0A0900D04B0900E048A149B04EE
:101320000CF04BC0860C971CEA9CF001EB9CF00D76
:10133000FA9CF00D1124780120E030E0E80DF91D51
:10134000BF0162517E4F1B0168E0662E712C442460
:101350004394512C41E02C153D058CF5C901880DB5
:10136000991D8A159B055CF5CF01820F931FD7014C
:101370005D917D01D101A20FB31F5C938C0197FF9A
:1013800002C0095F1F4F53E0159507955A95E1F785
:1013900002531C4FB3010E947E29B20102C0660FA6
:1013A000771F8A95E2F7CB01D8019C91982B9C93EB
:1013B00040930F042F5F3F4FCECF80E001C081E00C
:1013C000DF91CF911F910F91FF90EF90DF90CF9021
:1013D000BF90AF909F908F907F906F905F904F9055
:1013E0003F902F9008958F929F92AF92BF92CF928D
:1013F000DF92EF92FF920F931F93CF93DF93CDB7BE
:10140000DEB7A0970FB6F894DEBF0FBECDBF0FA515
:1014100018A91F921F920E94A608F80190812181AD
:1014200032814381B480A580968087808CE0E4EA95
:10143000F4E0DE011D9601900D928A95E1F78CE0B3
:10144000E0EBF4E0BE016F5F7F4F6B01DB010190C9
:101450000D928A95E1F74F933F932F939F9305E564
:1014600015E01F930F937E017DE1E70EF11CFF92C3
:10147000EF920E94752A8F929F92AF92BF921F9314
:101480000F938E01075E1F4F1F930F930E94752AC3
:1014900081E688A382E68C8FFF92EF921F92E4E0B0
:1014A000FE2EFF921F921F92CE010D969F938F9357
:1014B0000E9439091F930F931F92FF921F921F9250
:1014C000DF92CF920E9439090FB6F894DEBF0FBEAB
:1014D000CDBF81E0A0960FB6F894DEBF0FBECDBFA2
:1014E000DF91CF911F910F91FF90EF90DF90CF9000
:1014F000BF90AF909F908F9008952F923F924F9200
:101500005F926F927F928F929F92AF92BF92CF9293
:10151000DF92EF92FF920F931F93CF93DF93CDB79C
:10152000DEB72C970FB6F894DEBF0FBECDBFDE013D
:101530009196ED91FD9120812983022F11813481B3
:101540003887A32EB580C084D184E284F384448498
:101550005584668477842BA13CA13C872B87129607
:101560004D915C9113975A87498714966D917C91A0
:1015700015977D836C830E949117811135C00E945D
:101580008B17882389F12C803D80C101EC81FD817E
:101590008E1B9F0B29853A8582179307FCF4D10196
:1015A0008D901D01992487FC9094C4010E940B2A00
:1015B000892B31F0B40184ED96E00E943209E5CF29
:1015C00069E575E084ED96E00E94A52840E150E0D1
:1015D000B40184ED96E00E944B29D7CF6DE575E00C
:1015E00084ED96E00E94A528B7FC9CC117FD9AC126
:1015F000C601009709F496C14114510409F492C13F
:10160000420157FE04C08824992484189508A50136
:10161000480D591D5F834E8320910B0430910C04BB
:10162000241735070CF47EC1DB82CA8297FF06C0FF
:10163000662777276C197D097B836A832A803B8024
:10164000200E311E80910D0490910E048215930599
:101650000CF468C12B853C85232B31F49201A60143
:10166000B501C8010E947904D980DA943A81D30E79
:1016700020910D0430910E0440E050E0ED2DFF2745
:10168000E7FDF095C884C40E6C2D772767FD709533
:101690008E819F8168177907FCF4629FC001639F68
:1016A000900D729F900D11244F5F5F4F82519E4F9E
:1016B000DC01AE0FBF1F6C916111E4CF40E050E040
:1016C000D980D40E4F5F5F4FFC01ED0DF11DD7FCAB
:1016D000FA9560816111F4CF4C805D80AE81BF814D
:1016E0001197BB83AA83E8E0F0E066246394712C31
:1016F00048854150480D35C0629FC001639F900DE1
:10170000729F900D11248D0D911DD7FC9A95DC01CF
:10171000A251BE4F5C938C0197FF02C0095F1F4F1F
:10172000A3E015950795AA95E1F702531C4FBF0159
:101730000E947E29B30102C0660F771F8A95E2F7E7
:10174000CB01D8019C91982B9C93B1E0B0930F04EE
:10175000D3948D2D992787FD90958215930509F4D3
:10176000DCC0C2016C817D81861B970BA985BA857F
:101770008A179B070CF0D4C08C2D992787FD909574
:101780006E817F818617970709F087C050910F04FB
:10179000E12CF12C88858E0D992787FD9095829FED
:1017A0005001839FB00C929FB00C1124AA81BB8181
:1017B0008A179B07ECF54501820E931EC12CD12C94
:1017C00069816C0D772767FD7095BFEFCB1ADB0A37
:1017D000621573054CF5C501860F971FDB01A251F9
:1017E000BE4FA80DB91D5C91DC01A251BE4F5C93A8
:1017F0008C0197FF02C0095F1F4F63E015950795A5
:101800006A95E1F702531C4FBF010E947E29D30164
:1018100002C0AA0FBB1F8A95E2F7CD01D8019C91A7
:10182000982B9C9351E0CCCF6FEFE61AF60AB2CF1B
:1018300050930F04D980E12CF12C89818E0D9927CA
:1018400087FD9095BFEFEB1AFB0A8215930514F5FF
:101850008A0D9B1DDC01A251BE4F1C928C0197FF8B
:1018600002C0095F1F4F53E0159507955A95E1F7A0
:1018700002531C4FBF010E947E29B30102C0660FB4
:10188000771F8A95E2F7CB01D8019C91982B9C9306
:1018900051E0D3CF50930F04C42ED2015D912D019E
:1018A0006C2D772767FD70955D3009F025CF629F1D
:1018B0007001639FF00C729FF00C112450910F0483
:1018C0008D2D992787FD90958215930524F58E0D12
:1018D0009F1DDC01A251BE4F50E25C938C0197FF2B
:1018E00002C0095F1F4FB3E015950795BA95E1F760
:1018F00002531C4FBF010E947E29B30102C0660F34
:10190000771F8A95E2F7CB01D8019C91982B9C9385
:10191000D39451E0D5CF50930F04C394D98021CFF5
:1019200081E001C080E02C960FB6F894DEBF0FBEB8
:10193000CDBFDF91CF911F910F91FF90EF90DF907E
:10194000CF90BF90AF909F908F907F906F905F905F
:101950004F903F902F9008952F923F924F925F9219
:101960006F927F928F929F92AF92BF92CF92DF92AF
:10197000EF92FF920F931F93CF93DF93CDB7DEB714
:1019800060970FB6F894DEBF0FBECDBFFE01B596CF
:10199000A191B1913C90032D11961C911197149631
:1019A0002C901497A22C1596BC9015971896CD9054
:1019B000DD90ED90FC901B971C962D913D914D91E3
:1019C0005C911F976FA178A57A8369838281938147
:1019D00098878F83648175817C836B832D873E8795
:1019E0004F87588B0E9491172D853E85811131C0FC
:1019F0000E948B172D853E854F855889882349F194
:101A00006B807C80C3016B817C81861B970BEF818F
:101A1000F8858E179F07ECF4F30181903F0199241C
:101A200087FC9094C4012D873E874F87588B0E9476
:101A30000B2A2D853E854F855889892B19F3B401D2
:101A400084ED96E00E94320958894F853E852D85A8
:101A5000D9CFB7FC62C117FD60C1B601C114D10472
:101A600009F45BC12115310509F457C1490137FF5C
:101A700004C088249924821A930A2501480C591C11
:101A800080910B0490910C04841595050CF445C1CC
:101A9000360177FF04C0662477246C187D08B801EE
:101AA000660D771D7E836D8380910D0490910E04E9
:101AB000861797070CF431C189819A81892B29F403
:101AC000A601B501C8010E947904FF24FA94F20C22
:101AD000F80C80900D0490900E0440E0630C5FEFD2
:101AE000560D8F2D992787FD90958A159B0574F1CA
:101AF000452F889D9001899D300D989D300D1124B2
:101B0000842F992787FD9095801791070CF407C1C2
:101B1000FC01E251FE4FE20FF31F6081611102C030
:101B20004150EECF2D813E8121503109821793071C
:101B300061F4F3948F2D992787FD90958415950571
:101B400011F4462D03C0432D01C04F5F8F2D9927FF
:101B500087FD90958A159B0514F4F22C432DEB819B
:101B6000FC81FA83E9836D817E81615071097A87F6
:101B7000698728E030E0F2013197FC87EB87B801F4
:101B800062517E4F3B01680C791C89819A816B817F
:101B90007C81861B970BEF81F8858E179F070CF0D1
:101BA000BAC08F2D992787FD90958415950509F06A
:101BB00075C050910F04A12CB12CFA2CF20C0F2DF2
:101BC000112707FD1095041515050CF064C0089D3C
:101BD0007001099DF00C189DF00C1124C12CD12C22
:101BE0004C2D430D842F992787FD90956FEFC61AD2
:101BF000D60AE985FA858E179F070CF58E0D9F1D75
:101C0000FC01E251FE4F41814083FC0197FD379674
:101C100043E0F595E7954A95E1F7E253FC4FB901AA
:101C20000E947E2941E050E002C0440F551F8A9572
:101C3000E2F7CA019081982B908351E0D1CFEB85D8
:101C4000FC850E171F071CF58E0D9F1DF301EE0D71
:101C5000FF1D5081FC01E251FE4F5083FC0197FDB6
:101C60003796B3E0F595E795BA95E1F7E253FC4F67
:101C7000B9010E947E2961E070E002C0660F771F03
:101C80008A95E2F7CB019081982B908351E07FEF0A
:101C9000A71AB70A92CF50930F04FA945F2DB4019C
:101CA0005603C001579F900D1124840F911D47FDCD
:101CB0009A95E981FA815191FA83E983FC01E25115
:101CC000FE4F5083FC0197FD3796A3E0F595E7950D
:101CD000AA95E1F7E253FC4FB9010E947E2961E029
:101CE00070E002C0660F771F8A95E2F7CB01908102
:101CF000982B908371E070930F044F5F842F992786
:101D000087FD9095ED81FE818E179F0709F03DCFED
:101D1000F394432D3ACF81E004C080E002C0FA94EE
:101D2000E0CE60960FB6F894DEBF0FBECDBFDF9158
:101D3000CF911F910F91FF90EF90DF90CF90BF90C8
:101D4000AF909F908F907F906F905F904F903F905B
:101D50002F9008952F923F924F925F926F927F92B1
:101D60008F929F92AF92BF92CF92DF92EF92FF92AB
:101D70000F931F93CF93DF93CDB7DEB7CC5BD10921
:101D80000FB6F894DEBF0FBECDBFCF52DF4FC88075
:101D9000D980C15DD0401F921F920E94A6087E018B
:101DA00083EBE80EF11C80E8F70180831182F601D5
:101DB000008111812480358046805780F085CB5486
:101DC000DF4FF883C55BD040F601F185CA54DF4F81
:101DD000F883C65BD040F601F285C954DF4FF88323
:101DE000C75BD040F601F385C854DF4FF883C85B6A
:101DF000D0400F900F900115110509F063C09E01AE
:101E00002F573F4F80E1ECEBF4E0D90101900D92A8
:101E10008A95E1F76E0181E9C80ED11C8CE0ECECEB
:101E2000F4E0D60101900D928A95E1F74E0191E719
:101E3000890E911C80E1E8EDF4E0D40101900D924F
:101E40008A95E1F766E871E0FE0131965F01CF0106
:101E5000C554DF4F2883CB5BD040C454DF4F388359
:101E6000CC5BD0400E942D2A3E01FCE56F0E711C18
:101E700061E771E0C3010E942D2AD201C1010396DE
:101E8000A11DB11DF60184839583A683B783FF92BC
:101E9000EF921F9281E08F931F921F92DF92CF9259
:101EA0000E9439097F926F921F9285E18F931F9252
:101EB0001F929F928F920E94AC0CBF92AF921F9282
:101EC0008BE565C00130110509F078C09E012F57E0
:101ED0003F4F80E1E8EEF4E0D90101900D928A9540
:101EE000E1F76E0191E9C90ED11C8CE0ECECF4E055
:101EF000D60101900D928A95E1F74E01E1E78E0E31
:101F0000911C80E1E8EDF4E0D40101900D928A95F6
:101F1000E1F76DE271E0CE0101963C01C554DF4F5F
:101F20002883CB5BD040C454DF4F3883CC5BD04098
:101F30000E942D2A5E019CE5A90EB11C68E171E0AA
:101F4000C5010E942D2AD201C1010396A11DB11D18
:101F5000F60184839583A683B783FF92EF921F9245
:101F600081E08F931F921F92DF92CF920E943909D6
:101F7000BF92AF921F9285E18F931F921F929F9203
:101F80008F920E94AC0C7F926F921F9284E48F9389
:101F90001F921F92C554DF4F2881CB5BD040C454A1
:101FA000DF4F3881CC5BD0403F932F930E947D0A56
:101FB0000FB6F894DEBF0FBECDBFACC10230110525
:101FC00009F064C04E0191E7890E911C80E1E8EFB1
:101FD000F4E0D40101900D928A95E1F77E01ECE5E1
:101FE000EE0EF11C80E1E8EDF4E0D70101900D92D6
:101FF0008A95E1F75E01F1E8AF0EB11C8CE0E8E0F4
:10200000F5E0D50101900D928A95E1F764E071E069
:10201000CE0101966C010E942D2A5F924F923F9251
:102020002F9285E595E09F938F933E0191E9690E8C
:10203000711C7F926F920E94752A8FE595E09F93A5
:102040008F931F9289E08F931F921F92BF92AF923E
:102050000E943909DF92CF921F9284E18F931F92E1
:102060001F92FF92EF920E94AC0C7F926F921F9290
:1020700085E08F931F921F929F928F920E947D0AFC
:102080000FB6F894DEBF0FBECDBF56C103301105A9
:1020900009F05FC08E010F581F4F80E1E8EFF4E0B8
:1020A000D80101900D928A95E1F77E01FCE5EF0ED3
:1020B000F11C80E1E8EDF4E0D70101900D928A95E2
:1020C000E1F75E0181E8A80EB11C8CE0E8E0F5E0E4
:1020D000D50101900D928A95E1F76FEE70E0FE0157
:1020E00031966F01CF010E942D2A5F924F923F924D
:1020F0002F9285E595E09F938F934E01F1E98F0E26
:10210000911C9F928F920E94752A8FE595E09F9374
:102110008F931F9289E08F931F921F92BF92AF926D
:102120000E943909DF92CF921F9285E18F931F920F
:102130001F92FF92EF920E94AC0C9F928F921F927F
:1021400085E08F931F921F921F930F930E947D0A29
:102150002EC10430110509F0DDC08E010F581F4F4C
:1021600080E1E8EFF4E0D80101900D928A95E1F763
:102170007E019CE5E90EF11C80E1E8EDF4E0D70179
:1021800001900D928A95E1F75E01EDE9AE0EB11C6A
:102190008CE0ECECF4E0D50101900D928A95E1F72A
:1021A0009E012F563F4F8CE0E4E1F5E0D90101900C
:1021B0000D928A95E1F7AE014F575F4F8CE0E0E258
:1021C000F5E0DA0101900D928A95E1F76AED70E091
:1021D000CE0101966C01C554DF4F2883CB5BD04004
:1021E000C454DF4F3883CC5BD040C754DF4F4883A3
:1021F000C95BD040C654DF4F5883CA5BD0400E94B1
:102200002D2A5F924F923F922F9255E5652E55E011
:10221000752E7F926F924E019EEA890E911C9F92BD
:102220008F920E94752AC854DF4FE881C85BD04066
:10223000EF93C954DF4FF881C75BD040FF93CA5476
:10224000DF4F8881C65BD0408F93CB54DF4F98819E
:10225000C55BD0409F937F926F923E01E9EA6E0E7C
:10226000711C7F926F920E94752A89E695E09F9378
:102270008F931F9286E18F931F921F92BF92AF920E
:102280000E943909DF92CF921F9285E18F931F92AE
:102290001F92FF92EF920E94AC0C0FB6F894DEBF33
:1022A0000FBECDBF9F928F921F9285E08F931F929A
:1022B0001F921F930F930E947D0A80E895E09F93E1
:1022C0008F931F928BE08F931F921F92C554DF4F05
:1022D0002881CB5BD040C454DF4F3881CC5BD040E9
:1022E0003F932F930E9439097F926F921F9282E051
:1022F0008F931F921F92C754DF4F4881C95BD04014
:10230000C654DF4F5881CA5BD0405F934F930E9401
:1023100039094DC00F3FFFEF1F0771F48E01045ABA
:102320001F4F80E1ECE2F5E0D80101900D928A9513
:10233000E1F76EEB70E02BC00E3FFFEF1F07B9F423
:102340008E01045A1F4F80E1ECE2F5E0D8010190C4
:102350000D928A95E1F764EA70E0CE0101967C0166
:102360000E942D2AFF92EF921F928AE119C00D3F21
:102370001F4F11F58E01045A1F4F80E1ECE2F5E08A
:10238000D80101900D928A95E1F768E870E0CE01DE
:1023900001967C010E942D2AFF92EF921F928CE100
:1023A0008F931F921F921F930F930E94AC0C0FB636
:1023B000F894DEBF0FBECDBF81E0C454DF4F0FB62F
:1023C000F894DEBF0FBECDBFDF91CF911F910F916B
:1023D000FF90EF90DF90CF90BF90AF909F908F9045
:1023E0007F906F905F904F903F902F9008954F9205
:1023F0005F926F927F928F929F92AF92BF92CF9295
:10240000DF92EF92FF920F931F93CF93DF931F9270
:10241000CDB7DEB7DE015496ED91FD91408051803D
:1024200062807380AE88BF881296CD90DC9013973F
:1024300014960D911C9115970E94911781111CC043
:102440000E948B178823C1F07801C701801B910B74
:102450008C159D058CF4F70181907F01992487FCF0
:102460009094C4010E940B2A892B79F3B40184ED66
:1024700096E00E943209E9CFFFEF4F165104610444
:10248000710419F010F080E066C0AB2859F4E0E068
:10249000F6E0119226E0E633F207D9F71092FF0535
:1024A0001092FE05E090FE05F090FF054801AA2479
:1024B000A394B12CC401801B910B8C159D050CF0CD
:1024C00045C0F40121914F01822F992787FD9095F6
:1024D00029830E94112A2981892B61F780ED820FBF
:1024E000823050F4C70163E0969587956A95E1F7CD
:1024F00099278633910528F0F092FF05E092FE05BA
:10250000C2CF213381F4FC01E050FA4F8E2D80952B
:102510008770950102C0220F331F8A95E2F7C90127
:102520009081982B90833FEFE31AF30A80EBE81633
:1025300081E0F80609F0BECFF092FF05E092FE05BB
:1025400060E076E0842D0E94BD1C05C0F092FF057E
:10255000E092FE0581E00F90DF91CF911F910F91E6
:10256000FF90EF90DF90CF90BF90AF909F908F90B3
:102570007F906F905F904F9008951F93CF93DF935C
:10258000CDB7DEB70E949117811104C00E94941745
:1025900080FD10C010E00E945817BC0184ED96E049
:1025A0000E94A528112369F063E084ED96E00E9463
:1025B000D82607C062E084ED96E00E94D82611E09C
:1025C000EACF81E0DF91CF911F9108951F93CF93C0
:1025D000DF93CDB7DEB70E949117811104C00E942E
:1025E000941780FD13C010E00E945B17AB01BC0183
:1025F0002AE030E084ED96E00E945329112369F02F
:1026000063E084ED96E00E94D82607C062E084ED86
:1026100096E00E94D82611E0E7CF81E0DF91CF91CC
:102620001F9108951F93CF93DF93CDB7DEB70E941C
:102630009117811104C00E94941780FD13C010E00F
:102640000E946417AB01BC012AE030E084ED96E003
:102650000E945329112369F063E084ED96E00E9403
:10266000D82607C062E084ED96E00E94D82611E0EB
:10267000E7CF81E0DF91CF911F9108951F93CF9312
:10268000DF93CDB7DEB70E949117811104C00E947D
:10269000941780FD13C010E00E946D17AB01BC01C0
:1026A0002AE030E084ED96E00E945329112369F07E
:1026B00063E084ED96E00E94D82607C062E084EDD6
:1026C00096E00E94D82611E0E7CF81E0DF91CF911C
:1026D0001F9108951F93CF93DF93CDB7DEB70E946C
:1026E0009117811104C00E94941780FD13C010E05F
:1026F0000E947617AB01BC012AE030E084ED96E041
:102700000E945329112369F063E084ED96E00E9452
:10271000D82607C062E084ED96E00E94D82611E03A
:10272000E7CF81E0DF91CF911F9108951F93CF9361
:10273000DF93CDB7DEB70E949117811104C00E94CC
:10274000941780FD13C010E00E947F17AB01BC01FD
:102750002AE030E084ED96E00E945329112369F0CD
:1027600063E084ED96E00E94D82607C062E084ED25
:1027700096E00E94D82611E0E7CF81E0DF91CF916B
:102780001F9108951F93CF93DF93CDB7DEB70E94BB
:102790009117811104C00E94941780FD13C010E0AE
:1027A0000E948817682F70E04AE050E084ED96E0C0
:1027B0000E944B29112369F063E084ED96E00E94AA
:1027C000D82607C062E084ED96E00E94D82611E08A
:1027D000E7CF81E0DF91CF911F9108951F93CF93B1
:1027E000DF93CDB7DEB70E949117811104C00E941C
:1027F000941780FD13C010E00E948B17682F70E0C3
:102800004AE050E084ED96E00E944B29112369F0E4
:1028100063E084ED96E00E94D82607C062E084ED74
:1028200096E00E94D82611E0E7CF81E0DF91CF91BA
:102830001F9108951F93CF93DF93CDB7DEB70E940A
:102840009117811104C00E94941780FD13C010E0FD
:102850000E948E17682F70E04AE050E084ED96E009
:102860000E944B29112369F063E084ED96E00E94F9
:10287000D82607C062E084ED96E00E94D82611E0D9
:10288000E7CF81E0DF91CF911F9108951F93CF9300
:10289000DF93CDB7DEB70E949117811104C00E946B
:1028A000941780FD13C010E00E949117682F70E00C
:1028B0004AE050E084ED96E00E944B29112369F034
:1028C00063E084ED96E00E94D82607C062E084EDC4
:1028D00096E00E94D82611E0E7CF81E0DF91CF910A
:1028E0001F9108951F93CF93DF93CDB7DEB70E945A
:1028F0009117811104C00E94941780FD12C010E04E
:102900000E9494174AE050E0682F84ED96E00E9400
:102910006029112369F063E084ED96E00E94D826D7
:1029200007C062E084ED96E00E94D82611E0E8CF6F
:1029300081E0DF91CF911F9108951F93CF93DF9393
:10294000CDB7DEB70E949117811104C00E94941781
:1029500080FD12C010E00E9497174AE050E0BC01D1
:1029600084ED96E00E946729112369F063E084ED0D
:1029700096E00E94D82607C062E084ED96E00E94AF
:10298000D82611E0E8CF81E0DF91CF911F91089523
:102990001F93CF93DF93CDB7DEB70E9491178111BC
:1029A00004C00E94941780FD12C010E00E949C1782
:1029B0004AE050E0BC0184ED96E00E9467291123B3
:1029C00069F063E084ED96E00E94D82607C062E0DB
:1029D00084ED96E00E94D82611E0E8CF81E0DF91F7
:1029E000CF911F9108951F93CF93DF93CDB7DEB79B
:1029F0000E949117811104C00E94941780FD12C09B
:102A000010E00E94A1174AE050E0BC0184ED96E07E
:102A10000E946729112369F063E084ED96E00E942B
:102A2000D82607C062E084ED96E00E94D82611E027
:102A3000E8CF81E0DF91CF911F9108951F93CF934D
:102A4000DF93CDB7DEB70E949117811104C00E94B9
:102A5000941780FD12C010E00E94A6174AE050E0D3
:102A6000BC0184ED96E00E946729112369F063E0C0
:102A700084ED96E00E94D82607C062E084ED96E0DF
:102A80000E94D82611E0E8CF81E0DF91CF911F911D
:102A90000895CF93DF93CDB7DEB70E9491178111D0
:102AA00002C00E948B170E94911781110EC00E94D4
:102AB000941780FF0AC062E084ED96E00E94D82659
:102AC00063E084ED96E00E94D82681E0DF91CF910B
:102AD0000895FF920F931F93CF93DF93CDB7DEB787
:102AE00060970FB6F894DEBF0FBECDBF0E9491175E
:102AF000811102C00E948B170E949117811124C07E
:102B00000E94941780FF20C062E084ED96E00E944E
:102B1000D826FF24F39409EE13E0F801659174912F
:102B200040E150E0CE0101960E94342A0E5F1F4F13
:102B300084E00535180789F7FF2041F063E084ED54
:102B400096E00E94D82602C0F12CE5CF81E0609685
:102B50000FB6F894DEBF0FBECDBFDF91CF911F91AE
:102B60000F91FF9008950E94911781110EC00E944D
:102B7000941780FF0AC062E084ED96E00E94D82698
:102B800063E084ED96E00C94D82608950F931F938C
:102B9000CF93DF93CDB7DEB7EF81F8850081118148
:102BA0000E949117811102C00E948B17C8010E94D8
:102BB0006F1D0E94B31581E0DF91CF911F910F919E
:102BC00008950F931F93CF93DF93CDB7DEB7EF81B7
:102BD000F885008111810E949117811102C00E9425
:102BE0008B17C8010E947E1D0E94B31581E0DF9102
:102BF000CF911F910F9108950F931F93CF93DF9360
:102C0000CDB7DEB7EF81F885008111810E94911761
:102C1000811102C00E948B17C8010E948D1D0E9465
:102C2000B31581E0DF91CF911F910F9108950F931C
:102C30001F93CF93DF93CDB7DEB7EF81F885008187
:102C400011810E949117811102C00E948B17C80147
:102C50000E949C1D0E94B31581E0DF91CF911F91CE
:102C60000F910895FF920F931F93CF93DF93CDB7EA
:102C7000DEB7E885F985F080048115810E949117FF
:102C8000811102C00E948B17B8018F2D0E94AB1DCD
:102C90000E94B31581E0DF91CF911F910F91FF90BA
:102CA0000895FF920F931F93CF93DF93CDB7DEB7B5
:102CB000E885F985F080048115810E9491178111C2
:102CC00002C00E948B17B8018F2D0E94AF1D0E9479
:102CD000B31581E0DF91CF911F910F91FF9008957F
:102CE000CF92DF92EF92FF92CF93DF93CDB7DEB713
:102CF000E985FA85C080D180E280F3800E94911737
:102D0000811102C00E948B178FEFC816D104E10415
:102D1000F10409F0D8F468EC75E08C2D0E94771C62
:102D2000F82E882399F00E949117811110C00E94FB
:102D3000941780FF0CC062E084ED96E00E94D826D4
:102D400063E084ED96E00E94D82601C0F12C8F2D1F
:102D5000DF91CF91FF90EF90DF90CF900895CF93C8
:102D6000DF93CDB7DEB70E949117811102C00E9498
:102D70008B170E94911781110EC00E94941780FF3B
:102D80000AC062E084ED96E00E94D82663E084EDFC
:102D900096E00E94D82681E0DF91CF910895CF93ED
:102DA000DF93CDB7DEB70E949117811102C00E9458
:102DB0008B170E94911781110EC00E94941780FFFB
:102DC0000AC062E084ED96E00E94D82663E084EDBC
:102DD00096E00E94D82681E0DF91CF9108954FE0E0
:102DE00050E0BC0188E596E00E94512A10926706E7
:102DF00081E00895609368067093690680936A067F
:102E000090936B0681E0089560936C0670936D0655
:102E100080936E0690936F0681E00895609370062C
:102E200070937106809372069093730681E0089503
:102E30006093740670937506809376069093770678
:102E400081E00895609378067093790680937A06FE
:102E500090937B0681E0089580937C0681E008953D
:102E600080937D0681E0089580937E0681E0089539
:102E700080937F0681E008958093800681E0089525
:102E8000909382068093810681E008959093840652
:102E90008093830681E0089590938606809385064B
:102EA00081E00895909388068093870681E00895D5
:102EB00088E596E0089560916806709169068091B2
:102EC0006A0690916B06089560916C0670916D068C
:102ED00080916E0690916F060895609170067091D2
:102EE0007106809172069091730608956091740640
:102EF000709175068091760690917706089560919D
:102F000078067091790680917A0690917B060895F3
:102F100080917C06089580917D06089580917E06BB
:102F2000089580917F06089580918006089580918C
:102F3000810690918206089580918306909184067F
:102F40000895809185069091860608958091870660
:102F50009091880608950F931F93CF93DF93CDB779
:102F6000DEB76E970FB6F894DEBF0FBECDBF8EE111
:102F7000EAE6F4E0DE01119601900D928A95E1F700
:102F80000AE316E08EE1FE013196D80101900D9220
:102F90008A95E1F78EED91E00E94EF1680E895E2C8
:102FA000A0E0B0E0F80186A797A7A0ABB1AB80E1A5
:102FB00097E2A0E0B0E082AB93ABA4ABB5AB88EEF8
:102FC00093E0A0E0B0E086AB97ABA0AFB1AF84E6F2
:102FD00090E0A0E0B0E082AF93AFA4AFB5AF80EDDA
:102FE00097E0A0E0B0E08093780690937906A093F4
:102FF0007A06B0937B0681E080937C0610927D0672
:1030000080937E0610927F0683E08093800680E2A4
:103010009EE4909382068093810690938406809329
:103020008306909386068093850690938806809306
:1030300087066E960FB6F894DEBF0FBECDBFDF9148
:10304000CF911F910F910895FF920F931F93CF93EC
:10305000DF93F82E0AE316E0C0E0D0E0CE010E9434
:10306000692CF80181938F012196CF34D105B1F7F6
:10307000FF2051F06EED71E088E596E00E94482A4D
:10308000892B11F00E94AB178AE396E0DF91CF9174
:103090001F910F91FF900C943B1CCF92DF92FF92F7
:1030A0000F931F93CF93DF931F92CDB7DEB78AE3C1
:1030B00096E00E94151CF82E8823B9F13AE3C32E3E
:1030C00036E0D32E00E010E0F60161916F01C801F7
:1030D00069830E94692C6981681711F1C8010E94F7
:1030E000712C4091360650913706609138067091E8
:1030F00039064F5F5F4F6F4F7F4F409336065093B7
:1031000037066093380670933906CB01BA0124E084
:1031100096958795779567952A95D1F70E944D25C5
:103120000F5F1F4F0F34110579F68F2D0F90DF9130
:10313000CF911F910F91FF90DF90CF900895EF9264
:10314000FF920F931F93CF93DF93CDB7DEB76097B6
:103150000FB6F894DEBF0FBECDBF80917F06811100
:1031600004C08091800680FD39C0F12C8AE396E08E
:103170000E94151CE82E882349F100EF14E085E039
:103180000031180761F0F8016591749140E150E059
:10319000CE0101960E94342A0E5F1F4FF0CF0AE342
:1031A00016E010C0F80181918F01803158F4E09150
:1031B000D406F091D5060190F081E02D60E384ED16
:1031C00096E00995F6E009381F0761F7FF2071F0D6
:1031D00063E084ED96E00E94D82608C062E084EDAA
:1031E00096E00E94D826FF24F394C0CF8E2D6096DF
:1031F0000FB6F894DEBF0FBECDBFDF91CF911F9108
:103200000F91FF90EF9008958EBD00000DB407FE62
:10321000FDCF8EB508950E9404198FEF0C94041908
:10322000CF93DF931F92CDB7DEB769830E940B194E
:1032300090E0698102C0959587956A95E2F7817063
:103240000F90DF91CF910895CF93DF931F92CDB769
:10325000DEB769830E9404196981862F0F90DF9180
:10326000CF910C9404190F931F93CF93DF9300D049
:10327000CDB7DEB78C0180684A8369830E940B1941
:103280004A81698121E030E0062E01C0220F0A94B4
:10329000EAF7442319F0682F622B03C0622F609570
:1032A0006823C8010F900F90DF91CF911F910F916C
:1032B0000C9424198F929F92AF92BF92CF92DF927B
:1032C000EF92FF920F931F93CF93DF936C014B010B
:1032D000F42E122FEE2021F060E086E00E942426DA
:1032E00056016894A7F8C5010E940B19212F90E0A0
:1032F000E1E0F0E0021748F0DF01022E01C0AA0F62
:103300000A94EAF79A2B2F5FF5CFE92FE823F0E034
:10331000012E02C0F595E7950A94E2F7E401CE0F7D
:10332000D11DD7FF02C0C0E0D0E04F2D50E04C17B8
:103330005D070CF4EA018928A9F09E01012E01C065
:10334000220F0A94EAF7992E90949822922A692DD6
:10335000C6010E942419C5010E940B19891511F09C
:10336000CFEFDFEFEE2021F061E086E00E9424261F
:10337000CE01DF91CF911F910F91FF90EF90DF90E1
:10338000CF90BF90AF909F908F9008957F928F9233
:103390009F92AF92BF92CF92DF92EF92FF920F93E4
:1033A0001F93CF93DF93862E742EF22E87FD06C0D7
:1033B000082F80310CF068C0C82E03C08FE0C82EE3
:1033C00000E060E086E00E942426C0E0D0E010E04B
:1033D000A02EB12CD12C992487FC9094FE01EA0DEB
:1033E000FB1DCE16DF060CF449C0E031F10508F0F4
:1033F00042C0EC5CFF4F0C94B42981E190E02CC0FA
:1034000082E190E029C083E190E026C084E190E071
:1034100023C085E190E020C086E190E01DC087E1F7
:1034200090E01AC088E190E017C089E190E014C0F4
:103430008AE190E011C08BE190E00EC08CE190E059
:103440000BC08DE190E008C08EE190E005C08FE1F7
:1034500090E002C080E190E01F3F69F0E12C0F2D69
:10346000272D43E0B4010E945A1987FD04C01817A4
:103470001CF4182F01C01FEF2196B0CF61E086E049
:103480000E942426812F01C08FEFDF91CF911F91E1
:103490000F91FF90EF90DF90CF90BF90AF909F90F3
:1034A0008F907F900895AF92BF92CF92DF92EF926C
:1034B000FF920F931F93CF93DF9380910F04882384
:1034C00009F484C080919006811180C081E08093CE
:1034D000900610920F0460E086E00E94242640E0EF
:1034E00066E084E090E00E94331940E065E084E00B
:1034F00090E00E94331940E064E084E090E00E9494
:10350000331940E063E084E090E00E94331940E02A
:1035100060E085E090E00E94331920910B04309127
:103520000C0480910D0490910E04289F6001299F46
:10353000D00C389FD00C1124C0E0D0E0AA24A39472
:10354000B12CCC15DD05E1F1C11581E0D80731F4CE
:1035500041E060E085E090E00E9433198E0193E045
:10356000169507959A95E1F77E0197E0E922FF24E9
:1035700002531C4FF801808190E00E2C02C09595FB
:1035800087950A94E2F780FF19C06C2F86E090E0DF
:103590000E942419FE01E251FE4F608187E090E015
:1035A0000E942419C50102C0880F991FEA94E2F70E
:1035B0007C01E094F8018081E822E0822196C1CF6D
:1035C00061E086E00E9424261092900681E0DF915F
:1035D000CF911F910F91FF90EF90DF90CF90BF9010
:1035E000AF9008958F929F92AF92BF92CF92DF9249
:1035F000EF92FF928091910681110DC00E941E25CD
:1036000060938C0670938D0680938E0690938F0640
:1036100081E08093910678940E941E256B017C01C5
:1036200080918C0690918D06A0918E06B0918F06A8
:1036300046015701881A990AAA0ABB0A0E947617FE
:10364000681579058A059B0590F4C0928C06D09286
:103650008D06E0928E06F0928F06FF90EF90DF903D
:10366000CF90BF90AF909F908F900C94531AFF9083
:10367000EF90DF90CF90BF90AF909F908F90089584
:10368000CF93DF93D82F60E086E00E94242663E08A
:1036900080E890E00E9410198D17F1F00E949117B8
:1036A000811102C00E948B1780E890E00E940B19E4
:1036B000C82FDD2311F0C86001C0C77F6C2F80E0E8
:1036C00090E00E94241980E890E00E940B19D1E05C
:1036D0008C1719F0D0E001C0D1E061E086E00E94D3
:1036E00024268D2FDF91CF910895CF93DF9360E053
:1036F00086E00E94242666E080E890E00E9410198F
:10370000C82F41E061E080E090E00E94331961E061
:1037100070E080E090E00E944D2566E08FEA90E046
:103720000E9410198111F3CF61E086E00E942426E7
:103730000E9488170E94401BD82F60E086E00E94FC
:10374000242666E080E890E00E9410198C1731F082
:103750004C2F66E080E090E00E94331961E086E043
:103760000E94242620E030E061E070E0F90143E0AF
:10377000F695E7954A95E1F7E253FC4FA9014770AA
:103780005527CB0102C0880F991F4A95E2F7AC017B
:103790009081942B90832F5F3F4F203E91E039071B
:1037A00029F781E080930F048D2FDF91CF91089549
:1037B000CF93C82F61E08AE00E94EB2561E086E0AC
:1037C0000E94EB2561E08BE00E94EB2560E08CE03D
:1037D0000E94EB2561E08DE00E94EB2560E082E035
:1037E0000E94EB2561E082E00E94242642E050E046
:1037F00062EF7AE180E00E9466246BE470E080E092
:1038000090E00E944D2560E086E00E94242640E082
:1038100064E08CE690E00E94331961E086E00E944B
:1038200024268C2FCF910C94751B0F931F93CF934D
:10383000DF938C010097C9F060E086E00E942426A7
:10384000C0E1D4E08881998180680E940B19F80159
:1038500081938F012396F4E0CA36DF0799F761E080
:1038600086E00E94242681E001C080E0DF91CF91B4
:103870001F910F910895DF92EF92FF920F931F9384
:10388000CF93DF938C01009749F160E086E00E94BE
:103890002426C2E1D4E08881882381F0F801D08019
:1038A000FE013297E080F1806D2DC7010E9424193E
:1038B000C70180680E940B198D1109C023960F5F04
:1038C0001F4FF4E0CC36DF0731F7C1E001C0C0E0A4
:1038D00061E086E00E9424268C2F01C080E0DF9109
:1038E000CF911F910F91FF90EF90DF9008950F936C
:1038F0001F93CF93DF93C82F8B0160E086E00E9477
:10390000242640E063E080E090E00E9433196C2FB1
:1039100089E090E00E9424196FE588E090E00E9421
:10392000241961E070E080E090E00E944D2565E0A0
:103930008FEA90E00E9410198111F3CFE80110E0A6
:10394000612F8AE090E00E9424198FEC90E00E94A1
:103950000B1989931F5F163399F741E063E080E00C
:1039600090E00E94331961E086E00E94242681E005
:10397000DF91CF911F910F910895EF92FF921F93C6
:10398000CF93DF931F92CDB7DEB7F82E162F60E0EE
:1039900086E079830E94242640E063E080E090E0A6
:1039A0000E9433196F2D89E090E00E942419E12EC6
:1039B0007981F72E10E0612F8AE090E00E942419AF
:1039C000F70161917F018BE090E00E9424191F5F55
:1039D000163389F76FEA88E090E00E9424196FE0BF
:1039E00070E080E090E00E944D2565E08FEA90E075
:1039F0000E9410198111F3CF41E063E080E090E074
:103A00000E94331961E086E00E94242681E00F9035
:103A1000DF91CF911F91FF90EF900895CF9360E0D9
:103A200086E00E942426C0918B0660E08FEA90E039
:103A30000E941019C817C1F081E08C2780938B0673
:103A4000882391F041E066E080E090E00E94331925
:103A500080E190E090930C0480930B040E949117F6
:103A6000811102C00E948B17C0918A0661E08FEA23
:103A700090E00E941019C817C1F081E08C27809354
:103A80008A06882391F040E066E080E090E00E94A2
:103A900033198DE090E090930C0480930B040E9406
:103AA0009117811102C00E948B17C091890662E0B4
:103AB0008FEA90E00E941019C81761F081E08C270E
:103AC00080938906882331F00E949117811102C0EA
:103AD0000E948B1761E086E0CF910C942426EF9230
:103AE0000F93EE24E39407E020E04FE3BC0182E073
:103AF00090E00E945A190F91EF900895EF920F9362
:103B0000EE24E39407E020E04FE1BC0183E090E085
:103B10000E945A190F91EF900895EF920F93EE249F
:103B2000E39405E023E045E0BC018CE090E00E94D6
:103B30005A190F91EF900895EF920F93EE24E394AA
:103B400002E020E045E0BC018CE090E00E945A19C0
:103B50000F91EF90089523E042E00C94C61921E004
:103B600040E00C94C619CF93DF9300D0CDB7DEB7F9
:103B700020917107309172072115310511F425E765
:103B800037E0CE010196821B930B0F900F90DF91CF
:103B9000CF9108952F923F924F925F926F927F92B2
:103BA0008F929F92AF92BF92CF92DF92EF92FF924D
:103BB0000F931F93CF93DF930E949117782E81115B
:103BC0000DC00E948E17682E0E9494178170982E47
:103BD0000E94941781FB882480F803C0912C612CEB
:103BE000812C8091C6069091C706A091C806B0911D
:103BF000C906892B8A2B8B2B09F443C00E941E25F2
:103C00006B017C018091C6069091C706A091C80601
:103C1000B091C906C81AD90AEA0AFB0A0E946417B9
:103C20006C157D058E059F0560F51092C6061092F5
:103C3000C7061092C8061092C9061092C5067110E8
:103C400013C0882051F084ED96E00E94AE2868E20F
:103C500076E084ED96E00E948228992029F065E1C3
:103C600084ED96E00E94D8261F921F920E94A6081B
:103C70001092C4061092C3060F900F90772009F49B
:103C8000BAC30FE916E093E0C92ED12C22E0A22E90
:103C9000B12C34E0232E312C44244394512C84ED58
:103CA00096E00E945A26181619060CF00CC39920AB
:103CB00069F183339105A4F0CF9734F068E184ED86
:103CC00096E00E94D8260CC08091C106811108C0E0
:103CD00063E184ED96E00E94D82681E08093C106DE
:103CE0008091C3069091C406892B81F48091C5060A
:103CF00081110CC08091C206811108C061E084ED81
:103D000096E00E94D82681E08093C20684ED96E07A
:103D10000E947326EC016620E1F00E940B2A892B99
:103D200011F0BE0112C0CF37D10599F48091C306BE
:103D30009091C406049769F08091C506882349F0E4
:103D400081508093C50668E070E084ED96E00E94A3
:103D500032098091C3069091C4068430910509F41C
:103D60003EC02091C5062F30D0F11092C5067110CB
:103D700013C0882051F084ED96E00E94AE2861E1E6
:103D800076E084ED96E00E948228992029F065E192
:103D900084ED96E00E94D8261092C4061092C306C5
:103DA00071107DCF882009F483C284ED96E00E94D3
:103DB000AE280E948B17882379F00E94B31D4AE039
:103DC00050E0BC0184ED96E00E944B296CE875E060
:103DD00084ED96E00E94A52865E076E065C2823019
:103DE000910509F461C02CF4009759F0019719F17D
:103DF00023C28330910509F408C1049709F46EC108
:103E00001BC2CE010E94F529892B31F4CE010E94FC
:103E1000192A892B09F443CFE091C50681E08E0F62
:103E20008093C506F0E0EE54F94FC0835092C4066B
:103E30004092C30634CFCE010E94F529892B29F484
:103E4000CE010E94192A892B59F0E091C50681E024
:103E50008E0F8093C506F0E0EE54F94FC0831FCF5C
:103E6000CE010E94112A892B09F419CFE091C506D1
:103E7000F0E0EE54F94F108259EEE52E53E0F52EA6
:103E8000C0E0D0E0F7016591749182EB96E00E946A
:103E9000242A892B09F4D9C2219682E0E80EF11C6C
:103EA000C633D10579F7AAC3CE010E94F529892B23
:103EB00029F4CE010E94192A892B59F0E091C506F8
:103EC00081E08E0F8093C506F0E0EE54F94FC08379
:103ED000E6CECE010E94112A892B09F4E0CEC091D2
:103EE000C506D0E0FE01EE54F94F108282EB96E059
:103EF0000E94CE29611571058105910561F4E2EBFF
:103F0000F6E09F01225B36402C173D0724F42191F7
:103F10002033B9F357C4E091AF0621E02E0F209370
:103F2000AF0634E0E39FF0011124E156F94F6083BE
:103F30007183828393831092C506E091B006F0915D
:103F4000B1069281291728F4B092C406A092C30644
:103F5000A6CE8381882329F0D092C406C092C306DE
:103F60009ECE1F930F930190F081E02D09950F9045
:103F70000F90811112C0711025C0882051F084ED7E
:103F800096E00E94AE2864E975E084ED96E00E9418
:103F900082289920B9F065E111C0711013C0882002
:103FA00051F084ED96E00E94AE286FE875E084ED54
:103FB00096E00E948228992029F066E084ED96E040
:103FC0000E94D8261092C4061092C306711067CEC4
:103FD000882009F46DC184ED96E00E94AE280E940D
:103FE0008B17882379F00E94B31D4AE050E0BC0192
:103FF00084ED96E00E944B296CE875E084ED96E034
:104000000E94A52863E875E04FC1CE010E94F52902
:10401000892B29F4CE010E94192A892B59F0E091AD
:10402000C50681E08E0F8093C506F0E0EE54F94F8F
:10403000C08335CECE010E94112A892B09F42FCEE0
:10404000E091C506F0E0EE54F94F108282EB96E065
:104050000E94CE2960939B0670939C0680939D06D8
:1040600090939E061092C506672B682B692B99F0DA
:104070000E941E256093C6067093C7068093C806EB
:104080009093C90610929A06109299063092C4062F
:104090002092C30604CE1092C4061092C30671107B
:1040A000FECD882009F404C184ED96E00E94AE287C
:1040B0000E948B17882379F00E94B31D4AE050E0DC
:1040C000BC0184ED96E00E944B296CE875E084ED1C
:1040D00096E00E94A52867E775E0E6C00E941E25CD
:1040E0006093C6067093C7068093C8069093C9066E
:1040F000209749F410929B0610929C0610929D0600
:1041000010929E060AC08091C506E82FF0E0EE549A
:10411000F94FC0838F5F8093C5062091C5062F306D
:1041200009F06EC0E091B006F091B10682EB96E026
:104130009F938F931F922F9380919A068F938091D4
:1041400099068F931F930F930190F081E02D0995AD
:104150002DB73EB7285F3F4F0FB6F8943EBF0FBE56
:104160002DBF811142C0711013C0882051F084ED21
:1041700096E00E94AE2860E775E084ED96E00E942C
:104180008228992029F065E184ED96E00E94D826E6
:104190001092C6061092C7061092C8061092C90661
:1041A0001092C5061092C4061092C306711077CD06
:1041B000882009F47DC084ED96E00E94AE280E941C
:1041C0008B17882379F00E94B31D4AE050E0BC01B0
:1041D00084ED96E00E944B296CE875E084ED96E052
:1041E0000E94A52864E675E05FC0809199069091D1
:1041F0009A060F9690939A06809399061092C50698
:1042000080919B0690919C06A0919D06B0919E0680
:10421000B7FD45CD0197A109B10980939B06909305
:104220009C06A0939D06B0939E06181619061A06C2
:104230001B060CF434CD1CC21092C506711013C0BD
:10424000882051F084ED96E00E94AE286FE275E080
:1042500084ED96E00E948228992029F065E184EDA2
:1042600096E00E94D8261092C4061092C3067110E0
:1042700016CD8820E9F084ED96E00E94AE280E94D9
:104280008B17882379F00E94B31D4AE050E0BC01EF
:1042900084ED96E00E944B296CE875E084ED96E091
:1042A0000E94A52863E275E084ED96E00E948228D2
:1042B000992009F4F4CC64E084ED96E00E94D826BD
:1042C0001092C206ECCC8091C3069091C40604976C
:1042D00009F081C02091C506222309F47CC0E09139
:1042E000B006F091B10682EB96E09F938F931F92F8
:1042F0002F9380919A068F93809199068F938FE9DF
:1043000096E09F938F930190F081E02D09952DB752
:104310003EB7285F3F4F0FB6F8943EBF0FBE2DBF8C
:1043200081114BC0711013C0882051F084ED96E0CC
:104330000E94AE286CE175E084ED96E00E94822830
:10434000992029F065E184ED96E00E94D82610922C
:10435000C6061092C7061092C8061092C90610929F
:10436000C4061092C306711028C08820E9F084EDBD
:1043700096E00E94AE280E948B17882379F00E9455
:10438000B31D4AE050E0BC0184ED96E00E944B2949
:104390006CE875E084ED96E00E94A52860E175E088
:1043A00084ED96E00E948228992039F064E084ED43
:1043B00096E00E94D8261092C2062091C5068091F0
:1043C000990690919A06820F911D90939A06809378
:1043D00099061092C506992009F42EC28091C10653
:1043E000882309F429C261E184ED96E00E94D82671
:1043F0001092C10621C28820E9F084ED96E00E9467
:10440000AE280E948B17882379F00E94B31D4AE0E2
:1044100050E0BC0184ED96E00E944B296CE875E009
:1044200084ED96E00E94A5286CE176E084ED96E0AC
:104430000E948228992009F424CC64E084ED96E05F
:104440000E94D8261092C2061CCCCC0FDD1FCC0FC8
:10445000DD1FCA5FDE4FD093B106C093B0068A81DC
:104460008530D0F11092C506711013C0882051F02C
:1044700084ED96E00E94AE2869ED75E084ED96E04B
:104480000E948228992029F065E184ED96E00E943F
:10449000D8261092C4061092C306711000CC882052
:1044A00009F406CF84ED96E00E94AE280E948B1797
:1044B000882379F00E94B31D4AE050E0BC0184EDEE
:1044C00096E00E944B296CE875E084ED96E00E942E
:1044D000A5286DEC75E0E8CE1092AF0610929F060D
:1044E0001092A0061092A1061092A2061092A306A6
:1044F0001092A4061092A5061092A6061092A70686
:104500001092A8061092A9061092AA061092AB0665
:104510001092AC061092AD061092AE06882329F0D8
:10452000B092C406A092C30666C08B81882329F08E
:10453000D092C406C092C3065EC01F921F92E8814B
:10454000F98109950F900F90811112C0711025C04B
:10455000882051F084ED96E00E94AE2866EC75E06C
:1045600084ED96E00E9482289920B9F065E111C09F
:10457000711013C0882051F084ED96E00E94AE289F
:1045800061EC75E084ED96E00E948228992029F084
:1045900066E084ED96E00E94D8261092C406109240
:1045A000C306711028C08820E9F084ED96E00E94CF
:1045B000AE280E948B17882379F00E94B31D4AE031
:1045C00050E0BC0184ED96E00E944B296CE875E058
:1045D00084ED96E00E94A52865EB75E084ED96E0F9
:1045E0000E948228992039F064E084ED96E00E94D0
:1045F000D8261092C2061092C50651CB1092C5065D
:10460000711013C0882051F084ED96E00E94AE280E
:1046100066EF75E084ED96E00E948228992029F0EB
:1046200065E184ED96E00E94D8261092C4061092AF
:10463000C306711034CB882009F43ACE84ED96E09D
:104640000E94AE280E948B17882379F00E94B31D28
:104650004AE050E0BC0184ED96E00E944B296CE8F2
:1046600075E084ED96E00E94A5286AEE75E01CCE08
:104670002091C506222309F465C0E091B006F091AF
:10468000B10682EB96E09F938F931F922F938091B8
:104690009A068F93809199068F931F930F930190A1
:1046A000F081E02D09952DB73EB7285F3F4F0FB63B
:1046B000F8943EBF0FBE2DBF811142C0711013C0D0
:1046C000882051F084ED96E00E94AE286DE575E0FB
:1046D00084ED96E00E948228992029F065E184ED1E
:1046E00096E00E94D8261092C6061092C706109235
:1046F000C8061092C9061092C5061092C406109200
:10470000C3067110CCCA882009F4D2CD84ED96E09E
:104710000E94AE280E948B17882379F00E94B31D57
:104720004AE050E0BC0184ED96E00E944B296CE821
:1047300075E084ED96E00E94A52861E575E0B4CDB2
:104740001092C506711013C0882051F084ED96E0D8
:104750000E94AE286CE475E084ED96E00E94822809
:10476000992029F066E084ED96E00E94D826109208
:10477000C6061092C7061092C8061092C90610927B
:10478000C4061092C30671108ACA882009F490CD1D
:1047900084ED96E00E94AE280E948B17882379F062
:1047A0000E94B31D4AE050E0BC0184ED96E00E94F7
:1047B0004B296CE875E084ED96E00E94A52860E442
:1047C00075E072CD711013C0882051F084ED96E031
:1047D0000E94AE2867EA75E084ED96E00E94822888
:1047E000992029F065E184ED96E00E94D826109288
:1047F000C5061092C4061092C306711050CA8820D4
:1048000009F456CD84ED96E00E94AE280E948B17E5
:10481000882379F00E94B31D4AE050E0BC0184ED8A
:1048200096E00E944B296CE875E084ED96E00E94CA
:10483000A5286BE975E038CDDF91CF911F910F91DD
:10484000FF90EF90DF90CF90BF90AF909F908F90B0
:104850007F906F905F904F903F902F900895CF93EF
:10486000CFB7F8948091CA06811127C0E4E6F6E03C
:104870008491E0E5F6E09491E82FF0E0EE0FFF1F61
:10488000E858F94FA591B4918C91892321F461E006
:104890008AE00E94242661E08AE00E94EB258CB524
:1048A00080618CBD8CB580648CBD61E08DE00E9420
:1048B000EB2561E08BE00E94EB258091CA068F5FBB
:1048C0008093CA06CFBFCF91089508958230E8F44F
:1048D000E82FF0E0EE0FFF1FE857FB4F7183608376
:1048E000813041F0809169008C7F842B8093690036
:1048F000E89A089580916900440F551F440F551F91
:10490000837F842B80936900E99A08951F920F9208
:104910000FB60F9211242F933F934F935F936F9392
:104920007F938F939F93AF93BF93EF93FF93E09108
:104930008804F09189040995FF91EF91BF91AF919F
:104940009F918F917F916F915F914F913F912F91A7
:104950000F900FBE0F901F9018951F920F920FB6D9
:104960000F9211242F933F934F935F936F937F93F5
:104970008F939F93AF93BF93EF93FF93E0918A043C
:10498000F0918B040995FF91EF91BF91AF919F91A9
:104990008F917F916F915F914F913F912F910F90E8
:1049A0000FBE0F901F9018951F920F920FB60F9287
:1049B00011242F933F938F939F93AF93BF93809135
:1049C000CC069091CD06A091CE06B091CF06309145
:1049D000CB0623E0230F2D3720F40196A11DB11D36
:1049E00005C026E8230F0296A11DB11D2093CB061A
:1049F0008093CC069093CD06A093CE06B093CF06BD
:104A00008091D0069091D106A091D206B091D306A4
:104A10000196A11DB11D8093D0069093D106A0935D
:104A2000D206B093D306BF91AF919F918F913F91E2
:104A30002F910F900FBE0F901F9018952FB7F894DD
:104A40006091CC067091CD068091CE069091CF06F4
:104A50002FBF08953FB7F8948091D0069091D1066A
:104A6000A091D206B091D30626B5A89B05C02F3FD2
:104A700019F00196A11DB11D3FBF6627782F892F20
:104A80009A2F620F711D811D911D42E0660F771FE5
:104A9000881F991F4A95D1F708958F929F92AF92E0
:104AA000BF92CF92DF92EF92FF926B017C010E9446
:104AB0002A254B015C01C114D104E104F104F1F099
:104AC0000E947D290E942A25681979098A099B0973
:104AD000683E73408105910570F321E0C21AD10848
:104AE000E108F10888EE880E83E0981EA11CB11C35
:104AF000C114D104E104F10429F7DDCFFF90EF9058
:104B0000DF90CF90BF90AF909F908F900895789452
:104B100084B5826084BD84B5816084BD85B58260C2
:104B200085BD85B5816085BDEEE6F0E08081816060
:104B30008083E1E8F0E01082808182608083808160
:104B400081608083E0E8F0E0808181608083E1EB38
:104B5000F0E0808184608083E0EBF0E08081816020
:104B60008083EAE7F0E080818460808380818260D6
:104B700080838081816080838081806880831092BF
:104B8000C1000895833081F028F4813099F082309B
:104B9000A1F008958730A9F08830B9F08430D1F4BD
:104BA000809180008F7D03C0809180008F778093FB
:104BB0008000089584B58F7702C084B58F7D84BD51
:104BC00008958091B0008F7703C08091B0008F7DF1
:104BD0008093B0000895CF93DF9390E0FC01EA5BEF
:104BE000F94F2491FC01E65AF94F8491882349F149
:104BF00090E0880F991FFC01E858F94FA591B491F6
:104C00008259994FFC01C591D4919FB7611108C099
:104C1000F8948C91209582238C93888182230AC0FA
:104C2000623051F4F8948C91322F309583238C9319
:104C30008881822B888304C0F8948C91822B8C937A
:104C40009FBFDF91CF9108950F931F93CF93DF9371
:104C50001F92CDB7DEB7282F30E0F901EE5CF94F97
:104C60008491F901EA5BF94F1491F901E65AF94F81
:104C700004910023C9F0882321F069830E94C22592
:104C80006981E02FF0E0EE0FFF1FE259F94FA59187
:104C9000B4919FB7F8948C91611103C01095812352
:104CA00001C0812B8C939FBF0F90DF91CF911F91FB
:104CB0000F910895FC01818D228D90E0805C9F4FC3
:104CC000821B91098F7399270895FC01918D828D24
:104CD000981731F0828DE80FF11D858D90E00895D1
:104CE0008FEF9FEF0895FC01918D828D981761F0F1
:104CF000828DDF01A80FB11D5D968C91928D9F5F13
:104D00009F73928F90E008958FEF9FEF089587EF44
:104D100097E2892B49F080E090E0892B29F00E94EE
:104D2000F72781110C9400000895FC01848DDF01A8
:104D3000A80FB11DA35ABF4F2C91848D90E001960E
:104D40008F739927848FA689B7892C93A089B189FD
:104D50008C9180648C93938D848D981306C0028807
:104D6000F389E02D80818F7D80830895CF93DF9339
:104D7000EC01888D8823C9F0EA89FB89808185FD53
:104D800005C0A889B9898C9186FD0FC00FB607FCB4
:104D9000F5CF808185FFF2CFA889B9898C9185FFF5
:104DA000EDCFCE010E949526E7CFDF91CF910895F8
:104DB000CF92DF92FF920F931F93CF93DF931F92B7
:104DC000CDB7DEB76C0181E0D60158968C93589729
:104DD0005B969C915B975C968C915C97981307C04F
:104DE0005096ED91FC915197808185FD2EC0F60182
:104DF000038D10E00F5F1F4F0F731127F02EF60188
:104E0000848DF81211C00FB607FCF9CFD601509669
:104E1000ED91FC915197808185FFF1CFC6016983A7
:104E20000E9495266981EBCF838DE80FF11DE35A2F
:104E3000FF4F6083D6015B960C935B975296ED9182
:104E4000FC915397808180620CC0D6015696ED91FB
:104E5000FC91579760835096ED91FC91519780811A
:104E60008064808381E090E00F90DF91CF911F916B
:104E70000F91FF90DF90CF900895BF92CF92DF9275
:104E8000EF92FF92CF93DF93EC016A017B01B22E88
:104E9000E889F98982E08083411581EE5807610530
:104EA0007105A1F060E079E08DE390E0A701960143
:104EB0000E9492292150310941095109569547957F
:104EC00037952795211580E1380798F0E889F98909
:104ED000108260E874E88EE190E0A70196010E94DC
:104EE0009229215031094109510956954795379525
:104EF0002795EC85FD853083EE85FF852083188E10
:104F0000EC89FD89B082EA89FB8980818061808398
:104F1000EA89FB89808188608083EA89FB898081B6
:104F200080688083EA89FB8980818F7D8083DF911F
:104F3000CF91FF90EF90DF90CF90BF9008951F9298
:104F40000F920FB60F9211242F938F939F93EF938D
:104F5000FF93E091E406F091E5068081E091EA0696
:104F6000F091EB0682FD12C090818091ED068F5F7B
:104F70008F732091EE06821751F0E091ED06F0E07C
:104F8000EC52F94F958F8093ED0601C08081FF911F
:104F9000EF919F918F912F910F900FBE0F901F90C7
:104FA00018951F920F920FB60F9211242F933F93D3
:104FB0004F935F936F937F938F939F93AF93BF9321
:104FC000EF93FF9384ED96E00E949526FF91EF9179
:104FD000BF91AF919F918F917F916F915F914F9111
:104FE0003F912F910F900FBE0F901F90189584ED59
:104FF00096E00E945A2621E0892B09F420E0822FB6
:1050000008951092D7061092D60688EE93E0A0E09D
:10501000B0E08093D8069093D906A093DA06B093B7
:10502000DB0682E995E09093D5068093D40685EC63
:1050300090E09093E1068093E00684EC90E09093FA
:10504000E3068093E20680EC90E09093E50680937F
:10505000E40681EC90E09093E7068093E60682EC0C
:1050600090E09093E9068093E80686EC90E09093B8
:10507000EB068093EA061092ED061092EE0610926F
:10508000EF061092F0060895CF92DF92EF92FF9212
:105090000F931F93CF93DF937C016A01EB0100E034
:1050A00010E00C151D0571F06991D701ED91FC918F
:1050B0000190F081E02DC7010995892B19F00F5F50
:1050C0001F4FEFCFC801DF91CF911F910F91FF903C
:1050D000EF90DF90CF9008956115710581F0DB01AD
:1050E0000D900020E9F7AD0141505109461B570BC7
:1050F000DC01ED91FC910280F381E02D099480E0C8
:1051000090E00895EF92FF920F931F93CF93DF9358
:105110008C017B01C0E0D0E0F701EC0FFD1F649132
:10512000662359F0F801A081B181ED91FC91C8018D
:105130000995892B11F02196EFCFCE01DF91CF9108
:105140001F910F91FF90EF9008950C946C28DC0153
:10515000ED91FC910190F081E02D09946EE975E0EC
:105160000C946C288F929F92AF92BF92DF92EF9235
:10517000FF920F931F93CF93DF93CDB7DEB7A19725
:105180000FB6F894DEBF0FBECDBF7C01F42FD52E35
:10519000CB0119A2223008F42AE08E010F5D1F4FC7
:1051A000822E912CA12CB12C6F2F7D2DA501940165
:1051B0000E949229F22FD32ECA01015011096A30A0
:1051C00014F4E0E301C0E7E3E60FD801EC93232BEE
:1051D000242B252B49F7B801C7010E946C28A19602
:1051E0000FB6F894DEBF0FBECDBFDF91CF911F91F8
:1051F0000F91FF90EF90DF90BF90AF909F908F90B6
:105200000895CF92DF92EF92FF920F931F93CF9367
:10521000DF93EC016A017B012115310579F4E88106
:10522000F9810190F081E02D642FDF91CF911F91E2
:105230000F91FF90EF90DF90CF9009942A303105C5
:10524000E9F477FF1AC06DE20E94A7288C01442779
:105250005527BA014C195D096E097F092AE0CE0174
:105260000E94B228800F911FDF91CF911F910F9163
:10527000FF90EF90DF90CF9008952AE0B701A6014C
:10528000CE01DF91CF911F910F91FF90EF90DF90B2
:10529000CF900C94B2289A01AB01662757FD609518
:1052A000762F0C9401292115310541F4DC01ED9193
:1052B000FC910190F081E02D642F09940C94B228A8
:1052C0009A01462F50E060E070E00C9453299A0157
:1052D000AB0160E070E00C94532908950E9487258B
:1052E0000E946D290E94E203C7E8D6E20E946C0387
:1052F0002097E1F30E948726F9CF089597FB072EA8
:1053000016F4009407D077FD09D00E94BA2907FC53
:1053100005D03EF4909581959F4F089570956195C5
:105320007F4F0895A1E21A2EAA1BBB1BFD010DC0E1
:10533000AA1FBB1FEE1FFF1FA217B307E407F50745
:1053400020F0A21BB30BE40BF50B661F771F881F21
:10535000991F1A9469F760957095809590959B01B7
:10536000AC01BD01CF010895EE0FFF1F0590F49130
:10537000E02D0994AA1BBB1B51E107C0AA1FBB1F4C
:10538000A617B70710F0A61BB70B881F991F5A95D1
:10539000A9F780959095BC01CD0108951F93FC015C
:1053A00099278827BC01E89411911032E9F319304C
:1053B00010F01E30C8F31B3251F01D3249F46894CE
:1053C00006C00E94602A610F711D811D911D1191FF
:1053D00010531A30B0F33EF4909580957095619516
:1053E0007F4F8F4F9F4F1F910895911106C080539B
:1053F0008A5010F0865C06C0089599278827089582
:1054000085FDFBCF80629111F8CF81568A51E0F77C
:105410000895803209F09111F0CF80528F55E0F756
:1054200008959111EACF803219F089508550D0F754
:1054300008959111E2CF81528E55E0F78158D5DF62
:105440008823C1F781E00895FB01DC018D9105906F
:1054500080190110D9F3990B0895FB01DC01059027
:105460000D920020E1F70895DC01FB01415050400E
:1054700058F049F005900D920020C1F7E61BF70B9C
:105480003197CF0108951C9205900020E9F7F6CFDF
:10549000FB01DC018D91019080190110D9F3990B6A
:1054A0000895FB01DC014150504048F001900D92FD
:1054B0000020C9F701C01D9241505040E0F7089507
:1054C000592F482F372F262F660F771F881F991FB8
:1054D000660F771F881F991F620F731F841F951F08
:1054E000660F771F881F991F0895AEE0B0E0EBE7C5
:1054F000FAE20C94332D0D891E8986E08C831A8381
:1055000009838FEF9FE79E838D83AE01475E5F4FD8
:105510006F89788DCE0101960E94972AEF81F885D8
:10552000E00FF11F10822E96E4E00C944F2DACE0BA
:10553000B0E0EDE9FAE20C94252D7C016B018A01C3
:10554000FC0117821682838181FFBDC1CE010196C5
:105550004C01F7019381F60193FD859193FF8191B1
:105560006F01882309F4ABC1853239F493FD85912D
:1055700093FF81916F01853229F4B70190E00E9479
:10558000952CE7CF512C312C20E02032A0F48B3227
:1055900069F030F4803259F0833269F420612CC014
:1055A0008D3239F0803339F4216026C022602460C6
:1055B00023C0286021C027FD27C030ED380F3A30C6
:1055C00078F426FF06C0FAE05F9E300D1124532EBA
:1055D00013C08AE0389E300D1124332E20620CC097
:1055E0008E3221F426FD6BC1206406C08C3611F486
:1055F000206802C0883641F4F60193FD859193FF3F
:1056000081916F018111C1CF982F9F7D9554933067
:1056100028F40C5F1F4FFFE3F9830DC0833631F090
:10562000833771F0833509F05BC022C0F8018081B7
:1056300089830E5F1F4F44244394512C540115C09D
:105640003801F2E06F0E711CF801A080B18026FFD6
:1056500003C0652D70E002C06FEF7FEFC5012C879E
:105660000E948A2C2C0183012C852F77222E17C0B3
:105670003801F2E06F0E711CF801A080B18026FFA6
:1056800003C0652D70E002C06FEF7FEFC5012C876E
:105690000E947F2C2C012C852068222E830123FC64
:1056A0001BC0832D90E048165906B0F4B70180E284
:1056B00090E00E94952C3A94F4CFF50127FC859157
:1056C00027FE81915F01B70190E00E94952C311077
:1056D0003A94F1E04F1A51084114510471F7E5C0B2
:1056E000843611F0893639F5F80127FF07C060814B
:1056F0007181828193810C5F1F4F08C0608171812D
:10570000882777FD8095982F0E5F1F4F2F76B22E3A
:1057100097FF09C090958095709561957F4F8F4F49
:105720009F4F2068B22E2AE030E0A4010E94C72CCF
:10573000A82EA81844C0853729F42F7EB22E2AE05F
:1057400030E025C0F22FF97FBF2E8F36C1F018F45C
:10575000883579F0B4C0803719F0883721F0AFC0B0
:105760002F2F2061B22EB4FE0DC08B2D8460B82E79
:1057700009C024FF0AC09F2F9660B92E06C028E0FA
:1057800030E005C020E130E002C020E132E0F80165
:10579000B7FE07C060817181828193810C5F1F4FCA
:1057A00006C06081718180E090E00E5F1F4FA40110
:1057B0000E94C72CA82EA818FB2DFF77BF2EB6FE7F
:1057C0000BC02B2D2E7FA51450F4B4FE0AC0B2FCE2
:1057D00008C02B2D2E7E05C07A2C2B2D03C07A2CD1
:1057E00001C0752C24FF0DC0FE01EA0DF11D808162
:1057F000803311F4297E09C022FF06C0739473948C
:1058000004C0822F867809F0739423FD13C020FF13
:1058100006C05A2C731418F4530C5718732C7314B5
:1058200068F4B70180E290E02C870E94952C739475
:105830002C85F5CF731410F4371801C0312C24FFD8
:1058400012C0B70180E390E02C870E94952C2C8534
:1058500022FF17C021FF03C088E590E002C088E75F
:1058600090E0B7010CC0822F867859F021FD02C06C
:1058700080E201C08BE227FD8DE2B70190E00E943B
:10588000952CA51438F4B70180E390E00E94952C84
:105890005A94F7CFAA94F401EA0DF11D8081B70163
:1058A00090E00E94952CA110F5CF332009F451CE41
:1058B000B70180E290E00E94952C3A94F6CFF70170
:1058C0008681978102C08FEF9FEF2C96E2E10C94C6
:1058D000412DF999FECF92BD81BDF89A992780B5E7
:1058E0000895262FF999FECF1FBA92BD81BD20BD24
:1058F0000FB6F894FA9AF99A0FBE01960895FC0132
:105900000590615070400110D8F7809590958E0FEA
:105910009F1F0895FC016150704001900110D8F75D
:10592000809590958E0F9F1F08950F931F93CF938F
:10593000DF93182F092FEB018B8181FD03C08FEFBF
:105940009FEF20C082FF10C04E815F812C813D817E
:10595000421753077CF4E881F9819F012F5F3F4F85
:1059600039832883108306C0E885F985812F09953E
:10597000892B29F72E813F812F5F3F4F3F832E8355
:10598000812F902FDF91CF911F910F910895FA01F0
:10599000AA27283051F1203181F1E8946F936E7F6E
:1059A0006E5F7F4F8F4F9F4FAF4FB1E03ED0B4E05F
:1059B0003CD0670F781F891F9A1FA11D680F791FA0
:1059C0008A1F911DA11D6A0F711D811D911DA11DB1
:1059D00020D009F468943F912AE0269F11243019C1
:1059E000305D3193DEF6CF010895462F4770405D5C
:1059F0004193B3E00FD0C9F7F6CF462F4F70405D0B
:105A00004A3318F0495D31FD4052419302D0A9F765
:105A1000EACFB4E0A6959795879577956795BA955F
:105A2000C9F700976105710508959B01AC010A2E25
:105A300006945795479537952795BA95C9F7620FFC
:105A4000731F841F951FA01D08952F923F924F92A0
:105A50005F926F927F928F929F92AF92BF92CF92FE
:105A6000DF92EF92FF920F931F93CF93DF93CDB707
:105A7000DEB7CA1BDB0B0FB6F894DEBF0FBECDBF7F
:105A800009942A88398848885F846E847D848C8450
:105A90009B84AA84B984C884DF80EE80FD800C8159
:105AA0001B81AA81B981CE0FD11D0FB6F894DEBF3C
:0C5AB0000FBECDBFED010895F894FFCFAC
:105ABC000000750780004915000069150000E30817
:105ACC000000DF070400A6080000F308000002092C
