:100000000C94A5020C94A2240C94C9240C94CD0247
:100010000C94CD020C94CD020C94CD020C94CD0224
:100020000C94CD020C94CD020C94CD020C94CD0214
:100030000C94CD020C94CD020C94CD020C94CD0204
:100040000C94F0240C94CD020C9404280C943628C3
:100050000C94CD020C94CD020C94CD020C94CD02E4
:100060000C94CD020C94CD02871C5A1C5D1C601CA4
:10007000631C661C691C6C1C6F1C721C751C781C34
:100080007B1C7E1C811C841C202020202044454C8D
:1000900045544544205355434345535346554C4CD2
:1000A0005921200020202020205341564544205330
:1000B00055434345535346554C4C5921200020206D
:1000C00020202054454D504F524152494C59205503
:1000D0005345204F4C454421200020202020202043
:1000E00020202020204641564F524954455300209D
:1000F00020202020202020204D414E55414C204DD5
:100100004F44450020202020202020202020415541
:10011000544F204D4F4445002020202020202020F7
:1001200020205345545550204D454E55004F5244C4
:100130004552202020202020202020424545505399
:100140002020202020202020205349474E202020FE
:100150002020202020202043414C49425241544538
:10016000205253534953415645202620455849545F
:100170000020202020202020202020204D41494EFA
:10018000204D454E55004155544F204D4F4445207C
:100190002020202042414E44205343414E4E4552A0
:1001A00020204D414E55414C204D4F4445202020AC
:1001B0004449564552534954592020202020464155
:1001C000564F524954455320202020205345545522
:1001D000502020202020202020204F53443A4F4EF2
:1001E000004745545F53454E5341444A3300474509
:1001F000545F53454E5341444A32004745545F5380
:10020000454E5341444A31004745545F53454E5390
:1002100041444A30004745545F434F4E54524F4C7F
:10022000004745545F53494C454E54004745545F81
:100230004543484F004745545F44454255470047B2
:1002400045545F454E41424C45004745545F4C4F35
:10025000474F004745545F52454652455348004773
:1002600045545F56444554454354004745545F54F4
:10027000494D454F5554004745545F4241554452FE
:10028000415445004745545F56455253494F4E002F
:100290005345545F53454E5341444A3300534554EC
:1002A0005F53454E5341444A32005345545F5345D2
:1002B0004E5341444A31005345545F53454E5341D8
:1002C000444A30005345545F434F4E54524F4C0004
:1002D0005345545F53494C454E54005345545F4574
:1002E00043484F005345545F4445425547005345EA
:1002F000545F454E41424C45005345545F4C4F4777
:100300004F005345545F52454652455348005345AC
:10031000545F56444554454354005345545F544933
:100320004D454F5554005345545F42415544524149
:100330005445005345545F56455253494F4E00446F
:100340005241575253534900445241574D454E551F
:10035000004745545F53454E534F5200505F424152
:100360004E4E455200505F57494E444F5700505F24
:100370005241570043574C0043424C00494E534DA5
:1003800055583200494E534D55583100564F530081
:10039000484F5300534156450044454641554C543F
:1003A00053004C4F41440044554D5000434C45418F
:1003B0005200434C4541525041525400524553451E
:1003C00054004C4953540041424F555400C703C296
:1003D00003BC03B203AC03A703A2039903940390E5
:1003E000038C0384037C03780374036E0365035C4E
:1003F00003510348033F03330326031A030E03028A
:1004000003F902EE02E402DB02D002C402B702AA40
:10041000029D029002840277026B025F0253024A3D
:10042000023F0235022C02210215020802FB01EEF6
:1004300001E10153454E5341444A330053454E5365
:1004400041444A320053454E5341444A31005345DA
:100450004E5341444A3000434F4E54524F4C005388
:10046000494C454E54004543484F0044454255478A
:1004700000454E41424C45004C4F474F00524546C7
:100480005245534800564445544543540054494D41
:10049000454F55540042415544524154450056453C
:1004A0005253494F4E004D415852454753001E008C
:1004B0001000040004000400040004000100010016
:1004C0000100010001000200020002000200A60477
:1004D0009E0495048D0485047D04780471046B04E6
:1004E00066045F0457044E0445043C0433040000D2
:1004F00000080002010000030407000000000000E3
:1005000000000102040810204080010204081020AD
:100510000102040810200404040404040404020278
:10052000020202020303030303030000000023008E
:100530002600290000000000250028002B000000F4
:100540000000240027002A00662811241FBECFEFD8
:10055000D8E0DEBFCDBF16E0A0E0B1E0E8EEFFE5F9
:1005600002C005900D92AC30B107D9F727E0ACE09E
:10057000B6E001C01D92A636B207E1F715E0CAE465
:10058000D5E004C02297FE010E94322CC834D10766
:10059000C9F70E94092A0C94F22F0C94000083E002
:1005A0000E949626892B61F481E10E949626892B70
:1005B00039F48FE00E949626892B11F481E008958A
:1005C00083E00E949626019729F481E10E949626F5
:1005D000892B31F083E00E949626892B69F407C0AD
:1005E0008FE00E949626892BA9F782E0089581E189
:1005F0000E949626019731F083E00E94962601978B
:1006000069F407C08FE00E949626892BA9F783E042
:10061000089581E10E949626019731F083E00E94BF
:100620009626892B69F407C08FE00E949626892BB5
:10063000A9F784E0089581E10E949626892B31F084
:1006400083E00E949626019769F407C08FE00E941C
:1006500096260197A9F785E0089581E10E949626E4
:10066000892B31F083E00E949626892B69F407C01C
:100670008FE00E9496260197A9F786E0089581E110
:100680000E949626019731F083E00E9496260197FA
:1006900069F407C08FE00E9496260197A9F787E0CA
:1006A000089581E10E949626019709F008958FE050
:1006B0000E9496260197D1F788E00895CF930E9473
:1006C000CF02C82F809126068C1759F08C1710F492
:1006D0006BE501C06DE585EC96E00E94F428C093BF
:1006E0002606CF9108958F929F92AF92BF92CF929C
:1006F000DF92EF92FF9280911C0681110DC00E9443
:100700003A25609310067093110680931206909319
:10071000130681E080931C068091140681110DC0A0
:100720000E943A2560930C0670930D0680930E0686
:1007300090930F0681E0809314060E943A256B0186
:100740007C018091100690911106A0911206B09143
:10075000130646015701881A990AAA0ABB0A0E9481
:10076000EC19681579058A059B0550F40E94081F4D
:10077000C0921006D0921106E0921206F092130673
:1007800080910C0690910D06A0910E06B0910F0677
:10079000A7019601281B390B4A0B5B0B2536310547
:1007A0004105510560F00E94071A0E949D1DC092EC
:1007B0000C06D0920D06E0920E06F0920F060E94F3
:1007C0004E20FF90EF90DF90CF90BF90AF909F9022
:1007D0008F900C945E03CF92DF92EF92FF920F9373
:1007E0001F93CF93DF93CDB7DEB768970FB6F8941A
:1007F000DEBF0FBECDBF68EB7BE080E090E00E94E3
:1008000069250E944B240E942A1A81E00E94551EED
:1008100081E00E94A51A81E00E94382426E040E091
:1008200051EE60E070E085EC96E00E94A2270E9405
:10083000081F0E94FE196B017C0116161706180688
:100840001906F4F58CE0E5E8F4E0DE011D96019070
:100850000D928A95E1F78CE0E1E9F4E08E010F5FFB
:100860001F4FD80101900D928A95E1F78DE795E031
:100870009F938F931F9284E18F931F921F92CE01BB
:100880000D969F938F930E94550981E995E09F9360
:100890008F931F9284E08F931F9287E08F931F9313
:1008A0000F930E945509C701B6010E9469251F9246
:1008B0001F920E9415070FB6F894DEBF0FBECDBF82
:1008C0000E94101A811112C00E94131A80FF05C0E5
:1008D00061E085EC96E00E943D270E94131A80FF9C
:1008E00005C064E085EC96E00E943D2762E083E06D
:1008F0000E94272662E081E10E94272662E08FE0C5
:100900000E9427266AE070E080E090E00E9469255E
:100910000E94CF028093260668960FB6F894DEBF39
:100920000FBECDBFDF91CF911F910F91FF90EF9040
:10093000DF90CF9008952F923F924F925F926F92E7
:100940007F928F929F92AF92BF92CF92DF92EF925F
:10095000FF920F931F93CF93DF93FC01EB012A01CA
:10096000390157FF06C0519441945108CC24C394D7
:1009700001C0C12C77FE05C071946194710841E0FB
:1009800001C040E0CC2081F011E01E161F060CF0E3
:1009900010E080910504909106049F01240D351DFF
:1009A000281739071CF001C010E0C12C442389F03E
:1009B000DD24D3941C161D060CF0D12C8091030469
:1009C000909104049E01260D371D281739071CF04D
:1009D00001C0D12C40E0112309F46CC0DD2009F4E2
:1009E0006FC020910504309106045C2F51505203D2
:1009F000C001539F900D11242FEF2E0F820F911DD8
:100A000027FD9A95DC01AA51BE4F23E02C939C014F
:100A100097FF02C0295F3F4F73E0359527957A9580
:100A2000E1F72A533C4F68E070E00E94DB2B61E065
:100A300070E001C0660F8A95EAF7D9018C91862B88
:100A40008C9381E080930704CC20D1F120910504A0
:100A5000309106045C2F51505203C001539F900DFA
:100A60001124242D2E0F820F911D27FD9A95DC0154
:100A7000AA51BE4F24E02C939C0197FF02C0295F2E
:100A80003F4F63E0359527956A95E1F72A533C4F30
:100A900068E070E00E94DB2B61E070E001C0660F4F
:100AA0008A95EAF7D9018C91862B8C9381E080930B
:100AB000070406C0CC2009F4EAC0D110C7CF6FC02C
:100AC000112309F46CC0442309F46FC0209105047C
:100AD000309106045C2F560D5203C001539F900DB8
:100AE00011242FEF2E0F820F911D27FD9A95DC0107
:100AF000AA51BE4F25E02C939C0197FF02C0295FAD
:100B00003F4F53E0359527955A95E1F72A533C4FCF
:100B100068E070E00E94DB2B61E070E001C0660FCE
:100B20008A95EAF7D9018C91862B8C9381E080938A
:100B30000704CC20D1F120910504309106045C2FEC
:100B4000560D5203C001539F900D1124242D2E0FDA
:100B5000820F911D27FD9A95DC01AA51BE4F26E018
:100B60002C939C0197FF02C0295F3F4F03E035950E
:100B700027950A95E1F72A533C4F68E070E00E9400
:100B8000DB2B61E070E001C0660F8A95EAF7D901BE
:100B90008C91862B8C9381E08093070406C0CC2037
:100BA00009F475C04111C7CF02C0111103C0C110B3
:100BB0004DC06DC0E0900504F090060480910704DC
:100BC00000E010E01E01260C371C88248A948E0E4B
:100BD000992487FC9094AA24A394B12C2C2F200F45
:100BE000332727FD30950F5F1F4F221533055CF526
:100BF0002E9DC0012F9D900D3E9D900D1124880DBE
:100C0000991DDC01AA51BE4F22E02C939C0197FF55
:100C100002C0295F3F4FA3E035952795AA95E1F7DC
:100C20002A533C4F68E070E00E94DB2BB50102C004
:100C3000660F771F8A95E2F7CB01D9019C91982B1B
:100C40009C9381E0CBCF80930704B1CF2090050423
:100C5000309006048091070400E010E07E01E60C6D
:100C6000F71C842C8E0E992487FC909462E0C62E8B
:100C7000AA24A394B12C2C2F200F332727FD3095C5
:100C80000F5F1F4F2E153F052CF080930704D110E6
:100C90002BC050C0229DC001239D900D329D900D10
:100CA0001124880D991DDC01AA51BE4FCC929C01E4
:100CB00097FF02C0295F3F4F53E0359527955A951E
:100CC000E1F72A533C4F68E070E00E94DB2BB5014E
:100CD00002C0660F771F8A95E2F7CB01D9019C917C
:100CE000982B9C9381E0C7CF209105043091060496
:100CF0005C2F515052036001539FD00C112420915E
:100D0000070400E010E07F01E40CF51C3324339469
:100D1000B8E0AB2EB12C88248394912C802F8E0FB9
:100D2000992787FD90950F5F1F4F8E159F05F4F053
:100D300020930704442309F465C04C2F460D2091ED
:100D400005043091060442038001439F100D1124D5
:100D50005091070420E030E04E0E5F1E41E068E055
:100D6000E62EF12CCC24C394D12C40C08C0D9D1DBB
:100D7000DC01AA51BE4F3C929C0197FF02C0295F43
:100D80003F4FA3E035952795AA95E1F72A533C4FAD
:100D9000B5010E94DB2BB40102C0660F771F8A9554
:100DA000E2F7CB01D9019C91982B9C9321E0B6CF1F
:100DB000800F911FDC01AA51BE4F4C93EC0197FDAF
:100DC000279653E0D595C7955A95E1F7CA53DC4F5E
:100DD000B7010E94DB2BB60102C0660F771F8A9510
:100DE000E2F7CB019881982B988351E0822F8E0FE8
:100DF000992787FD90952F5F3F4F84159505C4F285
:100E000050930704DF91CF911F910F91FF90EF90C6
:100E1000DF90CF90BF90AF909F908F907F906F901A
:100E20005F904F903F902F900895CF93DF93CDB771
:100E3000DEB74091050450910604209103043091DF
:100E40000404429FC001439F900D529F900D1124B6
:100E500041E050E00197FC01EA51FE4F1082FC0195
:100E6000A3E0F695E795AA95E1F7EA53FC4F9C01BC
:100E700027703327BA0102C0660F771F2A95E2F761
:100E80009B013081322B3083009721F781E08093E2
:100E90000704DF91CF910895CF93DF93CDB7DEB7ED
:100EA000ED81FE81808191810E946E19DF91CF9149
:100EB0000895CF93DF93CDB7DEB7ED81FE816081DA
:100EC0007181828193810E947919DF91CF91089578
:100ED000CF93DF93CDB7DEB7ED81FE816081718165
:100EE000828193810E948319DF91CF910895CF93DE
:100EF000DF93CDB7DEB7ED81FE81608171818281A4
:100F000093810E948D19DF91CF910895CF93DF9344
:100F1000CDB7DEB7ED81FE816081718182819381E1
:100F20000E949719DF91CF910895CF93DF93CDB7AA
:100F3000DEB7ED81FE8160817181828193810E94A3
:100F4000A119DF91CF910895CF93DF93CDB7DEB78D
:100F500081E0ED81FE814081518162817381452B69
:100F6000462B472B09F480E00E94AB19DF91CF910B
:100F70000895CF93DF93CDB7DEB781E0ED81FE8199
:100F80004081518162817381452B462B472B09F4A7
:100F900080E00E94AF19DF91CF910895CF93DF9346
:100FA000CDB7DEB781E0ED81FE8140815181628164
:100FB0007381452B462B472B09F480E00E94B3191F
:100FC000DF91CF910895CF93DF93CDB7DEB781E066
:100FD000ED81FE814081518162817381452B462BD9
:100FE000472B09F480E00E94B719DF91CF91089553
:100FF000CF93DF93CDB7DEB7ED81FE8180810E9474
:10100000BB19DF91CF910895CF93DF93CDB7DEB7B2
:10101000ED81FE81808191810E94BF19DF91CF9186
:101020000895CF93DF93CDB7DEB7ED81FE81808148
:1010300091810E94C519DF91CF910895CF93DF93DD
:10104000CDB7DEB7ED81FE81808191810E94CB1901
:10105000DF91CF910895CF93DF93CDB7DEB7ED81C8
:10106000FE81808191810E94D119DF91CF910895F5
:101070002F923F924F925F926F927F928F929F92A8
:10108000AF92BF92CF92DF92EF92FF920F931F9396
:10109000CF93DF9300D000D0CDB7DEB7E98DFA8DC6
:1010A000C080D180A480B58000851185E484F5845A
:1010B0000E94101A811102C00E940A1A9601D7FEDE
:1010C00002C020E030E06501B7FE02C0C12CD12C87
:1010D000E0910504F091060417FD8F01809103044F
:1010E00090910404F7FC7C012E173F071CF09F0130
:1010F00021503109C816D90624F06C0141E0C41A08
:10110000D1081F01221A330A021513050CF4180125
:101110008C199D09E816F9060CF4C70140910704E3
:10112000CE9E4001CF9E900CDE9E900C1124E12CAF
:10113000F12CB601680F791F7A836983C4018A5143
:101140009E4F9C838B83220E331E69817A81C61643
:10115000D706DCF52701480C591C6B807C806E0C8F
:101160007F1C89010215130554F5C801840D951DD6
:10117000D301A00FB11F1C925C0197FF03C0A7E031
:10118000AA0EB11CB3E0B594A794BA95E1F7A501F6
:101190004A535C4F5A0168E070E00E94DB2B61E02B
:1011A00070E002C0660F771F8A95E2F7CB01D50188
:1011B0009C91982B9C930F5F1F4F41E0D3CFBFEFC3
:1011C000CB1ADB0AEE0EFF1EC0CF4093070481E06E
:1011D0000F900F900F900F90DF91CF911F910F9173
:1011E000FF90EF90DF90CF90BF90AF909F908F9047
:1011F0007F906F905F904F903F902F900895CF9386
:10120000DF93CDB7DEB766E975E085EC96E00E9426
:10121000E72880E00E94D21DDF91CF910895CF93FF
:10122000DF93CDB7DEB70E94101A811102C00E9471
:101230000A1A0E94201BDF91CF910895CF93DF936C
:10124000CDB7DEB70E94101A811102C00E940A1A9F
:1012500080E00E94A51ADF91CF910895CF93DF938C
:10126000CDB7DEB70E94101A811102C00E940A1A7F
:101270000E942A1A81E0DF91CF910895CF93DF93E6
:10128000CDB7DEB70E94101A811102C00E940A1A5F
:1012900080E00E94CE1ADF91CF910895DC01ED919C
:1012A000FC910190F081E02D09942F923F924F9292
:1012B0005F926F927F928F929F92AF92BF92CF92E6
:1012C000DF92EF92FF920F931F93CF93DF93CDB7EF
:1012D000DEB7FE017596A191B1918D909C9011970A
:1012E0001496ED90FC9015976F88788CC280D3800F
:1012F000048115810E94101A81111CC00E940A1AD3
:101300008823C1F05801C501801B910B8C159D05E8
:101310008CF4D5014D905D01552447FC5094C201D9
:101320000E94A12C892B79F3B20185EC96E00E94F2
:101330004E09E9CFF7FC5DC097FC5BC080910304C8
:1013400090910404E816F9060CF053C0A09005042F
:10135000B09006048A149B040CF04BC0860C971CBA
:10136000EA9CF001EB9CF00DFA9CF00D1124780141
:1013700020E030E0E80DF91DBF016A517E4F1B01EE
:1013800068E0662E712C44244394512C41E02C15C6
:101390003D058CF5C901880D991D8A159B055CF5E5
:1013A000CF01820F931FD7015D917D01D101A20F63
:1013B000B31F5C938C0197FF02C0095F1F4F53E07E
:1013C000159507955A95E1F70A531C4FB3010E94F2
:1013D000DB2BB20102C0660F771F8A95E2F7CB01C3
:1013E000D8019C91982B9C93409307042F5F3F4F0B
:1013F000CECF80E001C081E0DF91CF911F910F91AE
:10140000FF90EF90DF90CF90BF90AF909F908F9024
:101410007F906F905F904F903F902F9008952F9204
:101420003F924F925F926F927F928F929F92AF9274
:10143000BF92CF92DF92EF92FF920F931F93CF93C1
:10144000DF93CDB7DEB72C970FB6F894DEBF0FBE93
:10145000CDBFDE019196ED91FD9120812983022F70
:10146000118134813887A32EB580C084D184E28471
:10147000F38444845584668477842BA13CA13C8703
:101480002B8712964D915C9113975A874987149632
:101490006D917C9115977D836C830E94101A811148
:1014A00035C00E940A1A882389F12C803D80C10131
:1014B000EC81FD818E1B9F0B29853A85821793074E
:1014C000FCF4D1018D901D01992487FC9094C401F6
:1014D0000E94A12C892B31F0B40185EC96E00E948A
:1014E0004E09E5CF6EE975E085EC96E00E94E728AD
:1014F00040E150E0B40185EC96E00E949F29D7CFEF
:101500006CE975E085EC96E00E94E728B7FC9CC189
:1015100017FD9AC1C601009709F496C14114510400
:1015200009F492C1420157FE04C08824992484180A
:101530009508A501480D591D5F834E832091030432
:1015400030910404241735070CF47EC1DB82CA8273
:1015500097FF06C0662777276C197D097B836A830E
:101560002A803B80200E311E809105049091060454
:10157000821593050CF468C12B853C85232B31F42F
:101580009201A601B501C8010E949B04D980DA949A
:101590003A81D30E209105043091060440E050E0DA
:1015A000ED2DFF27E7FDF095C884C40E6C2D77273D
:1015B00067FD70958E819F8168177907FCF4629FA3
:1015C000C001639F900D729F900D11244F5F5F4F7C
:1015D0008A519E4FDC01AE0FBF1F6C916111E4CFA9
:1015E00040E050E0D980D40E4F5F5F4FFC01ED0D1D
:1015F000F11DD7FCFA9560816111F4CF4C805D80BC
:10160000AE81BF811197BB83AA83E8E0F0E0662436
:101610006394712C48854150480D35C0629FC001CC
:10162000639F900D729F900D11248D0D911DD7FC1D
:101630009A95DC01AA51BE4F5C938C0197FF02C0C2
:10164000095F1F4FA3E015950795AA95E1F70A5387
:101650001C4FBF010E94DB2BB30102C0660F771F36
:101660008A95E2F7CB01D8019C91982B9C93B1E02D
:10167000B0930704D3948D2D992787FD90958215FB
:10168000930509F4DCC0C2016C817D81861B970B38
:10169000A985BA858A179B070CF0D4C08C2D992791
:1016A00087FD90956E817F818617970709F087C027
:1016B00050910704E12CF12C88858E0D992787FD28
:1016C0009095829F5001839FB00C929FB00C112483
:1016D000AA81BB818A179B07ECF54501820E931EF8
:1016E000C12CD12C69816C0D772767FD7095BFEFF8
:1016F000CB1ADB0A621573054CF5C501860F971FDF
:10170000DB01AA51BE4FA80DB91D5C91DC01AA51A5
:10171000BE4F5C938C0197FF02C0095F1F4F63E0CF
:10172000159507956A95E1F70A531C4FBF010E9472
:10173000DB2BD30102C0AA0FBB1F8A95E2F7CD01B4
:10174000D8019C91982B9C9351E0CCCF6FEFE61A77
:10175000F60AB2CF50930704D980E12CF12C89818D
:101760008E0D992787FD9095BFEFEB1AFB0A821526
:10177000930514F58A0D9B1DDC01AA51BE4F1C92E6
:101780008C0197FF02C0095F1F4F53E01595079525
:101790005A95E1F70A531C4FBF010E94DB2BB3019E
:1017A00002C0660F771F8A95E2F7CB01D8019C91A2
:1017B000982B9C9351E0D3CF50930704C42ED201B1
:1017C0005D912D016C2D772767FD70955D3009F0D7
:1017D00025CF629F7001639FF00C729FF00C112463
:1017E000509107048D2D992787FD909582159305BB
:1017F00024F58E0D9F1DDC01AA51BE4F50E25C9373
:101800008C0197FF02C0095F1F4FB3E01595079544
:10181000BA95E1F70A531C4FBF010E94DB2BB301BD
:1018200002C0660F771F8A95E2F7CB01D8019C9121
:10183000982B9C93D39451E0D5CF50930704C39435
:10184000D98021CF81E001C080E02C960FB6F894BA
:10185000DEBF0FBECDBFDF91CF911F910F91FF90E3
:10186000EF90DF90CF90BF90AF909F908F907F9040
:101870006F905F904F903F902F9008952F923F92DE
:101880004F925F926F927F928F929F92AF92BF9290
:10189000CF92DF92EF92FF920F931F93CF93DF933C
:1018A000CDB7DEB760970FB6F894DEBF0FBECDBFE1
:1018B000FE01B596A191B1913C90032D11961C911A
:1018C000119714962C901497A22C1596BC901597EE
:1018D0001896CD90DD90ED90FC901B971C962D9165
:1018E0003D914D915C911F976FA178A57A83698393
:1018F0008281938198878F83648175817C836B83D8
:101900002D873E874F87588B0E94101A2D853E8564
:10191000811131C00E940A1A2D853E854F85588954
:10192000882349F16B807C80C3016B817C81861B9D
:10193000970BEF81F8858E179F07ECF4F3018190E8
:101940003F01992487FC9094C4012D873E874F87DF
:10195000588B0E94A12C2D853E854F855889892B57
:1019600019F3B40185EC96E00E944E0958894F8521
:101970003E852D85D9CFB7FC62C117FD60C1B60188
:10198000C114D10409F45BC12115310509F457C113
:10199000490137FF04C088249924821A930A25013B
:1019A000480C591C809103049091040484159505FA
:1019B0000CF445C1360177FF04C0662477246C1807
:1019C0007D08B801660D771D7E836D8380910504C7
:1019D00090910604861797070CF431C189819A818A
:1019E000892B29F4A601B501C8010E949B04FF249C
:1019F000FA94F20CF80C809005049090060440E0F4
:101A0000630C5FEF560D8F2D992787FD90958A15F2
:101A10009B0574F1452F889D9001899D300D989DFF
:101A2000300D1124842F992787FD909580179107F9
:101A30000CF407C1FC01EA51FE4FE20FF31F608175
:101A4000611102C04150EECF2D813E8121503109FC
:101A50008217930761F4F3948F2D992787FD909552
:101A60008415950511F4462D03C0432D01C04F5F29
:101A70008F2D992787FD90958A159B0514F4F22CDC
:101A8000432DEB81FC81FA83E9836D817E81615076
:101A900071097A87698728E030E0F2013197FC8785
:101AA000EB87B8016A517E4F3B01680C791C898134
:101AB0009A816B817C81861B970BEF81F8858E174D
:101AC0009F070CF0BAC08F2D992787FD909584153C
:101AD000950509F075C050910704A12CB12CFA2C82
:101AE000F20C0F2D112707FD1095041515050CF0AC
:101AF00064C0089D7001099DF00C189DF00C112424
:101B0000C12CD12C4C2D430D842F992787FD909506
:101B10006FEFC61AD60AE985FA858E179F070CF56E
:101B20008E0D9F1DFC01EA51FE4F41814083FC0157
:101B300097FD379643E0F595E7954A95E1F7EA5327
:101B4000FC4FB9010E94DB2B41E050E002C0440F82
:101B5000551F8A95E2F7CA019081982B908351E036
:101B6000D1CFEB85FC850E171F071CF58E0D9F1D31
:101B7000F301EE0DFF1D5081FC01EA51FE4F508331
:101B8000FC0197FD3796B3E0F595E795BA95E1F737
:101B9000EA53FC4FB9010E94DB2B61E070E002C008
:101BA000660F771F8A95E2F7CB019081982B90837F
:101BB00051E07FEFA71AB70A92CF50930704FA9427
:101BC0005F2DB4015603C001579F900D1124840F5F
:101BD000911D47FD9A95E981FA815191FA83E98334
:101BE000FC01EA51FE4F5083FC0197FD3796A3E0BC
:101BF000F595E795AA95E1F7EA53FC4FB9010E94E4
:101C0000DB2B61E070E002C0660F771F8A95E2F778
:101C1000CB019081982B908371E0709307044F5F04
:101C2000842F992787FD9095ED81FE818E179F0760
:101C300009F03DCFF394432D3ACF81E004C080E01A
:101C400002C0FA94E0CE60960FB6F894DEBF0FBEE5
:101C5000CDBFDF91CF911F910F91FF90EF90DF905B
:101C6000CF90BF90AF909F908F907F906F905F903C
:101C70004F903F902F9008958091250690912406D3
:101C8000981781F08093240681E00E94551E80E021
:101C90000E94D21D0E94081F64E670E080E090E080
:101CA0000C94692508952F923F924F925F926F9204
:101CB0007F928F929F92AF92BF92CF92DF92EF92DC
:101CC000FF920F931F93CF93DF93CDB7DEB7CC5B1B
:101CD000D1090FB6F894DEBF0FBECDBFCF52DF4F94
:101CE000C880D980C15DD0401F921F920E94150705
:101CF0007E0183EBE80EF11C80E8F70180831182FE
:101D0000109225060E943C0EF6010081118124806C
:101D1000358046805780F085CB54DF4FF883C55B14
:101D2000D040F601F185CA54DF4FF883C65BD0403E
:101D3000F601F285C954DF4FF883C75BD040F60146
:101D4000F385C854DF4FF883C85BD0400F900F90E5
:101D50000115110509F063C09E012F573F4F80E127
:101D6000EDE9F4E0D90101900D928A95E1F76E0159
:101D700081E9C80ED11C8CE0EDEAF4E0D6010190B7
:101D80000D928A95E1F74E0191E7890E911C80E151
:101D9000E9EBF4E0D40101900D928A95E1F766E851
:101DA00071E0FE0131965F01CF01C554DF4F2883FA
:101DB000CB5BD040C454DF4F3883CC5BD0400E9413
:101DC000C32C3E01FCE56F0E711C61E771E0C3019D
:101DD0000E94C32CD201C1010396A11DB11DF601C1
:101DE00084839583A683B783FF92EF921F9281E04D
:101DF0008F931F921F92DF92CF920E9455097F927C
:101E00006F921F9285E18F931F921F929F928F92E4
:101E10000E943E0CBF92AF921F928BE565C00130CD
:101E2000110509F078C09E012F573F4F80E1E9EC82
:101E3000F4E0D90101900D928A95E1F76E0191E9E4
:101E4000C90ED11C8CE0EDEAF4E0D60101900D92B0
:101E50008A95E1F74E01E1E78E0E911C80E1E9EBF6
:101E6000F4E0D40101900D928A95E1F76DE271E002
:101E7000CE0101963C01C554DF4F2883CB5BD04097
:101E8000C454DF4F3883CC5BD0400E94C32C5E012A
:101E90009CE5A90EB11C68E171E0C5010E94C32C4C
:101EA000D201C1010396A11DB11DF6018483958362
:101EB000A683B783FF92EF921F9281E08F931F92C8
:101EC0001F92DF92CF920E945509BF92AF921F924C
:101ED00085E18F931F921F929F928F920E943E0CDA
:101EE0007F926F921F9284E48F931F921F92C5542A
:101EF000DF4F2881CB5BD040C454DF4F3881CC5BAF
:101F0000D0403F932F930E940F0A0FB6F894DEBF84
:101F10000FBECDBFACC10230110509F064C04E0147
:101F200091E7890E911C80E1E9EDF4E0D401019084
:101F30000D928A95E1F77E01ECE5EE0EF11C80E151
:101F4000E9EBF4E0D70101900D928A95E1F75E018B
:101F5000F1E8AF0EB11C8CE0E9EEF4E0D5010190A0
:101F60000D928A95E1F764E071E0CE0101966C0173
:101F70000E94C32C5F924F923F922F9282EA95E08B
:101F80009F938F933E0191E9690E711C7F926F922E
:101F90000E940B2D86EA95E09F938F931F9289E014
:101FA0008F931F921F92BF92AF920E945509DF92AA
:101FB000CF921F9284E18F931F921F92FF92EF9214
:101FC0000E943E0C7F926F921F9285E08F931F922A
:101FD0001F929F928F920E940F0A0FB6F894DEBF55
:101FE0000FBECDBF56C10330110509F05FC08E0191
:101FF0000F581F4F80E1E9EDF4E0D80101900D92F8
:102000008A95E1F77E01FCE5EF0EF11C80E1E9EB3A
:10201000F4E0D70101900D928A95E1F75E0181E825
:10202000A80EB11C8CE0E9EEF4E0D50101900D9210
:102030008A95E1F76FEE70E0FE0131966F01CF01F6
:102040000E94C32C5F924F923F922F9282EA95E0BA
:102050009F938F934E01F1E98F0E911C9F928F9267
:102060000E940B2D86EA95E09F938F931F9289E043
:102070008F931F921F92BF92AF920E945509DF92D9
:10208000CF921F9285E18F931F921F92FF92EF9242
:102090000E943E0C9F928F921F9285E08F931F9219
:1020A0001F921F930F930E940F0A2EC10430110537
:1020B00009F0DDC08E010F581F4F80E1E9EDF4E01B
:1020C000D80101900D928A95E1F77E019CE5E90E19
:1020D000F11C80E1E9EBF4E0D70101900D928A95C3
:1020E000E1F75E01EDE9AE0EB11C8CE0EDEAF4E043
:1020F000D50101900D928A95E1F79E012F563F4F31
:102100008CE0E5EFF4E0D90101900D928A95E1F7BA
:10211000AE014F575F4F8CE0E1E0F5E0DA0101904E
:102120000D928A95E1F76AED70E0CE0101966C019F
:10213000C554DF4F2883CB5BD040C454DF4F388376
:10214000CC5BD040C754DF4F4883C95BD040C654F6
:10215000DF4F5883CA5BD0400E94C32C5F924F92DE
:102160003F922F9252EA652E55E0752E7F926F9224
:102170004E019EEA890E911C9F928F920E940B2D18
:10218000C854DF4FE881C85BD040EF93C954DF4F9C
:10219000F881C75BD040FF93CA54DF4F8881C65B8C
:1021A000D0408F93CB54DF4F9881C55BD0409F9335
:1021B0007F926F923E01E9EA6E0E711C7F926F92E0
:1021C0000E940B2D80EB95E09F938F931F9286E1E9
:1021D0008F931F921F92BF92AF920E945509DF9278
:1021E000CF921F9285E18F931F921F92FF92EF92E1
:1021F0000E943E0C0FB6F894DEBF0FBECDBF9F927B
:102200008F921F9285E08F931F921F921F930F93BF
:102210000E940F0A87EC95E09F938F931F928BE0AB
:102220008F931F921F92C554DF4F2881CB5BD04004
:10223000C454DF4F3881CC5BD0403F932F930E9432
:1022400055097F926F921F9282E08F931F921F9287
:10225000C754DF4F4881C95BD040C654DF4F588117
:10226000CA5BD0405F934F930E9455094DC00F3F0A
:10227000FFEF1F0771F48E01045A1F4F80E1EDE05C
:10228000F5E0D80101900D928A95E1F76EEB70E0D0
:102290002BC00E3FFFEF1F07B9F48E01045A1F4FEA
:1022A00080E1EDE0F5E0D80101900D928A95E1F72B
:1022B00064EA70E0CE0101967C010E94C32CFF927B
:1022C000EF921F928AE119C00D3F1F4F11F58E0149
:1022D000045A1F4F80E1EDE0F5E0D80101900D9226
:1022E0008A95E1F768E870E0CE0101967C010E94D2
:1022F000C32CFF92EF921F928CE18F931F921F923B
:102300001F930F930E943E0C0FB6F894DEBF0FBED2
:10231000CDBF81E0C454DF4F0FB6F894DEBF0FBECF
:10232000CDBFDF91CF911F910F91FF90EF90DF9084
:10233000CF90BF90AF909F908F907F906F905F9065
:102340004F903F902F9008951F93CF93DF93CDB779
:10235000DEB70E94101A811104C00E94131A80FD7A
:1023600010C010E00E94D719BC0185EC96E00E94D5
:10237000E728112369F063E085EC96E00E943D2791
:1023800007C062E085EC96E00E943D2711E0EACFAD
:1023900081E0DF91CF911F9108951F93CF93DF9339
:1023A000CDB7DEB70E94101A811104C00E94131A23
:1023B00080FD13C010E00E94DA19AB01BC012AE0D5
:1023C00030E085EC96E00E94A729112369F063E0D4
:1023D00085EC96E00E943D2707C062E085EC96E020
:1023E0000E943D2711E0E7CF81E0DF91CF911F915F
:1023F00008951F93CF93DF93CDB7DEB70E94101AD5
:10240000811104C00E94131A80FD13C010E00E94C5
:10241000E319AB01BC012AE030E085EC96E00E94B4
:10242000A729112369F063E085EC96E00E943D271F
:1024300007C062E085EC96E00E943D2711E0E7CFFF
:1024400081E0DF91CF911F9108951F93CF93DF9388
:10245000CDB7DEB70E94101A811104C00E94131A72
:1024600080FD13C010E00E94EC19AB01BC012AE012
:1024700030E085EC96E00E94A729112369F063E023
:1024800085EC96E00E943D2707C062E085EC96E06F
:102490000E943D2711E0E7CF81E0DF91CF911F91AE
:1024A00008951F93CF93DF93CDB7DEB70E94101A24
:1024B000811104C00E94131A80FD13C010E00E9415
:1024C000F519AB01BC012AE030E085EC96E00E94F2
:1024D000A729112369F063E085EC96E00E943D276F
:1024E00007C062E085EC96E00E943D2711E0E7CF4F
:1024F00081E0DF91CF911F9108951F93CF93DF93D8
:10250000CDB7DEB70E94101A811104C00E94131AC1
:1025100080FD13C010E00E94FE19AB01BC012AE04F
:1025200030E085EC96E00E94A729112369F063E072
:1025300085EC96E00E943D2707C062E085EC96E0BE
:102540000E943D2711E0E7CF81E0DF91CF911F91FD
:1025500008951F93CF93DF93CDB7DEB70E94101A73
:10256000811104C00E94131A80FD13C010E00E9464
:10257000071A682F70E04AE050E085EC96E00E9470
:102580009F29112369F063E085EC96E00E943D27C6
:1025900007C062E085EC96E00E943D2711E0E7CF9E
:1025A00081E0DF91CF911F9108951F93CF93DF9327
:1025B000CDB7DEB70E94101A811104C00E94131A11
:1025C00080FD13C010E00E940A1A682F70E04AE0F4
:1025D00050E085EC96E00E949F29112369F063E0AA
:1025E00085EC96E00E943D2707C062E085EC96E00E
:1025F0000E943D2711E0E7CF81E0DF91CF911F914D
:1026000008951F93CF93DF93CDB7DEB70E94101AC2
:10261000811104C00E94131A80FD13C010E00E94B3
:102620000D1A682F70E04AE050E085EC96E00E94B9
:102630009F29112369F063E085EC96E00E943D2715
:1026400007C062E085EC96E00E943D2711E0E7CFED
:1026500081E0DF91CF911F9108951F93CF93DF9376
:10266000CDB7DEB70E94101A811104C00E94131A60
:1026700080FD13C010E00E94101A682F70E04AE03D
:1026800050E085EC96E00E949F29112369F063E0F9
:1026900085EC96E00E943D2707C062E085EC96E05D
:1026A0000E943D2711E0E7CF81E0DF91CF911F919C
:1026B00008951F93CF93DF93CDB7DEB70E94101A12
:1026C000811104C00E94131A80FD12C010E00E9404
:1026D000131A4AE050E0682F85EC96E00E94B42976
:1026E000112369F063E085EC96E00E943D2707C066
:1026F00062E085EC96E00E943D2711E0E8CF81E0A2
:10270000DF91CF911F9108951F93CF93DF93CDB7A2
:10271000DEB70E94101A811104C00E94131A80FDB6
:1027200012C010E00E94161A4AE050E0BC0185EC8D
:1027300096E00E94BB29112369F063E085EC96E0E6
:102740000E943D2707C062E085EC96E00E943D278D
:1027500011E0E8CF81E0DF91CF911F9108951F93A1
:10276000CF93DF93CDB7DEB70E94101A811104C05A
:102770000E94131A80FD12C010E00E941B1A4AE04A
:1027800050E0BC0185EC96E00E94BB29112369F062
:1027900063E085EC96E00E943D2707C062E085EC8F
:1027A00096E00E943D2711E0E8CF81E0DF91CF91D4
:1027B0001F9108951F93CF93DF93CDB7DEB70E948B
:1027C000101A811104C00E94131A80FD12C010E07B
:1027D0000E94201A4AE050E0BC0185EC96E00E947D
:1027E000BB29112369F063E085EC96E00E943D2748
:1027F00007C062E085EC96E00E943D2711E0E8CF3B
:1028000081E0DF91CF911F9108951F93CF93DF93C4
:10281000CDB7DEB70E94101A811104C00E94131AAE
:1028200080FD12C010E00E94251A4AE050E0BC0171
:1028300085EC96E00E94BB29112369F063E085ECEA
:1028400096E00E943D2707C062E085EC96E00E947A
:102850003D2711E0E8CF81E0DF91CF911F910895EE
:102860008F929F92AF92BF92CF92DF92EF92FF92A0
:102870000F931F93CF93DF93CDB7DEB7A6970FB615
:10288000F894DEBF0FBECDBFEDA9FEA98081918176
:102890000E94F2236B017C012FE632E143E85AEB00
:1028A0000E94192A87FD1DC10E94101A811104C0BF
:1028B0000E94131A80FD17C180EE8DA31EA281EE27
:1028C0008BA31CA282EE89A31AA283EE8F8F18A27B
:1028D00084EE8D8F1E8E85EE8B8F1C8E86EE898FFB
:1028E0001A8E8CE0EDE1F5E0DE011D9601900D926F
:1028F0008A95E1F78CE0E9E2F5E09E012F5F3F4F1A
:102900004901D90101900D928A95E1F720E030E06C
:1029100040E05FE3C701B6010E94682B20E030E091
:1029200048EC52E40E94682B0E94852A1F921F9255
:102930001F9224E62F93A12CB12C650114EAE12EFD
:10294000FF24F39400E010E020E431E040E050E0A8
:102950000E94C1296B017C01DC01CB0185559109E5
:10296000A109B1090F900F900F900F904097A1050A
:10297000B105A0F4CE014B969F938F931F9281E0F7
:102980008F931F921F92CE010D969F938F930E945B
:1029900055090FB6F894DEBF0FBECDBFD701C601F3
:1029A00086549109A109B1090F97A105B105A0F4B9
:1029B000CE014D969F938F931F9281E08F931F922C
:1029C0001F92CE010D969F938F930E9455090FB6CB
:1029D000F894DEBF0FBECDBFD701C6018897A1090D
:1029E000B1094E97A105B105A0F4CE014F969F9372
:1029F0008F931F9281E08F931F921F92CE010D96AD
:102A00009F938F930E9455090FB6F894DEBF0FBEB7
:102A1000CDBFD701C6014D97A109B1090B97A105FB
:102A2000B105A0F4CE0181969F938F931F9281E010
:102A30008F931F921F92CE010D969F938F930E94AA
:102A400055090FB6F894DEBF0FBECDBFD701C60142
:102A50000E97A109B1094197A105B105A0F4CE01D6
:102A600083969F938F931F9281E08F931F921F9263
:102A7000CE010D969F938F930E9455090FB6F8943F
:102A8000DEBF0FBECDBF9FE0C916D104E104F10443
:102A9000A0F4CE0185969F938F931F9281E08F9330
:102AA0001F921F92CE010D969F938F930E945509FE
:102AB0000FB6F894DEBF0FBECDBFCE0149969F93EF
:102AC0008F931F9281E08F931F921F929F928F92FC
:102AD0000E9455090FB6F894DEBF0FBECDBF81E04E
:102AE0000DC080E00BC062E085EC96E00E943D27BF
:102AF00063E085EC96E00E943D27DECEA6960FB6F9
:102B0000F894DEBF0FBECDBFDF91CF911F910F9123
:102B1000FF90EF90DF90CF90BF90AF909F908F90FD
:102B200008952F923F924F925F926F927F928F9271
:102B30009F92AF92BF92CF92DF92EF92FF920F934C
:102B40001F93CF93DF93CDB7DEB7C857D1090FB628
:102B5000F894DEBF0FBECDBFC357DF4F0881198188
:102B6000CD58D04081E0809325060E943C0EF801AC
:102B70000190F081E02DE796FFAFEEAFE797F80107
:102B80000480F581E02DE996FFAFEEAFE997F801FB
:102B900040848FEF840D823030F41F921F920E9488
:102BA00015070F900F903E01FBE56F0E711C82ED33
:102BB000F301808311821E01F9E52F0E311C81ED96
:102BC000F101808311829E01295A3F4F6F963FAFDA
:102BD0002EAF6F9788EC68968FAF689769961FAE97
:102BE0006997CE018B5A9F4FA1969FAF8EAFA19749
:102BF00089EC66968FAF669767961FAE67974E0112
:102C000093E5890E911C8AECF40180831182265091
:102C10003109A3963FAF2EAFA3978BEC62968FAF8F
:102C2000629763961FAE6397CE01815B9F4FA59617
:102C30009FAF8EAFA5978CEC60968FAF6097619633
:102C40001FAE61973697A796FFAFEEAFA7978DECB3
:102C50002E968FAF2E972F961FAE2F9726503109A5
:102C6000A9963FAF2EAFA99788ED2C968FAF2C97E2
:102C70002D961FAE2D97CE01875B9F4FAB969FAFD2
:102C80008EAFAB9789ED2A968FAF2A972B961FAE02
:102C90002B973697AD96FFAFEEAFAD978AED28969E
:102CA0008FAF289729961FAE299726503109AF96E6
:102CB0003FAF2EAFAF978BED26968FAF2697279617
:102CC0001FAE2797CE018D5B9F4FE1969FAF8EAFD2
:102CD000E1978CED24968FAF249725961FAE25970C
:102CE0003697E396FFAFEEAFE3978DED22968FAF69
:102CF000229723961FAE23978CE0E5E3F5E0DE01F3
:102D0000D19601900D928A95E1F78CE0E1E4F5E02F
:102D1000DE01959601900D928A95E1F78CE0EDE445
:102D2000F5E0DE01599601900D928A95E1F78CE06D
:102D3000E9E5F5E0DE011D9601900D928A95E1F737
:102D40008CE0E5E6F5E024543109E5963FAF2EAF7F
:102D5000E597D90101900D928A95E1F71F921F9294
:102D60001F9235E03F93A12CB12C650114E6E12EB2
:102D7000F12C00E010E021E030E040E050E0E79688
:102D8000EEADFFADE797BF01882777FD8095982FBF
:102D90000E94C129562E1F921F921F92F5E0FF93A9
:102DA00021E030E040E050E0E996EEADFFADE9977C
:102DB000BF01882777FD8095982F0E94C129162F83
:102DC0000FB6F894DEBF0FBECDBFCE01859632E0C0
:102DD000531651F1351584F05520F1F0E1E05E1203
:102DE00037C0A1963FADA1973F93A096EFADA097B6
:102DF000EF931F925F923FC0F4E05F1601F15F1600
:102E0000B4F025E0521224C0A7963FADA7973F9398
:102E1000A696EFADA6971AC06F963FAD6F973F93FA
:102E20006E96EFAD6E9712C09F928F9221C0A396BF
:102E3000EFADA397EF93A296FFADA29718C0A5960A
:102E40003FADA5973F93A496EFADA497EF9310C025
:102E500031E0431205C09F928F921F924F920BC098
:102E60006F96EFAD6F97EF936E96FFAD6E97FF93F2
:102E70001F9221E02F931F921F929F938F930E9486
:102E800055090FB6F894DEBF0FBECDBFCE014996EF
:102E9000FE013D967F01123031F17CF41123D1F017
:102EA0001130C9F5AB96EFADAB97EF93AA96FFAD96
:102EB000AA97FF931F921F9353C0143021F1DCF0A7
:102EC000153049F5E3963FADE3973F93E296EFADBA
:102ED000E29742C0A996FFADA997FF93A8962FADA0
:102EE000A8972F933AC0AD963FADAD973F93AC9660
:102EF000EFADAC9731C0AF963FADAF973F93AE9675
:102F0000EFADAE9729C0E1963FADE1973F93E096D4
:102F1000EFADE09721C032E0431217C0AD96EFADA0
:102F2000AD97EF93AC96FFADAC97FF931F9221E066
:102F30002F931F921F929F938F930E9455090FB654
:102F4000F894DEBF0FBECDBF54C0A9963FADA99780
:102F50003F93A896EFADA897EF931F9221E02F9390
:102F60001F921F929F938F930E9455090FB6F8945A
:102F7000DEBF0FBECDBF31E043123BC07F926F92E8
:102F80001F924F921F921F92FF92EF920E9455093B
:102F90003F922F921F924F921F921F92E5968FADF4
:102FA000E5978F93E4969FADE4979F930E94550910
:102FB0000FB6F894DEBF0FBECDBFE7962EAD3FAD86
:102FC000E7972F313105E4F583ED95E09F938F93DB
:102FD0001F928CE08F931F921F92CE01C1969F93F8
:102FE0008F930E9455090FB6F894DEBF0FBECDBF78
:102FF00027C07F926F921F92992493949F921F9261
:103000001F92E5969FADE5979F93E496EFADE49709
:10301000EF930E9455093F922F921F929F921F9209
:103020001F92FF92EF920E9455090FB6F894DEBFEF
:103030000FBECDBFE9968EAD9FADE9974F9724F2B5
:10304000FE01FD961082118212821382FF93EF938C
:103050000E9430140F900F9081E0C858DF4F0FB6D8
:10306000F894DEBF0FBECDBFDF91CF911F910F91BE
:10307000FF90EF90DF90CF90BF90AF909F908F9098
:103080007F906F905F904F903F902F900895CF93D7
:10309000DF93CDB7DEB70E94101A811102C00E94E3
:1030A0000A1A0E94101A81110EC00E94131A80FF82
:1030B0000AC062E085EC96E00E943D2763E085EC63
:1030C00096E00E943D2781E0DF91CF910895FF9225
:1030D0000F931F93CF93DF93CDB7DEB760970FB6F3
:1030E000F894DEBF0FBECDBF0E94101A811102C03E
:1030F0000E940A1A0E94101A811124C00E94131AF9
:1031000080FF20C062E085EC96E00E943D27FF240E
:10311000F3940DEC13E0F8016591749140E150E0F7
:10312000CE0101960E94CA2C0E5F1F4F84E003332C
:10313000180789F7FF2041F063E085EC96E00E94D4
:103140003D2702C0F12CE5CF81E060960FB6F894E0
:10315000DEBF0FBECDBFDF91CF911F910F91FF90CA
:1031600008950E94101A81110EC00E94131A80FF48
:103170000AC062E085EC96E00E943D2763E085ECA2
:1031800096E00C943D2708950F931F93CF93DF9300
:10319000CDB7DEB7EF81F885008111810E94101A4A
:1031A000811102C00E940A1AC8010E94F31F0E94E6
:1031B000B11881E0DF91CF911F910F9108950F9386
:1031C0001F93CF93DF93CDB7DEB7EF81F8850081F2
:1031D00011810E94101A811102C00E940A1AC801AE
:1031E0000E9402200E94B11881E0DF91CF911F91CF
:1031F0000F9108950F931F93CF93DF93CDB7DEB751
:10320000EF81F885008111810E94101A811102C09E
:103210000E940A1AC8010E9411200E94B11881E080
:10322000DF91CF911F910F9108950F931F93CF932B
:10323000DF93CDB7DEB7EF81F885008111810E9461
:10324000101A811102C00E940A1AC8010E9420208F
:103250000E94B11881E0DF91CF911F910F910895E5
:10326000FF920F931F93CF93DF93CDB7DEB7E8851F
:10327000F985F080048115810E94101A811102C025
:103280000E940A1AB8018F2D0E942F200E94B118A7
:1032900081E0DF91CF911F910F91FF900895FF92F0
:1032A0000F931F93CF93DF93CDB7DEB7E885F985F2
:1032B000F080048115810E94101A811102C00E94C1
:1032C0000A1AB8018F2D0E9433200E94B11881E0A4
:1032D000DF91CF911F910F91FF9008954FE050E043
:1032E000BC0189E496E00E94E72C1092580681E028
:1032F00008956093590670935A0680935B069093E5
:103300005C0681E0089560935D0670935E0680938D
:103310005F069093600681E0089560936106709364
:103320006206809363069093640681E0089560933B
:10333000650670936606809367069093680681E041
:1033400008956093690670936A0680936B06909364
:103350006C0681E0089580936D0681E00895809366
:103360006E0681E0089580936F0681E00895809352
:10337000700681E008958093710681E0089590932E
:1033800073068093720681E008959093750680938A
:10339000740681E00895909377068093760681E025
:1033A0000895909379068093780681E0089589E4E2
:1033B00096E008956091590670915A0680915B06D7
:1033C00090915C06089560915D0670915E06809113
:1033D0005F069091600608956091610670916206A3
:1033E00080916306909164060895609165067091DE
:1033F0006606809167069091680608956091690657
:1034000070916A0680916B0690916C060895809188
:103410006D06089580916E06089580916F06089557
:1034200080917006089580917106089580917206CA
:103430009091730608958091740690917506089591
:103440008091760690917706089580917806909104
:10345000790608950F931F93CF93DF93CDB7DEB70F
:103460006E970FB6F894DEBF0FBECDBF8EE1E2E6D9
:10347000F4E0DE01119601900D928A95E1F70BE2DE
:1034800016E08EE1FE013196D80101900D928A95E9
:10349000E1F786ED91E00E946E1980E895E2A0E0E8
:1034A000B0E0F80186A797A7A0ABB1AB80E197E2A7
:1034B000A0E0B0E082AB93ABA4ABB5AB88EE93E0F9
:1034C000A0E0B0E086AB97ABA0AFB1AF84E690E0F0
:1034D000A0E0B0E082AF93AFA4AFB5AF80ED97E0CE
:1034E000A0E0B0E08093690690936A06A0936B0613
:1034F000B0936C0681E080936D0610926E06809307
:103500006F061092700683E08093710689EF93E452
:10351000909373068093720680E29EE49093750602
:10352000809374069093770680937606909379063D
:10353000809378066E960FB6F894DEBF0FBECDBFAF
:10354000DF91CF911F910F910895FF920F931F93D9
:10355000CF93DF93F82E0BE216E0C0E0D0E0CE016F
:103560000E94FF2EF80181938F012196CF34D1055F
:10357000B1F7FF2051F066ED71E089E496E00E941A
:10358000DE2C892B11F00E942A1A8BE296E0DF9143
:10359000CF911F910F91FF900C94CC1ECF92DF9290
:1035A000FF920F931F93CF93DF931F92CDB7DEB798
:1035B0008BE296E00E94A61EF82E8823B9F13BE22A
:1035C000C32E36E0D32E00E010E0F60161916F01CA
:1035D000C80169830E94FF2E6981681711F1C80133
:1035E0000E94072F409127065091280660912906D6
:1035F00070912A064F5F5F4F6F4F7F4F40932706B2
:10360000509328066093290670932A06CB01BA01CD
:1036100024E096958795779567952A95D1F70E942E
:1036200069250F5F1F4F0F34110579F68F2D0F900D
:10363000DF91CF911F910F91FF90DF90CF90089570
:10364000FF920F931F93CF93DF93CDB7DEB76097B1
:103650000FB6F894DEBF0FBECDBF8091700681110A
:1036600004C08091710680FD19C08BE296E00E9433
:10367000A61EF82E8823C1F00EEC14E084E00E3E66
:10368000180791F0F8016591749140E150E0CE0186
:1036900001960E94CA2C0E5F1F4FF0CF62E085ECAE
:1036A00096E00E943D27E1CF8F2D60960FB6F894EB
:1036B000DEBF0FBECDBFDF91CF911F910F91FF9065
:1036C00008958EBD00000DB407FEFDCF8EB50895A0
:1036D0000E94611B8FEF0C94611BCF93DF931F92AD
:1036E000CDB7DEB769830E94681B90E0698102C094
:1036F000959587956A95E2F781700F90DF91CF914C
:103700000895CF93DF931F92CDB7DEB769830E94F0
:10371000611B6981862F0F90DF91CF910C94611B03
:103720000F931F93CF93DF9300D0CDB7DEB78C01FB
:1037300080684A8369830E94681B4A81698121E00D
:1037400030E0062E01C0220F0A94EAF7442319F054
:10375000682F622B03C0622F60956823C8010F9009
:103760000F90DF91CF911F910F910C94811B8F923D
:103770009F92AF92BF92CF92DF92EF92FF920F9300
:103780001F93CF93DF936C014B01F42E122FEE2089
:1037900021F060E086E00E94602656016894A7F858
:1037A000C5010E94681B212F90E0E1E0F0E00217C4
:1037B00048F0DF01022E01C0AA0F0A94EAF79A2B03
:1037C0002F5FF5CFE92FE823F0E0012E02C0F59539
:1037D000E7950A94E2F7E401CE0FD11DD7FF02C0AE
:1037E000C0E0D0E04F2D50E04C175D070CF4EA012B
:1037F0008928A9F09E01012E01C0220F0A94EAF740
:10380000992E90949822922A692DC6010E94811BBC
:10381000C5010E94681B891511F0CFEFDFEFEE2084
:1038200021F061E086E00E946026CE01DF91CF9119
:103830001F910F91FF90EF90DF90CF90BF90AF90CE
:103840009F908F9008957F928F929F92AF92BF9298
:10385000CF92DF92EF92FF920F931F93CF93DF935C
:10386000862E742EF22E87FD06C0082F80310CF0B4
:1038700068C0C82E03C08FE0C82E00E060E086E07C
:103880000E946026C0E0D0E010E0A02EB12CD12C28
:10389000992487FC9094FE01EA0DFB1DCE16DF06ED
:1038A0000CF449C0E031F10508F042C0EC5CFF4F78
:1038B0000C94302C81E190E02CC082E190E029C092
:1038C00083E190E026C084E190E023C085E190E0B0
:1038D00020C086E190E01DC087E190E01AC088E139
:1038E00090E017C089E190E014C08AE190E011C037
:1038F0008BE190E00EC08CE190E00BC08DE190E098
:1039000008C08EE190E005C08FE190E002C080E148
:1039100090E01F3F69F0E12C0F2D272D43E0B4010B
:103920000E94B71B87FD04C018171CF4182F01C094
:103930001FEF2196B0CF61E086E00E946026812FC4
:1039400001C08FEFDF91CF911F910F91FF90EF900A
:10395000DF90CF90BF90AF909F908F907F90089511
:10396000AF92BF92CF92DF92EF92FF920F931F938D
:10397000CF93DF9380910704882309F484C080915A
:103980008106811180C081E0809381061092070436
:1039900060E086E00E94602640E066E084E090E01F
:1039A0000E94901B40E065E084E090E00E94901B44
:1039B00040E064E084E090E00E94901B40E063E01F
:1039C00084E090E00E94901B40E060E085E090E0A1
:1039D0000E94901B209103043091040480910504FF
:1039E00090910604289F6001299FD00C389FD00C2D
:1039F0001124C0E0D0E0AA24A394B12CCC15DD059D
:103A0000E1F1C11581E0D80731F441E060E085E0E3
:103A100090E00E94901B8E0193E0169507959A9571
:103A2000E1F77E0197E0E922FF240A531C4FF801D9
:103A3000808190E00E2C02C0959587950A94E2F75C
:103A400080FF19C06C2F86E090E00E94811BFE0170
:103A5000EA51FE4F608187E090E00E94811BC50122
:103A600002C0880F991FEA94E2F77C01E094F80104
:103A70008081E822E0822196C1CF61E086E00E9449
:103A800060261092810681E0DF91CF911F910F9106
:103A9000FF90EF90DF90CF90BF90AF9008958F92FE
:103AA0009F92AF92BF92CF92DF92EF92FF9280915E
:103AB000820681110DC00E943A2560937D067093A5
:103AC0007E0680937F069093800681E08093820635
:103AD00078940E943A256B017C0180917D0690913B
:103AE0007E06A0917F06B091800646015701881A94
:103AF000990AAA0ABB0A0E94F519681579058A0570
:103B00009B0590F4C0927D06D0927E06E0927F06DF
:103B1000F0928006FF90EF90DF90CF90BF90AF9033
:103B20009F908F900C94B01CFF90EF90DF90CF90FF
:103B3000BF90AF909F908F900895CF93DF93D82F31
:103B400060E086E00E94602663E080E890E00E94EA
:103B50006D1B8D17F1F00E94101A811102C00E9496
:103B60000A1A80E890E00E94681BC82FDD2311F03C
:103B7000C86001C0C77F6C2F80E090E00E94811B6D
:103B800080E890E00E94681BD1E08C1719F0D0E02B
:103B900001C0D1E061E086E00E9460268D2FDF91B8
:103BA000CF910895CF93DF9360E086E00E94602676
:103BB00066E080E890E00E946D1BC82F41E061E064
:103BC00080E090E00E94901B61E070E080E090E077
:103BD0000E94692566E08FEA90E00E946D1B8111CA
:103BE000F3CF61E086E00E9460260E94071A0E94DF
:103BF0009D1DD82F66E080E890E00E946D1B8C1719
:103C000071F060E086E00E9460264C2F66E080E064
:103C100090E00E94901B61E086E00E94602660E0D8
:103C200086E00E94602680912506882341F041E0CD
:103C300065E080E090E00E94901B40E007C040E01B
:103C400065E080E090E00E94901B41E064E080E04D
:103C500090E00E94901B61E086E00E94602620E0D8
:103C600030E061E070E0F90143E0F695E7954A95B0
:103C7000E1F7EA53FC4FA90147705527CB0102C079
:103C8000880F991F4A95E2F7AC019081942B90839D
:103C90002F5F3F4F203E91E0390729F781E0809365
:103CA00007048D2FDF91CF910895CF93C82F61E046
:103CB0008AE00E94272661E086E00E94272661E0D4
:103CC0008BE00E94272660E08CE00E94272661E0BE
:103CD0008DE00E94272660E082E00E94272660E0B7
:103CE0008AE00E94602664E670E080E090E00E9436
:103CF000692561E08AE00E94602664E670E080E069
:103D000090E00E94692561E082E00E94602642E026
:103D100050E06FE47DE180E00E9482246BE470E07B
:103D200080E090E00E94692560E086E00E946026C5
:103D300040E064E08CE690E00E94901B61E086E049
:103D40000E9460268C2FCF910C94D21D0F931F934D
:103D5000CF93DF938C010097C9F060E086E00E946A
:103D60006026C8E0D4E08881998180680E94681B41
:103D7000F80181938F012396F4E0C236DF0799F7AB
:103D800061E086E00E94602681E001C080E0DF9172
:103D9000CF911F910F910895DF92EF92FF920F93B1
:103DA0001F93CF93DF938C01009749F160E086E089
:103DB0000E946026CAE0D4E08881882381F0F8015F
:103DC000D080FE013297E080F1806D2DC7010E9406
:103DD000811BC70180680E94681B8D1109C0239652
:103DE0000F5F1F4FF4E0C436DF0731F7C1E001C0B9
:103DF000C0E061E086E00E9460268C2F01C080E078
:103E0000DF91CF911F910F91FF90EF90DF90089578
:103E1000FF920F931F93CF93DF93CDB7DEB72C970D
:103E20000FB6F894DEBF0FBECDBF8CE0E1E7F5E042
:103E30008E010F5F1F4FD80101900D928A95E1F717
:103E400060E086E00E946026F0907C0660E08FEAE9
:103E500090E00E946D1BF81609F442C081E08F25A6
:103E600080937C068823E1F180912506882371F0F8
:103E700041E065E080E090E00E94901B41E066E058
:103E800080E090E00E94901B40E00DC040E065E0C3
:103E900080E090E00E94901B41E066E080E090E0CE
:103EA0000E94901B41E064E080E090E00E94901B43
:103EB00080EE95E09F938F931F9283E08F931F92E4
:103EC0001F921F930F930E94550980E190E09093F9
:103ED0000404809303040FB6F894DEBF0FBECDBF79
:103EE000F0907B0661E08FEA90E00E946D1BF8166F
:103EF00009F442C081E08F2580937B068823E1F19D
:103F000080912506882371F041E065E080E090E033
:103F10000E94901B40E066E080E090E00E94901BD1
:103F200040E00DC040E065E080E090E00E94901B22
:103F300040E066E080E090E00E94901B41E064E099
:103F400080E090E00E94901B8DE090E0909304044C
:103F50008093030484EE95E09F938F931F9284E0F7
:103F60008F931F921F921F930F930E9455090FB6B4
:103F7000F894DEBF0FBECDBF10917A0662E08FEAE3
:103F800090E00E946D1B1817F1F081E0812780936B
:103F90007A068823C1F080912506882341F041E00C
:103FA00065E080E090E00E94901B40E007C040E0A8
:103FB00065E080E090E00E94901B41E064E080E0DA
:103FC00090E00E94901B61E086E00E9460262C96A3
:103FD0000FB6F894DEBF0FBECDBFDF91CF911F911A
:103FE0000F91FF900895EF920F93EE24E39407E072
:103FF00020E04FE3BC0182E090E00E94B71B0F91EC
:10400000EF900895EF920F93EE24E39407E020E001
:104010004FE1BC0183E090E00E94B71B0F91EF904D
:104020000895EF920F93EE24E39405E023E045E03A
:10403000BC018CE090E00E94B71B0F91EF900895B7
:10404000EF920F93EE24E39402E020E045E0BC0100
:104050008CE090E00E94B71B0F91EF90089523E051
:1040600042E00C94231C21E040E00C94231CCF93ED
:10407000DF9300D0CDB7DEB72091620730916307A0
:104080002115310511F426E637E0CE010196821B99
:10409000930B0F900F90DF91CF9108952F923F9245
:1040A0004F925F926F927F928F929F92AF92BF9248
:1040B000CF92DF92EF92FF920F931F93CF93DF93F4
:1040C0000E94101A782E81110DC00E940D1A682EC0
:1040D0000E94131A8170982E0E94131A81FB882463
:1040E00080F803C0912C612C812C8091B7069091AF
:1040F000B806A091B906B091BA06892B8A2B8B2BF2
:1041000009F449C00E943A256B017C018091B706F1
:104110009091B806A091B906B091BA06C81AD90A0A
:10412000EA0AFB0A0E94E3196C157D058E059F05BE
:1041300090F51092B7061092B8061092B906109238
:10414000BA061092B6061F921F920E94150710928F
:10415000B5061092B4060F900F9071101CC0882005
:10416000B9F085EC96E00E94F0280E940A1A882394
:1041700079F00E9437204AE050E0BC0185EC96E0DF
:104180000E949F2969EE75E085EC96E00E94E72881
:1041900091101092B30690E9E92E96E0F92E23E0F3
:1041A000C22ED12C32E0A32EB12C44E0242E312C8F
:1041B00044244394512C85EC96E00E94BF261816A7
:1041C00019060CF0FCC1992001F1C3970C9738F443
:1041D0008091B206811103C081E08093B206809184
:1041E000B4069091B506892B81F48091B6068111B1
:1041F0000CC08091B306811108C061E085EC96E0A7
:104200000E943D2781E08093B30685EC96E00E94F2
:10421000D826EC010091B4061091B506662089F00D
:104220000E94A12C892B69F4CF37D10551F40430B9
:10423000110539F08091B606882319F081508093DA
:10424000B6060430110529F08091B6068F3008F0CB
:104250008FC10230110509F461C03CF4011511054C
:1042600069F00130110521F183C10330110509F412
:10427000B6C00430110509F4F9C07AC1CE010E941C
:104280008B2C892B31F4CE010E94AF2C892B09F4A1
:1042900092CFE091B60681E08E0F8093B606F0E0F3
:1042A000ED55F94FC0835092B5064092B40683CFC6
:1042B000CE010E948B2C892B29F4CE010E94AF2CB9
:1042C000892B59F0E091B60681E08E0F8093B606F7
:1042D000F0E0ED55F94FC0836ECFCE010E94A72CC0
:1042E000892B09F468CFE091B606F0E0ED55F94F5F
:1042F00010820DEC13E0C0E0D0E0F80165917491FC
:1043000083EA96E00E94BA2C892B09F423C12196F6
:104310000E5F1F4FC333D10581F72AC1CE010E9422
:104320008B2C892B09F065C0CE010E94AF2C892B04
:1043300009F05FC0CE010E94A72C892B09F43BCF66
:10434000C091B606D0E0FE01ED55F94F108283EA28
:1043500096E00E94642C611571058105910561F458
:10436000E3EAF6E09F01235A36402C173D0724F478
:1043700021912033B9F3FCC0E091A00621E02E0F7B
:104380002093A00634E0E39FF0011124E057F94F99
:1043900060837183828393831092B606E091A106B5
:1043A000F091A2069281291728F4B092B506A09246
:1043B000B40601CF8381882329F0D092B506C0923C
:1043C000B406F9CEFF92EF920190F081E02D0995AD
:1043D0001092B5061092B4060F900F90CFC0CE0188
:1043E0000E948B2C892B29F4CE010E94AF2C892BA3
:1043F00059F0E091B60681E08E0F8093B606F0E0AA
:10440000ED55F94FC083D7CECE010E94A72C892B42
:1044100009F4D1CEE091B606F0E0ED55F94F1082E7
:1044200083EA96E00E94642C60938C0670938D065C
:1044300080938E0690938F061092B606672B682B9A
:10444000692B09F497C00E943A256093B7067093D0
:10445000B8068093B9069093BA0610928B06109214
:104460008A063092B5062092B406A5CE0E943A255F
:104470006093B7067093B8068093B9069093BA0616
:10448000209749F410928C0610928D0610928E0699
:1044900010928F060AC08091B606E82FF0E0ED5525
:1044A000F94FC0838F5F8093B6062091B6062F30F8
:1044B00061F5E091A106F091A20683EA96E09F9350
:1044C0008F931F922F9380918B068F9380918A06F2
:1044D0008F93FF92EF920190F081E02D09952DB717
:1044E0003EB7285F3F4F0FB6F8943EBF0FBE2DBFBB
:1044F000882339F180918A0690918B060F969093CC
:104500008B0680938A061092B60680918C06909155
:104510008D06A0918E06B0918F06B7FD4CCE019707
:10452000A109B10980938C0690938D06A0938E0605
:10453000B0938F06181619061A061B060CF43BCE0C
:104540000DC11092B7061092B8061092B9061092DB
:10455000BA060EC0CC0FDD1FCC0FDD1FC65FDE4FCD
:10456000D093A206C093A1068A81853008F499C031
:104570001092B6061092B5061092B40671101BCEBA
:104580008820B9F085EC96E00E94F0280E940A1A73
:10459000882379F00E9437204AE050E0BC0185EC86
:1045A00096E00E949F2969EE75E085EC96E00E94F6
:1045B000E728992009F4FFCD1092B306FCCD809135
:1045C000B4069091B506049709F060C02091B60634
:1045D000222309F45BC0E091A106F091A20683EAD0
:1045E00096E09F938F931F922F9380918B068F93CA
:1045F00080918A068F9380E996E09F938F93019034
:10460000F081E02D09952DB73EB7285F3F4F0FB6DB
:10461000F8943EBF0FBE2DBF81112AC01092B7067D
:104620001092B8061092B9061092BA061092B5060A
:104630001092B40671101CC08820B9F085EC96E089
:104640000E94F0280E940A1A882379F00E943720DD
:104650004AE050E0BC0185EC96E00E949F2969EE9B
:1046600075E085EC96E00E94E72891101092B30661
:104670002091B60680918A0690918B06820F911D3B
:1046800090938B0680938A061092B606992009F4BF
:1046900096C08091B206882309F491C01092B206A8
:1046A0008EC01092A0061092900610929106109261
:1046B000920610929306109294061092950610920C
:1046C00096061092970610929806109299061092EC
:1046D0009A0610929B0610929C0610929D061092CC
:1046E0009E0610929F06882329F0B092B506A092EC
:1046F000B40631C08B81882329F0D092B506C092D0
:10470000B40629C01F921F92E881F9810995109281
:10471000B5061092B4060F900F9071101CC088203F
:10472000B9F085EC96E00E94F0280E940A1A8823CE
:1047300079F00E9437204AE050E0BC0185EC96E019
:104740000E949F2969EE75E085EC96E00E94E728BB
:1047500091101092B3061092B6062DCD2091B60698
:10476000222321F1E091A106F091A20683EA96E0CE
:104770009F938F931F922F9380918B068F9380919D
:104780008A068F93FF92EF920190F081E02D0995B8
:104790002DB73EB7285F3F4F0FB6F8943EBF0FBE10
:1047A0002DBF882309F4CDCE1092B6061092B7061D
:1047B0001092B8061092B9061092BA06DBCEDF91BD
:1047C000CF911F910F91FF90EF90DF90CF90BF900E
:1047D000AF909F908F907F906F905F904F903F90A1
:1047E0002F900895CF92DF92EF92FF920F931F9335
:1047F000CF93DF93009739F0019769F50E941B1A58
:104800008C018EE004C00E94161A8C0180E10E9487
:10481000E125EC01B80180E090E00E94B62A2FE685
:1048200032E143E85AE30E94682B6B017C01BE0130
:10483000882777FD8095982F0E94B82A9B01AC01AC
:10484000C701B6010E94682B20E030EC4FE754E42A
:104850000E941D2A04C060E070E080E89FEBDF91B9
:10486000CF911F910F91FF90EF90DF90CF9008951F
:1048700060E080E10E94272660E08EE00E9427260B
:1048800083E00E94DE2580E090E00E94F22381E038
:1048900090E00C94F223CF93CFB7F8948091BB06AD
:1048A000811127C0E0E2F5E08491ECE0F5E094911D
:1048B000E82FF0E0EE0FFF1FE25CFA4FA591B491F4
:1048C0008C91892321F461E08AE00E94602661E0F6
:1048D0008AE00E9427268CB580618CBD8CB58064EF
:1048E0008CBD61E08DE00E94272661E08BE00E9494
:1048F00027268091BB068F5F8093BB06CFBFCF91E9
:10490000089508958230E8F4E82FF0E0EE0FFF1FDD
:10491000E058FB4F71836083813041F080916900E2
:104920008C7F842B80936900E89A089580916900B8
:10493000440F551F440F551F837F842B80936900BC
:10494000E99A08951F920F920FB60F9211242F9398
:104950003F934F935F936F937F938F939F93AF9307
:10496000BF93EF93FF93E0918004F0918104099548
:10497000FF91EF91BF91AF919F918F917F916F9137
:104980005F914F913F912F910F900FBE0F901F900D
:1049900018951F920F920FB60F9211242F933F93E9
:1049A0004F935F936F937F938F939F93AF93BF9337
:1049B000EF93FF93E0918204F09183040995FF91B6
:1049C000EF91BF91AF919F918F917F916F915F9187
:1049D0004F913F912F910F900FBE0F901F90189500
:1049E0001F920F920FB60F9211242F933F938F9324
:1049F0009F93AF93BF938091BD069091BE06A09107
:104A0000BF06B091C0063091BC0623E0230F2D37BE
:104A100020F40196A11DB11D05C026E8230F0296C2
:104A2000A11DB11D2093BC068093BD069093BE06C8
:104A3000A093BF06B093C0068091C1069091C206B4
:104A4000A091C306B091C4060196A11DB11D80932B
:104A5000C1069093C206A093C306B093C406BF914B
:104A6000AF919F918F913F912F910F900FBE0F901B
:104A70001F9018952FB7F8946091BD067091BE06EF
:104A80008091BF069091C0062FBF08953FB7F8945C
:104A90008091C1069091C206A091C306B091C40650
:104AA00026B5A89B05C02F3F19F00196A11DB11D89
:104AB0003FBF6627782F892F9A2F620F711D811DA6
:104AC000911D42E0660F771F881F991F4A95D1F705
:104AD00008958F929F92AF92BF92CF92DF92EF9202
:104AE000FF926B017C010E9446254B015C01C114C1
:104AF000D104E104F104F1F00E94182A0E94462535
:104B0000681979098A099B09683E734081059105F6
:104B100070F321E0C21AD108E108F10888EE880E8E
:104B200083E0981EA11CB11CC114D104E104F1045E
:104B300029F7DDCFFF90EF90DF90CF90BF90AF903F
:104B40009F908F900895789484B5826084BD84B5D9
:104B5000816084BD85B5826085BD85B5816085BD78
:104B6000EEE6F0E0808181608083E1E8F0E0108291
:104B7000808182608083808181608083E0E8F0E0D2
:104B8000808181608083E1EBF0E0808184608083BC
:104B9000E0EBF0E0808181608083EAE7F0E08081F3
:104BA0008460808380818260808380818160808353
:104BB0008081806880831092C1000895809384046E
:104BC00008958E3008F08E5087702091840490E410
:104BD000299F90011124822B80937C0080917A0080
:104BE000806480937A0080917A0086FDFCCF80916A
:104BF00078002091790090E0922B0895833081F025
:104C000028F4813099F08230A1F008958730A9F01E
:104C10008830B9F08430D1F4809180008F7D03C05A
:104C2000809180008F7780938000089584B58F777E
:104C300002C084B58F7D84BD08958091B0008F77C8
:104C400003C08091B0008F7D8093B0000895CF9312
:104C5000DF9390E0FC01EE5FFA4F2491FC01EA5EE5
:104C6000FA4F8491882349F190E0880F991FFC0145
:104C7000E25CFA4FA591B4918C5C9A4FFC01C5910E
:104C8000D4919FB7611108C0F8948C91209582232C
:104C90008C93888182230AC0623051F4F8948C91FD
:104CA000322F309583238C938881822B888304C094
:104CB000F8948C91822B8C939FBFDF91CF910895B4
:104CC0000F931F93CF93DF931F92CDB7DEB7282F9B
:104CD00030E0F901E251FB4F8491F901EE5FFA4FA8
:104CE0001491F901EA5EFA4F04910023C9F0882378
:104CF00021F069830E94FE256981E02FF0E0EE0F2C
:104D0000FF1FEC5CFA4FA591B4919FB7F8948C917A
:104D1000611103C01095812301C0812B8C939FBF2B
:104D20000F90DF91CF911F910F910895CF93DF9353
:104D3000282F30E0F901E251FB4F8491F901EE5F39
:104D4000FA4FD491F901EA5EFA4FC491CC2391F065
:104D500081110E94FE25EC2FF0E0EE0FFF1FE65DB3
:104D6000FA4FA591B4912C912D2381E090E021F48C
:104D700080E002C080E090E0DF91CF910895FC01D7
:104D8000818D228D90E0805C9F4F821B91098F73F3
:104D900099270895FC01918D828D981731F0828DAD
:104DA000E80FF11D858D90E008958FEF9FEF089536
:104DB000FC01918D828D981761F0828DDF01A80F23
:104DC000B11D5D968C91928D9F5F9F73928F90E045
:104DD00008958FEF9FEF08958CE598E2892B49F0B5
:104DE00080E090E0892B29F00E945C2881110C94CE
:104DF00000000895FC01848DDF01A80FB11DA35AA6
:104E0000BF4F2C91848D90E001968F739927848FEA
:104E1000A689B7892C93A089B1898C9180648C93E1
:104E2000938D848D981306C00288F389E02D8081CC
:104E30008F7D80830895CF93DF93EC01888D882345
:104E4000C9F0EA89FB89808185FD05C0A889B989F7
:104E50008C9186FD0FC00FB607FCF5CF808185FFD2
:104E6000F2CFA889B9898C9185FFEDCFCE010E9440
:104E7000FA26E7CFDF91CF910895CF92DF92FF928C
:104E80000F931F93CF93DF931F92CDB7DEB76C01C3
:104E900081E0D60158968C9358975B969C915B97CE
:104EA0005C968C915C97981307C05096ED91FC919D
:104EB0005197808185FD2EC0F601038D10E00F5FB4
:104EC0001F4F0F731127F02EF601848DF81211C0B9
:104ED0000FB607FCF9CFD6015096ED91FC91519792
:104EE000808185FFF1CFC60169830E94FA2669811E
:104EF000EBCF838DE80FF11DE35AFF4F6083D6019E
:104F00005B960C935B975296ED91FC915397808141
:104F100080620CC0D6015696ED91FC915797608344
:104F20005096ED91FC91519780818064808381E05F
:104F300090E00F90DF91CF911F910F91FF90DF9044
:104F4000CF900895BF92CF92DF92EF92FF92CF93CE
:104F5000DF93EC016A017B01B22EE889F98982E0D6
:104F60008083411581EE580761057105A1F060E06D
:104F700079E08DE390E0A70196010E94EF2B21508C
:104F800031094109510956954795379527952115BE
:104F900080E1380798F0E889F989108260E874E8C0
:104FA0008EE190E0A70196010E94EF2B215031097C
:104FB000410951095695479537952795EC85FD850B
:104FC0003083EE85FF852083188EEC89FD89B082C1
:104FD000EA89FB89808180618083EA89FB898081FD
:104FE00088608083EA89FB89808180688083EA8980
:104FF000FB8980818F7D8083DF91CF91FF90EF903F
:10500000DF90CF90BF9008951F920F920FB60F922E
:1050100011242F938F939F93EF93FF93E091D506E5
:10502000F091D6068081E091DB06F091DC0682FDEE
:1050300012C090818091DE068F5F8F732091DF0612
:10504000821751F0E091DE06F0E0EB53F94F958FB7
:105050008093DE0601C08081FF91EF919F918F9137
:105060002F910F900FBE0F901F9018951F920F92C7
:105070000FB60F9211242F933F934F935F936F932B
:105080007F938F939F93AF93BF93EF93FF9385ECA1
:1050900096E00E94FA26FF91EF91BF91AF919F9108
:1050A0008F917F916F915F914F913F912F910F90D1
:1050B0000FBE0F901F90189585EC96E00E94BF26BA
:1050C00021E0892B09F420E0822F08951092C80670
:1050D0001092C70688EE93E0A0E0B0E08093C90686
:1050E0009093CA06A093CB06B093CC068FEE95E0C2
:1050F0009093C6068093C50685EC90E09093D20607
:105100008093D10684EC90E09093D4068093D306EC
:1051100080EC90E09093D6068093D50681EC90E0E9
:105120009093D8068093D70682EC90E09093DA06AD
:105130008093D90686EC90E09093DC068093DB06A2
:105140001092DE061092DF061092E0061092E10641
:105150000895CF92DF92EF92FF920F931F93CF9318
:10516000DF937C016A01EB0100E010E00C151D05E6
:1051700071F06991D701ED91FC910190F081E02DE2
:10518000C7010995892B19F00F5F1F4FEFCFC80199
:10519000DF91CF911F910F91FF90EF90DF90CF9013
:1051A00008956115710581F0DB010D900020E9F78C
:1051B000AD0141505109461B570BDC01ED91FC91AB
:1051C0000280F381E02D099480E090E008950C9432
:1051D000D128DC01ED91FC910190F081E02D099442
:1051E0006BEF75E00C94D1280F931F93CF93DF934F
:1051F000EC010E94E9288C01CE010E94F028800F6A
:10520000911FDF91CF911F910F9108958F929F92DF
:10521000AF92BF92DF92EF92FF920F931F93CF93C3
:10522000DF93CDB7DEB7A1970FB6F894DEBF0FBE00
:10523000CDBF7C01F42FD52ECB0119A2223008F46A
:105240002AE08E010F5D1F4F822E912CA12CB12CD4
:105250006F2F7D2DA50194010E94EF2BF22FD32EED
:10526000CA01015011096A3014F4E0E301C0E7E318
:10527000E60FD801EC93232B242B252B49F7B801FB
:10528000C7010E94D128A1960FB6F894DEBF0FBEC9
:10529000CDBFDF91CF911F910F91FF90EF90DF90E5
:1052A000BF90AF909F908F900895CF92DF92EF9232
:1052B000FF920F931F93CF93DF93EC016A017B0161
:1052C0002115310579F4E881F9810190F081E02D13
:1052D000642FDF91CF911F910F91FF90EF90DF909E
:1052E000CF9009942A303105E9F477FF1AC06DE2B6
:1052F0000E94E9288C0144275527BA014C195D0901
:105300006E097F092AE0CE010E940629800F911FB5
:10531000DF91CF911F910F91FF90EF90DF90CF9091
:1053200008952AE0B701A601CE01DF91CF911F9128
:105330000F91FF90EF90DF90CF900C9406299A0187
:10534000AB01662757FD6095762F0C9455292115E2
:10535000310541F4DC01ED91FC910190F081E02DEB
:10536000642F09940C9406299A01462F50E060E0BE
:1053700070E00C94A7299A01AB0160E070E00C94F6
:10538000A7294F925F926F927F92AF92BF92CF9276
:10539000DF92EF92FF920F931F93CF93DF93CDB7DE
:1053A000DEB729013A01621B730B840B950B298927
:1053B0003A894B895C892A193B094C095D09298B7B
:1053C0003A8B4B8B5C8B9B01AC0169897A898B8909
:1053D0009C890E94CB2BE418F50806091709A8013F
:1053E00097010E94112C2A0D3B1D4C1D5D1DCA0109
:1053F000B901DF91CF911F910F91FF90EF90DF9056
:10540000CF90BF90AF907F906F905F904F90089536
:1054100008950E94A3250E94082A0E94EB03CCEE67
:10542000D6E20E9473032097E1F30E94EC26F9CFA5
:105430000895D9D008F481E008950CD00FC107D1A8
:1054400040F0FED030F021F45F3F19F0F0C0511170
:1054500039C1F3C014D198F39923C9F35523B1F39B
:10546000951B550BBB27AA2762177307840738F0D3
:105470009F5F5F4F220F331F441FAA1FA9F333D032
:105480000E2E3AF0E0E830D091505040E695001CE6
:10549000CAF729D0FE2F27D0660F771F881FBB1FA2
:1054A000261737074807AB07B0E809F0BB0B802D7C
:1054B000BF01FF2793585F4F2AF09E3F510568F0C8
:1054C000B6C000C15F3FECF3983EDCF3869577955C
:1054D0006795B795F7959F5FC9F7880F911D9695CA
:1054E000879597F90895E1E0660F771F881FBB1F26
:1054F000621773078407BA0720F0621B730B840BD3
:10550000BA0BEE1F88F7E095089504D06894B111A6
:10551000D9C00895BCD088F09F5790F0B92F992733
:10552000B751A0F0D1F0660F771F881F991F1AF0AE
:10553000BA95C9F712C0B13081F0C3D0B1E0089577
:10554000C0C0672F782F8827B85F39F0B93FCCF3F8
:10555000869577956795B395D9F73EF490958095A4
:10556000709561957F4F8F4F9F4F0895E89409C0C4
:1055700097FB3EF490958095709561957F4F8F4F86
:105580009F4F9923A9F0F92F96E9BB279395F6959C
:10559000879577956795B795F111F8CFFAF4BB0F1A
:1055A00011F460FF1BC06F5F7F4F8F4F9F4F16C07E
:1055B000882311F096E911C0772321F09EE8872F08
:1055C000762F05C0662371F096E8862F70E060E0C4
:1055D0002AF09A95660F771F881FDAF7880F96953D
:1055E000879597F90895990F0008550FAA0BE0E8E1
:1055F000FEEF16161706E807F907C0F01216130695
:10560000E407F50798F0621B730B840B950B39F4D4
:105610000A2661F0232B242B252B21F408950A263A
:1056200009F4A140A6958FEF811D811D089597F97A
:105630009F6780E870E060E008959FEF80EC089538
:1056400000240A9416161706180609060895002461
:105650000A9412161306140605060895092E0394DB
:10566000000C11F4882352F0BB0F40F4BF2B11F44F
:1056700060FF04C06F5F7F4F8F4F9F4F089557FDAE
:105680009058440F551F59F05F3F71F04795880FB0
:1056900097FB991F61F09F3F79F087950895121647
:1056A00013061406551FF2CF4695F1DF08C01616F3
:1056B00017061806991FF1CF8695710561050894A4
:1056C0000895E894BB2766277727CB0197F90895BB
:1056D0000BD0C4CFB5DF28F0BADF18F0952309F05E
:1056E000A6CFABCF1124EECFCADFA0F3959FD1F3A5
:1056F000950F50E0551F629FF001729FBB27F00D80
:10570000B11D639FAA27F00DB11DAA1F649F6627D4
:10571000B00DA11D661F829F2227B00DA11D621F23
:10572000739FB00DA11D621F839FA00D611D221FDD
:10573000749F3327A00D611D231F849F600D211DC1
:10574000822F762F6A2F11249F5750408AF0E1F064
:1057500088234AF0EE0FFF1FBB1F661F771F881FAD
:1057600091505040A9F79E3F510570F060CFAACFED
:105770005F3FECF3983EDCF3869577956795B79598
:10578000F795E7959F5FC1F7FE2B880F911D9695C2
:10579000879597F90895DB018F939F930E94362C8C
:1057A000BF91AF91A29F800D911DA39F900DB29FBD
:1057B000900D1124089597FB072E16F4009407D03E
:1057C00077FD09D00E94412C07FC05D03EF490954E
:1057D00081959F4F0895709561957F4F0895A1E23F
:1057E0001A2EAA1BBB1BFD010DC0AA1FBB1FEE1F5B
:1057F000FF1FA217B307E407F50720F0A21BB30BA6
:10580000E40BF50B661F771F881F991F1A9469F721
:1058100060957095809590959B01AC01BD01CF017D
:105820000895052E97FB1EF400940E94282C57FD26
:1058300007D00E94EF2B07FC03D04EF40C94282CC9
:1058400050954095309521953F4F4F4F5F4F0895AC
:1058500090958095709561957F4F8F4F9F4F0895DC
:10586000EE0FFF1F0590F491E02D09940E94552C36
:10587000A59F900DB49F900DA49F800D911D1124A4
:105880000895AA1BBB1B51E107C0AA1FBB1FA61787
:10589000B70710F0A61BB70B881F991F5A95A9F7D9
:1058A00080959095BC01CD010895A29FB001B39F52
:1058B000C001A39F700D811D1124911DB29F700D19
:1058C000811D1124911D08951F93FC01992788279C
:1058D000BC01E89411911032E9F3193010F01E3038
:1058E000C8F31B3251F01D3249F4689406C00E947F
:1058F000F62C610F711D811D911D119110531A30ED
:10590000B0F33EF490958095709561957F4F8F4FE1
:105910009F4F1F910895911106C080538A5010F037
:10592000865C06C0089599278827089585FDFBCFDA
:1059300080629111F8CF81568A51E0F70895803244
:1059400009F09111F0CF80528F55E0F70895911131
:10595000EACF803219F089508550D0F7089591111F
:10596000E2CF81528E55E0F78158D5DF8823C1F709
:1059700081E00895FB01DC018D91059080190110F3
:10598000D9F3990B0895FB01DC0105900D920020DD
:10599000E1F70895DC01FB014150504058F049F017
:1059A00005900D920020C1F7E61BF70B3197CF0150
:1059B00008951C9205900020E9F7F6CFFB01DC0169
:1059C0008D91019080190110D9F3990B0895FB0175
:1059D000DC014150504048F001900D920020C9F781
:1059E00001C01D9241505040E0F70895592F482FB3
:1059F000372F262F660F771F881F991F660F771F77
:105A0000881F991F620F731F841F951F660F771FD2
:105A1000881F991F0895AEE0B0E0E1E1FDE20C942B
:105A2000C92F0D891E8986E08C831A8309838FEF25
:105A30009FE79E838D83AE01475E5F4F6F89788DB0
:105A4000CE0101960E942D2DEF81F885E00FF11F08
:105A500010822E96E4E00C94E52FACE0B0E0E3E396
:105A6000FDE20C94BB2F7C016B018A01FC011782C3
:105A70001682838181FFBDC1CE0101964C01F701E1
:105A80009381F60193FD859193FF81916F018823A6
:105A900009F4ABC1853239F493FD859193FF81916F
:105AA0006F01853229F4B70190E00E942B2FE7CFD8
:105AB000512C312C20E02032A0F48B3269F030F4EC
:105AC000803259F0833269F420612CC08D3239F074
:105AD000803339F4216026C02260246023C028600E
