:100000000C94E7040C940F050C940F050C940F0549
:100010000C940F050C940F050C940F050C940F0510
:100020000C940F050C940F050C940F050C940F0500
:100030000C940F050C940F050C940F050C940F05F0
:100040000C941C310C940F050C9438340C946A34C5
:100050000C940F050C940F050C940F050C940F05D0
:100060000C94EF2F0C940F052D2D20534156454431
:10007000202D2D00465245513A202020202047486F
:100080007A002020464156204348414E3A004348DA
:10009000414E3A0053455454494E4753205341561C
:1000A000454400534156452053455454494E475307
:1000B0000053415645202620455849540043414CA1
:1000C0004942524154452052535349005349474EE7
:1000D000203A20004F4646004F4E200042454550F2
:1000E000533A20004652455155454E435900434826
:1000F000414E4E454C2020004F524445523A20007C
:100100005345545550204D454E55004200413A004C
:1001100052454345495645522042005245434549C0
:100120005645522041004155544F004449564552CE
:1001300053495459004C4F57205349474E414C00A6
:10014000525353490042004100414E542042004165
:100150004E542041004155544F00202020002020C3
:1001600020003539343500353830300035333632FB
:10017000004D696E3A20202020204D61783A0052CF
:1001800053534920534554555000424553543A0067
:1001900042414E44205343414E4E45520041555436
:1001A0004F205345454B204D4F4445004155544F3A
:1001B000204D4F4445204C4F434B004120202020F0
:1001C0002020202000422020202020202020004528
:1001D000202020202020202000462F4169727761B6
:1001E000766500432F5261636520202000442F353F
:1001F0002E332020202000454D50545900464156B2
:100200004F524954455300544F54414C2046415697
:100210002F45533D0052454F5247414E495A494E92
:1002200047204641562F4553200052454F524741E3
:100230004E495A494E470053454C45435445442086
:100240004641564F52495445204348002D2D2044E5
:10025000454C45544544202D2D00464156204348E9
:10026000414E4E454C3A004348414E4E454C204687
:100270005245513A0044454C455445204641564F5D
:1002800052495445204348414E00353934350035F4
:1002900038303000353336320042414E443A004166
:1002A00055544F205345454B204D4F4445004D413B
:1002B0004E55414C204D4F4445004641564F524902
:1002C0005445204D4F444500202020202020202050
:1002D00020004641564F5249544553004449564523
:1002E0005253495459004D414E55414C204D4F44B5
:1002F000450042414E44205343414E4E4552004139
:1003000055544F204D4F4445004D4F4445205345D3
:100310004C454354494F4E004F4646004F4E200037
:100320004F53443A2000200020202020202020206D
:1003300020005345545550204D454E55004D4F44D7
:10034000452053454C454354494F4E0028292A2BFC
:100350002C2D2E2F13122011211007220818060908
:100360001905230A1A040B1B03240C1C020D1D255E
:10037000010E1E000F1F261415271617A1A2A3A4F5
:10038000A5A6A7A8B1B2B3B4B5B6B7B8E1E2E3E4A5
:10039000E5E6E7E8F1F2F3F4F5F6F7F8C1C2C3C415
:1003A000C5C6C7C8D1D2D3D4D5D6D7D8E916D516A5
:1003B000C116AD169916851671165D166516781656
:1003C0008B169E16B116C416D716EA1649163516A0
:1003D00021160D16FD161117251739176C168016E4
:1003E0009416A816BC16D016E416F8161A163F1660
:1003F00064168916AE16D316F8161D17F2141715C3
:100400003C1561158615AB15D015F515052A9B29E8
:10041000912987291D29132909299F2803290C2996
:1004200016291F29892992299C29052A95288B2874
:10043000812817280F2A192A832A8D2A062910298C
:100440001A2984298E299829022A0C2A1D289028E5
:100450000229152987299A290C2A1F2A09261C26D0
:100460008E2601271327862798270B2800000000D7
:10047000003E5B4F5B3E3E6B4F6B3E1C3E7C3E1C2A
:10048000183C7E3C181C577D571C1C5E7F5E1C0070
:10049000183C1800FFE7C3E7FF0018241800FFE727
:1004A000DBE7FF30483A060E2629792926407F05EA
:1004B0000507407F05253F5A3CE73C5A7F3E1C1C00
:1004C00008081C1C3E7F14227F22145F5F005F5FC0
:1004D00006097F017F006689956A606060606094AC
:1004E000A2FFA29408047E040810207E20100808B1
:1004F0002A1C08081C2A08081E101010100C1E0CBC
:100500001E0C30383E3830060E3E0E06000000004D
:100510000000005F00000007000700147F147F1434
:10052000242A7F2A12231308646236495620500079
:1005300008070300001C2241000041221C002A1C65
:100540007F1C2A08083E0808008070300008080850
:100550000808000060600020100804023E51494570
:100560003E00427F400072494949462141494D338E
:100570001814127F1027454545393C4A49493141F5
:10058000211109073649494936464949291E0000C3
:100590001400000040340000000814224114141418
:1005A0001414004122140802015909063E415D5904
:1005B0004E7C1211127C7F494949363E414141220D
:1005C0007F4141413E7F494949417F090909013E37
:1005D000414151737F0808087F00417F410020405E
:1005E000413F017F081422417F404040407F021C70
:1005F000027F7F0408107F3E4141413E7F09090987
:10060000063E4151215E7F09192946264949493252
:1006100003017F01033F4040403F1F2040201F3F18
:100620004038403F6314081463030478040361599D
:10063000494D43007F4141410204081020004141DF
:10064000417F04020102044040404040000307088B
:100650000020545478407F28444438384444442887
:10066000384444287F385454541800087E0902182E
:10067000A4A49C787F0804047800447D40002040B6
:10068000403D007F1028440000417F40007C0478FA
:1006900004787C080404783844444438FC18242442
:1006A0001818242418FC7C080404084854545424C2
:1006B00004043F44243C4040207C1C2040201C3C3F
:1006C0004030403C44281028444C9090907C446436
:1006D000544C4400083641000000770000004136C9
:1006E000080002010204023C2623263C1EA1A1614F
:1006F000123A4040207A3854545559215555794181
:100700002254547842215554784020545579400C55
:100710001E52721239555555593954545459395538
:100720005454580000457C410002457D420001457B
:100730007C407D1211127DF0282528F07C5455450F
:10074000002054547C547C0A097F4932494949327B
:100750003A4444443A324A4848303A4141217A3A8C
:1007600042402078009DA0A07D3D4242423D3D4058
:1007700040403D3C24FF2424487E4943662B2FFC07
:100780002F2BFF0929F620C0887E090320545479B5
:10079000410000447D413048484A32384040227A86
:1007A000007A0A0A727D0D19317D2629292F282603
:1007B0002929292630484D4020380808080808080B
:1007C0000808382F10C8ACBA2F102834FA00007B64
:1007D000000008142A142222142A14085500550077
:1007E00055AA55AA55AAFF55FF55FF000000FF0066
:1007F000101010FF00141414FF001010FF00FF1061
:1008000010F010F0141414FC001414F700FF000092
:10081000FF00FF1414F404FC141417101F10101F11
:10082000101F1414141F00101010F0000000001FFF
:10083000101010101F10101010F010000000FF100A
:100840001010101010101010FF10000000FF140006
:1008500000FF00FF00001F10170000FC04F4141438
:100860001710171414F404F40000FF00F714141404
:1008700014141414F700F7141414171410101F1084
:100880001F141414F4141010F010F000001F101FA7
:100890000000001F14000000FC140000F010F01015
:1008A00010FF10FF141414FF141010101F0000008C
:1008B00000F010FFFFFFFFFFF0F0F0F0F0FFFFFF90
:1008C0000000000000FFFF0F0F0F0F0F38444438E7
:1008D00044FC4A4A4A347E02020606027E027E0236
:1008E00063554941633844443C04407E201E200641
:1008F000027E020299A5E7A5991C2A492A1C4C727E
:1009000001724C304A4D4D303048784830BC625A04
:10091000463D3E494949007E0101017E2A2A2A2A94
:100920002A44445F444440514A444040444A514070
:100930000000FF0103E080FF000008086B6B083631
:1009400012362436060F090F0600001818000000A2
:100950001010003040FF0101001F01011E00191D91
:100960001712003C3C3C3C00000000000000000866
:100970000002010000030407000000000000000066
:100980000102040810204080010204081020010226
:1009900004081020040404040404040402020202F3
:1009A00002020303030303030000000023002600E8
:1009B000290000000000250028002B000000000096
:1009C000240027002A001D15281A4D2F9A341124BF
:1009D0001FBECFEFD8E0DEBFCDBF16E0A0E0B1E094
:1009E000E6ECF2E702C005900D92AE30B107D9F700
:1009F00027E0AEE0B6E001C01D92A23FB207E1F7EA
:100A000019E0CEECD9E004C02297FE010E94EC3838
:100A1000C63CD107C9F70E943F360C9461390C944B
:100A20000000ACE3B6E020E0FC013491332331F068
:100A30002E3121F03D9301962F5FF6CFE22FF0E0AB
:100A4000E45CF94F30838CE396E008952FEFFC01CE
:100A50002283108208958EE096E00E94DA2740E01B
:100A600050E060E070E08EE096E00E94672E61E06A
:100A70008EE096E00E946D2E61E070E08EE096E0E0
:100A80000C94732ECF93DF93EC0121E04CE362E0F2
:100A90008EE096E00E9455288EE096E00E948A291A
:100AA00060ED77E080E090E00E949531CE010E94F9
:100AB0002B0580E0DF91CF910895CF92DF92EF92E6
:100AC000FF920F931F93CF93DF93EB01E0910E06FC
:100AD000F0910F06C484D5848EE096E00E94862EA5
:100AE0008C018EE096E00E94822EEE24E394F12C9D
:100AF0009C0140E050E060E070E08EE096E0F6019E
:100B00000995E0910E06F0910F06C684D7848EE019
:100B100096E00E94822E0BE010E09C0140E050E045
:100B200060E070E08EE096E0F601099561E08EE00D
:100B300096E00E946D2E60E070E08EE096E00E94EC
:100B4000732E8EE096E00E94822EFE01019000201E
:100B5000E9F73197EC1BFD0B46E04E9F90014F9F4C
:100B6000300D1124BC01621B730B7695679542E032
:100B700050E08EE096E00E94672EBE018EE096E087
:100B80000E941B3561E070E08EE096E0DF91CF912E
:100B90001F910F91FF90EF90DF90CF900C94732EE8
:100BA000CF92DF92EF92FF920F931F93CF93DF9339
:100BB000EC01D62EC42E0E942B058DE393E00E94FB
:100BC0001105BC01CE010E945D05E0910E06F09179
:100BD0000F06C685D7858EE096E00E94822E2AE019
:100BE000D29EA0011124445F5F4FEE24E394F12CC8
:100BF0000AE010E09C0160E070E08EE096E0FE010B
:100C00000995C1E0D0E0D11002C0C0E0D0E0BE0143
:100C10008EE096E00E94732E4DE050E065E070E0BB
:100C20008EE096E00E94672E82E393E00E94110519
:100C3000BC018EE096E00E941B3588E293E00E94A2
:100C40001105BC018EE096E00E941B35E0910E0676
:100C5000F0910F060190F081E02D68E18EE096E0C2
:100C60000995BE018EE096E00E94732E47E150E0A8
:100C700065E070E08EE096E00E94672E86E293E0E9
:100C80000E941105BC018EE096E00E941B3561E0D8
:100C900070E0F1E0DF1202C060E070E08EE096E00C
:100CA0000E94732E47E150E065E070E08EE096E030
:100CB0000E94672E80E293E00E941105BC018EE045
:100CC00096E00E941B35CC2019F08CE193E002C025
:100CD00088E193E00E941105BC018EE096E00E943D
:100CE0001B358EE096E0DF91CF911F910F91FF9021
:100CF000EF90DF90CF900C948A29DF92EF92FF92D1
:100D00000F931F93CF93DF93EC01D62E0E942B05F8
:100D100089E093E00E941105BC01CE010E945D05AF
:100D2000E0910E06F0910F06C685D7858EE096E01D
:100D30000E94822E2AE0D29EA0011124445F5F4FC0
:100D4000EE24E394F12C0AE010E09C0160E070E0F6
:100D50008EE096E0FE01099561E070E0D11002C0DE
:100D600060E070E08EE096E00E94732E4DE050E06F
:100D700065E070E08EE096E00E94672E8FEF92E0D3
:100D80000E941105BC018EE096E00E941B3561E0D7
:100D900070E0F1E0DF1202C060E070E08EE096E00B
:100DA0000E94732E47E150E065E070E08EE096E02F
:100DB0000E94672E82EF92E00E941105BC018EE036
:100DC00096E00E941B3561E070E022E0D21202C082
:100DD00060E070E08EE096E00E94732E41E250E009
:100DE00065E070E08EE096E00E94672E86EE92E06D
:100DF0000E941105BC018EE096E00E941B3585E142
:100E00000E9415320597E4F061E070E083E0D812AB
:100E100002C060E070E08EE096E00E94732E4BE22C
:100E200050E065E070E08EE096E00E94672E8CED69
:100E300092E00E941105BC018EE096E00E941B35F5
:100E400061E070E0E4E0DE1202C060E070E08EE09D
:100E500096E00E94732E45E350E065E070E08EE07E
:100E600096E00E94672E82ED92E00E941105BC017F
:100E70008EE096E00E941B3588EC92E00E941105FE
:100E8000BC018EE096E00E941B35E0910E06F091C9
:100E90000F060190F081E02D69E18EE096E0099562
:100EA0008EE096E0DF91CF911F910F91FF90EF9030
:100EB000DF900C948A29AF92BF92CF92DF92EF928B
:100EC000FF920F931F93CF93DF931F92CDB7DEB79F
:100ED0008C018FEFF8018283C80169830E942B0582
:100EE0006981693019F48AEB92E009C0633019F422
:100EF0008EEA92E004C0613041F48FE992E00E94F2
:100F00001105BC01C8010E945D0561E070E08EE042
:100F100096E00E94732EE0910E06F0910F06C680B7
:100F2000D7808EE096E00E94822EEE24E394F12C8E
:100F300004E110E09C0144E150E060E070E08EE0EC
:100F400096E0F6010995E0910E06F0910F06C68035
:100F5000D7808EE096E00E94822E00E210E09C0195
:100F600040E250E060E070E08EE096E0F601099526
:100F70004CE050E065E070E08EE096E00E94672E65
:100F8000E0910E06F0910F060680F781E02D04E156
:100F900010E021E630E04BE050E061E670E08EE0EA
:100FA00096E0099589E992E00E941105BC018EE066
:100FB00096E00E941B3511E3A8E0CA2ED12C47E130
:100FC00050E0B6018EE096E00E94672E612F8EE021
:100FD00096E00E941D35FFE0CF0ED11C1F5F193334
:100FE00071F7E0910E06F0910F06C680D7808EE073
:100FF00096E00E94822EEE24E394F12C04E210E0AD
:101000009C0144E250E060E070E08EE096E0F60182
:101010000995E0910E06F0910F06A680B7808EE04C
:1010200096E00E94862E8C018EE096E00E94822E31
:101030006C018EE096E00E94862E0B501109AC01E7
:101040004B505109960160E070E08EE096E0F501AA
:1010500009958EE096E00E94862EAC014950510918
:1010600062E070E08EE096E00E94672E84E992E0F4
:101070000E941105BC018EE096E00E941B358EE0B7
:1010800096E00E94862EAC014950510967E370E05A
:101090008EE096E00E94672E8FE892E00E94110594
:1010A000BC018EE096E00E941B358EE096E00E9427
:1010B000862E8C018EE096E00E94822EA801495077
:1010C0005109BC01695171098EE096E00E94672EBA
:1010D0008AE892E00E941105BC018EE096E00E9431
:1010E0001B358EE096E00F90DF91CF911F910F910D
:1010F000FF90EF90DF90CF90BF90AF900C948A2933
:10110000FF920F931F93CF93DF93EC018B01F42E8B
:101110000E942B0585E792E00E941105BC01CE01DB
:101120000E945D0561E070E08EE096E00E94732E03
:101130004CE050E065E070E08EE096E00E94672EA3
:1011400087E692E00E941105BC018EE096E00E94C5
:101150001B354CE050E065E570E08EE096E00E94C3
:10116000672E4AE050E0B8018EE096E00E94EF352D
:1011700044E150E065E070E08EE096E00E94672E6A
:101180008AE592E00E941105BC018EE096E00E9483
:101190001B3544E150E065E570E08EE096E00E948A
:1011A000672E4AE050E06F2D8EE096E00E94E83511
:1011B0008EE096E00E94822E8254910997FD01965E
:1011C000BC017595679544E350E08EE096E00E947F
:1011D000672E8CE492E00E941105BC018EE096E03F
:1011E0000E941B358EE096E0DF91CF911F910F9109
:1011F000FF900C948A291F93CF93DF93EC01162F55
:101200000E942B0587E392E00E941105BC01CE01EC
:101210000E945D0565E08EE096E00E946D2E61E023
:1012200070E08EE096E00E94732E44E150E064E1AD
:1012300070E08EE096E00E94672E4AE050E0612F59
:101240008EE096E00E94E8358EE096E00E948A29C2
:10125000CE010E942B05CE01DF91CF911F910C94FE
:101260002B051F93CF93DF93EC01162F0E942B05C4
:101270008AE292E00E941105BC01CE010E945D0548
:1012800061E08EE096E00E946D2E61E070E08EE0FD
:1012900096E00E94732E44E150E065E070E08EE03D
:1012A00096E00E94672E85E192E00E941105BC0144
:1012B0008EE096E00E941B358EE096E00E94822E22
:1012C0008254910997FD0196BC017595679544E29A
:1012D00050E08EE096E00E94672E87E092E00E9448
:1012E0001105BC018EE096E00E941B354AE050E0FB
:1012F000612F8EE096E00E94E8358EE096E00E9435
:101300008A29CE010E942B05CE010E942B056CED8F
:1013100075E080E090E0DF91CF911F910C949531C2
:10132000CF93DF93EC010E942B058DEF91E00E949B
:101330001105BC01CE010E945D0563E08EE096E0E0
:101340000E946D2E61E070E08EE096E00E94732EA8
:1013500044E150E064E170E08EE096E00E94672E88
:1013600087EF91E00E941105BC018EE096E00E949B
:101370001B358EE096E0DF91CF910C948A292F9255
:101380003F924F925F926F927F928F929F92AF9215
:10139000BF92CF92DF92EF92FF920F931F93CF9362
:1013A000DF9300D000D0CDB7DEB71C016983142FC6
:1013B000922EB02E2701CA828A2CFC018281281726
:1013C00009F49DC0821710F483E001C08FEF809371
:1013D0000B0140E050E061E070E08EE096E00E949A
:1013E000792E4CE050E064E270E08EE096E00E94DE
:1013F000672E183218F08DEE91E016C0103218F0FA
:1014000083EE91E011C0183118F089ED91E00CC025
:10141000103118F08FEC91E007C0183018F085EC0F
:1014200091E002C08BEB91E00E941105BC018EE0BF
:1014300096E00E941B35812F877034E0632E712C5B
:101440001C821B82C82ED12CE0910E06F0910F0653
:10145000EE24E394F12C8B819C818C159D0511F079
:10146000E12CF12C0684F785E02D0BE010E02EE056
:1014700030E045E150E0B3018EE096E0099561E08F
:1014800070E0EB81FC81EC15FD0511F460E070E08B
:101490008EE096E00E94732EB3016C5F7F4F47E1B0
:1014A00050E08EE096E00E94672E6B816F5C8EE0CC
:1014B00096E00E941D358B819C8101969C838B83D5
:1014C0009FE0690E711CEB81FC81389709F0BCCF5D
:1014D0004CE050E065E670E08EE096E00E94672EFA
:1014E00040E050E061E070E08EE096E00E94792EEE
:1014F0004AE050E0B2018EE096E00E94EF358EE0C7
:1015000096E00E94822E4B2C512C612C712C03975B
:10151000AA2797FDA095BA2FBF93AF939F938F9360
:10152000A12CB12C6501A39414E6E12EF12C00E06E
:1015300010E021E030E040E050E0C301B2010E9441
:10154000F535A62EE0910E06F0910F06C684D784DD
:101550008EE096E00E94822EB12C9C01235031092E
:101560002A193B09B5016F5F7F4FE12CF12C03E095
:1015700010E041E250E08EE096E0F6010995E0913E
:101580000E06F0910F060684F785E02DEE24E39415
:10159000F12C950141E250E061E070E08EE096E0D0
:1015A00009951F921F921F92FEE0FF93A12CB12C70
:1015B0006501A39414E6E12EF12C00E010E021E097
:1015C00030E040E050E0C301B2010E94F535E09107
:1015D0000E06F0910F0666847784C62ED12C8EE01D
:1015E00096E00E94862E23E0929E50011124E4E0B2
:1015F000AE0EB11C0EE010E00C191D09AC014A51F1
:101600005109E12CF12C22E030E0B5018EE096E0AA
:10161000F3010995E0910E06F0910F066684778438
:101620008EE096E00E94862EAC014C5051094C1978
:101630005D09EE24E394F12C860122E030E0B5014F
:101640008EE096E0F30109950FB6F894DEBF0FBE69
:10165000CDBF9981913009F005C1E0910E06F0915E
:101660000F06C684D7848EE096E00E94862EAC01D9
:101670004A515109E5E09E9EB00111247595679588
:101680006C5F7F4F80910B01680F711D87FD7A950C
:10169000E12CF12C0EE010E021E030E08EE096E04D
:1016A000F6010995FA816F2F70E080E090E01F92BB
:1016B0001F921F922EE02F93A12CB12C6501A394B1
:1016C00014E6E12EF12C00E010E021E030E040E0F3
:1016D00050E00E94F535A62EE0910E06F0910F061F
:1016E000C684D7848EE096E00E94862EAC014A51D3
:1016F0005109E12CF12C0EE010E022E030E061E035
:1017000070E08EE096E0F6010995E0910E06F0910A
:101710000F06C680D7808EE096E00E94862EB12C00
:101720008C010C5011090A191B098EE096E00E94E9
:10173000862EAC014C5051094A195B09EE24E39402
:10174000F12C22E030E061E070E08EE096E0F601FE
:101750000995E0910E06F0910F06C684D7848EE0BD
:1017600096E00E94862E8C018EE096E00E94822EEA
:10177000A8014A515109BC0163507109E12CF12CB7
:101780000EE010E022E030E08EE096E0F6010995F0
:10179000E0910E06F0910F06C680D7808EE096E0AD
:1017A0000E94862E8C010C5011090A191B098EE02B
:1017B00096E00E94822E3C018EE096E00E94862EEA
:1017C0000C972C014A185B088EE096E00E94822E4E
:1017D000BC0163507109EE24E394F12C9301A20142
:1017E0008EE096E0F60109950F900F900F900F9004
:1017F00041E050E060E070E08EE096E08820B1F0DB
:101800000E94792E8EE096E00E94822E84559109E6
:1018100097FD0196BC017595679542E050E08EE01A
:1018200096E00E94672E8CEA91E015C00E94792E06
:101830008EE096E00E94822E8455910997FD0196D4
:10184000BC017595679542E050E08EE096E00E94FD
:10185000672E8DE991E00E941105BC018EE096E0B3
:101860000E941B35F10192828EE096E00F900F905E
:101870000F900F90DF91CF911F910F91FF90EF90FC
:10188000DF90CF90BF90AF909F908F907F906F90A0
:101890005F904F903F902F900C948A29AF92BF9207
:1018A000CF92DF92EF92FF920F931F93CF93DF932C
:1018B0001F92CDB7DEB78C0169830E942B05F8011A
:1018C00011826981623099F480E991E00E941105EA
:1018D000BC01C8010E945D054CE050E065E070E08D
:1018E0008EE096E00E94672E8AE891E012C08FE7B2
:1018F00091E00E941105BC01C8010E945D054CE009
:1019000050E065E070E08EE096E00E94672E81E78F
:1019100091E00E941105BC018EE096E00E941B350B
:10192000E0910E06F0910F06C680D7808EE096E01B
:101930000E94822EEE24E394F12C04E110E09C013D
:1019400044E150E060E070E08EE096E0F601099539
:10195000E0910E06F0910F06A680B7808EE096E02B
:101960000E94862E8C018EE096E00E94822E6C01F1
:101970008EE096E00E94862E0B501109AC014B5070
:101980005109960160E070E08EE096E0F50109955E
:101990008EE096E00E94862EAC014950510962E02B
:1019A00070E08EE096E00E94672E8CE691E00E9447
:1019B0001105BC018EE096E00E941B358EE096E09A
:1019C0000E94862EAC014950510967E370E08EE019
:1019D00096E00E94672E87E691E00E941105BC0107
:1019E0008EE096E00E941B358EE096E00E94862EE7
:1019F0008C018EE096E00E94822EA8014950510988
:101A0000BC01695171098EE096E00E94672E82E662
:101A100091E00E941105BC018EE096E00E941B350A
:101A20008EE096E00F90DF91CF911F910F91FF9084
:101A3000EF90DF90CF90BF90AF900C948A292F92B7
:101A40003F924F925F926F927F928F929F92AF924E
:101A5000BF92CF92DF92EF92FF920F931F93CF939B
:101A6000DF93CDB7DEB72A970FB6F894DEBF0FBE6F
:101A7000CDBF2C01662E842E922E702EFC82EB821E
:101A8000DE82CD82B886AF82622F70E080E090E087
:101A90001F921F921F922EE12F93A12CB12C650152
:101AA000A39414E6E12EF12C00E010E021E030E0F8
:101AB00040E050E00E94F535C62E8EE096E00E9490
:101AC000862E5C010F900F900F900F90D20112960E
:101AD0008C91881609F45BC0D12CE0910E06F09130
:101AE0000F06268537853A8329838EE096E00E948B
:101AF000862EE5E08E9ED0011124B595A795BA8774
:101B0000A9871D01F4E02F0E311C0EE110E00C1925
:101B10001D09AC014A525109E12CF12C22E030E0C0
:101B2000B1018EE096E0E981FA810995E0910E0617
:101B3000F0910F06A5014C5051094C195D0906841E
:101B4000F785E02DEE24E394F12C860122E030E0CD
:101B5000B1018EE096E00995E0910E06F0910F0636
:101B6000C684D7848EE096E00E94862EAC014A524D
:101B7000510969857A85695F7F4FE12CF12C0EE16F
:101B800010E021E030E08EE096E0F601099561106A
:101B900042C0F0E5F91508F090C0D20111968C9181
:101BA0001197891530F511969C9240E050E061E064
:101BB00070E08EE096E00E94792E4CE050E064E206
:101BC00070E08EE096E00E94672E40E150E0672DC5
:101BD0008EE096E00E94E8354CE050E064E370E06F
:101BE0008EE096E00E94672E4AE050E06B817C8197
:101BF00060C000910A0110E0075F1F4F8EE096E081
:101C00000E94822E0C97081719070CF456C08CE31B
:101C100080930A0152C04CE050E06EE170E08EE02B
:101C200096E00E94672E40E050E061E070E08EE0B8
:101C300096E00E94792E8EE591E00E941105BC018C
:101C40008EE096E00E941B354CE050E06EE170E0C3
:101C50008EE096E00E94672E4AE050E06D817E8122
:101C60008EE096E00E94EF354CE050E065E570E0D4
:101C70008EE096E00E94672E40E050E061E070E068
:101C80008EE096E00E94792E4CE050E065E570E031
:101C90008EE096E00E94672E8AE591E00E94110591
:101CA000BC018EE096E00E941B354AE050E06F8157
:101CB00078858EE096E00E94EF358EE096E00E94F7
:101CC0008A29F20182822A960FB6F894DEBF0FBEEF
:101CD000CDBFDF91CF911F910F91FF90EF90DF90DB
:101CE000CF90BF90AF909F908F907F906F905F90BC
:101CF0004F903F902F900895DF92EF92FF920F93B5
:101D00001F93CF93DF93D62EF42EE9010E942B056B
:101D100064E08EE096E00E946D2E61E070E08EE05F
:101D200096E00E94732E40E050E062E070E08EE0AA
:101D300096E00E94672E4AE050E0BE018EE096E0F9
:101D40000E94EF3561E08EE096E00E946D2E4CE13E
:101D500050E060E070E08EE096E00E94672EB801EF
:101D60008EE096E00E941B3562E08EE096E00E94D5
:101D70006D2E42E050E062E670E08EE096E00E9458
:101D8000672E61E070E08EE096E00E94732E40E1E5
:101D900050E06F2D8EE096E00E94E83561E08EE025
:101DA00096E00E946D2EE0910E06F0910F060680DF
:101DB000F781E02DE12CF12C0BE110E022E330E083
:101DC0004BE150E060E070E08EE096E0099585E13F
:101DD0000E94153205973CF144E150E062E670E064
:101DE0008EE096E00E94672E40E050E061E070E0F7
:101DF0008EE096E00E94792E81E0D81659F0D81630
:101E000030F0E2E0DE120FC089E491E005C085E524
:101E100091E002C08FE491E00E941105BC018EE0C8
:101E200096E00E941B3541E050E060E070E08EE0FB
:101E300096E00E94792EE0910E06F0910F06C6857D
:101E4000D7858EE096E00E94862EAC014B51510959
:101E5000EE24E394F12C0DE010E027E030E060E0A8
:101E600070E08EE096E0FE0109958EE096E00E941B
:101E7000862EAC014851510961E070E08EE096E099
:101E80000E94672E87E491E00E941105BC018EE05C
:101E900096E00E941B35E0910E06F0910F0601902E
:101EA000F081E02D6AE08EE096E0099541E050E097
:101EB00060E070E08EE096E00E94792EE0910E06E0
:101EC000F0910F06C685D7858EE096E00E94862E9B
:101ED000AC014D50510927E030E060E070E08EE049
:101EE00096E0FE0109958EE096E00E94862EAC01F8
:101EF0004B50510961E070E08EE096E00E94672E41
:101F000085E491E00E941105BC018EE096E00E94FC
:101F10001B358EE096E0DF91CF911F910F91FF90DE
:101F2000EF90DF900C948A297F928F929F92AF92CC
:101F3000BF92CF92DF92EF92FF920F931F93CF93B6
:101F4000DF931F92CDB7DEB7762E842E902E85E1DB
:101F500029830E941532298105970CF4DDC0622F78
:101F600070E080E090E01F921F921F9227E72F936E
:101F7000A3E0AA2EB12CC12CD12C14E6E12EF12C19
:101F800000E010E021E030E040E050E00E94F53554
:101F9000E0910E06F0910F06A684B784C62ED12CD0
:101FA0008EE096E00E94862E27E730E02C193D094E
:101FB000AC014B515109B601695F7F4FE12CF12C07
:101FC0000DE010E08EE096E0F50109950F900F907E
:101FD0000F900F90E0910E06F0910F0681E0A6841D
:101FE000B7847816C9F08EE096E00E94862EAC0188
:101FF0004B515109E12CF12C0DE010E027E730E0C6
:1020000067E070E08EE096E0F5010995E0910E063C
:10201000F0910F06A484B5848EE096E00E94862E8F
:10202000AC014B515109EE24E394F12C960167E089
:1020300070E08EE096E0F5010995692D70E080E092
:1020400090E01F921F921F9227E72F93E3E0AE2E9E
:10205000B12CC12CD12C14E6E12EF12C00E010E0C3
:1020600021E030E040E050E00E94F535E0910E06BE
:10207000F0910F06A684B784C62ED12C8EE096E090
:102080000E94862E27E730E02C193D09AC014D5007
:102090005109B601695F7F4FE12CF12C0DE010E092
:1020A0008EE096E0F50109950F900F900F900F903C
:1020B000E0910E06F0910F0682E0A684B7847816B0
:1020C000C9F08EE096E00E94862EAC014D50510979
:1020D000E12CF12C0DE010E027E730E067E070E044
:1020E0008EE096E0F5010995E0910E06F0910F065D
:1020F000A484B5848EE096E00E94862EAC014D50FB
:102100005109EE24E394F12C960167E070E08EE033
:1021100096E0F501099589C060E070E08EE096E0F8
:102120000E94732EE0910E06F0910F06C684D784AC
:102130008EE096E00E94862EAC014B515109EE24B0
:10214000E394F12C03E110E029E130E060E070E07D
:102150008EE096E0F60109958EE096E00E94862ECC
:10216000AC014D50510961E070E08EE096E00E94B4
:10217000672E80E491E00E941105BC018EE096E09C
:102180000E941B35882D90E0A0E0B0E01F921F92C6
:102190001F9225E62F93A12CB12C6501A39414E680
:1021A000E12EF12C00E010E021E030E040E050E0D2
:1021B000BC01CD010E94F535E0910E06F0910F06AD
:1021C000A684B784C62ED12C8EE096E00E94862E7F
:1021D00025E630E02C193D09AC0143515109B60107
:1021E000675E7F4FE12CF12C03E110E08EE096E07A
:1021F000F5010995E0910E06F0910F06A684B784CB
:102200008EE096E00E94862EAC014B515109EE24DF
:10221000E394F12C960169E170E08EE096E0F5011F
:1022200009950F900F900F900F90F3E1F81578F14A
:102230000E9466312AEF30E040E050E00E948A3888
:1022400021E030E06D3771058105910510F020E047
:1022500030E040E050E0B9018EE096E00E94792E37
:102260008EE096E00E94862EAC01425151096DE24B
:1022700070E08EE096E00E94672E85E391E00E9478
:102280001105BC018EE096E00E941B3503C085E17C
:102290000E9415328EE096E00F90DF91CF911F9152
:1022A0000F91FF90EF90DF90CF90BF90AF909F90F5
:1022B0008F907F900C948A29CF92DF92EF92FF92B9
:1022C0000F931F93CF93DF93EC01D62E0E942B0523
:1022D0008BE291E00E941105BC01CE010E945D05D8
:1022E000E0910E06F0910F06C685D7858EE096E048
:1022F0000E94822E2AE0D29EA0011124445F5F4FEB
:10230000EE24E394F12C0AE010E09C0160E070E020
:102310008EE096E0FE01099561E070E0D11002C008
:1023200060E070E08EE096E00E94732E4DE050E099
:1023300065E070E08EE096E00E94672E86E291E014
:102340000E941105BC018EE096E00E941B3561E001
:1023500070E0F1E0DF1202C060E070E08EE096E035
:102360000E94732E47E150E065E070E08EE096E059
:102370000E94672E8BE191E00E941105BC018EE066
:1023800096E00E941B3561E070E022E0D21202C0AC
:1023900060E070E08EE096E00E94732E41E250E033
:1023A00065E070E08EE096E00E94672E80E191E0AB
:1023B0000E941105BC018EE096E00E941B3561E091
:1023C00070E08EE096E00E94732EE0910E06F09190
:1023D0000F06C485D5858EE096E00E94822E6C01A2
:1023E0008EE096E00E94862EAC0145515109EE2404
:1023F000E394F12C0BE010E0960160E070E08EE0D9
:1024000096E0FE0109958EE096E00E94862EAC01D2
:102410004351510965E070E08EE096E00E94672E1E
:102420008DE091E00E941105BC018EE096E00E94D3
:102430001B358EE096E00E94862EAC014950510972
:1024400065E070E08EE096E00E94672E8BE091E000
:102450000E941105BC018EE096E00E941B358EE0C3
:1024600096E0DF91CF911F910F91FF90EF90DF9059
:10247000CF900C948A29AF92BF92CF92DF92EF92C5
:10248000FF920F931F93CF93DF93C62FD22F642F0A
:1024900070E080E090E01F921F921F922CE62F9335
:1024A000A12CB12C6501A39414E6E12EF12C00E0DF
:1024B00010E021E030E040E050E00E94F535E0918E
:1024C0000E06F0910F06A684B784C62ED12C8EE09E
:1024D00096E00E94862E2CE630E02C193D09AC01D6
:1024E00043515109B6016E5E7F4FE12CF12C07E09C
:1024F00010E08EE096E0F50109950F900F900F9097
:102500000F90E0910E06F0910F06A684B7848EE03E
:1025100096E0C130C1F00E94862EAC0143515109B2
:10252000E12CF12C07E010E0960162E170E08EE012
:1025300096E0F5010995E0910E06F0910F06A4844E
:10254000B5848EE096E00E94862EAC01435151097D
:10255000EE24E394F12C960162E170E08EE096E0C7
:10256000F50109956D2F70E080E090E01F921F92B9
:102570001F922CE62F93A12CB12C6501A39414E695
:10258000E12EF12C00E010E021E030E040E050E0EE
:102590000E94F535E0910E06F0910F06A684B784EF
:1025A000C62ED12C8EE096E00E94862E2CE630E0DE
:1025B0002C193D09AC0149505109B6016E5E7F4F9F
:1025C000E12CF12C07E010E08EE096E0F501099592
:1025D0000F900F900F900F90E0910E06F0910F0664
:1025E000C23019F4C685D7851AC0C685D7858EE056
:1025F00096E00E94862EAC0149505109E12CF12C45
:1026000007E010E0960162E170E08EE096E0FE01E6
:102610000995E0910E06F0910F06C485D5858EE0F0
:1026200096E00E94862EAC0149505109EE24E394B5
:10263000F12C960162E170E08EE096E0FE010995D2
:102640008EE096E0DF91CF911F910F91FF90EF9078
:10265000DF90CF90BF90AF900C948A2908958F920D
:102660009F92AF92BF92CF92DF92EF92FF920F9321
:102670001F93CF93DF93EC01D62EB42EA22E902E73
:10268000C12E8E2C0E942B0580E091E00E94110546
:10269000BC01CE010E945D05E0910E06F0910F068F
:1026A000C685D7858EE096E00E94822E2AE0D29ED3
:1026B000A0011124445F5F4FEE24E394F12C0AE063
:1026C00010E09C0160E070E08EE096E0FE0109956C
:1026D00061E070E0D11002C060E070E08EE096E052
:1026E0000E94732E4DE050E065E070E08EE096E0D1
:1026F0000E94672E88EF90E00E941105BC018EE0D9
:1027000096E00E941B35AA2019F08EEE90E002C0E0
:1027100084EE90E00E941105BC018EE096E00E94DC
:102720001B3561E070E0F1E0DF1202C060E070E0B4
:102730008EE096E00E94732E47E150E065E070E085
:102740008EE096E00E94672E8CED90E00E941105CD
:10275000BC018EE096E00E941B35BB2019F088ED8D
:1027600090E002C084ED90E00E941105BC018EE073
:1027700096E00E941B3561E070E022E0D21202C0B8
:1027800060E070E08EE096E00E94732E41E250E03F
:1027900065E070E08EE096E00E94672E8CEC90E0A1
:1027A0000E941105BC018EE096E00E941B3587FC5B
:1027B0004FC0E0910E06F0910F06C685D7858EE0DA
:1027C00096E00E94822E9C012A523109E12CF12CC4
:1027D00008E010E041E250E069E270E08EE096E04F
:1027E000FE010995A82CBB24A7FCB094E0910E062D
:1027F000F0910F06282D86E02802B0011124625DB9
:102800007F4F0684F785E02DEE24E394F12C27E03A
:1028100030E041E250E08EE096E00995C92DDC2DD4
:1028200000E010E061E070E00A151B0511F460E0C3
:1028300070E08EE096E00E94732E69918EE096E043
:102840000E941D350F5F1F4F0A30110559F706C052
:10285000692D7C2D8EE096E00E941B3561E070E0D2
:1028600093E0D91202C060E070E08EE096E00E9432
:10287000732E4BE250E065E070E08EE096E00E943F
:10288000672E8DEB90E00E941105BC018EE096E072
:102890000E941B3561E070E0E4E0DE1202C060E0FF
:1028A00070E08EE096E00E94732E45E350E065E014
:1028B00070E08EE096E00E94672E81EB90E00E942F
:1028C0001105BC018EE096E00E941B358EE096E07B
:1028D000DF91CF911F910F91FF90EF90DF90CF90FC
:1028E000BF90AF909F908F900C948A29DF92EF92C7
:1028F000FF920F931F93CF93DF93EC01D42E8901A6
:102900000E942B0583EA90E00E941105BC01CE01D4
:102910000E945D0561E070E08EE096E00E94732EFB
:102920004CE050E065E070E08EE096E00E94672E9B
:1029300084E990E00E941105BC018EE096E00E94BF
:102940001B354CE150E065E070E08EE096E00E94BF
:10295000672E8EE890E00E941105BC018EE096E0A3
:102960000E941B354CE150E066E270E08EE096E09C
:102970000E94672E6D2D67706F5F4AE050E08EE019
:1029800096E00E94E8358DE9E8168FEFF80681F0B1
:1029900082E890E00E941105BC018EE096E00E9462
:1029A0001B354AE050E0B7018EE096E00E94D33537
:1029B00044E250E065E070E08EE096E00E94672E11
:1029C00084E790E00E941105BC018EE096E00E9431
:1029D0001B3544E250E066E270E08EE096E00E9433
:1029E000672E4AE050E0B8018EE096E00E94EF3595
:1029F0008EE096E00E94822E8254910997FD019606
:102A0000BC017595679544E350E08EE096E00E9426
:102A1000672E88E690E00E941105BC018EE096E0EA
:102A20000E941B358EE096E0DF91CF911F910F91B0
:102A3000FF90EF90DF900C948A2964E08EE096E09E
:102A40000C94C1270C943B390C944339CF93DF93FA
:102A5000EC0161E08DE00E94943280910E018823A8
:102A600021F060E086E00E949432BE017695679581
:102A700080E090E00E94953160E08DE00E94943209
:102A800061E086E0DF91CF910C949432982FECE4D2
:102A9000F3E080E02491291729F08F5F319680338D
:102AA000C9F780E008950E946631609370067093C4
:102AB000710680937206909373060E94663120918E
:102AC000780630917906621B730B6931710548F401
:102AD00089E190E0861B970BBC0180E090E00C94AC
:102AE0009531089598B19C7F813011F4916001C0B7
:102AF000926098B980932601089560E08CE00E946E
:102B0000943281E090E00E94CF3161E08AE00E943F
:102B1000943281E090E00E94CF3161E08CE00E942D
:102B2000943281E090E00E94CF3160E08CE00E941E
:102B3000943281E090E00C94CF3160E08CE00E9410
:102B4000943281E090E00E94CF3160E08AE00E9400
:102B5000943281E090E00E94CF3161E08CE00E94ED
:102B6000943281E090E00E94CF3160E08CE00E94DE
:102B7000943281E090E00C94CF3181E090E00E94AB
:102B8000CF3160E08BE00E94943281E090E00C94C1
:102B9000CF3181E090E00E94CF3161E08BE00E9474
:102BA000943281E090E00C94CF311F93CF93DF9368
:102BB000E82FF0E0EE0FFF1FE45FFB4FC591D491CB
:102BC0000E94C91581E090E00E94CF310E94BD159E
:102BD0000E949D150E949D150E949D150E947D15C5
:102BE0000E949D1514E10E949D151150E1F70E946D
:102BF000C91581E090E00E94CF310E94BD150E946E
:102C0000C9150E94BD150E947D150E949D150E9448
:102C10009D150E949D150E947D1510E1C0FF03C007
:102C20000E947D1502C00E949D15D695C795115032
:102C3000A9F70E949D150E949D150E949D150E9456
:102C40009D150E94C91581E090E00E94CF3160E09F
:102C50008BE00E94943260E08CE00E94943260E04D
:102C60008AE0DF91CF911F910C9494320F931F93C0
:102C7000CF93DF9326E040E051EE60E070E085E521
:102C800097E00E94D63361E08DE00E945B3261E004
:102C90008DE00E94943261E086E00E945B3261E048
:102CA00086E00E94943260E082E00E945B3262E043
:102CB00082E00E94943260E083E00E945B3262E036
:102CC00083E00E94943260E084E00E945B3262E024
:102CD00084E00E94943260E085E00E945B3262E012
:102CE00085E00E94943261E08EE00E945B3261E0F8
:102CF0008FE00E945B3281E00E94721561E08BE000
:102D00000E945B3261E08AE00E945B3261E08CE00D
:102D10000E945B3280E090E00E9422158F3F09F014
:102D20005EC061E080E090E00E94241560E081E0F8
:102D300090E00E94241560910E018BE090E00E94CB
:102D4000241560910D0181E790E00E9424156091A7
:102D50000C018CE090E00E9424156AE582E090E08E
:102D60000E94241560E083E090E00E9424156CED41
:102D700084E090E00E94241560E085E090E00E94ED
:102D8000241562EA75E080E696E00E940F3900E6BD
:102D900016E0C4E1D0E0F80161918F01CE010E94FC
:102DA00024152196CE31D105B1F76091800686E0D9
:102DB00090E00E9424156AE587E090E00E942415C7
:102DC00060E088E090E00E9424156CED89E090E0DE
:102DD0000E94241560E08AE090E00E94241580E0C3
:102DE00090E00E9422158093230181E090E00E94F0
:102DF0002215809383060E94D515809183068093C7
:102E00007D068BE090E00E94221591E0811101C0C7
:102E100090E090930E0181E790E00E94221591E0EE
:102E2000811101C090E090930D018CE090E00E9430
:102E3000221591E0811101C090E090930C0100E611
:102E400016E0C4E1D0E0CE010E942215F801819382
:102E50008F012196CE31D105B1F783E090E00E9439
:102E60002215C82F82E090E00E9422152C2F30E01E
:102E7000322F2227282B30931E0120931D0185E03D
:102E800090E00E942215C82F84E090E00E94221555
:102E90002C2F30E0322F2227282B30931C01209337
:102EA0001B0186E090E00E9422158093800688E056
:102EB00090E00E942215C82F87E090E00E94221522
:102EC0002C2F30E0322F2227282B3093160120930D
:102ED00015018AE090E00E942215C82F89E090E059
:102EE0000E9422152C2F30E0322F2227282B3093DE
:102EF00014012093130181E080936D0660E676E073
:102F000085E896E00E94420518168CF48DE00E9438
:102F1000CA3261E0892B09F060E08DE00E949432B2
:102F200064E670E080E090E00E949531EFCF85E1AB
:102F30000E941532059714F41092800660E08DE02F
:102F4000DF91CF911F910F910C94943220E030E0EB
:102F5000F901EE0FFF1FEF5BFE4F408151814F3FA4
:102F6000510539F48F3F910521F0918380832CE046
:102F700030E02F5F3F4F2A30310554F308950F930F
:102F80001F93CF93DF93CDB7DEB7C555D1090FB6E9
:102F9000F894DEBF0FBECDBF20910D0180913901A5
:102FA00090913A01211105C08D392FEF920709F058
:102FB000ACC040E250E060E070E021964CAF5DAF05
:102FC0006EAF7FAF219722961FAE22978E01075DCD
:102FD0001F4F24E1D8011D922A95E9F74AE0BE016E
:102FE0006F5A7F4F0E9416394AE0BE01645B7F4FE3
:102FF00080913B0190913C010E9416394AE0BE014C
:10300000695B7F4F80913D0190913E010E9416398E
:103010004AE0BE016E5B7F4F80913F01909140017D
:103020000E94163988E0EAE7F5E0DE015596019046
:103030000D928A95E1F7FE017D968CE0DF011D92ED
:103040008A95E9F78AE0EEE8F5E0DE011196019055
:103050000D928A95E1F7FE013B968AE0DF011D9211
:103060008A95E9F767E271E0C8010E94043980910E
:10307000390190913A018D399F4F39F080913F018C
:10308000909140010196A1F409C0FE017596D80106
:1030900081918D93E017F107D9F7F0CFFE013196BA
:1030A000D801CE01459621912D93E817F907D9F75C
:1030B000BE01635C7F4FC8010E940439BE016F5A94
:1030C0007F4FC8010E940439BE01635C7F4FC80175
:1030D0000E940439BE01645B7F4FC8010E9404391D
:1030E000BE01635C7F4FC8010E940439BE01695B69
:1030F0007F4FC8010E940439B80185E597E00E941E
:1031000028351092400110923F01CB5ADF4F0FB685
:10311000F894DEBF0FBECDBFDF91CF911F910F910D
:1031200008952F923F924F925F926F927F928F926B
:103130009F92AF92BF92CF92DF92EF92FF920F9346
:103140001F93CF93DF9300D0CDB7DEB7382EAAE020
:10315000FA2E00E010E0C12CD12C84E10E9415323F
:1031600084E10E941532C80ED91E85E10E941532F5
:1031700085E10E941532080F191FFA9471F72AE0B1
:1031800030E0C601B9010E947638FB01C801B901DF
:103190000E9476384B0180912301873061F5809140
:1031A000190190911A01E817F90720F4F0931A0118
:1031B000E093190180911701909118018E179F07D4
:1031C00020F4F0931801E093170180911101909180
:1031D00012018816990620F4909212018092110132
:1031E00080910F01909110018815990520F490921B
:1031F000100180920F01E0901B01F0901C0100E093
:1032000010E020911D0130911E0140E050E0BF010F
:10321000882777FD8095982F1F921F921F92E4E6D2
:103220002E2E2F92A12CB12C6501A3940E94F5356E
:103230002B013C017A836983E0901301F090140123
:1032400000E010E0209115013091160140E050E0BF
:10325000B401882777FD8095982F1F921F921F92A7
:103260002F920E94F5356B017C018B010FB6F8940B
:10327000DEBF0FBECDBF3FEF331260C0809180062E
:10328000882321F0823009F051C053C0B60188274D
:1032900077FD8095982F0E944F374B015C01B2015A
:1032A000882777FD8095982F0E944F37A5019401BC
:1032B0000E944F36A50194010E94B43620E030E010
:1032C00048EC52E40E9403384B015C0120E030E0FE
:1032D000A9010E94FF3718161CF4C501B40103C0F0
:1032E000C501B40190580E941C3764307105DCF0B0
:1032F00080917F06E981FA810E171F0724F41816C2
:1033000064F4815008C029813A81201731072CF4D8
:1033100087301CF48F5F80937F0680917F0688231F
:1033200029F0873034F43090260105C033243394DB
:1033300002C0B2E03B2E832D0E94721531E033169D
:1033400021F080912301873011F4820101C08601B0
:103350008090700690907106A0907206B0907306EF
:1033600081149104A104B10429F10E946631E0E4C2
:103370008E0EEFE19E1EA11CB11C86169706A806B4
:10338000B906C0F4809123018830A1F44091260150
:103390008091250184131BC08091810690E09801E3
:1033A0002C5331098217930794F028583F4F281760
:1033B00039076CF0101611063CF4C80105361105EA
:1033C0007CF184E690E02CC081E090E029C040933D
:1033D00025010093810650923A0140923901D09222
:1033E0003C01C0923B01832D992787FD90959093D6
:1033F0003E0180933D018FEF9FEF909340018093BA
:103400003F010E94BF1781E090E0A0E0B0E0809310
:10341000700690937106A0937206B0937306CACF9C
:103420000F900F90DF91CF911F910F91FF90EF9030
:10343000DF90CF90BF90AF909F908F907F906F90D4
:103440005F904F903F902F9008958FEF0C949118BC
:1034500085E896E00C94260585E597E00E94F33216
:103460001816190694F485E597E00E940C338D3503
:1034700011F482E003C08B3521F481E080935A0679
:10348000089510925A0680E0089508954F925F9231
:103490006F927F928F929F92AF92BF92CF92DF9264
:1034A000EF92FF920F931F93CF93DF931F92CDB7AD
:1034B000DEB783E00E94CA32892B09F04AC010921D
:1034C000740610927506109276061092770682E3C3
:1034D00090E00E94261564E670E080E090E00E9493
:1034E000953182E390E00E94261564E670E080E06A
:1034F00090E00E94953110E083E00E94CA32892B4F
:1035000021F41A3011F00C94402210923A011092DA
:10351000390183E090E090933C0180933B010E944D
:10352000BF1780912301811103C081E080932301A3
:103530001A3008F418C786E0809323018EEF9FEFBE
:1035400090933A01809339010E94BF178FEF8093C7
:10355000210110927E0685E00E94CA32892B19F45F
:1035600086E08093230180916D0660912301811193
:1035700005C080912101681709F41CC210926D06E4
:10358000633011F40C94912248F4613009F46AC05C
:10359000623009F00BC26093220151C0673021F103
:1035A000693009F4E5C1663009F000C26091830614
:1035B00081E090E00E9424156091220180E090E07B
:1035C0000E94241560910E018BE090E00E9424156A
:1035D00060910C018CE090E00E94241500E616E05A
:1035E00034E1E32EF12C56C0E2E3F0E0F0931E014B
:1035F000E0931D014CE251E050931C0140931B01EC
:103600002CED30E030931A01209319018AE590E007
:103610009093180180931701F0931601E093150120
:103620005093140140931301309312012093110120
:103630009093100180930F0183E080936A061092AB
:103640008406ECE4F3E0E491E093830610926C06C8
:1036500010926B0681E080936E0685E896E00E94EA
:103660004E0CA4C180E58093240110926C06109248
:103670006B0660937C061092740610927506109289
:103680007606109277066091230185E896E00E9405
:103690005B0778C1F80161918F01C7010E94241571
:1036A000FFEFEF1AFF0A2EE1E216F10499F760919D
:1036B000800686E090E00E942415809121018530EB
:1036C00009F473C080912201893009F46EC08091A1
:1036D0006701909168010E9422158F3FE9F08CE606
:1036E00090E00E942215082F10E00930110519F012
:1036F0000F5F1F4F02C000E010E0F801EE0FFF1F48
:10370000EB5AFE4F6FEF808191810E942415602F4C
:103710008CE690E00E942415E12CF12CF701EE0FCD
:10372000FF1FEB5AFE4F00811181C8010E94221534
:103730008F3F69F460918306C8010E9424156E2DA5
:103740008CE690E00E9424158CE0E82EF12C8FEF9F
:10375000E81AF80AEAE0EE16F10404F38EEF9FEFA0
:1037600090933A018093390110923C0110923B01F1
:103770000E94BF178CE690E00E94221540918306BC
:10378000E42FF0E0EE0FFF1FE455FC4F259134913C
:10379000E82EF12CFFEFEF1AFF0A00E616E0609129
:1037A000220185E896E00E947614809121018530FF
:1037B00011F58EEF9FEF90933A01809339011092AB
:1037C0003C0110923B010E94BF1740918306E42FF9
:1037D000F0E0EE0FFF1FE455FC4F259134911DE9F9
:1037E000E12EFF24FA9400E616E06091220185E8BC
:1037F00096E00E94761480912201893009F09DC0E4
:10380000809121018F3F09F098C084E690E00E94EA
:1038100026158DEF9FEF90933A0180933901109216
:103820003C0110923B010E94BF17E0915B06F091B2
:103830005C06EE0FFF1FEB5AFE4F6FEF8081918108
:103840000E942415E0918306F0E0EE0FFF1FE4557F
:10385000FC4F6591749140915B064F5F85E896E05F
:103860000E948008E1E4F1E08FEF90E08193919372
:1038700021E0E535F207D1F705E511E0E12CF12C67
:10388000F801819191918F010E9422158F3F31F0B3
:1038900090E00E94A617FFEFEF1AFF0A21E0093619
:1038A000120771F705E511E061E4C62E61E0D62E3E
:1038B000F6016081F2E0CF0ED11CF8018191919167
:1038C0008F010E942415F5E5CF16F1E0DF0681F7A0
:1038D0006E2D85E896E00E94310910925E066CE23A
:1038E00071E080E090E00E94953160E08CE690E02D
:1038F0000E9424150091550110915601C8010E94A3
:1039000022158093830610925C0610925B06C80114
:103910000E9422158093830661E085E896E00E946C
:10392000FB08809183060E9446158093840660916F
:10393000830681E090E00E94241515E084E690E083
:103940000E94261564E670E080E090E00E949531C8
:103950001150A1F768EB7BE080E090E00E94953188
:10396000809122018093230181E080936D061EC027
:103970000E94663160937406709375068093760694
:103980009093770680912201823031F0893021F0C6
:1039900080912101873031F481E090E00E9422156E
:1039A00080938306809123018093220180912301DB
:1039B0008093210180912301883009F06BC08091B0
:1039C0008306E82FF0E0EE0FFF1FE455FC4F259132
:1039D0003491E82FF0E0E458FC4F449100E616E003
:1039E0006091800685E896E00E947C0E0E94663118
:1039F00060937406709375068093760690937706AD
:103A00005DE9A52EBB24BA940E94251A80938206F4
:103A1000C0907406D0907506E0907606F090770618
:103A2000C114D104E104F10471F00E94663120E771
:103A3000C20E27E1D21EE11CF11CC616D706E8060D
:103A4000F90608F479C582E00E949118082F81E0F8
:103A50000E949118282F409182066091260185E8E6
:103A600096E00E94940F83E00E94CA32019709F009
:103A700072C582E00E94CA32019709F06CC584E0E9
:103A80000E94CA32019709F066C50E942C1A811162
:103A900062C5BACF843009F05FC01091800601E0A2
:103AA00010938006612F85E896E00E945C110E94C9
:103AB000251A82E00E949118282F81E029830E9414
:103AC00091182981482F6091260185E896E00E948F
:103AD0003B1283E00E94CA32019771F482E00E9497
:103AE000CA32019749F484E00E94CA32019721F456
:103AF0000E942C1A8823D9F283E00E94CA32892BB3
:103B000009F42EC582E00E94CA32892B09F42EC521
:103B100080915A06813009F429C584E00E94CA3296
:103B2000892B09F425C580915A06823009F420C5F5
:103B300013300CF417C510E082E390E00E942615C4
:103B400068EC70E080E090E00E9495310111A8CF10
:103B5000809122018093230180912301893019F003
:103B600010925E067EC00E9453150E94251A809313
:103B7000820620916B0630916C0690E082179307C5
:103B800008F4C90190936C0680936B060E9466311D
:103B9000609374067093750680937606909377060B
:103BA00080915E0681111FC069E080E090E00E9474
:103BB000241510925F0635E5E32E31E0F32E10E078
:103BC00001E0F701819191917F010E9422158F3FC1
:103BD00021F010935D0600935F061F5F1A3089F78E
:103BE00081E080935E0682E00E94CA32892B09F44C
:103BF000C5C480915A06813009F4C0C484E00E9493
:103C0000CA32892B09F41EC580915A06823009F404
:103C100019C580915F068111ADC46091230185E8CB
:103C200096E00E94900984E090E090933A0180939E
:103C30003901E0918306F0E0EE0FFF1FE455FC4FE1
:103C40008591949190933C0180933B0180915B0618
:103C500090915C06019690933E0180933D010E94F5
:103C6000BF1780912301982F9D7F913009F0C3C128
:103C70000E9453150E94251A809382060E942C1AD6
:103C800080935A06809183060E944615809384068D
:103C900080912301833009F08EC083E090E09093FF
:103CA0003A018093390182E00E94CA32892B21F0C7
:103CB00080915A06813039F50E946631609374060E
:103CC00070937506809376069093770682E390E072
:103CD0000E94261568EC70E080E090E00E9495312B
:103CE00010925A06909183069F5F9093830680916D
:103CF00084068F5F80330CF40AC5109284069033DB
:103D000010F01092830684E00E94CA32892B21F0C1
:103D100080915A06823039F50E94663160937406AC
:103D200070937506809376069093770682E390E011
:103D30000E94261568EC70E080E090E00E949531CA
:103D400010925A0690918306915090938306809129
:103D50008406815087FD8FE280938406903318F0AB
:103D60008FE2809383068091830690E0880F991FED
:103D700084559C4FFC012591349140913B01509119
:103D80003C014217530749F0FC01859194919093AF
:103D90003C0180933B010E94BF1780910C0181116F
:103DA0000AC0E0918406FF27E7FDF095E45BFC4F35
:103DB000E491E093830680912301813009F0AFC044
:103DC00082E090E090933A018093390160916B0614
:103DD00070916C0680E090E00E944D372DEC3CEC39
:103DE0004CE45FE30E9403380E941C3720912401B9
:103DF00030E02617370714F46093240120916F06F2
:103E0000211152C020917C06211122C030918206DE
:103E1000209124012317E0F481E080936F060E9433
:103E2000663160937406709375068093760690935E
:103E3000770684E690E00E94261564E670E080E054
:103E400090E00E94953184E690E00E9426152CC0F7
:103E500010927C062091840630912001230F20933C
:103E6000840620332CF0609324011092840607C04E
:103E700027FF09C0609324018FE28093840610928B
:103E80006C0610926B0680912401853008F485E061
:103E900080932401E0918406FF27E7FDF095E45B21
:103EA000FC4FE491E09383060E942C1A80935A06FB
:103EB00082E00E94CA32892B51F084E00E94CA320B
:103EC000892B29F080915A068150823030F582E0AA
:103ED0000E94CA32892B29F080915A06813009F05C
:103EE00019C481E08093200182E390E00E942615AE
:103EF00010925A0668EC70E080E090E00E949531E4
:103F000081E080937C0610926F06109274061092E6
:103F1000750610927606109277060E94BF17809061
:103F2000740690907506A0907606B0907706F8E833
:103F30008F0EF3E19F1EA11CB11C0E946631C09040
:103F40007406D0907506E0907606F0907706861697
:103F50009706A806B90650F4C114D104E104F1048F
:103F600029F080918206833308F0D6C3C114D104AE
:103F7000E104F10471F00E94663120E7C20E27E1EE
:103F8000D21EE11CF11CC616D706E806F90608F495
:103F9000C3C34091830680917D06841709F416C13E
:103FA000E42FF0E0EE0FFF1FE455FC4FE590F49096
:103FB000AA24A39480916F06811101C0A12CC09006
:103FC000240100918206209184066091230185E8F6
:103FD00096E00E94BF09E0918306F0E0EE0FFF1F1C
:103FE000E455FC4F8591949190933C0180933B0163
:103FF0000E94BF17EBC0823019F0873009F0E6C08D
:104000008FEF9FEF90933A01809339010E94BF1781
:1040100080916E06882351F010926E06809183067F
:104020000E94D5158091830680937D060E945315CA
:104030000E94251A8093820670912301723079F4D0
:10404000813568F09C01332740916B0650916C06D6
:104050004217530720F430936C0620936B0620918F
:104060008306E22FF0E0E458FC4F0491E22FF0E0E9
:10407000EE0FFF1FE455FC4FE590F490A090170160
:10408000B0901801C0901901D0901A0161E077300A
:1040900009F060E0282F4091840685E896E00E94B0
:1040A0001F0D809184068F3224F48F5F80938406E5
:1040B00074C01092840680912301873009F06DC08E
:1040C00080916A069FEF980F90936A06811165C0F0
:1040D0006091190180911A0160931D0180931E0166
:1040E00080911701909118018D37910510F48CED96
:1040F00090E090931C0180931B0182E090E00E946D
:10410000241560911E0183E090E00E9424156091C7
:104110001B0184E090E00E94241560911C0185E061
:1041200090E00E94241585E10E94153205975CF10C
:104130006091110180911201609315018093160125
:1041400080910F01909110018D37910510F48CED45
:1041500090E0909314018093130187E090E00E9417
:1041600024156091160188E090E00E94241560916A
:10417000130189E090E00E942415609114018AE007
:1041800090E00E94241580E090E00E942215809328
:10419000230188EE93E00E9426150E942C1A80933A
:1041A0005A0682E00E94CA32892B09F4C1C280916A
:1041B0005A06813009F4BCC2E0918406FF27E7FD6E
:1041C000F095E45BFC4FE491E0938306809123013A
:1041D000853009F081C085E896E00E942E1381E0C9
:1041E00090E090933A018093390190933C01809341
:1041F0003B010E94BF1744244A94542CF12CBB2449
:10420000B39440E2A42E5DE7952E67E0862E76E01B
:10421000772E66246394CC24C394D12CE42C00E63E
:1042200016E020910C0140910E016F2D85E896E07B
:104230000E942F1312E3115009F4DAC283E00E94A6
:10424000CA320197A9F482E00E94CA32019781F430
:1042500084E00E94CA32019759F40E942C1A8111FD
:1042600007C064E670E080E090E00E949531E3CF03
:1042700083E00E94CA32892B09F0EBC282E0F81673
:1042800009F4CDC28F150CF4C1C2F110B6C28091F1
:104290000C01862580930C01D0923A01C09239011D
:1042A0008F2D992787FD9095019690933C018093DF
:1042B0003B010E94BF1782E390E00E94261566E949
:1042C00070E080E090E00E9495312FEF4216520698
:1042D00009F4D7C2B110A2CF8091830690917D06D8
:1042E000981709F412C30E94D51580918306809314
:1042F0007D060E94663160937806709379068093FC
:104300007A0690937B0680911F01882309F4FDC2F1
:1043100010921F0184E690E00E94261564E670E08A
:1043200080E090E00E94953184E690E00E9426159E
:1043300064E670E080E090E00E94953184E690E0D1
:104340000F90DF91CF911F910F91FF90EF90DF9031
:10435000CF90BF90AF909F908F907F906F905F9025
:104360004F900C94261572E0C72EE2E3EE2EF3E098
:10437000FF2EA9E0BA2EB5E0AB2E14E0912EDD247D
:10438000D39402E0802E87E0682E712C0DE91FEF98
:1043900022E0C216F1F02C1554F0CC2099F081E007
:1043A000C8122AC080922301C0926E0631C0E4E098
:1043B000CE16F9F0CE1684F0F5E0CF121DC0C092F3
:1043C00023011DC0D0922301D0927C0610926F066B
:1043D0001FC0F09223011CC085E10E941532059791
:1043E0001CF09092230114C0A092230164E0C62E19
:1043F0000FC0B09223010CC024E02C154CF4409166
:104400000D016BEF6C0D85E896E00E94D00505C0AC
:104410006C2D85E896E00E947D0683E00E94CA32FA
:10442000892BB9F182E00E94CA32892B91F184E094
:104430000E94CA32892B69F10E942C1A813049F1FD
:104440000E942C1A823029F1EA9461F183E00E94E3
:10445000CA32019709F582E00E94CA320197E1F45D
:1044600084E00E94CA320197B9F40E942C1A81118B
:1044700013C064E670E080E090E00E949531E4CFE4
:1044800064E670E080E090E00E9495311F5F0C943C
:104490007C1A92E3E92EC1CF83E00E94CA32892BB5
:1044A00009F05FC186E0C8121DC060910D016D2545
:1044B00060930D0181E790E00E94241580910D0129
:1044C000811105C010933A010093390108C0109280
:1044D0003A011092390170923C0160923B010E94B6
:1044E000BF178DCF83E00E94CA32892B21F08091C3
:1044F00022018093230184E690E00E94261562E366
:1045000070E080E090E00E94953184E690E00E94A7
:10451000261562E370E080E090E00E9495310C94F3
:10452000A61A0E9466316093740670937506809394
:10453000760690937706A7C8B0923A01A092390107
:104540000E94BF171092740610927506109276069C
:104550001092770678CA8091220180932301D5C1F9
:1045600000E0E6CA17FFE8CA12E0E6CA1150E0CA46
:104570001F5FDECA88E08093230155CB68EC70E0B2
:1045800080E090E00E94953180915B0690915C06FE
:10459000019690935C0680935B0620915D0630E067
:1045A0002817390724F410925C0610925B060091DC
:1045B0005B0610915C06F801EE0FFF1FEB5AFE4FF1
:1045C000808191810E942215809383068F3F99F10B
:1045D00061E0600F85E896E00E94FB088091830609
:1045E0000E944615809384060E946631609374068B
:1045F00070937506809376069093770682E390E039
:104600000E94261568EC70E080E090E00E949531F1
:1046100080918406803314F0109284068091830682
:10462000803310F0109283066091830681E090E061
:104630000E942415E3CA0150110910935C060093EF
:104640005B06DCCA68EC70E080E090E00E94953187
:1046500080915B0690915C06019790935C06809335
:104660005B0697FF07C080915D0690E090935C0623
:1046700080935B0600915B0610915C06F801EE0FDB
:10468000FF1FEB5AFE4F808191810E94221580937B
:1046900083068F3FA9F161E0600F85E896E00E94F4
:1046A000FB08809183060E944615809384060E9431
:1046B00066316093740670937506809376069093C6
:1046C000770682E390E00E94261568EC70E080E0B7
:1046D00090E00E9495318091840687FF03C08FE2AD
:1046E0008093840680918306803318F08FE2809354
:1046F00083066091830681E090E00E94241589CAB8
:104700000F5F1F4F10935C0600935B0682CA809375
:104710008406F5CA8FEFE6CB88E0809323018DE90C
:104720009FEF90933A01809339010E94BF1731CCDB
:1047300082E390E00E94261568EC70E080E090E053
:104740000E9495318FEF809321011092840681E0C1
:1047500080936E0610926C0610926B0610925A06A9
:104760002BCD82E00E94CA32892B91F180915A06AA
:10477000813071F184E00E94CA32892BB9F18091B5
:104780005A06823099F1E6E0EC152CF0C7FE04C021
:1047900056E0C52E01C0C12C82E390E00E94261590
:1047A00068EC70E080E090E00E94953110923A0150
:1047B000109239018C2D992787FD90950196909341
:1047C0003C0180933B010E94BF1742E3E42EE0CD01
:1047D000EC2CCA9485E10E9415320597A4F683E07B
:1047E000C812D1CF8EEFC82ECE0CCDCFC394CBCF75
:1047F00080912201809323016FCDE1E0FE1237C04A
:1048000080910E018F2580930E0146CDF3E0FF16B7
:1048100079F024E0F2122BC07092230118C08FEFC0
:10482000481A580AEAE04E1651040CF06AC034CD1A
:104830001AE089E190E00E94261569E170E080E0CD
:1048400090E00E9495311150A1F780922301B12C84
:1048500023CD82E00E94CA32892B21F080915A0632
:104860008130B9F5EFEF4E165E0641F5FA94F4E0AB
:10487000FF152CF0F7FE10CD24E0F22E0DCDF12C1B
:104880000BCD83E00E94CA32892B09F418CD82E057
:104890000E94CA32892B09F412CD84E00E94CA32E8
:1048A000892B09F40CCD0E942C1A813009F407CD14
:1048B0000E942C1A823009F402CD0CCDF201E05A8C
:1048C000F94F80818F5F8E3714F0A082D0CF808324
:1048D000CECF84E00E94CA32892B21F080915A0603
:1048E000823029F6FFEF4F165F0611F4F394BFCF25
:1048F000F201E05AF94F80818150803244F7908272
:10490000B6CF44244A94542CC7CC0F90DF91CF915A
:104910001F910F91FF90EF90DF90CF90BF90AF90DD
:104920009F908F907F906F905F904F9008950F931E
:104930001F93CF93DF93EC018D89823061F0833038
:10494000D9F0813009F0C8C0EC81FD81E41BF50B82
:104950003197DB0118C08C819D81DC01A61BB70B50
:10496000BD018E819F81FC01E41BF50BAF0141501D
:104970005109621B730BB0C0AE81BF81A61BB70B80
:10498000A21BB30BFA01F7FD05C18C819D81E817CD
:10499000F9070CF0FFC0B7FF04C02A0F3B1FA0E0CF
:1049A000B0E08E819F81AD01420F531F84179507A0
:1049B0001CF49C012A1B3B0B121613060CF0EAC0D8
:1049C000422F8A2F86958695869590E8899FE00DDF
:1049D000F11D1124E758FE4FA77069F158E05A1BEA
:1049E000852F90E0EC01CF58DE4F6881251760F4E9
:1049F000DC01A21BB1098FEF90E00A2E02C0959551
:104A000087950A94E2F768230130110539F048F0E0
:104A10000230110551F48081862706C08081862BE3
:104A200003C06095808186238083451708F4B2C057
:104A3000451BE058FF4F4830A0F102301105A9F4A2
:104A4000DF01842F9C9190959C93A058BF4F885074
:104A50008830C0F788EF840F869586958695B0E8F4
:104A60008B9FE00DF11D112419C081E0013011056B
:104A700009F080E0982F9195EF01842F9883C0581A
:104A8000DF4F88508830D0F788EF840F8695869561
:104A9000869590E8899FE00DF11D1124E058FF4FA5
:104AA0004770442309F476C0A42FB0E0A759BE4F45
:104AB0009C910130110541F050F00230110509F0D0
:104AC00069C08081892706C08081892B03C09095A9
:104AD0008081892380835EC057FD5CC08E819F8169
:104AE000481759070CF056C077FF04C0260F371F30
:104AF00060E070E08C819D81FB01E20FF31F8E1757
:104B00009F071CF49C01261B370B121613060CF092
:104B100041C0CA0157FD0796E3E095958795EA9550
:104B2000E1F79695982F88279795879587589E4FF8
:104B3000860F971F4770552761E070E001C0660F30
:104B40004A95EAF7462F0130110541F088F002300E
:104B5000110501F5FC01280F391F15C0FC01280FB4
:104B6000391FE217F307B1F08081842B8193F9CFCD
:104B70006095FC01280F391FE217F30759F0808177
:104B800086238193F9CFE217F30721F080818427F0
:104B90008193F9CFDF91CF911F910F9108950F93DA
:104BA0001F93CF93DF93FC018589823069F08330B6
:104BB000E1F0813009F082C0C481D581C41BD50BDE
:104BC000C21BD30BDB0117C084819581DC01A61BBE
:104BD000B70BBD016150710986819781DC01A41B6F
:104BE000B50BAD01421B530B69C0A681B781A61B53
:104BF000B70B1197EA01B7FD08C186819781A81705
:104C0000B9070CF002C1D7FF04C02C0F3D1FC0E054
:104C1000D0E084819581AE01420F531F8417950720
:104C20001CF49C012C1B3D0B121613060CF0EDC05E
:104C3000CD01B7FD079643E0959587954A95E1F735
:104C40009695982F88279795879587589E4F8C0F14
:104C50009D1FA770BB2741E050E00A2E01C0440F02
:104C60000A94EAF7642F0130110549F098F00230F8
:104C7000110509F0CAC0FC01280F391F17C0FC013B
:104C8000280F391FE217F30709F4BFC08081862B74
:104C90008193F8CF4095FC01280F391FE217F307E5
:104CA00009F4B3C0808184238193F8CFE217F3071E
:104CB00009F4ABC0808186278193F8CF77FDA5C02A
:104CC00084819581681779070CF09FC057FF04C055
:104CD000240F351F40E050E086819781FA01E20FF2
:104CE000F31F8E179F071CF49C01241B350B121613
:104CF00013060CF08AC0522F842F869586958695D0
:104D0000FB01B0E88B9FE00DF11D1124E758FE4F29
:104D1000477069F168E0641B862F90E0EC01CF5882
:104D2000DE4F4881261760F4DC01A21BB1098FEF2A
:104D300090E00A2E02C0959587950A94E2F74823E1
:104D40000130110539F048F00230110551F480812D
:104D5000842706C08081842B03C0409580818423F2
:104D60008083561708F451C0561BE058FF4F583047
:104D7000A0F102301105A9F4DF01852F9C919095D7
:104D80009C93A058BF4F88508830C0F788EF850F9C
:104D9000869586958695B0E88B9FE00DF11D1124D0
:104DA00019C081E00130110509F080E0982F91953C
:104DB000EF01852F9883C058DF4F88508830D0F797
:104DC00088EF850F86958695869590E8899FE00DFA
:104DD000F11D1124E058FF4F57705523B1F0A52F56
:104DE000B0E0A759BE4F9C910130110539F048F051
:104DF0000230110551F48081892706C08081892BFA
:104E000003C09095808189238083DF91CF911F918A
:104E10000F910895CF92DF92EF92FF920F931F931D
:104E2000CF93DF937C018B01EA01690177FDA0C07C
:104E30000E94822E081719070CF09AC0D7FD98C05F
:104E4000C7010E94862EC817D9070CF091C0C70170
:104E50000E947F2E823009F07FC0F7018481958106
:104E60009C01201B310B890101501109868197811A
:104E7000FC01EC1BFD0BEF0121970BC0813049F4C5
:104E8000F701848195818C1B9D0BE8018C010150F9
:104E90001109F1E0CF16D10431F010F132E0C31660
:104EA000D104E1F165C0FE01D7FD379683E0F595A9
:104EB000E7958A95E1F7F695FE2FEE27F795E795AA
:104EC000E00FF11FE758FE4FC770DD2781E090E04B
:104ED0000C2E01C0880F0A94EAF79081982B3AC0F3
:104EE000FE01D7FD3796A3E0F595E795AA95E1F782
:104EF000F695FE2FEE27F795E795E00FF11FE7589F
:104F0000FE4FC770DD2781E090E00C2E01C0880FB6
:104F10000A94EAF78095908198231CC0FE01D7FD82
:104F2000379663E0F595E7956A95E1F7F695FE2FDC
:104F3000EE27F795E795E00FF11FE758FE4FC77092
:104F4000DD2781E090E00C2E01C0880F0A94EAF77B
:104F50009081982790830CC0833009F08FCFF701A0
:104F600086819781801B910B8E01EC01219791CF57
:104F7000DF91CF911F910F91FF90EF90DF90CF9035
:104F800008951F93CF93DF93EC01162F40E450E078
:104F900060E870E00E94CE2B80EB95E099838883D7
:104FA0008FEF8C8F88A38E8F8D8F1F8FDF91CF9186
:104FB0001F91089580E094E0E9E7F1E0DF019C01B2
:104FC0001D9221503040E1F70895FC0181A1882312
:104FD00039F06EBD00000DB407FEFDCF8EB508950B
:104FE00088E090E030E8A4A1B5A14C9123A52095DC
:104FF00024232C93A2A1B3A122A5432F462321F061
:105000004C91422B4C9304C04C91209524232C931B
:10501000A4A1B5A12C9143A5242B2C9336950197DF
:1050200011F708951F93CF93DF93EC01162F8C8D0A
:105030008F3F09F1EEA1FFA180819CA5892B808380
:10504000E8A5F9A590818DA5809589238083EEA19F
:10505000FFA190818CA5809589238083CE010E9439
:10506000E527EEA1FFA180819CA5892B8083DF919C
:10507000CF911F9108958A8D682F772767FD7095CE
:105080008CE896E00E94352F60E08CE896E00E9464
:10509000E22E612F8CE896E00E94E22E8CE896E0EA
:1050A000DF91CF911F910C944A2F0F931F93CF93B1
:1050B000DF93EC01162F022F6B8F4A8F8C8D8F3F61
:1050C00009F48CC061E08E8D0E945B3261E088A1A2
:1050D0000E945B3288A1992787FD9095FC01EC56D0
:1050E000F64FE491F0E0EE0FFF1FEE54F64F2591DE
:1050F00034913FA32EA3FC01E058F64F84918CA776
:105100008E8D992787FD9095FC01EC56F64FE49122
:10511000F0E0EE0FFF1FEE54F64F2591349139A7C2
:1051200028A7FC01E058F64F84918DA789A1811131
:1051300034C061E08C8D0E945B3261E08D8D0E94F5
:105140005B328D8D992787FD9095FC01EC56F64FCB
:10515000E491F0E0EE0FFF1FEE54F64F25913491ED
:105160003DA32CA3FC01E058F64F84918BA78C8DB6
:10517000992787FD9095FC01EC56F64FE491F0E0FD
:10518000EE0FFF1FEE54F64F259134913BA32AA357
:10519000FC01E058F64F84918AA789A1882311F178
:1051A0000E94112A80918A06882399F09FB7F8946B
:1051B00080918A06813059F48DB3809388062DB38F
:1051C00080918906809582238DBB9FBF02C09093FA
:1051D000880680E58CBD81E08DBD04C08CE896E03A
:1051E0000E94212F0023F1F08F8D87FD1BC061E00D
:1051F0000E945B3261E08F8D0E94943261E070E02A
:1052000080E090E00E94953160E08F8D0E949432A2
:105210006AE070E080E090E00E94953161E08F8D5F
:105220000E9494326EEACE010E94122865EDCE01F2
:105230000E94122860E8CE010E94122868EACE017E
:105240000E9412286FE3CE010E94122863EDCE0166
:105250000E94122860E0CE010E94122860E4CE0174
:105260000E9412286DE8CE010E941228113011F41C
:1052700060E101C064E1CE010E94122860E2CE012B
:105280000E94122860E0CE010E94122861EACE013D
:105290000E94122868ECCE010E9412286AEDCE010D
:1052A0000E94122862E1CE010E94122861E8CE011C
:1052B0000E941228113011F46FE901C06FECCE0189
:1052C0000E94122869EDCE010E941228113011F4BB
:1052D00062E201C061EFCE010E9412286BEDCE01A7
:1052E0000E94122860E4CE010E94122864EACE01D6
:1052F0000E94122866EACE010E9412286EE2CE01B8
:105300000E9412286FEACE01DF91CF911F910F9179
:105310000C941228DF92EF92FF920F931F93CF937A
:10532000DF93EC0161E20E94122860E0CE010E944E
:1053300012286FE7CE010E94122862E2CE010E947D
:10534000122860E0CE010E94122867E0CE010E9480
:1053500012288C8D8F3F31F1EEA1FFA180819CA599
:10536000892B8083E8A5F9A580819DA5892B808361
:10537000EEA1FFA190818CA580958923808309E708
:1053800011E0F80161918F01CE010E94E527F5E05F
:1053900009371F07B1F7EEA1FFA180819CA5892BDA
:1053A000808337C0D090B8008CE08093B80009E7C4
:1053B00011E06A8D772767FD70958CE896E00E9472
:1053C000352FE0918C06F0918D060190F081E02D53
:1053D00060E48CE896E00995E12CF12CF801EE0DE3
:1053E000FF1D60818CE896E00E94E22E8FEFE81AA4
:1053F000F80AE0E1EE16F10489F78CE896E00E94E5
:105400004A2F005F1F4FF5E009371F0791F6D09232
:10541000B800DF91CF911F910F91FF90EF90DF9037
:105420000895CF93CFB7F89480918B06811127C050
:10543000EEE9F9E08491EAE8F9E09491E82FF0E0F0
:10544000EE0FFF1FE454F64FA591B4918C91892380
:1054500021F461E08AE00E94943261E08AE00E94D7
:105460005B328CB580618CBD8CB580648CBD61E095
:105470008DE00E945B3261E08BE00E945B328091A4
:105480008B068F5F80938B06CFBFCF9108952F92AD
:105490003F924F925F926F927F928F929F92AF92C4
:1054A000BF92CF92DF92EF92FF920F931F93CF9311
:1054B000DF9300D000D0CDB7DEB74C017C836B8387
:1054C0006A015901C8018701AC014C195D0957FFF8
:1054D00003C051954195510995016B817C81261B33
:1054E000370B37FF03C031952195310922242394CE
:1054F000312C2417350714F0212C312C21143104C0
:1055000059F03A2D2B2D5C01832F922F3B812C815A
:10551000DC82CB82C32ED22EAB81BC81AA16BB0605
:105520005CF43C2D2D2D6C01832F922F3B812C811F
:10553000BC82AB82A32EB22E2501EB81FC814E1AD8
:105540005F0A3C016C187D0877FE03C0719461947A
:105550007108720157FE03C0FFEFEF1AFF0AF594BE
:10556000E794C816D9062CF421E030E03A83298369
:1055700024C06FEF7FEF7A8369831FC0D401ED9160
:10558000FC910480F581E02D980121143104D9F0BB
:105590004B815C81B601C4010995E618F708F7FE56
:1055A00006C0E981FA81CE0EDF1EE40CF51C2B81CA
:1055B0003C812F5F3F4F3C832B836B817C81A61600
:1055C000B706E4F604C0A6016B817C81E4CF0F909E
:1055D0000F900F900F90DF91CF911F910F91FF903F
:1055E000EF90DF90CF90BF90AF909F908F907F9083
:1055F0006F905F904F903F902F9008956F927F92A1
:105600008F929F92AF92BF92CF92DF92EF92FF92D2
:105610000F931F93CF93DF93EC015B016A01390174
:105620004801E881F9810284F385E02D870109951D
:10563000E881F981A601480D591D415051090284A4
:10564000F385E02D9301B501CE010995E881F9813B
:105650000084F185E02D9401A601B501CE010995E4
:10566000E881F981B501660D771D615071090084EB
:10567000F185E02D9401A601CE010995DF91CF912E
:105680001F910F91FF90EF90DF90CF90BF90AF9060
:105690009F908F907F906F900895EF92FF920F935D
:1056A0001F93DC01ED91FC91240F351F215031092E
:1056B0000680F781E02D780189019B0109951F91F2
:1056C0000F91FF90EF900895EF92FF920F931F9329
:1056D000DC01ED91FC91260F371F21503109068026
:1056E000F781E02D78018A0109951F910F91FF90B4
:1056F000EF9008956F927F928F929F92AF92BF9298
:10570000CF92DF92EF92FF920F931F93CF93DF938D
:105710005C014A0169013801EB01C60ED71ECC15A8
:10572000DD0574F4D501ED91FC910084F185E02D47
:1057300087019301A401BE01C50109952196EFCF10
:10574000DF91CF911F910F91FF90EF90DF90CF905D
:10575000BF90AF909F908F907F906F900895EF9241
:10576000FF920F931F93DC01ED91FC9111971A9614
:105770000D911C911B9718962D913C9119970684B9
:10578000F785E02D7B0140E050E060E070E0099596
:105790001F910F91FF90EF9008950895FC011382DF
:1057A000128288EC95E091838083758364835783AC
:1057B00046837187608753874287158A15861486CA
:1057C0001786168621E0248B8FEF9FEF938B828BB9
:1057D000918B808B268B178A118E108E08952F92B5
:1057E0003F924F925F926F927F928F929F92AF9271
:1057F000BF92CF92DF92EF92FF920F931F93CF93BE
:10580000DF93CDB7DEB76A970FB6F894DEBF0FBE51
:10581000CDBF1C0158874F831C870B87FA86E9860A
:10582000CC82DC0158964D915C91599741155105F8
:1058300009F0A6C018968D919C9119976817790761
:105840000CF056C11A968D919C911B97EF81F885AB
:10585000E817F9070CF04CC1D12CCB013C81F6E0E4
:105860003F9F800D911D1124181619060CF040C1A0
:10587000C60103E0880F991F0A95E1F74F8158850B
:10588000840F951F181619060CF032C157968C918B
:10589000811103C0203B08F02F5F7E876D874B018D
:1058A00019821CE6A12E14E0B12EA61AB70A55E003
:1058B000259FA00CB11C11248981853039F0ED851C
:1058C000FE85EA0DFB1D94919A8301C01A826F80B8
:1058D00078842301A8E0AD83BA81B0FF12C0D10162
:1058E000ED91FC91BC81B13031F40480F581E02D63
:1058F0002B853C8518C00684F785E02DEB84FC845D
:105900001DC0E985FA852B853C85E217F307E1F098
:10591000D101ED91FC91BC81B13059F40480F58145
:10592000E02D29853A85A2016D857E85C101099505
:105930000BC00684F785E02DE984FA848601960180
:10594000A301B401C1010995EA81E695EA83FD81CD
:10595000F150FD836C0C7D1C2FEF421A520AF1119D
:10596000BBCF39813F5F39838C0C9D1C4D855E8593
:105970004F5F5F4F5E874D87363009F09DCFB8C0CF
:10598000FA0134963491329785919491231BA7E0C4
:105990002A9F800D911D1124FA0125913491398B94
:1059A000288BFC01459154915A8F498FFC01329606
:1059B000549159873196A491AF873196E491FC01B7
:1059C0003596249131968491BC81B23050F0622E8C
:1059D000772467FC7094E82FFF27E7FDF095FE879A
:1059E000ED87FC81CF2ED12C6C9C40016D9C900CDE
:1059F0007C9C900C1124860E971EA12C1982DE8AA5
:105A0000CD8AAB01420F511D27FD5A955E834D8310
:105A1000AF81B885A80FB11D87FDBA95B88FAF8B40
:105A200059818F85581708F063C0852F90E02D8528
:105A30003E85280F391F2C9DD0012D9DB00D3C9D1A
:105A4000B00D1124EF81F885EA0FFB1FFB83EA8379
:105A50006D807E802401FA2D2D81F21BFA8B4F89F7
:105A6000588D480F591F5C8B4B8B9A89960D862D4C
:105A70002D81821B39858317B0F5977061F4898D6C
:105A80009A8D0196E889F989298D3A8DE20FF31FE5
:105A9000B4909A8F898FB7FE1DC0D101ED91FC9112
:105AA000BC81B13059F40480F581E02D2B853C8513
:105AB0004B895C89B301C10109950CC00684F78547
:105AC000E02DEB84FC84860196014A815B81B20162
:105AD000C1010995BB0CED89FE894E0E5F1EFFEFDB
