:100000000C9419050C9441050C9441050C94410580
:100010000C9441050C9441050C9441050C94410548
:100020000C9441050C9441050C9441050C94410538
:100030000C9441050C9441050C9441050C94410528
:100040000C94DF2F0C9441050C9499320C94CB3214
:100050000C9441050C9441050C9441050C94410508
:100060000C94B22E0C9441052D2D2053415645443D
:10007000202D2D005349474E3A00465245513A2013
:100080002020202047487A0020204641562043481F
:10009000414E3A004348414E3A004100420045007B
:1000A000462F4169727761766500432F526163651F
:1000B00000442F352E33202020200042414E443A68
:1000C000004155544F205345454B004641564F5231
:1000D000495445004D414E55414C0042414E44204B
:1000E0005343414E4E4552004D4F44453A00534113
:1000F00056452053455454494E47530053415645A5
:10010000202620455849540043414C49425241540D
:10011000452052535349005349474E203A20004F3F
:100120004646004F4E200042454550533A20004677
:1001300052455155454E4359004348414E4E454C5A
:100140002020004F524445523A2000534554555008
:10015000204D454E55005245434549564552204293
:100160000052454345495645522041004155544FA0
:1001700000444956455253495459004C4F57205357
:1001800049474E414C0052535349004200410041FF
:100190004E54204200414E542041004155544F00DE
:1001A000202020002020200035393435003538301B
:1001B000300035333632004D696E3A202020202041
:1001C0004D61783A005253534920534554555000DD
:1001D000424553543A0042414E44205343414E4E0F
:1001E0004552004155544F205345454B204D4F44F7
:1001F00045004155544F204D4F4445204C4F434BF3
:1002000000412020202020202020004220202020EB
:1002100020202020004520202020202020200046D3
:100220002F4169727761766500432F5261636520C3
:10023000202000442F352E33202020200046415618
:100240004F524954455300544F54414C2046415657
:100250002F45533D0052454F5247414E495A494E52
:1002600047204641562F4553200052454F524741A3
:100270004E495A494E470053454C45435445442046
:100280004641564F52495445204348002D2D2044A5
:10029000454C45544544202D2D00464156204348A9
:1002A000414E4E454C3A004348414E4E454C204647
:1002B0005245513A0044454C455445204641564F1D
:1002C00052495445204348414E00353934350035B4
:1002D00038303000353336320042414E443A004126
:1002E00055544F205345454B204D4F4445004D41FB
:1002F0004E55414C204D4F4445004641564F5249C2
:100300005445204D4F44450020202020202020200F
:1003100020004641564F52495445530044495645E2
:100320005253495459004D414E55414C204D4F4474
:10033000450042414E44205343414E4E45520041F8
:1003400055544F204D4F4445004D4F444520534593
:100350004C454354494F4E002000202020202020AF
:10036000202020005345545550204D454E55004DFA
:100370004F44452053454C454354494F4E00444952
:100380005341424C45440020454E41424C454400B7
:100390004469766572736974793A004F4B00506F07
:1003A0007765723A00426F6F7420436865636B0033
:1003B00028292A2B2C2D2E2F131220112110072231
:1003C000081806091905230A1A040B1B03240C1C20
:1003D000020D1D25010E1E000F1F261415271617CE
:1003E000A1A2A3A4A5A6A7A8B1B2B3B4B5B6B7B845
:1003F000E1E2E3E4E5E6E7E8F1F2F3F4F5F6F7F835
:10040000C1C2C3C4C5C6C7C8D1D2D3D4D5D6D7D824
:10041000E916D516C116AD169916851671165D1614
:10042000651678168B169E16B116C416D716EA16E0
:100430004916351621160D16FD16111725173917F1
:100440006C1680169416A816BC16D016E416F8166C
:100450001A163F1664168916AE16D316F8161D170F
:10046000F21417153C1561158615AB15D015F51549
:10047000052A9B29912987291D29132909299F28A4
:1004800003290C2916291F29892992299C29052A23
:1004900095288B28812817280F2A192A832A8D2A24
:1004A000062910291A2984298E299829022A0C2A1A
:1004B0001D288F2802291429872999290C2A1E2AE8
:1004C00009261C268E2601271327862798270B2806
:1004D00000000000003E5B4F5B3E3E6B4F6B3E1CDE
:1004E0003E7C3E1C183C7E3C181C577D571C1C5EF5
:1004F0007F5E1C00183C1800FFE7C3E7FF001824CC
:100500001800FFE7DBE7FF30483A060E2629792975
:1005100026407F050507407F05253F5A3CE73C5AAA
:100520007F3E1C1C08081C1C3E7F14227F22145F87
:100530005F005F5F06097F017F006689956A6060E2
:1005400060606094A2FFA29408047E040810207EDC
:10055000201008082A1C08081C2A08081E10101061
:10056000100C1E0C1E0C30383E3830060E3E0E06A7
:10057000000000000000005F0000000700070014FA
:100580007F147F14242A7F2A1223130864623649B9
:100590005620500008070300001C224100004122A1
:1005A0001C002A1C7F1C2A08083E080800807030A6
:1005B0000008080808080000606000201008040215
:1005C0003E5149453E00427F40007249494946211B
:1005D00041494D331814127F1027454545393C4A8F
:1005E00049493141211109073649494936464949A6
:1005F000291E0000140000004034000000081422EE
:10060000411414141414004122140802015909065B
:100610003E415D594E7C1211127C7F494949363E5C
:10062000414141227F4141413E7F494949417F0942
:100630000909013E414151737F0808087F00417F4D
:1006400041002040413F017F081422417F4040404B
:10065000407F021C027F7F0408107F3E4141413EE3
:100660007F090909063E4151215E7F091929462665
:100670004949493203017F01033F4040403F1F2069
:1006800040201F3F4038403F631408146303047840
:1006900004036159494D43007F4141410204081060
:1006A00020004141417F040201020440404040409B
:1006B000000307080020545478407F284444383809
:1006C00044444428384444287F385454541800087B
:1006D0007E090218A4A49C787F0804047800447D55
:1006E00040002040403D007F1028440000417F40F2
:1006F000007C047804787C08040478384444443846
:10070000FC1824241818242418FC7C080404084825
:100710005454542404043F44243C4040207C1C2076
:1007200040201C3C4030403C44281028444C9090D1
:10073000907C4464544C440008364100000077002B
:1007400000004136080002010204023C2623263C38
:100750001EA1A161123A4040207A385454555921C3
:1007600055557941225454784221555478402054AB
:100770005579400C1E5272123955555559395454F9
:10078000545939555454580000457C410002457D68
:10079000420001457C407D1211127DF0282528F091
:1007A0007C545545002054547C547C0A097F4932BE
:1007B000494949323A4444443A324A4848303A4135
:1007C00041217A3A42402078009DA0A07D3D4242DE
:1007D000423D3D4040403D3C24FF2424487E494367
:1007E000662B2FFC2F2BFF0929F620C0887E0903DA
:1007F00020545479410000447D413048484A323801
:100800004040227A007A0A0A727D0D19317D26292C
:10081000292F28262929292630484D402038080824
:10082000080808080808382F10C8ACBA2F10283458
:10083000FA00007B000008142A142222142A14084B
:100840005500550055AA55AA55AAFF55FF55FF005A
:100850000000FF00101010FF00141414FF0010100F
:10086000FF00FF1010F010F0141414FC001414F723
:1008700000FF0000FF00FF1414F404FC1414171010
:100880001F10101F101F1414141F00101010F00060
:100890000000001F101010101F10101010F010009A
:1008A0000000FF101010101010101010FF100000AA
:1008B00000FF140000FF00FF00001F10170000FCE5
:1008C00004F414141710171414F404F40000FF00B7
:1008D000F714141414141414F700F7141414171440
:1008E00010101F101F141414F4141010F010F00046
:1008F000001F101F0000001F14000000FC14000067
:10090000F010F01010FF10FF141414FF141010104A
:100910001F00000000F010FFFFFFFFFFF0F0F0F0FD
:10092000F0FFFFFF0000000000FFFF0F0F0F0F0F91
:100930003844443844FC4A4A4A347E0202060602DD
:100940007E027E0263554941633844443C04407E44
:10095000201E2006027E020299A5E7A5991C2A49BD
:100960002A1C4C7201724C304A4D4D303048784848
:1009700030BC625A463D3E494949007E0101017E34
:100980002A2A2A2A2A44445F444440514A44404087
:10099000444A51400000FF0103E080FF00000808C6
:1009A0006B6B083612362436060F090F0600001846
:1009B000180000001010003040FF0101001F01016D
:1009C0001E00191D1712003C3C3C3C0000000000BA
:1009D00000000008000201000003040700000000FE
:1009E00000000000010204081020408001020408F9
:1009F0001020010204081020040404040404040468
:100A000002020202020203030303030300000000C8
:100A100023002600290000000000250028002B00EC
:100A200000000000240027002A007F16401A102E24
:100A3000FB3211241FBECFEFD8E0DEBFCDBF15E0E3
:100A4000A0E0B1E0ECEDFEE602C005900D92A43C02
:100A5000B107D9F727E0A4ECB5E001C01D92A63A92
:100A6000B207E1F71AE0C2E3DAE004C02297FE0120
:100A70000E943737CA32D107C9F70E948A340C94D2
:100A80006C370C940000A2EFB5E020E0FC0134913B
:100A9000332331F02E3121F03D9301962F5FF6CFB5
:100AA000E22FF0E0EE50FA4F308382EF95E00895A8
:100AB0002FEFFC0122831082089584EC95E00E94C0
:100AC0009D2640E050E060E070E084EC95E00E94FC
:100AD0002A2D61E084EC95E00E94302D61E070E009
:100AE00084EC95E00C94362DCF92DF92EF92FF923A
:100AF0000F931F93CF93DF936C01EB0121E04CE345
:100B000062E084EC95E00E94182784EC95E00E9456
:100B10004D2860ED77E080E090E00E945830C601FB
:100B20000E945D05E091C405F091C505C684D78497
:100B300084EC95E00E94452DEE24E394F12C0BE02B
:100B400010E09C0140E050E060E070E084EC95E053
:100B5000F601099560E070E084EC95E00E94362D86
:100B600084EC95E00E94452DBC016C53710977FF20
:100B700002C06F5F7F4F7595679542E050E084EC4F
:100B800095E00E942A2D85EA93E00E944305BC016E
:100B900084EC95E00E947C3361E070E084EC95E0A9
:100BA0000E94362D4CE050E060E070E084EC95E06F
:100BB0000E942A2D8EE993E00E944305BC0184EC3B
:100BC00095E00E947C3384EC95E00E94452DBC01A9
:100BD0006C5071094CE050E084EC95E00E942A2DA5
:100BE0008BE993E00E944305BC0184EC95E00E94F0
:100BF0007C3344E150E060E070E084EC95E00E94DA
:100C00002A2D84EC95E00E944D2880E993E00E9413
:100C10004305BC0184EC95E00E947C3384EC95E0B4
:100C20000E944D286AEF70E080E090E00E9458300A
:100C300084EC95E00E94452DBC016053710944E1AC
:100C400050E084EC95E00E942A2D85E10E94D83086
:100C500005971CF087E893E002C08EE793E00E94BE
:100C60004305BC0184EC95E00E947C3384EC95E064
:100C70000E94452DFE0101900020E9F73197EC1B01
:100C8000FD0B4CE04E9F90014F9F300D1124BC0195
:100C9000621B730B7695679544E250E084EC95E017
:100CA0000E942A2D62E084EC95E00E94302DBE0166
:100CB00084EC95E00E947C3384EC95E00E944D2802
:100CC00062EE74E080E090E00E94583080E0DF91B6
:100CD000CF911F910F91FF90EF90DF90CF900895EB
:100CE000CF92DF92EF92FF920F931F93CF93DF93F8
:100CF000EB01E091C405F091C505C484D58484EC72
:100D000095E00E94492D8C0184EC95E00E94452DD0
:100D1000EE24E394F12C9C0140E050E060E070E0B0
:100D200084EC95E0F6010995E091C405F091C505C4
:100D3000C684D78484EC95E00E94452D0BE010E03A
:100D40009C0140E050E060E070E084EC95E0F6014A
:100D5000099561E084EC95E00E94302D60E070E040
:100D600084EC95E00E94362D84EC95E00E94452DA0
:100D7000FE0101900020E9F73197EC1BFD0B46E0E6
:100D80004E9F90014F9F300D1124BC01621B730BCD
:100D90007695679542E050E084EC95E00E942A2D1C
:100DA000BE0184EC95E00E947C3361E070E084EC4D
:100DB00095E0DF91CF911F910F91FF90EF90DF9021
:100DC000CF900C94362DDF92EF92FF920F931F93EA
:100DD000CF93DF93EC01D62E0E945D058FE693E062
:100DE0000E944305BC01CE010E947006E091C4053B
:100DF000F091C505C685D78584EC95E00E94452D08
:100E00002AE0D29EA0011124445F5F4FEE24E394B8
:100E1000F12C0AE010E09C0160E070E084EC95E0C9
:100E2000FE010995C1E0D0E0D11002C0C0E0D0E0E1
:100E3000BE0184EC95E00E94362D4DE050E065E067
:100E400070E084EC95E00E942A2D84E693E00E94F5
:100E50004305BC0184EC95E00E947C338AE593E075
:100E60000E944305BC0184EC95E00E947C33E09134
:100E7000C405F091C5050190F081E02D68E184EC96
:100E800095E00995BE0184EC95E00E94362D47E17E
:100E900050E065E070E084EC95E00E942A2D88E542
:100EA00093E00E944305BC0184EC95E00E947C33F2
:100EB00084EC95E0DF91CF911F910F91FF90EF901F
:100EC000DF900C944D28DF92EF92FF920F931F93C7
:100ED000CF93DF93EC01D62E0E945D0589E493E069
:100EE0000E944305BC01CE010E947006E091C4053A
:100EF000F091C505C685D78584EC95E00E94452D07
:100F00002AE0D29EA0011124445F5F4FEE24E394B7
:100F1000F12C0AE010E09C0160E070E084EC95E0C8
:100F2000FE01099561E070E0D11002C060E070E060
:100F300084EC95E00E94362D4DE050E065E070E0D5
:100F400084EC95E00E942A2D8FE393E00E944305F4
:100F5000BC0184EC95E00E947C3361E070E0F1E03C
:100F6000DF1202C060E070E084EC95E00E94362D54
:100F700047E150E065E070E084EC95E00E942A2DA6
:100F800082E393E00E944305BC0184EC95E00E945B
:100F90007C3361E070E022E0D21202C060E070E0D9
:100FA00084EC95E00E94362D41E250E065E070E06F
:100FB00084EC95E00E942A2D86E293E00E9443058E
:100FC000BC0184EC95E00E947C3385E10E94D8301E
:100FD0000597E4F061E070E083E0D81202C060E0C1
:100FE00070E084EC95E00E94362D4BE250E065E025
:100FF00070E084EC95E00E942A2D8CE193E00E9441
:101000004305BC0184EC95E00E947C3361E070E014
:10101000E4E0DE1202C060E070E084EC95E00E9443
:10102000362D45E350E065E070E084EC95E00E94E9
:101030002A2D82E193E00E944305BC0184EC95E0F7
:101040000E947C3388E093E00E944305BC0184EC5D
:1010500095E00E947C33E091C405F091C5050190B4
:10106000F081E02D69E184EC95E0099584EC95E050
:10107000DF91CF911F910F91FF90EF90DF900C9433
:101080004D28AF92BF92CF92DF92EF92FF920F93D3
:101090001F93CF93DF931F92CDB7DEB78C018FEFF5
:1010A000F8018283C80169830E945D056981693006
:1010B00019F48AEF92E009C0633019F48EEE92E0E1
:1010C00004C0613041F48FED92E00E944305BC0101
:1010D000C8010E94700661E070E084EC95E00E9417
:1010E000362DE091C405F091C505C680D78084EC0B
:1010F00095E00E94452DEE24E394F12C04E110E0EC
:101100009C0144E150E060E070E084EC95E0F60181
:101110000995E091C405F091C505C680D78084EC9F
:1011200095E00E94452D00E210E09C0140E250E075
:1011300060E070E084EC95E0F60109954CE050E049
:1011400065E070E084EC95E00E942A2DE091C405F2
:10115000F091C5050680F781E02D04E110E021E65D
:1011600030E04BE050E061E670E084EC95E00995FA
:1011700089ED92E00E944305BC0184EC95E00E9459
:101180007C3311E3A8E0CA2ED12C47E150E0B60130
:1011900084EC95E00E942A2D612F84EC95E00E945A
:1011A0007E33FFE0CF0ED11C1F5F193371F7E09142
:1011B000C405F091C505C680D78084EC95E00E94F7
:1011C000452DEE24E394F12C04E210E09C0144E26E
:1011D00050E060E070E084EC95E0F6010995E09164
:1011E000C405F091C505A680B78084EC95E00E9407
:1011F000492D8C0184EC95E00E94452D6C0184EC16
:1012000095E00E94492D0B501109AC014B5051093A
:10121000960160E070E084EC95E0F501099584ECBE
:1012200095E00E94492DAC014950510962E070E0FF
:1012300084EC95E00E942A2D84ED92E00E94430503
:10124000BC0184EC95E00E947C3384EC95E00E9424
:10125000492DAC014950510967E370E084EC95E0F9
:101260000E942A2D8FEC92E00E944305BC0184EC81
:1012700095E00E947C3384EC95E00E94492D8C011E
:1012800084EC95E00E94452DA80149505109BC010C
:101290006951710984EC95E00E942A2D8AEC92E054
:1012A0000E944305BC0184EC95E00E947C3384ECF1
:1012B00095E00F90DF91CF911F910F91FF90EF90EC
:1012C000DF90CF90BF90AF900C944D28FF920F937A
:1012D0001F93CF93DF93EC018B01F42E0E945D05E9
:1012E00085EB92E00E944305BC01CE010E9470068E
:1012F00061E070E084EC95E00E94362D4CE050E017
:1013000065E070E084EC95E00E942A2D87EA92E087
:101310000E944305BC0184EC95E00E947C334CE0C4
:1013200050E065E570E084EC95E00E942A2D4AE0EB
:1013300050E0B80184EC95E00E943A3444E150E07A
:1013400065E070E084EC95E00E942A2D8AE992E045
:101350000E944305BC0184EC95E00E947C3344E18B
:1013600050E065E570E084EC95E00E942A2D4AE0AB
:1013700050E06F2D84EC95E00E94333484EC95E0CE
:101380000E94452D8254910997FD0196BC017595E7
:10139000679544E350E084EC95E00E942A2D8CE8A8
:1013A00092E00E944305BC0184EC95E00E947C33EE
:1013B00084EC95E0DF91CF911F910F91FF900C94F9
:1013C0004D281F93CF93DF93EC01162F0E945D05EC
:1013D00087E792E00E944305BC01CE010E9470069F
:1013E00065E084EC95E00E94302D61E070E084ECD3
:1013F00095E00E94362D44E150E064E170E084EC19
:1014000095E00E942A2D4AE050E0612F84EC95E09F
:101410000E94333484EC95E00E944D28CE010E9456
:101420005D05CE01DF91CF911F910C945D051F9357
:10143000CF93DF93EC01162F0E945D058AE692E0C0
:101440000E944305BC01CE010E94700661E084EC5D
:1014500095E00E94302D61E070E084EC95E00E9400
:10146000362D44E150E065E070E084EC95E00E94A8
:101470002A2D85E592E00E944305BC0184EC95E0AD
:101480000E947C3384EC95E00E94452D82549109A2
:1014900097FD0196BC017595679544E250E084EC98
:1014A00095E00E942A2D87E492E00E944305BC014A
:1014B00084EC95E00E947C334AE050E0612F84EC9C
:1014C00095E00E94333484EC95E00E944D28CE01D3
:1014D0000E945D05CE010E945D056CED75E080E027
:1014E00090E0DF91CF911F910C945830CF93DF9310
:1014F000EC010E945D058DE392E00E944305BC0172
:10150000CE010E94700663E084EC95E00E94302DCD
:1015100061E070E084EC95E00E94362D44E150E0FB
:1015200064E170E084EC95E00E942A2D6EE575E0A0
:1015300084EC95E00E947C3384EC95E0DF91CF91C0
:101540000C944D282F923F924F925F926F927F9210
:101550008F929F92AF92BF92CF92DF92EF92FF92C3
:101560000F931F93CF93DF9300D000D0CDB7DEB79A
:101570001C016983142F922EB02E2701CA828A2C57
:10158000FC018281281709F49DC0821710F483E0C2
:1015900001C08FEF80930B0140E050E061E070E00C
:1015A00084EC95E00E943C2D4CE050E064E270E059
:1015B00084EC95E00E942A2D183218F083E392E023
:1015C00016C0103218F089E292E011C0183118F0FC
:1015D0008FE192E00CC0103118F085E192E007C075
:1015E000183018F08BE092E002C081E092E00E9497
:1015F0004305BC0184EC95E00E947C33812F877009
:1016000034E0632E712C1C821B82C82ED12CE091F9
:10161000C405F091C505EE24E394F12C8B819C81E7
:101620008C159D0511F0E12CF12C0684F785E02D39
:101630000BE010E02EE030E045E150E0B30184EC37
:1016400095E0099561E070E0EB81FC81EC15FD050A
:1016500011F460E070E084EC95E00E94362DB30157
:101660006C5F7F4F47E150E084EC95E00E942A2DAB
:101670006B816F5C84EC95E00E947E338B819C8152
:1016800001969C838B839FE0690E711CEB81FC812A
:10169000389709F0BCCF4CE050E065E670E084EC90
:1016A00095E00E942A2D40E050E061E070E084EC7B
:1016B00095E00E943C2D4AE050E0B20184EC95E0B8
:1016C0000E943A3484EC95E00E94452D4B2C512C1D
:1016D000612C712C0397AA2797FDA095BA2FBF9371
:1016E000AF939F938F93A12CB12C6501A39414E623
:1016F000E12EF12C00E010E021E030E040E050E08D
:10170000C301B2010E944034A62EE091C405F091BD
:10171000C505C684D78484EC95E00E94452DB12C84
:101720009C01235031092A193B09B5016F5F7F4F96
:10173000E12CF12C03E010E041E250E084EC95E074
:10174000F6010995E091C405F091C5050684F78579
:10175000E02DEE24E394F12C950141E250E061E0AC
:1017600070E084EC95E009951F921F921F92FEE0B5
:10177000FF93A12CB12C6501A39414E6E12EF12C6A
:1017800000E010E021E030E040E050E0C301B201B1
:101790000E944034E091C405F091C50566847784C9
:1017A000C62ED12C84EC95E00E94492D23E0929E18
:1017B00050011124E4E0AE0EB11C0EE010E00C1953
:1017C0001D09AC014A515109E12CF12C22E030E015
:1017D000B50184EC95E0F3010995E091C405F09121
:1017E000C5056684778484EC95E00E94492DAC01A0
:1017F0004C5051094C195D09EE24E394F12C8601FB
:1018000022E030E0B50184EC95E0F30109950FB6D4
:10181000F894DEBF0FBECDBF9981913009F005C1AC
:10182000E091C405F091C505C684D78484EC95E0A9
:101830000E94492DAC014A515109E5E09E9EB0013C
:101840001124759567956C5F7F4F80910B01680F30
:10185000711D87FD7A95E12CF12C0EE010E021E05E
:1018600030E084EC95E0F6010995FA816F2F70E085
:1018700080E090E01F921F921F922EE02F93A12CE8
:10188000B12C6501A39414E6E12EF12C00E010E0E8
:1018900021E030E040E050E00E944034A62EE0918C
:1018A000C405F091C505C684D78484EC95E00E94F8
:1018B000492DAC014A515109E12CF12C0EE010E008
:1018C00022E030E061E070E084EC95E0F6010995FB
:1018D000E091C405F091C505C680D78084EC95E001
:1018E0000E94492DB12C8C010C5011090A191B09B9
:1018F00084EC95E00E94492DAC014C5051094A19E5
:101900005B09EE24E394F12C22E030E061E070E02A
:1019100084EC95E0F6010995E091C405F091C505C8
:10192000C684D78484EC95E00E94492D8C0184EC18
:1019300095E00E94452DA8014A515109BC01635010
:101940007109E12CF12C0EE010E022E030E084EC93
:1019500095E0F6010995E091C405F091C505C680B2
:10196000D78084EC95E00E94492D8C010C50110920
:101970000A191B0984EC95E00E94452D3C0184EC7A
:1019800095E00E94492D0C972C014A185B0884ECC5
:1019900095E00E94452DBC0163507109EE24E3944B
:1019A000F12C9301A20184EC95E0F60109950F90CA
:1019B0000F900F900F9041E050E060E070E084ECF9
:1019C00095E08820B1F00E943C2D84EC95E00E94C7
:1019D000452D8455910997FD0196BC017595679534
:1019E00042E050E084EC95E00E942A2D82EF91E0E5
:1019F00015C00E943C2D84EC95E00E94452D845535
:101A0000910997FD0196BC017595679542E050E0FC
:101A100084EC95E00E942A2D83EE91E00E9443051C
:101A2000BC0184EC95E00E947C33F101928284EC4D
:101A300095E00F900F900F900F90DF91CF911F9135
:101A40000F91FF90EF90DF90CF90BF90AF909F905D
:101A50008F907F906F905F904F903F902F900C945D
:101A60004D28AF92BF92CF92DF92EF92FF920F93E9
:101A70001F93CF93DF931F92CDB7DEB78C0169839D
:101A80000E945D05F80111826981623099F486ED4A
:101A900091E00E944305BC01C8010E9470064CE021
:101AA00050E065E070E084EC95E00E942A2D80ED26
:101AB00091E012C085EC91E00E944305BC01C80191
:101AC0000E9470064CE050E065E070E084EC95E028
:101AD0000E942A2D87EB91E00E944305BC0184EC13
:101AE00095E00E947C33E091C405F091C505C68065
:101AF000D78084EC95E00E94452DEE24E394F12CF0
:101B000004E110E09C0144E150E060E070E084EC0E
:101B100095E0F6010995E091C405F091C505A68010
:101B2000B78084EC95E00E94492D8C0184EC95E00F
:101B30000E94452D6C0184EC95E00E94492D0B50CC
:101B40001109AC014B505109960160E070E084EC42
:101B500095E0F501099584EC95E00E94492DAC01D2
:101B60004950510962E070E084EC95E00E942A2D12
:101B700082EB91E00E944305BC0184EC95E00E9459
:101B80007C3384EC95E00E94492DAC014950510909
:101B900067E370E084EC95E00E942A2D8DEA91E0E5
:101BA0000E944305BC0184EC95E00E947C3384ECE8
:101BB00095E00E94492D8C0184EC95E00E94452D12
:101BC000A80149505109BC016951710984EC95E0A3
:101BD0000E942A2D88EA91E00E944305BC0184EC12
:101BE00095E00E947C3384EC95E00F90DF91CF91DB
:101BF0001F910F91FF90EF90DF90CF90BF90AF902B
:101C00000C944D282F923F924F925F926F927F9249
:101C10008F929F92AF92BF92CF92DF92EF92FF92FC
:101C20000F931F93CF93DF93CDB7DEB72A970FB6ED
:101C3000F894DEBF0FBECDBF2C01662E842E922EEF
:101C4000702EFC82EB82DE82CD82B886AF82622F5C
:101C500070E080E090E01F921F921F922EE12F9380
:101C6000A12CB12C6501A39414E6E12EF12C00E027
:101C700010E021E030E040E050E00E944034C62E09
:101C800084EC95E00E94492D5C010F900F900F901D
:101C90000F90D20112968C91881609F45BC0D12C5A
:101CA000E091C405F091C505268537853A832983DF
:101CB00084EC95E00E94492DE5E08E9ED001112430
:101CC000B595A795BA87A9871D01F4E02F0E311CA1
:101CD0000EE110E00C191D09AC014A525109E12C2A
:101CE000F12C22E030E0B10184EC95E0E981FA8149
:101CF0000995E091C405F091C505A5014C50510925
:101D00004C195D090684F785E02DEE24E394F12C4F
:101D1000860122E030E0B10184EC95E00995E09184
:101D2000C405F091C505C684D78484EC95E00E9473
:101D3000492DAC014A52510969857A85695F7F4F07
:101D4000E12CF12C0EE110E021E030E084EC95E094
:101D5000F6010995611042C0F0E5F91508F090C050
:101D6000D20111968C911197891530F511969C929C
:101D700040E050E061E070E084EC95E00E943C2D92
:101D80004CE050E064E270E084EC95E00E942A2D83
:101D900040E150E0672D84EC95E00E9433344CE044
:101DA00050E064E370E084EC95E00E942A2D4AE064
:101DB00050E06B817C8160C000910A0110E0075FF8
:101DC0001F4F84EC95E00E94452D0C9708171907CA
:101DD0000CF456C08CE380930A0152C04CE050E0F2
:101DE0006EE170E084EC95E00E942A2D40E050E026
:101DF00061E070E084EC95E00E943C2D84EA91E083
:101E00000E944305BC0184EC95E00E947C334CE0C9
:101E100050E06EE170E084EC95E00E942A2D4AE0EB
:101E200050E06D817E8184EC95E00E943A344CE074
:101E300050E065E570E084EC95E00E942A2D40E0DA
:101E400050E061E070E084EC95E00E943C2D4CE0B5
:101E500050E065E570E084EC95E00E942A2D80EA70
:101E600091E00E944305BC0184EC95E00E947C3324
:101E70004AE050E06F81788584EC95E00E943A3426
:101E800084EC95E00E944D28F20182822A960FB6DA
:101E9000F894DEBF0FBECDBFDF91CF911F910F91A0
:101EA000FF90EF90DF90CF90BF90AF909F908F907A
:101EB0007F906F905F904F903F902F900895EF929A
:101EC000FF920F931F93CF93DF93F62EE42EE90139
:101ED0000E945D0566E084EC95E00E94302D61E093
:101EE00070E084EC95E00E94362D40E050E060E028
:101EF00070E084EC95E00E942A2D40E150E06E2DC8
:101F000084EC95E00E94333461E084EC95E00E941B
:101F1000302D40E050E066E470E084EC95E00E94F3
:101F20002A2DB80184EC95E00E947C3362E084ECB9
:101F300095E00E94302D4CE150E066E470E084ECC6
:101F400095E00E942A2D61E070E084EC95E00E940B
:101F5000362D4AE050E0BE0184EC95E00E943A3410
:101F600061E084EC95E00E94302D85E10E94D8303C
:101F700005970CF48AC042E150E066E470E084EC1E
:101F800095E00E942A2D81E0F81659F0F81630F0FD
:101F9000E2E0FE120FC08FE891E005C08BE991E00E
:101FA00002C085E991E00E944305BC0184EC95E004
:101FB0000E947C3341E050E060E070E084EC95E00A
:101FC0000E943C2DE091C405F091C505C685D785DA
:101FD00084EC95E00E94492DAC0143515109EE2457
:101FE000E394F12C09E010E027E030E060E070E0DD
:101FF00084EC95E0FE01099584EC95E00E94492D62
:10200000AC014251510961E070E084EC95E00E941E
:102010002A2D8DE891E00E944305BC0184EC95E0F7
:102020000E947C3341E050E060E070E084EC95E099
:102030000E943C2DE091C405F091C505C685D78569
:1020400084EC95E00E94492DAC014950510927E0EC
:1020500030E060E070E084EC95E0FE01099584ECEE
:1020600095E00E94492DAC014850510961E070E0B3
:1020700084EC95E00E942A2D8BE891E00E944305B4
:10208000BC0184EC95E00E947C3384EC95E0DF9108
:10209000CF911F910F91FF90EF900C944D287F925C
:1020A0008F929F92AF92BF92CF92DF92EF92FF9268
:1020B0000F931F93CF93DF931F92CDB7DEB7762E8A
:1020C000842E902E85E129830E94D830298105979E
:1020D0000CF4DDC0622F70E080E090E01F921F9250
:1020E0001F9227E72F93A3E0AA2EB12CC12CD12C4D
:1020F00014E6E12EF12C00E010E021E030E040E0B9
:1021000050E00E944034E091C405F091C505A684DA
:10211000B784C62ED12C84EC95E00E94492D27E788
:1021200030E02C193D09AC0143515109B601695FFA
:102130007F4FE12CF12C09E010E084EC95E0F501F3
:1021400009950F900F900F900F90E091C405F091BA
:10215000C50581E0A684B7847816C9F084EC95E0C3
:102160000E94492DAC0143515109E12CF12C09E0A9
:1021700010E027E730E067E070E084EC95E0F501DF
:102180000995E091C405F091C505A484B58484EC5B
:1021900095E00E94492DAC0143515109EE24E3948E
:1021A000F12C960167E070E084EC95E0F50109956B
:1021B000692D70E080E090E01F921F921F9227E748
:1021C0002F93E3E0AE2EB12CC12CD12C14E6E12EDE
:1021D000F12C00E010E021E030E040E050E00E940F
:1021E0004034E091C405F091C505A684B784C62E9D
:1021F000D12C84EC95E00E94492D27E730E02C1982
:102200003D09AC0149505109B601695F7F4FE12C8E
:10221000F12C09E010E084EC95E0F50109950F90B0
:102220000F900F900F90E091C405F091C50582E0EA
:10223000A684B7847816C9F084EC95E00E94492DF5
:10224000AC0149505109E12CF12C09E010E027E7DD
:1022500030E067E070E084EC95E0F5010995E091ED
:10226000C405F091C505A484B58484EC95E00E9472
:10227000492DAC0149505109EE24E394F12C96010B
:1022800067E070E084EC95E0F501099589C060E0B5
:1022900070E084EC95E00E94362DE091C405F09149
:1022A000C505C684D78484EC95E00E94492DAC0115
:1022B00043515109EE24E394F12C03E110E029E1AC
:1022C00030E060E070E084EC95E0F601099584EC84
:1022D00095E00E94492DAC014D50510961E070E03C
:1022E00084EC95E00E942A2D86E891E00E94430547
:1022F000BC0184EC95E00E947C33882D90E0A0E046
:10230000B0E01F921F921F9225E62F93A12CB12CB3
:102310006501A39414E6E12EF12C00E010E021E029
:1023200030E040E050E0BC01CD010E944034E0913B
:10233000C405F091C505A684B784C62ED12C84ECC3
:1023400095E00E94492D25E630E02C193D09AC01AD
:1023500043515109B601675E7F4FE12CF12C03E137
:1023600010E084EC95E0F5010995E091C405F09149
:10237000C505A684B78484EC95E00E94492DAC0184
:1023800043515109EE24E394F12C960169E170E088
:1023900084EC95E0F50109950F900F900F900F9048
:1023A000F3E1F81578F10E9429302AEF30E040E09F
:1023B00050E00E94D53621E030E06D37710581058F
:1023C000910510F020E030E040E050E0B90184ECED
:1023D00095E00E943C2D84EC95E00E94492DAC01D3
:1023E0004D50510962E370E084EC95E00E942A2D83
:1023F0008BE791E00E944305BC0184EC95E00E94CC
:102400007C3323C085E10E94D8300597F4F0E09139
:10241000C405F091C505C680D78084EC95E00E9484
:10242000492D8C0184EC95E00E94492D0A50110938
:10243000AC014A505109E12CF12C2EE630E062E368
:1024400070E084EC95E0F601099584EC95E00F903E
:10245000DF91CF911F910F91FF90EF90DF90CF9080
:10246000BF90AF909F908F907F900C944D28CF920B
:10247000DF92EF92FF920F931F93CF93DF93EC01C4
:10248000D62E0E945D0581E791E00E944305BC01C4
:10249000CE010E947006E091C405F091C505C68585
:1024A000D78584EC95E00E94452D2AE0D29EA001BC
:1024B0001124445F5F4FEE24E394F12C0AE010E016
:1024C0009C0160E070E084EC95E0FE01099561E01C
:1024D00070E0D11002C060E070E084EC95E00E94F2
:1024E000362D4DE050E065E070E084EC95E00E9410
:1024F0002A2D8CE691E00E944305BC0184EC95E016
:102500000E947C3361E070E0F1E0DF1202C060E025
:1025100070E084EC95E00E94362D47E150E065E0E4
:1025200070E084EC95E00E942A2D81E691E00E9403
:102530004305BC0184EC95E00E947C3361E070E0CF
:1025400022E0D21202C060E070E084EC95E00E94CC
:10255000362D41E250E065E070E084EC95E00E94A9
:102560002A2D86E591E00E944305BC0184EC95E0AC
:102570000E947C3361E070E084EC95E00E94362D8F
:10258000E091C405F091C505C485D58584EC95E03E
:102590000E94452D6C0184EC95E00E94492DAC0110
:1025A00045515109EE24E394F12C0BE010E0960123
:1025B00060E070E084EC95E0FE01099584EC95E024
:1025C0000E94492DAC014351510965E070E084EC53
:1025D00095E00E942A2D64E675E084EC95E00E9467
:1025E0007C3384EC95E00E94492DAC01495051099F
:1025F00065E070E084EC95E00E942A2D67E675E0C6
:1026000084EC95E00E947C3384EC95E0DF91CF91DF
:102610001F910F91FF90EF90DF90CF900C944D2879
:10262000AF92BF92CF92DF92EF92FF920F931F93E0
:10263000CF93DF93C62FD22F642F70E080E090E01D
:102640001F921F921F922CE62F93A12CB12C650193
:10265000A39414E6E12EF12C00E010E021E030E03C
:1026600040E050E00E944034E091C405F091C5057F
:10267000A684B784C62ED12C84EC95E00E94492D07
:102680002CE630E02C193D09AC0143515109B6014B
:102690006E5E7F4FE12CF12C07E010E084EC95E0BA
:1026A000F50109950F900F900F900F90E091C405E0
:1026B000F091C505A684B78484EC95E0C130C1F0E3
:1026C0000E94492DAC0143515109E12CF12C07E046
:1026D00010E0960162E170E084EC95E0F501099567
:1026E000E091C405F091C505A484B58484EC95E01F
:1026F0000E94492DAC0143515109EE24E394F12C81
:10270000960162E170E084EC95E0F50109956D2F8A
:1027100070E080E090E01F921F921F922CE62F93B2
:10272000A12CB12C6501A39414E6E12EF12C00E05C
:1027300010E021E030E040E050E00E944034E091C1
:10274000C405F091C505A684B784C62ED12C84ECAF
:1027500095E00E94492D2CE630E02C193D09AC0192
:1027600049505109B6016E5E7F4FE12CF12C07E014
:1027700010E084EC95E0F50109950F900F900F9013
:102780000F90E091C405F091C505C23019F4C685DB
:10279000D7851AC0C685D78584EC95E00E94492D5F
:1027A000AC0149505109E12CF12C07E010E09601F1
:1027B00062E170E084EC95E0FE010995E091C405CA
:1027C000F091C505C485D58584EC95E00E94492D1E
:1027D000AC0149505109EE24E394F12C960162E1D9
:1027E00070E084EC95E0FE01099584EC95E0DF91C2
:1027F000CF911F910F91FF90EF90DF90CF90BF90FE
:10280000AF900C944D2808958F929F92AF92BF92F3
:10281000CF92DF92EF92FF920F931F93CF93DF93AC
:10282000EC01D62EB42EA22E902EC12E8E2C0E94FC
:102830005D058BE491E00E944305BC01CE010E943E
:102840007006E091C405F091C505C685D78584EC76
:1028500095E00E94452D2AE0D29EA0011124445FFC
:102860005F4FEE24E394F12C0AE010E09C0160E05D
:1028700070E084EC95E0FE01099561E070E0D11014
:1028800002C060E070E084EC95E00E94362D4DE0DF
:1028900050E065E070E084EC95E00E942A2D83E42E
:1028A00091E00E944305BC0184EC95E00E947C33DA
:1028B000AA2019F089E391E002C08FE291E00E9422
:1028C0004305BC0184EC95E00E947C3361E070E03C
:1028D000F1E0DF1202C060E070E084EC95E00E945D
:1028E000362D47E150E065E070E084EC95E00E9411
:1028F0002A2D87E291E00E944305BC0184EC95E01B
:102900000E947C33BB2019F083E291E002C08FE18A
:1029100091E00E944305BC0184EC95E00E947C3369
:1029200061E070E022E0D21202C060E070E084EC6E
:1029300095E00E94362D41E250E065E070E084ECC5
:1029400095E00E942A2D87E191E00E944305BC0199
:1029500084EC95E00E947C3387FC4FC0E091C40575
:10296000F091C505C685D78584EC95E00E94452D7C
:102970009C012A523109E12CF12C08E010E041E2DF
:1029800050E069E270E084EC95E0FE010995A82C26
:10299000BB24A7FCB094E091C405F091C505282D97
:1029A00086E02802B0011124625D7F4F0684F7851E
:1029B000E02DEE24E394F12C27E030E041E250E0FA
:1029C00084EC95E00995C92DDC2D00E010E061E074
:1029D00070E00A151B0511F460E070E084EC95E0EE
:1029E0000E94362D699184EC95E00E947E330F5F42
:1029F0001F4F0A30110559F706C0692D7C2D84EC54
:102A000095E00E947C3361E070E093E0D91202C04F
:102A100060E070E084EC95E00E94362D4BE250E0DF
:102A200065E070E084EC95E00E942A2D88E091E05A
:102A30000E944305BC0184EC95E00E947C3361E078
:102A400070E0E4E0DE1202C060E070E084EC95E04B
:102A50000E94362D45E350E065E070E084EC95E09F
:102A60000E942A2D8CEF90E00E944305BC0184EC6B
:102A700095E00E947C3384EC95E0DF91CF911F912B
:102A80000F91FF90EF90DF90CF90BF90AF909F900D
:102A90008F900C944D28AF92BF92CF92DF92EF921D
:102AA000FF920F931F93CF93DF93EC01A62EB42ECA
:102AB00069010E945D058EEE90E00E944305BC0115
:102AC000CE010E94700661E070E084EC95E00E9407
:102AD000362D4CE050E065E070E084EC95E00E941B
:102AE0002A2D88EE90E00E944305BC0184EC95E01D
:102AF0000E947C334CE050E066E270E084EC95E0AC
:102B00000E942A2D82E0A81689F08A1530F081E013
:102B1000A81218C081EC90E00EC083E0A81649F01E
:102B200089E0A8120FC08BEC90E005C08BED90E01F
:102B300002C084ED90E00E944305BC0184EC95E066
:102B40000E947C3344E150E065E070E084EC95E065
:102B50000E942A2D8BEB90E00E944305BC0184EC7F
:102B600095E00E947C3344E150E066E270E084EC42
:102B700095E00E942A2D87E28B1518F481EB90E0F6
:102B80001AC08FE18B1518F48AEA90E014C087E12F
:102B90008B1518F480EA90E00EC08FE08B1518F4C6
:102BA0008EE990E008C087E08B1518F48CE990E07E
:102BB00002C08AE990E00E944305BC0184EC95E0E4
:102BC0000E947C334CE150E065E070E084EC95E0DD
:102BD0000E942A2D84E990E00E944305BC0184EC08
:102BE00095E00E947C334CE150E066E270E084ECBA
:102BF00095E00E942A2D6B2D67706F5F4AE050E0D0
:102C000084EC95E00E9433348DE9E8168FEFF806E6
:102C100081F088E890E00E944305BC0184EC95E0D7
:102C20000E947C334AE050E0B70184EC95E00E94BA
:102C30001E3444E250E065E070E084EC95E00E94D0
:102C40002A2D8AE790E00E944305BC0184EC95E0C0
:102C50000E947C3344E250E066E270E084EC95E050
:102C60000E942A2D4AE050E0B60184EC95E00E94D3
:102C70003A344CE250E065E070E084EC95E00E946C
:102C80002A2D84E790E00E944305BC0184EC95E086
:102C90000E947C334CE250E066E270E084EC95E008
:102CA0000E942A2DB80184EC95E00E947C3384ECCC
:102CB00095E00E94452D8254910997FD0196BC0133
:102CC0007595679544E350E084EC95E00E942A2DC9
:102CD00088E690E00E944305BC0184EC95E00E94E8
:102CE0007C3384EC95E0DF91CF911F910F91FF90A1
:102CF000EF90DF90CF90BF90AF900C944D2864E0A0
:102D000084EC95E00C9484260C9456370C945E3732
:102D1000DC01ED91FC910190F081E02D0994CF93BD
:102D2000DF93EC0161E08DE00E94573180910D014D
:102D3000882321F060E086E00E945731BE0176953D
:102D4000679580E090E00E94583060E08DE00E943E
:102D5000573161E086E0DF91CF910C945731982F85
:102D6000E0EBF3E080E02491291729F08F5F3196A2
:102D70008033C9F780E008950E94293020912D0604
:102D800030912E06621B730B6931710548F489E19D
:102D900090E0861B970BBC0180E090E00C945830CB
:102DA0000895CF93C82F60E0813031F48FE00E9406
:102DB000573161E08EE005C08EE00E94573161E03E
:102DC0008FE00E945731C0932401CF9108952F9234
:102DD0003F924F925F926F927F928F929F92AF92AB
:102DE000BF92CF92DF92EF92FF920F931F93CF93F8
:102DF000DF93382EA2E3FA2E00E010E0C0E0D0E02E
:102E000084E10E94D830C80FD91F85E10E94D830D4
:102E1000080F191FFA94A1F722E330E0CE01B9019F
:102E20000E94C136FB01C801B9010E94C1364B01A5
:102E300080912201873061F58091180190911901EC
:102E4000E817F90720F4F0931901E0931801809135
:102E50001601909117018E179F0720F4F093170128
:102E6000E093160180911001909111018816990646
:102E700020F4909211018092100180910E019091A6
:102E80000F018815990520F490920F0180920E0190
:102E9000E0901A01F0901B0100E010E020911C016D
:102EA00030911D0140E050E0BF01882777FD8095FB
:102EB000982F1F921F921F92E4E62E2E2F92A12C84
:102EC000B12C6501A3940E9440342B013C01EB011D
:102ED000E0901201F090130100E010E02091140145
:102EE0003091150140E050E0B401882777FD8095CE
:102EF000982F1F921F921F922F920E9440344B01D5
:102F00005C018B018DB79EB708960FB6F8949EBFF3
:102F10000FBE8DBF9FEF39125CC0809135068823AC
:102F200021F0823009F04DC04FC0B401882777FDF1
:102F30008095982F0E949A356B017C01B2018827F9
:102F400077FD8095982F0E949A35A70196010E94DF
:102F50009A34A70196010E94FF3420E030E048EC4B
:102F600052E40E944E366B017C0120E030E0A90162
:102F70000E944A3618161CF4C701B60103C0C701E7
:102F8000B60190580E94673564307105BCF080919D
:102F900034060C171D0724F4181654F4815006C08B
:102FA000C017D1072CF487301CF48F5F8093340650
:102FB00080913406882329F0873034F4309024013E
:102FC00005C03324339402C092E0392E832D0E9431
:102FD000D11681E0381629F080912201873009F05E
:102FE000E4011C161D063CF4CE01C536D1052CF0BB
:102FF00084E690E002C081E090E0DF91CF911F91E4
:103000000F91FF90EF90DF90CF90BF90AF909F9087
:103010008F907F906F905F904F903F902F9008958A
:103020008FEF0C94E71660E08CE00E94573181E04E
:1030300090E00E94923061E08AE00E94573181E086
:1030400090E00E94923061E08CE00E94573181E074
:1030500090E00E94923060E08CE00E94573181E065
:1030600090E00C94923060E08CE00E94573181E057
:1030700090E00E94923060E08AE00E94573181E047
:1030800090E00E94923061E08CE00E94573181E034
:1030900090E00E94923060E08CE00E94573181E025
:1030A00090E00C94923081E090E00E94923060E0D9
:1030B0008BE00E94573181E090E00C94923081E0E7
:1030C00090E00E94923061E08BE00E94573181E0F5
:1030D00090E00C9492301F93CF93DF93E82FF0E0B1
:1030E000EE0FFF1FE059FB4FC591D4910E945F186E
:1030F00081E090E00E9492300E9453180E943318A1
:103100000E9433180E9433180E9413180E9433182B
:1031100014E10E9433181150E1F70E945F1881E01A
:1031200090E00E9492300E9453180E945F180E9403
:1031300053180E9413180E9433180E9433180E94DB
:1031400033180E94131810E1C0FF03C00E94131827
:1031500002C00E943318D695C7951150A9F70E9456
:1031600033180E9433180E9433180E9433180E94AB
:103170005F1881E090E00E94923060E08BE00E9456
:10318000573160E08CE00E94573160E08AE0DF91C7
:10319000CF911F910C9457310F931F93CF93DF93CF
:1031A00061E08DE00E941E3161E08DE00E945731A8
:1031B00062E081E10E941E3161E086E00E941E31E2
:1031C00061E086E00E94573160E082E00E941E319B
:1031D00062E082E00E94573160E083E00E941E318D
:1031E00062E083E00E94573160E084E00E941E317B
:1031F00062E084E00E94573160E085E00E941E3169
:1032000062E085E00E94573161E08EE00E941E314D
:1032100061E08FE00E941E3181E00E94D11661E0E2
:103220008BE00E941E3161E08AE00E941E3161E065
:103230008CE00E941E3180E090E00E9484168F3F57
:1032400009F058C061E080E090E00E94861660E0DE
:1032500081E090E00E94861660910D018BE090E085
:103260000E94861660910C018CE090E00E94861608
:103270006AE582E090E00E94861660E083E090E0DC
:103280000E9486166CED84E090E00E94861660E055
:1032900085E090E00E9486166AE675E085E196E09A
:1032A0000E944F3705E116E0C4E1D0E0F8016191DA
:1032B0008F01CE010E9486162196CE31D105B1F73D
:1032C0006091350686E090E00E9486166AE587E008
:1032D00090E00E94861660E088E090E00E948616EA
:1032E0006CED89E090E00E94861660E08AE090E054
:1032F0000E94861680E090E00E948416809322014E
:1033000081E090E00E948416809337060E946B183B
:1033100080913706809332068BE090E00E948416FD
:1033200091E0811101C090E090930D018CE090E05C
:103330000E94841691E0811101C090E090930C01ED
:1033400005E116E0C4E1D0E0CE010E948416F80148
:1033500081938F012196CE31D105B1F783E090E0C2
:103360000E948416C82F82E090E00E9484162C2FC1
:1033700030E0322F2227282B30931D0120931C018F
:1033800085E090E00E948416C82F84E090E00E94BF
:1033900084162C2F30E0322F2227282B30931B014C
:1033A00020931A0186E090E00E94841680933506EF
:1033B00088E090E00E948416C82F87E090E00E9489
:1033C00084162C2F30E0322F2227282B3093150122
:1033D000209314018AE090E00E948416C82F89E0AF
:1033E00090E00E9484162C2F30E0322F2227282BC9
:1033F000309313012093120181E08093220665E14E
:1034000076E089E396E00E94740518168CF48DE04E
:103410000E948D3161E0892B09F060E08DE00E940F
:10342000573164E670E080E090E00E945830EFCFC2
:1034300085E10E94D830059714F41092350660E0BB
:103440008DE0DF91CF911F910F910C94573120E0C7
:1034500030E0F901EE0FFF1FEB5DFE4F408151811F
:103460004F3F510539F48F3F910521F091838083BF
:103470002CE030E02F5F3F4F2A30310554F30895A0
:1034800089E396E00C9458051F93CF93DF9384E66D
:1034900090E00E948F1664E670E080E090E00E9469
:1034A000583084E690E00E948F1662E070E089E078
:1034B00097E00E9488166091370612E0160F89E0A7
:1034C00097E00E943432C5E1D6E06991662361F04D
:1034D000160F772767FD709589E097E00E948816A0
:1034E00086E0CF31D80789F763E070E089E097E0A4
:1034F0000E948816612F89E097E0DF91CF911F919C
:103500000C9434326F927F928F929F92AF92BF92BF
:10351000CF92DF92EF92FF920F931F93CF93DF939F
:103520001F92CDB7DEB783E00E948D31892BB9F5AC
:103530001092290610922A0610922B0610922C0641
:1035400082E390E00E948F1664E670E080E090E0F5
:103550000E94583082E390E00E948F1664E670E08B
:1035600080E090E00E94583010E083E00E948D31AE
:10357000892B19F41A3009F09EC69091210180918F
:103580002201811103C081E0809322011A3008F4E6
:103590001AC686E0809322018FEF8093200110925B
:1035A000330685E00E948D31892B19F486E08093E3
:1035B00022018091220660912201811105C0809133
:1035C0002001681709F4EAC110922206633009F459
:1035D0009EC648F4613009F46AC0623009F0DAC16D
:1035E0006093210151C0673021F1693009F4B4C101
:1035F000663009F0CFC16091370681E090E00E940B
:1036000086166091210180E090E00E94861660910C
:103610000D018BE090E00E94861660910C018CE019
:1036200090E00E94861605E116E054E1E52EF12CAB
:1036300056C0E2E3F0E0F0931D01E0931C014CE280
:1036400051E050931B0140931A012CED30E0309370
:103650001901209318018AE590E090931701809357
:103660001601F0931501E093140150931301409358
:103670001201309311012093100190930F01809358
:103680000E0183E080931F0610923806E0EBF3E012
:10369000E491E0933706109221061092200681E013
:1036A0008093230689E396E00E94310D73C180E583
:1036B0008093230110922106109220066093310618
:1036C0001092290610922A0610922B0610922C06B0
:1036D0006091220189E396E00E94410847C1F80108
:1036E00061918F01C7010E948616FFEFEF1AFF0A52
:1036F0002EE1E216F10499F76091350686E090E03C
:103700000E94861680912001853009F467C080915F
:103710002101893009F462C080914D0190914E01E0
:103720000E9484168F3FE9F08CE690E00E94841698
:10373000082F10E00A3011051CF00F5F1F4F02C068
:1037400000E010E0F801EE0FFF1FE75CFE4F6FEFA7
:10375000808191810E948616602F8CE690E00E9405
:103760008616E12CF12CF701EE0FFF1FE75CFE4FF0
:1037700000811181C8010E9484168F3F69F4609115
:103780003706C8010E9486166E2D8CE690E00E94D6
:1037900086162CE0E22EF12C8FEFE81AF80AEAE008
:1037A000EE16F10404F38CE690E00E94841640913A
:1037B0003706E42FF0E0EE0FFF1FE05FFB4F25918F
:1037C0003491E82EF12CFFEFEF1AFF0A05E116E025
:1037D0006091210189E396E00E944B1580912001C0
:1037E0008530B1F440913706E42FF0E0EE0FFF1F73
:1037F000E05FFB4F259134910DE9E02EFF24FA9410
:1038000005E116E06091210189E396E00E944B15E5
:1038100080912101893009F084C0809120018F3F7F
:1038200009F07FC0E0911006F0911106EE0FFF1F26
:10383000E75CFE4F6FEF808191810E948616E091D8
:103840003706F0E0EE0FFF1FE05FFB4F65917491CC
:10385000409110064F5F89E396E00E946609E5E219
:10386000F1E08FEF90E08193919321E0E933F2074B
:10387000D1F709E311E0F12CF801819191918F01C9
:103880000E9484168F3F21F090E00E94271AF39443
:10389000F1E00D341F0781F709E311E0E5E2CE2ED8
:1038A000E1E0DE2EF6016081F2E0CF0ED11CF801DE
:1038B000819191918F010E948616F9E3CF16F1E074
:1038C000DF0681F784E690E00E948F166F2D89E372
:1038D00096E00E94170A1092130664EF71E080E0F0
:1038E00090E00E94583060E08CE690E00E948616DE
:1038F0008091390190913A010E9484168093370695
:1039000061E089E396E00E94E109809137060E9418
:10391000AF16809338066091370681E090E00E94F0
:10392000861615E084E690E00E948F1664E670E04B
:1039300080E090E00E9458301150A1F768EB7BE0E6
:1039400080E090E00E945830809121018093220114
:1039500081E0809322061EC00E94293060932906D0
:1039600070932A0680932B0690932C068091210158
:10397000823031F0893021F080912001873031F49C
:1039800081E090E00E9484168093370680912201A6
:103990008093210180912201809320018091220156
:1039A000883009F03EC080913706E82FF0E0EE0F36
:1039B000FF1FE05FFB4F25913491E82FF0E0E052CC
:1039C000FC4F449105E116E06091350689E396E0ED
:1039D0000E945F0F0E9410188093360682E00E94BA
:1039E000E716082F81E00E94E716282F409136063F
:1039F0006091240189E396E00E944F1083E00E94C9
:103A00008D31019709F08EC482E00E948D310197BB
:103A100009F088C484E00E948D31019709F082C4C6
:103A2000D9CF843009F04CC01091350601E01093D5
:103A30003506612F89E396E00E9437120E94101824
:103A400082E00E94E716282F81E029830E94E71672
:103A50002981482F6091240189E396E00E94101388
:103A600083E00E948D31019751F482E00E948D31F4
:103A7000019729F484E00E948D310197F9F283E0E7
:103A80000E948D31892B09F462C482E00E948D313D
:103A9000892B09F054C4115013300CF45AC410E0AF
:103AA00082E390E00E948F1668EC70E080E090E086
:103AB0000E9458300111BBCF8091210180932201D7
:103AC00080912201893019F0109213064CC00E9497
:103AD000BC160E9410188093360620912006309163
:103AE000210690E08217930708F4C90190932106FC
:103AF000809320068091130681111FC069E080E049
:103B000090E00E9486161092140669E3E62E61E0AA
:103B1000F62E10E001E0F701819191917F010E9462
:103B200084168F3F21F010931206009314061F5F36
:103B30001A3089F781E08093130682E00E948D316C
:103B4000892B09F40AC484E00E948D31892B09F481
:103B500068C4809114068111C9C46091220189E36F
:103B600096E00E94760A80912201982F9D7F9130E5
:103B700009F091C10E94BC160E941018809336066D
:103B8000209120063091210690E08217930708F4D7
:103B9000C9019093210680932006809137060E94E8
:103BA000AF168093380680912201833009F07EC0E1
:103BB000C0902506D0902606E0902706F0902806B3
:103BC000F8EECF0EF3E0DF1EE11CF11C0E9429305D
:103BD000C616D706E806F90628F480913606833320
:103BE00008F49CC482E00E948D31892B39F50E9433
:103BF00029306093290670932A0680932B069093B0
:103C00002C0682E390E00E948F1668EC70E080E062
:103C100090E00E945830809137068F5F809337067E
:103C2000909138069F5F90331CF49093380602C041
:103C300010923806803310F01092370684E00E940C
:103C40008D31892B29F50E942930609329067093C4
:103C50002A0680932B0690932C0682E390E00E9424
:103C60008F1668EC70E080E090E00E945830809100
:103C7000370681508093370690913806915097FD12
:103C80009FE290933806803318F08FE280933706D6
:103C900080910C0181110AC0E0913806FF27E7FDF1
:103CA000F095E055FC4FE491E093370680912201B6
:103CB000813009F098C0609120067091210680E063
:103CC00090E00E9498352DEC3CEC4CE45FE30E94C0
:103CD0004E360E9467352091230130E026173707C2
:103CE00014F46093230120912406211152C02091E5
:103CF0003106211122C0309136062091230123176D
:103D0000E0F481E0809324060E9429306093290624
:103D100070932A0680932B0690932C0684E690E0FD
:103D20000E948F1664E670E080E090E00E945830B8
:103D300084E690E00E948F162CC0109231062091EC
:103D4000380630911F01230F2093380620332CF0C2
:103D5000609323011092380607C027FF09C06093C3
:103D600023018FE2809338061092210610922006DC
:103D700080912301853008F485E080932301E09150
:103D80003806FF27E7FDF095E055FC4FE491E093FE
:103D9000370682E00E948D31892B29F084E00E9451
:103DA0008D31892B01F582E00E948D31892B09F03C
:103DB000C2C381E080931F0182E390E00E948F16CE
:103DC00068EC70E080E090E00E94583081E08093E1
:103DD0003106109224061092290610922A0610929B
:103DE0002B0610922C068090290690902A06A0900F
:103DF0002B06B0902C0628E8820E23E1921EA11C0F
:103E0000B11C0E942930C0902906D0902A06E0906B
:103E10002B06F0902C0686169706A806B90650F4D5
:103E2000C114D104E104F10429F0809136068333F2
:103E300008F083C3C114D104E104F10471F00E94BD
:103E40002930E0E1CE0EE7E2DE1EE11CF11CC616D1
:103E5000D706E806F90608F470C340913706E42F48
:103E6000F0E0EE0FFF1FE05FFB4FE590F490AA2417
:103E7000A39480912406811101C0A12CC09023013C
:103E800000913606209138066091220189E396E080
:103E90000E94A20AEFC0823019F0873009F0EAC010
:103EA00080912306882351F01092230680913706D3
:103EB0000E946B1880913706809332060E94BC16D0
:103EC0000E9410188093360670912201723079F4A6
:103ED000813568F09C0133274091200650912106DE
:103EE0004217530720F43093210620932006209197
:103EF0003706E22FF0E0E052FC4F0491E22FF0E0B1
:103F0000EE0FFF1FE05FFB4FE590F490A0901601CD
:103F1000B0901701C0901801D090190161E077307E
:103F200009F060E0282F4091380689E396E00E946E
:103F3000020E809138068F3224F48F5F809338060A
:103F400074C01092380680912201873009F06DC04C
:103F500080911F069FEF980F90931F06811165C0F7
:103F6000609118018091190160931C0180931D01DB
:103F700080911601909117018D37910510F48CED09
:103F800090E090931B0180931A0182E090E00E94E0
:103F9000861660911D0183E090E00E948616609174
:103FA0001A0184E090E00E94861660911B0185E072
:103FB00090E00E94861685E10E94D83005975CF15A
:103FC000609110018091110160931401809315019B
:103FD00080910E0190910F018D37910510F48CEDB9
:103FE00090E0909313018093120187E090E00E948B
:103FF00086166091150188E090E00E948616609117
:10400000120189E090E00E948616609113018AE017
:1040100090E00E94861680E090E00E9484168093D3
:10402000220188EE93E00E948F1682E00E948D317B
:10403000892BB1F482E390E00E948F1668EC70E067
:1040400080E090E00E9458308FEF80932001109222
:10405000380681E0809323061092210610922006F4
:10406000E0913806FF27E7FDF095E055FC4FE4911D
:10407000E093370680912201853009F05FC089E323
:1040800096E00E94031466246A94762CF12CDD24B9
:10409000D394FDE7CF2EA0E2BA2EB7E0AB2E16E008
:1040A000912E88248394E62C05E116E020910C01E2
:1040B00040910D016F2D89E396E00E94041412E3F4
:1040C000115009F46CC283E00E948D31019789F48C
:1040D00082E00E948D31019761F484E00E948D316D
:1040E000019739F464E670E080E090E00E94583077
:1040F000E7CF83E00E948D31892B09F081C2F2E085
:10410000FF1609F463C2FF150CF457C2F1104CC23C
:1041100080910C01882580930C0182E390E00E943D
:104120008F1666E970E080E090E00E9458302FEF33
:104130006216720609F497C2D110B5CF8091370686
:1041400090913206981709F4A5C20E946B188091CD
:104150003706809332060E94293060932D067093B3
:104160002E0680932F069093300680911E0188239F
:1041700009F490C210921E0184E690E00E948F160E
:1041800064E670E080E090E00E94583084E690E0C1
:104190000E948F1664E670E080E090E00E94583044
:1041A00084E690E00F90DF91CF911F910F91FF90E7
:1041B000EF90DF90CF90BF90AF909F908F907F90C7
:1041C0006F900C948F16BB24BA94B90E03E0F9E0FB
:1041D000FF2EA5E0EA2EB4E0DB2E11E082E0C82E2F
:1041E00022E0B216F1F02B1554F0BB2099F081E0DB
:1041F000B8122AC0C0922201B09223062EC0E4E079
:10420000BE16F9F0BE1684F0F5E0BF121DC0B092E4
:1042100022011DC010932201109331061092240632
:104220001CC00093220119C085E10E94D830059777
:104230001CF0D092220111C0E0922201E4E0BE2ED7
:104240000CC0F092220109C024E02B1534F46B2D30
:1042500089E396E00E94E30605C06B2D89E396E0B2
:104260000E94630783E00E948D31892BD9F382E09D
:104270000E948D31892BB1F384E00E948D31892B0E
:1042800089F372E3A72EAA9421F183E00E948D3175
:104290000197C9F482E00E948D310197A1F484E076
:1042A0000E948D31019779F464E670E080E090E03F
:1042B0000E945830E8CF64E670E080E090E00E9411
:1042C00058301F5F52C983E00E948D31892B09F05D
:1042D00038C183E00E948D31892B21F0809121012A
:1042E0008093220184E690E00E948F1662E370E0E2
:1042F00080E090E00E94583084E690E00E948F16A3
:1043000062E370E080E090E00E94583045C90E946E
:1043100029306093290670932A0680932B06909388
:104320002C06D6C980912101809322011092290682
:1043300010922A0610922B0610922C06ABC184E034
:104340000E948D31892B09F0A7CB1F5FA5CB00E020
:10435000A3CB17FFA5CB12E0A3CB68EC70E080E005
:1043600090E00E94583080911006909111060196BD
:1043700090931106809310062091120630E02817C2
:10438000390724F4109211061092100600911006BD
:1043900010911106F801EE0FFF1FE75CFE4F8081C0
:1043A00091810E948416809337068F3F99F161E0D6
:1043B000600F89E396E00E94E109809137060E9430
:1043C000AF16809338060E942930609329067093B7
:1043D0002A0680932B0690932C0682E390E00E949D
:1043E0008F1668EC70E080E090E00E945830809179
:1043F0003806803314F010923806809137068033E7
:1044000010F0109237066091370681E090E00E942C
:10441000861699CB015011091093110600931006CE
:1044200092CB68EC70E080E090E00E945830809180
:104430001006909111060197909311068093100633
:1044400097FF07C08091120690E090931106809329
:1044500010060091100610911106F801EE0FFF1FD3
:10446000E75CFE4F808191810E948416809337061D
:104470008F3FA9F161E0600F89E396E00E94E109B6
:10448000809137060E94AF16809338060E9429302B
:104490006093290670932A0680932B0690932C062E
:1044A00082E390E00E948F1668EC70E080E090E07C
:1044B0000E9458308091380687FF03C08FE28093B6
:1044C000380680913706803318F08FE280933706E4
:1044D0006091370681E090E00E9486163ACB0F5F2C
:1044E0001F4F109311060093100633CB80913706AF
:1044F000E82FF0E0EE0FFF1FE05FFB4F25913491B6
:10450000E82FF0E0E052FC4F449105E116E06091A5
:10451000350689E396E00E945F0F25CB0E94441A7E
:104520000E94293060932506709326068093270603
:104530009093280657CB8FEF3DCC88E080932201E3
:104540008CCC82E00E948D31892B59F4AB2CBA942B
:1045500085E10E94D830059754F483E0B81207C073
:104560001AC084E00E948D31892B09F4B394E5E0F0
:10457000EB152CF0B7FE04C065E0B62E01C0B12CDF
:1045800082E390E00E948F1668EC70E080E090E09B
:104590000E94583025CE6EEFB62EBA0CE8CF80912F
:1045A000210180932201CACD21E0F21252C08091F4
:1045B0000D018F2580930D01B0CD83E0F81679F0C1
:1045C000E4E0FE1246C09092220118C0FFEF6F1A7D
:1045D0007F0A2AE0621671040CF058C09ECD1AE0E2
:1045E00089E190E00E948F1669E170E080E090E040
:1045F0000E9458301150A1F7A0922201D12C8DCDEC
:1046000082E00E948D31892B79F48FEF681678064D
:1046100011F4FA941EC0F301EB5EF94F80818F5FB5
:104620008E37A4F0B08215C084E00E948D31892BB2
:1046300081F4EFEF6E167E0611F4F3940AC0F301D5
:10464000EB5EF94F80818150803214F0808301C08D
:10465000C082F4E0FF152CF0F7FE5FCD74E0F72E7A
:104660005CCDF12C5ACD83E00E948D31892B09F469
:1046700058CD82E00E948D31892B09F452CD84E01F
:104680000E948D31892B09F44CCD56CD66246A9455
:10469000762C43CD0F90DF91CF911F910F91FF901A
:1046A000EF90DF90CF90BF90AF909F908F907F90D2
:1046B0006F9008950F931F93CF93DF93EC018D8933
:1046C000823061F08330D9F0813009F0C8C0EC81CC
:1046D000FD81E41BF50B3197DB0118C08C819D81B6
:1046E000DC01A61BB70BBD018E819F81FC01E41B81
:1046F000F50BAF0141505109621B730BB0C0AE8185
:10470000BF81A61BB70BA21BB30BFA01F7FD05C1B6
:104710008C819D81E817F9070CF0FFC0B7FF04C03A
:104720002A0F3B1FA0E0B0E08E819F81AD01420FB8
:10473000531F841795071CF49C012A1B3B0B121670
:1047400013060CF0EAC0422F8A2F8695869586952F
:1047500090E8899FE00DF11D1124E35AFE4FA770E8
:1047600069F158E05A1B852F90E0EC01CB5ADE4FDF
:104770006881251760F4DC01A21BB1098FEF90E07E
:104780000A2E02C0959587950A94E2F768230130B6
:10479000110539F048F00230110551F48081862767
:1047A00006C08081862B03C060958081862380832C
:1047B000451708F4B2C0451BE058FF4F4830A0F140
:1047C00002301105A9F4DF01842F9C9190959C93F0
:1047D000A058BF4F88508830C0F788EF840F869567
:1047E00086958695B0E88B9FE00DF11D112419C0C8
:1047F00081E00130110509F080E0982F9195EF01DB
:10480000842F9883C058DF4F88508830D0F788EFC6
:10481000840F86958695869590E8899FE00DF11D19
:104820001124E058FF4F4770442309F476C0A42FA9
:10483000B0E0A35BBE4F9C910130110541F050F0F8
:104840000230110509F069C08081892706C0808186
:10485000892B03C090958081892380835EC057FD9A
:104860005CC08E819F81481759070CF056C077FFB6
:1048700004C0260F371F60E070E08C819D81FB0132
:10488000E20FF31F8E179F071CF49C01261B370BAA
:10489000121613060CF041C0CA0157FD0796E3E05B
:1048A00095958795EA95E1F79695982F882797959E
:1048B0008795835A9E4F860F971F4770552761E053
:1048C00070E001C0660F4A95EAF7462F01301105E6
:1048D00041F088F00230110501F5FC01280F391F65
:1048E00015C0FC01280F391FE217F307B1F08081D2
:1048F000842B8193F9CF6095FC01280F391FE217B3
:10490000F30759F0808186238193F9CFE217F307EB
:1049100021F0808184278193F9CFDF91CF911F917E
:104920000F9108950F931F93CF93DF93FC01858917
:10493000823069F08330E1F0813009F082C0C481B7
:10494000D581C41BD50BC21BD30BDB0117C08481DF
:104950009581DC01A61BB70BBD01615071098681F1
:104960009781DC01A41BB50BAD01421B530B69C041
:10497000A681B781A61BB70B1197EA01B7FD08C145
:1049800086819781A817B9070CF002C1D7FF04C030
:104990002C0F3D1FC0E0D0E084819581AE01420F15
:1049A000531F841795071CF49C012C1B3D0B1216FA
:1049B00013060CF0EDC0CD01B7FD079643E09595C9
:1049C00087954A95E1F79695982F8827979587952B
:1049D000835A9E4F8C0F9D1FA770BB2741E050E06C
:1049E0000A2E01C0440F0A94EAF7642F0130110522
:1049F00049F098F00230110509F0CAC0FC01280FF7
:104A0000391F17C0FC01280F391FE217F30709F4FB
:104A1000BFC08081862B8193F8CF4095FC01280F81
:104A2000391FE217F30709F4B3C08081842381930F
:104A3000F8CFE217F30709F4ABC080818627819392
:104A4000F8CF77FDA5C084819581681779070CF0B0
:104A50009FC057FF04C0240F351F40E050E08681FF
:104A60009781FA01E20FF31F8E179F071CF49C0138
:104A7000241B350B121613060CF08AC0522F842FFC
:104A8000869586958695FB01B0E88B9FE00DF11D1C
:104A90001124E35AFE4F477069F168E0641B862FCA
:104AA00090E0EC01CB5ADE4F4881261760F4DC0120
:104AB000A21BB1098FEF90E00A2E02C09595879551
:104AC0000A94E2F748230130110539F048F002302A
:104AD000110551F48081842706C08081842B03C096
:104AE0004095808184238083561708F451C0561B5B
:104AF000E058FF4F5830A0F102301105A9F4DF0152
:104B0000852F9C9190959C93A058BF4F88508830DA
:104B1000C0F788EF850F869586958695B0E88B9FC0
:104B2000E00DF11D112419C081E00130110509F0DB
:104B300080E0982F9195EF01852F9883C058DF4F23
:104B400088508830D0F788EF850F869586958695B2
:104B500090E8899FE00DF11D1124E058FF4F577038
:104B60005523B1F0A52FB0E0A35BBE4F9C9101305F
:104B7000110539F048F00230110551F48081892780
:104B800006C08081892B03C0909580818923808312
:104B9000DF91CF911F910F910895CF92DF92EF9205
:104BA000FF920F931F93CF93DF937C018B01EA0158
:104BB000690177FDA0C00E94452D081719070CF068
:104BC0009AC0D7FD98C0C7010E94492DC817D907C0
:104BD0000CF091C0C7010E94422D823009F07FC0C5
:104BE000F701848195819C01201B310B89010150C3
:104BF000110986819781FC01EC1BFD0BEF012197C8
:104C00000BC0813049F4F701848195818C1B9D0B89
:104C1000E8018C0101501109F1E0CF16D10431F007
:104C200010F132E0C316D104E1F165C0FE01D7FDF9
:104C3000379683E0F595E7958A95E1F7F695FE2F8F
:104C4000EE27F795E795E00FF11FE35AFE4FC77087
:104C5000DD2781E090E00C2E01C0880F0A94EAF76E
:104C60009081982B3AC0FE01D7FD3796A3E0F595C9
:104C7000E795AA95E1F7F695FE2FEE27F795E795CC
:104C8000E00FF11FE35AFE4FC770DD2781E090E08F
:104C90000C2E01C0880F0A94EAF780959081982322
:104CA0001CC0FE01D7FD379663E0F595E7956A9540
:104CB000E1F7F695FE2FEE27F795E795E00FF11F48
:104CC000E35AFE4FC770DD2781E090E00C2E01C053
:104CD000880F0A94EAF79081982790830CC083305C
:104CE00009F08FCFF70186819781801B910B8E0190
:104CF000EC01219791CFDF91CF911F910F91FF9000
:104D0000EF90DF90CF9008951F93CF93DF93EC0146
:104D1000162F40E450E060E870E00E94912A88E796
:104D200095E0998388838FEF8C8F88A38E8F8D8FEA
:104D30001F8FDF91CF911F91089580E094E0EDE502
:104D4000F1E0DF019C011D9221503040E1F7089510
:104D5000FC0181A1882339F06EBD00000DB407FE6F
:104D6000FDCF8EB5089588E090E030E8A4A1B5A10C
:104D70004C9123A5209524232C93A2A1B3A122A575
:104D8000432F462321F04C91422B4C9304C04C916D
:104D9000209524232C93A4A1B5A12C9143A5242BC9
:104DA0002C933695019711F708951F93CF93DF93B6
:104DB000EC01162F8C8D8F3F09F1EEA1FFA18081B0
:104DC0009CA5892B8083E8A5F9A590818DA5809568
:104DD00089238083EEA1FFA190818CA580958923F2
:104DE0008083CE010E94A826EEA1FFA180819CA510
:104DF000892B8083DF91CF911F9108958A8D682F31
:104E0000772767FD709580E496E00E94F82D60E0BA
:104E100080E496E00E94A52D612F80E496E00E9438
:104E2000A52D80E496E0DF91CF911F910C940D2E7B
:104E30000F931F93CF93DF93EC01162F022F6B8FED
:104E40004A8F8C8D8F3F09F48CC061E08E8D0E945B
:104E50001E3161E088A10E941E3188A1992787FD3B
:104E60009095FC01E850F64FE491F0E0EE0FFF1F43
:104E7000EA5EF54F259134913FA32EA3FC01EC513E
:104E8000F64F84918CA78E8D992787FD9095FC0114
:104E9000E850F64FE491F0E0EE0FFF1FEA5EF54FA9
:104EA0002591349139A728A7FC01EC51F64F849144
:104EB0008DA789A1811134C061E08C8D0E941E31C3
:104EC00061E08D8D0E941E318D8D992787FD909513
:104ED000FC01E850F64FE491F0E0EE0FFF1FEA5EB0
:104EE000F54F259134913DA32CA3FC01EC51F64FD5
:104EF00084918BA78C8D992787FD9095FC01E850B4
:104F0000F64FE491F0E0EE0FFF1FEA5EF54F2591BA
:104F100034913BA32AA3FC01EC51F64F84918AA75C
:104F200089A1882311F10E94D42880913E0688230C
:104F300099F09FB7F89480913E06813059F48DB373
:104F400080933C062DB380913D06809582238DBBD6
:104F50009FBF02C090933C0680E58CBD81E08DBD73
:104F600004C080E496E00E94E42D0023F1F08F8DD0
:104F700087FD1BC061E00E941E3161E08F8D0E94A1
:104F8000573161E070E080E090E00E94583060E0CE
:104F90008F8D0E9457316AE070E080E090E00E94BF
:104FA000583061E08F8D0E9457316EEACE010E9429
:104FB000D52665EDCE010E94D52660E8CE010E947F
:104FC000D52668EACE010E94D5266FE3CE010E9465
:104FD000D52663EDCE010E94D52660E0CE010E9469
:104FE000D52660E4CE010E94D5266DE8CE010E9450
:104FF000D526113011F460E101C064E1CE010E94B8
:10500000D52660E2CE010E94D52660E0CE010E9446
:10501000D52661EACE010E94D52668ECCE010E9419
:10502000D5266AEDCE010E94D52662E1CE010E940E
:10503000D52661E8CE010E94D526113011F46FE922
:1050400001C06FECCE010E94D52669EDCE010E9411
:10505000D526113011F462E201C061EFCE010E9449
:10506000D5266BEDCE010E94D52660E4CE010E94CC
:10507000D52664EACE010E94D52666EACE010E94BA
:10508000D5266EE2CE010E94D5266FEACE01DF91D1
:10509000CF911F910F910C94D526DF92EF92FF9242
:1050A0000F931F93CF93DF93EC0161E20E94D5260B
:1050B00060E0CE010E94D5266FE7CE010E94D52682
:1050C00062E2CE010E94D52660E0CE010E94D52684
:1050D00067E0CE010E94D5268C8D8F3F31F1EEA185
:1050E000FFA180819CA5892B8083E8A5F9A58081FB
:1050F0009DA5892B8083EEA1FFA190818CA5809531
:10510000892380830DE511E0F80161918F01CE01C3
:105110000E94A826F5E00D351F07B1F7EEA1FFA10B
:1051200080819CA5892B808337C0D090B8008CE00B
:105130008093B8000DE511E06A8D772767FD7095C3
:1051400080E496E00E94F82DE0914006F09141063F
:105150000190F081E02D60E480E496E00995E12C77
:10516000F12CF801EE0DFF1D608180E496E00E94B5
:10517000A52D8FEFE81AF80AE0E1EE16F10489F7A1
:1051800080E496E00E940D2E005F1F4FF5E00D3584
:105190001F0791F6D092B800DF91CF911F910F9128
:1051A000FF90EF90DF900895CF93CFB7F894809160
:1051B0003F06811127C0E2E0FAE08491EEEEF9E0CB
:1051C0009491E82FF0E0EE0FFF1FE05EF54FA59100
:1051D000B4918C91892321F461E08AE00E945731D7
:1051E00061E08AE00E941E318CB580618CBD8CB577
:1051F00080648CBD61E08DE00E941E3161E08BE037
:105200000E941E3180913F068F5F80933F06CFBF83
:10521000CF9108952F923F924F925F926F927F921B
:105220008F929F92AF92BF92CF92DF92EF92FF92B6
:105230000F931F93CF93DF9300D000D0CDB7DEB78D
:105240004C017C836B836A015901C8018701AC0161
:105250004C195D0957FF03C05195419551099501BE
:105260006B817C81261B370B37FF03C0319521955D
:10527000310922242394312C2417350714F0212CD2
:10528000312C2114310459F03A2D2B2D5C01832F40
:10529000922F3B812C81DC82CB82C32ED22EAB811C
:1052A000BC81AA16BB065CF43C2D2D2D6C01832F0E
:1052B000922F3B812C81BC82AB82A32EB22E250182
:1052C000EB81FC814E1A5F0A3C016C187D0877FE69
:1052D00003C0719461947108720157FE03C0FFEF1F
:1052E000EF1AFF0AF594E794C816D9062CF421E0CA
:1052F00030E03A83298324C06FEF7FEF7A8369839C
:105300001FC0D401ED91FC910480F581E02D98013E
:1053100021143104D9F04B815C81B601C401099597
:10532000E618F708F7FE06C0E981FA81CE0EDF1E07
:10533000E40CF51C2B813C812F5F3F4F3C832B837A
:105340006B817C81A616B706E4F604C0A6016B81CA
:105350007C81E4CF0F900F900F900F90DF91CF9151
:105360001F910F91FF90EF90DF90CF90BF90AF9083
:105370009F908F907F906F905F904F903F902F9075
:1053800008956F927F928F929F92AF92BF92CF9229
:10539000DF92EF92FF920F931F93CF93DF93EC0175
:1053A0005B016A0139014801E881F9810284F385D2
:1053B000E02D87010995E881F981A601480D591D65
:1053C000415051090284F385E02D9301B501CE01CE
:1053D0000995E881F9810084F185E02D9401A60109
:1053E000B501CE010995E881F981B501660D771DFA
:1053F000615071090084F185E02D9401A601CE0170
:105400000995DF91CF911F910F91FF90EF90DF9061
:10541000CF90BF90AF909F908F907F906F900895A6
:10542000EF92FF920F931F93DC01ED91FC91240FFB
:10543000351F215031090680F781E02D780189015F
:105440009B0109951F910F91FF90EF900895EF92A6
:10545000FF920F931F93DC01ED91FC91260F371FF4
:10546000215031090680F781E02D78018A010995E4
:105470001F910F91FF90EF9008956F927F928F92FE
:105480009F92AF92BF92CF92DF92EF92FF920F93D3
:105490001F93CF93DF935C014A0169013801EB014F
:1054A000C60ED71ECC15DD0574F4D501ED91FC9127
:1054B0000084F185E02D87019301A401BE01C5019F
:1054C00009952196EFCFDF91CF911F910F91FF901A
:1054D000EF90DF90CF90BF90AF909F908F907F9094
:1054E0006F900895EF92FF920F931F93DC01ED915F
:1054F000FC9111971A960D911C911B9718962D915E
:105500003C9119970684F785E02D7B0140E050E03F
:1055100060E070E009951F910F91FF90EF90089562
:105520000895FC011382128280E995E091838083C3
:105530007583648357834683718760875387428767
:10554000158A158614861786168621E0248B8FEF20
:105550009FEF938B828B918B808B268B178A118E7A
:10556000108E08952F923F924F925F926F927F928A
:105570008F929F92AF92BF92CF92DF92EF92FF9263
:105580000F931F93CF93DF93CDB7DEB76A970FB614
:10559000F894DEBF0FBECDBF1C0158874F831C8718
:1055A0000B87FA86E986CC82DC0158964D915C9196
:1055B00059974115510509F0A6C018968D919C91F7
:1055C0001997681779070CF056C11A968D919C911E
:1055D0001B97EF81F885E817F9070CF04CC1D12C27
:1055E000CB013C81F6E03F9F800D911D11241816E0
:1055F00019060CF040C1C60103E0880F991F0A95F7
:10560000E1F74F815885840F951F181619060CF085
:1056100032C157968C91811103C0203B08F02F5F57
:105620007E876D874B01198210EDA12E14E0B12EFB
:10563000A61AB70A55E0259FA00CB11C1124898138
:10564000853039F0ED85FE85EA0DFB1D94919A8336
:1056500001C01A826F8078842301A8E0AD83BA81EB
:10566000B0FF12C0D101ED91FC91BC81B13031F499
:105670000480F581E02D2B853C8518C00684F785D4
:10568000E02DEB84FC841DC0E985FA852B853C85E3
:10569000E217F307E1F0D101ED91FC91BC81B1304B
:1056A00059F40480F581E02D29853A85A2016D85A4
:1056B0007E85C10109950BC00684F785E02DE9843C
:1056C000FA8486019601A301B401C1010995EA811A
:1056D000E695EA83FD81F150FD836C0C7D1C2FEF74
:1056E000421A520AF111BBCF39813F5F39838C0CCA
:1056F0009D1C4D855E854F5F5F4F5E874D873630C1
:1057000009F09DCFB8C0FA01349634913297859153
:105710009491231BA7E02A9F800D911D1124FA016B
:1057200025913491398B288BFC01459154915A8FE6
:10573000498FFC013296549159873196A491AF87D5
:105740003196E491FC013596249131968491BC8187
:10575000B23050F0622E772467FC7094E82FFF2758
:10576000E7FDF095FE87ED87FC81CF2ED12C6C9C58
:1057700040016D9C900C7C9C900C1124860E971E11
:10578000A12C1982DE8ACD8AAB01420F511D27FD63
:105790005A955E834D83AF81B885A80FB11D87FDF3
:1057A000BA95B88FAF8B59818F85581708F063C0B1
:1057B000852F90E02D853E85280F391F2C9DD00127
:1057C0002D9DB00D3C9DB00D1124EF81F885EA0FA1
:1057D000FB1FFB83EA836D807E802401FA2D2D81DF
:1057E000F21BFA8B4F89588D480F591F5C8B4B8BDE
:1057F0009A89960D862D2D81821B39858317B0F5E8
:10580000977061F4898D9A8D0196E889F989298DBF
:105810003A8DE20FF31FB4909A8F898FB7FE1DC0A7
:10582000D101ED91FC91BC81B13059F40480F58136
:10583000E02D2B853C854B895C89B301C10109951D
:105840000CC00684F785E02DEB84FC84860196016C
:105850004A815B81B201C1010995BB0CED89FE89CA
:105860004E0E5F1EFFEF6F1A7F0AC2CFA30E498153
:105870004F5F498398CF6A960FB6F894DEBF0FBE8C
:10588000CDBFDF91CF911F910F91FF90EF90DF90EF
:10589000CF90BF90AF909F908F907F906F905F90D0
:1058A0004F903F902F900895AF92BF92CF92EF927A
:1058B000FF920F931F93CF93DF93EC01262F888DD8
:1058C000998D009709F042C06A3069F42C898E8561
:1058D0009F8538E0239F800D911D11249F878E871F
:1058E0001D861C86ABC06D3009F4A8C08E89882344
:1058F000C1F03C898C859D8546E0349F800D911DCB
:10590000112448855985841795075CF01D861C86EF
:105910008E859F85E8E03E9F800D911D11249F8715
:105920008E87EA88FB88088919894E855F856C8592
:105930007D85CC88CE010E94B22A2C898C859D85DC
:10594000F6E02F9F800D911D112441C06A3079F43B
:105950001D861C864C89FC01369684912E853F85D8
:10596000489F200D311D11243F872E8767C06D3061
:1059700009F464C0AC014C5F5F4FFA0134916317C6
:1059800008F45CC03196E491E61708F457C0FA01B8
:105990004491362F341BFC013296A590B490F7E069
:1059A0003F9FA00CB11C1124F5013296A4913196B1
:1059B000E491AA2311F0E1110DC0F5013496A490F1
:1059C0002C898C859D85A29E800D911D11249D871B
:1059D0008C8734C0F5013596E4913E89332309F173
:1059E0003C89B0E0AE0FB11DE7FDBA953A9FA0012A
:1059F0003B9F500D11246C857D85460F571F688590
:105A00007985461757076CF01D861C86FC01369673
:105A100084914E855F85389F400D511D11245F870D
:105A20004E87EA88FB88088919894E855F856C85D1
:105A30007D85CC88CE010E94B22ABFCF81E090E064
:105A4000DF91CF911F910F91FF90EF90CF90BF907A
:105A5000AF900895FC01758764875787468708953E
:105A6000611101C061E0FC01648B0895FC01738B3E
:105A7000628B718B608B0895FC01718B608B538BF3
:105A8000428B0895FC0185890895FC0180859185EC
:105A90000895FC018285938508958091700690E0B9
:105AA00020917106821B91090895209171068091C1
:105AB0007006281750F4E22FF0E0EE58F94F80817D
:105AC00090E02F5F2093710608958FEF9FEF089568
:105AD000E091710680917006E81730F4F0E0EE581E
