:100000000C941B050C9443050C9443050C94430578
:100010000C9443050C9443050C9443050C94430540
:100020000C9443050C9443050C9443050C94430530
:100030000C9443050C9443050C9443050C94430520
:100040000C9441300C9443050C945D330C948F3325
:100050000C9443050C9443050C9443050C94430500
:100060000C94142F0C9443052D2D205341564544D8
:10007000202D2D005349474E3A00465245513A2013
:100080002020202047487A0020204641562043481F
:10009000414E3A004348414E3A004100420045007B
:1000A000462F4169727761766500432F526163651F
:1000B00000442F352E33202020200042414E443A68
:1000C000004155544F205345454B004641564F5231
:1000D000495445004D414E55414C0042414E44204B
:1000E0005343414E4E4552004D4F44453A00534113
:1000F00056452053455454494E47530053415645A5
:10010000202620455849540043414C49425241540D
:10011000452052535349005349474E203A20004F3F
:100120004646004F4E200042454550533A20004677
:1001300052455155454E4359004348414E4E454C5A
:100140002020004F524445523A2000534554555008
:10015000204D454E55005245434549564552204293
:100160000052454345495645522041004155544FA0
:1001700000444956455253495459004C4F57205357
:1001800049474E414C005253534900414E54454E4D
:100190004E41204200414E54454E4E4120410041C7
:1001A00055544F00202020002020200035393435C0
:1001B00000353830300035333632004D696E3A2024
:1001C000202020204D61783A005253534920534556
:1001D00054555000424553543A0042414E44205336
:1001E00043414E4E4552004155544F205345454BD7
:1001F000204D4F4445004155544F204D4F4445201C
:100200004C4F434B00412020202020202020004242
:1002100020202020202020200045202020202020D9
:10022000202000462F4169727761766500432F5286
:1002300061636520202000442F352E3320202020AC
:10024000003539343500353830300035333632003A
:1002500042414E443A004155544F205345454B20AE
:100260004D4F4445004641564F5249544553200096
:100270004641564F52495445530053454C4543540B
:100280004544204641564F52495445204348002D8D
:100290002D2044454C45544544202D2D00464156C3
:1002A000204348414E4E454C3A004348414E4E454E
:1002B0004C20465245513A0044454C455445204651
:1002C00041564F52495445204348414E0035393438
:1002D00035003538303000353336320042414E4437
:1002E0003A004155544F205345454B204D4F44450E
:1002F000004D414E55414C204D4F4445004641561E
:100300004F52495445204D4F444500202020202085
:1003100020202020004641564F5249544553004466
:100320004956455253495459004D414E55414C2070
:100330004D4F44450042414E44205343414E4E45AB
:1003400052004155544F204D4F4445004D4F4445B8
:100350002053454C454354494F4E00200020202057
:10036000202020202020005345545550204D454E3C
:1003700055004D4F44452053454C454354494F4E3D
:100380000044495341424C45440020454E41424CB3
:100390004544004469766572736974793A004F4B3D
:1003A00000506F7765723A00426F6F742043686542
:1003B000636B0028292A2B2C2D2E2F13122011219C
:1003C000100722081806091905230A1A040B1B0333
:1003D000240C1C020D1D25010E1E000F1F261415D6
:1003E000271617A1A2A3A4A5A6A7A8B1B2B3B4B516
:1003F000B6B7B8E1E2E3E4E5E6E7E8F1F2F3F4F5F5
:10040000F6F7F8C1C2C3C4C5C6C7C8D1D2D3D4D5C4
:10041000D6D7D8E916D516C116AD16991685167118
:10042000165D16651678168B169E16B116C416D76D
:1004300016EA164916351621160D16FD1611172542
:100440001739176C1680169416A816BC16D016E429
:1004500016F8161A163F1664168916AE16D316F835
:10046000161D17F21417153C1561158615AB15D01E
:1004700015F515052A9B29912987291D2913290975
:10048000299F2803290C2916291F29892992299C8B
:1004900029052A95288B28812817280F2A192A83AD
:1004A0002A8D2A062910291A2984298E2998290299
:1004B0002A0C2A1D288F2802291429872999290CFA
:1004C0002A1E2A09261C268E2601271327862798EE
:1004D000270B2800000000003E5B4F5B3E3E6B4F49
:1004E0006B3E1C3E7C3E1C183C7E3C181C577D57C6
:1004F0001C1C5E7F5E1C00183C1800FFE7C3E7FF72
:100500000018241800FFE7DBE7FF30483A060E2604
:1005100029792926407F050507407F05253F5A3C5C
:10052000E73C5A7F3E1C1C08081C1C3E7F14227F9F
:1005300022145F5F005F5F06097F017F0066899577
:100540006A606060606094A2FFA29408047E040860
:1005500010207E201008082A1C08081C2A08081EE3
:10056000101010100C1E0C1E0C30383E3830060EC9
:100570003E0E06000000000000005F0000000700C3
:100580000700147F147F14242A7F2A12231308647F
:100590006236495620500008070300001C22410023
:1005A0000041221C002A1C7F1C2A08083E08080063
:1005B0008070300008080808080000606000201003
:1005C0000804023E5149453E00427F4000724949BD
:1005D00049462141494D331814127F10274545459E
:1005E000393C4A49493141211109073649494936BF
:1005F000464949291E000014000000403400000054
:100600000814224114141414140041221408020185
:100610005909063E415D594E7C1211127C7F4949B1
:1006200049363E414141227F4141413E7F4949494E
:10063000417F090909013E414151737F0808087F44
:1006400000417F41002040413F017F081422417F4B
:10065000404040407F021C027F7F0408107F3E41E3
:1006600041413E7F090909063E4151215E7F09193A
:100670002946264949493203017F01033F40404052
:100680003F1F2040201F3F4038403F631408146341
:1006900003047804036159494D43007F41414102FD
:1006A00004081020004141417F040201020440403F
:1006B000404040000307080020545478407F2844FD
:1006C00044383844444428384444287F38545454E7
:1006D0001800087E090218A4A49C787F08040478F6
:1006E00000447D40002040403D007F102844000031
:1006F000417F40007C047804787C08040478384406
:10070000444438FC1824241818242418FC7C0804B9
:100710000408485454542404043F44243C404020DA
:100720007C1C2040201C3C4030403C442810284485
:100730004C9090907C4464544C4400083641000036
:1007400000770000004136080002010204023C2646
:1007500023263C1EA1A161123A4040207A3854540D
:100760005559215555794122545478422155547890
:100770004020545579400C1E527212395555555926
:10078000395454545939555454580000457C41004B
:1007900002457D420001457C407D1211127DF0280A
:1007A0002528F07C545545002054547C547C0A097B
:1007B0007F4932494949323A4444443A324A4848E6
:1007C000303A4141217A3A42402078009DA0A07DF4
:1007D0003D4242423D3D4040403D3C24FF242448B0
:1007E0007E4943662B2FFC2F2BFF0929F620C0885A
:1007F0007E090320545479410000447D413048482B
:100800004A32384040227A007A0A0A727D0D193144
:100810007D2629292F28262929292630484D4020A0
:10082000380808080808080808382F10C8ACBA2F7C
:10083000102834FA00007B000008142A1422221425
:100840002A14085500550055AA55AA55AAFF55FF68
:1008500055FF000000FF00101010FF00141414FFDB
:10086000001010FF00FF1010F010F0141414FC0022
:100870001414F700FF0000FF00FF1414F404FC142C
:100880001417101F10101F101F1414141F00101025
:1008900010F0000000001F101010101F101010109A
:1008A000F010000000FF101010101010101010FFBA
:1008B00010000000FF140000FF00FF00001F1017D1
:1008C0000000FC04F414141710171414F404F400BA
:1008D00000FF00F714141414141414F700F7141480
:1008E00014171410101F101F141414F4141010F007
:1008F00010F000001F101F0000001F14000000FC7B
:10090000140000F010F01010FF10FF141414FF1466
:100910001010101F00000000F010FFFFFFFFFFF09D
:10092000F0F0F0F0FFFFFF0000000000FFFF0F0FEE
:100930000F0F0F3844443844FC4A4A4A347E0202BE
:100940000606027E027E0263554941633844443CF8
:1009500004407E201E2006027E020299A5E7A5998A
:100960001C2A492A1C4C7201724C304A4D4D3030C1
:1009700048784830BC625A463D3E494949007E01AC
:1009800001017E2A2A2A2A2A44445F444440514ACB
:10099000444040444A51400000FF0103E080FF0012
:1009A0000008086B6B083612362436060F090F064E
:1009B000000018180000001010003040FF01010076
:1009C0001F01011E00191D1712003C3C3C3C000099
:1009D00000000000000008000201000003040700FE
:1009E0000000000000000001020408102040800107
:1009F0000204081020010204081020040404040466
:100A000004040402020202020203030303030300BC
:100A10000000002300260029000000000025002817
:100A2000002B0000000000240027002A00003C17D3
:100A3000ED1A722EBF3311241FBECFEFD8E0DEBFF8
:100A4000CDBF15E0A0E0B1E0EAE9F0E702C0059013
:100A50000D92A63CB107D9F727E0A6ECB5E001C09E
:100A60001D92A83AB207E1F71AE0C6E3DAE004C043
:100A70002297FE010E941638CE32D107C9F70E9494
:100A800069350C944B380C940000A4EFB5E020E0DD
:100A9000FC013491332331F02E3121F03D93019646
:100AA0002F5FF6CFE22FF0E0EC50FA4F308384EF67
:100AB00095E008952FEFFC0122831082089586ECC3
:100AC00095E00E94FF2640E050E060E070E086EC98
:100AD00095E00E948C2D61E086EC95E00E94922DBD
:100AE00061E070E086EC95E00C94982DCF92DF9257
:100AF000EF92FF920F931F93CF93DF936C01EB0163
:100B000021E04CE362E086EC95E00E947A2786ECD7
:100B100095E00E94AF2860ED77E080E090E00E94D1
:100B2000BA30C6010E945F05E091C605F091C70585
:100B3000C684D78486EC95E00E94A72DEE24E3942A
:100B4000F12C0BE010E09C0140E050E060E070E030
:100B500086EC95E0F601099560E070E086EC95E0A2
:100B60000E94982D86EC95E00E94A72DBC016C5345
:100B7000710977FF02C06F5F7F4F7595679542E0FF
:100B800050E086EC95E00E948C2D88EA93E00E946C
:100B90004505BC0186EC95E00E94403461E070E0C0
:100BA00086EC95E00E94982D4CE050E060E070E00B
:100BB00086EC95E00E948C2D81EA93E00E94450529
:100BC000BC0186EC95E00E94403486EC95E00E94E2
:100BD000A72DBC016C5071094CE050E086EC95E00B
:100BE0000E948C2D8EE993E00E944505BC0186ECA5
:100BF00095E00E94403444E150E060E070E086EC13
:100C000095E00E948C2D86EC95E00E94AF2883E948
:100C100093E00E944505BC0186EC95E00E944034BB
:100C200086EC95E00E94AF286AEF70E080E090E0EB
:100C30000E94BA3086EC95E00E94A72DBC0160535B
:100C4000710944E150E086EC95E00E948C2D85E12D
:100C50000E943A3105971CF08AE893E002C081E8CF
:100C600093E00E944505BC0186EC95E00E9440346B
:100C700086EC95E00E94A72DFE0101900020E9F787
:100C80003197EC1BFD0B4CE04E9F90014F9F300DB8
:100C90001124BC01621B730B7695679544E250E00A
:100CA00086EC95E00E948C2D62E086EC95E00E9437
:100CB000922DBE0186EC95E00E94403486EC95E0D2
:100CC0000E94AF2862EE74E080E090E00E94BA30AB
:100CD00080E0DF91CF911F910F91FF90EF90DF9017
:100CE000CF900895CF92DF92EF92FF920F931F93D0
:100CF000CF93DF93EB01E091C605F091C705C48463
:100D0000D58486EC95E00E94AB2D8C0186EC95E0B5
:100D10000E94A72DEE24E394F12C9C0140E050E0CA
:100D200060E070E086EC95E0F6010995E091C6057B
:100D3000F091C705C684D78486EC95E00E94A72D64
:100D40000BE010E09C0140E050E060E070E086ECD9
:100D500095E0F601099561E086EC95E00E94922D00
:100D600060E070E086EC95E00E94982D86EC95E0BE
:100D70000E94A72DFE0101900020E9F73197EC1B9E
:100D8000FD0B46E04E9F90014F9F300D1124BC019A
:100D9000621B730B7695679542E050E086EC95E018
:100DA0000E948C2DBE0186EC95E00E94403461E0EB
:100DB00070E086EC95E0DF91CF911F910F91FF904D
:100DC000EF90DF90CF900C94982DDF92EF92FF92EE
:100DD0000F931F93CF93DF93EC01D62E0E945F05F4
:100DE00082E793E00E944505BC01CE010E94720695
:100DF000E091C605F091C705C685D78586EC95E0DC
:100E00000E94A72D2AE0D29EA0011124445F5F4FCB
:100E1000EE24E394F12C0AE010E09C0160E070E025
:100E200086EC95E0FE010995C1E0D0E0D11002C04A
:100E3000C0E0D0E0BE0186EC95E00E94982D4DE028
:100E400050E065E070E086EC95E00E948C2D87E62E
:100E500093E00E944505BC0186EC95E00E94403479
:100E60008DE593E00E944505BC0186EC95E00E946B
:100E70004034E091C605F091C7050190F081E02D66
:100E800068E186EC95E00995BE0186EC95E00E944C
:100E9000982D47E150E065E070E086EC95E00E9417
:100EA0008C2D8BE593E00E944505BC0186EC95E016
:100EB0000E94403486EC95E0DF91CF911F910F9115
:100EC000FF90EF90DF900C94AF28DF92EF92FF92AB
:100ED0000F931F93CF93DF93EC01D62E0E945F05F3
:100EE0008CE493E00E944505BC01CE010E9472068D
:100EF000E091C605F091C705C685D78586EC95E0DB
:100F00000E94A72D2AE0D29EA0011124445F5F4FCA
:100F1000EE24E394F12C0AE010E09C0160E070E024
:100F200086EC95E0FE01099561E070E0D11002C009
:100F300060E070E086EC95E00E94982D4DE050E076
:100F400065E070E086EC95E00E948C2D82E493E0F1
:100F50000E944505BC0186EC95E00E94403461E0AA
:100F600070E0F1E0DF1202C060E070E086EC95E036
:100F70000E94982D47E150E065E070E086EC95E036
:100F80000E948C2D85E393E00E944505BC0186EC10
:100F900095E00E94403461E070E022E0D21202C08D
:100FA00060E070E086EC95E00E94982D41E250E010
:100FB00065E070E086EC95E00E948C2D89E293E07C
:100FC0000E944505BC0186EC95E00E94403485E115
:100FD0000E943A310597E4F061E070E083E0D812B6
:100FE00002C060E070E086EC95E00E94982D4BE234
:100FF00050E065E070E086EC95E00E948C2D8FE17A
:1010000093E00E944505BC0186EC95E00E944034C7
:1010100061E070E0E4E0DE1202C060E070E086ECC7
:1010200095E00E94982D45E350E065E070E086EC85
:1010300095E00E948C2D85E193E00E944505BC015E
:1010400086EC95E00E9440348BE093E00E944505D9
:10105000BC0186EC95E00E944034E091C605F09119
:10106000C7050190F081E02D69E186EC95E00995D6
:1010700086EC95E0DF91CF911F910F91FF90EF905B
:10108000DF900C94AF28AF92BF92CF92DF92EF9295
:10109000FF920F931F93CF93DF931F92CDB7DEB7CD
:1010A0008C018FEFF8018283C80169830E945F057C
:1010B0006981693019F48DEF92E009C0633019F449
:1010C00081EF92E004C0613041F482EE92E00E9430
:1010D0004505BC01C8010E94720661E070E086EC23
:1010E00095E00E94982DE091C605F091C705C68055
:1010F000D78086EC95E00E94A72DEE24E394F12C96
:1011000004E110E09C0144E150E060E070E086EC16
:1011100095E0F6010995E091C605F091C705C680F6
:10112000D78086EC95E00E94A72D00E210E09C019C
:1011300040E250E060E070E086EC95E0F601099551
:101140004CE050E065E070E086EC95E00E948C2D6C
:10115000E091C605F091C7050680F781E02D04E116
:1011600010E021E630E04BE050E061E670E086EC14
:1011700095E009958CED92E00E944505BC0186EC56
:1011800095E00E94403411E3A8E0CA2ED12C47E13B
:1011900050E0B60186EC95E00E948C2D612F86EC24
:1011A00095E00E944234FFE0CF0ED11C1F5F19333F
:1011B00071F7E091C605F091C705C680D78086EC2F
:1011C00095E00E94A72DEE24E394F12C04E210E0B8
:1011D0009C0144E250E060E070E086EC95E0F601AE
:1011E0000995E091C605F091C705A680B78086EC09
:1011F00095E00E94AB2D8C0186EC95E00E94A72D16
:101200006C0186EC95E00E94AB2D0B501109AC01EE
:101210004B505109960160E070E086EC95E0F501D5
:10122000099586EC95E00E94AB2DAC01495051091F
:1012300062E070E086EC95E00E948C2D87ED92E0F4
:101240000E944505BC0186EC95E00E94403486EC86
:1012500095E00E94AB2DAC014950510967E370E065
:1012600086EC95E00E948C2D82ED92E00E9445056F
:10127000BC0186EC95E00E94403486EC95E00E942B
:10128000AB2D8C0186EC95E00E94A72DA80149505A
:101290005109BC016951710986EC95E00E948C2DC1
:1012A0008DEC92E00E944505BC0186EC95E00E9421
:1012B000403486EC95E00F90DF91CF911F910F9114
:1012C000FF90EF90DF90CF90BF90AF900C94AF283D
:1012D000FF920F931F93CF93DF93EC018B01F42EBA
:1012E0000E945F0588EB92E00E944505BC01CE019B
:1012F0000E94720661E070E086EC95E00E94982DF5
:101300004CE050E065E070E086EC95E00E948C2DAA
:101310008AEA92E00E944505BC0186EC95E00E94B5
:1013200040344CE050E065E570E086EC95E00E94CA
:101330008C2D4AE050E0B80186EC95E00E9419350A
:1013400044E150E065E070E086EC95E00E948C2D71
:101350008DE992E00E944505BC0186EC95E00E9473
:10136000403444E150E065E570E086EC95E00E9491
:101370008C2D4AE050E06F2D86EC95E00E94FB3406
:1013800086EC95E00E94A72D8254910997FD019665
:10139000BC017595679544E350E086EC95E00E94AA
:1013A0008C2D8FE892E00E944505BC0186EC95E00B
:1013B0000E94403486EC95E0DF91CF911F910F9110
:1013C000FF900C94AF281F93CF93DF93EC01162F5F
:1013D0000E945F058AE792E00E944505BC01CE01AC
:1013E0000E94720665E086EC95E00E94922D61E015
:1013F00070E086EC95E00E94982D44E150E064E1B5
:1014000070E086EC95E00E948C2D4AE050E0612F60
:1014100086EC95E00E94FB3486EC95E00E94AF28B4
:10142000CE010E945F05CE01DF91CF911F910C94F8
:101430005F05CF93DF93EC010E945F0580E792E0A8
:101440000E944505BC01CE010E94720663E086EC55
:1014500095E00E94922D61E070E086EC95E00E949C
:10146000982D44E150E064E170E086EC95E00E9444
:101470008C2D6AE475E086EC95E00E94403486ECA1
:1014800095E0DF91CF910C94AF28AF92BF92CF92AD
:10149000DF92EF92FF920F931F93CF93DF931F92F0
:1014A000CDB7DEB78C018FEFF8018283C801698365
:1014B0000E945F056981693019F485E692E004C0F5
:1014C000613041F486E592E00E944505BC01C80107
:1014D0000E94720661E070E086EC95E00E94982D13
:1014E000E091C605F091C705C680D78086EC95E0EF
:1014F0000E94A72DEE24E394F12C04E110E09C015E
:1015000044E150E060E070E086EC95E0F60109957A
:10151000E091C605F091C705C680D78086EC95E0BE
:101520000E94A72D00E210E09C0140E250E060E044
:1015300070E086EC95E0F60109954CE050E065E03E
:1015400070E086EC95E00E948C2DE091C605F0914C
:10155000C7050680F781E02D04E110E021E630E0C8
:101560004BE050E061E670E086EC95E0099580E59F
:1015700092E00E944505BC0186EC95E00E94403453
:1015800011E388E0C82ED12C47E150E0B60186EC8B
:1015900095E00E948C2D612F86EC95E00E944234EC
:1015A000FFE0CF0ED11C1F5F193371F7E091C60524
:1015B000F091C705C680D78086EC95E00E94A72DE4
:1015C000EE24E394F12C04E210E09C0144E250E0AC
:1015D00060E070E086EC95E0F6010995E091C605C3
:1015E000F091C705A680B78086EC95E00E94AB2DF0
:1015F0008C0186EC95E00E94A72D6C0186EC95E0AD
:101600000E94AB2D0B501109AC014B5051099601B2
:1016100060E070E086EC95E0F501099586EC95E0D8
:101620000E94AB2DAC014950510962E070E086EC9C
:1016300095E00E948C2D8BE492E00E944505BC0150
:1016400086EC95E00E94403486EC95E00E94AB2D3C
:10165000AC014950510967E370E086EC95E00E94C7
:101660008C2D86E492E00E944505BC0186EC95E055
:101670000E94403486EC95E00E94AB2D8C0186ECF4
:1016800095E00E94A72DA80149505109BC0169515C
:10169000710986EC95E00E948C2D81E492E00E9415
:1016A0004505BC0186EC95E00E94403486EC95E04F
:1016B0000F90DF91CF911F910F91FF90EF90DF90EE
:1016C000CF90BF90AF900C94AF282F923F924F9243
:1016D0005F926F927F928F929F92AF92BF92CF92C2
:1016E000DF92EF92FF920F931F93CF93DF9300D07F
:1016F00000D0CDB7DEB71C016983142F922EB02E17
:101700002701CA828A2CFC018281281709F49DC016
:10171000821710F483E001C08FEF80930B0140E04B
:1017200050E061E070E086EC95E00E949E2D4CE078
:1017300050E064E270E086EC95E00E948C2D183257
:1017400018F087E392E016C0103218F08DE292E0B4
:1017500011C0183118F083E292E00CC0103118F07B
:1017600089E192E007C0183018F08FE092E002C0E3
:1017700085E092E00E944505BC0186EC95E00E9460
:101780004034812F877034E0632E712C1C821B82C1
:10179000C82ED12CE091C605F091C705EE24E39444
:1017A000F12C8B819C818C159D0511F0E12CF12C85
:1017B0000684F785E02D0BE010E02EE030E045E1F7
:1017C00050E0B30186EC95E0099561E070E0EB81B3
:1017D000FC81EC15FD0511F460E070E086EC95E00D
:1017E0000E94982DB3016C5F7F4F47E150E086EC7B
:1017F00095E00E948C2D6B816F5C86EC95E00E94D9
:1018000042348B819C8101969C838B839FE0690E7F
:10181000711CEB81FC81389709F0BCCF4CE050E0A3
:1018200065E670E086EC95E00E948C2D40E050E08B
:1018300061E070E086EC95E00E949E2D4AE050E069
:10184000B20186EC95E00E94193586EC95E00E9485
:10185000A72D4B2C512C612C712C0397AA2797FD97
:10186000A095BA2FBF93AF939F938F93A12CB12CC8
:101870006501A39414E6E12EF12C00E010E021E0D4
:1018800030E040E050E0C301B2010E941F35A62EB7
:10189000E091C605F091C705C684D78486EC95E033
:1018A0000E94A72DB12C9C01235031092A193B0914
:1018B000B5016F5F7F4FE12CF12C03E010E041E2B6
:1018C00050E086EC95E0F6010995E091C605F091AF
:1018D000C7050684F785E02DEE24E394F12C9501ED
:1018E00041E250E061E070E086EC95E009951F92DE
:1018F0001F921F92FEE0FF93A12CB12C6501A394CF
:1019000014E6E12EF12C00E010E021E030E040E0B0
:1019100050E0C301B2010E941F35E091C605F0916D
:10192000C70566847784C62ED12C86EC95E00E948C
:10193000AB2D23E0929E50011124E4E0AE0EB11CC9
:101940000EE010E00C191D09AC014A515109E12CBF
:10195000F12C22E030E0B50186EC95E0F301099529
:10196000E091C605F091C7056684778486EC95E022
:101970000E94AB2DAC014C5051094C195D09EE246D
:10198000E394F12C860122E030E0B50186EC95E08D
:10199000F30109950FB6F894DEBF0FBECDBF998154
:1019A000913009F005C1E091C605F091C705C684E4
:1019B000D78486EC95E00E94AB2DAC014A515109C9
:1019C000E5E09E9EB0011124759567956C5F7F4F91
:1019D00080910B01680F711D87FD7A95E12CF12C28
:1019E0000EE010E021E030E086EC95E0F60109958C
:1019F000FA816F2F70E080E090E01F921F921F929B
:101A00002EE02F93A12CB12C6501A39414E6E12EB6
:101A1000F12C00E010E021E030E040E050E00E94D6
:101A20001F35A62EE091C605F091C705C684D78460
:101A300086EC95E00E94AB2DAC014A515109E12C96
:101A4000F12C0EE010E022E030E061E070E086EC86
:101A500095E0F6010995E091C605F091C705C680AD
:101A6000D78086EC95E00E94AB2DB12C8C010C50F8
:101A700011090A191B0986EC95E00E94AB2DAC01F7
:101A80004C5051094A195B09EE24E394F12C22E0F1
:101A900030E061E070E086EC95E0F6010995E091B8
:101AA000C605F091C705C684D78486EC95E00E94F0
:101AB000AB2D8C0186EC95E00E94A72DA8014A5120
:101AC0005109BC0163507109E12CF12C0EE010E0CA
:101AD00022E030E086EC95E0F6010995E091C6053C
:101AE000F091C705C680D78086EC95E00E94AB2DAB
:101AF0008C010C5011090A191B0986EC95E00E9413
:101B0000A72D3C0186EC95E00E94AB2D0C972C0193
:101B10004A185B0886EC95E00E94A72DBC01635033
:101B20007109EE24E394F12C9301A20186EC95E077
:101B3000F60109950F900F900F900F9041E050E043
:101B400060E070E086EC95E08820B1F00E949E2D68
:101B500086EC95E00E94A72D8455910997FD01968A
:101B6000BC017595679542E050E086EC95E00E94D7
:101B70008C2D86EF91E015C00E949E2D86EC95E09D
:101B80000E94A72D8455910997FD0196BC0175957A
:101B9000679542E050E086EC95E00E948C2D87EE40
:101BA00091E00E944505BC0186EC95E00E9440341E
:101BB000F101928286EC95E00F900F900F900F90BC
:101BC000DF91CF911F910F91FF90EF90DF90CF9019
:101BD000BF90AF909F908F907F906F905F904F904D
:101BE0003F902F900C94AF28AF92BF92CF92DF928C
:101BF000EF92FF920F931F93CF93DF931F92CDB776
:101C0000DEB78C0169830E945F05F801118269814A
:101C1000623099F48AED91E00E944505BC01C8014B
:101C20000E9472064CE050E065E070E086EC95E0C2
:101C30000E948C2D84ED91E012C089EC91E00E940D
:101C40004505BC01C8010E9472064CE050E065E009
:101C500070E086EC95E00E948C2D8BEB91E00E9469
:101C60004505BC0186EC95E00E944034E091C60534
:101C7000F091C705C680D78086EC95E00E94A72D1D
:101C8000EE24E394F12C04E110E09C0144E150E0E7
:101C900060E070E086EC95E0F6010995E091C605FC
:101CA000F091C705A680B78086EC95E00E94AB2D29
:101CB0008C0186EC95E00E94A72D6C0186EC95E0E6
:101CC0000E94AB2D0B501109AC014B5051099601EC
:101CD00060E070E086EC95E0F501099586EC95E012
:101CE0000E94AB2DAC014950510962E070E086ECD6
:101CF00095E00E948C2D86EB91E00E944505BC0189
:101D000086EC95E00E94403486EC95E00E94AB2D75
:101D1000AC014950510967E370E086EC95E00E9400
:101D20008C2D81EB91E00E944505BC0186EC95E08D
:101D30000E94403486EC95E00E94AB2D8C0186EC2D
:101D400095E00E94A72DA80149505109BC01695195
:101D5000710986EC95E00E948C2D8CEA91E00E943E
:101D60004505BC0186EC95E00E94403486EC95E088
:101D70000F90DF91CF911F910F91FF90EF90DF9027
:101D8000CF90BF90AF900C94AF282F923F924F927C
:101D90005F926F927F928F929F92AF92BF92CF92FB
:101DA000DF92EF92FF920F931F93CF93DF93CDB704
:101DB000DEB72A970FB6F894DEBF0FBECDBF2C0159
:101DC000662E842E922E702EFC82EB82DE82CD82D5
:101DD000B886AF82622F70E080E090E01F921F9281
:101DE0001F922EE12F93A12CB12C6501A39414E630
:101DF000E12EF12C00E010E021E030E040E050E086
:101E00000E941F35C62E86EC95E00E94AB2D5C012A
:101E10000F900F900F900F90D20112968C91881610
:101E200009F45BC0D12CE091C605F091C705268569
:101E300037853A83298386EC95E00E94AB2DE5E057
:101E40008E9ED0011124B595A795BA87A9871D014B
:101E5000F4E02F0E311C0EE110E00C191D09AC014D
:101E60004A525109E12CF12C22E030E0B10186EC1C
:101E700095E0E981FA810995E091C605F091C705E1
:101E8000A5014C5051094C195D090684F785E02DD8
:101E9000EE24E394F12C860122E030E0B10186ECDF
:101EA00095E00995E091C605F091C705C684D784F1
:101EB00086EC95E00E94AB2DAC014A525109698530
:101EC0007A85695F7F4FE12CF12C0EE110E021E073
:101ED00030E086EC95E0F6010995611042C0F0E52E
:101EE000F91508F090C0D20111968C9111978915BF
:101EF00030F511969C9240E050E061E070E086EC95
:101F000095E00E949E2D4CE050E064E270E086EC8B
:101F100095E00E948C2D40E150E0672D86EC95E025
:101F20000E94FB344CE050E064E370E086EC95E006
:101F30000E948C2D4AE050E06B817C8160C0009152
:101F40000A0110E0075F1F4F86EC95E00E94A72D65
:101F50000C97081719070CF456C08CE380930A01FC
:101F600052C04CE050E06EE170E086EC95E00E94DB
:101F70008C2D40E050E061E070E086EC95E00E943E
:101F80009E2D88EA91E00E944505BC0186EC95E013
:101F90000E9440344CE050E06EE170E086EC95E049
:101FA0000E948C2D4AE050E06D817E8186EC95E0A8
:101FB0000E9419354CE050E065E570E086EC95E054
:101FC0000E948C2D40E050E061E070E086EC95E0EE
:101FD0000E949E2D4CE050E065E570E086EC95E0B7
:101FE0000E948C2D84EA91E00E944505BC0186EC9C
:101FF00095E00E9440344AE050E06F81788586EC9D
:1020000095E00E94193586EC95E00E94AF28F20118
:1020100082822A960FB6F894DEBF0FBECDBFDF9145
:10202000CF911F910F91FF90EF90DF90CF90BF90D5
:10203000AF909F908F907F906F905F904F903F9068
:102040002F900895EF92FF920F931F93CF93DF93FA
:10205000F62EE42EE9010E945F0566E086EC95E02D
:102060000E94922D61E070E086EC95E00E94982D30
:1020700040E050E060E070E086EC95E00E948C2D3E
:1020800040E150E06E2D86EC95E00E94FB3461E06B
:1020900086EC95E00E94922D40E050E066E470E00E
:1020A00086EC95E00E948C2DB80186EC95E00E94AC
:1020B000403462E086EC95E00E94922D4CE150E0C5
:1020C00066E470E086EC95E00E948C2D61E070E0A3
:1020D00086EC95E00E94982D4AE050E0BE0186EC27
:1020E00095E00E94193561E086EC95E00E94922D02
:1020F00085E10E943A3105970CF484C042E150E03A
:1021000066E470E086EC95E00E948C2D81E0F81684
:1021100059F0F81630F0E2E0FE120FC08BE891E0C3
:1021200005C08FE991E002C085E991E00E94450574
:10213000BC0186EC95E00E94403441E050E060E054
:1021400070E086EC95E00E949E2DE091C605F0912E
:10215000C705C685D78586EC95E00E94AB2DAC01FE
:1021600043515109EE24E394F12C09E010E027E0FB
:1021700030E060E070E086EC95E0FE01099586ECC9
:1021800095E00E94AB2DAC014251510961E070E035
:1021900086EC95E00E948C2D60E575E086EC95E07C
:1021A0000E94403441E050E060E070E086EC95E051
:1021B0000E949E2DE091C605F091C705C685D78582
:1021C00086EC95E00E94AB2DAC014950510927E007
:1021D00030E060E070E086EC95E0FE01099586EC69
:1021E00095E00E94AB2DAC014850510961E070E0D0
:1021F00086EC95E00E948C2D62E575E086EC95E01A
:102200000E94403486EC95E0DF91CF911F910F91B1
:10221000FF90EF900C94AF287F928F929F92AF9295
:10222000BF92CF92DF92EF92FF920F931F93CF93C3
:10223000DF931F92CDB7DEB7762E842E902E85E1E8
:1022400029830E943A31298105970CF4DDC0622F61
:1022500070E080E090E01F921F921F9227E72F937B
:10226000A3E0AA2EB12CC12CD12C14E6E12EF12C26
:1022700000E010E021E030E040E050E00E941F3537
:10228000E091C605F091C705A684B784C62ED12C6F
:1022900086EC95E00E94AB2D27E730E02C193D0934
:1022A000AC0143515109B601695F7F4FE12CF12C1C
:1022B00009E010E086EC95E0F50109950F900F908C
:1022C0000F900F90E091C605F091C70581E0A684BC
:1022D000B7847816C9F086EC95E00E94AB2DAC016E
:1022E00043515109E12CF12C09E010E027E730E0DF
:1022F00067E070E086EC95E0F5010995E091C60590
:10230000F091C705A484B58486EC95E00E94AB2DBE
:10231000AC0143515109EE24E394F12C960167E09E
:1023200070E086EC95E0F5010995692D70E080E09C
:1023300090E01F921F921F9227E72F93E3E0AE2EAB
:10234000B12CC12CD12C14E6E12EF12C00E010E0D0
:1023500021E030E040E050E00E941F35E091C605EA
:10236000F091C705A684B784C62ED12C86EC95E0E3
:102370000E94AB2D27E730E02C193D09AC014950F4
:102380005109B601695F7F4FE12CF12C09E010E0A3
:1023900086EC95E0F50109950F900F900F900F9046
:1023A000E091C605F091C70582E0A684B78478164F
:1023B000C9F086EC95E00E94AB2DAC014950510963
:1023C000E12CF12C09E010E027E730E067E070E055
:1023D00086EC95E0F5010995E091C605F091C705F9
:1023E000A484B58486EC95E00E94AB2DAC014950E5
:1023F0005109EE24E394F12C960167E070E086EC3D
:1024000095E0F501099589C060E070E086EC95E003
:102410000E94982DE091C605F091C705C684D78427
:1024200086EC95E00E94AB2DAC0143515109EE249E
:10243000E394F12C03E110E029E130E060E070E08A
:1024400086EC95E0F601099586EC95E00E94AB2DAF
:10245000AC014D50510961E070E086EC95E00E94BE
:102460008C2D86E891E00E944505BC0186EC95E044
:102470000E944034882D90E0A0E0B0E01F921F92AF
:102480001F9225E62F93A12CB12C6501A39414E68D
:10249000E12EF12C00E010E021E030E040E050E0DF
:1024A000BC01CD010E941F35E091C605F091C70522
:1024B000A684B784C62ED12C86EC95E00E94AB2D65
:1024C00025E630E02C193D09AC0143515109B60114
:1024D000675E7F4FE12CF12C03E110E086EC95E084
:1024E000F5010995E091C605F091C705A684B7846A
:1024F00086EC95E00E94AB2DAC0143515109EE24CE
:10250000E394F12C960169E170E086EC95E0F50129
:1025100009950F900F900F900F90F3E1F81578F157
:102520000E948B302AEF30E040E050E00E94B43748
:1025300021E030E06D3771058105910510F020E054
:1025400030E040E050E0B90186EC95E00E949E2D1D
:1025500086EC95E00E94AB2DAC014D50510962E331
:1025600070E086EC95E00E948C2D8BE791E00E9454
:102570004505BC0186EC95E00E94403423C085E10E
:102580000E943A310597F4F0E091C605F091C70535
:10259000C680D78086EC95E00E94AB2D8C0186EC3E
:1025A00095E00E94AB2D0A501109AC014A50510927
:1025B000E12CF12C2EE630E062E370E086EC95E051
:1025C000F601099586EC95E00F90DF91CF911F9170
:1025D0000F91FF90EF90DF90CF90BF90AF909F90C2
:1025E0008F907F900C94AF28CF92DF92EF92FF9262
:1025F0000F931F93CF93DF93EC01D62E0E945F05BC
:1026000081E791E00E944505BC01CE010E9472065F
:10261000E091C605F091C705C685D78586EC95E0A3
:102620000E94A72D2AE0D29EA0011124445F5F4F93
:10263000EE24E394F12C0AE010E09C0160E070E0ED
:1026400086EC95E0FE01099561E070E0D11002C0D2
:1026500060E070E086EC95E00E94982D4DE050E03F
:1026600065E070E086EC95E00E948C2D8CE691E0B0
:102670000E944505BC0186EC95E00E94403461E073
:1026800070E0F1E0DF1202C060E070E086EC95E0FF
:102690000E94982D47E150E065E070E086EC95E0FF
:1026A0000E948C2D81E691E00E944505BC0186ECDC
:1026B00095E00E94403461E070E022E0D21202C056
:1026C00060E070E086EC95E00E94982D41E250E0D9
:1026D00065E070E086EC95E00E948C2D86E591E047
:1026E0000E944505BC0186EC95E00E94403461E003
:1026F00070E086EC95E00E94982DE091C605F0917F
:10270000C705C485D58586EC95E00E94A72D6C0190
:1027100086EC95E00E94AB2DAC0145515109EE24A9
:10272000E394F12C0BE010E0960160E070E086ECA1
:1027300095E0FE01099586EC95E00E94AB2DAC0179
:102740004351510965E070E086EC95E00E948C2DC4
:1027500064E575E086EC95E00E94403486EC95E0F7
:102760000E94AB2DAC014950510965E070E086EC48
:1027700095E00E948C2D67E575E086EC95E00E945F
:10278000403486EC95E0DF91CF911F910F91FF903F
:10279000EF90DF90CF900C94AF28AF92BF92CF9282
:1027A000DF92EF92FF920F931F93CF93DF93C62F89
:1027B000D22F642F70E080E090E01F921F921F9252
:1027C0002CE62F93A12CB12C6501A39414E6E12EE5
:1027D000F12C00E010E021E030E040E050E00E9409
:1027E0001F35E091C605F091C705A684B784C62EB3
:1027F000D12C86EC95E00E94AB2D2CE630E02C1914
:102800003D09AC0143515109B6016E5E7F4FE12C89
:10281000F12C07E010E086EC95E0F50109950F90AA
:102820000F900F900F90E091C605F091C705A68418
:10283000B78486EC95E0C130C1F00E94AB2DAC01AD
:1028400043515109E12CF12C07E010E0960162E1BF
:1028500070E086EC95E0F5010995E091C605F091F0
:10286000C705A484B58486EC95E00E94AB2DAC012D
:1028700043515109EE24E394F12C960162E170E09A
:1028800086EC95E0F50109956D2F70E080E090E011
:102890001F921F921F922CE62F93A12CB12C650141
:1028A000A39414E6E12EF12C00E010E021E030E0EA
:1028B00040E050E00E941F35E091C605F091C70549
:1028C000A684B784C62ED12C86EC95E00E94AB2D51
:1028D0002CE630E02C193D09AC0149505109B601F4
:1028E0006E5E7F4FE12CF12C07E010E086EC95E066
:1028F000F50109950F900F900F900F90E091C6058C
:10290000F091C705C23019F4C685D7851AC0C685AF
:10291000D78586EC95E00E94AB2DAC01495051095A
:10292000E12CF12C07E010E0960162E170E086EC0A
:1029300095E0FE010995E091C605F091C705C485B3
:10294000D58586EC95E00E94AB2DAC01495051092C
:10295000EE24E394F12C960162E170E086EC95E0C0
:10296000FE01099586EC95E0DF91CF911F910F91C3
:10297000FF90EF90DF90CF90BF90AF900C94AF2876
:1029800008958F929F92AF92BF92CF92DF92EF9273
:10299000FF920F931F93CF93DF93EC01D62EB42EAB
:1029A000A22E902EC12E8E2C0E945F058BE491E00A
:1029B0000E944505BC01CE010E947206E091C60549
:1029C000F091C705C685D78586EC95E00E94A72DB6
:1029D0002AE0D29EA0011124445F5F4FEE24E394CD
:1029E000F12C0AE010E09C0160E070E086EC95E0DC
:1029F000FE01099561E070E0D11002C060E070E076
:102A000086EC95E00E94982D4DE050E065E070E086
:102A100086EC95E00E948C2D83E491E00E944505B0
:102A2000BC0186EC95E00E944034AA2019F089E3AD
:102A300091E002C08FE291E00E944505BC0186EC66
:102A400095E00E94403461E070E0F1E0DF1202C0E6
:102A500060E070E086EC95E00E94982D47E150E040
:102A600065E070E086EC95E00E948C2D87E291E0B5
:102A70000E944505BC0186EC95E00E944034BB20D5
:102A800019F083E291E002C08FE191E00E944505D8
:102A9000BC0186EC95E00E94403461E070E022E0E9
:102AA000D21202C060E070E086EC95E00E94982DA2
:102AB00041E250E065E070E086EC95E00E948C2DEC
:102AC00087E191E00E944505BC0186EC95E00E94FB
:102AD000403487FC4FC0E091C605F091C705C6851C
:102AE000D78586EC95E00E94A72D9C012A523109DA
:102AF000E12CF12C08E010E041E250E069E270E0E6
:102B000086EC95E0FE010995A82CBB24A7FCB094A7
:102B1000E091C605F091C705282D86E02802B00196
:102B20001124625D7F4F0684F785E02DEE24E39447
:102B3000F12C27E030E041E250E086EC95E0099589
:102B4000C92DDC2D00E010E061E070E00A151B05E6
:102B500011F460E070E086EC95E00E94982D699198
:102B600086EC95E00E9442340F5F1F4F0A3011053A
:102B700059F706C0692D7C2D86EC95E00E94403403
:102B800061E070E093E0D91202C060E070E086EC92
:102B900095E00E94982D4BE250E065E070E086ECF5
:102BA00095E00E948C2D88E091E00E944505BC01D3
:102BB00086EC95E00E94403461E070E0E4E0DE12D3
:102BC00002C060E070E086EC95E00E94982D45E33D
:102BD00050E065E070E086EC95E00E948C2D8CEF73
:102BE00090E00E944505BC0186EC95E00E944034CF
:102BF00086EC95E0DF91CF911F910F91FF90EF90C0
:102C0000DF90CF90BF90AF909F908F900C94AF28A3
:102C1000AF92BF92CF92DF92EF92FF920F931F93EA
:102C2000CF93DF93EC01A62EB42E69010E945F05BD
:102C30008EEE90E00E944505BC01CE010E94720616
:102C400061E070E086EC95E00E94982D4CE050E049
:102C500065E070E086EC95E00E948C2D88EE90E0B7
:102C60000E944505BC0186EC95E00E9440344CE092
:102C700050E066E270E086EC95E00E948C2D82E0E8
:102C8000A81689F08A1530F081E0A81218C081ECEE
:102C900090E00EC083E0A81649F089E0A8120FC0AA
:102CA0008BEC90E005C08BED90E002C084ED90E0ED
:102CB0000E944505BC0186EC95E00E94403444E149
:102CC00050E065E070E086EC95E00E948C2D8BEB87
:102CD00090E00E944505BC0186EC95E00E944034DE
:102CE00044E150E066E270E086EC95E00E948C2DB5
:102CF00087E28B1518F481EB90E01AC08FE18B15F9
:102D000018F48AEA90E014C087E18B1518F480EA81
:102D100090E00EC08FE08B1518F48EE990E008C0AB
:102D200087E08B1518F48CE990E002C08AE990E006
:102D30000E944505BC0186EC95E00E9440344CE1C0
:102D400050E065E070E086EC95E00E948C2D84E90F
:102D500090E00E944505BC0186EC95E00E9440345D
:102D60004CE150E066E270E086EC95E00E948C2D2C
:102D70006B2D67706F5F4AE050E086EC95E00E9433
:102D8000FB348DE9E8168FEFF80681F088E890E0D3
:102D90000E944505BC0186EC95E00E9440344AE063
:102DA00050E0B70186EC95E00E94E63444E250E042
:102DB00065E070E086EC95E00E948C2D8AE790E05B
:102DC0000E944505BC0186EC95E00E94403444E237
:102DD00050E066E270E086EC95E00E948C2D4AE0BF
:102DE00050E0B60186EC95E00E9419354CE250E0C7
:102DF00065E070E086EC95E00E948C2D84E790E021
:102E00000E944505BC0186EC95E00E9440344CE2EE
:102E100050E066E270E086EC95E00E948C2DB801EF
:102E200086EC95E00E94403486EC95E00E94A72D48
:102E30008254910997FD0196BC017595679544E30D
:102E400050E086EC95E00E948C2D88E690E00E9490
:102E50004505BC0186EC95E00E94403486EC95E087
:102E6000DF91CF911F910F91FF90EF90DF90CF9066
:102E7000BF90AF900C94AF2864E086EC95E00C9482
:102E8000E6260C9435380C943D38DC01ED91FC912C
:102E90000190F081E02D0994CF93DF93EC0161E084
:102EA0008DE00E94B93180910D01882321F060E00E
:102EB00086E00E94B931BE017695679580E090E08A
:102EC0000E94BA3060E08DE00E94B93161E086E096
:102ED000DF91CF910C94B931982FE3EBF3E080E0D0
:102EE0002491291729F08F5F31968033C9F780E04C
:102EF00008950E948B3020912F0630913006621B7E
:102F0000730B6931710548F489E190E0861B970BDA
:102F1000BC0180E090E00C94BA300895CF93C82FA4
:102F200060E0813031F48FE00E94B93161E08EE0E1
:102F300005C08EE00E94B93161E08FE00E94B93196
:102F4000C0932401CF9108952F923F924F925F92A8
:102F50006F927F928F929F92AF92BF92CF92DF92A9
:102F6000EF92FF920F931F93CF93DF93382EA2E33C
:102F7000FA2E00E010E0C0E0D0E084E10E943A3197
:102F8000C80FD91F85E10E943A31080F191FFA9422
:102F9000A1F722E330E0CE01B9010E94A037FB0186
:102FA000C801B9010E94A0374B01809122018730EE
:102FB00061F58091180190911901E817F90720F443
:102FC000F0931901E0931801809116019091170177
:102FD0008E179F0720F4F0931701E093160180915C
:102FE0001001909111018816990620F49092110118
:102FF0008092100180910E0190910F018815990522
:1030000020F490920F0180920E01E0901A01F0904E
:103010001B0100E010E020911C0130911D0140E0F7
:1030200050E0BF01882777FD8095982F1F921F924F
:103030001F92E4E62E2E2F92A12CB12C6501A394B1
:103040000E941F352B013C01EB01E0901201F09032
:10305000130100E010E0209114013091150140E0CF
:1030600050E0B401882777FD8095982F1F921F921A
:103070001F922F920E941F354B015C018B018DB76F
:103080009EB708960FB6F8949EBF0FBE8DBF9FEFF8
:1030900039125CC080913706882321F0823009F014
:1030A0004DC04FC0B401882777FD8095982F0E94AE
:1030B00079366B017C01B201882777FD8095982FC6
:1030C0000E947936A70196010E947935A7019601E1
:1030D0000E94DE3520E030E048EC52E40E942D37BB
:1030E0006B017C0120E030E0A9010E94293718160D
:1030F0001CF4C701B60103C0C701B60190580E9475
:10310000463664307105BCF0809136060C171D07F9
:1031100024F4181654F4815006C0C017D1072CF4BB
:1031200087301CF48F5F80933606809136068823A3
:1031300029F0873034F43090240105C033243394CF
:1031400002C092E0392E832D0E948E1781E038163E
:1031500029F080912201873009F0E4011C161D0638
:103160003CF4CE01C536D1052CF084E690E002C0D7
:1031700081E090E0DF91CF911F910F91FF90EF9050
:10318000DF90CF90BF90AF909F908F907F906F9087
:103190005F904F903F902F9008958FEF0C94A4175D
:1031A00060E08CE00E94B93181E090E00E94F43050
:1031B00061E08AE00E94B93181E090E00E94F43041
:1031C00061E08CE00E94B93181E090E00E94F4302F
:1031D00060E08CE00E94B93181E090E00C94F43022
:1031E00060E08CE00E94B93181E090E00E94F43010
:1031F00060E08AE00E94B93181E090E00E94F43002
:1032000061E08CE00E94B93181E090E00E94F430EE
:1032100060E08CE00E94B93181E090E00C94F430E1
:1032200081E090E00E94F43060E08BE00E94B931D0
:1032300081E090E00C94F43081E090E00E94F43062
:1032400061E08BE00E94B93181E090E00C94F430B1
:103250001F93CF93DF93E82FF0E0EE0FFF1FED58A1
:10326000FB4FC591D4910E941C1981E090E00E940F
:10327000F4300E9410190E94F0180E94F0180E9469
:10328000F0180E94D0180E94F01814E10E94F01863
:103290001150E1F70E941C1981E090E00E94F43087
:1032A0000E9410190E941C190E9410190E94D01827
:1032B0000E94F0180E94F0180E94F0180E94D01886
:1032C00010E1C0FF03C00E94D01802C00E94F01895
:1032D000D695C7951150A9F70E94F0180E94F018D2
:1032E0000E94F0180E94F0180E941C1981E090E0E2
:1032F0000E94F43060E08BE00E94B93160E08CE025
:103300000E94B93160E08AE0DF91CF911F910C9467
:10331000B9310F931F93CF93DF9326E040E855E236
:1033200060E070E08BE097E00E94FB3261E08DE0AE
:103330000E94803161E08DE00E94B93162E081E15C
:103340000E94803161E086E00E94803161E086E089
:103350000E94B93160E082E00E94803162E082E048
:103360000E94B93160E083E00E94803162E083E036
:103370000E94B93160E084E00E94803162E084E024
:103380000E94B93160E085E00E94803162E085E012
:103390000E94B93161E08EE00E94803161E08FE0EF
:1033A0000E94803181E00E948E1761E08BE00E94D4
:1033B000803161E08AE00E94803161E08CE00E940F
:1033C000803180E090E00E9441178F3F09F058C0A3
:1033D00061E080E090E00E94431760E081E090E0CF
:1033E0000E94431760910D018BE090E00E9443170B
:1033F00060910C018CE090E00E9443176AE582E046
:1034000090E00E94431760E083E090E00E94431741
:103410006CED84E090E00E94431760E085E090E06E
:103420000E9443176AE575E087E196E00E942E3816
:1034300007E116E0C4E1D0E0F80161918F01CE010F
:103440000E9443172196CE31D105B1F7609137061E
:1034500086E090E00E9443176AE587E090E00E94D2
:10346000431760E088E090E00E9443176CED89E02C
:1034700090E00E94431760E08AE090E00E944317CA
:1034800080E090E00E9441178093220181E090E06B
:103490000E944117809339060E94281980913906AD
:1034A000809334068BE090E00E94411791E08111F7
:1034B00001C090E090930D018CE090E00E944117D4
:1034C00091E0811101C090E090930C0107E116E0BA
:1034D000C4E1D0E0CE010E944117F80181938F0131
:1034E0002196CE31D105B1F783E090E00E944117DB
:1034F000C82F82E090E00E9441172C2F30E0322F3D
:103500002227282B30931D0120931C0185E090E099
:103510000E944117C82F84E090E00E9441172C2F91
:1035200030E0322F2227282B30931B0120931A01E1
:1035300086E090E00E9441178093370688E090E093
:103540000E944117C82F87E090E00E9441172C2F5E
:1035500030E0322F2227282B3093150120931401BD
:103560008AE090E00E944117C82F89E090E00E9415
:1035700041172C2F30E0322F2227282B30931301B4
:103580002093120181E08093240667E176E08BE3CB
:1035900096E00E94760518168CF48DE00E94EF31BB
:1035A00061E0892B09F060E08DE00E94B93164E6AA
:1035B00070E080E090E00E94BA30EFCF85E10E9499
:1035C0003A31059714F41092370660E08DE0DF91F0
:1035D000CF911F910F910C94B9318BE396E00C942D
:1035E0005A051F93CF93DF9384E690E00E944C1717
:1035F00064E670E080E090E00E94BA3084E690E0FB
:103600000E944C1762E070E08BE097E00E94451743
:103610006091390612E0160F8BE097E00E94963217
:10362000C7E1D6E06991662361F0160F772767FD41
:1036300070958BE097E00E94451786E0C132D8076D
:1036400089F763E070E08BE097E00E944517612FF7
:103650008BE097E0DF91CF911F910C9496326F929F
:103660007F928F929F92AF92BF92CF92DF92EF9212
:10367000FF920F931F93CF93DF931F92CDB7DEB7C7
:1036800083E00E94EF31892BB9F510922B0610923E
:103690002C0610922D0610922E0682E390E00E94D6
:1036A0004C1764E670E080E090E00E94BA3082E35C
:1036B00090E00E944C1764E670E080E090E00E9489
:1036C000BA3010E083E00E94EF31892B19F41A30F0
:1036D00009F03AC6B090210180912201811103C006
:1036E00081E0809322011A3008F4B8C586E0809307
:1036F00022018FEF809320011092350685E00E9411
:10370000EF31892B19F486E0809322018091240601
:1037100060912201811105C080912001681709F490
:1037200088C110922406633009F43AC648F4613027
:1037300009F46AC0623009F078C16093210151C078
:10374000673021F1693009F44AC1663009F06DC172
:103750006091390681E090E00E9443176091210159
:1037600080E090E00E94431760910D018BE090E0B3
:103770000E94431760910C018CE090E00E94431777
:1037800007E116E094E1E92EF12C56C0E2E3F0E007
:10379000F0931D01E0931C014CE251E050931B019A
:1037A00040931A012CED30E0309319012093180159
:1037B0008AE590E09093170180931601F09315012C
:1037C000E0931401509313014093120130931101BF
:1037D0002093100190930F0180930E0183E080935A
:1037E000210610923A06E3EBF3E0E491E093390608
:1037F000109223061092220681E0809325068BE327
:1038000096E00E94F40D11C180E58093230110928F
:103810002306109222066093330610922B06109214
:103820002C0610922D0610922E06609122018BE339
:1038300096E00E944308E5C0F80161918F01C7013D
:103840000E944317FFEFEF1AFF0A2EE1E216F10480
:1038500099F76091370686E090E00E9443178091C7
:103860002001853009F464C080912101893009F478
:103870005FC08091390190913A010E9441178F3FBA
:10388000E9F08CE690E00E944117082F10E00A3022
:10389000110519F00F5F1F4F02C001E010E0F801A1
:1038A000EE0FFF1FEB5DFE4F6FEF808191810E9455
:1038B0004317602F8CE690E00E944317E12CF12C17
:1038C000F701EE0FFF1FEB5DFE4F00811181C80174
:1038D0000E9441178F3F69F460913906C8010E9428
:1038E00043176E2D8CE690E00E944317BCE0EB2E50
:1038F000F12C8FEFE81AF80AEAE0EE16F10404F36F
:103900008CE690E00E94411740913906E42FF0E0E8
:10391000EE0FFF1FED5EFB4F25913491E82EF12C49
:1039200007E116E0609121018BE396E00E94081602
:10393000809120018530B1F440913906E42FF0E008
:10394000EE0FFF1FED5EFB4F259134917DE9E72ED1
:10395000FF24FA9407E116E0609121018BE396E0E1
:103960000E940816809121018930F1F4E09112063D
:10397000F0911306EE0FFF1FEB5DFE4F6FEF80819E
:1039800091810E944317E0913906F0E0EE0FFF1F8E
:10399000ED5EFB4F65917491409112068BE396E0CA
:1039A0000E9468091092150615E084E690E00E94D6
:1039B0004C1764E670E080E090E00E94BA3011504D
:1039C000A1F768EB7BE080E090E00E94BA30809144
:1039D00021018093220181E08093240626C00E9469
:1039E0008B3060932B0670932C0680932D0690935A
:1039F0002E0640911406609122018BE396E00E940E
:103A0000450A80912101823031F0893021F0809186
:103A10002001873031F481E090E00E9441178093CB
:103A200039068091220180932101809122018093A7
:103A3000200180912201883009F03EC08091390632
:103A4000E82FF0E0EE0FFF1FED5EFB4F2591349164
:103A5000E82FF0E0ED51FC4F449107E116E0609152
:103A600037068BE396E00E9422100E94CD188093C7
:103A7000380682E00E94A417082F81E00E94A41754
:103A8000282F40913806609124018BE396E00E9434
:103A90000C1183E00E94EF31019709F08CC482E0A1
:103AA0000E94EF31019709F086C484E00E94EF3153
:103AB000019709F080C4D9CF843009F04CC010912F
:103AC000370601E010933706612F8BE396E00E94E2
:103AD000F4120E94CD1882E00E94A417282F81E0E2
:103AE00029830E94A4172981482F609124018BE328
:103AF00096E00E94CD1383E00E94EF31019751F4CC
:103B000082E00E94EF31019729F484E00E94EF31B6
:103B10000197F9F283E00E94EF31892B09F460C428
:103B200082E00E94EF31892B09F052C4115013300A
:103B30000CF458C410E082E390E00E944C1768EC4B
:103B400070E080E090E00E94BA300111BBCF80911C
:103B500021018093220180912201893019F0109275
:103B600015064CC00E9479170E94CD188093380624
:103B7000209122063091230690E08217930708F4E3
:103B8000C901909323068093220680911506811126
:103B90001FC069E080E090E00E9443171092160673
:103BA00025E2E22E21E0F22E11E001E0F701819101
:103BB00091917F010E9441178F3F21F010931406CD
:103BC000009316061F5F1B3089F781E0809315066E
:103BD00082E00E94EF31892B09F408C484E00E943E
:103BE000EF31892B09F473C4809116068111DAC470
:103BF000609122018BE396E00E94190A80912201D4
:103C0000982F9D7F913009F091C10E9479170E94F1
:103C1000CD1880933806209122063091230690E03B
:103C20008217930708F4C901909323068093220614
:103C3000809139060E946C1780933A068091220188
:103C4000833009F07EC0C0902706D0902806E0900F
:103C50002906F0902A06F8EECF0EF3E0DF1EE11CF5
:103C6000F11C0E948B30C616D706E806F90628F428
:103C700080913806833308F4B3C482E00E94EF31A8
:103C8000892B39F50E948B3060932B0670932C069C
:103C900080932D0690932E0682E390E00E944C17AD
:103CA00068EC70E080E090E00E94BA3080913906C4
:103CB0008F5F8093390690913A069F5F90331CF492
:103CC00090933A0602C010923A06803310F0109298
:103CD000390684E00E94EF31892B29F50E948B3050
:103CE00060932B0670932C0680932D0690932E06DE
:103CF00082E390E00E944C1768EC70E080E090E076
:103D00000E94BA3080913906815080933906909193
:103D10003A06915097FD9FE290933A06803318F04F
:103D20008FE28093390680910C0181110AC0E091E5
:103D30003A06FF27E7FDF095ED54FC4FE491E09340
:103D4000390680912201813009F098C060912206E5
:103D50007091230680E090E00E9477362DEC3CECD9
:103D60004CE45FE30E942D370E94463620912301E8
:103D700030E02617370714F46093230120912606BC
:103D8000211152C020913306211122C030913806F2
:103D9000209123012317E0F481E0809326060E94FE
:103DA0008B3060932B0670932C0680932D06909396
:103DB0002E0684E690E00E944C1764E670E080E0F6
:103DC00090E00E94BA3084E690E00E944C172CC02C
:103DD0001092330620913A0630911F01230F209351
:103DE0003A0620332CF06093230110923A0607C064
:103DF00027FF09C0609323018FE280933A06109257
:103E000023061092220680912301853008F485E074
:103E100080932301E0913A06FF27E7FDF095ED54EA
:103E2000FC4FE491E093390682E00E94EF31892B48
:103E300029F084E00E94EF31892B01F582E00E9495
:103E4000EF31892B09F0D9C381E080931F0182E310
:103E500090E00E944C1768EC70E080E090E00E94D7
:103E6000BA3081E0809333061092260610922B061A
:103E700010922C0610922D0610922E0680902B0682
:103E800090902C06A0902D06B0902E0628E8820E69
:103E900023E1921EA11CB11C0E948B30C0902B0606
:103EA000D0902C06E0902D06F0902E0686169706F0
:103EB000A806B90650F4C114D104E104F10429F0B4
:103EC00080913806833308F09AC3C114D104E10409
:103ED000F10471F00E948B30E0E3CE0EE5E7DE1EC8
:103EE000E11CF11CC616D706E806F90608F487C3DC
:103EF00040913906E42FF0E0EE0FFF1FED5EFB4F1F
:103F0000E590F490AA24A39480912606811101C023
:103F1000A12CC09023010091380620913A066091AF
:103F200022018BE396E00E94650BEFC0823019F00E
:103F3000873009F0EAC080912506882351F010925D
:103F40002506809139060E942819809139068093B0
:103F500034060E9479170E94CD188093380670911C
:103F60002201723079F4813568F09C013327409149
:103F70002206509123064217530720F4309323065C
:103F80002093220620913906E22FF0E0ED51FC4FFC
:103F90000491E22FF0E0EE0FFF1FED5EFB4FE59086
:103FA000F490A0901601B0901701C0901801D09025
:103FB000190161E0773009F060E0282F40913A065E
:103FC0008BE396E00E94C50E80913A068F3224F46E
:103FD0008F5F80933A0674C010923A068091220156
:103FE000873009F06DC0809121069FEF980F909364
:103FF0002106811165C060911801809119016093BB
:104000001C0180931D0180911601909117018D373D
:10401000910510F48CED90E090931B0180931A01B0
:1040200082E090E00E94431760911D0183E090E0E0
:104030000E94431760911A0184E090E00E944317A8
:1040400060911B0185E090E00E94431785E10E948A
:104050003A3105975CF160911001809111016093F4
:1040600014018093150180910E0190910F018D37FD
:10407000910510F48CED90E0909313018093120160
:1040800087E090E00E9443176091150188E090E07E
:104090000E9443176091120189E090E00E9443174B
:1040A000609113018AE090E00E94431780E090E065
:1040B0000E9441178093220188EE93E00E944C17E2
:1040C00082E00E94EF31892BB1F482E390E00E94FC
:1040D0004C1768EC70E080E090E00E94BA308FEFFF
:1040E0008093200110923A0681E080932506109279
:1040F000230610922206E0913A06FF27E7FDF0958D
:10410000ED54FC4FE491E093390680912201853013
:1041100009F05FC08BE396E00E94C01466246A94A5
:10412000762CF12CDD24D3946DE7C62E70E2B72EE9
:10413000E7E0AE2EF6E09F2E88248394E62C07E17C
:1041400016E020910C0140910D016F2D8BE396E05C
:104150000E94C11412E3115009F483C283E00E944B
:10416000EF31019789F482E00E94EF31019761F409
:1041700084E00E94EF31019739F464E670E080E05A
:1041800090E00E94BA30E7CF83E00E94EF31892BA4
:1041900009F098C2F2E0FF1609F47AC2FF150CF498
:1041A0006EC2F11063C280910C01882580930C01CE
:1041B00082E390E00E944C1766E970E080E090E0B6
:1041C0000E94BA302FEF6216720609F4AEC2D11007
:1041D000B5CF8091390690913406981709F4BCC286
:1041E0000E94281980913906809334060E948B30F2
:1041F00060932F06709330068093310690933206B9
:1042000080911E01882309F4A7C210921E0184E642
:1042100090E00E944C1764E670E080E090E00E941D
:10422000BA3084E690E00E944C1764E670E080E0CB
:1042300090E00E94BA3084E690E00F90DF91CF9139
:104240001F910F91FF90EF90DF90CF90BF90AF90B4
:104250009F908F907F906F900C944C17BA9403E0CE
:1042600059E0F52E65E0E62E74E0D72E11E0E2E08D
:10427000CE2E22E0B216F1F02B1554F0BB2099F0AF
:1042800081E0B8122AC0C0922201B09225062EC049
:10429000E4E0BE16F9F0BE1684F0F5E0BF121DC0D2
:1042A000B09222011DC01093220110933306109288
:1042B00026061CC00093220119C085E10E943A31F4
:1042C00005971CF0D092220111C0E092220144E037
:1042D000B42E0CC0F092220109C024E02B1534F456
:1042E0006B2D8BE396E00E94E50605C06B2D8BE3FA
:1042F00096E00E94650783E00E94EF31892BD9F395
:1043000082E00E94EF31892BB1F384E00E94EF310B
:10431000892B89F332E3A32EAA9421F183E00E9432
:10432000EF310197C9F482E00E94EF310197A1F4C7
:1043300084E00E94EF31019779F464E670E080E058
:1043400090E00E94BA30E8CF64E670E080E090E050
:104350000E94BA301F5FB6C983E00E94EF31892BFB
:1043600009F051C183E00E94EF31892B21F0809147
:1043700021018093220184E690E00E944C1762E3C1
:1043800070E080E090E00E94BA3084E690E00E9405
:104390004C1762E370E080E090E00E94BA30A9C957
:1043A0000E948B3060932B0670932C0680932D0611
:1043B00090932E063ACA8091210180932201109297
:1043C0002B0610922C0610922D0610922E06C4C1B8
:1043D00084E00E94EF31892B09F0A9CB1F5FA7CBA6
:1043E00000E0A5CB17FFA7CB12E0A5CB68EC70E0EF
:1043F00080E090E00E94BA308091120690911306FE
:10440000019690931306809312060B973CF08091CF
:10441000140690E090931306809312060091120602
:1044200010911306F801EE0FFF1FEB5DFE4F808128
:1044300091810E944117809339068F3F09F440C053
:10444000602F8BE396E00E94E309809139060E9479
:104450006C1780933A060E948B3060932B06709302
:104460002C0680932D0690932E0682E390E00E9406
:104470004C1768EC70E080E090E00E94BA308091C8
:104480003A06803314F010923A0680913906803350
:1044900010F010923906609122018BE396E00E94A1
:1044A00043086091390681E090E00E9443174AE09A
:1044B00050E0609139068BE097E00E9402358ECB88
:1044C00001501109109313060093120687CB68EC74
:1044D00070E080E090E00E94BA30809112069091E6
:1044E0001306019790931306809312061816190667
:1044F0003CF08091140690E090931306809312068E
:104500000091120610911306F801EE0FFF1FEB5DEC
:10451000FE4F808191810E944117809339068F3F21
:10452000D1F1602F8BE396E00E94E3098091390678
:104530000E946C1780933A060E948B3060932B0682
:1045400070932C0680932D0690932E0682E390E0C4
:104550000E944C1768EC70E080E090E00E94BA3056
:1045600080913A0687FF03C08FE280933A068091DC
:104570003906803318F08FE280933906609122016A
:104580008BE396E00E9443086091390681E090E059
:104590000E94431729CB0F5F1F4F10931306009300
:1045A000120622CB40913906E42FF0E0EE0FFF1FF8
:1045B000ED5EFB4FE590F490AA24A394809126062B
:1045C000811101C0A12CC0902301009138062091D7
:1045D0003A06609122018BE396E00E94650B0ECBB8
:1045E0000E94F11A0E948B30609327067093280670
:1045F0008093290690932A0640CB8FEF26CC88E043
:104600008093220175CC82E00E94EF31892B59F40E
:10461000AB2CBA9485E10E943A31059754F483E0BB
:10462000B81207C01AC084E00E94EF31892B09F448
:10463000B394E5E0EB152CF0B7FE04C025E0B22EF4
:1046400001C0B12C82E390E00E944C1768EC70E04E
:1046500080E090E00E94BA300CCE3EEFB32EBA0C50
:10466000E8CF8091210180932201B3CD21E0F212A5
:1046700052C080910D018F2580930D0199CD83E06B
:10468000F81679F0E4E0FE1246C09092220118C0BC
:10469000FFEF6F1A7F0A2AE0621671040CF058C00F
:1046A00087CD1AE089E190E00E944C1769E170E043
:1046B00080E090E00E94BA301150A1F7A092220150
:1046C000D12C76CD82E00E94EF31892B79F48FEFE7
:1046D0006816780611F4FA941EC0F301E95EF94FEA
:1046E00080818F5F8E37A4F0B08215C084E00E9475
:1046F000EF31892B81F4EFEF6E167E0611F4F394FF
:104700000AC0F301E95EF94F80818150803214F0D4
:10471000808301C0C082F4E0FF152CF0F7FE48CD85
:1047200044E0F42E45CDF12C43CD83E00E94EF31DF
:10473000892B09F441CD82E00E94EF31892B09F4E5
:104740003BCD84E00E94EF31892B09F435CD3FCD7C
:1047500066246A94762C2CCD0F90DF91CF911F9117
:104760000F91FF90EF90DF90CF90BF90AF909F9010
:104770008F907F906F9008950F931F93CF93DF9347
:10478000EC018D89823061F08330D9F0813009F0FD
:10479000C8C0EC81FD81E41BF50B3197DB0118C02B
:1047A0008C819D81DC01A61BB70BBD018E819F8191
:1047B000FC01E41BF50BAF0141505109621B730B67
:1047C000B0C0AE81BF81A61BB70BA21BB30BFA0111
:1047D000F7FD05C18C819D81E817F9070CF0FFC03A
:1047E000B7FF04C02A0F3B1FA0E0B0E08E819F817D
:1047F000AD01420F531F841795071CF49C012A1B1F
:104800003B0B121613060CF0EAC0422F8A2F869536
:104810008695869590E8899FE00DF11D1124E75B50
:10482000FE4FA77069F158E05A1B852F90E0EC010C
:10483000CF5BDE4F6881251760F4DC01A21BB10954
:104840008FEF90E00A2E02C0959587950A94E2F7C3
:1048500068230130110539F048F00230110551F498
:104860008081862706C08081862B03C06095808169
:1048700086238083451708F4B2C0451BE058FF4FDC
:104880004830A0F102301105A9F4DF01842F9C917A
:1048900090959C93A058BF4F88508830C0F788EF00
:1048A000840F869586958695B0E88B9FE00DF11D67
:1048B000112419C081E00130110509F080E0982F22
:1048C0009195EF01842F9883C058DF4F885088302E
:1048D000D0F788EF840F86958695869590E8899F16
:1048E000E00DF11D1124E058FF4F4770442309F4F7
:1048F00076C0A42FB0E0A75CBE4F9C91013011059B
:1049000041F050F00230110509F069C0808189271B
:1049100006C08081892B03C0909580818923808384
:104920005EC057FD5CC08E819F81481759070CF00F
:1049300056C077FF04C0260F371F60E070E08C81FF
:104940009D81FB01E20FF31F8E179F071CF49C0152
:10495000261B370B121613060CF041C0CA0157FD77
:104960000796E3E095958795EA95E1F79695982F58
:10497000882797958795875B9E4F860F971F47706F
:10498000552761E070E001C0660F4A95EAF7462FAF
:104990000130110541F088F00230110501F5FC01EC
:1049A000280F391F15C0FC01280F391FE217F30724
:1049B000B1F08081842B8193F9CF6095FC01280FA1
:1049C000391FE217F30759F0808186238193F9CFCD
:1049D000E217F30721F0808184278193F9CFDF91DB
:1049E000CF911F910F9108950F931F93CF93DF9352
:1049F000FC018589823069F08330E1F0813009F073
:104A000082C0C481D581C41BD50BC21BD30BDB0173
:104A100017C084819581DC01A61BB70BBD016150D5
:104A2000710986819781DC01A41BB50BAD01421B86
:104A3000530B69C0A681B781A61BB70B1197EA017A
:104A4000B7FD08C186819781A817B9070CF002C18C
:104A5000D7FF04C02C0F3D1FC0E0D0E084819581BA
:104A6000AE01420F531F841795071CF49C012C1BA9
:104A70003D0B121613060CF0EDC0CD01B7FD0796E5
:104A800043E0959587954A95E1F79695982F882765
:104A900097958795875B9E4F8C0F9D1FA770BB27AF
:104AA00041E050E00A2E01C0440F0A94EAF7642F57
:104AB0000130110549F098F00230110509F0CAC023
:104AC000FC01280F391F17C0FC01280F391FE217FE
:104AD000F30709F4BFC08081862B8193F8CF4095FE
:104AE000FC01280F391FE217F30709F4B3C08081D6
:104AF00084238193F8CFE217F30709F4ABC08081D8
:104B000086278193F8CF77FDA5C0848195816817AA
:104B100079070CF09FC057FF04C0240F351F40E0F9
:104B200050E086819781FA01E20FF31F8E179F07ED
:104B30001CF49C01241B350B121613060CF08AC0C2
:104B4000522F842F869586958695FB01B0E88B9F22
:104B5000E00DF11D1124E75BFE4F477069F168E03D
:104B6000641B862F90E0EC01CF5BDE4F4881261757
:104B700060F4DC01A21BB1098FEF90E00A2E02C0A5
:104B8000959587950A94E2F748230130110539F08D
:104B900048F00230110551F48081842706C08081DD
:104BA000842B03C04095808184238083561708F4AA
:104BB00051C0561BE058FF4F5830A0F1023011058C
:104BC000A9F4DF01852F9C9190959C93A058BF4F2D
:104BD00088508830C0F788EF850F86958695869532
:104BE000B0E88B9FE00DF11D112419C081E0013068
:104BF000110509F080E0982F9195EF01852F98839A
:104C0000C058DF4F88508830D0F788EF850F8695E1
:104C10008695869590E8899FE00DF11D1124E05856
:104C2000FF4F57705523B1F0A52FB0E0A75CBE4FE2
:104C30009C910130110539F048F00230110551F412
:104C40008081892706C08081892B03C0909580814F
:104C500089238083DF91CF911F910F910895CF9287
:104C6000DF92EF92FF920F931F93CF93DF937C011C
:104C70008B01EA01690177FDA0C00E94A72D0817EA
:104C800019070CF09AC0D7FD98C0C7010E94AB2D40
:104C9000C817D9070CF091C0C7010E94A42D82301B
:104CA00009F07FC0F701848195819C01201B310BA5
:104CB00089010150110986819781FC01EC1BFD0BD4
:104CC000EF0121970BC0813049F4F7018481958170
:104CD0008C1B9D0BE8018C0101501109F1E0CF16EE
:104CE000D10431F010F132E0C316D104E1F165C016
:104CF000FE01D7FD379683E0F595E7958A95E1F7B4
:104D0000F695FE2FEE27F795E795E00FF11FE75B8D
:104D1000FE4FC770DD2781E090E00C2E01C0880FA8
:104D20000A94EAF79081982B3AC0FE01D7FD379696
:104D3000A3E0F595E795AA95E1F7F695FE2FEE2706
:104D4000F795E795E00FF11FE75BFE4FC770DD2792
:104D500081E090E00C2E01C0880F0A94EAF780955C
:104D6000908198231CC0FE01D7FD379663E0F5952E
:104D7000E7956A95E1F7F695FE2FEE27F795E7950B
:104D8000E00FF11FE75BFE4FC770DD2781E090E089
:104D90000C2E01C0880F0A94EAF79081982790831F
:104DA0000CC0833009F08FCFF70186819781801B7B
:104DB000910B8E01EC01219791CFDF91CF911F9143
:104DC0000F91FF90EF90DF90CF9008951F93CF93B6
:104DD000DF93EC01162F40E450E060E870E00E94A1
:104DE000F32A88E695E0998388838FEF8C8F88A3D8
:104DF0008E8F8D8F1F8FDF91CF911F91089580E04F
:104E000094E0E9E4F1E0DF019C011D922150304083
:104E1000E1F70895FC0181A1882339F06EBD0000FF
:104E20000DB407FEFDCF8EB5089588E090E030E820
:104E3000A4A1B5A14C9123A5209524232C93A2A134
:104E4000B3A122A5432F462321F04C91422B4C9332
:104E500004C04C91209524232C93A4A1B5A12C919E
:104E600043A5242B2C933695019711F708951F9392
:104E7000CF93DF93EC01162F8C8D8F3F09F1EEA1BC
:104E8000FFA180819CA5892B8083E8A5F9A590814D
:104E90008DA5809589238083EEA1FFA190818CA5AB
:104EA000809589238083CE010E940A27EEA1FFA16D
:104EB00080819CA5892B8083DF91CF911F910895DC
:104EC0008A8D682F772767FD709582E496E00E94AF
:104ED0005A2E60E082E496E00E94072E612F82E461
:104EE00096E00E94072E82E496E0DF91CF911F9119
:104EF0000C946F2E0F931F93CF93DF93EC01162F1B
:104F0000022F6B8F4A8F8C8D8F3F09F48CC061E02C
:104F10008E8D0E94803161E088A10E94803188A13D
:104F2000992787FD9095FC01E550F64FE491F0E05C
:104F3000EE0FFF1FE75EF54F259134913FA32EA39F
:104F4000FC01E951F64F84918CA78E8D992787FD3E
:104F50009095FC01E550F64FE491F0E0EE0FFF1F55
:104F6000E75EF54F2591349139A728A7FC01E95157
:104F7000F64F84918DA789A1811134C061E08C8D99
:104F80000E94803161E08D8D0E9480318D8D992746
:104F900087FD9095FC01E550F64FE491F0E0EE0FAF
:104FA000FF1FE75EF54F259134913DA32CA3FC0133
:104FB000E951F64F84918BA78C8D992787FD9095A9
:104FC000FC01E550F64FE491F0E0EE0FFF1FE75EC5
:104FD000F54F259134913BA32AA3FC01E951F64FEB
:104FE00084918AA789A1882311F10E943629809192
:104FF0004006882399F09FB7F8948091400681304D
:1050000059F48DB380933E062DB380913F06809571
:1050100082238DBB9FBF02C090933E0680E58CBD6E
:1050200081E08DBD04C082E496E00E94462E0023FC
:10503000F1F08F8D87FD1BC061E00E94803161E03F
:105040008F8D0E94B93161E070E080E090E00E94B5
:10505000BA3060E08F8D0E94B9316AE070E080E084
:1050600090E00E94BA3061E08F8D0E94B9316EEA03
:10507000CE010E94372765EDCE010E94372760E8F8
:10508000CE010E94372768EACE010E9437276FE3DE
:10509000CE010E94372763EDCE010E94372760E0E2
:1050A000CE010E94372760E4CE010E9437276DE8C9
:1050B000CE010E943727113011F460E101C064E194
:1050C000CE010E94372760E2CE010E94372760E0C0
:1050D000CE010E94372761EACE010E94372768EC93
:1050E000CE010E9437276AEDCE010E94372762E188
:1050F000CE010E94372761E8CE010E943727113088
:1051000011F46FE901C06FECCE010E94372769ED01
:10511000CE010E943727113011F462E201C061EF25
:10512000CE010E9437276BEDCE010E94372760E445
:10513000CE010E94372764EACE010E94372766EA33
:10514000CE010E9437276EE2CE010E9437276FEA18
:10515000CE01DF91CF911F910F910C943727DF92F1
:10516000EF92FF920F931F93CF93DF93EC0161E2D5
:105170000E94372760E0CE010E9437276FE7CE01FB
:105180000E94372762E2CE010E94372760E0CE01FD
:105190000E94372767E0CE010E9437278C8D8F3F12
:1051A00031F1EEA1FFA180819CA5892B8083E8A528
:1051B000F9A580819DA5892B8083EEA1FFA1908117
:1051C0008CA580958923808309E411E0F801619121
:1051D0008F01CE010E940A27F5E009341F07B1F7BD
:1051E000EEA1FFA180819CA5892B808337C0D09040
:1051F000B8008CE08093B80009E411E06A8D77274D
:1052000067FD709582E496E00E945A2EE091420676
:10521000F09143060190F081E02D60E482E496E095
:105220000995E12CF12CF801EE0DFF1D608182E45F
:1052300096E00E94072E8FEFE81AF80AE0E1EE16DA
:10524000F10489F782E496E00E946F2E005F1F4F01
:10525000F5E009341F0791F6D092B800DF91CF91A5
:105260001F910F91FF90EF90DF900895CF93CFB7EC
:10527000F89480914106811127C0E5E0FAE084911D
:10528000E1EFF9E09491E82FF0E0EE0FFF1FED5D04
:10529000F54FA591B4918C91892321F461E08AE0C6
:1052A0000E94B93161E08AE00E9480318CB5806152
:1052B0008CBD8CB580648CBD61E08DE00E94803136
:1052C00061E08BE00E948031809141068F5F809386
:1052D0004106CFBFCF9108952F923F924F925F9298
:1052E0006F927F928F929F92AF92BF92CF92DF92F6
:1052F000EF92FF920F931F93CF93DF9300D000D0D4
:10530000CDB7DEB74C017C836B836A015901C801BC
:105310008701AC014C195D0957FF03C051954195B8
:10532000510995016B817C81261B370B37FF03C028
:1053300031952195310922242394312C24173507E6
:1053400014F0212C312C2114310459F03A2D2B2D3D
:105350005C01832F922F3B812C81DC82CB82C32E78
:10536000D22EAB81BC81AA16BB065CF43C2D2D2D40
:105370006C01832F922F3B812C81BC82AB82A32EA8
:10538000B22E2501EB81FC814E1A5F0A3C016C189C
:105390007D0877FE03C0719461947108720157FE15
:1053A00003C0FFEFEF1AFF0AF594E794C816D90679
:1053B0002CF421E030E03A83298324C06FEF7FEFA3
:1053C0007A8369831FC0D401ED91FC910480F5813B
:1053D000E02D980121143104D9F04B815C81B60194
:1053E000C4010995E618F708F7FE06C0E981FA81BD
:1053F000CE0EDF1EE40CF51C2B813C812F5F3F4F4E
:105400003C832B836B817C81A616B706E4F604C02F
:10541000A6016B817C81E4CF0F900F900F900F90CD
:10542000DF91CF911F910F91FF90EF90DF90CF9080
:10543000BF90AF909F908F907F906F905F904F90B4
:105440003F902F9008956F927F928F929F92AF928C
:10545000BF92CF92DF92EF92FF920F931F93CF9361
:10546000DF93EC015B016A0139014801E881F981B0
:105470000284F385E02D87010995E881F981A60171
:10548000480D591D415051090284F385E02D9301C7
:10549000B501CE010995E881F9810084F185E02DFF
:1054A0009401A601B501CE010995E881F981B50104
:1054B000660D771D615071090084F185E02D94011E
:1054C000A601CE010995DF91CF911F910F91FF9019
:1054D000EF90DF90CF90BF90AF909F908F907F9094
:1054E0006F900895EF92FF920F931F93DC01ED915F
:1054F000FC91240F351F215031090680F781E02DE2
:10550000780189019B0109951F910F91FF90EF9000
:105510000895EF92FF920F931F93DC01ED91FC91A0
:10552000260F371F215031090680F781E02D7801C1
:105530008A0109951F910F91FF90EF9008956F9246
:105540007F928F929F92AF92BF92CF92DF92EF9213
:10555000FF920F931F93CF93DF935C014A01690180
:105560003801EB01C60ED71ECC15DD0574F4D5014C
:10557000ED91FC910084F185E02D87019301A40158
:10558000BE01C50109952196EFCFDF91CF911F9103
:105590000F91FF90EF90DF90CF90BF90AF909F90D2
:1055A0008F907F906F900895EF92FF920F931F93CB
:1055B000DC01ED91FC9111971A960D911C911B97AE
:1055C00018962D913C9119970684F785E02D7B0163
:1055D00040E050E060E070E009951F910F91FF906E
:1055E000EF9008950895FC011382128280E895E0FF
:1055F0009183808375836483578346837187608733
:1056000053874287158A158614861786168621E0E9
:10561000248B8FEF9FEF938B828B918B808B268BCC
:10562000178A118E108E08952F923F924F925F929B
:105630006F927F928F929F92AF92BF92CF92DF92A2
:10564000EF92FF920F931F93CF93DF93CDB7DEB707
:105650006A970FB6F894DEBF0FBECDBF1C01588706
:105660004F831C870B87FA86E986CC82DC0158962B
:105670004D915C9159974115510509F0A6C01896B6
:105680008D919C911997681779070CF056C11A965D
:105690008D919C911B97EF81F885E817F9070CF025
:1056A0004CC1D12CCB013C81F6E03F9F800D911D78
:1056B0001124181619060CF040C1C60103E0880F2A
:1056C000991F0A95E1F74F815885840F951F181689
:1056D00019060CF032C157968C91811103C0203B02
:1056E00008F02F5F7E876D874B01198213EDA12E85
:1056F00014E0B12EA61AB70A55E0259FA00CB11CE4
:1057000011248981853039F0ED85FE85EA0DFB1D78
:1057100094919A8301C01A826F8078842301A8E053
:10572000AD83BA81B0FF12C0D101ED91FC91BC8173
:10573000B13031F40480F581E02D2B853C8518C013
:105740000684F785E02DEB84FC841DC0E985FA858D
:105750002B853C85E217F307E1F0D101ED91FC9137
:10576000BC81B13059F40480F581E02D29853A855A
:10577000A2016D857E85C10109950BC00684F78560
:10578000E02DE984FA8486019601A301B401C101E8
:105790000995EA81E695EA83FD81F150FD836C0C61
:1057A0007D1C2FEF421A520AF111BBCF39813F5FA6
:1057B00039838C0C9D1C4D855E854F5F5F4F5E87E6
:1057C0004D87363009F09DCFB8C0FA013496349138
:1057D000329785919491231BA7E02A9F800D911DFC
:1057E0001124FA0125913491398B288BFC014591C4
:1057F00054915A8F498FFC013296549159873196B2
:10580000A491AF873196E491FC01359624913196AD
:105810008491BC81B23050F0622E772467FC709482
:10582000E82FFF27E7FDF095FE87ED87FC81CF2E5F
:10583000D12C6C9C40016D9C900C7C9C900C112494
:10584000860E971EA12C1982DE8ACD8AAB01420FEB
:10585000511D27FD5A955E834D83AF81B885A80FF2
:10586000B11D87FDBA95B88FAF8B59818F855817B9
:1058700008F063C0852F90E02D853E85280F391FE5
:105880002C9DD0012D9DB00D3C9DB00D1124EF81BC
:10589000F885EA0FFB1FFB83EA836D807E8024017D
:1058A000FA2D2D81F21BFA8B4F89588D480F591F05
:1058B0005C8B4B8B9A89960D862D2D81821B3985A9
:1058C0008317B0F5977061F4898D9A8D0196E889F8
:1058D000F989298D3A8DE20FF31FB4909A8F898F41
:1058E000B7FE1DC0D101ED91FC91BC81B13059F4DE
:1058F0000480F581E02D2B853C854B895C89B301C3
:10590000C10109950CC00684F785E02DEB84FC8469
:10591000860196014A815B81B201C1010995BB0CE8
:10592000ED89FE894E0E5F1EFFEF6F1A7F0AC2CF10
:10593000A30E49814F5F498398CF6A960FB6F894BA
:10594000DEBF0FBECDBFDF91CF911F910F91FF90B2
:10595000EF90DF90CF90BF90AF909F908F907F900F
:105960006F905F904F903F902F900895AF92BF92AD
:10597000CF92EF92FF920F931F93CF93DF93EC019F
:10598000262F888D998D009709F042C06A3069F4FE
:105990002C898E859F8538E0239F800D911D1124D1
:1059A0009F878E871D861C86ABC06D3009F4A8C00A
:1059B0008E898823C1F03C898C859D8546E0349F83
:1059C000800D911D112448855985841795075CF039
:1059D0001D861C868E859F85E8E03E9F800D911D6B
:1059E00011249F878E87EA88FB88088919894E854C
:1059F0005F856C857D85CC88CE010E94142B2C8917
:105A00008C859D85F6E02F9F800D911D112441C04E
:105A10006A3079F41D861C864C89FC013696849187
:105A20002E853F85489F200D311D11243F872E87ED
:105A300067C06D3009F464C0AC014C5F5F4FFA0180
:105A40003491631708F45CC03196E491E61708F4CA
:105A500057C0FA014491362F341BFC013296A590B1
:105A6000B490F7E03F9FA00CB11C1124F5013296D1
:105A7000A4913196E491AA2311F0E1110DC0F50132
:105A80003496A4902C898C859D85A29E800D911DB5
:105A900011249D878C8734C0F5013596E4913E89A9
:105AA000332309F13C89B0E0AE0FB11DE7FDBA9593
:105AB0003A9FA0013B9F500D11246C857D85460FB8
:105AC000571F68857985461757076CF01D861C8619
:105AD000FC01369684914E855F85389F400D511D9F
