:100000000C9433050C945B050C945B050C945B0518
:100010000C945B050C945B050C945B050C945B05E0
:100020000C945B050C945B050C945B050C945B05D0
:100030000C945B050C945B050C945B050C945B05C0
:100040000C941A310C945B050C9436340C9468347F
:100050000C945B050C945B050C945B050C945B05A0
:100060000C94ED2F0C945B052D2D205341564544E7
:10007000202D2D005349474E3A00465245513A2013
:100080002020202047487A0020204641562043481F
:10009000414E3A004348414E3A004100420045007B
:1000A000462F4169727761766500432F526163651F
:1000B00000442F352E33202020200042414E443A68
:1000C000004155544F205345454B004641564F5231
:1000D000495445004D414E55414C0042414E44204B
:1000E0005343414E4E4552004D4F44453A00534113
:1000F00056452053455454494E47530053415645A5
:10010000202620455849540043414C49425241540D
:10011000452052535349005349474E203A20004F3F
:100120004646004F4E200042454550533A20004677
:1001300052455155454E4359004348414E4E454C5A
:100140002020004F524445523A2000534554555008
:10015000204D454E55005245434549564552204293
:100160000052454345495645522041004155544FA0
:1001700000444956455253495459004C4F57205357
:1001800049474E414C005253534900414E54454E4D
:100190004E41204200414E54454E4E4120410041C7
:1001A00055544F00202020002020200035393435C0
:1001B00000353830300035333632004D696E3A2024
:1001C000202020204D61783A005253534920534556
:1001D00054555000424553543A0042414E44205336
:1001E00043414E4E4552004155544F205345454BD7
:1001F000204D4F4445004155544F204D4F4445201C
:100200004C4F434B00412020202020202020004242
:1002100020202020202020200045202020202020D9
:10022000202000462F4169727761766500432F5286
:1002300061636520202000442F352E3320202020AC
:10024000003539343500353830300035333632003A
:1002500042414E443A004155544F205345454B20AE
:100260004D4F4445004641564F5249544553200096
:100270004641564F524954455300544F54414C2027
:100280004641562F45533D0052454F5247414E4936
:100290005A494E47204641562F4553200052454F5C
:1002A0005247414E495A494E470053454C454354E5
:1002B0004544204641564F52495445204348002D5D
:1002C0002D2044454C45544544202D2D0046415693
:1002D000204348414E4E454C3A004348414E4E451E
:1002E0004C20465245513A0044454C455445204621
:1002F00041564F52495445204348414E0035393408
:1003000035003538303000353336320042414E4406
:100310003A004155544F205345454B204D4F4445DD
:10032000004D414E55414C204D4F444500464156ED
:100330004F52495445204D4F444500202020202055
:1003400020202020004641564F5249544553004436
:100350004956455253495459004D414E55414C2040
:100360004D4F44450042414E44205343414E4E457B
:1003700052004155544F204D4F4445004D4F444588
:100380002053454C454354494F4E00200020202027
:10039000202020202020005345545550204D454E0C
:1003A00055004D4F44452053454C454354494F4E0D
:1003B0000044495341424C45440020454E41424C83
:1003C0004544004469766572736974793A004F4B0D
:1003D00000506F7765723A00426F6F742043686512
:1003E000636B0028292A2B2C2D2E2F13122011216C
:1003F000100722081806091905230A1A040B1B0303
:10040000240C1C020D1D25010E1E000F1F261415A5
:10041000271617A1A2A3A4A5A6A7A8B1B2B3B4B5E5
:10042000B6B7B8E1E2E3E4E5E6E7E8F1F2F3F4F5C4
:10043000F6F7F8C1C2C3C4C5C6C7C8D1D2D3D4D594
:10044000D6D7D8E916D516C116AD169916851671E8
:10045000165D16651678168B169E16B116C416D73D
:1004600016EA164916351621160D16FD1611172512
:100470001739176C1680169416A816BC16D016E4F9
:1004800016F8161A163F1664168916AE16D316F805
:10049000161D17F21417153C1561158615AB15D0EE
:1004A00015F515052A9B29912987291D2913290945
:1004B000299F2803290C2916291F29892992299C5B
:1004C00029052A95288B28812817280F2A192A837D
:1004D0002A8D2A062910291A2984298E2998290269
:1004E0002A0C2A1D288F2802291429872999290CCA
:1004F0002A1E2A09261C268E2601271327862798BE
:10050000270B2800000000003E5B4F5B3E3E6B4F18
:100510006B3E1C3E7C3E1C183C7E3C181C577D5795
:100520001C1C5E7F5E1C00183C1800FFE7C3E7FF41
:100530000018241800FFE7DBE7FF30483A060E26D4
:1005400029792926407F050507407F05253F5A3C2C
:10055000E73C5A7F3E1C1C08081C1C3E7F14227F6F
:1005600022145F5F005F5F06097F017F0066899547
:100570006A606060606094A2FFA29408047E040830
:1005800010207E201008082A1C08081C2A08081EB3
:10059000101010100C1E0C1E0C30383E3830060E99
:1005A0003E0E06000000000000005F000000070093
:1005B0000700147F147F14242A7F2A12231308644F
:1005C0006236495620500008070300001C224100F3
:1005D0000041221C002A1C7F1C2A08083E08080033
:1005E00080703000080808080800006060002010D3
:1005F0000804023E5149453E00427F40007249498D
:1006000049462141494D331814127F10274545456D
:10061000393C4A494931412111090736494949368E
:10062000464949291E000014000000403400000023
:100630000814224114141414140041221408020155
:100640005909063E415D594E7C1211127C7F494981
:1006500049363E414141227F4141413E7F4949491E
:10066000417F090909013E414151737F0808087F14
:1006700000417F41002040413F017F081422417F1B
:10068000404040407F021C027F7F0408107F3E41B3
:1006900041413E7F090909063E4151215E7F09190A
:1006A0002946264949493203017F01033F40404022
:1006B0003F1F2040201F3F4038403F631408146311
:1006C00003047804036159494D43007F41414102CD
:1006D00004081020004141417F040201020440400F
:1006E000404040000307080020545478407F2844CD
:1006F00044383844444428384444287F38545454B7
:100700001800087E090218A4A49C787F08040478C5
:1007100000447D40002040403D007F102844000000
:10072000417F40007C047804787C080404783844D5
:10073000444438FC1824241818242418FC7C080489
:100740000408485454542404043F44243C404020AA
:100750007C1C2040201C3C4030403C442810284455
:100760004C9090907C4464544C4400083641000006
:1007700000770000004136080002010204023C2616
:1007800023263C1EA1A161123A4040207A385454DD
:100790005559215555794122545478422155547860
:1007A0004020545579400C1E5272123955555559F6
:1007B000395454545939555454580000457C41001B
:1007C00002457D420001457C407D1211127DF028DA
:1007D0002528F07C545545002054547C547C0A094B
:1007E0007F4932494949323A4444443A324A4848B6
:1007F000303A4141217A3A42402078009DA0A07DC4
:100800003D4242423D3D4040403D3C24FF2424487F
:100810007E4943662B2FFC2F2BFF0929F620C08829
:100820007E090320545479410000447D41304848FA
:100830004A32384040227A007A0A0A727D0D193114
:100840007D2629292F28262929292630484D402070
:10085000380808080808080808382F10C8ACBA2F4C
:10086000102834FA00007B000008142A14222214F5
:100870002A14085500550055AA55AA55AAFF55FF38
:1008800055FF000000FF00101010FF00141414FFAB
:10089000001010FF00FF1010F010F0141414FC00F2
:1008A0001414F700FF0000FF00FF1414F404FC14FC
:1008B0001417101F10101F101F1414141F001010F5
:1008C00010F0000000001F101010101F101010106A
:1008D000F010000000FF101010101010101010FF8A
:1008E00010000000FF140000FF00FF00001F1017A1
:1008F0000000FC04F414141710171414F404F4008A
:1009000000FF00F714141414141414F700F714144F
:1009100014171410101F101F141414F4141010F0D6
:1009200010F000001F101F0000001F14000000FC4A
:10093000140000F010F01010FF10FF141414FF1436
:100940001010101F00000000F010FFFFFFFFFFF06D
:10095000F0F0F0F0FFFFFF0000000000FFFF0F0FBE
:100960000F0F0F3844443844FC4A4A4A347E02028E
:100970000606027E027E0263554941633844443CC8
:1009800004407E201E2006027E020299A5E7A5995A
:100990001C2A492A1C4C7201724C304A4D4D303091
:1009A00048784830BC625A463D3E494949007E017C
:1009B00001017E2A2A2A2A2A44445F444440514A9B
:1009C000444040444A51400000FF0103E080FF00E2
:1009D0000008086B6B083612362436060F090F061E
:1009E000000018180000001010003040FF01010046
:1009F0001F01011E00191D1712003C3C3C3C000069
:100A000000000000000008000201000003040700CD
:100A100000000000000000010204081020408001D6
:100A20000204081020010204081020040404040435
:100A3000040404020202020202030303030303008C
:100A400000000023002600290000000000250028E7
:100A5000002B0000000000240027002A0000B3172C
:100A60007D1B4B2F983411241FBECFEFD8E0DEBF83
:100A7000CDBF15E0A0E0B1E0E6E1F2E702C00590ED
:100A80000D92A83CB107D9F727E0A8ECB5E001C06A
:100A90001D92AA3AB207E1F71AE0C6E6DAE004C00E
:100AA0002297FE010E94D438CE35D107C9F70E94A3
:100AB00027360C9409390C940000A6EFB5E020E02D
:100AC000FC013491332331F02E3121F03D93019616
:100AD0002F5FF6CFE22FF0E0EA50FA4F308386EF37
:100AE00095E008952FEFFC0122831082089588EC91
:100AF00095E00E94D82740E050E060E070E088EC8C
:100B000095E00E94652E61E088EC95E00E946B2ED6
:100B100061E070E088EC95E00C94712ECF92DF924A
:100B2000EF92FF920F931F93CF93DF936C01EB0132
:100B300021E04CE362E088EC95E00E94532888ECC9
:100B400095E00E94882960ED77E080E090E00E94C7
:100B50009331C6010E947705E091C805F091C9055F
:100B6000C684D78488EC95E00E94802EEE24E3941E
:100B7000F12C0BE010E09C0140E050E060E070E000
:100B800088EC95E0F601099560E070E088EC95E06E
:100B90000E94712E88EC95E00E94802EBC016C535F
:100BA000710977FF02C06F5F7F4F7595679542E0CF
:100BB00050E088EC95E00E94652E88ED93E00E945D
:100BC0005D05BC0188EC95E00E94193561E070E09C
:100BD00088EC95E00E94712E4CE050E060E070E0FF
:100BE00088EC95E00E94652E81ED93E00E945D0502
:100BF000BC0188EC95E00E94193588EC95E00E94D4
:100C0000802EBC016C5071094CE050E088EC95E0FE
:100C10000E94652E8EEC93E00E945D05BC0188EC7D
:100C200095E00E94193544E150E060E070E088EC06
:100C300095E00E94652E88EC95E00E94882983EC5F
:100C400093E00E945D05BC0188EC95E00E94193597
:100C500088EC95E00E9488296AEF70E080E090E0DF
:100C60000E94933188EC95E00E94802EBC01605375
:100C7000710944E150E088EC95E00E94652E85E121
:100C80000E94133205971CF08AEB93E002C081EBBF
:100C900093E00E945D05BC0188EC95E00E94193547
:100CA00088EC95E00E94802EFE0101900020E9F77B
:100CB0003197EC1BFD0B4CE04E9F90014F9F300D88
:100CC0001124BC01621B730B7695679544E250E0DA
:100CD00088EC95E00E94652E62E088EC95E00E9429
:100CE0006B2EBE0188EC95E00E94193588EC95E0EA
:100CF0000E94882962EE74E080E090E00E949331C7
:100D000080E0DF91CF911F910F91FF90EF90DF90E6
:100D1000CF900895CF92DF92EF92FF920F931F939F
:100D2000CF93DF93EB01E091C805F091C905C4842E
:100D3000D58488EC95E00E94842E8C0188EC95E0A7
:100D40000E94802EEE24E394F12C9C0140E050E0C0
:100D500060E070E088EC95E0F6010995E091C80547
:100D6000F091C905C684D78488EC95E00E94802E56
:100D70000BE010E09C0140E050E060E070E088ECA7
:100D800095E0F601099561E088EC95E00E946B2EF4
:100D900060E070E088EC95E00E94712E88EC95E0B0
:100DA0000E94802EFE0101900020E9F73197EC1B94
:100DB000FD0B46E04E9F90014F9F300D1124BC016A
:100DC000621B730B7695679542E050E088EC95E0E6
:100DD0000E94652EBE0188EC95E00E94193561E005
:100DE00070E088EC95E0DF91CF911F910F91FF901B
:100DF000EF90DF90CF900C94712EDF92EF92FF92E4
:100E00000F931F93CF93DF93EC01D62E0E947705AB
:100E100082EA93E00E945D05BC01CE010E948A0631
:100E2000E091C805F091C905C685D78588EC95E0A5
:100E30000E94802E2AE0D29EA0011124445F5F4FC1
:100E4000EE24E394F12C0AE010E09C0160E070E0F5
:100E500088EC95E0FE010995C1E0D0E0D11002C018
:100E6000C0E0D0E0BE0188EC95E00E94712E4DE01C
:100E700050E065E070E088EC95E00E94652E87E91F
:100E800093E00E945D05BC0188EC95E00E94193555
:100E90008DE893E00E945D05BC0188EC95E00E941E
:100EA0001935E091C805F091C9050190F081E02D58
:100EB00068E188EC95E00995BE0188EC95E00E9418
:100EC000712E47E150E065E070E088EC95E00E940B
:100ED000652E8BE893E00E945D05BC0188EC95E0EF
:100EE0000E94193588EC95E0DF91CF911F910F9109
:100EF000FF90EF90DF900C948829DF92EF92FF92A1
:100F00000F931F93CF93DF93EC01D62E0E947705AA
:100F10008CE793E00E945D05BC01CE010E948A0629
:100F2000E091C805F091C905C685D78588EC95E0A4
:100F30000E94802E2AE0D29EA0011124445F5F4FC0
:100F4000EE24E394F12C0AE010E09C0160E070E0F4
:100F500088EC95E0FE01099561E070E0D11002C0D7
:100F600060E070E088EC95E00E94712E4DE050E06A
:100F700065E070E088EC95E00E94652E82E793E0E2
:100F80000E945D05BC0188EC95E00E94193561E086
:100F900070E0F1E0DF1202C060E070E088EC95E004
:100FA0000E94712E47E150E065E070E088EC95E02A
:100FB0000E94652E85E693E00E945D05BC0188ECE9
:100FC00095E00E94193561E070E022E0D21202C083
:100FD00060E070E088EC95E00E94712E41E250E004
:100FE00065E070E088EC95E00E94652E89E593E06D
:100FF0000E945D05BC0188EC95E00E94193585E1F1
:101000000E9413320597E4F061E070E083E0D812AB
:1010100002C060E070E088EC95E00E94712E4BE227
:1010200050E065E070E088EC95E00E94652E8FE46A
:1010300093E00E945D05BC0188EC95E00E941935A3
:1010400061E070E0E4E0DE1202C060E070E088EC95
:1010500095E00E94712E45E350E065E070E088EC79
:1010600095E00E94652E85E493E00E945D05BC0139
:1010700088EC95E00E9419358BE393E00E945D05B2
:10108000BC0188EC95E00E941935E091C805F0910B
:10109000C9050190F081E02D69E188EC95E00995A2
:1010A00088EC95E0DF91CF911F910F91FF90EF9029
:1010B000DF900C948829AF92BF92CF92DF92EF928B
:1010C000FF920F931F93CF93DF931F92CDB7DEB79D
:1010D0008C018FEFF8018283C80169830E94770534
:1010E0006981693019F48DE293E009C0633019F425
:1010F00081E293E004C0613041F482E193E00E9418
:101100005D05BC01C8010E948A0661E070E088ECC0
:1011100095E00E94712EE091C805F091C905C68046
:10112000D78088EC95E00E94802EEE24E394F12C89
:1011300004E110E09C0144E150E060E070E088ECE4
:1011400095E0F6010995E091C805F091C905C680C2
:10115000D78088EC95E00E94802E00E210E09C0190
:1011600040E250E060E070E088EC95E0F60109951F
:101170004CE050E065E070E088EC95E00E94652E60
:10118000E091C805F091C9050680F781E02D04E1E2
:1011900010E021E630E04BE050E061E670E088ECE2
:1011A00095E009958CE093E00E945D05BC0188EC18
:1011B00095E00E94193511E3A8E0CA2ED12C47E131
:1011C00050E0B60188EC95E00E94652E612F88EC16
:1011D00095E00E941B35FFE0CF0ED11C1F5F193335
:1011E00071F7E091C805F091C905C680D78088ECF9
:1011F00095E00E94802EEE24E394F12C04E210E0AE
:101200009C0144E250E060E070E088EC95E0F6017B
:101210000995E091C805F091C905A680B78088ECD2
:1012200095E00E94842E8C0188EC95E00E94802E2F
:101230006C0188EC95E00E94842E0B501109AC01E2
:101240004B505109960160E070E088EC95E0F501A3
:10125000099588EC95E00E94842EAC014950510913
:1012600062E070E088EC95E00E94652E87E093E0F4
:101270000E945D05BC0188EC95E00E94193588EC60
:1012800095E00E94842EAC014950510967E370E05B
:1012900088EC95E00E94652E82E093E00E945D0557
:1012A000BC0188EC95E00E94193588EC95E00E941D
:1012B000842E8C0188EC95E00E94802EA801495074
:1012C0005109BC016951710988EC95E00E94652EB5
:1012D0008DEF92E00E945D05BC0188EC95E00E94D4
:1012E000193588EC95E00F90DF91CF911F910F9108
:1012F000FF90EF90DF90CF90BF90AF900C94882933
:10130000FF920F931F93CF93DF93EC018B01F42E89
:101310000E94770588EE92E00E945D05BC01CE0137
:101320000E948A0661E070E088EC95E00E94712ED0
:101330004CE050E065E070E088EC95E00E94652E9E
:101340008AED92E00E945D05BC0188EC95E00E9468
:1013500019354CE050E065E570E088EC95E00E94BE
:10136000652E4AE050E0B80188EC95E00E94D73540
:1013700044E150E065E070E088EC95E00E94652E65
:101380008DEC92E00E945D05BC0188EC95E00E9426
:10139000193544E150E065E570E088EC95E00E9485
:1013A000652E4AE050E06F2D88EC95E00E94D03524
:1013B00088EC95E00E94802E8254910997FD019659
:1013C000BC017595679544E350E088EC95E00E9478
:1013D000652E8FEB92E00E945D05BC0188EC95E0E4
:1013E0000E94193588EC95E0DF91CF911F910F9104
:1013F000FF900C9488291F93CF93DF93EC01162F55
:101400000E9477058AEA92E00E945D05BC01CE0148
:101410000E948A0665E088EC95E00E946B2E61E0F0
:1014200070E088EC95E00E94712E44E150E064E1A8
:1014300070E088EC95E00E94652E4AE050E0612F54
:1014400088EC95E00E94D03588EC95E00E948829D0
:10145000CE010E947705CE01DF91CF911F910C94B0
:1014600077051F93CF93DF93EC01162F0E9477052A
:101470008DE992E00E945D05BC01CE010E948A06C2
:1014800061E088EC95E00E946B2E61E070E088ECF2
:1014900095E00E94712E44E150E065E070E088EC38
:1014A00095E00E94652E88E892E00E945D05BC01EF
:1014B00088EC95E00E94193588EC95E00E94802E1A
:1014C0008254910997FD0196BC017595679544E298
:1014D00050E088EC95E00E94652E8AE792E00E9439
:1014E0005D05BC0188EC95E00E9419354AE050E0AA
:1014F000612F88EC95E00E94D03588EC95E00E9441
:101500008829CE010E947705CE010E9477056CEDF7
:1015100075E080E090E0DF91CF911F910C949331C2
:10152000CF93DF93EC010E94770580E792E00E9461
:101530005D05BC01CE010E948A0663E088EC95E05F
:101540000E946B2E61E070E088EC95E00E94712EA5
:1015500044E150E064E170E088EC95E00E94652E83
:101560006EE575E088EC95E00E94193588EC95E011
:10157000DF91CF910C948829AF92BF92CF92DF92E6
:10158000EF92FF920F931F93CF93DF931F92CDB7EC
:10159000DEB78C018FEFF8018283C80169830E9456
:1015A00077056981693019F485E692E004C06130FD
:1015B00041F486E592E00E945D05BC01C8010E94ED
:1015C0008A0661E070E088EC95E00E94712EE0915F
:1015D000C805F091C905C680D78088EC95E00E94C7
:1015E000802EEE24E394F12C04E110E09C0144E110
:1015F00050E060E070E088EC95E0F6010995E0913C
:10160000C805F091C905C680D78088EC95E00E9496
:10161000802E00E210E09C0140E250E060E070E0CB
:1016200088EC95E0F60109954CE050E065E070E04B
:1016300088EC95E00E94652EE091C805F091C905FF
:101640000680F781E02D04E110E021E630E04BE078
:1016500050E061E670E088EC95E0099580E592E065
:101660000E945D05BC0188EC95E00E94193511E3EC
:1016700048E0C42ED12C47E150E0B60188EC95E05B
:101680000E94652E612F88EC95E00E941B35FFE0DB
:10169000CF0ED11C1F5F193371F7E091C805F0918F
:1016A000C905C680D78088EC95E00E94802EEE2484
:1016B000E394F12C04E210E09C0144E250E060E08D
:1016C00070E088EC95E0F6010995E091C805F0918D
:1016D000C905A680B78088EC95E00E94842E8C0115
:1016E00088EC95E00E94802E6C0188EC95E00E94C9
:1016F000842E0B501109AC014B505109960160E04A
:1017000070E088EC95E0F501099588EC95E00E9481
:10171000842EAC014950510962E070E088EC95E0FC
:101720000E94652E8BE492E00E945D05BC0188EC6E
:1017300095E00E94193588EC95E00E94842EAC015A
:101740004950510967E370E088EC95E00E94652EEE
:1017500086E492E00E945D05BC0188EC95E00E9461
:10176000193588EC95E00E94842E8C0188EC95E078
:101770000E94802EA80149505109BC01695171098C
:1017800088EC95E00E94652E81E492E00E945D0560
:10179000BC0188EC95E00E94193588EC95E00F902B
:1017A000DF91CF911F910F91FF90EF90DF90CF903D
:1017B000BF90AF900C9488292F923F924F925F92E6
:1017C0006F927F928F929F92AF92BF92CF92DF9251
:1017D000EF92FF920F931F93CF93DF9300D000D02F
:1017E000CDB7DEB71C016983142F922EB02E2701CE
:1017F000CA828A2CFC018281281709F49DC08217B5
:1018000010F483E001C08FEF80930B0140E050E0C3
:1018100061E070E088EC95E00E94772E4CE050E0AB
:1018200064E270E088EC95E00E94652E183218F0B2
:1018300087E392E016C0103218F08DE292E011C0FA
:10184000183118F083E292E00CC0103118F089E1F1
:1018500092E007C0183018F08FE092E002C085E0F7
:1018600092E00E945D05BC0188EC95E00E9419356C
:10187000812F8770B4E06B2E712C1C821B82C82EC6
:10188000D12CE091C805F091C905EE24E394F12C28
:101890008B819C818C159D0511F0E12CF12C068427
:1018A000F785E02D0BE010E02EE030E045E150E060
:1018B000B30188EC95E0099561E070E0EB81FC8173
:1018C000EC15FD0511F460E070E088EC95E00E94F5
:1018D000712EB3016C5F7F4F47E150E088EC95E0DB
:1018E0000E94652E6B816F5C88EC95E00E941B3531
:1018F0008B819C8101969C838B839FE0690E711C78
:10190000EB81FC81389709F0BCCF4CE050E065E6F4
:1019100070E088EC95E00E94652E40E050E061E0C8
:1019200070E088EC95E00E94772E4AE050E0B2012A
:1019300088EC95E00E94D73588EC95E00E94802ED7
:101940004B2C512C612C712C0397AA2797FDA09545
:10195000BA2FBF93AF939F938F93A12CB12C6501A6
:10196000A39414E6E12EF12C00E010E021E030E039
:1019700040E050E0C301B2010E94DD35A62EE091A7
:10198000C805F091C905C684D78488EC95E00E940B
:10199000802EB12C9C01235031092A193B09B50135
:1019A0006F5F7F4FE12CF12C03E010E041E250E04B
:1019B00088EC95E0F6010995E091C805F091C9051C
:1019C0000684F785E02DEE24E394F12C950141E2A5
:1019D00050E061E070E088EC95E009951F921F925D
:1019E0001F92FEE0FF93A12CB12C6501A39414E695
:1019F000E12EF12C00E010E021E030E040E050E08A
:101A0000C301B2010E94DD35E091C805F091C9051E
:101A100066847784C62ED12C88EC95E00E94842EB3
:101A200023E0929E50011124E4E0AE0EB11C0EE0C2
:101A300010E00C191D09AC014A515109E12CF12C9F
:101A400022E030E0B50188EC95E0F3010995E091E2
:101A5000C805F091C9056684778488EC95E00E94FA
:101A6000842EAC014C5051094C195D09EE24E394CD
:101A7000F12C860122E030E0B50188EC95E0F3011D
:101A800009950FB6F894DEBF0FBECDBF9981913096
:101A900009F005C1E091C805F091C905C684D78455
:101AA00088EC95E00E94842EAC014A515109E5E092
:101AB0009E9EB0011124759567956C5F7F4F809154
:101AC0000B01680F711D87FD7A95E12CF12C0EE05A
:101AD00010E021E030E088EC95E0F6010995FA810C
:101AE0006F2F70E080E090E01F921F921F922EE017
:101AF0002F93A12CB12C6501A39414E6E12EF12CB7
:101B000000E010E021E030E040E050E00E94DD35F0
:101B1000A62EE091C805F091C905C684D78488EC4B
:101B200095E00E94842EAC014A515109E12CF12C20
:101B30000EE010E022E030E061E070E088EC95E03B
:101B4000F6010995E091C805F091C905C680D780D6
:101B500088EC95E00E94842EB12C8C010C50110968
:101B60000A191B0988EC95E00E94842EAC014C50A8
:101B700051094A195B09EE24E394F12C22E030E08C
:101B800061E070E088EC95E0F6010995E091C80508
:101B9000F091C905C684D78488EC95E00E94842E14
:101BA0008C0188EC95E00E94802EA8014A515109D1
:101BB000BC0163507109E12CF12C0EE010E022E031
:101BC00030E088EC95E0F6010995E091C805F091C8
:101BD000C905C680D78088EC95E00E94842E8C01D0
:101BE0000C5011090A191B0988EC95E00E94802EFF
:101BF0003C0188EC95E00E94842E0C972C014A1839
:101C00005B0888EC95E00E94802EBC01635071094E
:101C1000EE24E394F12C9301A20188EC95E0F60107
:101C200009950F900F900F900F9041E050E060E009
:101C300070E088EC95E08820B1F00E94772E88EC67
:101C400095E00E94802E8455910997FD0196BC0174
:101C50007595679542E050E088EC95E00E94652E0E
:101C600086EF91E015C00E94772E88EC95E00E94E7
:101C7000802E8455910997FD0196BC017595679555
:101C800042E050E088EC95E00E94652E87EE91E0FE
:101C90000E945D05BC0188EC95E00E941935F101B8
:101CA000928288EC95E00F900F900F900F90DF914B
:101CB000CF911F910F91FF90EF90DF90CF90BF9049
:101CC000AF909F908F907F906F905F904F903F90DC
:101CD0002F900C948829AF92BF92CF92DF92EF920F
:101CE000FF920F931F93CF93DF931F92CDB7DEB771
:101CF0008C0169830E947705F80111826981623045
:101D000099F48AED91E00E945D05BC01C8010E9432
:101D10008A064CE050E065E070E088EC95E00E94B7
:101D2000652E84ED91E012C089EC91E00E945D0582
:101D3000BC01C8010E948A064CE050E065E070E0FA
:101D400088EC95E00E94652E8BEB91E00E945D058A
:101D5000BC0188EC95E00E941935E091C805F0912E
:101D6000C905C680D78088EC95E00E94802EEE24BD
:101D7000E394F12C04E110E09C0144E150E060E0C8
:101D800070E088EC95E0F6010995E091C805F091C6
:101D9000C905A680B78088EC95E00E94842E8C014E
:101DA00088EC95E00E94802E6C0188EC95E00E9402
:101DB000842E0B501109AC014B505109960160E083
:101DC00070E088EC95E0F501099588EC95E00E94BB
:101DD000842EAC014950510962E070E088EC95E036
:101DE0000E94652E86EB91E00E945D05BC0188ECA7
:101DF00095E00E94193588EC95E00E94842EAC0194
:101E00004950510967E370E088EC95E00E94652E27
:101E100081EB91E00E945D05BC0188EC95E00E9499
:101E2000193588EC95E00E94842E8C0188EC95E0B1
:101E30000E94802EA80149505109BC0169517109C5
:101E400088EC95E00E94652E8CEA91E00E945D0589
:101E5000BC0188EC95E00E94193588EC95E00F9064
:101E6000DF91CF911F910F91FF90EF90DF90CF9076
:101E7000BF90AF900C9488292F923F924F925F921F
:101E80006F927F928F929F92AF92BF92CF92DF928A
:101E9000EF92FF920F931F93CF93DF93CDB7DEB7EF
:101EA0002A970FB6F894DEBF0FBECDBF2C01662E69
:101EB000842E922E702EFC82EB82DE82CD82B8863A
:101EC000AF82622F70E080E090E01F921F921F921D
:101ED0002EE12F93A12CB12C6501A39414E6E12EE1
:101EE000F12C00E010E021E030E040E050E00E9402
:101EF000DD35C62E88EC95E00E94842E5C010F90A3
:101F00000F900F900F90D20112968C91881609F4C1
:101F10005BC0D12CE091C805F091C90526853785B5
:101F20003A83298388EC95E00E94842EE5E08E9E1A
:101F3000D0011124B595A795BA87A9871D01F4E0B2
:101F40002F0E311C0EE110E00C191D09AC014A5294
:101F50005109E12CF12C22E030E0B10188EC95E050
:101F6000E981FA810995E091C805F091C905A501BB
:101F70004C5051094C195D090684F785E02DEE247B
:101F8000E394F12C860122E030E0B10188EC95E089
:101F90000995E091C805F091C905C684D78488ECFD
:101FA00095E00E94842EAC014A52510969857A85D8
:101FB000695F7F4FE12CF12C0EE110E021E030E071
:101FC00088EC95E0F6010995611042C0F0E5F9153D
:101FD00008F090C0D20111968C911197891530F5B7
:101FE00011969C9240E050E061E070E088EC95E052
:101FF0000E94772E4CE050E064E270E088EC95E0BF
:102000000E94652E40E150E0672D88EC95E00E942B
:10201000D0354CE050E064E370E088EC95E00E943D
:10202000652E4AE050E06B817C8160C000910A011E
:1020300010E0075F1F4F88EC95E00E94802E0C9700
:10204000081719070CF456C08CE380930A0152C09C
:102050004CE050E06EE170E088EC95E00E94652E67
:1020600040E050E061E070E088EC95E00E94772E5F
:1020700088EA91E00E945D05BC0188EC95E00E9431
:1020800019354CE050E06EE170E088EC95E00E947C
:10209000652E4AE050E06D817E8188EC95E00E94DB
:1020A000D7354CE050E065E570E088EC95E00E94A3
:1020B000652E40E050E061E070E088EC95E00E9421
:1020C000772E4CE050E065E570E088EC95E00E94EA
:1020D000652E84EA91E00E945D05BC0188EC95E0E4
:1020E0000E9419354AE050E06F81788588EC95E0D0
:1020F0000E94D73588EC95E00E948829F2018282FF
:102100002A960FB6F894DEBF0FBECDBFDF91CF91F8
:102110001F910F91FF90EF90DF90CF90BF90AF9005
:102120009F908F907F906F905F904F903F902F90F7
:102130000895EF92FF920F931F93CF93DF93F62EA4
:10214000E42EE9010E94770566E088EC95E00E94A4
:102150006B2E61E070E088EC95E00E94712E40E00B
:1021600050E060E070E088EC95E00E94652E40E170
:1021700050E06E2D88EC95E00E94D03561E088EC4F
:1021800095E00E946B2E40E050E066E470E088EC41
:1021900095E00E94652EB80188EC95E00E94193503
:1021A00062E088EC95E00E946B2E4CE150E066E422
:1021B00070E088EC95E00E94652E61E070E088ECAC
:1021C00095E00E94712E4AE050E0BE0188EC95E057
:1021D0000E94D73561E088EC95E00E946B2E85E186
:1021E0000E94133205970CF484C042E150E066E48B
:1021F00070E088EC95E00E94652E81E0F81659F0B9
:10220000F81630F0E2E0FE120FC08BE891E005C056
:102210008FE991E002C085E991E00E945D05BC0173
:1022200088EC95E00E94193541E050E060E070E0F4
:1022300088EC95E00E94772EE091C805F091C905E1
:10224000C685D78588EC95E00E94842EAC01435169
:102250005109EE24E394F12C09E010E027E030E08E
:1022600060E070E088EC95E0FE01099588EC95E06F
:102270000E94842EAC014251510961E070E088EC6B
:1022800095E00E94652E64E675E088EC95E00E947A
:10229000193541E050E060E070E088EC95E00E9484
:1022A000772EE091C805F091C905C685D78588ECE1
:1022B00095E00E94842EAC014950510927E030E09E
:1022C00060E070E088EC95E0FE01099588EC95E00F
:1022D0000E94842EAC014850510961E070E088EC06
:1022E00095E00E94652E66E675E088EC95E00E9418
:1022F000193588EC95E0DF91CF911F910F91FF90F8
:10230000EF900C9488297F928F929F92AF92BF9208
:10231000CF92DF92EF92FF920F931F93CF93DF93B1
:102320001F92CDB7DEB7762E842E902E85E12983BD
:102330000E941332298105970CF4DDC0622F70E0F2
:1023400080E090E01F921F921F9227E72F9343E0B7
:10235000A42EB12CC12CD12C14E6E12EF12C00E0DE
:1023600010E021E030E040E050E00E94DD35E091F7
:10237000C805F091C905A684B784C62ED12C88EC77
:1023800095E00E94842E27E730E02C193D09AC012E
:1023900043515109B601695F7F4FE12CF12C09E0EF
:1023A00010E088EC95E0F50109950F900F900F90E3
:1023B0000F90E091C805F091C90581E0A684B7842B
:1023C0007816C9F088EC95E00E94842EAC01435148
:1023D0005109E12CF12C09E010E027E730E067E03B
:1023E00070E088EC95E0F5010995E091C805F09161
:1023F000C905A484B58488EC95E00E94842EAC01C4
:1024000043515109EE24E394F12C960167E070E00A
:1024100088EC95E0F5010995692D70E080E090E089
:102420001F921F921F9227E72F9323E0A22EB12C19
:10243000C12CD12C14E6E12EF12C00E010E021E0BB
:1024400030E040E050E00E94DD35E091C805F091B9
:10245000C905A684B784C62ED12C88EC95E00E94CD
:10246000842E27E730E02C193D09AC014950510971
:10247000B601695F7F4FE12CF12C09E010E088EC98
:1024800095E0F50109950F900F900F900F90E09156
:10249000C805F091C90582E0A684B7847816C9F012
:1024A00088EC95E00E94842EAC0149505109E12C42
:1024B000F12C09E010E027E730E067E070E088ECFD
:1024C00095E0F5010995E091C805F091C905A4844E
:1024D000B58488EC95E00E94842EAC0149505109E6
:1024E000EE24E394F12C960167E070E088EC95E02F
:1024F000F501099589C060E070E088EC95E00E94E4
:10250000712EE091C805F091C905C684D78488EC86
:1025100095E00E94842EAC0143515109EE24E394CE
:10252000F12C03E110E029E130E060E070E088EC9C
:1025300095E0F601099588EC95E00E94842EAC01A7
:102540004D50510961E070E088EC95E00E94652EE5
:1025500086E891E00E945D05BC0188EC95E00E9450
:102560001935882D90E0A0E0B0E01F921F921F92D5
:1025700025E62F93A12CB12C6501A39414E6E12E3E
:10258000F12C00E010E021E030E040E050E0BC0140
:10259000CD010E94DD35E091C805F091C905A68402
:1025A000B784C62ED12C88EC95E00E94842E25E6B7
:1025B00030E02C193D09AC0143515109B601675E69
:1025C0007F4FE12CF12C03E110E088EC95E0F50160
:1025D0000995E091C805F091C905A684B78488ECF7
:1025E00095E00E94842EAC0143515109EE24E394FE
:1025F000F12C960169E170E088EC95E0F501099510
:102600000F900F900F900F90F3E1F81578F10E9462
:1026100064312AEF30E040E050E00E94723821E05F
:1026200030E06D3771058105910510F020E030E054
:1026300040E050E0B90188EC95E00E94772E88ECEC
:1026400095E00E94842EAC014D50510962E370E088
:1026500088EC95E00E94652E8BE791E00E945D0575
:10266000BC0188EC95E00E94193523C085E10E94E9
:1026700013320597F4F0E091C805F091C905C680C2
:10268000D78088EC95E00E94842E8C0188EC95E040
:102690000E94842E0A501109AC014A505109E12CC4
:1026A000F12C2EE630E062E370E088EC95E0F60174
:1026B000099588EC95E00F90DF91CF911F910F91D4
:1026C000FF90EF90DF90CF90BF90AF909F908F9052
:1026D0007F900C948829CF92DF92EF92FF920F9314
:1026E0001F93CF93DF93EC01D62E0E94770581E7ED
:1026F00091E00E945D05BC01CE010E948A06E09136
:10270000C805F091C905C685D78588EC95E00E947B
:10271000802E2AE0D29EA0011124445F5F4FEE2458
:10272000E394F12C0AE010E09C0160E070E088EC9A
:1027300095E0FE01099561E070E0D11002C060E013
:1027400070E088EC95E00E94712E4DE050E065E06D
:1027500070E088EC95E00E94652E8CE691E00E9486
:102760005D05BC0188EC95E00E94193561E070E0E0
:10277000F1E0DF1202C060E070E088EC95E00E94BA
:10278000712E47E150E065E070E088EC95E00E9432
:10279000652E81E691E00E945D05BC0188EC95E024
:1027A0000E94193561E070E022E0D21202C060E0C0
:1027B00070E088EC95E00E94712E41E250E065E007
:1027C00070E088EC95E00E94652E86E591E00E941D
:1027D0005D05BC0188EC95E00E94193561E070E070
:1027E00088EC95E00E94712EE091C805F091C90532
:1027F000C485D58588EC95E00E94802E6C0188EC1C
:1028000095E00E94842EAC0145515109EE24E394D9
:10281000F12C0BE010E0960160E070E088EC95E0B0
:10282000FE01099588EC95E00E94842EAC0143518D
:10283000510965E070E088EC95E00E94652E68E63D
:1028400075E088EC95E00E94193588EC95E00E94CF
:10285000842EAC014950510965E070E088EC95E0A8
:102860000E94652E6BE675E088EC95E00E941935B4
:1028700088EC95E0DF91CF911F910F91FF90EF9041
:10288000DF90CF900C948829AF92BF92CF92DF92C5
:10289000EF92FF920F931F93CF93DF93C62FD22F08
:1028A000642F70E080E090E01F921F921F922CE650
:1028B0002F93A12CB12C6501A39414E6E12EF12CE9
:1028C00000E010E021E030E040E050E00E94DD3523
:1028D000E091C805F091C905A684B784C62ED12C15
:1028E00088EC95E00E94842E2CE630E02C193D09FE
:1028F000AC0143515109B6016E5E7F4FE12CF12CC2
:1029000007E010E088EC95E0F50109950F900F9035
:102910000F900F90E091C805F091C905A684B78487
:1029200088EC95E0C130C1F00E94842EAC01435187
:102930005109E12CF12C07E010E0960162E170E012
:1029400088EC95E0F5010995E091C805F091C9057D
:10295000A484B58488EC95E00E94842EAC01435198
:102960005109EE24E394F12C960162E170E088ECC9
:1029700095E0F50109956D2F70E080E090E01F92E1
:102980001F921F922CE62F93A12CB12C6501A394CA
:1029900014E6E12EF12C00E010E021E030E040E010
:1029A00050E00E94DD35E091C805F091C905A6848C
:1029B000B784C62ED12C88EC95E00E94842E2CE69C
:1029C00030E02C193D09AC0149505109B6016E5E49
:1029D0007F4FE12CF12C07E010E088EC95E0F50149
:1029E00009950F900F900F900F90E091C805F0910E
:1029F000C905C23019F4C685D7851AC0C685D785E2
:102A000088EC95E00E94842EAC0149505109E12CDC
:102A1000F12C07E010E0960162E170E088EC95E0AF
:102A2000FE010995E091C805F091C905C485D585D9
:102A300088EC95E00E94842EAC0149505109EE24A7
:102A4000E394F12C960162E170E088EC95E0FE01E0
:102A5000099588EC95E0DF91CF911F910F91FF9040
:102A6000EF90DF90CF90BF90AF900C94882908959D
:102A70008F929F92AF92BF92CF92DF92EF92FF928E
:102A80000F931F93CF93DF93EC01D62EB42EA22E7B
:102A9000902EC12E8E2C0E9477058BE491E00E942F
:102AA0005D05BC01CE010E948A06E091C805F09147
:102AB000C905C685D78588EC95E00E94802E2AE05E
:102AC000D29EA0011124445F5F4FEE24E394F12CC9
:102AD0000AE010E09C0160E070E088EC95E0FE0107
:102AE000099561E070E0D11002C060E070E088EC10
:102AF00095E00E94712E4DE050E065E070E088ECBA
:102B000095E00E94652E83E491E00E945D05BC0182
:102B100088EC95E00E941935AA2019F089E391E02C
:102B200002C08FE291E00E945D05BC0188EC95E057
:102B30000E94193561E070E0F1E0DF1202C060E050
:102B400070E088EC95E00E94712E47E150E065E06E
:102B500070E088EC95E00E94652E87E291E00E948B
:102B60005D05BC0188EC95E00E941935BB2019F089
:102B700083E291E002C08FE191E00E945D05BC011B
:102B800088EC95E00E94193561E070E022E0D212F5
:102B900002C060E070E088EC95E00E94712E41E296
:102BA00050E065E070E088EC95E00E94652E87E1DA
:102BB00091E00E945D05BC0188EC95E00E9419350A
:102BC00087FC4FC0E091C805F091C905C685D7853F
:102BD00088EC95E00E94802E9C012A523109E12C5C
:102BE000F12C08E010E041E250E069E270E088EC8E
:102BF00095E0FE010995A82CBB24A7FCB094E091B8
:102C0000C805F091C905282D86E02802B0011124DD
:102C1000625D7F4F0684F785E02DEE24E394F12C6E
:102C200027E030E041E250E088EC95E00995C92DBD
:102C3000DC2D00E010E061E070E00A151B0511F4E6
:102C400060E070E088EC95E00E94712E699188EC5C
:102C500095E00E941B350F5F1F4F0A30110559F791
:102C600006C0692D7C2D88EC95E00E94193561E045
:102C700070E093E0D91202C060E070E088EC95E06B
:102C80000E94712E4BE250E065E070E088EC95E028
:102C90000E94652E88E091E00E945D05BC0188ECF1
:102CA00095E00E94193561E070E0E4E0DE1202C0B8
:102CB00060E070E088EC95E00E94712E45E350E002
:102CC00065E070E088EC95E00E94652E8CEF90E066
:102CD0000E945D05BC0188EC95E00E94193588ECE6
:102CE00095E0DF91CF911F910F91FF90EF90DF90D2
:102CF000CF90BF90AF909F908F900C948829AF9207
:102D0000BF92CF92DF92EF92FF920F931F93CF93D8
:102D1000DF93EC01A62EB42E69010E9477058EEE9A
:102D200090E00E945D05BC01CE010E948A0661E030
:102D300070E088EC95E00E94712E4CE050E065E078
:102D400070E088EC95E00E94652E88EE90E00E948D
:102D50005D05BC0188EC95E00E9419354CE050E01F
:102D600066E270E088EC95E00E94652E82E0A8168D
:102D700089F08A1530F081E0A81218C081EC90E04B
:102D80000EC083E0A81649F089E0A8120FC08BECB2
:102D900090E005C08BED90E002C084ED90E00E94D1
:102DA0005D05BC0188EC95E00E94193544E150E0D6
:102DB00065E070E088EC95E00E94652E8BEB90E07A
:102DC0000E945D05BC0188EC95E00E94193544E144
:102DD00050E066E270E088EC95E00E94652E87E2A4
:102DE0008B1518F481EB90E01AC08FE18B1518F465
:102DF0008AEA90E014C087E18B1518F480EA90E02D
:102E00000EC08FE08B1518F48EE990E008C087E0C3
:102E10008B1518F48CE990E002C08AE990E00E94DA
:102E20005D05BC0188EC95E00E9419354CE150E04D
:102E300065E070E088EC95E00E94652E84E990E002
:102E40000E945D05BC0188EC95E00E9419354CE1BB
:102E500050E066E270E088EC95E00E94652E6B2DF4
:102E600067706F5F4AE050E088EC95E00E94D035D3
:102E70008DE9E8168FEFF80681F088E890E00E946F
:102E80005D05BC0188EC95E00E9419354AE050E0F0
:102E9000B70188EC95E00E94BB3544E250E065E064
:102EA00070E088EC95E00E94652E8AE790E00E9431
:102EB0005D05BC0188EC95E00E94193544E250E0C4
:102EC00066E270E088EC95E00E94652E4AE050E0F2
:102ED000B60188EC95E00E94D7354CE250E065E001
:102EE00070E088EC95E00E94652E84E790E00E94F7
:102EF0005D05BC0188EC95E00E9419354CE250E07C
:102F000066E270E088EC95E00E94652EB80188ECDE
:102F100095E00E94193588EC95E00E94802E82543D
:102F2000910997FD0196BC017595679544E350E0C2
:102F300088EC95E00E94652E88E690E00E945D0591
:102F4000BC0188EC95E00E94193588EC95E0DF9192
:102F5000CF911F910F91FF90EF90DF90CF90BF9096
:102F6000AF900C94882964E088EC95E00C94BF271E
:102F70000C94F3380C94FB38DC01ED91FC9101903A
:102F8000F081E02D0994CF93DF93EC0161E08DE0B7
:102F90000E94923280910D01882321F060E086E04A
:102FA0000E949232BE017695679580E090E00E9483
:102FB000933160E08DE00E94923261E086E0DF9123
:102FC000CF910C949232982FE3EEF3E080E02491BD
:102FD000291729F08F5F31968033C9F780E0089573
:102FE0000E9464312091310630913206621B730BCE
:102FF0006931710548F489E190E0861B970BBC01AB
:1030000080E090E00C9493310895CF93C82F60E056
:10301000813031F48FE00E94923261E08EE005C091
:103020008EE00E94923261E08FE00E949232C09363
:103030002401CF9108952F923F924F925F926F9209
:103040007F928F929F92AF92BF92CF92DF92EF9238
:10305000FF920F931F93CF93DF93382EA2E3FA2EA4
:1030600000E010E0C0E0D0E084E10E941332C80F1D
:10307000D91F85E10E941332080F191FFA94A1F796
:1030800022E330E0CE01B9010E945E38FB01C801A5
:10309000B9010E945E384B0180912201873061F5B1
:1030A0008091180190911901E817F90720F4F09325
:1030B0001901E093180180911601909117018E1764
:1030C0009F0720F4F0931701E093160180911001FF
:1030D000909111018816990620F490921101809226
:1030E000100180910E0190910F018815990520F42F
:1030F00090920F0180920E01E0901A01F0901B0156
:1031000000E010E020911C0130911D0140E050E0F2
:10311000BF01882777FD8095982F1F921F921F92DD
:10312000E4E62E2E2F92A12CB12C6501A3940E94CF
:10313000DD352B013C01EB01E0901201F090130111
:1031400000E010E0209114013091150140E050E0C2
:10315000B401882777FD8095982F1F921F921F92A8
:103160002F920E94DD354B015C018B018DB79EB71C
:1031700008960FB6F8949EBF0FBE8DBF9FEF391211
:103180005CC080913906882321F0823009F04DC05F
:103190004FC0B401882777FD8095982F0E9437375C
:1031A0006B017C01B201882777FD8095982F0E94E2
:1031B0003737A70196010E943736A70196010E9472
:1031C0009C3620E030E048EC52E40E94EB376B0183
:1031D0007C0120E030E0A9010E94E73718161CF4BA
:1031E000C701B60103C0C701B60190580E94043759
:1031F00064307105BCF0809138060C171D0724F46B
:10320000181654F4815006C0C017D1072CF487302B
:103210001CF48F5F8093380680913806882329F04C
:10322000873034F43090240105C03324339402C035
:1032300092E0392E832D0E94051881E0381629F07E
:1032400080912201873009F0E4011C161D063CF430
:10325000CE01C536D1052CF084E690E002C081E0B5
:1032600090E0DF91CF911F910F91FF90EF90DF9051
:10327000CF90BF90AF909F908F907F906F905F9016
:103280004F903F902F9008958FEF0C941B1860E0A3
:103290008CE00E94923281E090E00E94CD3161E0AA
:1032A0008AE00E94923281E090E00E94CD3161E09C
:1032B0008CE00E94923281E090E00E94CD3160E08B
:1032C0008CE00E94923281E090E00C94CD3160E07D
:1032D0008CE00E94923281E090E00E94CD3160E06B
:1032E0008AE00E94923281E090E00E94CD3161E05C
:1032F0008CE00E94923281E090E00E94CD3160E04B
:103300008CE00E94923281E090E00C94CD3181E01B
:1033100090E00E94CD3160E08BE00E94923281E02B
:1033200090E00C94CD3181E090E00E94CD3161E0DD
:103330008BE00E94923281E090E00C94CD311F939B
:10334000CF93DF93E82FF0E0EE0FFF1FED55FB4F1B
:10335000C591D4910E94931981E090E00E94CD31F3
:103360000E9487190E9467190E9467190E946719B5
:103370000E9447190E94671914E10E9467191150B1
:10338000E1F70E94931981E090E00E94CD310E9404
:1033900087190E9493190E9487190E9447190E9459
:1033A00067190E9467190E9467190E94471910E166
:1033B000C0FF03C00E94471902C00E946719D6953A
:1033C000C7951150A9F70E9467190E9467190E94BA
:1033D00067190E9467190E94931981E090E00E948A
:1033E000CD3160E08BE00E94923260E08CE00E9480
:1033F000923260E08AE0DF91CF911F910C9492327B
:103400000F931F93CF93DF9326E040E855E260E0EF
:1034100070E08DE097E00E94D43361E08DE00E947F
:10342000593261E08DE00E94923262E081E10E94B7
:10343000593261E086E00E94593261E086E00E94E4
:10344000923260E082E00E94593262E082E00E94A3
:10345000923260E083E00E94593262E083E00E9491
:10346000923260E084E00E94593262E084E00E947F
:10347000923260E085E00E94593262E085E00E946D
:10348000923261E08EE00E94593261E08FE00E944A
:10349000593281E00E94051861E08BE00E945932A8
:1034A00061E08AE00E94593261E08CE00E9459326A
:1034B00080E090E00E94B8178F3F09F058C061E0AB
:1034C00080E090E00E94BA1760E081E090E00E9406
:1034D000BA1760910D018BE090E00E94BA176091DD
:1034E0000C018CE090E00E94BA176AE582E090E05F
:1034F0000E94BA1760E083E090E00E94BA176CED7A
:1035000084E090E00E94BA1760E085E090E00E94BD
:10351000BA176EE675E089E196E00E94EC3809E1A1
:1035200016E0C4E1D0E0F80161918F01CE010E9464
:10353000BA172196CE31D105B1F76091390686E0F0
:1035400090E00E94BA176AE587E090E00E94BA17FF
:1035500060E088E090E00E94BA176CED89E090E0AE
:103560000E94BA1760E08AE090E00E94BA1780E0FB
:1035700090E00E94B8178093220181E090E00E94C1
:10358000B81780933B060E949F1980913B06809359
:1035900036068BE090E00E94B81791E0811101C0DF
:1035A00090E090930D018CE090E00E94B81791E0BC
:1035B000811101C090E090930C0109E116E0C4E193
:1035C000D0E0CE010E94B817F80181938F012196B7
:1035D000CE31D105B1F783E090E00E94B817C82F33
:1035E00082E090E00E94B8172C2F30E0322F222783
:1035F000282B30931D0120931C0185E090E00E9450
:10360000B817C82F84E090E00E94B8172C2F30E044
:10361000322F2227282B30931B0120931A0186E09A
:1036200090E00E94B8178093390688E090E00E94ED
:10363000B817C82F87E090E00E94B8172C2F30E011
:10364000322F2227282B30931501209314018AE072
:1036500090E00E94B817C82F89E090E00E94B81748
:103660002C2F30E0322F2227282B30931301209368
:10367000120181E08093260669E176E08DE396E011
:103680000E948E0518168CF48DE00E94C83261E00D
:10369000892B09F060E08DE00E94923264E670E0D0
:1036A00080E090E00E949331EFCF85E10E941332D9
:1036B000059714F41092390660E08DE0DF91CF9108
:1036C0001F910F910C94923220E030E0F901EE0F3F
:1036D000FF1FEB5DFE4F408151814F3F510539F493
:1036E0008F3F910521F0918380832CE030E02F5FA4
:1036F0003F4F2A30310554F308958DE396E00C9442
:1037000072051F93CF93DF9384E690E00E94C31766
:1037100064E670E080E090E00E94933184E690E0FF
:103720000E94C31762E070E08DE097E00E94BC1732
:1037300060913B0612E0160F8DE097E00E946F3318
:10374000C9E1D6E06991662361F0160F772767FD1E
:1037500070958DE097E00E94BC1786E0C332D807D1
:1037600089F763E070E08DE097E00E94BC17612F5D
:103770008DE097E0DF91CF911F910C946F336F92A2
:103780007F928F929F92AF92BF92CF92DF92EF92F1
:10379000FF920F931F93CF93DF931F92CDB7DEB7A6
:1037A00083E00E94C832892BB9F510922D06109241
:1037B0002E0610922F061092300682E390E00E94AF
:1037C000C31764E670E080E090E00E94933182E3EA
:1037D00090E00E94C31764E670E080E090E00E94F1
:1037E000933110E083E00E94C832892B19F41A301B
:1037F00009F08AC69091210180912201811103C0B4
:1038000081E0809322011A3008F406C686E0809396
:1038100022018FEF809320011092370685E00E94ED
:10382000C832892B19F486E0809322018091260604
:1038300060912201811105C080912001681709F46F
:10384000D6C110922606633009F48AC648F4613066
:1038500009F46AC0623009F0C6C16093210151C009
:10386000673021F1693009F498C1663009F0BBC1B5
:1038700060913B0681E090E00E94BA1760912101BF
:1038800080E090E00E94BA1760910D018BE090E01B
:103890000E94BA1760910C018CE090E00E94BA1768
:1038A00009E116E054E1E52EF12C56C0E2E3F0E028
:1038B000F0931D01E0931C014CE251E050931B0179
:1038C00040931A012CED30E0309319012093180138
:1038D0008AE590E09093170180931601F09315010B
:1038E000E09314015093130140931201309311019E
:1038F0002093100190930F0180930E0183E0809339
:10390000230610923C06E3EEF3E0E491E0933B06DD
:10391000109225061092240681E0809327068DE3FD
:1039200096E00E946B0E5FC180E5809323011092A8
:103930002506109224066093350610922D061092EB
:103940002E0610922F0610923006609122018DE310
:1039500096E00E945B0833C1F80161918F01C701B5
:103960000E94BA17FFEFEF1AFF0A2EE1E216F104E8
:1039700099F76091390686E090E00E94BA1780912D
:103980002001853009F467C080912101893009F454
:1039900062C080914D0190914E010E94B8178F3FF7
:1039A000E9F08CE690E00E94B817082F10E00A308A
:1039B00011051CF00F5F1F4F02C000E010E0F8017E
:1039C000EE0FFF1FE75CFE4F6FEF808191810E9439
:1039D000BA17602F8CE690E00E94BA17E12CF12C08
:1039E000F701EE0FFF1FE75CFE4F00811181C80158
:1039F0000E94B8178F3F69F460913B06C8010E948E
:103A0000BA176E2D8CE690E00E94BA172CE0E22ED9
:103A1000F12C8FEFE81AF80AEAE0EE16F10404F34D
:103A20008CE690E00E94B81740913B06E42FF0E04E
:103A3000EE0FFF1FED5BFB4F25913491E82EF12C2B
:103A4000FFEFEF1AFF0A09E116E0609121018DE313
:103A500096E00E947F16809120018530B1F440915C
:103A60003B06E42FF0E0EE0FFF1FED5BFB4F2591CF
:103A700034910DE9E02EFF24FA9409E116E06091FB
:103A800021018DE396E00E947F168091210189300B
:103A900009F068C0809120018F3F09F063C0E09178
:103AA0001406F0911506EE0FFF1FE75CFE4F6FEF57
:103AB000808191810E94BA17E0913B06F0E0EE0F01
:103AC000FF1FED5BFB4F65917491409114064F5FB2
:103AD0008DE396E00E94800910921706E5E2F1E07E
:103AE0008FEF90E08193919321E0E933F207D1F7D2
:103AF00009E311E0F12CF801819191918F010E946D
:103B0000B8178F3F21F090E00E94641BF394F1E01E
:103B10000D341F0781F709E311E0E5E2CE2EE1E065
:103B2000DE2EF6016081F2E0CF0ED11CF80181910A
:103B300091918F010E94BA1710921706F9E3CF16E0
:103B4000F1E0DF0671F784E690E00E94C31768EEAB
:103B500073E080E090E00E9493316F2D8DE396E05A
:103B60000E94310A15E084E690E00E94C31764E6E3
:103B700070E080E090E00E9493311150A1F768EB73
:103B80007BE080E090E00E9493318091210180935E
:103B9000220181E08093260626C00E946431609352
:103BA0002D0670932E0680932F0690933006409139
:103BB0001606609122018DE396E00E94BC0A809176
:103BC0002101823031F0893021F08091200187304D
:103BD00031F481E090E00E94B81780933B06809119
:103BE0002201809321018091220180932001809104
:103BF0002201883009F03EC080913B06E82FF0E0BA
:103C0000EE0FFF1FED5BFB4F25913491E82FF0E0A5
:103C1000ED5EFB4F449109E116E0609139068DE3BA
:103C200096E00E9499100E94441980933A0682E01F
:103C30000E941B18082F81E00E941B18282F40911A
:103C40003A06609124018DE396E00E94831183E09F
:103C50000E94C832019709F08EC482E00E94C832E7
:103C6000019709F088C484E00E94C832019709F0E6
:103C700082C4D9CF843009F04CC01091390601E0DC
:103C800010933906612F8DE396E00E946B130E941A
:103C9000441982E00E941B18282F81E029830E948A
:103CA0001B182981482F609124018DE396E00E9422
:103CB000441483E00E94C832019751F482E00E94CC
:103CC000C832019729F484E00E94C8320197F9F2C2
:103CD00083E00E94C832892B09F462C482E00E940A
:103CE000C832892B09F054C4115013300CF45AC453
:103CF00010E082E390E00E94C31768EC70E080E07F
:103D000090E00E9493310111BBCF809121018093FB
:103D1000220180912201893019F0109217064CC0BF
:103D20000E94F0170E94441980933A0620912406BD
:103D30003091250690E08217930708F4C90190930B
:103D40002506809324068091170681111FC069E023
:103D500080E090E00E94BA171092180669E3E62E00
:103D600061E0F62E10E001E0F701819191917F0171
:103D70000E94B8178F3F21F0109316060093180683
:103D80001F5F1A3089F781E08093170682E00E9456
:103D9000C832892B09F40AC484E00E94C832892BF6
:103DA00009F46EC4809118068111D5C46091220176
:103DB0008DE396E00E94900A80912201982F9D7FCA
:103DC000913009F091C10E94F0170E94441980932C
:103DD0003A06209124063091250690E08217930739
:103DE00008F4C901909325068093240680913B0630
:103DF0000E94E31780933C0680912201833009F0F2
:103E00007EC0C0902906D0902A06E0902B06F09044
:103E10002C06F8EECF0EF3E0DF1EE11CF11C0E9431
:103E20006431C616D706E806F90628F480913A06EA
:103E3000833308F4AEC482E00E94C832892B39F57E
:103E40000E94643160932D0670932E0680932F0696
:103E50009093300682E390E00E94C31768EC70E014
:103E600080E090E00E94933180913B068F5F8093C9
:103E70003B0690913C069F5F90331CF490933C0668
:103E800002C010923C06803310F010923B0684E092
:103E90000E94C832892B29F50E94643160932D0657
:103EA00070932E0680932F069093300682E390E065
:103EB0000E94C31768EC70E080E090E00E949331AC
:103EC00080913B06815080933B0690913C06915037
:103ED00097FD9FE290933C06803318F08FE2809329
:103EE0003B0680910C0181110AC0E0913C06FF273E
:103EF000E7FDF095ED51FC4FE491E0933B06809196
:103F00002201813009F098C0609124067091250645
:103F100080E090E00E9435372DEC3CEC4CE45FE310
:103F20000E94EB370E9404372091230130E02617CE
:103F3000370714F46093230120912806211152C001
:103F400020913506211122C030913A06209123019B
:103F50002317E0F481E0809328060E946431609387
:103F60002D0670932E0680932F069093300684E6DC
:103F700090E00E94C31764E670E080E090E00E9449
:103F8000933184E690E00E94C3172CC0109235064E
:103F900020913C0630911F01230F20933C062033D3
:103FA0002CF06093230110923C0607C027FF09C044
:103FB000609323018FE280933C06109225061092B5
:103FC000240680912301853008F485E08093230145
:103FD000E0913C06FF27E7FDF095ED51FC4FE491A1
:103FE000E0933B0682E00E94C832892B29F084E0EE
:103FF0000E94C832892B01F582E00E94C832892BC9
:1040000009F0D4C381E080931F0182E390E00E9415
:10401000C31768EC70E080E090E00E94933181E08B
:10402000809335061092280610922D0610922E06C7
:1040300010922F061092300680902D0690902E063A
:10404000A0902F06B090300628E8820E23E1921E41
:10405000A11CB11C0E946431C0902D06D0902E0688
:10406000E0902F06F090300686169706A806B9064F
:1040700050F4C114D104E104F10429F080913A060E
:10408000833308F095C3C114D104E104F10471F045
:104090000E946431E8E9CE0EEAE3DE1EE11CF11C69
:1040A000C616D706E806F90608F482C340913B0617
:1040B000E42FF0E0EE0FFF1FED5BFB4FE590F49077
:1040C000AA24A39480912806811101C0A12CC0903C
:1040D000230100913A0620913C06609122018DE374
:1040E00096E00E94DC0BEFC0823019F0873009F0B7
:1040F000EAC080912706882351F01092270680910C
:104100003B060E949F1980913B06809336060E94D1
:10411000F0170E94441980933A0670912201723080
:1041200079F4813568F09C01332740912406509141
:1041300025064217530720F43093250620932406C2
:1041400020913B06E22FF0E0ED5EFB4F0491E22F61
:10415000F0E0EE0FFF1FED5BFB4FE590F490A090B9
:104160001601B0901701C0901801D090190161E0BC
:10417000773009F060E0282F40913C068DE396E00F
:104180000E943C0F80913C068F3224F48F5F809315
:104190003C0674C010923C0680912201873009F0E1
:1041A0006DC0809123069FEF980F90932306811195
:1041B00065C0609118018091190160931C01809382
:1041C0001D0180911601909117018D37910510F412
:1041D0008CED90E090931B0180931A0182E090E0B7
:1041E0000E94BA1760911D0183E090E00E94BA1707
:1041F00060911A0184E090E00E94BA1760911B015F
:1042000085E090E00E94BA1785E10E94133205977D
:104210005CF1609110018091110160931401809311
:10422000150180910E0190910F018D37910510F4C9
:104230008CED90E0909313018093120187E090E061
:104240000E94BA176091150188E090E00E94BA17A9
:104250006091120189E090E00E94BA176091130109
:104260008AE090E00E94BA1780E090E00E94B817C0
:104270008093220188EE93E00E94C31782E00E949F
:10428000C832892BB1F482E390E00E94C31768EC36
:1042900070E080E090E00E9493318FEF80932001E6
:1042A00010923C0681E0809327061092250610921A
:1042B0002406E0913C06FF27E7FDF095ED51FC4F09
:1042C000E491E0933B0680912201853009F05FC0C4
:1042D0008DE396E00E94371566246A94762CF12CC3
:1042E000DD24D394FDE7CF2EA0E2BA2EB7E0AB2EAB
:1042F00016E0912E88248394E62C09E116E02091A3
:104300000C0140910D016F2D8DE396E00E94381550
:1043100012E3115009F47EC283E00E94C832019773
:1043200089F482E00E94C832019761F484E00E941F
:10433000C832019739F464E670E080E090E00E94B2
:104340009331E7CF83E00E94C832892B09F093C2F2
:10435000F2E0FF1609F475C2FF150CF469C2F11002
:104360005EC280910C01882580930C0182E390E06D
:104370000E94C31766E970E080E090E00E949331EC
:104380002FEF6216720609F4A9C2D110B5CF809141
:104390003B0690913606981709F4B7C20E949F1900
:1043A00080913B06809336060E946431609331060B
:1043B00070933206809333069093340680911E01E9
:1043C000882309F4A2C210921E0184E690E00E94A4
:1043D000C31764E670E080E090E00E94933184E6C9
:1043E00090E00E94C31764E670E080E090E00E94D5
:1043F000933184E690E00F90DF91CF911F910F9160
:10440000FF90EF90DF90CF90BF90AF909F908F90F4
:104410007F906F900C94C317BB24BA94B90E03E03D
:10442000F9E0FF2EA5E0EA2EB4E0DB2E11E082E0F9
:10443000C82E22E0B216F1F02B1554F0BB2099F0F3
:1044400081E0B8122AC0C0922201B09227062EC085
:10445000E4E0BE16F9F0BE1684F0F5E0BF121DC010
:10446000B09222011DC010932201109335061092C4
:1044700028061CC00093220119C085E10E94133256
:1044800005971CF0D092220111C0E0922201E4E0D5
:10449000BE2E0CC0F092220109C024E02B1534F48A
:1044A0006B2D8DE396E00E94FD0605C06B2D8DE31C
:1044B00096E00E947D0783E00E94C832892BD9F3E1
:1044C00082E00E94C832892BB1F384E00E94C83296
:1044D000892B89F372E3A72EAA9421F183E00E942D
:1044E000C8320197C9F482E00E94C8320197A1F452
:1044F00084E00E94C832019779F464E670E080E0BD
:1045000090E00E949331E8CF64E670E080E090E0B4
:104510000E9493311F5F66C983E00E94C832892BD5
:1045200009F04AC183E00E94C832892B21F08091B2
:1045300021018093220184E690E00E94C31762E388
:1045400070E080E090E00E94933184E690E00E9469
:10455000C31762E370E080E090E00E94933159C994
:104560000E94643160932D0670932E0680932F066F
:1045700090933006EAC98091210180932201109224
:104580002D0610922E0610922F0610923006BDC1F5
:1045900084E00E94C832892B09F0A7CB1F5FA5CB0E
:1045A00000E0A3CB17FFA5CB12E0A3CB68EC70E033
:1045B00080E090E00E94933180911406909115065E
:1045C000019690931506809314062091160630E00C
:1045D0002817390724F4109215061092140600913A
:1045E000140610911506F801EE0FFF1FE75CFE4F51
:1045F000808191810E94B81780933B068F3FC9F15B
:1046000061E0600F8DE396E00E94FB0980913B061C
:104610000E94E31780933C060E94643160932D064C
:1046200070932E0680932F069093300682E390E0DD
:104630000E94C31768EC70E080E090E00E94933124
:1046400080913C06803314F010923C0680913B062A
:10465000803310F010923B06609122018DE396E0CA
:104660000E945B0860913B0681E090E00E94BA17CF
:1046700093CB0150110910931506009314068CCBAF
:1046800068EC70E080E090E00E9493318091140625
:10469000909115060197909315068093140697FF45
:1046A00007C08091160690E090931506809314063B
:1046B0000091140610911506F801EE0FFF1FE75C3C
:1046C000FE4F808191810E94B81780933B068F3FF7
:1046D000D9F161E0600F8DE396E00E94FB098091C3
:1046E0003B060E94E31780933C060E94643160936E
:1046F0002D0670932E0680932F069093300682E34A
:1047000090E00E94C31768EC70E080E090E00E94A7
:10471000933180913C0687FF03C08FE280933C0673
:1047200080913B06803318F08FE280933B066091C6
:1047300022018DE396E00E945B0860913B0681E0D8
:1047400090E00E94BA172ECB0F5F1F4F10931506F3
:104750000093140627CB40913B06E42FF0E0EE0FC8
:10476000FF1FED5BFB4FE590F490AA24A39480918A
:104770002806811101C0A12CC090230100913A06A6
:1047800020913C06609122018DE396E00E94DC0BB3
:1047900013CB0E94811B0E946431609329067093A1
:1047A0002A0680932B0690932C0645CB8FEF2BCCBB
:1047B00088E0809322017ACC82E00E94C832892B63
:1047C00059F4AB2CBA9485E10E941332059754F446
:1047D00083E0B81207C01AC084E00E94C832892B57
:1047E00009F4B394E5E0EB152CF0B7FE04C065E0E6
:1047F000B62E01C0B12C82E390E00E94C31768EC92
:1048000070E080E090E00E94933113CE6EEFB62E00
:10481000BA0CE8CF8091210180932201B8CD21E02C
:10482000F21252C080910D018F2580930D019ECD13
:1048300083E0F81679F0E4E0FE1246C0909222017F
:1048400018C0FFEF6F1A7F0A2AE0621671040CF09D
:1048500058C08CCD1AE089E190E00E94C31769E14D
:1048600070E080E090E00E9493311150A1F7A09297
:104870002201D12C7BCD82E00E94C832892B79F4B1
:104880008FEF6816780611F4FA941EC0F301E75E04
:10489000F94F80818F5F8E37A4F0B08215C084E01D
:1048A0000E94C832892B81F4EFEF6E167E0611F458
:1048B000F3940AC0F301E75EF94F808181508032A2
:1048C00014F0808301C0C082F4E0FF152CF0F7FEE5
:1048D0004DCD74E0F72E4ACDF12C48CD83E00E94F7
:1048E000C832892B09F446CD82E00E94C832892B58
:1048F00009F440CD84E00E94C832892B09F43ACDF6
:1049000044CD66246A94762C31CD0F90DF91CF91FF
:104910001F910F91FF90EF90DF90CF90BF90AF90DD
:104920009F908F907F906F9008950F931F93CF93D8
:10493000DF93EC018D89823061F08330D9F08130D2
:1049400009F0C8C0EC81FD81E41BF50B3197DB0158
:1049500018C08C819D81DC01A61BB70BBD018E8127
:104960009F81FC01E41BF50BAF0141505109621B13
:10497000730BB0C0AE81BF81A61BB70BA21BB30BDC
:10498000FA01F7FD05C18C819D81E817F9070CF04C
:10499000FFC0B7FF04C02A0F3B1FA0E0B0E08E812C
:1049A0009F81AD01420F531F841795071CF49C0192
:1049B0002A1B3B0B121613060CF0EAC0422F8A2F5B
:1049C00086958695869590E8899FE00DF11D1124C6
:1049D000E35AFE4FA77069F158E05A1B852F90E00B
:1049E000EC01CB5ADE4F6881251760F4DC01A21B75
:1049F000B1098FEF90E00A2E02C0959587950A9431
:104A0000E2F768230130110539F048F00230110552
:104A100051F48081862706C08081862B03C0609573
:104A2000808186238083451708F4B2C0451BE05877
:104A3000FF4F4830A0F102301105A9F4DF01842FA7
:104A40009C9190959C93A058BF4F88508830C0F798
:104A500088EF840F869586958695B0E88B9FE00D4C
:104A6000F11D112419C081E00130110509F080E029
:104A7000982F9195EF01842F9883C058DF4F88506D
:104A80008830D0F788EF840F86958695869590E8D4
:104A9000899FE00DF11D1124E058FF4F477044231A
:104AA00009F476C0A42FB0E0A35BBE4F9C91013007
:104AB000110541F050F00230110509F069C0808104
:104AC000892706C08081892B03C090958081892326
:104AD00080835EC057FD5CC08E819F814817590757
:104AE0000CF056C077FF04C0260F371F60E070E05F
:104AF0008C819D81FB01E20FF31F8E179F071CF431
:104B00009C01261B370B121613060CF041C0CA017C
:104B100057FD0796E3E095958795EA95E1F7969519
:104B2000982F882797958795835A9E4F860F971FB2
:104B30004770552761E070E001C0660F4A95EAF7BB
:104B4000462F0130110541F088F00230110501F5C2
:104B5000FC01280F391F15C0FC01280F391FE2176F
:104B6000F307B1F08081842B8193F9CF6095FC012C
:104B7000280F391FE217F30759F0808186238193AC
:104B8000F9CFE217F30721F0808184278193F9CFD1
:104B9000DF91CF911F910F9108950F931F93CF93A2
:104BA000DF93FC018589823069F08330E1F0813048
:104BB00009F082C0C481D581C41BD50BC21BD30BA5
:104BC000DB0117C084819581DC01A61BB70BBD01F9
:104BD0006150710986819781DC01A41BB50BAD0181
:104BE000421B530B69C0A681B781A61BB70B119757
:104BF000EA01B7FD08C186819781A817B9070CF0B3
:104C000002C1D7FF04C02C0F3D1FC0E0D0E084815B
:104C10009581AE01420F531F841795071CF49C0128
:104C20002C1B3D0B121613060CF0EDC0CD01B7FD89
:104C3000079643E0959587954A95E1F79695982FC5
:104C4000882797958795835A9E4F8C0F9D1FA77035
:104C5000BB2741E050E00A2E01C0440F0A94EAF756
:104C6000642F0130110549F098F00230110509F068
:104C7000CAC0FC01280F391F17C0FC01280F391FBB
:104C8000E217F30709F4BFC08081862B8193F8CF28
:104C90004095FC01280F391FE217F30709F4B3C050
:104CA000808184238193F8CFE217F30709F4ABC026
:104CB000808186278193F8CF77FDA5C08481958177
:104CC000681779070CF09FC057FF04C0240F351FE9
:104CD00040E050E086819781FA01E20FF31F8E17C2
:104CE0009F071CF49C01241B350B121613060CF0B5
:104CF0008AC0522F842F869586958695FB01B0E851
:104D00008B9FE00DF11D1124E35AFE4F477069F1AE
:104D100068E0641B862F90E0EC01CB5ADE4F48819F
:104D2000261760F4DC01A21BB1098FEF90E00A2E78
:104D300002C0959587950A94E2F748230130110542
:104D400039F048F00230110551F48081842706C003
:104D50008081842B03C040958081842380835617F3
:104D600008F451C0561BE058FF4F5830A0F10230F4
:104D70001105A9F4DF01852F9C9190959C93A05873
:104D8000BF4F88508830C0F788EF850F869586958D
:104D90008695B0E88B9FE00DF11D112419C081E0CC
:104DA0000130110509F080E0982F9195EF01852FD2
:104DB0009883C058DF4F88508830D0F788EF850F30
:104DC00086958695869590E8899FE00DF11D1124C2
:104DD000E058FF4F57705523B1F0A52FB0E0A35B0B
:104DE000BE4F9C910130110539F048F00230110599
:104DF00051F48081892706C08081892B03C090955A
:104E0000808189238083DF91CF911F910F91089535
:104E1000CF92DF92EF92FF920F931F93CF93DF9386
:104E20007C018B01EA01690177FDA0C00E94802E00
:104E3000081719070CF09AC0D7FD98C0C7010E9447
:104E4000842EC817D9070CF091C0C7010E947D2E8F
:104E5000823009F07FC0F701848195819C01201B7D
:104E6000310B89010150110986819781FC01EC1BEE
:104E7000FD0BEF0121970BC0813049F4F7018481CC
:104E800095818C1B9D0BE8018C0101501109F1E00B
:104E9000CF16D10431F010F132E0C316D104E1F1A4
:104EA00065C0FE01D7FD379683E0F595E7958A95B5
:104EB000E1F7F695FE2FEE27F795E795E00FF11F46
:104EC000E35AFE4FC770DD2781E090E00C2E01C051
:104ED000880F0A94EAF79081982B3AC0FE01D7FD1B
:104EE0003796A3E0F595E795AA95E1F7F695FE2F9D
:104EF000EE27F795E795E00FF11FE35AFE4FC770D5
:104F0000DD2781E090E00C2E01C0880F0A94EAF7BB
:104F10008095908198231CC0FE01D7FD379663E0F1
:104F2000F595E7956A95E1F7F695FE2FEE27F7954B
:104F3000E795E00FF11FE35AFE4FC770DD2781E0D0
:104F400090E00C2E01C0880F0A94EAF79081982710
:104F500090830CC0833009F08FCFF7018681978151
:104F6000801B910B8E01EC01219791CFDF91CF91A6
:104F70001F910F91FF90EF90DF90CF9008951F93B6
:104F8000CF93DF93EC01162F40E450E060E870E02F
:104F90000E94CC2B8CE795E0998388838FEF8C8FD0
:104FA00088A38E8F8D8F1F8FDF91CF911F910895D2
:104FB00080E094E0EDE5F1E0DF019C011D922150DD
:104FC0003040E1F70895FC0181A1882339F06EBDDE
:104FD00000000DB407FEFDCF8EB5089588E090E087
:104FE00030E8A4A1B5A14C9123A5209524232C93AE
:104FF000A2A1B3A122A5432F462321F04C91422B1D
:105000004C9304C04C91209524232C93A4A1B5A1CA
:105010002C9143A5242B2C933695019711F70895D5
:105020001F93CF93DF93EC01162F8C8D8F3F09F1E7
:10503000EEA1FFA180819CA5892B8083E8A5F9A51D
:1050400090818DA5809589238083EEA1FFA1908119
:105050008CA5809589238083CE010E94E327EEA151
:10506000FFA180819CA5892B8083DF91CF911F9127
:1050700008958A8D682F772767FD709584E496E000
:105080000E94332F60E084E496E00E94E02E612FBE
:1050900084E496E00E94E02E84E496E0DF91CF91D4
:1050A0001F910C94482F0F931F93CF93DF93EC0124
:1050B000162F022F6B8F4A8F8C8D8F3F09F48CC077
:1050C00061E08E8D0E94593261E088A10E945932C0
:1050D00088A1992787FD9095FC01E55DF54FE49146
:1050E000F0E0EE0FFF1FE75BF54F259134913FA3F2
:1050F0002EA3FC01E95EF54F84918CA78E8D992734
:1051000087FD9095FC01E55DF54FE491F0E0EE0F31
:10511000FF1FE75BF54F2591349139A728A7FC01C4
:10512000E95EF54F84918DA789A1811134C061E0BA
:105130008C8D0E94593261E08D8D0E9459328D8D87
:10514000992787FD9095FC01E55DF54FE491F0E02E
:10515000EE0FFF1FE75BF54F259134913DA32CA384
:10516000FC01E95EF54F84918BA78C8D992787FD13
:105170009095FC01E55DF54FE491F0E0EE0FFF1F27
:10518000E75BF54F259134913BA32AA3FC01E95E2F
:10519000F54F84918AA789A1882311F10E940F2AD3
:1051A00080914206882399F09FB7F8948091420637
:1051B000813059F48DB3809340062DB38091410620
:1051C000809582238DBB9FBF02C09093400680E5EF
:1051D0008CBD81E08DBD04C084E496E00E941F2F49
:1051E0000023F1F08F8D87FD1BC061E00E945932D2
:1051F00061E08F8D0E94923261E070E080E090E08B
:105200000E94933160E08F8D0E9492326AE070E0DC
:1052100080E090E00E94933161E08F8D0E94923295
:105220006EEACE010E94102865EDCE010E94102882
:1052300060E8CE010E94102868EACE010E94102882
:105240006FE3CE010E94102863EDCE010E9410286A
:1052500060E0CE010E94102860E4CE010E94102878
:105260006DE8CE010E941028113011F460E101C0F8
:1052700064E1CE010E94102860E2CE010E94102855
:1052800060E0CE010E94102861EACE010E94102841
:1052900068ECCE010E9410286AEDCE010E94102811
:1052A00062E1CE010E94102861E8CE010E94102820
:1052B000113011F46FE901C06FECCE010E9410288B
:1052C00069EDCE010E941028113011F462E201C094
:1052D00061EFCE010E9410286BEDCE010E941028D4
:1052E00060E4CE010E94102864EACE010E941028DA
:1052F00066EACE010E9410286EE2CE010E941028BC
:105300006FEACE01DF91CF911F910F910C9410287D
:10531000DF92EF92FF920F931F93CF93DF93EC01F5
:1053200061E20E94102860E0CE010E9410286FE721
:10533000CE010E94102862E2CE010E94102860E097
:10534000CE010E94102867E0CE010E9410288C8DAB
:105350008F3F31F1EEA1FFA180819CA5892B808335
:10536000E8A5F9A580819DA5892B8083EEA1FFA1E9
:1053700090818CA58095892380830DE511E0F8014B
:1053800061918F01CE010E94E327F5E00D351F07E3
:10539000B1F7EEA1FFA180819CA5892B808337C046
:1053A000D090B8008CE08093B8000DE511E06A8DD4
:1053B000772767FD709584E496E00E94332FE09193
:1053C0004406F09145060190F081E02D60E484E40C
:1053D00096E00995E12CF12CF801EE0DFF1D60819E
:1053E00084E496E00E94E02E8FEFE81AF80AE0E1EC
:1053F000EE16F10489F784E496E00E94482F005FDE
:105400001F4FF5E00D351F0791F6D092B800DF91E0
:10541000CF911F910F91FF90EF90DF900895CF9360
:10542000CFB7F89480914306811127C0E5E3FAE0F5
:105430008491E1E2FAE09491E82FF0E0EE0FFF1F93
:10544000ED5AF54FA591B4918C91892321F461E037
:105450008AE00E94923261E08AE00E9459328CB563
:1054600080618CBD8CB580648CBD61E08DE00E9454
:10547000593261E08BE00E945932809143068F5F80
:1054800080934306CFBFCF9108952F923F924F92C2
:105490005F926F927F928F929F92AF92BF92CF92C4
:1054A000DF92EF92FF920F931F93CF93DF9300D081
:1054B00000D0CDB7DEB74C017C836B836A01590104
:1054C000C8018701AC014C195D0957FF03C0519514
:1054D0004195510995016B817C81261B370B37FF64
:1054E00003C031952195310922242394312C2417AE
:1054F000350714F0212C312C2114310459F03A2DA8
:105500002B2D5C01832F922F3B812C81DC82CB825F
:10551000C32ED22EAB81BC81AA16BB065CF43C2DF7
:105520002D2D6C01832F922F3B812C81BC82AB826D
:10553000A32EB22E2501EB81FC814E1A5F0A3C019D
:105540006C187D0877FE03C0719461947108720134
:1055500057FE03C0FFEFEF1AFF0AF594E794C81651
:10556000D9062CF421E030E03A83298324C06FEF80
:105570007FEF7A8369831FC0D401ED91FC91048091
:10558000F581E02D980121143104D9F04B815C8123
:10559000B601C4010995E618F708F7FE06C0E981CF
:1055A000FA81CE0EDF1EE40CF51C2B813C812F5FAF
:1055B0003F4F3C832B836B817C81A616B706E4F6B4
:1055C00004C0A6016B817C81E4CF0F900F900F90F7
:1055D0000F90DF91CF911F910F91FF90EF90DF908F
:1055E000CF90BF90AF909F908F907F906F905F9083
:1055F0004F903F902F9008956F927F928F929F923D
:10560000AF92BF92CF92DF92EF92FF920F931F93D0
:10561000CF93DF93EC015B016A0139014801E88116
:10562000F9810284F385E02D87010995E881F981EC
:10563000A601480D591D415051090284F385E02D02
:105640009301B501CE010995E881F9810084F185C6
:10565000E02D9401A601B501CE010995E881F981FB
:10566000B501660D771D615071090084F185E02D4B
:105670009401A601CE010995DF91CF911F910F9161
:10568000FF90EF90DF90CF90BF90AF909F908F9062
:105690007F906F900895EF92FF920F931F93DC011C
:1056A000ED91FC91240F351F215031090680F781BF
:1056B000E02D780189019B0109951F910F91FF90C1
:1056C000EF900895EF92FF920F931F93DC01ED91FD
:1056D000FC91260F371F215031090680F781E02DFC
:1056E00078018A0109951F910F91FF90EF9008951D
:1056F0006F927F928F929F92AF92BF92CF92DF92E2
:10570000EF92FF920F931F93CF93DF935C014A01B7
:1057100069013801EB01C60ED71ECC15DD0574F406
:10572000D501ED91FC910084F185E02D8701930175
:10573000A401BE01C50109952196EFCFDF91CF915C
:105740001F910F91FF90EF90DF90CF90BF90AF909F
:105750009F908F907F906F900895EF92FF920F939C
:105760001F93DC01ED91FC9111971A960D911C91FC
:105770001B9718962D913C9119970684F785E02D7B
:105780007B0140E050E060E070E009951F910F91CF
:10579000FF90EF9008950895FC011382128284E92E
:1057A00095E09183808375836483578346837187F3
:1057B000608753874287158A158614861786168652
:1057C00021E0248B8FEF9FEF938B828B918B808BCB
:1057D000268B178A118E108E08952F923F924F922A
:1057E0005F926F927F928F929F92AF92BF92CF9271
:1057F000DF92EF92FF920F931F93CF93DF93CDB77A
:10580000DEB76A970FB6F894DEBF0FBECDBF1C019E
:1058100058874F831C870B87FA86E986CC82DC0188
:1058200058964D915C9159974115510509F0A6C0C4
:1058300018968D919C911997681779070CF056C1AD
:105840001A968D919C911B97EF81F885E817F907BF
:105850000CF04CC1D12CCB013C81F6E03F9F800D78
:10586000911D1124181619060CF040C1C60103E061
:10587000880F991F0A95E1F74F815885840F951F6E
:10588000181619060CF032C157968C91811103C07D
:10589000203B08F02F5F7E876D874B01198213E054
:1058A000A12E15E0B12EA61AB70A55E0259FA00C2F
:1058B000B11C11248981853039F0ED85FE85EA0D12
:1058C000FB1D94919A8301C01A826F807884230112
:1058D000A8E0AD83BA81B0FF12C0D101ED91FC9177
:1058E000BC81B13031F40480F581E02D2B853C85FD
:1058F00018C00684F785E02DEB84FC841DC0E98583
:10590000FA852B853C85E217F307E1F0D101ED9193
:10591000FC91BC81B13059F40480F581E02D2985DA
:105920003A85A2016D857E85C10109950BC006846B
:10593000F785E02DE984FA8486019601A301B4017C
:10594000C1010995EA81E695EA83FD81F150FD8365
:105950006C0C7D1C2FEF421A520AF111BBCF39811A
:105960003F5F39838C0C9D1C4D855E854F5F5F4F7B
:105970005E874D87363009F09DCFB8C0FA01349666
:105980003491329785919491231BA7E02A9F800D33
:10599000911D1124FA0125913491398B288BFC013A
:1059A000459154915A8F498FFC01329654915987F1
:1059B0003196A491AF873196E491FC0135962491FC
:1059C00031968491BC81B23050F0622E772467FC0E
:1059D0007094E82FFF27E7FDF095FE87ED87FC81A7
:1059E000CF2ED12C6C9C40016D9C900C7C9C900C1B
:1059F0001124860E971EA12C1982DE8ACD8AAB0156
:105A0000420F511D27FD5A955E834D83AF81B885A6
:105A1000A80FB11D87FDBA95B88FAF8B59818F85BF
:105A2000581708F063C0852F90E02D853E85280F1C
:105A3000391F2C9DD0012D9DB00D3C9DB00D112422
:105A4000EF81F885EA0FFB1FFB83EA836D807E8080
:105A50002401FA2D2D81F21BFA8B4F89588D480FA6
:105A6000591F5C8B4B8B9A89960D862D2D81821B3D
:105A700039858317B0F5977061F4898D9A8D0196F9
:105A8000E889F989298D3A8DE20FF31FB4909A8F36
:105A9000898FB7FE1DC0D101ED91FC91BC81B13061
:105AA00059F40480F581E02D2B853C854B895C8978
:105AB000B301C10109950CC00684F785E02DEB8484
:105AC000FC84860196014A815B81B201C10109957E
:105AD000BB0CED89FE894E0E5F1EFFEF6F1A7F0A29
