:100000000C94DA040C9402050C9402050C9402057D
:100010000C9402050C9402050C9402050C94020544
:100020000C9402050C9402050C9402050C94020534
:100030000C9402050C9402050C9402050C94020524
:100040000C9493300C9402050C94AF330C94E13370
:100050000C9402050C9402050C9402050C94020504
:100060000C94662F0C9402054F2156215B215E21D2
:100070006B216E21742171212D2D20534156454451
:10008000202D2D00465245513A202020202047485F
:100090007A002020464156204348414E3A004348CA
:1000A000414E3A0053455454494E4753205341560C
:1000B000454400534156452053455454494E4753F7
:1000C0000053415645202620455849540043414C91
:1000D0004942524154452052535349005349474ED7
:1000E000203A20004F4646004F4E200042454550E2
:1000F000533A20004652455155454E435900434816
:10010000414E4E454C2020004F524445523A20006B
:100110005345545550204D454E55004200413A003C
:1001200052454345495645522042005245434549B0
:100130005645522041004155544F004449564552BE
:1001400053495459004C4F57205349474E414C0096
:100150002520420042004100414E54204200414EC1
:10016000542041004155544F0020202000202020E1
:10017000003539343500353830300035333632000B
:100180004D696E3A20202020204D61783A0052536C
:10019000534920534554555000424553543A004268
:1001A000414E44205343414E4E4552004155544F19
:1001B000205345454B204D4F4445004155544F2059
:1001C0004D4F4445204C4F434B00412020202020E0
:1001D0002020200042202020202020202000452018
:1001E0002020202020202000462F41697277617650
:1001F0006500432F5261636520202000442F352E77
:10020000332020202000454D505459004641564F80
:1002100052495445530053454C45435445442046A8
:1002200041564F52495445204348002D2D20444506
:100230004C45544544202D2D00464156204348410D
:100240004E4E454C3A004348414E4E454C20465296
:1002500045513A0044454C455445204641564F527D
:10026000495445204348414E00353934350035382E
:10027000303000353336320042414E443A00415569
:10028000544F205345454B204D4F4445004D414E62
:1002900055414C204D4F4445004641564F5249541C
:1002A00045204D4F444500202020202020202020A4
:1002B000004641564F524954455300444956455211
:1002C00053495459004D414E55414C204D4F4445E2
:1002D0000042414E44205343414E4E455200415549
:1002E000544F204D4F4445004D4F44452053454CFD
:1002F000454354494F4E0046494E44204D4F4445D6
:100300004C004F4646004F4E20004F53443A2000C9
:10031000200020202020202020202000534554555C
:1003200050204D454E55004D41494E204D454E55AE
:100330000028292A2B2C2D2E2F13122011211007D3
:1003400022081806091905230A1A040B1B03240C9A
:100350001C020D1D25010E1E000F1F261415271649
:1003600017A1A2A3A4A5A6A7A8B1B2B3B4B5B6B766
:10037000B8E1E2E3E4E5E6E7E8F1F2F3F4F5F6F7F5
:10038000F8C1C2C3C4C5C6C7C8D1D2D3D4D5D6D785
:10039000D8E916D516C116AD169916851671165DD3
:1003A00016651678168B169E16B116C416D716EA61
:1003B000164916351621160D16FD16111725173973
:1003C000176C1680169416A816BC16D016E416F8EC
:1003D000161A163F1664168916AE16D316F8161D91
:1003E00017F21417153C1561158615AB15D015F5C8
:1003F00015052A9B29912987291D29132909299F38
:100400002803290C2916291F29892992299C2905A5
:100410002A95288B28812817280F2A192A832A8DA4
:100420002A062910291A2984298E299829022A0C9A
:100430002A1D2890280229152987299A290C2A1F64
:100440002A09261C268E2601271327862798270B84
:100450002800000000003E5B4F5B3E3E6B4F6B3E52
:100460001C3E7C3E1C183C7E3C181C577D571C1CB7
:100470005E7F5E1C00183C1800FFE7C3E7FF001812
:10048000241800FFE7DBE7FF30483A060E262979FB
:100490002926407F050507407F05253F5A3CE73C5C
:1004A0005A7F3E1C1C08081C1C3E7F14227F22140D
:1004B0005F5F005F5F06097F017F006689956A6064
:1004C0006060606094A2FFA29408047E040810207B
:1004D0007E201008082A1C08081C2A08081E101074
:1004E00010100C1E0C1E0C30383E3830060E3E0E1E
:1004F00006000000000000005F0000000700070089
:10050000147F147F14242A7F2A122313086462366E
:10051000495620500008070300001C2241000041FA
:10052000221C002A1C7F1C2A08083E080800807034
:100530003000080808080800006060002010080467
:10054000023E5149453E00427F40007249494946BA
:100550002141494D331814127F1027454545393C38
:100560004A49493141211109073649494936464925
:1005700049291E0000140000004034000000081447
:1005800022411414141414004122140802015909C0
:10059000063E415D594E7C1211127C7F4949493615
:1005A0003E414141227F4141413E7F494949417F8E
:1005B000090909013E414151737F0808087F004144
:1005C0007F41002040413F017F081422417F40408D
:1005D00040407F021C027F7F0408107F3E41414162
:1005E0003E7F090909063E4151215E7F09192946CE
:1005F000264949493203017F01033F4040403F1FE4
:100600002040201F3F4038403F6314081463030418
:100610007804036159494D43007F41414102040878
:100620001020004141417F0402010204404040404B
:1006300040000307080020545478407F2844443881
:100640003844444428384444287F385454541800CB
:10065000087E090218A4A49C787F0804047800444A
:100660007D40002040403D007F1028440000417F35
:1006700040007C047804787C0804047838444444BE
:1006800038FC1824241818242418FC7C08040408B6
:10069000485454542404043F44243C4040207C1CCF
:1006A0002040201C3C4030403C44281028444C90C2
:1006B00090907C4464544C4400083641000000771C
:1006C0000000004136080002010204023C262326F5
:1006D0003C1EA1A161123A4040207A385454555929
:1006E000215555794122545478422155547840205F
:1006F000545579400C1E527212395555555939547A
:1007000054545939555454580000457C4100024511
:100710007D420001457C407D1211127DF028252884
:10072000F07C545545002054547C547C0A097F4980
:1007300032494949323A4444443A324A4848303AC4
:100740004141217A3A42402078009DA0A07D3D425F
:1007500042423D3D4040403D3C24FF2424487E49E8
:1007600043662B2FFC2F2BFF0929F620C0887E091A
:100770000320545479410000447D413048484A32B6
:10078000384040227A007A0A0A727D0D19317D269E
:1007900029292F28262929292630484D4020380884
:1007A00008080808080808382F10C8ACBA2F102805
:1007B00034FA00007B000008142A142222142A14A0
:1007C000085500550055AA55AA55AAFF55FF55FFD3
:1007D000000000FF00101010FF00141414FF0010A0
:1007E00010FF00FF1010F010F0141414FC0014148B
:1007F000F700FF0000FF00FF1414F404FC141417AA
:10080000101F10101F101F1414141F00101010F0D0
:10081000000000001F101010101F10101010F0101A
:10082000000000FF101010101010101010FF10002A
:100830000000FF140000FF00FF00001F1017000061
:10084000FC04F414141710171414F404F40000FF3B
:1008500000F714141414141414F700F714141417D4
:100860001410101F101F141414F4141010F010F0B2
:1008700000001F101F0000001F14000000FC1400E7
:1008800000F010F01010FF10FF141414FF141010DB
:10089000101F00000000F010FFFFFFFFFFF0F0F05E
:1008A000F0F0FFFFFF0000000000FFFF0F0F0F0F31
:1008B0000F3844443844FC4A4A4A347E0202060651
:1008C000027E027E0263554941633844443C044041
:1008D0007E201E2006027E020299A5E7A5991C2A09
:1008E000492A1C4C7201724C304A4D4D30304878C8
:1008F0004830BC625A463D3E494949007E010101EB
:100900007E2A2A2A2A2A44445F444440514A4440C9
:1009100040444A51400000FF0103E080FF0000080E
:10092000086B6B083612362436060F090F060000D6
:1009300018180000001010003040FF0101001F01D6
:10094000011E00191D1712003C3C3C3C0000000039
:10095000000000000800020100000304070000007E
:100960000000000000010204081020408001020481
:1009700008102001020408102004040404040404E4
:100980000402020202020203030303030300000045
:100990000023002600290000000000250028002B6D
:1009A0000000000000240027002A00009613B81958
:1009B000C42E113411241FBECFEFD8E0DEBFCDBF4F
:1009C00016E0A0E0B1E0E4EBF1E702C005900D9283
:1009D000A630B107D9F727E0A6E0B6E001C01D9226
:1009E000AA3EB207E1F719E0C4EBD9E004C02297B0
:1009F000FE010E944438CC3AD107C9F70E94B635AF
:100A00000C94D8380C940000A4E3B6E020E0FC017C
:100A10003491332331F02E3121F03D9301962F5F35
:100A2000F6CFE22FF0E0EC5CF94F308384E396E000
:100A300008952FEFFC0122831082089586E096E04E
:100A40000E94512740E050E060E070E086E096E0D0
:100A50000E94DE2D61E086E096E00E94E42D61E0D8
:100A600070E086E096E00C94EA2DCF93DF93EC01E2
:100A700021E04CE362E086E096E00E94CC2786E02D
:100A800096E00E94012960ED77E080E090E00E940E
:100A90000C31CE010E941E0580E0DF91CF910895B8
:100AA000CF92DF92EF92FF920F931F93CF93DF933A
:100AB000EB01E0910606F0910706C484D58486E038
:100AC00096E00E94FD2D8C0186E096E00E94F92DB3
:100AD000EE24E394F12C9C0140E050E060E070E0F3
:100AE00086E096E0F6010995E0910606F09107068A
:100AF000C684D78486E096E00E94F92D0BE010E0D2
:100B00009C0140E050E060E070E086E096E0F60195
:100B1000099561E086E096E00E94E42D60E070E0D7
:100B200086E096E00E94EA2D86E096E00E94F92D8C
:100B3000FE0101900020E9F73197EC1BFD0B46E028
:100B40004E9F90014F9F300D1124BC01621B730B0F
:100B50007695679542E050E086E096E00E94DE2DB3
:100B6000BE0186E096E00E94923461E070E086E08B
:100B700096E0DF91CF911F910F91FF90EF90DF9062
:100B8000CF900C94EA2DCF92DF92EF92FF920F93C9
:100B90001F93CF93DF93EC01D62EC42E0E941E0527
:100BA00087E293E00E940405BC01CE010E9450053B
:100BB000E0910606F0910706C685D78586E096E0A7
:100BC0000E94F92D2AE0D29EA0011124445F5F4FBC
:100BD000EE24E394F12C0AE010E09C0160E070E068
:100BE00086E096E0FE010995C1E0D0E0D11002C098
:100BF000C0E0D0E0BE0186E096E00E94EA2D4DE024
:100C000050E065E070E086E096E00E94DE2D8CE129
:100C100093E00E940405BC0186E096E00E949234B5
:100C200082E193E00E940405BC0186E096E00E9408
:100C30009234E0910606F09107060190F081E02DD4
:100C400068E186E096E00995BE0186E096E00E94A4
:100C5000EA2D47E150E065E070E086E096E00E9412
:100C6000DE2D80E193E00E940405BC0186E096E061
:100C70000E94923461E070E0F1E0DF1202C060E0B7
:100C800070E086E096E00E94EA2D47E150E065E0E2
:100C900070E086E096E00E94DE2D8AE093E00E94FC
:100CA0000405BC0186E096E00E949234CC2019F045
:100CB00086E093E002C082E093E00E940405BC015C
:100CC00086E096E00E94923461E070E022E0D21269
:100CD00002C060E070E086E096E00E94EA2D41E20A
:100CE00050E065E070E086E096E00E94DE2D87EF40
:100CF00092E00E940405BC0186E096E00E949234D6
:100D000086E096E0DF91CF911F910F91FF90EF90D9
:100D1000DF90CF900C940129DF92EF92FF920F9316
:100D20001F93CF93DF93EC01D62E0E941E0588EE11
:100D300092E00E940405BC01CE010E945005E091A2
:100D40000606F0910706C685D78586E096E00E94E4
:100D5000F92D2AE0D29EA0011124445F5F4FEE24BA
:100D6000E394F12C0AE010E09C0160E070E086E082
:100D700096E0FE01099561E070E0D11002C060E0EC
:100D800070E086E096E00E94EA2D4DE050E065E0DC
:100D900070E086E096E00E94DE2D8EED92E00E94EB
:100DA0000405BC0186E096E00E94923461E070E0A8
:100DB000F1E0DF1202C060E070E086E096E00E94A1
:100DC000EA2D47E150E065E070E086E096E00E94A1
:100DD000DE2D81ED92E00E940405BC0186E096E0E4
:100DE0000E94923461E070E022E0D21202C060E022
:100DF00070E086E096E00E94EA2D41E250E065E076
:100E000070E086E096E00E94DE2D85EC92E00E9484
:100E10000405BC0186E096E00E94923485E10E94C0
:100E20008C310597E4F061E070E083E0D81202C0F5
:100E300060E070E086E096E00E94EA2D4BE250E030
:100E400065E070E086E096E00E94DE2D8BEB92E09C
:100E50000E940405BC0186E096E00E94923461E0A5
:100E600070E0E4E0DE1202C060E070E086E096E050
:100E70000E94EA2D45E350E065E070E086E096E0F0
:100E80000E94DE2D81EB92E00E940405BC0186E009
:100E900096E00E94923487EA92E00E940405BC0129
:100EA00086E096E00E949234E0910606F0910706F3
:100EB0000190F081E02D69E186E096E0099586E0F9
:100EC00096E0DF91CF911F910F91FF90EF90DF900F
:100ED0000C940129FF920F931F93CF93DF93EC01A2
:100EE0008B01F42E0E941E0584E592E00E94040509
:100EF000BC01CE010E94500561E070E086E096E002
:100F00000E94EA2D4CE050E065E070E086E096E05B
:100F10000E94DE2D86E492E00E940405BC0186E07A
:100F200096E00E9492344CE050E065E570E086E087
:100F300096E00E94DE2D4AE050E0B80186E096E09F
:100F40000E94663544E150E065E070E086E096E09E
:100F50000E94DE2D89E392E00E940405BC0186E038
:100F600096E00E94923444E150E065E570E086E04E
:100F700096E00E94DE2D4AE050E06F2D86E096E07C
:100F80000E945F3586E096E00E94F92D8254910917
:100F900097FD0196BC017595679544E350E086E0A6
:100FA00096E00E94DE2D8BE292E00E940405BC01D7
:100FB00086E096E00E94923486E096E0DF91CF9141
:100FC0001F910F91FF900C9401291F93CF93DF93F2
:100FD000EC01162F0E941E0586E192E00E94040596
:100FE000BC01CE010E94500565E086E096E00E94BB
:100FF000E42D61E070E086E096E00E94EA2D44E195
:1010000050E064E170E086E096E00E94DE2D4AE068
:1010100050E0612F86E096E00E945F3586E096E022
:101020000E940129CE01DF91CF911F910C941E05E2
:10103000CF93DF93EC010E941E058CE092E00E94AA
:101040000405BC01CE010E94500563E086E096E0F5
:101050000E94E42D61E070E086E096E00E94EA2DB7
:1010600044E150E064E170E086E096E00E94DE2D0D
:1010700086E092E00E940405BC0186E096E00E94B2
:10108000923486E096E0DF91CF910C9401292F9263
:101090003F924F925F926F927F928F929F92AF9208
:1010A000BF92CF92DF92EF92FF920F931F93CF9355
:1010B000DF9300D000D0CDB7DEB71C016983142FB9
:1010C000922EB02E2701CA828A2CFC018281281719
:1010D00009F49DC0821710F483E001C08FEF809364
:1010E0000B0140E050E061E070E086E096E00E9495
:1010F000F02D4CE050E064E270E086E096E00E9463
:10110000DE2D183218F08CEF91E016C0103218F076
:1011100082EF91E011C0183118F088EE91E00CC018
:10112000103118F08EED91E007C0183018F084ED02
:1011300091E002C08AEC91E00E940405BC0186E0C7
:1011400096E00E949234812F877014E0612E712CFA
:101150001C821B82C82ED12CE0910606F091070656
:10116000EE24E394F12C8B819C818C159D0511F06C
:10117000E12CF12C0684F785E02D0BE010E02EE049
:1011800030E045E150E0B30186E096E0099561E08A
:1011900070E0EB81FC81EC15FD0511F460E070E07E
:1011A00086E096E00E94EA2DB3016C5F7F4F47E135
:1011B00050E086E096E00E94DE2D6B816F5C86E059
:1011C00096E00E9494348B819C8101969C838B8352
:1011D0009FE0690E711CEB81FC81389709F0BCCF50
:1011E0004CE050E065E670E086E096E00E94DE2D7F
:1011F00040E050E061E070E086E096E00E94F02D73
:101200004AE050E0B20186E096E00E94663586E052
:1012100096E00E94F92D4B2C512C612C712C0397D8
:10122000AA2797FDA095BA2FBF93AF939F938F9353
:10123000A12CB12C6501A39414E6E12EF12C00E061
:1012400010E021E030E040E050E0C301B2010E9434
:101250006C35A62EE0910606F0910706C684D78469
:1012600086E096E00E94F92DB12C9C0123503109B3
:101270002A193B09B5016F5F7F4FE12CF12C03E088
:1012800010E041E250E086E096E0F6010995E09139
:101290000606F09107060684F785E02DEE24E39418
:1012A000F12C950141E250E061E070E086E096E0CB
:1012B00009951F921F921F92FEE0FF93A12CB12C63
:1012C0006501A39414E6E12EF12C00E010E021E08A
:1012D00030E040E050E0C301B2010E946C35E09183
:1012E0000606F091070666847784C62ED12C86E028
:1012F00096E00E94FD2D23E0929E50011124E4E02F
:10130000AE0EB11C0EE010E00C191D09AC014A51E3
:101310005109E12CF12C22E030E0B50186E096E0A5
:10132000F3010995E0910606F0910706668477843B
:1013300086E096E00E94FD2DAC014C5051094C19FD
:101340005D09EE24E394F12C860122E030E0B50142
:1013500086E096E0F30109950FB6F894DEBF0FBE64
:10136000CDBF9981913009F005C1E0910606F09159
:101370000706C684D78486E096E00E94FD2DAC0166
:101380004A515109E5E09E9EB0011124759567957B
:101390006C5F7F4F80910B01680F711D87FD7A95FF
:1013A000E12CF12C0EE010E021E030E086E096E048
:1013B000F6010995FA816F2F70E080E090E01F92AE
:1013C0001F921F922EE02F93A12CB12C6501A394A4
:1013D00014E6E12EF12C00E010E021E030E040E0E6
:1013E00050E00E946C35A62EE0910606F0910706AB
:1013F000C684D78486E096E00E94FD2DAC014A5158
:101400005109E12CF12C0EE010E022E030E061E027
:1014100070E086E096E0F6010995E0910606F0910D
:101420000706C680D78086E096E00E94FD2DB12C8D
:101430008C010C5011090A191B0986E096E00E94E4
:10144000FD2DAC014C5051094A195B09EE24E3947F
:10145000F12C22E030E061E070E086E096E0F601F9
:101460000995E0910606F0910706C684D78486E0C8
:1014700096E00E94FD2D8C0186E096E00E94F92DF9
:10148000A8014A515109BC0163507109E12CF12CAA
:101490000EE010E022E030E086E096E0F6010995EB
:1014A000E0910606F0910706C680D78086E096E0B8
:1014B0000E94FD2D8C010C5011090A191B0986E0B0
:1014C00096E00E94F92D3C0186E096E00E94FD2DF9
:1014D0000C972C014A185B0886E096E00E94F92DD3
:1014E000BC0163507109EE24E394F12C9301A20135
:1014F00086E096E0F60109950F900F900F900F90FF
:1015000041E050E060E070E086E096E08820B1F0D5
:101510000E94F02D86E096E00E94F92D84559109F5
:1015200097FD0196BC017595679542E050E086E015
:1015300096E00E94DE2D8BEB91E015C00E94F02D0D
:1015400086E096E00E94F92D8455910997FD019659
:10155000BC017595679542E050E086E096E00E94F8
:10156000DE2D8CEA91E00E940405BC0186E096E045
:101570000E949234F101928286E096E00F900F90E3
:101580000F900F90DF91CF911F910F91FF90EF90EF
:10159000DF90CF90BF90AF909F908F907F906F9093
:1015A0005F904F903F902F900C940129AF92BF9283
:1015B000CF92DF92EF92FF920F931F93CF93DF931F
:1015C0001F92CDB7DEB78C0169830E941E05F8011A
:1015D00011826981623099F48FE991E00E940405DB
:1015E000BC01C8010E9450054CE050E065E070E08D
:1015F00086E096E00E94DE2D89E991E012C08EE837
:1016000091E00E940405BC01C8010E9450054CE015
:1016100050E065E070E086E096E00E94DE2D80E814
:1016200091E00E940405BC0186E096E00E9492349D
:10163000E0910606F0910706C680D78086E096E026
:101640000E94F92DEE24E394F12C04E110E09C01BA
:1016500044E150E060E070E086E096E0F601099534
:10166000E0910606F0910706A680B78086E096E036
:101670000E94FD2D8C0186E096E00E94F92D6C0100
:1016800086E096E00E94FD2D0B501109AC014B50F5
:101690005109960160E070E086E096E0F501099559
:1016A00086E096E00E94FD2DAC014950510962E0B0
:1016B00070E086E096E00E94DE2D8BE791E00E94CC
:1016C0000405BC0186E096E00E94923486E096E034
:1016D0000E94FD2DAC014950510967E370E086E09E
:1016E00096E00E94DE2D86E791E00E940405BC0191
:1016F00086E096E00E94923486E096E00E94FD2DFE
:101700008C0186E096E00E94F92DA801495051090C
:10171000BC016951710986E096E00E94DE2D81E7E7
:1017200091E00E940405BC0186E096E00E9492349C
:1017300086E096E00F90DF91CF911F910F91FF907F
:10174000EF90DF90CF90BF90AF900C9401292F9233
:101750003F924F925F926F927F928F929F92AF9241
:10176000BF92CF92DF92EF92FF920F931F93CF938E
:10177000DF93CDB7DEB72A970FB6F894DEBF0FBE62
:10178000CDBF2C01662E842E922E702EFC82EB8211
:10179000DE82CD82B886AF82622F70E080E090E07A
:1017A0001F921F921F922EE12F93A12CB12C650145
:1017B000A39414E6E12EF12C00E010E021E030E0EB
:1017C00040E050E00E946C35C62E86E096E00E9414
:1017D000FD2D5C010F900F900F900F90D20112968B
:1017E0008C91881609F45BC0D12CE0910606F0912B
:1017F0000706268537853A83298386E096E00E948E
:10180000FD2DE5E08E9ED0011124B595A795BA87F0
:10181000A9871D01F4E02F0E311C0EE110E00C1918
:101820001D09AC014A525109E12CF12C22E030E0B3
:10183000B10186E096E0E981FA810995E09106061A
:10184000F0910706A5014C5051094C195D09068419
:10185000F785E02DEE24E394F12C860122E030E0C0
:10186000B10186E096E00995E0910606F091070641
:10187000C684D78486E096E00E94FD2DAC014A52D2
:10188000510969857A85695F7F4FE12CF12C0EE162
:1018900010E021E030E086E096E0F6010995611065
:1018A00042C0F0E5F91508F090C0D20111968C9174
:1018B0001197891530F511969C9240E050E061E057
:1018C00070E086E096E00E94F02D4CE050E064E28B
:1018D00070E086E096E00E94DE2D40E150E0672D4A
:1018E00086E096E00E945F354CE050E064E370E0F3
:1018F00086E096E00E94DE2D4AE050E06B817C811C
:1019000060C000910A0110E0075F1F4F86E096E07B
:101910000E94F92D0C97081719070CF456C08CE398
:1019200080930A0152C04CE050E06EE170E086E026
:1019300096E00E94DE2D40E050E061E070E086E03D
:1019400096E00E94F02D8DE691E00E940405BC0116
:1019500086E096E00E9492344CE050E06EE170E048
:1019600086E096E00E94DE2D4AE050E06D817E81A7
:1019700086E096E00E9466354CE050E065E570E058
:1019800086E096E00E94DE2D40E050E061E070E0ED
:1019900086E096E00E94F02D4CE050E065E570E0B6
:1019A00086E096E00E94DE2D89E691E00E94040523
:1019B000BC0186E096E00E9492344AE050E06F81DC
:1019C000788586E096E00E94663586E096E00E9483
:1019D0000129F20182822A960FB6F894DEBF0FBE6B
:1019E000CDBFDF91CF911F910F91FF90EF90DF90CE
:1019F000CF90BF90AF909F908F907F906F905F90AF
:101A00004F903F902F900895DF92EF92FF920F93A7
:101A10001F93CF93DF93D62EF42EE9010E941E056B
:101A200064E086E096E00E94E42D61E070E086E0EC
:101A300096E00E94EA2D40E050E062E070E086E02F
:101A400096E00E94DE2D4AE050E0BE0186E096E07E
:101A50000E94663561E086E096E00E94E42D4CE14C
:101A600050E060E070E086E096E00E94DE2DB80174
:101A700086E096E00E94923462E086E096E00E9462
:101A8000E42D42E050E062E670E086E096E00E94DD
:101A9000DE2D61E070E086E096E00E94EA2D40E1F4
:101AA00050E06F2D86E096E00E945F3561E086E0B1
:101AB00096E00E94E42DE0910606F091070606806C
:101AC000F781E02DE12CF12C0BE110E022E330E076
:101AD0004BE150E060E070E086E096E0099585E13A
:101AE0000E948C3105973CF144E150E062E670E0E1
:101AF00086E096E00E94DE2D40E050E061E070E07C
:101B000086E096E00E94F02D81E0D81659F0D816B4
:101B100030F0E2E0DE120FC088E591E005C084E617
:101B200091E002C08EE591E00E940405BC0186E0D0
:101B300096E00E94923441E050E060E070E086E080
:101B400096E00E94F02DE0910606F0910706C6850A
:101B5000D78586E096E00E94FD2DAC014B515109DE
:101B6000EE24E394F12C0DE010E027E030E060E09B
:101B700070E086E096E0FE01099586E096E00E941E
:101B8000FD2DAC014851510961E070E086E096E01E
:101B90000E94DE2D86E591E00E940405BC0186E0EE
:101BA00096E00E949234E0910606F09107060190BB
:101BB000F081E02D6AE086E096E0099541E050E092
:101BC00060E070E086E096E00E94F02DE09106066D
:101BD000F0910706C685D78586E096E00E94FD2D28
:101BE000AC014D50510927E030E060E070E086E044
:101BF00096E0FE01099586E096E00E94FD2DAC017D
:101C00004B50510961E070E086E096E00E94DE2DC5
:101C100084E591E00E940405BC0186E096E00E9404
:101C2000923486E096E0DF91CF911F910F91FF9063
:101C3000EF90DF900C9401298F929F92AF92BF9208
:101C4000CF92DF92EF92FF920F931F93CF93DF9388
:101C5000C62FD42F822E902E209123012A3009F0F6
:101C600080C00E941E05682D70E080E090E01F9209
:101C70001F921F9227E72F9333E0A32EB12CC12C84
:101C8000D12C14E6E12EF12C00E010E021E030E050
:101C900040E050E00E946C35E0910606F0910706A6
:101CA000262F30E00684F785E02DEE24E394F12C16
:101CB0000EE110E04EE150E060E070E086E096E07A
:101CC0000995E0910606F09107060484F585E02D5C
:101CD00027E730E04EE150E060E070E086E096E01B
:101CE000099564E086E096E00E94E42D61E070E0F2
:101CF00086E096E00E94EA2D40E050E064E170E06A
:101D000086E096E00E94DE2D4AE050E0682D86E0F5
:101D100096E00E945F3580E591E00E940405BC01D9
:101D200086E096E00E94923440E050E060E070E08F
:101D300086E096E00E94DE2D0F900F900F900F909E
:101D400081E3881510F069E101C068E1E0910606C1
:101D5000F09107060190F081E02D86E096E009956C
:101D600014C185E10E948C3105970CF4DAC0682D0E
:101D700070E080E090E01F921F921F9227E72F9360
:101D8000B3E0AB2EB12CC12CD12C14E6E12EF12CFA
:101D900000E010E021E030E040E050E00E946C35CF
:101DA000E0910606F0910706A684B784C62ED12CD2
:101DB00086E096E00E94FD2D27E730E02C193D09D2
:101DC000AC014B515109B601695F7F4FE12CF12CF9
:101DD0000DE010E086E096E0F50109950F900F9078
:101DE0000F900F90E0910606F0910706A684B78445
:101DF00086E096E0C130C9F00E94FD2DAC014B5148
:101E00005109E12CF12C0DE010E027E730E067E00C
:101E100070E086E096E0F5010995E0910606F09104
:101E20000706A484B58486E096E00E94FD2DAC01EF
:101E30004B515109EE24E394F12C960167E070E0D8
:101E400086E096E0F5010995692D70E080E090E06C
:101E50001F921F921F9227E72F93F3E0AF2EB12C12
:101E6000C12CD12C14E6E12EF12C00E010E021E091
:101E700030E040E050E00E946C35E0910606F091C1
:101E80000706A684B784C62ED12C86E096E00E9471
:101E9000FD2D27E730E02C193D09AC014D505109CB
:101EA000B601695F7F4FE12CF12C0DE010E086E078
:101EB00096E0F50109950F900F900F900F90E0912B
:101EC0000606F0910706A684B78486E096E0C23045
:101ED000C9F00E94FD2DAC014D505109E12CF12CAF
:101EE0000DE010E027E730E067E070E086E096E084
:101EF000F5010995E0910606F0910706A484B584E2
:101F000086E096E00E94FD2DAC014D505109EE2473
:101F1000E394F12C960167E070E086E096E0F5012D
:101F20000995D43178F50E94DD302AEF30E040E0A9
:101F300050E00E94013821E030E06D3771058105E5
:101F4000910510F020E030E040E050E0B90186E07B
:101F500096E00E94F02D86E096E00E94FD2DAC01F7
:101F6000425151096DE270E086E096E00E94DE2D5C
:101F700085E491E00E940405BC0186E096E00E94A1
:101F8000923403C085E10E948C3186E096E0DF91B7
:101F9000CF911F910F91FF90EF90DF90CF90BF9066
:101FA000AF909F908F900C940129CF92DF92EF9287
:101FB000FF920F931F93CF93DF93EC01D62E0E94D5
:101FC0001E058BE391E00E940405BC01CE010E9436
:101FD0005005E0910606F0910706C685D78586E094
:101FE00096E00E94F92D2AE0D29EA0011124445FC0
:101FF0005F4FEE24E394F12C0AE010E09C0160E0D6
:1020000070E086E096E0FE01099561E070E0D11095
:1020100002C060E070E086E096E00E94EA2D4DE0AC
:1020200050E065E070E086E096E00E94DE2D86E3F9
:1020300091E00E940405BC0186E096E00E94923483
:1020400061E070E0F1E0DF1202C060E070E086E085
:1020500096E00E94EA2D47E150E065E070E086E0FE
:1020600096E00E94DE2D8BE291E00E940405BC0107
:1020700086E096E00E94923461E070E022E0D212A5
:1020800002C060E070E086E096E00E94EA2D41E246
:1020900050E065E070E086E096E00E94DE2D80E290
:1020A00091E00E940405BC0186E096E00E94923413
:1020B00061E070E086E096E00E94EA2DE09106067D
:1020C000F0910706C485D58586E096E00E94F92D3B
:1020D0006C0186E096E00E94FD2DAC01455151094E
:1020E000EE24E394F12C0BE010E0960160E070E048
:1020F00086E096E0FE01099586E096E00E94FD2DBF
:10210000AC014351510965E070E086E096E00E9421
:10211000DE2D8DE191E00E940405BC0186E096E091
:102120000E94923486E096E00E94FD2DAC01495059
:10213000510965E070E086E096E00E94DE2D8BE1BB
:1021400091E00E940405BC0186E096E00E94923472
:1021500086E096E0DF91CF911F910F91FF90EF9075
:10216000DF90CF900C940129AF92BF92CF92DF9273
:10217000EF92FF920F931F93CF93DF93C62FD22F2F
:10218000642F70E080E090E01F921F921F922CE677
:102190002F93A12CB12C6501A39414E6E12EF12C10
:1021A00000E010E021E030E040E050E00E946C35BB
:1021B000E0910606F0910706A684B784C62ED12CBE
:1021C00086E096E00E94FD2D2CE630E02C193D09BA
:1021D000AC0143515109B6016E5E7F4FE12CF12CE9
:1021E00007E010E086E096E0F50109950F900F906A
:1021F0000F900F90E0910606F0910706A684B78431
:1022000086E096E0C130C1F00E94FD2DAC01435143
:102210005109E12CF12C07E010E0960162E170E039
:1022200086E096E0F5010995E0910606F091070633
:10223000A484B58486E096E00E94FD2DAC01435154
:102240005109EE24E394F12C960162E170E086E0FE
:1022500096E0F50109956D2F70E080E090E01F9207
:102260001F921F922CE62F93A12CB12C6501A394F1
:1022700014E6E12EF12C00E010E021E030E040E037
:1022800050E00E946C35E0910606F0910706A684A6
:10229000B784C62ED12C86E096E00E94FD2D2CE658
:1022A00030E02C193D09AC0149505109B6016E5E70
:1022B0007F4FE12CF12C07E010E086E096E0F5017D
:1022C00009950F900F900F900F90E0910606F091F6
:1022D0000706C23019F4C685D7851AC0C685D785CA
:1022E00086E096E00E94FD2DAC0149505109E12C99
:1022F000F12C07E010E0960162E170E086E096E0E4
:10230000FE010995E0910606F0910706C485D58582
:1023100086E096E00E94FD2DAC0149505109EE2463
:10232000E394F12C960162E170E086E096E0FE0114
:10233000099586E096E0DF91CF911F910F91FF9074
:10234000EF90DF90CF90BF90AF900C94012908954B
:102350008F929F92AF92BF92CF92DF92EF92FF92B5
:102360000F931F93CF93DF93EC01D62EB42EA22EA2
:10237000902EC12E8E2C0E941E0580E191E00E94BD
:102380000405BC01CE010E945005E0910606F091C3
:102390000706C685D78586E096E00E94F92D2AE0DB
:1023A000D29EA0011124445F5F4FEE24E394F12CF0
:1023B0000AE010E09C0160E070E086E096E0FE013B
:1023C000099561E070E0D11002C060E070E086E045
:1023D00096E00E94EA2D4DE050E065E070E086E076
:1023E00096E00E94DE2D88E091E00E940405BC0189
:1023F00086E096E00E949234AA2019F08EEF90E0D9
:1024000002C084EF90E00E940405BC0186E096E0E3
:102410000E94923461E070E0F1E0DF1202C060E0FF
:1024200070E086E096E00E94EA2D47E150E065E02A
:1024300070E086E096E00E94DE2D8CEE90E00E9437
:102440000405BC0186E096E00E949234BB2019F09E
:1024500088EE90E002C084EE90E00E940405BC018A
:1024600086E096E00E94923461E070E022E0D212B1
:1024700002C060E070E086E096E00E94EA2D41E252
:1024800050E065E070E086E096E00E94DE2D8CED85
:1024900090E00E940405BC0186E096E00E94923420
:1024A00087FC4FC0E0910606F0910706C685D785E8
:1024B00086E096E00E94F92D9C012A523109E12C18
:1024C000F12C08E010E041E250E069E270E086E0C3
:1024D00096E0FE010995A82CBB24A7FCB094E091DE
:1024E0000606F0910706282D86E02802B001112487
:1024F000625D7F4F0684F785E02DEE24E394F12C96
:1025000027E030E041E250E086E096E00995C92DF1
:10251000DC2D00E010E061E070E00A151B0511F40D
:1025200060E070E086E096E00E94EA2D699186E026
:1025300096E00E9494340F5F1F4F0A30110559F73F
:1025400006C0692D7C2D86E096E00E94923461E001
:1025500070E093E0D91202C060E070E086E096E09F
:102560000E94EA2D4BE250E065E070E086E096E0E4
:102570000E94DE2D8DEC90E00E940405BC0186E0F7
:1025800096E00E94923461E070E0E4E0DE1202C066
:1025900060E070E086E096E00E94EA2D45E350E0BE
:1025A00065E070E086E096E00E94DE2D81EC90E030
:1025B0000E940405BC0186E096E00E94923486E009
:1025C00096E0DF91CF911F910F91FF90EF90DF90F8
:1025D000CF90BF90AF909F908F900C940129DF9285
:1025E000EF92FF920F931F93CF93DF93EC01D42EC2
:1025F00089010E941E0583EB90E00E940405BC0146
:10260000CE010E94500561E070E086E096E00E94F5
:10261000EA2D4CE050E065E070E086E096E00E9434
:10262000DE2D84EA90E00E940405BC0186E096E07D
:102630000E9492344CE150E065E070E086E096E064
:102640000E94DE2D8EE990E00E940405BC0186E028
:1026500096E00E9492344CE150E066E270E086E041
:1026600096E00E94DE2D6D2D67706F5F4AE050E0AE
:1026700086E096E00E945F358DE9E8168FEFF80658
:1026800081F082E990E00E940405BC0186E096E0BA
:102690000E9492344AE050E0B70186E096E00E9442
:1026A0004A3544E250E065E070E086E096E00E9442
:1026B000DE2D84E890E00E940405BC0186E096E0EF
:1026C0000E94923444E250E066E270E086E096E0D8
:1026D0000E94DE2D4AE050E0B80186E096E00E94BC
:1026E000663586E096E00E94F92D8254910997FDA7
:1026F0000196BC017595679544E350E086E096E04D
:102700000E94DE2D88E790E00E940405BC0186E06F
:1027100096E00E94923486E096E0DF91CF911F917F
:102720000F91FF90EF90DF900C94012964E086E018
:1027300096E00C943827AF92BF92CF92DF92EF923F
:10274000FF920F931F93CF93DF931F92CDB7DEB706
:102750008C018FEFF8018283C80169830E941E05F6
:102760006981693019F489E992E009C0633019F48C
:102770008DE892E004C0613041F48EE792E00E945F
:102780000405BC01C8010E94500561E070E086E0CC
:1027900096E00E94EA2D86E096E00E94F92D01E085
:1027A00010E09C0144E150E060E070E086E096E0DB
:1027B0000E940E2486E096E00E94F92D9C0140E2E2
:1027C00050E060E070E086E096E00E940E244CE06D
:1027D00050E065E070E086E096E00E94DE2DE0913A
:1027E0000606F09107060680F781E02DEE24E394BB
:1027F000F12C04E110E021E630E04BE050E061E62E
:1028000070E086E096E0099588E792E00E94040572
:10281000BC0186E096E00E94923411E308E0C02EED
:10282000D12C47E150E0B60186E096E00E94DE2D13
:10283000612F86E096E00E949434FFE0CF0ED11C19
:102840001F5F193371F7E0910606F0910706C68005
:10285000D78086E096E00E94F92DEE24E394F12CD7
:1028600004E210E09C0144E250E060E070E086E0A9
:1028700096E0F6010995E0910606F0910706A6801C
:10288000B78086E096E00E94FD2D8C0186E096E000
:102890000E94F92D6C0186E096E00E94FD2D0B5000
:1028A0001109AC014B505109960160E070E086E0DF
:1028B00096E0F501099586E096E00E94FD2DAC01B9
:1028C0004950510962E070E086E096E00E94DE2DFA
:1028D00083E792E00E940405BC0186E096E00E9436
:1028E000923486E096E00E94FD2DAC0149505109DA
:1028F00067E370E086E096E00E94DE2D8EE692E0CF
:102900000E940405BC0186E096E00E94923486E0B5
:1029100096E00E94FD2D8C0186E096E00E94F92D44
:10292000A80149505109BC016951710986E096E03E
:102930000E94DE2D89E692E00E940405BC0186E03B
:1029400096E00E94923486E096E00F90DF91CF915E
:102950001F910F91FF90EF90DF90CF90BF90AF90BD
:102960000C9401290C94B2380C94BA38CF93DF93AD
:10297000EC0161E08DE00E940B3280910E01882312
:1029800021F060E086E00E940B32BE0176956795EB
:1029900080E090E00E940C3160E08DE00E940B32FC
:1029A00061E086E0DF91CF910C940B32982FE1E348
:1029B000F3E080E02491291729F08F5F319680336E
:1029C000C9F780E008950E94DD3060936806709337
:1029D000690680936A0690936B060E94DD30209111
:1029E000700630917106621B730B6931710548F4F2
:1029F00089E190E0861B970BBC0180E090E00C948D
:102A00000C31089598B19C7F813011F4916001C020
:102A1000926098B980932601089560E08CE00E944E
:102A20000B3281E090E00E94463161E08AE00E9432
:102A30000B3281E090E00E94463161E08CE00E9420
:102A40000B3281E090E00E94463160E08CE00E9411
:102A50000B3281E090E00C94463160E08CE00E9403
:102A60000B3281E090E00E94463160E08AE00E94F3
:102A70000B3281E090E00E94463161E08CE00E94E0
:102A80000B3281E090E00E94463160E08CE00E94D1
:102A90000B3281E090E00C94463181E090E00E949E
:102AA000463160E08BE00E940B3281E090E00C94B4
:102AB000463181E090E00E94463161E08BE00E9467
:102AC0000B3281E090E00C9446311F93CF93DF935B
:102AD000E82FF0E0EE0FFF1FEF50FC4FC591D491AF
:102AE0000E94591581E090E00E9446310E944D15E8
:102AF0000E942D150E942D150E942D150E940D1566
:102B00000E942D1514E10E942D151150E1F70E942D
:102B1000591581E090E00E9446310E944D150E94B7
:102B200059150E944D150E940D150E942D150E94E9
:102B30002D150E942D150E940D1510E1C0FF03C038
:102B40000E940D1502C00E942D15D695C7951150F3
:102B5000A9F70E942D150E942D150E942D150E9487
:102B60002D150E94591581E090E00E94463160E0E9
:102B70008BE00E940B3260E08CE00E940B3260E040
:102B80008AE0DF91CF911F910C940B320F931F932A
:102B9000CF93DF9326E040E051EE60E070E08DE4FB
:102BA00097E00E944D3361E08DE00E94D23161E0F8
:102BB0008DE00E940B3261E086E00E94D23161E03C
:102BC00086E00E940B3260E082E00E94D23162E037
:102BD00082E00E940B3260E083E00E94D23162E02A
:102BE00083E00E940B3260E084E00E94D23162E018
:102BF00084E00E940B3260E085E00E94D23162E006
:102C000085E00E940B3261E08EE00E94D23161E0EB
:102C10008FE00E94D23181E00E94021561E08BE0DA
:102C20000E94D23161E08AE00E94D23161E08CE002
:102C30000E94D23180E090E00E94B2148F3F09F0F0
:102C40005EC061E080E090E00E94B41460E081E04A
:102C500090E00E94B41460910E018BE090E00E941D
:102C6000B41460910D0181E790E00E94B41460916A
:102C70000C018CE090E00E94B4146AE582E090E0E0
:102C80000E94B41460E083E090E00E94B4146CED04
:102C900084E090E00E94B41460E085E090E00E943F
:102CA000B41462EA75E088E596E00E94863808E58B
:102CB00016E0C4E1D0E0F80161918F01CE010E94DD
:102CC000B4142196CE31D105B1F76091780686E033
:102CD00090E00E94B4146AE587E090E00E94B4148A
:102CE00060E088E090E00E94B4146CED89E090E030
:102CF0000E94B41460E08AE090E00E94B41480E086
:102D000090E00E94B2148093230181E090E00E9441
:102D1000B21480937B060E94651580917B06809398
:102D200075068BE090E00E94B21491E0811101C021
:102D300090E090930E0181E790E00E94B21491E040
:102D4000811101C090E090930D018CE090E00E9411
:102D5000B21491E0811101C090E090930C0108E55C
:102D600016E0C4E1D0E0CE010E94B214F8018193D4
:102D70008F012196CE31D105B1F783E090E00E941A
:102D8000B214C82F82E090E00E94B2142C2F30E0E1
:102D9000322F2227282B30931E0120931D0185E01E
:102DA00090E00E94B214C82F84E090E00E94B21418
:102DB0002C2F30E0322F2227282B30931C01209318
:102DC0001B0186E090E00E94B2148093780688E0B0
:102DD00090E00E94B214C82F87E090E00E94B214E5
:102DE0002C2F30E0322F2227282B309316012093EE
:102DF00015018AE090E00E94B214C82F89E090E0AB
:102E00000E94B2142C2F30E0322F2227282B30932F
:102E100014012093130181E08093650668E576E054
:102E20008DE796E00E94350518168CF48DE00E941F
:102E3000413261E0892B09F060E08DE00E940B32A5
:102E400064E670E080E090E00E940C31EFCF85E115
:102E50000E948C31059714F41092780660E08DE0A2
:102E6000DF91CF911F910F910C940B3220E030E055
:102E7000F901EE0FFF1FEF5BFE4F408151814F3F85
:102E8000510539F48F3F910521F0918380832CE027
:102E900030E02F5F3F4F2A30310554F308950F93F0
:102EA0001F93CF93DF93CDB7DEB7C555D1090FB6CA
:102EB000F894DEBF0FBECDBF20910D018091390186
:102EC00090913A01211105C08D392FEF920709F039
:102ED000ACC040E250E060E070E021964CAF5DAFE6
:102EE0006EAF7FAF219722961FAE22978E01075DAE
:102EF0001F4F24E1D8011D922A95E9F74AE0BE014F
:102F00006F5A7F4F0E948D384AE0BE01645B7F4F4D
:102F100080913B0190913C010E948D384AE0BE01B6
:102F2000695B7F4F80913D0190913E010E948D38F9
:102F30004AE0BE016E5B7F4F80913F01909140015E
:102F40000E948D3888E0EAE7F5E0DE0155960190B1
:102F50000D928A95E1F7FE017D968CE0DF011D92CE
:102F60008A95E9F78AE0EEE8F5E0DE011196019036
:102F70000D928A95E1F7FE013B968AE0DF011D92F2
:102F80008A95E9F767E271E0C8010E947B38809179
:102F9000390190913A018D399F4F39F080913F016D
:102FA000909140010196A1F409C0FE017596D801E7
:102FB00081918D93E017F107D9F7F0CFFE0131969B
:102FC000D801CE01459621912D93E817F907D9F73D
:102FD000BE01635C7F4FC8010E947B38BE016F5AFF
:102FE0007F4FC8010E947B38BE01635C7F4FC801E0
:102FF0000E947B38BE01645B7F4FC8010E947B3812
:10300000BE01635C7F4FC8010E947B38BE01695BD3
:103010007F4FC8010E947B38B8018DE497E00E9481
:103020009F341092400110923F01CB5ADF4F0FB6F0
:10303000F894DEBF0FBECDBFDF91CF911F910F91EE
:1030400008952F923F924F925F926F927F928F924C
:103050009F92AF92BF92CF92DF92EF92FF920F9327
:103060001F93CF93DF9300D0CDB7DEB7382EAAE001
:10307000FA2E00E010E0C12CD12C84E10E948C31AA
:1030800084E10E948C31C80ED91E85E10E948C31EA
:1030900085E10E948C31080F191FFA9471F72AE01C
:1030A00030E0C601B9010E94ED37FB01C801B9014A
:1030B0000E94ED374B0180912301873061F58091AB
:1030C000190190911A01E817F90720F4F0931A01F9
:1030D000E093190180911701909118018E179F07B5
:1030E00020F4F0931801E093170180911101909161
:1030F00012018816990620F4909212018092110113
:1031000080910F01909110018815990520F49092FB
:10311000100180920F01E0901B01F0901C0100E073
:1031200010E020911D0130911E0140E050E0BF01F0
:10313000882777FD8095982F1F921F921F92E4E6B3
:103140002E2E2F92A12CB12C6501A3940E946C35D8
:103150002B013C017A836983E0901301F090140104
:1031600000E010E0209115013091160140E050E0A0
:10317000B401882777FD8095982F1F921F921F9288
:103180002F920E946C356B017C018B010FB6F89475
:10319000DEBF0FBECDBF3FEF331260C08091780617
:1031A000882321F0823009F051C053C0B60188272E
:1031B00077FD8095982F0E94C6364B015C01B201C5
:1031C000882777FD8095982F0E94C636A501940127
:1031D0000E94C635A50194010E942B3620E030E004
:1031E00048EC52E40E947A374B015C0120E030E069
:1031F000A9010E94763718161CF4C501B40103C05A
:10320000C501B40190580E94933664307105DCF01A
:1032100080917706E981FA810E171F0724F41816AA
:1032200064F4815008C029813A81201731072CF4B9
:1032300087301CF48F5F8093770680917706882310
:1032400029F0873034F43090260105C033243394BC
:1032500002C0B2E03B2E832D0E94021531E03316EE
:1032600021F080912301873011F4820101C0860191
:103270008090680690906906A0906A06B0906B06F0
:1032800081149104A104B10429F10E94DD30E0E42D
:103290008E0EEFE19E1EA11CB11C86169706A80695
:1032A000B906C0F4809123018830A1F44091260131
:1032B0008091250184131BC08091790690E09801CC
:1032C0002C5331098217930794F028583F4F281741
:1032D00039076CF0101611063CF4C80105361105CB
:1032E0007CF184E690E02CC081E090E029C040931E
:1032F00025010093790650923A0140923901D0920B
:103300003C01C0923B01832D992787FD90959093B6
:103310003E0180933D018FEF9FEF9093400180939A
:103320003F010E944F1781E090E0A0E0B0E0809361
:10333000680690936906A0936A06B0936B06CACF9D
:103340000F900F90DF91CF911F910F91FF90EF9011
:10335000DF90CF90BF90AF909F908F907F906F90B5
:103360005F904F903F902F9008958FEF0C9421180D
:103370008DE796E00C9419058DE497E00E946A327F
:103380001816190694F48DE497E00E9483328D3567
:1033900011F482E003C08B3521F481E08093520662
:1033A00008951092520680E0089508954F925F921A
:1033B0006F927F928F929F92AF92BF92CF92DF9245
:1033C000EF92FF920F931F93CF93DF931F92CDB78E
:1033D000DEB783E00E944132892B09F049C0109288
:1033E0006C0610926D0610926E0610926F0682E3C4
:1033F00090E00E94B61464E670E080E090E00E94E5
:103400000C3182E390E00E94B61464E670E080E044
:1034100090E00E940C3110E083E00E944132892B41
:1034200019F41A3009F0A4C710923A011092390128
:1034300083E090E090933C0180933B010E944F1702
:1034400080912301811103C081E0809323011A3010
:1034500008F400C786E0809323018EEF9FEF9093DE
:103460003A01809339010E944F178FEF8093210119
:103470001092760685E00E944132892B19F486E08D
:10348000809323018091650660912301811105C01D
:1034900080912101681709F40DC21092650663300E
:1034A00009F4B6C748F4613009F46AC0623009F023
:1034B000FDC16093220151C0673021F1693009F4E8
:1034C000D7C1663009F0F2C160917B0681E090E0DF
:1034D0000E94B4146091220180E090E00E94B41434
:1034E00060910E018BE090E00E94B41460910C0199
:1034F0008CE090E00E94B41408E516E034E1E32E7D
:10350000F12C56C0E2E3F0E0F0931E01E0931D01C0
:103510004CE251E050931C0140931B012CED30E034
:1035200030931A01209319018AE590E090931801D5
:1035300080931701F0931601E09315015093140145
:1035400040931301309312012093110190931001C5
:1035500080930F0183E08093620610927C06E1E382
:10356000F3E0E491E0937B06109264061092630608
:1035700081E0809366068DE796E00E94D60A96C1A8
:1035800080E5809324011092640610926306609394
:10359000740610926C0610926D0610926E061092D0
:1035A0006F06609123018DE796E00E949B136AC12C
:1035B000F80161918F01C7010E94B414FFEFEF1A67
:1035C000FF0A2EE1E216F10499F76091780686E091
:1035D00090E00E94B41480912101853009F473C0F9
:1035E00080912201893009F46EC080916701909129
:1035F00068010E94B2148F3FE9F08CE690E00E94CF
:10360000B214082F10E00930110519F00F5F1F4F99
:1036100002C000E010E0F801EE0FFF1FEB5AFE4F72
:103620006FEF808191810E94B414602F8CE690E04E
:103630000E94B414E12CF12CF701EE0FFF1FEB5A9E
:10364000FE4F00811181C8010E94B2148F3F69F4BE
:1036500060917B06C8010E94B4146E2D8CE690E048
:103660000E94B4148CE0E82EF12C8FEFE81AF80ACF
:10367000EAE0EE16F10404F38EEF9FEF90933A0127
:103680008093390110923C0110923B010E944F1728
:103690008CE690E00E94B21440917B06E42FF0E0AB
:1036A000EE0FFF1FEF56FC4F25913491E82EF12CC1
:1036B000FFEFEF1AFF0A08E516E0609122018DE79F
:1036C00096E00E94EF1280912101853011F58EEF76
:1036D0009FEF90933A018093390110923C01109230
:1036E0003B010E944F1740917B06E42FF0E0EE0F64
:1036F000FF1FEF56FC4F259134911DE9E12EFF2469
:10370000FA9408E516E0609122018DE796E00E94A8
:10371000EF1280912201893009F08FC08091210140
:103720008F3F09F08AC08DEF9FEF90933A0180930D
:10373000390110923C0110923B010E944F17E09119
:103740005306F0915406EE0FFF1FEB5AFE4F6FEF3A
:10375000808191810E94B414E0917B06F0E0EE0F2D
:10376000FF1FEF56FC4F65917491409153064F5FD8
:103770008DE796E00E946A07E1E4F1E08FEF90E0C8
:103780008193919321E0E535F207D1F705E511E04A
:10379000F801819191918F010E94B2148F3F19F02D
:1037A00090E00E943617F1E009361F0789F705E51A
:1037B00011E061E4E62E61E0F62EF7016081F2E0AF
:1037C000EF0EF11CF801819191918F010E94B414C8
:1037D000F5E5EF16F1E0FF0681F71092560668EE68
:1037E00073E080E090E00E940C3160E08CE690E0B5
:1037F0000E94B4140091550110915601C8010E9415
:10380000B21480937B061092540610925306C8019E
:103810000E94B21480937B0661E08DE796E00E94DF
:10382000E50780917B060E94D61480937C06609108
:103830007B0681E090E00E94B41415E084E690E0FD
:103840000E94B61464E670E080E090E00E940C31C3
:103850001150A1F760E273E080E090E00E940C312B
:10386000809122018093230181E0809365061EC030
:103870000E94DD3060936C0670936D0680936E0637
:1038800090936F0680912201823031F0893021F0CF
:1038900080912101873031F481E090E00E94B214E0
:1038A00080937B06809123018093220180912301E4
:1038B0008093210180912301982F9D7F983009F0FA
:1038C0006BC080917B06E82FF0E0EE0FFF1FEF56F4
:1038D000FC4F25913491E82FF0E0EF59FC4F4491D3
:1038E00008E516E0609178068DE796E00E94040DE9
:1038F0000E94DD3060936C0670936D0680936E06B7
:1039000090936F065DE9A52EBB24BA940E94B51969
:1039100080937A06C0906C06D0906D06E0906E069B
:10392000F0906F06C114D104E104F10471F00E941B
:10393000DD3020E7C20E27E1D21EE11CF11CC616C5
:10394000D706E806F90608F46EC582E00E94211841
:10395000082F81E00E942118282F40917A0660915B
:1039600026018DE796E00E941C0E83E00E94413202
:10397000019709F067C582E00E944132019709F082
:1039800061C584E00E944132019709F05BC50E9445
:10399000BC19811157C5BACF843009F05FC01091AE
:1039A000780601E010937806612F8DE796E00E947B
:1039B000D50F0E94B51982E00E942118282F81E0BE
:1039C00029830E9421182981482F609126018DE7C3
:1039D00096E00E94B41083E00E944132019771F496
:1039E00082E00E944132019749F484E00E94413212
:1039F000019721F40E94BC198823D9F283E00E9428
:103A00004132892B09F423C582E00E944132892B7F
:103A100009F423C580915206813009F41EC584E063
:103A20000E944132892B09F41AC5809152068230D6
:103A300009F415C513300CF40CC510E082E390E0D6
:103A40000E94B61468EC70E080E090E00E940C31B7
:103A50000111A8CF8091220180932301809123013D
:103A6000893019F0109256067CC00E94E3140E941F
:103A7000B51980937A06209163063091640690E030
:103A80008217930708F4C901909364068093630634
:103A90000E94DD3060936C0670936D0680936E0615
:103AA00090936F068091560681111FC069E080E0F7
:103AB00090E00E94B4141092570635E5E32E31E0F1
:103AC000F32E10E001E0F701819191917F010E94B6
:103AD000B2148F3F21F010935506009357061F5FD5
:103AE0001A3089F781E08093560682E00E944132C5
:103AF000892B09F4BAC480915206813009F4B5C407
:103B000084E00E944132892B09F413C5809152064A
:103B1000823009F40EC5809157068111A2C48DE749
:103B200096E00E94180884E090E090933A01809318
:103B30003901E0917B06F0E0EE0FFF1FEF56FC4FDE
:103B40008591949190933C0180933B018091530621
:103B500090915406019690933E0180933D010E94FE
:103B60004F1780912301982F9D7F913009F0B6C1A6
:103B70000E94E3140E94B51980937A060E94BC1932
:103B80008093520680917B060E94D61480937C0617
:103B900080912301833009F08EC083E090E0909300
:103BA0003A018093390182E00E944132892B21F051
:103BB00080915206813039F50E94DD3060936C06A9
:103BC00070936D0680936E0690936F0682E390E08B
:103BD0000E94B61468EC70E080E090E00E940C3126
:103BE0001092520690917B069F5F90937B06809186
:103BF0007C068F5F80330CF401C510927C069033F5
:103C000010F010927B0684E00E944132892B21F053
:103C100080915206823039F50E94DD3060936C0647
:103C200070936D0680936E0690936F0682E390E02A
:103C30000E94B61468EC70E080E090E00E940C31C5
:103C40001092520690917B06915090937B06809142
:103C50007C06815087FD8FE280937C06903318F0BC
:103C60008FE280937B0680917B0690E0880F991FFE
:103C70008F569C4FFC012591349140913B0150910E
:103C80003C014217530749F0FC01859194919093B0
:103C90003C0180933B010E944F1780910C018111E0
:103CA0000AC0E0917C06FF27E7FDF095EF5CFC4F32
:103CB000E491E0937B0680912301813009F0A2C05A
:103CC00082E090E090933A0180933901609163061D
:103CD0007091640680E090E00E94C4362DEC3CECCC
:103CE0004CE45FE30E947A370E94933620912401CE
:103CF00030E02617370714F46093240120916706FB
:103D0000211144C020917406211114C030917A060B
:103D100020912401231770F481E0809367060E94AC
:103D2000DD3060936C0670936D0680936E06909301
:103D30006F062CC01092740620917C0630912001F1
:103D4000230F20937C0620332CF0609324011092E3
:103D50007C0607C027FF09C0609324018FE280938F
:103D60007C061092640610926306809124018530CF
:103D700008F485E080932401E0917C06FF27E7FDAD
:103D8000F095EF5CFC4FE491E0937B060E94BC1938
:103D90008093520682E00E944132892B51F084E0E8
:103DA0000E944132892B29F0809152068150823045
:103DB00038F582E00E944132892B09F422C48091B7
:103DC0005206813009F41DC48FEF8093200182E3F5
:103DD00090E00E94B6141092520668EC70E080E009
:103DE00090E00E940C3181E0809374061092670687
:103DF00010926C0610926D0610926E0610926F066D
:103E00000E944F1780906C0690906D06A0906E06F1
:103E1000B0906F06F8E88F0EF3E19F1EA11CB11C55
:103E20000E94DD30C0906C06D0906D06E0906E066A
:103E3000F0906F0686169706A806B90650F4C114CE
:103E4000D104E104F10429F080917A06833308F06B
:103E5000DAC3C114D104E104F10471F00E94DD3031
:103E600020E7C20E27E1D21EE11CF11CC616D706C0
:103E7000E806F90608F4C7C340917B0680917506F1
:103E8000841709F41AC1E42FF0E0EE0FFF1FEF567C
:103E9000FC4FE590F490AA24A394809167068111C9
:103EA00001C0A12CC090240100917A0620917C06CB
:103EB000609123018DE796E00E944708E0917B0620
:103EC000F0E0EE0FFF1FEF56FC4F85919491909319
:103ED0003C0180933B010E944F17EFC0823019F0E4
:103EE000873009F0EAC08FEF9FEF90933A018093FB
:103EF00039010E944F1780916606882351F0109275
:103F0000660680917B060E94651580917B068093F2
:103F100075060E94E3140E94B51980937A06709189
:103F20002301723079F4813568F09C013327409188
:103F30006306509164064217530720F430936406D9
:103F40002093630620917B06E22FF0E0EF59FC4FAF
:103F50000491E22FF0E0EE0FFF1FEF56FC4FE590CB
:103F6000F490A0901701B0901801C0901901D09062
:103F70001A0161E0773009F060E0282F40917C065B
:103F80008DE796E00E94A70B80917C068F3224F487
:103F90008F5F80937C0678C010927C06809123010D
:103FA000873009F071C0809162069FEF980F90935F
:103FB0006206811169C06091190180911A016093B4
:103FC0001D0180931E0180911701909118018D377A
:103FD000910510F48CED90E090931C0180931B01EF
:103FE00082E090E00E94B41460911E0183E090E0B2
:103FF0000E94B41460911B0184E090E00E94B4140C
:1040000060911C0185E090E00E94B41485E10E945B
:104010008C3105977CF160911101809112016093C0
:1040200015018093160180910F01909110019093DA
:104030001401809313018D37910530F48CED90E0DD
:10404000909314018093130187E090E00E94B414D0
:104050006091160188E090E00E94B4146091130111
:1040600089E090E00E94B414609114018AE090E02D
:104070000E94B41480E090E00E94B2148093230167
:1040800088EE93E00E94B6140E94BC1980935206F9
:1040900082E00E944132892B09F4C1C2809152060C
:1040A000813009F4BCC2E0917C06FF27E7FDF09562
:1040B000EF5CFC4FE491E0937B0680912301853017
:1040C00009F081C08DE796E00E94A71181E090E0A1
:1040D00090933A018093390190933C0180933B0186
:1040E0000E944F1744244A94542CF12CBB24B394BF
:1040F00040E2A42E5DE7952E67E0862E76E0772ECF
:1041000066246394CC24C394D12CE42C08E516E0F7
:1041100020910C0140910E016F2D8DE796E00E94D9
:10412000A81112E3115009F4DAC283E00E9441326F
:104130000197A9F482E00E944132019781F484E062
:104140000E944132019759F40E94BC19811107C0A5
:1041500064E670E080E090E00E940C31E3CF83E001
:104160000E944132892B09F0EBC282E0F81609F473
:10417000CDC28F150CF4C1C2F110B6C280910C01F2
:10418000862580930C01D0923A01C09239018F2D7F
:10419000992787FD9095019690933C0180933B0170
:1041A0000E944F1782E390E00E94B61466E970E027
:1041B00080E090E00E940C312FEF4216520609F485
:1041C000D7C2B110A2CF80917B0690917506981747
:1041D00009F412C30E94651580917B0680937506D1
:1041E0000E94DD30609370067093710680937206B2
:1041F0009093730680911F01882309F4FDC21092E9
:104200001F0184E690E00E94B61464E670E080E04E
:1042100090E00E940C3184E690E00E94B61464E6BF
:1042200070E080E090E00E940C3184E690E00F9016
:10423000DF91CF911F910F91FF90EF90DF90CF9082
:10424000BF90AF909F908F907F906F905F904F90B6
:104250000C94B61472E0C72EE2E37E2EFAE0FF2E35
:10426000A5E0DA2EB9E0BB2E14E0A12E03E0902EDB
:1042700082E0882EEE24E39497E0492E512C0DE93C
:104280001FEF8C2D992787FD9095A92FB92F883086
:10429000910550F5FC01EC5CFF4F0C944238E09224
:1042A0002301E0927406109267062AC080922301CF
:1042B000E092660625C09092230122C085E10E940B
:1042C0008C3105971CF0A09223011AC0D0922301D3
:1042D00064E0C62E15C0B092230112C0D092230113
:1042E00006C0F092230103C024E02C154CF4409149
:1042F0000D016BEF6C0D8DE796E00E94C30505C0C4
:104300006C2D8DE796E00E948C0683E00E9441327E
:10431000892BB1F182E00E944132892B89F184E03E
:104320000E944132892B61F10E94BC19813041F118
:104330000E94BC19823021F17A9459F183E00E94E5
:104340004132019701F582E00E9441320197D9F490
:1043500084E00E9441320197B1F40E94BC1981119E
:1043600012C064E670E080E090E00E940C31E4CF7F
:1043700064E670E080E090E00E940C311F5F4CC862
:1043800092E3792EC2CF83E00E944132892B09F05B
:104390005FC186E0C8121DC060910D016E2560935B
:1043A0000D0181E790E00E94B41480910D0181110C
:1043B00005C010933A010093390108C010923A01E8
:1043C0001092390150923C0140923B010E944F17DC
:1043D00058CF83E00E944132892B21F08091220145
:1043E0008093230184E690E00E94B61462E370E0BB
:1043F00080E090E00E940C3184E690E00E94B614C8
:1044000062E370E080E090E00E940C310C94351A79
:104410000E94DD3060936C0670936D0680936E068B
:1044200090936F06BEC8B0923A01A09239010E94E3
:104430004F1710926C0610926D0610926E06109235
:104440006F0683CA8091220180932301D5C100E0C9
:10445000F1CA17FFF3CA12E0F1CA1150EBCA1F5F8D
:10446000E9CA88E0809323015ECB68EC70E080E0CD
:1044700090E00E940C318091530690915406019671
:1044800090935406809353062091550630E02817E8
:10449000390724F4109254061092530600915306E3
:1044A00010915406F801EE0FFF1FEB5AFE4F80816A
:1044B00091810E94B21480937B068F3F99F161E055
:1044C000600F8DE796E00E94E50780917B060E94D1
:1044D000D61480937C060E94DD3060936C06709346
:1044E0006D0680936E0690936F0682E390E00E94C3
:1044F000B61468EC70E080E090E00E940C3180918E
:104500007C06803314F010927C0680917B06803309
:1045100010F010927B0660917B0681E090E00E9493
:10452000B414EECA015011091093540600935306B7
:10453000E7CA68EC70E080E090E00E940C31809166
:104540005306909154060197909354068093530616
:1045500097FF07C08091550690E090935406809392
:1045600053060091530610915406F801EE0FFF1FF9
:10457000EB5AFE4F808191810E94B21480937B069A
:104580008F3FA9F161E0600F8DE796E00E94E5079B
:1045900080917B060E94D61480937C060E94DD30B9
:1045A00060936C0670936D0680936E0690936F0611
:1045B00082E390E00E94B61468EC70E080E090E046
:1045C0000E940C3180917C0687FF03C08FE28093AC
:1045D0007C0680917B06803318F08FE280937B0607
:1045E00060917B0681E090E00E94B41494CA0F5F52
:1045F0001F4F10935406009353068DCA80937C0678
:10460000FECA81E0E2CB88E0809323018DE99FEF31
:1046100090933A01809339010E944F172DCC82E389
:1046200090E00E94B61468EC70E080E090E00E9498
:104630000C318FEF8093210110927C0681E08093F2
:1046400066061092640610926306109252062BCDF5
:1046500082E00E944132892B91F180915206813093
:1046600071F184E00E944132892BB9F180915206A8
:10467000823099F1E7E0EC152CF0C7FE04C057E05A
:10468000C52E01C0C12C82E390E00E94B61468ECF4
:1046900070E080E090E00E940C3110923A0110929C
:1046A00039018C2D992787FD9095019690933C01B7
:1046B00080933B010E944F1742E3742EE2CD7C2C85
:1046C000CA9485E10E948C310597A4F683E0C81254
:1046D000D1CF8EEFC82EC70CCDCFC394CBCF809156
:1046E0002201809323016FCDE1E0FE1237C080915B
:1046F0000E018F2580930E0146CDF3E0FF1679F071
:1047000024E0F2122BC07092230118C08FEF481AD8
:10471000580AEAE04E1651040CF06AC034CD1AE093
:1047200089E190E00E94B61469E170E080E090E0D9
:104730000E940C311150A1F780922301B12C23CD9E
:1047400082E00E944132892B21F080915206813013
:10475000B9F5EFEF4E165E0641F5FA94F4E0FF1559
:104760002CF0F7FE10CD24E0F22E0DCDF12C0BCD68
:1047700083E00E944132892B09F418CD82E00E9427
:104780004132892B09F412CD84E00E944132892BF9
:1047900009F40CCD0E94BC19813009F407CD0E94A8
:1047A000BC19823009F402CD0CCDF201E85AF94F60
:1047B00080818F5F8E3714F0A082D0CF8083CECFE0
:1047C00084E00E944132892B21F080915206823090
:1047D00029F6FFEF4F165F0611F4F394BFCFF201F5
:1047E000E85AF94F80818150803244F79082B6CFE9
:1047F00044244A94542CC7CC0F90DF91CF911F9141
:104800000F91FF90EF90DF90CF90BF90AF909F906F
:104810008F907F906F905F904F9008950F931F93AC
:10482000CF93DF93EC018D89823061F08330D9F032
:10483000813009F0C8C0EC81FD81E41BF50B319794
:10484000DB0118C08C819D81DC01A61BB70BBD016B
:104850008E819F81FC01E41BF50BAF014150510992
:10486000621B730BB0C0AE81BF81A61BB70BA21B2E
:10487000B30BFA01F7FD05C18C819D81E817F9079B
:104880000CF0FFC0B7FF04C02A0F3B1FA0E0B0E050
:104890008E819F81AD01420F531F841795071CF431
:1048A0009C012A1B3B0B121613060CF0EAC0422F88
:1048B0008A2F86958695869590E8899FE00DF11D53
:1048C0001124E758FE4FA77069F158E05A1B852F55
:1048D00090E0EC01CF58DE4F6881251760F4DC01D1
:1048E000A21BB1098FEF90E00A2E02C09595879523
:1048F0000A94E2F768230130110539F048F00230DC
:10490000110551F48081862706C08081862B03C063
:104910006095808186238083451708F4B2C0451BCB
:10492000E058FF4F4830A0F102301105A9F4DF0133
:10493000842F9C9190959C93A058BF4F88508830AD
:10494000C0F788EF840F869586958695B0E88B9F93
:10495000E00DF11D112419C081E00130110509F0AD
:1049600080E0982F9195EF01842F9883C058DF4FF6
:1049700088508830D0F788EF840F86958695869585
:1049800090E8899FE00DF11D1124E058FF4F47701A
:10499000442309F476C0A42FB0E0A759BE4F9C91E0
:1049A0000130110541F050F00230110509F069C0E5
:1049B0008081892706C08081892B03C090958081E2
:1049C000892380835EC057FD5CC08E819F8148171C
:1049D00059070CF056C077FF04C0260F371F60E060
:1049E00070E08C819D81FB01E20FF31F8E179F0702
:1049F0001CF49C01261B370B121613060CF041C049
:104A0000CA0157FD0796E3E095958795EA95E1F78A
:104A10009695982F88279795879587589E4F860F4C
:104A2000971F4770552761E070E001C0660F4A95F7
:104A3000EAF7462F0130110541F088F002301105E8
:104A400001F5FC01280F391F15C0FC01280F391F83
:104A5000E217F307B1F08081842B8193F9CF609541
:104A6000FC01280F391FE217F30759F080818623D4
:104A70008193F9CFE217F30721F080818427819396
:104A8000F9CFDF91CF911F910F9108950F931F934D
:104A9000CF93DF93FC018589823069F08330E1F0A8
:104AA000813009F082C0C481D581C41BD50BC21BE3
:104AB000D30BDB0117C084819581DC01A61BB70BEA
:104AC000BD016150710986819781DC01A41BB50B82
:104AD000AD01421B530B69C0A681B781A61BB70B62
:104AE0001197EA01B7FD08C186819781A817B90718
:104AF0000CF002C1D7FF04C02C0F3D1FC0E0D0E076
:104B000084819581AE01420F531F841795071CF4D1
:104B10009C012C1B3D0B121613060CF0EDC0CD01B1
:104B2000B7FD079643E0959587954A95E1F79695E9
:104B3000982F88279795879587589E4F8C0F9D1F94
:104B4000A770BB2741E050E00A2E01C0440F0A9431
:104B5000EAF7642F0130110549F098F00230110591
:104B600009F0CAC0FC01280F391F17C0FC01280F2B
:104B7000391FE217F30709F4BFC08081862B8193A8
:104B8000F8CF4095FC01280F391FE217F30709F40D
:104B9000B3C0808184238193F8CFE217F30709F42F
:104BA000ABC0808186278193F8CF77FDA5C0848133
:104BB0009581681779070CF09FC057FF04C0240F38
:104BC000351F40E050E086819781FA01E20FF31F24
:104BD0008E179F071CF49C01241B350B121613061D
:104BE0000CF08AC0522F842F869586958695FB01FE
:104BF000B0E88B9FE00DF11D1124E758FE4F477080
:104C000069F168E0641B862F90E0EC01CF58DE4F1D
:104C10004881261760F4DC01A21BB1098FEF90E0F8
:104C20000A2E02C0959587950A94E2F74823013031
:104C3000110539F048F00230110551F480818427C4
:104C400006C08081842B03C04095808184238083AB
:104C5000561708F451C0561BE058FF4F5830A0F1CA
:104C600002301105A9F4DF01852F9C9190959C934A
:104C7000A058BF4F88508830C0F788EF850F8695C1
:104C800086958695B0E88B9FE00DF11D112419C023
:104C900081E00130110509F080E0982F9195EF0136
:104CA000852F9883C058DF4F88508830D0F788EF21
:104CB000850F86958695869590E8899FE00DF11D74
:104CC0001124E058FF4F57705523B1F0A52FB0E0E5
:104CD000A759BE4F9C910130110539F048F00230C0
:104CE000110551F48081892706C08081892B03C07A
:104CF0009095808189238083DF91CF911F910F91BF
:104D00000895CF92DF92EF92FF920F931F93CF936C
:104D1000DF937C018B01EA01690177FDA0C00E944D
:104D2000F92D081719070CF09AC0D7FD98C0C701D4
:104D30000E94FD2DC817D9070CF091C0C7010E9431
:104D4000F62D823009F07FC0F701848195819C01A6
:104D5000201B310B89010150110986819781FC01CB
:104D6000EC1BFD0BEF0121970BC0813049F4F701DB
:104D7000848195818C1B9D0BE8018C0101501109E8
:104D8000F1E0CF16D10431F010F132E0C316D104B6
:104D9000E1F165C0FE01D7FD379683E0F595E79513
:104DA0008A95E1F7F695FE2FEE27F795E795E00F48
:104DB000F11FE758FE4FC770DD2781E090E00C2E11
:104DC00001C0880F0A94EAF79081982B3AC0FE013F
:104DD000D7FD3796A3E0F595E795AA95E1F7F69507
:104DE000FE2FEE27F795E795E00FF11FE758FE4FEE
:104DF000C770DD2781E090E00C2E01C0880F0A9477
:104E0000EAF78095908198231CC0FE01D7FD379664
:104E100063E0F595E7956A95E1F7F695FE2FEE27A5
:104E2000F795E795E00FF11FE758FE4FC770DD27B4
:104E300081E090E00C2E01C0880F0A94EAF790817F
:104E4000982790830CC0833009F08FCFF7018681BB
:104E50009781801B910B8E01EC01219791CFDF91FF
:104E6000CF911F910F91FF90EF90DF90CF90089519
:104E70001F93CF93DF93EC01162F40E450E060E8DE
:104E800070E00E94452B88EA95E0998388838FEF34
:104E90008C8F88A38E8F8D8F1F8FDF91CF911F9165
:104EA000089580E094E0E9E7F1E0DF019C011D92C4
:104EB00021503040E1F70895FC0181A1882339F0A9
:104EC0006EBD00000DB407FEFDCF8EB5089588E0DD
:104ED00090E030E8A4A1B5A14C9123A5209524230E
:104EE0002C93A2A1B3A122A5432F462321F04C91DC
:104EF000422B4C9304C04C91209524232C93A4A1C5
:104F0000B5A12C9143A5242B2C933695019711F72D
:104F100008951F93CF93DF93EC01162F8C8D8F3F55
:104F200009F1EEA1FFA180819CA5892B8083E8A5D2
:104F3000F9A590818DA5809589238083EEA1FFA19D
:104F400090818CA5809589238083CE010E945C2767
:104F5000EEA1FFA180819CA5892B8083DF91CF9159
:104F60001F9108958A8D682F772767FD709584E8D3
:104F700096E00E94AC2E60E084E896E00E94592EF4
:104F8000612F84E896E00E94592E84E896E0DF9134
:104F9000CF911F910C94C12E0F931F93CF93DF934A
:104FA000EC01162F022F6B8F4A8F8C8D8F3F09F4E7
:104FB0008CC061E08E8D0E94D23161E088A10E9498
:104FC000D23188A1992787FD9095FC01E758F64FCB
:104FD000E491F0E0EE0FFF1FE956F64F2591349172
:104FE0003FA32EA3FC01EB59F64F84918CA78E8D25
:104FF000992787FD9095FC01E758F64FE491F0E082
:10500000EE0FFF1FE956F64F2591349139A728A7D7
:10501000FC01EB59F64F84918DA789A1811134C011
:1050200061E08C8D0E94D23161E08D8D0E94D23181
:105030008D8D992787FD9095FC01E758F64FE491F7
:10504000F0E0EE0FFF1FE956F64F259134913DA396
:105050002CA3FC01EB59F64F84918BA78C8D9927DB
:1050600087FD9095FC01E758F64FE491F0E0EE0FD4
:10507000FF1FE956F64F259134913BA32AA3FC016B
:10508000EB59F64F84918AA789A1882311F10E94D8
:10509000882980918206882399F09FB7F89480919F
:1050A0008206813059F48DB3809380062DB38091B0
:1050B0008106809582238DBB9FBF02C0909380069E
:1050C00080E58CBD81E08DBD04C084E896E00E943F
:1050D000982E0023F1F08F8D87FD1BC061E00E94A8
:1050E000D23161E08F8D0E940B3261E070E080E090
:1050F00090E00E940C3160E08F8D0E940B326AE0DC
:1051000070E080E090E00E940C3161E08F8D0E94A1
:105110000B326EEACE010E94892765EDCE010E9416
:10512000892760E8CE010E94892768EACE010E94A3
:1051300089276FE3CE010E94892763EDCE010E948B
:10514000892760E0CE010E94892760E4CE010E9499
:1051500089276DE8CE010E948927113011F460E1A2
:1051600001C064E1CE010E94892760E2CE010E9465
:10517000892760E0CE010E94892761EACE010E9462
:10518000892768ECCE010E9489276AEDCE010E9432
:10519000892762E1CE010E94892761E8CE010E9441
:1051A0008927113011F46FE901C06FECCE010E9424
:1051B000892769EDCE010E948927113011F462E23E
:1051C00001C061EFCE010E9489276BEDCE010E94E4
:1051D000892760E4CE010E94892764EACE010E94FB
:1051E000892766EACE010E9489276EE2CE010E94DD
:1051F00089276FEACE01DF91CF911F910F910C9417
:105200008927DF92EF92FF920F931F93CF93DF9343
:10521000EC0161E20E94892760E0CE010E948927AB
:105220006FE7CE010E94892762E2CE010E948927A2
:1052300060E0CE010E94892767E0CE010E948927A5
:105240008C8D8F3F31F1EEA1FFA180819CA5892B30
:105250008083E8A5F9A580819DA5892B8083EEA197
:10526000FFA190818CA580958923808309E711E0B7
:10527000F80161918F01CE010E945C27F5E00937AA
:105280001F07B1F7EEA1FFA180819CA5892B808328
:1052900037C0D090B8008CE08093B80009E711E0E7
:1052A0006A8D772767FD709584E896E00E94AC2EA2
:1052B000E0918406F09185060190F081E02D60E494
:1052C00084E896E00995E12CF12CF801EE0DFF1D24
:1052D000608184E896E00E94592E8FEFE81AF80A60
:1052E000E0E1EE16F10489F784E896E00E94C12E11
:1052F000005F1F4FF5E009371F0791F6D092B80005
:10530000DF91CF911F910F91FF90EF90DF90089563
:10531000CF93CFB7F89480918306811127C0E3E83B
:10532000F9E08491EFE6F9E09491E82FF0E0EE0FD8
:10533000FF1FEF55F64FA591B4918C91892321F46D
:1053400061E08AE00E940B3261E08AE00E94D23183
:105350008CB580618CBD8CB580648CBD61E08DE0C6
:105360000E94D23161E08BE00E94D23180918306AD
:105370008F5F80938306CFBFCF9108952F923F9286
:105380004F925F926F927F928F929F92AF92BF9255
:10539000CF92DF92EF92FF920F931F93CF93DF9301
:1053A00000D000D0CDB7DEB74C017C836B836A019F
:1053B0005901C8018701AC014C195D0957FF03C0B1
:1053C00051954195510995016B817C81261B370BC5
:1053D00037FF03C031952195310922242394312CC4
:1053E0002417350714F0212C312C2114310459F0E5
:1053F0003A2D2B2D5C01832F922F3B812C81DC8257
:10540000CB82C32ED22EAB81BC81AA16BB065CF424
:105410003C2D2D2D6C01832F922F3B812C81BC8242
:10542000AB82A32EB22E2501EB81FC814E1A5F0ABE
:105430003C016C187D0877FE03C07194619471087B
:10544000720157FE03C0FFEFEF1AFF0AF594E794CD
:10545000C816D9062CF421E030E03A83298324C011
:105460006FEF7FEF7A8369831FC0D401ED91FC91C8
:105470000480F581E02D980121143104D9F04B818D
:105480005C81B601C4010995E618F708F7FE06C06D
:10549000E981FA81CE0EDF1EE40CF51C2B813C81E4
:1054A0002F5F3F4F3C832B836B817C81A616B70611
:1054B000E4F604C0A6016B817C81E4CF0F900F90CD
:1054C0000F900F90DF91CF911F910F91FF90EF9070
:1054D000DF90CF90BF90AF909F908F907F906F9014
:1054E0005F904F903F902F9008956F927F928F9290
:1054F0009F92AF92BF92CF92DF92EF92FF920F9363
:105500001F93CF93DF93EC015B016A0139014801DE
:10551000E881F9810284F385E02D87010995E8810E
:10552000F981A601480D591D415051090284F385A6
:10553000E02D9301B501CE010995E881F981008440
:10554000F185E02D9401A601B501CE010995E88110
:10555000F981B501660D771D615071090084F185EF
:10556000E02D9401A601CE010995DF91CF911F9105
:105570000F91FF90EF90DF90CF90BF90AF909F90F2
:105580008F907F906F900895EF92FF920F931F93EB
:10559000DC01ED91FC91240F351F2150310906806B
:1055A000F781E02D780189019B0109951F910F91E9
:1055B000FF90EF900895EF92FF920F931F93DC01FD
:1055C000ED91FC91260F371F215031090680F7819C
:1055D000E02D78018A0109951F910F91FF90EF90BE
:1055E00008956F927F928F929F92AF92BF92CF92C7
:1055F000DF92EF92FF920F931F93CF93DF935C01A3
:105600004A0169013801EB01C60ED71ECC15DD0534
:1056100074F4D501ED91FC910084F185E02D8701B2
:105620009301A401BE01C50109952196EFCFDF9139
:10563000CF911F910F91FF90EF90DF90CF90BF908F
:10564000AF909F908F907F906F900895EF92FF9210
:105650000F931F93DC01ED91FC9111971A960D9118
:105660001C911B9718962D913C9119970684F785EC
:10567000E02D7B0140E050E060E070E009951F9173
:105680000F91FF90EF9008950895FC01138212820C
:1056900080EC95E091838083758364835783468390
:1056A0007187608753874287158A15861486178607
:1056B000168621E0248B8FEF9FEF938B828B918B4B
:1056C000808B268B178A118E108E08952F923F9211
:1056D0004F925F926F927F928F929F92AF92BF9202
:1056E000CF92DF92EF92FF920F931F93CF93DF93AE
:1056F000CDB7DEB76A970FB6F894DEBF0FBECDBF49
:105700001C0158874F831C870B87FA86E986CC8259
:10571000DC0158964D915C9159974115510509F05E
:10572000A6C018968D919C911997681779070CF06F
:1057300056C11A968D919C911B97EF81F885E817B9
:10574000F9070CF04CC1D12CCB013C81F6E03F9F16
:10575000800D911D1124181619060CF040C1C601C8
:1057600003E0880F991F0A95E1F74F815885840F50
:10577000951F181619060CF032C157968C9181119D
:1057800003C0203B08F02F5F7E876D874B01198295
:1057900011E5A12E14E0B12EA61AB70A55E0259FF7
:1057A000A00CB11C11248981853039F0ED85FE856E
:1057B000EA0DFB1D94919A8301C01A826F80788450
:1057C0002301A8E0AD83BA81B0FF12C0D101ED91F1
:1057D000FC91BC81B13031F40480F581E02D2B8542
:1057E0003C8518C00684F785E02DEB84FC841DC041
:1057F000E985FA852B853C85E217F307E1F0D101B5
:10580000ED91FC91BC81B13059F40480F581E02D1B
:1058100029853A85A2016D857E85C10109950BC058
:105820000684F785E02DE984FA8486019601A301B8
:10583000B401C1010995EA81E695EA83FD81F15041
:10584000FD836C0C7D1C2FEF421A520AF111BBCF65
:1058500039813F5F39838C0C9D1C4D855E854F5F80
:105860005F4F5E874D87363009F09DCFB8C0FA0193
:1058700034963491329785919491231BA7E02A9F07
:10588000800D911D1124FA0125913491398B288BBB
:10589000FC01459154915A8F498FFC0132965491E5
:1058A00059873196A491AF873196E491FC013596E2
:1058B000249131968491BC81B23050F0622E7724CD
:1058C00067FC7094E82FFF27E7FDF095FE87ED87D2
:1058D000FC81CF2ED12C6C9C40016D9C900C7C9C4B
:1058E000900C1124860E971EA12C1982DE8ACD8A77
:1058F000AB01420F511D27FD5A955E834D83AF8149
:10590000B885A80FB11D87FDBA95B88FAF8B5981A7
:105910008F85581708F063C0852F90E02D853E8550
:10592000280F391F2C9DD0012D9DB00D3C9DB00D31
:105930001124EF81F885EA0FFB1FFB83EA836D805A
:105940007E802401FA2D2D81F21BFA8B4F89588D10
:10595000480F591F5C8B4B8B9A89960D862D2D8194
:10596000821B39858317B0F5977061F4898D9A8D04
:105970000196E889F989298D3A8DE20FF31FB490D9
:105980009A8F898FB7FE1DC0D101ED91FC91BC812A
:10599000B13059F40480F581E02D2B853C854B898D
:1059A0005C89B301C10109950CC00684F785E02D1F
:1059B000EB84FC84860196014A815B81B201C101BE
:1059C0000995BB0CED89FE894E0E5F1EFFEF6F1A25
:1059D0007F0AC2CFA30E49814F5F498398CF6A9651
:1059E0000FB6F894DEBF0FBECDBFDF91CF911F91F0
:1059F0000F91FF90EF90DF90CF90BF90AF909F906E
:105A00008F907F906F905F904F903F902F90089570
:105A1000AF92BF92CF92EF92FF920F931F93CF93CB
:105A2000DF93EC01262F888D998D009709F042C0F5
:105A30006A3069F42C898E859F8538E0239F800D1C
:105A4000911D11249F878E871D861C86ABC06D30EB
:105A500009F4A8C08E898823C1F03C898C859D8576
:105A600046E0349F800D911D112448855985841787
:105A700095075CF01D861C868E859F85E8E03E9F1D
:105A8000800D911D11249F878E87EA88FB880889E5
:105A900019894E855F856C857D85CC88CE010E94F5
:105AA000662B2C898C859D85F6E02F9F800D911D9E
:105AB000112441C06A3079F41D861C864C89FC0192
:105AC000369684912E853F85489F200D311D1124E7
:105AD0003F872E8767C06D3009F464C0AC014C5F0E
