:100000000C941A050C9442050C9442050C9442057C
:100010000C9442050C9442050C9442050C94420544
:100020000C9442050C9442050C9442050C94420534
:100030000C9442050C9442050C9442050C94420524
:100040000C948D2E0C9442050C9447310C9479310C
:100050000C9442050C9442050C9442050C94420504
:100060000C94602D0C9442052D2D2053415645448F
:10007000202D2D005349474E3A00465245513A2013
:100080002020202047487A0020204641562043481F
:10009000414E3A004348414E3A004100420045007B
:1000A000462F4169727761766500432F526163651F
:1000B00000442F352E33202020200042414E443A68
:1000C000004155544F205345454B004641564F5231
:1000D000495445004D414E55414C0042414E44204B
:1000E0005343414E4E4552004D4F44453A00534113
:1000F00056452053455454494E47530053415645A5
:10010000202620455849540043414C49425241540D
:10011000452052535349005349474E203A20004F3F
:100120004646004F4E200042454550533A20004677
:1001300052455155454E4359004348414E4E454C5A
:100140002020004F524445523A2000534554555008
:10015000204D454E55005245434549564552204293
:100160000052454345495645522041004155544FA0
:1001700000444956455253495459004C4F57205357
:1001800049474E414C005253534900414E5420427E
:1001900000414E542041004155544F002020200082
:1001A00020202000353934350035383030003533E3
:1001B0003632004D696E3A20202020204D61783A79
:1001C000005253534920534554555000424553540F
:1001D0003A0042414E44205343414E4E4552004165
:1001E00055544F205345454B204D4F4445004155F4
:1001F000544F204D4F4445204C4F434B004120204D
:1002000020202020202000422020202020202020EC
:100210000045202020202020202000462F41697208
:100220007761766500432F5261636520202000448A
:100230002F352E332020202000454D5054590046A4
:1002400041564F524954455300544F54414C204657
:1002500041562F45533D0052454F5247414E495A52
:10026000494E47204641562F4553200052454F5294
:1002700047414E495A494E470053454C4543544522
:1002800044204641564F52495445204348002D2DA5
:100290002044454C45544544202D2D0046415620D0
:1002A0004348414E4E454C3A004348414E4E454C22
:1002B00020465245513A0044454C4554452046415C
:1002C000564F52495445204348414E003539343544
:1002D000003538303000353336320042414E443A32
:1002E000004155544F205345454B204D4F44450048
:1002F0004D414E55414C204D4F4445004641564FCF
:1003000052495445204D4F444500202020202020B4
:10031000202020004641564F52495445530044493D
:1003200056455253495459004D414E55414C204D6C
:100330004F44450042414E44205343414E4E4552A6
:10034000004155544F204D4F4445004D4F444520EA
:1003500053454C454354494F4E0020002020202057
:100360002020202020005345545550204D454E5507
:10037000004D4F44452053454C454354494F4E0092
:1003800044495341424C45440020454E41424C456E
:1003900044004469766572736974793A004F4B0082
:1003A000506F7765723A00426F6F742043686563DF
:1003B0006B0028292A2B2C2D2E2F131220112110EF
:1003C0000722081806091905230A1A040B1B03241F
:1003D0000C1C020D1D25010E1E000F1F26141527D3
:1003E0001617A1A2A3A4A5A6A7A8B1B2B3B4B5B687
:1003F000B7B8E1E2E3E4E5E6E7E8F1F2F3F4F5F6B5
:10040000F7F8C1C2C3C4C5C6C7C8D1D2D3D4D5D6E4
:10041000D7D8E916D516C116AD16991685167116D8
:100420005D16651678168B169E16B116C416D7166D
:10043000EA164916351621160D16FD161117251741
:1004400039176C1680169416A816BC16D016E4162A
:10045000F8161A163F1664168916AE16D316F81635
:100460001D17F21417153C1561158615AB15D0151F
:10047000F515052A9B29912987291D291329092961
:100480009F2803290C2916291F29892992299C298B
:10049000052A95288B28812817280F2A192A832AAC
:1004A0008D2A062910291A2984298E299829022A99
:1004B0000C2A1D288F2802291429872999290C2AFA
:1004C0001E2A09261C268E260127132786279827F1
:1004D0000B2800000000003E5B4F5B3E3E6B4F6B05
:1004E0003E1C3E7C3E1C183C7E3C181C577D571C15
:1004F0001C5E7F5E1C00183C1800FFE7C3E7FF008E
:1005000018241800FFE7DBE7FF30483A060E2629DB
:10051000792926407F050507407F05253F5A3CE79E
:100520003C5A7F3E1C1C08081C1C3E7F14227F2264
:10053000145F5F005F5F06097F017F006689956A2F
:10054000606060606094A2FFA29408047E040810BA
:10055000207E201008082A1C08081C2A08081E10E3
:100560001010100C1E0C1E0C30383E3830060E3E9B
:100570000E06000000000000005F000000070007FA
:1005800000147F147F14242A7F2A12231308646224
:1005900036495620500008070300001C2241000085
:1005A00041221C002A1C7F1C2A08083E08080080E3
:1005B000703000080808080800006060002010087B
:1005C00004023E5149453E00427F4000724949497C
:1005D000462141494D331814127F102745454539AE
:1005E0003C4A4949314121110907364949493646B2
:1005F0004949291E00001400000040340000000892
:100600001422411414141414004122140802015934
:1006100009063E415D594E7C1211127C7F494949C1
:10062000363E414141227F4141413E7F4949494156
:100630007F090909013E414151737F0808087F0085
:10064000417F41002040413F017F081422417F400B
:100650004040407F021C027F7F0408107F3E4141E2
:10066000413E7F090909063E4151215E7F09192952
:1006700046264949493203017F01033F4040403F3C
:100680001F2040201F3F4038403F6314081463037D
:10069000047804036159494D43007F4141410204FC
:1006A000081020004141417F040201020440404003
:1006B0004040000307080020545478407F284444F9
:1006C000383844444428384444287F385454541813
:1006D00000087E090218A4A49C787F08040478000E
:1006E000447D40002040403D007F102844000041F0
:1006F0007F40007C047804787C0804047838444403
:100700004438FC1824241818242418FC7C080404F9
:1007100008485454542404043F44243C4040207C62
:100720001C2040201C3C4030403C44281028444CB5
:100730009090907C4464544C440008364100000082
:10074000770000004136080002010204023C262323
:10075000263C1EA1A161123A4040207A38545455DB
:1007600059215555794122545478422155547840A5
:1007700020545579400C1E5272123955555559392D
:100780005454545939555454580000457C41000282
:10079000457D420001457C407D1211127DF02825E7
:1007A00028F07C545545002054547C547C0A097F21
:1007B0004932494949323A4444443A324A48483035
:1007C0003A4141217A3A42402078009DA0A07D3DE7
:1007D0004242423D3D4040403D3C24FF2424487E6F
:1007E0004943662B2FFC2F2BFF0929F620C0887E5A
:1007F000090320545479410000447D413048484A5F
:1008000032384040227A007A0A0A727D0D19317D11
:100810002629292F28262929292630484D402038E5
:100820000808080808080808382F10C8ACBA2F10A4
:100830002834FA00007B000008142A142222142A0B
:1008400014085500550055AA55AA55AAFF55FF553D
:10085000FF000000FF00101010FF00141414FF0030
:100860001010FF00FF1010F010F0141414FC00140E
:1008700014F700FF0000FF00FF1414F404FC14142C
:1008800017101F10101F101F1414141F0010101029
:10089000F0000000001F101010101F10101010F0BA
:1008A00010000000FF101010101010101010FF109A
:1008B000000000FF140000FF00FF00001F101700E1
:1008C00000FC04F414141710171414F404F40000BA
:1008D000FF00F714141414141414F700F71414146C
:1008E000171410101F101F141414F4141010F0100B
:1008F000F000001F101F0000001F14000000FC1477
:100900000000F010F01010FF10FF141414FF14106A
:1009100010101F00000000F010FFFFFFFFFFF0F0BD
:10092000F0F0F0FFFFFF0000000000FFFF0F0F0FCF
:100930000F0F3844443844FC4A4A4A347E020206C7
:1009400006027E027E0263554941633844443C04FA
:10095000407E201E2006027E020299A5E7A5991C72
:100960002A492A1C4C7201724C304A4D4D30304895
:10097000784830BC625A463D3E494949007E0101F3
:10098000017E2A2A2A2A2A44445F444440514A4488
:100990004040444A51400000FF0103E080FF000056
:1009A00008086B6B083612362436060F090F06004E
:1009B0000018180000001010003040FF0101001F57
:1009C00001011E00191D1712003C3C3C3C000000B8
:1009D00000000000000800020100000304070000FE
:1009E0000000000000000102040810204080010205
:1009F0000408102001020408102004040404040464
:100A000004040202020202020303030303030000C0
:100A10000000230026002900000000002500280017
:100A20002B0000000000240027002A008516461A2B
:100A3000BE2CA93111241FBECFEFD8E0DEBFCDBF41
:100A400015E0A0E0B1E0E8E3FCE602C005900D92FD
:100A5000AC3BB107D9F727E0ACEBB5E001C01D9284
:100A6000AC39B207E1F71AE0C4E3DAE004C0229738
:100A7000FE010E94E535CC32D107C9F70E94383318
:100A80000C941A360C940000A8EEB5E020E0FC01AE
:100A90003491332331F02E3121F03D9301962F5FB5
:100AA000F6CFE22FF0E0E851FA4F308388EE95E080
:100AB00008952FEFFC012283108208958CEB95E0BE
:100AC0000E948F2640E050E060E070E08CEB95E003
:100AD0000E94D82B61E08CEB95E00E94DE2B61E058
:100AE00070E08CEB95E00C94E42BCF92DF92EF92C8
:100AF000FF920F931F93CF93DF936C01EB0121E0E3
:100B00004CE362E08CEB95E00E940A278CEB95E0C9
:100B10000E943F2860ED77E080E090E00E94062F81
:100B2000C6010E945E05E091BC05F091BD05C6843A
:100B3000D7848CEB95E00E94F32BEE24E394F12C08
:100B40000BE010E09C0140E050E060E070E08CEBD6
:100B500095E0F601099560E070E08CEB95E00E946D
:100B6000E42B8CEB95E00E94F32BBC016C537109D4
:100B700077FF02C06F5F7F4F7595679542E050E049
:100B80008CEB95E00E94D82B87EA93E00E94440505
:100B9000BC018CEB95E00E942A3261E070E08CEBA6
:100BA00095E00E94E42B4CE050E060E070E08CEBBC
:100BB00095E00E94D82B80EA93E00E944405BC0196
:100BC0008CEB95E00E942A328CEB95E00E94F32B8F
:100BD000BC016C5071094CE050E08CEB95E00E9438
:100BE000D82B8DE993E00E944405BC018CEB95E085
:100BF0000E942A3244E150E060E070E08CEB95E026
:100C00000E94D82B8CEB95E00E943F2882E993E06C
:100C10000E944405BC018CEB95E00E942A328CEBCB
:100C200095E00E943F286AEF70E080E090E00E942B
:100C3000062F8CEB95E00E94F32BBC0160537109E9
:100C400044E150E08CEB95E00E94D82B85E10E94B6
:100C5000862F05971CF089E893E002C080E893E0B6
:100C60000E944405BC018CEB95E00E942A328CEB7B
:100C700095E00E94F32BFE0101900020E9F73197E7
:100C8000EC1BFD0B4CE04E9F90014F9F300D11244B
:100C9000BC01621B730B7695679544E250E08CEBC8
:100CA00095E00E94D82B62E08CEB95E00E94DE2B51
:100CB000BE018CEB95E00E942A328CEB95E00E94FD
:100CC0003F2862EE74E080E090E00E94062F80E012
:100CD000DF91CF911F910F91FF90EF90DF90CF9018
:100CE0000895CF92DF92EF92FF920F931F93CF93CD
:100CF000DF93EB01E091BC05F091BD05C484D58480
:100D00008CEB95E00E94F72B8C018CEB95E00E9418
:100D1000F32BEE24E394F12C9C0140E050E060E0E2
:100D200070E08CEB95E0F6010995E091BC05F0913F
:100D3000BD05C684D7848CEB95E00E94F32B0BE0B5
:100D400010E09C0140E050E060E070E08CEB95E04A
:100D5000F601099561E08CEB95E00E94DE2B60E0E6
:100D600070E08CEB95E00E94E42B8CEB95E00E9408
:100D7000F32BFE0101900020E9F73197EC1BFD0BEE
:100D800046E04E9F90014F9F300D1124BC01621B25
:100D9000730B7695679542E050E08CEB95E00E94EE
:100DA000D82BBE018CEB95E00E942A3261E070E006
:100DB0008CEB95E0DF91CF911F910F91FF90EF9019
:100DC000DF90CF900C94E42BDF92EF92FF920F9381
:100DD0001F93CF93DF93EC01D62E0E945E0581E72F
:100DE00093E00E944405BC01CE010E947106E0918F
:100DF000BC05F091BD05C685D7858CEB95E00E94BA
:100E0000F32B2AE0D29EA0011124445F5F4FEE2411
:100E1000E394F12C0AE010E09C0160E070E08CEBC0
:100E200095E0FE010995C1E0D0E0D11002C0C0E01C
:100E3000D0E0BE018CEB95E00E94E42B4DE050E049
:100E400065E070E08CEB95E00E94D82B86E693E09D
:100E50000E944405BC018CEB95E00E942A328CE58F
:100E600093E00E944405BC018CEB95E00E942A327D
:100E7000E091BC05F091BD050190F081E02D68E1A5
:100E80008CEB95E00995BE018CEB95E00E94E42B7C
:100E900047E150E065E070E08CEB95E00E94D82BD4
:100EA0008AE593E00E944405BC018CEB95E00E942A
:100EB0002A328CEB95E0DF91CF911F910F91FF903B
:100EC000EF90DF900C943F28DF92EF92FF920F9308
:100ED0001F93CF93DF93EC01D62E0E945E058BE427
:100EE00093E00E944405BC01CE010E947106E0918E
:100EF000BC05F091BD05C685D7858CEB95E00E94B9
:100F0000F32B2AE0D29EA0011124445F5F4FEE2410
:100F1000E394F12C0AE010E09C0160E070E08CEBBF
:100F200095E0FE01099561E070E0D11002C060E03B
:100F300070E08CEB95E00E94E42B4DE050E065E022
:100F400070E08CEB95E00E94D82B81E493E00E9446
:100F50004405BC018CEB95E00E942A3261E070E010
:100F6000F1E0DF1202C060E070E08CEB95E00E94DF
:100F7000E42B47E150E065E070E08CEB95E00E94E7
:100F8000D82B84E393E00E944405BC018CEB95E0F0
:100F90000E942A3261E070E022E0D21202C060E0DA
:100FA00070E08CEB95E00E94E42B41E250E065E0BC
:100FB00070E08CEB95E00E94D82B88E293E00E94D1
:100FC0004405BC018CEB95E00E942A3285E10E9429
:100FD000862F0597E4F061E070E083E0D81202C04C
:100FE00060E070E08CEB95E00E94E42B4BE250E077
:100FF00065E070E08CEB95E00E94D82B8EE193E0E9
:101000000E944405BC018CEB95E00E942A3261E00D
:1010100070E0E4E0DE1202C060E070E08CEB95E08E
:101020000E94E42B45E350E065E070E08CEB95E036
:101030000E94D82B84E193E00E944405BC018CEB14
:1010400095E00E942A328AE093E00E944405BC01A8
:101050008CEB95E00E942A32E091BC05F091BD0531
:101060000190F081E02D69E18CEB95E009958CEB26
:1010700095E0DF91CF911F910F91FF90EF90DF905E
:101080000C943F28AF92BF92CF92DF92EF92FF92E3
:101090000F931F93CF93DF931F92CDB7DEB78C01D1
:1010A0008FEFF8018283C80169830E945E05698120
:1010B000693019F48CEF92E009C0633019F480EFC5
:1010C00092E004C0613041F481EE92E00E94440558
:1010D000BC01C8010E94710661E070E08CEB95E0F4
:1010E0000E94E42BE091BC05F091BD05C680D7803D
:1010F0008CEB95E00E94F32BEE24E394F12C04E1B9
:1011000010E09C0144E150E060E070E08CEB95E081
:10111000F6010995E091BC05F091BD05C680D78028
:101120008CEB95E00E94F32B00E210E09C0140E282
:1011300050E060E070E08CEB95E0F60109954CE042
:1011400050E065E070E08CEB95E00E94D82BE091D8
:10115000BC05F091BD050680F781E02D04E110E0AB
:1011600021E630E04BE050E061E670E08CEB95E08A
:1011700009958BED92E00E944405BC018CEB95E053
:101180000E942A3211E3A8E0CA2ED12C47E150E098
:10119000B6018CEB95E00E94D82B612F8CEB95E08B
:1011A0000E942C32FFE0CF0ED11C1F5F193371F764
:1011B000E091BC05F091BD05C680D7808CEB95E031
:1011C0000E94F32BEE24E394F12C04E210E09C0146
:1011D00044E250E060E070E08CEB95E0F6010995A8
:1011E000E091BC05F091BD05A680B7808CEB95E041
:1011F0000E94F72B8C018CEB95E00E94F32B6C0185
:101200008CEB95E00E94F72B0B501109AC014B5071
:101210005109960160E070E08CEB95E0F5010995CD
:101220008CEB95E00E94F72BAC014950510962E02C
:1012300070E08CEB95E00E94D82B86ED92E00E9446
:101240004405BC018CEB95E00E942A328CEB95E0C2
:101250000E94F72BAC014950510967E370E08CEB19
:1012600095E00E94D82B81ED92E00E944405BC01DC
:101270008CEB95E00E942A328CEB95E00E94F72BD4
:101280008C018CEB95E00E94F32BA8014950510989
:10129000BC01695171098CEB95E00E94D82B8CEC54
:1012A00092E00E944405BC018CEB95E00E942A323A
:1012B0008CEB95E00F90DF91CF911F910F91FF90F4
:1012C000EF90DF90CF90BF90AF900C943F28FF92AB
:1012D0000F931F93CF93DF93EC018B01F42E0E94A9
:1012E0005E0587EB92E00E944405BC01CE010E949E
:1012F000710661E070E08CEB95E00E94E42B4CE01D
:1013000050E065E070E08CEB95E00E94D82B89EA14
:1013100092E00E944405BC018CEB95E00E942A32C9
:101320004CE050E065E570E08CEB95E00E94D82B36
:101330004AE050E0B8018CEB95E00E94E83244E1CD
:1013400050E065E070E08CEB95E00E94D82B8CE9D2
:1013500092E00E944405BC018CEB95E00E942A3289
:1013600044E150E065E570E08CEB95E00E94D82BFD
:101370004AE050E06F2D8CEB95E00E94E1328CEB5F
:1013800095E00E94F32B8254910997FD0196BC01D0
:101390007595679544E350E08CEB95E00E94D82B5F
:1013A0008EE892E00E944405BC018CEB95E00E941F
:1013B0002A328CEB95E0DF91CF911F910F91FF9036
:1013C0000C943F281F93CF93DF93EC01162F0E94BC
:1013D0005E0589E792E00E944405BC01CE010E94AF
:1013E000710665E08CEB95E00E94DE2B61E070E019
:1013F0008CEB95E00E94E42B44E150E064E170E066
:101400008CEB95E00E94D82B4AE050E0612F8CEBEA
:1014100095E00E94E1328CEB95E00E943F28CE01DE
:101420000E945E05CE01DF91CF911F910C945E0565
:101430001F93CF93DF93EC01162F0E945E058CE67D
:1014400092E00E944405BC01CE010E94710661E059
:101450008CEB95E00E94DE2B61E070E08CEB95E078
:101460000E94E42B44E150E065E070E08CEB95E0F5
:101470000E94D82B87E592E00E944405BC018CEBCA
:1014800095E00E942A328CEB95E00E94F32B825467
:10149000910997FD0196BC017595679544E250E06E
:1014A0008CEB95E00E94D82B89E492E00E944405E1
:1014B000BC018CEB95E00E942A324AE050E0612F9B
:1014C0008CEB95E00E94E1328CEB95E00E943F2886
:1014D000CE010E945E05CE010E945E056CED75E0B6
:1014E00080E090E0DF91CF911F910C94062FCF9375
:1014F000DF93EC010E945E058FE392E00E944405B9
:10150000BC01CE010E94710663E08CEB95E00E9465
:10151000DE2B61E070E08CEB95E00E94E42B44E16F
:1015200050E064E170E08CEB95E00E94D82B89E3F9
:1015300092E00E944405BC018CEB95E00E942A32A7
:101540008CEB95E0DF91CF910C943F282F923F9246
:101550004F925F926F927F928F929F92AF92BF92C3
:10156000CF92DF92EF92FF920F931F93CF93DF936F
:1015700000D000D0CDB7DEB71C016983142F922EA6
:10158000B02E2701CA828A2CFC018281281709F417
:101590009DC0821710F483E001C08FEF8093050196
:1015A00040E050E061E070E08CEB95E00E94EA2BB7
:1015B0004CE050E064E270E08CEB95E00E94D82BA8
:1015C000183218F08FE292E016C0103218F085E25F
:1015D00092E011C0183118F08BE192E00CC010318C
:1015E00018F081E192E007C0183018F087E092E02F
:1015F00002C08DEF91E00E944405BC018CEB95E0A8
:101600000E942A32812F877034E0632E712C1C8255
:101610001B82C82ED12CE091BC05F091BD05EE24B3
:10162000E394F12C8B819C818C159D0511F0E12CAC
:10163000F12C0684F785E02D0BE010E02EE030E081
:1016400045E150E0B3018CEB95E0099561E070E075
:10165000EB81FC81EC15FD0511F460E070E08CEB92
:1016600095E00E94E42BB3016C5F7F4F47E150E0AF
:101670008CEB95E00E94D82B6B816F5C8CEB95E036
:101680000E942C328B819C8101969C838B839FE0EE
:10169000690E711CEB81FC81389709F0BCCF4CE0DE
:1016A00050E065E670E08CEB95E00E94D82B40E0BE
:1016B00050E061E070E08CEB95E00E94EA2B4AE09C
:1016C00050E0B2018CEB95E00E94E8328CEB95E0A3
:1016D0000E94F32B4B2C512C612C712C0397AA27C1
:1016E00097FDA095BA2FBF93AF939F938F93A12C93
:1016F000B12C6501A39414E6E12EF12C00E010E07A
:1017000021E030E040E050E0C301B2010E94EE323F
:10171000A62EE091BC05F091BD05C684D7848CEB64
:1017200095E00E94F32BB12C9C01235031092A191A
:101730003B09B5016F5F7F4FE12CF12C03E010E016
:1017400041E250E08CEB95E0F6010995E091BC0593
:10175000F091BD050684F785E02DEE24E394F12C8D
:10176000950141E250E061E070E08CEB95E0099575
:101770001F921F921F92FEE0FF93A12CB12C6501D6
:10178000A39414E6E12EF12C00E010E021E030E01B
:1017900040E050E0C301B2010E94EE32E091BC058E
:1017A000F091BD0566847784C62ED12C8CEB95E034
:1017B0000E94F72B23E0929E50011124E4E0AE0E2C
:1017C000B11C0EE010E00C191D09AC014A51510981
:1017D000E12CF12C22E030E0B5018CEB95E0F30137
:1017E0000995E091BC05F091BD05668477848CEB8A
:1017F00095E00E94F72BAC014C5051094C195D0942
:10180000EE24E394F12C860122E030E0B5018CEB6C
:1018100095E0F30109950FB6F894DEBF0FBECDBF7A
:101820009981913009F005C1E091BC05F091BD05A9
:10183000C684D7848CEB95E00E94F72BAC014A510B
:101840005109E5E09E9EB0011124759567956C5F86
:101850007F4F80910501680F711D87FD7A95E12CFE
:10186000F12C0EE010E021E030E08CEB95E0F60189
:101870000995FA816F2F70E080E090E01F921F922F
:101880001F922EE02F93A12CB12C6501A39414E696
:10189000E12EF12C00E010E021E030E040E050E0EB
:1018A0000E94EE32A62EE091BC05F091BD05C684E3
:1018B000D7848CEB95E00E94F72BAC014A5151097B
:1018C000E12CF12C0EE010E022E030E061E070E06D
:1018D0008CEB95E0F6010995E091BC05F091BD0512
:1018E000C680D7808CEB95E00E94F72BB12C8C0141
:1018F0000C5011090A191B098CEB95E00E94F72B7B
:10190000AC014C5051094A195B09EE24E394F12CC7
:1019100022E030E061E070E08CEB95E0F6010995A3
:10192000E091BC05F091BD05C684D7848CEB95E0B1
:101930000E94F72B8C018CEB95E00E94F32BA80101
:101940004A515109BC0163507109E12CF12C0EE0A0
:1019500010E022E030E08CEB95E0F6010995E09193
:10196000BC05F091BD05C680D7808CEB95E00E9448
:10197000F72B8C010C5011090A191B098CEB95E00F
:101980000E94F32B3C018CEB95E00E94F72B0C9707
:101990002C014A185B088CEB95E00E94F32BBC01EC
:1019A00063507109EE24E394F12C9301A2018CEBB6
:1019B00095E0F60109950F900F900F900F9041E080
:1019C00050E060E070E08CEB95E08820B1F00E9480
:1019D000EA2B8CEB95E00E94F32B8455910997FD3F
:1019E0000196BC017595679542E050E08CEB95E05F
:1019F0000E94D82B8EEE91E015C00E94EA2B8CEB52
:101A000095E00E94F32B8455910997FD0196BC0146
:101A10007595679542E050E08CEB95E00E94D82BDD
:101A20008FED91E00E944405BC018CEB95E00E9493
:101A30002A32F10192828CEB95E00F900F900F907B
:101A40000F90DF91CF911F910F91FF90EF90DF905A
:101A5000CF90BF90AF909F908F907F906F905F904E
:101A60004F903F902F900C943F28AF92BF92CF920F
:101A7000DF92EF92FF920F931F93CF93DF931F920A
:101A8000CDB7DEB78C0169830E945E05F801118233
:101A90006981623099F482ED91E00E944405BC01B5
:101AA000C8010E9471064CE050E065E070E08CEBEC
:101AB00095E00E94D82B8CEC91E012C081EC91E073
:101AC0000E944405BC01C8010E9471064CE050E030
:101AD00065E070E08CEB95E00E94D82B83EB91E001
:101AE0000E944405BC018CEB95E00E942A32E091F3
:101AF000BC05F091BD05C680D7808CEB95E00E94B7
:101B0000F32BEE24E394F12C04E110E09C0144E17A
:101B100050E060E070E08CEB95E0F6010995E09113
:101B2000BC05F091BD05A680B7808CEB95E00E94C6
:101B3000F72B8C018CEB95E00E94F32B6C018CEB66
:101B400095E00E94F72B0B501109AC014B50510945
:101B5000960160E070E08CEB95E0F50109958CEB67
:101B600095E00E94F72BAC014950510962E070E00A
:101B70008CEB95E00E94D82B8EEA91E00E94440500
:101B8000BC018CEB95E00E942A328CEB95E00E9420
:101B9000F72BAC014950510967E370E08CEB95E0FD
:101BA0000E94D82B89EA91E00E944405BC018CEB8D
:101BB00095E00E942A328CEB95E00E94F72B8C0175
:101BC0008CEB95E00E94F32BA80149505109BC0110
:101BD000695171098CEB95E00E94D82B84EA91E061
:101BE0000E944405BC018CEB95E00E942A328CEBEC
:101BF00095E00F90DF91CF911F910F91FF90EF90A3
:101C0000DF90CF90BF90AF900C943F282F923F92DF
:101C10004F925F926F927F928F929F92AF92BF92FC
:101C2000CF92DF92EF92FF920F931F93CF93DF93A8
:101C3000CDB7DEB72A970FB6F894DEBF0FBECDBF83
:101C40002C01662E842E922E702EFC82EB82DE8278
:101C5000CD82B886AF82622F70E080E090E01F9264
:101C60001F921F922EE12F93A12CB12C6501A394FA
:101C700014E6E12EF12C00E010E021E030E040E03D
:101C800050E00E94EE32C62E8CEB95E00E94F72BBE
:101C90005C010F900F900F900F90D20112968C91D3
:101CA000881609F45BC0D12CE091BC05F091BD050C
:101CB000268537853A8329838CEB95E00E94F72BA4
:101CC000E5E08E9ED0011124B595A795BA87A98726
:101CD0001D01F4E02F0E311C0EE110E00C191D095E
:101CE000AC014A525109E12CF12C22E030E0B10163
:101CF0008CEB95E0E981FA810995E091BC05F091C2
:101D0000BD05A5014C5051094C195D090684F785A4
:101D1000E02DEE24E394F12C860122E030E0B101C5
:101D20008CEB95E00995E091BC05F091BD05C6846A
:101D3000D7848CEB95E00E94F72BAC014A525109F5
:101D400069857A85695F7F4FE12CF12C0EE110E007
:101D500021E030E08CEB95E0F6010995611042C07E
:101D6000F0E5F91508F090C0D20111968C91119709
:101D7000891530F511969C9240E050E061E070E0EA
:101D80008CEB95E00E94EA2B4CE050E064E270E0BE
:101D90008CEB95E00E94D82B40E150E0672D8CEB56
:101DA00095E00E94E1324CE050E064E370E08CEB9F
:101DB00095E00E94D82B4AE050E06B817C8160C0A6
:101DC0000091040110E0075F1F4F8CEB95E00E942B
:101DD000F32B0C97081719070CF456C08CE380936B
:101DE000040152C04CE050E06EE170E08CEB95E0F5
:101DF0000E94D82B40E050E061E070E08CEB95E071
:101E00000E94EA2B80EA91E00E944405BC018CEB21
:101E100095E00E942A324CE050E06EE170E08CEBDD
:101E200095E00E94D82B4AE050E06D817E818CEBDA
:101E300095E00E94E8324CE050E065E570E08CEB04
:101E400095E00E94D82B40E050E061E070E08CEB20
:101E500095E00E94EA2B4CE050E065E570E08CEBE9
:101E600095E00E94D82B8CE991E00E944405BC01CA
:101E70008CEB95E00E942A324AE050E06F81788531
:101E80008CEB95E00E94E8328CEB95E00E943F28B5
:101E9000F20182822A960FB6F894DEBF0FBECDBF44
:101EA000DF91CF911F910F91FF90EF90DF90CF9036
:101EB000BF90AF909F908F907F906F905F904F906A
:101EC0003F902F900895DF92EF92FF920F931F9310
:101ED000CF93DF93D62EF42EE9010E945E0564E0D5
:101EE0008CEB95E00E94DE2B61E070E08CEB95E0DE
:101EF0000E94E42B40E050E062E070E08CEB95E063
:101F00000E94D82B4AE050E0BE018CEB95E00E9485
:101F1000E83261E08CEB95E00E94DE2B4CE150E072
:101F200060E070E08CEB95E00E94D82BB8018CEB60
:101F300095E00E942A3262E08CEB95E00E94DE2B55
:101F400042E050E062E670E08CEB95E00E94D82B16
:101F500061E070E08CEB95E00E94E42B40E150E002
:101F60006F2D8CEB95E00E94E13261E08CEB95E007
:101F70000E94DE2BE091BC05F091BD050680F78143
:101F8000E02DE12CF12C0BE110E022E330E04BE1FD
:101F900050E060E070E08CEB95E0099585E10E94EF
:101FA000862F05973CF144E150E062E670E08CEB4F
:101FB00095E00E94D82B40E050E061E070E08CEBAF
:101FC00095E00E94EA2B81E0D81659F0D81630F03F
:101FD000E2E0DE120FC08BE891E005C087E991E0F6
:101FE00002C081E991E00E944405BC018CEB95E0C0
:101FF0000E942A3241E050E060E070E08CEB95E016
:102000000E94EA2BE091BC05F091BD05C685D785FD
:102010008CEB95E00E94F72BAC014B515109EE245B
:10202000E394F12C0DE010E027E030E060E070E098
:102030008CEB95E0FE0109958CEB95E00E94F72B67
:10204000AC014851510961E070E08CEB95E00E94D1
:10205000D82B68E575E08CEB95E00E942A32E09180
:10206000BC05F091BD050190F081E02D6AE08CEB9C
:1020700095E0099541E050E060E070E08CEB95E080
:102080000E94EA2BE091BC05F091BD05C685D7857D
:102090008CEB95E00E94F72BAC014D50510927E0E5
:1020A00030E060E070E08CEB95E0FE0109958CEB90
:1020B00095E00E94F72BAC014B50510961E070E0B4
:1020C0008CEB95E00E94D82B6AE575E08CEB95E0EF
:1020D0000E942A328CEB95E0DF91CF911F910F91F6
:1020E000FF90EF90DF900C943F287F928F929F9209
:1020F000AF92BF92CF92DF92EF92FF920F931F9316
:10210000CF93DF931F92CDB7DEB7762E842E902E1D
:1021100085E129830E94862F298105970CF4DDC073
:10212000622F70E080E090E01F921F921F9227E7DD
:102130002F93A3E0AA2EB12CC12CD12C14E6E12EB2
:10214000F12C00E010E021E030E040E050E00E949F
:10215000EE32E091BC05F091BD05A684B784C62E91
:10216000D12C8CEB95E00E94F72B27E730E02C195F
:102170003D09AC014B515109B601695F7F4FE12C1C
:10218000F12C0DE010E08CEB95E0F50109950F9036
:102190000F900F900F90E091BC05F091BD0581E08C
:1021A000A684B7847816C9F08CEB95E00E94F72BD3
:1021B000AC014B515109E12CF12C0DE010E027E767
:1021C00030E067E070E08CEB95E0F5010995E09177
:1021D000BC05F091BD05A484B5848CEB95E00E940C
:1021E000F72BAC014B515109EE24E394F12C9601ED
:1021F00067E070E08CEB95E0F5010995692D70E0E2
:1022000080E090E01F921F921F9227E72F93E3E058
:10221000AE2EB12CC12CD12C14E6E12EF12C00E015
:1022200010E021E030E040E050E00E94EE32E0912A
:10223000BC05F091BD05A684B784C62ED12C8CEBCD
:1022400095E00E94F72B27E730E02C193D09AC01FF
:102250004D505109B601695F7F4FE12CF12C0DE023
:1022600010E08CEB95E0F50109950F900F900F9021
:102270000F90E091BC05F091BD0582E0A684B78483
:102280007816C9F08CEB95E00E94F72BAC014D500D
:102290005109E12CF12C0DE010E027E730E067E078
:1022A00070E08CEB95E0F5010995E091BC05F091AB
:1022B000BD05A484B5848CEB95E00E94F72BAC019E
:1022C0004D505109EE24E394F12C960167E070E043
:1022D0008CEB95E0F501099589C060E070E08CEB2E
:1022E00095E00E94E42BE091BC05F091BD05C68409
:1022F000D7848CEB95E00E94F72BAC014B51510930
:10230000EE24E394F12C03E110E029E130E060E0F9
:1023100070E08CEB95E0F60109958CEB95E00E945E
:10232000F72BAC014D50510961E070E08CEB95E06A
:102330000E94D82B86E891E00E944405BC018CEBFA
:1023400095E00E942A32882D90E0A0E0B0E01F9234
:102350001F921F9225E62F93A12CB12C6501A39407
:1023600014E6E12EF12C00E010E021E030E040E046
:1023700050E0BC01CD010E94EE32E091BC05F0912D
:10238000BD05A684B784C62ED12C8CEB95E00E94A7
:10239000F72B25E630E02C193D09AC0143515109DA
:1023A000B601675E7F4FE12CF12C03E110E08CEB6E
:1023B00095E0F5010995E091BC05F091BD05A68475
:1023C000B7848CEB95E00E94F72BAC014B5151097F
:1023D000EE24E394F12C960169E170E08CEB95E03A
:1023E000F50109950F900F900F900F90F3E1F815FC
:1023F00078F10E94D72E2AEF30E040E050E00E94B2
:10240000833521E030E06D3771058105910510F0CD
:1024100020E030E040E050E0B9018CEB95E00E9414
:10242000EA2B8CEB95E00E94F72BAC01425151094D
:102430006DE270E08CEB95E00E94D82B8BE791E089
:102440000E944405BC018CEB95E00E942A3203C037
:1024500085E10E94862F8CEB95E00F90DF91CF9164
:102460001F910F91FF90EF90DF90CF90BF90AF90B2
:102470009F908F907F900C943F28CF92DF92EF92A5
:10248000FF920F931F93CF93DF93EC01D62E0E9400
:102490005E0581E791E00E944405BC01CE010E94E7
:1024A0007106E091BC05F091BD05C685D7858CEB22
:1024B00095E00E94F32B2AE0D29EA0011124445FF4
:1024C0005F4FEE24E394F12C0AE010E09C0160E001
:1024D00070E08CEB95E0FE01099561E070E0D110B1
:1024E00002C060E070E08CEB95E00E94E42B4DE0D0
:1024F00050E065E070E08CEB95E00E94D82B8CE614
:1025000091E00E944405BC018CEB95E00E942A32C8
:1025100061E070E0F1E0DF1202C060E070E08CEB9F
:1025200095E00E94E42B47E150E065E070E08CEB21
:1025300095E00E94D82B81E691E00E944405BC0101
:102540008CEB95E00E942A3261E070E022E0D2122A
:1025500002C060E070E08CEB95E00E94E42B41E269
:1025600050E065E070E08CEB95E00E94D82B86E5AA
:1025700091E00E944405BC018CEB95E00E942A3258
:1025800061E070E08CEB95E00E94E42BE091BC05EB
:10259000F091BD05C485D5858CEB95E00E94F32BA9
:1025A0006C018CEB95E00E94F72BAC014551510971
:1025B000EE24E394F12C0BE010E0960160E070E073
:1025C0008CEB95E0FE0109958CEB95E00E94F72BD2
:1025D000AC014351510965E070E08CEB95E00E943D
:1025E000D82B6CE575E08CEB95E00E942A328CEBE1
:1025F00095E00E94F72BAC014950510965E070E06D
:102600008CEB95E00E94D82B6FE575E08CEB95E0A4
:102610000E942A328CEB95E0DF91CF911F910F91B0
:10262000FF90EF90DF90CF900C943F28AF92BF9235
:10263000CF92DF92EF92FF920F931F93CF93DF938E
:10264000C62FD22F642F70E080E090E01F921F927F
:102650001F922CE62F93A12CB12C6501A39414E6B4
:10266000E12EF12C00E010E021E030E040E050E00D
:102670000E94EE32E091BC05F091BD05A684B784BE
:10268000C62ED12C8CEB95E00E94F72B2CE630E087
:102690002C193D09AC0143515109B6016E5E7F4FC3
:1026A000E12CF12C07E010E08CEB95E0F5010995A9
:1026B0000F900F900F900F90E091BC05F091BD0529
:1026C000A684B7848CEB95E0C130C1F00E94F72B53
:1026D000AC0143515109E12CF12C07E010E09601C7
:1026E00062E170E08CEB95E0F5010995E091BC05A5
:1026F000F091BD05A484B5848CEB95E00E94F72B86
:10270000AC0143515109EE24E394F12C960162E1AE
:1027100070E08CEB95E0F50109956D2F70E080E09D
:1027200090E01F921F921F922CE62F93A12CB12CA8
:102730006501A39414E6E12EF12C00E010E021E005
:1027400030E040E050E00E94EE32E091BC05F091B4
:10275000BD05A684B784C62ED12C8CEB95E00E94D3
:10276000F72B2CE630E02C193D09AC0149505109FA
:10277000B6016E5E7F4FE12CF12C07E010E08CEB90
:1027800095E0F50109950F900F900F900F90E09153
:10279000BC05F091BD05C23019F4C685D7851AC0B5
:1027A000C685D7858CEB95E00E94F72BAC0149508C
:1027B0005109E12CF12C07E010E0960162E170E094
:1027C0008CEB95E0FE010995E091BC05F091BD050B
:1027D000C485D5858CEB95E00E94F72BAC01495060
:1027E0005109EE24E394F12C960162E170E08CEB48
:1027F00095E0FE0109958CEB95E0DF91CF911F915B
:102800000F91FF90EF90DF90CF90BF90AF900C941E
:102810003F2808958F929F92AF92BF92CF92DF92FE
:10282000EF92FF920F931F93CF93DF93EC01D62E7D
:10283000B42EA22E902EC12E8E2C0E945E058BE40B
:1028400091E00E944405BC01CE010E947106E09116
:10285000BC05F091BD05C685D7858CEB95E00E943F
:10286000F32B2AE0D29EA0011124445F5F4FEE2497
:10287000E394F12C0AE010E09C0160E070E08CEB46
:1028800095E0FE01099561E070E0D11002C060E0C2
:1028900070E08CEB95E00E94E42B4DE050E065E0A9
:1028A00070E08CEB95E00E94D82B83E491E00E94CD
:1028B0004405BC018CEB95E00E942A32AA2019F055
:1028C00089E391E002C08FE291E00E944405BC01DF
:1028D0008CEB95E00E942A3261E070E0F1E0DF12BB
:1028E00002C060E070E08CEB95E00E94E42B47E1D1
:1028F00050E065E070E08CEB95E00E94D82B87E219
:1029000091E00E944405BC018CEB95E00E942A32C4
:10291000BB2019F083E291E002C08FE191E00E94B8
:102920004405BC018CEB95E00E942A3261E070E026
:1029300022E0D21202C060E070E08CEB95E00E94D1
:10294000E42B41E250E065E070E08CEB95E00E9402
:10295000D82B87E191E00E944405BC018CEB95E007
:102960000E942A3287FC4FC0E091BC05F091BD0562
:10297000C685D7858CEB95E00E94F32B9C012A52EB
:102980003109E12CF12C08E010E041E250E069E26D
:1029900070E08CEB95E0FE010995A82CBB24A7FC08
:1029A000B094E091BC05F091BD05282D86E0280289
:1029B000B0011124625D7F4F0684F785E02DEE247F
:1029C000E394F12C27E030E041E250E08CEB95E01D
:1029D0000995C92DDC2D00E010E061E070E00A15DA
:1029E0001B0511F460E070E08CEB95E00E94E42B95
:1029F00069918CEB95E00E942C320F5F1F4F0A30DB
:102A0000110559F706C0692D7C2D8CEB95E00E94CD
:102A10002A3261E070E093E0D91202C060E070E019
:102A20008CEB95E00E94E42B4BE250E065E070E017
:102A30008CEB95E00E94D82B88E091E00E94440541
:102A4000BC018CEB95E00E942A3261E070E0E4E08A
:102A5000DE1202C060E070E08CEB95E00E94E42B97
:102A600045E350E065E070E08CEB95E00E94D82BE8
:102A70008CEF90E00E944405BC018CEB95E00E9435
:102A80002A328CEB95E0DF91CF911F910F91FF904F
:102A9000EF90DF90CF90BF90AF909F908F900C946D
:102AA0003F28AF92BF92CF92DF92EF92FF920F93A7
:102AB0001F93CF93DF93EC01A62EB42E69010E94E1
:102AC0005E058EEE90E00E944405BC01CE010E949E
:102AD000710661E070E08CEB95E00E94E42B4CE025
:102AE00050E065E070E08CEB95E00E94D82B88EE1A
:102AF00090E00E944405BC018CEB95E00E942A32D4
:102B00004CE050E066E270E08CEB95E00E94D82B40
:102B100082E0A81689F08A1530F081E0A81218C06A
:102B200081EC90E00EC083E0A81649F089E0A8127D
:102B30000FC08BEC90E005C08BED90E002C084EDFF
:102B400090E00E944405BC018CEB95E00E942A3283
:102B500044E150E065E070E08CEB95E00E94D82BFA
:102B60008BEB90E00E944405BC018CEB95E00E9449
:102B70002A3244E150E066E270E08CEB95E00E947E
:102B8000D82B87E28B1518F481EB90E01AC08FE107
:102B90008B1518F48AEA90E014C087E18B1518F4BD
:102BA00080EA90E00EC08FE08B1518F48EE990E07B
:102BB00008C087E08B1518F48CE990E002C08AE920
:102BC00090E00E944405BC018CEB95E00E942A3203
:102BD0004CE150E065E070E08CEB95E00E94D82B72
:102BE00084E990E00E944405BC018CEB95E00E94D2
:102BF0002A324CE150E066E270E08CEB95E00E94F6
:102C0000D82B6B2D67706F5F4AE050E08CEB95E03E
:102C10000E94E1328DE9E8168FEFF80681F088E82E
:102C200090E00E944405BC018CEB95E00E942A32A2
:102C30004AE050E0B7018CEB95E00E94CC3244E2D0
:102C400050E065E070E08CEB95E00E94D82B8AE7BD
:102C500090E00E944405BC018CEB95E00E942A3272
:102C600044E250E066E270E08CEB95E00E94D82BE5
:102C70004AE050E0B6018CEB95E00E94E8324CE26D
:102C800050E065E070E08CEB95E00E94D82B84E783
:102C900090E00E944405BC018CEB95E00E942A3232
:102CA0004CE250E066E270E08CEB95E00E94D82B9D
:102CB000B8018CEB95E00E942A328CEB95E00E94E3
:102CC000F32B8254910997FD0196BC017595679588
:102CD00044E350E08CEB95E00E94D82B88E690E02E
:102CE0000E944405BC018CEB95E00E942A328CEBDB
:102CF00095E0DF91CF911F910F91FF90EF90DF90C2
:102D0000CF90BF90AF900C943F2864E08CEB95E09F
:102D10000C9476260C9404360C940C36DC01ED9160
:102D2000FC910190F081E02D0994CF93DF93EC01A9
:102D300061E08DE00E94053080910701882321F039
:102D400060E086E00E940530BE017695679580E0E0
:102D500090E00E94062F60E08DE00E94053061E067
:102D600086E0DF91CF910C940530982FE2EBF3E0F1
:102D700080E02491291729F08F5F31968033C9F7BD
:102D800080E008950E94D72E2091230630912406DA
:102D9000621B730B6931710548F489E190E0861B71
:102DA000970BBC0180E090E00C94062F0895CF9320
:102DB000C82F60E0813031F48FE00E94053061E07F
:102DC0008EE005C08EE00E94053061E08FE00E9439
:102DD0000530C0931E01CF9108952F923F924F92DC
:102DE0005F926F927F928F929F92AF92BF92CF929B
:102DF000DF92EF92FF920F931F93CF93DF93382EC2
:102E0000A2E3FA2E00E010E0C0E0D0E084E10E94EE
:102E1000862FC80FD91F85E10E94862F080F191F22
:102E2000FA94A1F722E330E0CE01B9010E946F3598
:102E3000FB01C801B9010E946F354B0180911C0153
:102E4000873061F58091120190911301E817F9071D
:102E500020F4F0931301E0931201809110019091FE
:102E600011018E179F0720F4F0931101E0931001D8
:102E700080910A0190910B018816990620F4909296
:102E80000B0180920A018091080190910901881537
:102E9000990520F49092090180920801E0901401B4
:102EA000F090150100E010E020911601309117011B
:102EB00040E050E0BF01882777FD8095982F1F9252
:102EC0001F921F92E4E62E2E2F92A12CB12C6501A9
:102ED000A3940E94EE322B013C01EB01E0900C0127
:102EE000F0900D0100E010E020910E0130910F01F3
:102EF00040E050E0B401882777FD8095982F1F921D
:102F00001F921F922F920E94EE324B015C018B01A7
:102F10008DB79EB708960FB6F8949EBF0FBE8DBFB3
:102F20009FEF39125CC080912B06882321F08230FC
:102F300009F04DC04FC0B401882777FD8095982FC8
:102F40000E9448346B017C01B201882777FD80958F
:102F5000982F0E944834A70196010E944833A70188
:102F600096010E94AD3320E030E048EC52E40E942C
:102F7000FC346B017C0120E030E0A9010E94F834B0
:102F800018161CF4C701B60103C0C701B60190585A
:102F90000E94153464307105BCF080912A060C172C
:102FA0001D0724F4181654F4815006C0C017D10729
:102FB0002CF487301CF48F5F80932A0680912A06B8
:102FC000882329F0873034F430901E0105C0332463
:102FD000339402C092E0392E832D0E94D71681E0EF
:102FE000381629F080911C01873009F0E4011C1685
:102FF0001D063CF4CE01C536D1052CF084E690E0E8
:1030000002C081E090E0DF91CF911F910F91FF907E
:10301000EF90DF90CF90BF90AF909F908F907F9078
:103020006F905F904F903F902F9008958FEF0C948A
:10303000ED1660E08CE00E94053081E090E00E9497
:10304000402F61E08AE00E94053081E090E00E941C
:10305000402F61E08CE00E94053081E090E00E940A
:10306000402F60E08CE00E94053081E090E00C94FD
:10307000402F60E08CE00E94053081E090E00E94EB
:10308000402F60E08AE00E94053081E090E00E94DD
:10309000402F61E08CE00E94053081E090E00E94CA
:1030A000402F60E08CE00E94053081E090E00C94BD
:1030B000402F81E090E00E94402F60E08BE00E9472
:1030C000053081E090E00C94402F81E090E00E9478
:1030D000402F61E08BE00E94053081E090E00C948D
:1030E000402F1F93CF93DF93E82FF0E0EE0FFF1FE9
:1030F000EE58FB4FC591D4910E94651881E090E095
:103100000E94402F0E9459180E9439180E943918B5
:103110000E9439180E9419180E94391814E10E945F
:1031200039181150E1F70E94651881E090E00E9483
:10313000402F0E9459180E9465180E9459180E9439
:1031400019180E9439180E9439180E9439180E94D3
:10315000191810E1C0FF03C00E94191802C00E9494
:103160003918D695C7951150A9F70E9439180E94B1
:1031700039180E9439180E9439180E94651881E098
:1031800090E00E94402F60E08BE00E94053060E0FC
:103190008CE00E94053060E08AE0DF91CF911F91C2
:1031A0000C9405300F931F93CF93DF9361E08DE074
:1031B0000E94CC2F61E08DE00E94053062E081E149
:1031C0000E94CC2F61E086E00E94CC2F61E086E077
:1031D0000E94053060E082E00E94CC2F62E082E035
:1031E0000E94053060E083E00E94CC2F62E083E023
:1031F0000E94053060E084E00E94CC2F62E084E011
:103200000E94053060E085E00E94CC2F62E085E0FE
:103210000E94053061E08EE00E94CC2F61E08FE0DB
:103220000E94CC2F81E00E94D71661E08BE00E94C3
:10323000CC2F61E08AE00E94CC2F61E08CE00E94FC
:10324000CC2F80E090E00E948A168F3F09F058C092
:1032500061E080E090E00E948C1660E081E090E008
:103260000E948C16609107018BE090E00E948C1602
:10327000609106018CE090E00E948C166AE582E085
:1032800090E00E948C1660E083E090E00E948C1633
:103290006CED84E090E00E948C1660E085E090E0A8
:1032A0000E948C1662E675E08BE096E00E94FD3588
:1032B0000BE016E0C4E1D0E0F80161918F01CE018E
:1032C0000E948C162196CE31D105B1F760912B0664
:1032D00086E090E00E948C166AE587E090E00E940C
:1032E0008C1660E088E090E00E948C166CED89E01E
:1032F00090E00E948C1660E08AE090E00E948C16BC
:1033000080E090E00E948A1680931C0181E090E0AA
:103310000E948A1680932D060E94711880912D06B6
:10332000809328068BE090E00E948A1691E081113C
:1033300001C090E0909307018CE090E00E948A1613
:1033400091E0811101C090E0909306010BE016E03E
:10335000C4E1D0E0CE010E948A16F80181938F016A
:103360002196CE31D105B1F783E090E00E948A1614
:10337000C82F82E090E00E948A162C2F30E0322F76
:103380002227282B309317012093160185E090E027
:103390000E948A16C82F84E090E00E948A162C2F83
:1033A00030E0322F2227282B30931501209314016F
:1033B00086E090E00E948A1680932B0688E090E0D9
:1033C0000E948A16C82F87E090E00E948A162C2F50
:1033D00030E0322F2227282B30930F0120930E014B
:1033E0008AE090E00E948A16C82F89E090E00E944F
:1033F0008A162C2F30E0322F2227282B30930D01F4
:1034000020930C0181E0809318066BE076E08FE258
:1034100096E00E94750518168CF48DE00E943B30F2
:1034200061E0892B09F060E08DE00E94053064E6E0
:1034300070E080E090E00E94062FEFCF85E10E94CF
:10344000862F059714F410922B0660E08DE0DF9133
:10345000CF911F910F910C94053020E030E0F901DD
:10346000EE0FFF1FE15EFE4F408151814F3F51053E
:1034700039F48F3F910521F0918380832CE030E077
:103480002F5F3F4F2A30310554F308958FE296E0C5
:103490000C9459051F93CF93DF9384E690E00E942C
:1034A000951664E670E080E090E00E94062F84E6C6
:1034B00090E00E94951662E070E08FEF96E00E9427
:1034C0008E1660912D0612E0160F8FEF96E00E9487
:1034D000E230CBE0D6E06991662361F0160F7727E2
:1034E00067FD70958FEF96E00E948E1686E0C531DD
:1034F000D80789F763E070E08FEF96E00E948E16A0
:10350000612F8FEF96E0DF91CF911F910C94E23005
:103510006F927F928F929F92AF92BF92CF92DF92E3
:10352000EF92FF920F931F93CF93DF931F92CDB72C
:10353000DEB783E00E943B30892BB9F510921F065D
:1035400010922006109221061092220682E390E04B
:103550000E94951664E670E080E090E00E94062FDD
:1035600082E390E00E94951664E670E080E090E0CF
:103570000E94062F10E083E00E943B30892B19F453
:103580001A3009F09EC690911B0180911C01811197
:1035900003C081E080931C011A3008F41AC686E04B
:1035A00080931C018FEF80931A011092290685E009
:1035B0000E943B30892B19F486E080931C01809196
:1035C000180660911C01811105C080911A016817CD
:1035D00009F4EAC110921806633009F49EC648F453
:1035E000613009F46AC0623009F0DAC160931B01EE
:1035F00051C0673021F1693009F4B4C1663009F077
:10360000CFC160912D0681E090E00E948C16609100
:103610001B0180E090E00E948C16609107018BE016
:1036200090E00E948C16609106018CE090E00E9470
:103630008C160BE016E054E1E52EF12C56C0E2E3C7
:10364000F0E0F0931701E09316014CE251E0509343
:103650001501409314012CED30E0309313012093B9
:1036600012018AE590E09093110180931001F0938C
:103670000F01E0930E0150930D0140930C01309324
:103680000B0120930A01909309018093080183E0C4
:103690008093150610922E06E2EBF3E0E491E0939E
:1036A0002D06109217061092160681E080931906D7
:1036B0008FE296E00E94350D73C180E580931D0175
:1036C00010921706109216066093270610921F0696
:1036D00010922006109221061092220660911C0181
:1036E0008FE296E00E94420847C1F80161918F0184
:1036F000C7010E948C16FFEFEF1AFF0A2EE1E216B7
:10370000F10499F760912B0686E090E00E948C16F8
:1037100080911A01853009F467C080911B018930BE
:1037200009F462C080914701909148010E948A1675
:103730008F3FE9F08CE690E00E948A16082F10E097
:103740000A3011051CF00F5F1F4F02C000E010E0AF
:10375000F801EE0FFF1FED5CFE4F6FEF808191814E
:103760000E948C16602F8CE690E00E948C16E12C53
:10377000F12CF701EE0FFF1FED5CFE4F0081118170
:10378000C8010E948A168F3F69F460912D06C80116
:103790000E948C166E2D8CE690E00E948C162CE018
:1037A000E22EF12C8FEFE81AF80AEAE0EE16F104A7
:1037B00004F38CE690E00E948A1640912D06E42FD7
:1037C000F0E0EE0FFF1FEE5EFB4F25913491E82EE7
:1037D000F12CFFEFEF1AFF0A0BE016E060911B01DE
:1037E0008FE296E00E94511580911A018530B1F464
:1037F00040912D06E42FF0E0EE0FFF1FEE5EFB4F31
:10380000259134910DE9E02EFF24FA940BE016E0A7
:1038100060911B018FE296E00E94511580911B017F
:10382000893009F084C080911A018F3F09F07FC070
:10383000E0910606F0910706EE0FFF1FED5CFE4FCC
:103840006FEF808191810E948C16E0912D06F0E04F
:10385000EE0FFF1FEE5EFB4F6591749140910606DF
:103860004F5F8FE296E00E946709EFE1F1E08FEF92
:1038700090E08193919321E0E333F207D1F703E3E2
:1038800011E0F12CF801819191918F010E948A162B
:103890008F3F21F090E00E942D1AF394F1E007345D
:1038A0001F0781F703E311E07FE1C72E71E0D72EF8
:1038B000F6016081F2E0CF0ED11CF8018191919167
:1038C0008F010E948C16F3E3CF16F1E0DF0681F73B
:1038D00084E690E00E9495166F2D8FE296E00E949C
:1038E000180A1092090664EF71E080E090E00E94EF
:1038F000062F60E08CE690E00E948C1680913301E8
:10390000909134010E948A1680932D0661E08FE227
:1039100096E00E94E20980912D060E94B5168093E0
:103920002E0660912D0681E090E00E948C1615E035
:1039300084E690E00E94951664E670E080E090E0F6
:103940000E94062F1150A1F768EB7BE080E090E029
:103950000E94062F80911B0180931C0181E08093BF
:1039600018061EC00E94D72E60931F067093200673
:10397000809321069093220680911B01823031F0C2
:10398000893021F080911A01873031F481E090E094
:103990000E948A1680932D0680911C0180931B0142
:1039A00080911C0180931A0180911C01883009F0DC
:1039B0003EC080912D06E82FF0E0EE0FFF1FEE5E77
:1039C000FB4F25913491E82FF0E0EE51FC4F4491EC
:1039D0000BE016E060912B068FE296E00E94630FE9
:1039E0000E94161880932C0682E00E94ED16082F84
:1039F00081E00E94ED16282F40912C0660911E0157
:103A00008FE296E00E94751083E00E943B300197A0
:103A100009F08EC482E00E943B30019709F088C40F
:103A200084E00E943B30019709F082C4D9CF8430F2
:103A300009F04CC010912B0601E010932B06612F6A
:103A40008FE296E00E943D120E94161882E00E94CA
:103A5000ED16282F81E029830E94ED162981482F39
:103A600060911E018FE296E00E94161383E00E948F
:103A70003B30019751F482E00E943B30019729F4DA
:103A800084E00E943B300197F9F283E00E943B30D2
:103A9000892B09F462C482E00E943B30892B09F033
:103AA00054C4115013300CF45AC410E082E390E077
:103AB0000E94951668EC70E080E090E00E94062F6E
:103AC0000111BBCF80911B0180931C0180911C01CF
:103AD000893019F0109209064CC00E94C2160E944B
:103AE000161880932C06209116063091170690E048
:103AF0008217930708F4C90190931706809316065E
:103B00008091090681111FC069E080E090E00E9469
:103B10008C1610920A0653E3E52E51E0F52E10E0C4
:103B200001E0F701819191917F010E948A168F3FF8
:103B300021F01093080600930A061F5F1A3089F7D8
:103B400081E08093090682E00E943B30892B09F4D2
:103B50000AC484E00E943B30892B09F468C4809138
:103B60000A068111C9C460911C018FE296E00E948F
:103B7000770A80911C01982F9D7F913009F091C1A7
:103B80000E94C2160E94161880932C0620911606D9
:103B90003091170690E08217930708F4C9019093BB
:103BA00017068093160680912D060E94B516809305
:103BB0002E0680911C01833009F07EC0C0901B0648
:103BC000D0901C06E0901D06F0901E06F8EECF0E79
:103BD000F3E0DF1EE11CF11C0E94D72EC616D706AB
:103BE000E806F90628F480912C06833308F488C48B
:103BF00082E00E943B30892B39F50E94D72E6093DA
:103C00001F0670932006809321069093220682E37C
:103C100090E00E94951668EC70E080E090E00E94D1
:103C2000062F80912D068F5F80932D0690912E0692
:103C30009F5F90331CF490932E0602C010922E06C4
:103C4000803310F010922D0684E00E943B30892BC7
:103C500029F50E94D72E60931F067093200680934B
:103C600021069093220682E390E00E94951668EC6C
:103C700070E080E090E00E94062F80912D06815038
:103C800080932D0690912E06915097FD9FE2909380
:103C90002E06803318F08FE280932D068091060166
:103CA00081110AC0E0912E06FF27E7FDF095EE5442
:103CB000FC4FE491E0932D0680911C01813009F0C6
:103CC00098C0609116067091170680E090E00E94FF
:103CD00046342DEC3CEC4CE45FE30E94FC340E9443
:103CE000153420911D0130E02617370714F4609336
:103CF0001D0120911A06211152C020912706211181
:103D000022C030912C0620911D012317E0F481E0A0
:103D100080931A060E94D72E60931F067093200688
:103D2000809321069093220684E690E00E949516E7
:103D300064E670E080E090E00E94062F84E690E068
:103D40000E9495162CC01092270620912E063091C5
:103D50001901230F20932E0620332CF060931D01B0
:103D600010922E0607C027FF09C060931D018FE245
:103D700080932E06109217061092160680911D0150
:103D8000853008F485E080931D01E0912E06FF2721
:103D9000E7FDF095EE54FC4FE491E0932D0682E0B0
:103DA0000E943B30892B29F084E00E943B30892B14
:103DB00001F582E00E943B30892B09F0AEC381E01F
:103DC0008093190182E390E00E94951668EC70E000
:103DD00080E090E00E94062F81E0809327061092F9
:103DE0001A0610921F0610922006109221061092B9
:103DF000220680901F0690902006A0902106B09089
:103E0000220628E8820E23E1921EA11CB11C0E940A
:103E1000D72EC0901F06D0902006E0902106F0908B
:103E2000220686169706A806B90650F4C114D104D6
:103E3000E104F10429F080912C06833308F06FC36C
:103E4000C114D104E104F10471F00E94D72EE0E125
:103E5000CE0EE7E2DE1EE11CF11CC616D706E80610
:103E6000F90608F45CC340912D06E42FF0E0EE0F54
:103E7000FF1FEE5EFB4FE590F490AA24A39480917F
:103E80001A06811101C0A12CC0901D0100912C06C1
:103E900020912E0660911C018FE296E00E94A60AF6
:103EA000EFC0823019F0873009F0EAC0809119061E
:103EB000882351F01092190680912D060E947118E6
:103EC00080912D06809328060E94C2160E94161823
:103ED00080932C0670911C01723079F4813568F062
:103EE0009C0133274091160650911706421753073D
:103EF00020F4309317062093160620912D06E22F0A
:103F0000F0E0EE51FC4F0491E22FF0E0EE0FFF1FC6
:103F1000EE5EFB4FE590F490A0901001B09011017F
:103F2000C0901201D090130161E0773009F060E099
:103F3000282F40912E068FE296E00E94060E809177
:103F40002E068F3224F48F5F80932E0674C0109259
:103F50002E0680911C01873009F06DC080911506F6
:103F60009FEF980F90931506811165C06091120123
:103F700080911301609316018093170180911001C5
:103F8000909111018D37910510F48CED90E0909394
:103F900015018093140182E090E00E948C166091DC
:103FA000170183E090E00E948C166091140184E078
:103FB00090E00E948C166091150185E090E00E94CF
:103FC0008C1685E10E94862F05975CF160910A01AD
:103FD00080910B0160930E0180930F018091080185
:103FE000909109018D37910510F48CED90E090933C
:103FF0000D0180930C0187E090E00E948C16609187
:104000000F0188E090E00E948C1660910C0189E01D
:1040100090E00E948C1660910D018AE090E00E9471
:104020008C1680E090E00E948A1680931C0188EE36
:1040300093E00E94951682E00E943B30892BB1F4F8
:1040400082E390E00E94951668EC70E080E090E0DA
:104050000E94062F8FEF80931A0110922E0681E0A6
:10406000809319061092170610921606E0912E06FC
:10407000FF27E7FDF095EE54FC4FE491E0932D0609
:1040800080911C01853009F05FC08FE296E00E94AC
:10409000091466246A94762CF12CDD24D394FDE770
:1040A000CF2EA0E2BA2EB7E0AB2E16E0912E8824D8
:1040B0008394E62C0BE016E0209106014091070165
:1040C0006F2D8FE296E00E940A1412E3115009F45A
:1040D00058C283E00E943B30019789F482E00E943D
:1040E0003B30019761F484E00E943B30019739F442
:1040F00064E670E080E090E00E94062FE7CF83E066
:104100000E943B30892B09F06DC2F2E0FF1609F4E2
:104110004FC2FF150CF443C2F11038C28091060162
:1041200088258093060182E390E00E94951666E957
:1041300070E080E090E00E94062F2FEF621672067A
:1041400009F483C2D110B5CF80912D069091280635
:10415000981709F491C20E94711880912D068093DE
:1041600028060E94D72E609323067093240680931E
:1041700025069093260680911801882309F47CC2B5
:104180001092180184E690E00E94951664E670E0B3
:1041900080E090E00E94062F84E690E00E94951651
:1041A00064E670E080E090E00E94062F84E690E0F4
:1041B0000F90DF91CF911F910F91FF90EF90DF90C3
:1041C000CF90BF90AF909F908F907F906F900C9406
:1041D0009516BB24BA94B90E03E0F9E0FF2EA5E0D2
:1041E000EA2EB4E0DB2E11E082E0C82E22E0B21607
:1041F000F1F02B1554F0BB2099F081E0B8122AC0E1
:10420000C0921C01B09219062EC0E4E0BE16F9F06F
:10421000BE1684F0F5E0BF121DC0B0921C011DC097
:1042200010931C011093270610921A061CC00093CD
:104230001C0119C085E10E94862F05971CF0D092C1
:104240001C0111C0E0921C01E4E0BE2E0CC0F092F3
:104250001C0109C024E02B1534F46B2D8FE296E08D
:104260000E94E40605C06B2D8FE296E00E94640771
:1042700083E00E943B30892BD9F382E00E943B30DF
:10428000892BB1F384E00E943B30892B89F372E3E0
:10429000A72EAA9421F183E00E943B300197C9F434
:1042A00082E00E943B300197A1F484E00E943B3001
:1042B000019779F464E670E080E090E00E94062FB8
:1042C000E8CF64E670E080E090E00E94062F1F5F78
:1042D00052C983E00E943B30892B09F024C183E05E
:1042E0000E943B30892B21F080911B0180931C019F
:1042F00084E690E00E94951662E370E080E090E032
:104300000E94062F84E690E00E94951662E370E01A
:1043100080E090E00E94062F45C90E94D72E60934E
:104320001F06709320068093210690932206D6C91B
:1043300080911B0180931C0110921F061092200691
:10434000109221061092220697C184E00E943B3011
:10435000892B09F0A7CB1F5FA5CB00E0A3CB17FFEC
:10436000A5CB12E0A3CB68EC70E080E090E00E9467
:10437000062F8091060690910706019690930706F6
:10438000809306062091080630E02817390724F4A8
:104390001092070610920606009106061091070675
:1043A000F801EE0FFF1FED5CFE4F808191810E94AE
:1043B0008A1680932D068F3F99F161E0600F8FE29E
:1043C00096E00E94E20980912D060E94B516809326
:1043D0002E060E94D72E60931F06709320068093AE
:1043E00021069093220682E390E00E94951668ECE5
:1043F00070E080E090E00E94062F80912E068033CE
:1044000014F010922E0680912D06803310F0109239
:104410002D0660912D0681E090E00E948C1699CBCC
:1044200001501109109307060093060692CB68EC21
:1044300070E080E090E00E94062F80910606909147
:1044400007060197909307068093060697FF07C01B
:104450008091080690E090930706809306060091ED
:10446000060610910706F801EE0FFF1FED5CFE4FE8
:10447000808191810E948A1680932D068F3FA9F139
:1044800061E0600F8FE296E00E94E20980912D06C4
:104490000E94B51680932E060E94D72E60931F06A9
:1044A00070932006809321069093220682E390E089
:1044B0000E94951668EC70E080E090E00E94062F64
:1044C00080912E0687FF03C08FE280932E06809195
:1044D0002D06803318F08FE280932D0660912D0613
:1044E00081E090E00E948C163ACB0F5F1F4F109333
:1044F00007060093060633CB88E080931C0139CB76
:104500000E944A1A0E94D72E60931B0670931C06C5
:1045100080931D0690931E066BCB8FEF51CC88E0E5
:1045200080931C01A0CC82E00E943B30892B59F47F
:10453000AB2CBA9485E10E94862F059754F483E052
:10454000B81207C01AC084E00E943B30892B09F4DE
:10455000B394E5E0EB152CF0B7FE04C065E0B62E91
:1045600001C0B12C82E390E00E94951668EC70E0E7
:1045700080E090E00E94062F39CE6EEFB62EBA0C86
:10458000E8CF80911B0180931C01DECD21E0F21267
:1045900052C0809107018F2580930701C4CD83E02D
:1045A000F81679F0E4E0FE1246C090921C0118C0A3
:1045B000FFEF6F1A7F0A2AE0621671040CF058C0F0
:1045C000B2CD1AE089E190E00E94951669E170E0B1
:1045D00080E090E00E94062F1150A1F7A0921C01EC
:1045E000D12CA1CD82E00E943B30892B79F48FEF52
:1045F0006816780611F4FA941EC0F301E55FF94FCE
:1046000080818F5F8E37A4F0B08215C084E00E9455
:104610003B30892B81F4EFEF6E167E0611F4F39494
:104620000AC0F301E55FF94F80818150803214F0B8
:10463000808301C0C082F4E0FF152CF0F7FE73CD3B
:1046400074E0F72E70CDF12C6ECD83E00E943B30EC
:10465000892B09F46CCD82E00E943B30892B09F450
:1046600066CD84E00E943B30892B09F460CD6ACD91
:1046700066246A94762C57CD0F90DF91CF911F91CD
:104680000F91FF90EF90DF90CF90BF90AF909F90F1
:104690008F907F906F9008950F931F93CF93DF9328
:1046A000EC018D89823061F08330D9F0813009F0DE
:1046B000C8C0EC81FD81E41BF50B3197DB0118C00C
:1046C0008C819D81DC01A61BB70BBD018E819F8172
:1046D000FC01E41BF50BAF0141505109621B730B48
:1046E000B0C0AE81BF81A61BB70BA21BB30BFA01F2
:1046F000F7FD05C18C819D81E817F9070CF0FFC01B
:10470000B7FF04C02A0F3B1FA0E0B0E08E819F815D
:10471000AD01420F531F841795071CF49C012A1BFF
:104720003B0B121613060CF0EAC0422F8A2F869517
:104730008695869590E8899FE00DF11D1124E95A30
:10474000FE4FA77069F158E05A1B852F90E0EC01ED
:10475000C15BDE4F6881251760F4DC01A21BB10943
:104760008FEF90E00A2E02C0959587950A94E2F7A4
:1047700068230130110539F048F00230110551F479
:104780008081862706C08081862B03C0609580814A
:1047900086238083451708F4B2C0451BE058FF4FBD
:1047A0004830A0F102301105A9F4DF01842F9C915B
:1047B00090959C93A058BF4F88508830C0F788EFE1
:1047C000840F869586958695B0E88B9FE00DF11D48
:1047D000112419C081E00130110509F080E0982F03
:1047E0009195EF01842F9883C058DF4F885088300F
:1047F000D0F788EF840F86958695869590E8899FF7
:10480000E00DF11D1124E058FF4F4770442309F4D7
:1048100076C0A42FB0E0A95BBE4F9C91013011057A
:1048200041F050F00230110509F069C080818927FC
:1048300006C08081892B03C0909580818923808365
:104840005EC057FD5CC08E819F81481759070CF0F0
:1048500056C077FF04C0260F371F60E070E08C81E0
:104860009D81FB01E20FF31F8E179F071CF49C0133
:10487000261B370B121613060CF041C0CA0157FD58
:104880000796E3E095958795EA95E1F79695982F39
:10489000882797958795895A9E4F860F971F47704F
:1048A000552761E070E001C0660F4A95EAF7462F90
:1048B0000130110541F088F00230110501F5FC01CD
:1048C000280F391F15C0FC01280F391FE217F30705
:1048D000B1F08081842B8193F9CF6095FC01280F82
:1048E000391FE217F30759F0808186238193F9CFAE
:1048F000E217F30721F0808184278193F9CFDF91BC
:10490000CF911F910F9108950F931F93CF93DF9332
:10491000FC018589823069F08330E1F0813009F053
:1049200082C0C481D581C41BD50BC21BD30BDB0154
:1049300017C084819581DC01A61BB70BBD016150B6
:10494000710986819781DC01A41BB50BAD01421B67
:10495000530B69C0A681B781A61BB70B1197EA015B
:10496000B7FD08C186819781A817B9070CF002C16D
:10497000D7FF04C02C0F3D1FC0E0D0E0848195819B
:10498000AE01420F531F841795071CF49C012C1B8A
:104990003D0B121613060CF0EDC0CD01B7FD0796C6
:1049A00043E0959587954A95E1F79695982F882746
:1049B00097958795895A9E4F8C0F9D1FA770BB278F
:1049C00041E050E00A2E01C0440F0A94EAF7642F38
:1049D0000130110549F098F00230110509F0CAC004
:1049E000FC01280F391F17C0FC01280F391FE217DF
:1049F000F30709F4BFC08081862B8193F8CF4095DF
:104A0000FC01280F391FE217F30709F4B3C08081B6
:104A100084238193F8CFE217F30709F4ABC08081B8
:104A200086278193F8CF77FDA5C08481958168178B
:104A300079070CF09FC057FF04C0240F351F40E0DA
:104A400050E086819781FA01E20FF31F8E179F07CE
:104A50001CF49C01241B350B121613060CF08AC0A3
:104A6000522F842F869586958695FB01B0E88B9F03
:104A7000E00DF11D1124E95AFE4F477069F168E01D
:104A8000641B862F90E0EC01C15BDE4F4881261746
:104A900060F4DC01A21BB1098FEF90E00A2E02C086
:104AA000959587950A94E2F748230130110539F06E
:104AB00048F00230110551F48081842706C08081BE
:104AC000842B03C04095808184238083561708F48B
:104AD00051C0561BE058FF4F5830A0F1023011056D
:104AE000A9F4DF01852F9C9190959C93A058BF4F0E
:104AF00088508830C0F788EF850F86958695869513
:104B0000B0E88B9FE00DF11D112419C081E0013048
:104B1000110509F080E0982F9195EF01852F98837A
:104B2000C058DF4F88508830D0F788EF850F8695C2
:104B30008695869590E8899FE00DF11D1124E05837
:104B4000FF4F57705523B1F0A52FB0E0A95BBE4FC2
:104B50009C910130110539F048F00230110551F4F3
:104B60008081892706C08081892B03C09095808130
:104B700089238083DF91CF911F910F910895CF9268
:104B8000DF92EF92FF920F931F93CF93DF937C01FD
:104B90008B01EA01690177FDA0C00E94F32B081781
:104BA00019070CF09AC0D7FD98C0C7010E94F72BD7
:104BB000C817D9070CF091C0C7010E94F02B8230B2
:104BC00009F07FC0F701848195819C01201B310B86
:104BD00089010150110986819781FC01EC1BFD0BB5
:104BE000EF0121970BC0813049F4F7018481958151
:104BF0008C1B9D0BE8018C0101501109F1E0CF16CF
:104C0000D10431F010F132E0C316D104E1F165C0F6
:104C1000FE01D7FD379683E0F595E7958A95E1F794
:104C2000F695FE2FEE27F795E795E00FF11FE95A6D
:104C3000FE4FC770DD2781E090E00C2E01C0880F89
:104C40000A94EAF79081982B3AC0FE01D7FD379677
:104C5000A3E0F595E795AA95E1F7F695FE2FEE27E7
:104C6000F795E795E00FF11FE95AFE4FC770DD2772
:104C700081E090E00C2E01C0880F0A94EAF780953D
:104C8000908198231CC0FE01D7FD379663E0F5950F
:104C9000E7956A95E1F7F695FE2FEE27F795E795EC
:104CA000E00FF11FE95AFE4FC770DD2781E090E069
:104CB0000C2E01C0880F0A94EAF790819827908300
:104CC0000CC0833009F08FCFF70186819781801B5C
:104CD000910B8E01EC01219791CFDF91CF911F9124
:104CE0000F91FF90EF90DF90CF9008951F93CF9397
:104CF000DF93EC01162F40E450E060E870E00E9482
:104D0000832A80E795E0998388838FEF8A8F8E8F3F
:104D10008C8F8B8F1D8FDF91CF911F91089580E035
:104D200094E0E7E5F1E0DF019C011D922150304065
:104D3000E1F70895FC01878D882339F06EBD0000EE
:104D40000DB407FEFDCF8EB5089588E090E030E801
:104D5000A2A1B3A14C9121A5209524232C93A0A11D
:104D6000B1A120A5432F462321F04C91422B4C9317
:104D700004C04C91209524232C93A2A1B3A12C9183
:104D800041A5242B2C933695019711F708951F9375
:104D9000CF93DF93EC01162F8A8D8F3F09F1ECA1A1
:104DA000FDA180819AA5892B8083EEA1FFA190812E
:104DB0008BA5809589238083ECA1FDA190818AA594
:104DC000809589238083CE010E949A26ECA1FDA1C3
:104DD00080819AA5892B8083DF91CF911F910895BF
:104DE000888D682F772767FD709586E396E00E948F
:104DF000A62C60E086E396E00E94532C612F86E3A8
:104E000096E00E94532C86E396E0DF91CF911F91AC
:104E10000C94BB2C0F931F93CF93DF93EC01162FB1
:104E2000022F698F488F8A8D8F3F09F48CC061E013
:104E30008C8D0E94CC2F61E08E8D0E94CC2F8E8DA8
:104E4000992787FD9095FC01E650F64FE491F0E03C
:104E5000EE0FFF1FE85EF54F259134913DA32CA383
:104E6000FC01EA51F64F84918AA78C8D992787FD22
:104E70009095FC01E650F64FE491F0E0EE0FFF1F35
:104E8000E85EF54F259134913FA32EA3FC01EA5132
:104E9000F64F84918BA78F8D811134C061E08A8D8C
:104EA0000E94CC2F61E08B8D0E94CC2F8B8D992797
:104EB00087FD9095FC01E650F64FE491F0E0EE0F8F
:104EC000FF1FE85EF54F259134913BA32AA3FC0117
:104ED000EA51F64F849189A78A8D992787FD90958D
:104EE000FC01E650F64FE491F0E0EE0FFF1FE85EA4
:104EF000F54F2591349139A328A3FC01EA51F64FCF
:104F0000849188A78F8D882311F10E94C6288091F3
:104F10003406882399F09FB7F89480913406813045
:104F200059F48DB3809332062DB38091330680956A
:104F300082238DBB9FBF02C09093320680E58CBD5B
:104F400081E08DBD04C086E396E00E94922C002390
:104F5000F1F08D8D87FD1BC061E00E94CC2F61E0D8
:104F60008D8D0E94053061E070E080E090E00E944D
:104F7000062F60E08D8D0E9405306AE070E080E0D1
:104F800090E00E94062F61E08D8D0E9405306EEA50
:104F9000CE010E94C72665EDCE010E94C72660E8BB
:104FA000CE010E94C72668EACE010E94C7266FE3A1
:104FB000CE010E94C72663EDCE010E94C72660E0A5
:104FC000CE010E94C72660E4CE010E94C7266DE88C
:104FD000CE010E94C726113011F460E101C064E1E6
:104FE000CE010E94C72660E2CE010E94C72660E083
:104FF000CE010E94C72661EACE010E94C72668EC56
:10500000CE010E94C7266AEDCE010E94C72662E14A
:10501000CE010E94C72661E8CE010E94C72611304A
:1050200011F46FE901C06FECCE010E94C72669ED53
:10503000CE010E94C726113011F462E201C061EF77
:10504000CE010E94C7266BEDCE010E94C72660E408
:10505000CE010E94C72664EACE010E94C72666EAF6
:10506000CE010E94C7266EE2CE010E94C7266FEADB
:10507000CE01DF91CF911F910F910C94C726DF9243
:10508000EF92FF920F931F93CF93DF93EC0161E2B6
:105090000E94C72660E0CE010E94C7266FE7CE01BE
:1050A0000E94C72662E2CE010E94C72660E0CE01C0
:1050B0000E94C72667E0CE010E94C7268A8D8F3FD7
:1050C00031F1ECA1FDA180819AA5892B8083EEA10D
:1050D000FFA180819BA5892B8083ECA1FDA19081FC
:1050E0008AA580958923808307E511E0F801619105
:1050F0008F01CE010E949A26F5E007351F07B1F710
:10510000ECA1FDA180819AA5892B808337C0D09026
:10511000B8008CE08093B80007E511E0688D772730
:1051200067FD709586E396E00E94A62CE091360616
:10513000F09137060190F081E02D60E486E396E07F
:105140000995E12CF12CF801EE0DFF1D608186E33D
:1051500096E00E94532C8FEFE81AF80AE0E1EE1671
:10516000F10489F786E396E00E94BB2C005F1F4F95
:10517000F5E007351F0791F6D092B800DF91CF9187
:105180001F910F91FF90EF90DF900895CF93CFB7CD
:10519000F89480913506811127C0E4E0FAE084910B
:1051A000E0EFF9E09491E82FF0E0EE0FFF1FEE5DE5
:1051B000F54FA591B4918C91892321F461E08AE0A7
:1051C0000E94053061E08AE00E94CC2F8CB580619E
:1051D0008CBD8CB580648CBD61E08DE00E94CC2FCD
:1051E00061E08BE00E94CC2F809135068F5F809329
:1051F0003506CFBFCF9108952F923F924F925F9285
:105200006F927F928F929F92AF92BF92CF92DF92D6
:10521000EF92FF920F931F93CF93DF9300D000D0B4
:10522000CDB7DEB74C017C836B836A015901C8019D
:105230008701AC014C195D0957FF03C05195419599
:10524000510995016B817C81261B370B37FF03C009
:1052500031952195310922242394312C24173507C7
:1052600014F0212C312C2114310459F03A2D2B2D1E
:105270005C01832F922F3B812C81DC82CB82C32E59
:10528000D22EAB81BC81AA16BB065CF43C2D2D2D21
:105290006C01832F922F3B812C81BC82AB82A32E89
:1052A000B22E2501EB81FC814E1A5F0A3C016C187D
:1052B0007D0877FE03C0719461947108720157FEF6
:1052C00003C0FFEFEF1AFF0AF594E794C816D9065A
:1052D0002CF421E030E03A83298324C06FEF7FEF84
:1052E0007A8369831FC0D401ED91FC910480F5811C
:1052F000E02D980121143104D9F04B815C81B60175
:10530000C4010995E618F708F7FE06C0E981FA819D
:10531000CE0EDF1EE40CF51C2B813C812F5F3F4F2E
:105320003C832B836B817C81A616B706E4F604C010
:10533000A6016B817C81E4CF0F900F900F900F90AE
:10534000DF91CF911F910F91FF90EF90DF90CF9061
:10535000BF90AF909F908F907F906F905F904F9095
:105360003F902F9008956F927F928F929F92AF926D
:10537000BF92CF92DF92EF92FF920F931F93CF9342
:10538000DF93EC015B016A0139014801E881F98191
:105390000284F385E02D87010995E881F981A60152
:1053A000480D591D415051090284F385E02D9301A8
:1053B000B501CE010995E881F9810084F185E02DE0
:1053C0009401A601B501CE010995E881F981B501E5
:1053D000660D771D615071090084F185E02D9401FF
:1053E000A601CE010995DF91CF911F910F91FF90FA
:1053F000EF90DF90CF90BF90AF909F908F907F9075
:105400006F900895EF92FF920F931F93DC01ED913F
:10541000FC91240F351F215031090680F781E02DC2
:10542000780189019B0109951F910F91FF90EF90E1
:105430000895EF92FF920F931F93DC01ED91FC9181
:10544000260F371F215031090680F781E02D7801A2
:105450008A0109951F910F91FF90EF9008956F9227
:105460007F928F929F92AF92BF92CF92DF92EF92F4
:10547000FF920F931F93CF93DF935C014A01690161
:105480003801EB01C60ED71ECC15DD0574F4D5012D
:10549000ED91FC910084F185E02D87019301A40139
:1054A000BE01C50109952196EFCFDF91CF911F91E4
:1054B0000F91FF90EF90DF90CF90BF90AF909F90B3
:1054C0008F907F906F900895EF92FF920F931F93AC
:1054D000DC01ED91FC9111971A960D911C911B978F
:1054E00018962D913C9119970684F785E02D7B0144
:1054F00040E050E060E070E009951F910F91FF904F
:10550000EF9008950895FC011382128288E895E0D7
:105510009183808375836483578346837187608713
:1055200053874287158A158614861786168621E0CA
:10553000248B8FEF9FEF938B828B918B808B268BAD
:10554000178A08952F923F924F925F926F927F92A7
:105550008F929F92AF92BF92CF92DF92EF92FF9283
:105560000F931F93CF93DF93CDB7DEB72C970FB672
:10557000F894DEBF0FBECDBF9C878B873A0118879A
:105580000F83FA86E986CD82DC0118968D919C9175
:105590001997681779070CF09EC01A968D919C9107
:1055A0001B97481759070CF096C08C2C912CCB01F7
:1055B000B6E0CB9E800D911D1124181619060CF033
:1055C0008AC0C401E3E0880F991FEA95E1F7840FD0
:1055D000951F181619060CF07EC0AB85BC85579632
:1055E0008C91811103C0203B08F02F5F5B016B01A0
:1055F0001C8252ED452E54E0552E461A570AB5E04E
:105600002B9F400C511C1124EC81E53031F0F2014C
:10561000EA0DFB1D24912B8301C01B827A826982D3
:1056200013011E823B8130FF13C0AB85BC85ED9119
:10563000FC91BD81B13031F40480F581E02D2F81E2
:10564000388519C00684F785E02DEF80F8841EC0E8
:10565000E985FA852F813885E217F307F9F0AB85E4
:10566000BC85ED91FC91BD81B13059F40480F58188
:10567000E02D29853A85A101B5018B859C85099589
:105680000DC00684F785E02DE984FA848401940135
:1056900049815A81B6018B859C850995EB81E695F8
:1056A000EB83FE81FF5FFE8329813A81280D391D3E
:1056B0003A8329833FEF231A330AF83009F0B2CF37
:1056C0004C814F5F4C83C80CD91C8FEFA81AB80AC5
:1056D000463009F099CF2C960FB6F894DEBF0FBE76
:1056E000CDBFDF91CF911F910F91FF90EF90DF9091
:1056F000CF90BF90AF909F908F907F906F905F9072
:105700004F903F902F900895CF92EF92FF920F937A
:105710001F93CF93DF93EC01262F6A3049F42C8935
:105720008E859F8538E0239F800D911D112432C006
:105730006D30A1F1EA88FB88088919894E855F855B
:105740006C857D85CC880E94A22A2C89422F50E04E
:105750008C859D8536E0239F800D911D11249D87AA
:105760008C872E892223D1F06AEF64039001659F14
:10577000300D112468857985260F371F28173907C2
:105780006CF4F3E0440F551FFA95E1F78E859F8581
:10579000840F951F9F878E871D861C8681E090E071
:1057A000DF91CF911F910F91FF90EF90CF900895CF
:1057B000FC0175876487578746870895611101C08A
:1057C00061E0FC01648B0895FC01738B628B718B2B
:1057D000608B0895FC01718B608B538B428B089515
:1057E000FC0185890895FC01808591850895FC015F
:1057F0008285938508958091660690E020916706E2
:10580000821B9109089520916706809166062817EA
:1058100050F4E22FF0E0E859F94F808190E02F5FDB
:105820002093670608958FEF9FEF0895E091670634
:1058300080916606E81730F4F0E0E859F94F80816E
:1058400090E008958FEF9FEF08950895CF92DF9233
:10585000EF92FF920F931F93CF93DF937C01CB01C5
:105860008A0120914206222389F0EB016B01C40ECC
:10587000D51ECC15DD0569F06991D701ED91FC913C
:105880000190F081E02DC7010995F3CF642F0E94AC
:10589000372DC801DF91CF911F910F91FF90EF90AD
:1058A000DF90CF900895CF93DF931F92CDB7DEB7EF
:1058B0006983209142062223D1F0209143062032B1
:1058C00040F021E030E0FC013383228380E090E06F
:1058D00015C080914406E82FF0E0EB5BF94F998109
:1058E00090838F5F809344068093430605C061E0F8
:1058F000CE0101960E94372D81E090E00F90DF915C
:10590000CF910895FC011382128248EE53E060E0CB
:1059100070E0448355836683778380EA95E09183C2
:1059200080830895109267061092660610924406CE
:10593000109243060C94C22C81E08093420660933F
:105940006506109244061092430608950C949C2C10
:105950000F93062F21E04091430665E476E08091A5
:1059600065060E94E02C10924406109243061092A5
:1059700042060F91089561E00C94A82C86E396E00E
:105980000C94822C1092F50681E08093F30610921D
:10599000F20661E082E10E94053061E083E10E944D
:1059A0000530E9EBF0E080818E7F808380818D7F00
:1059B000808388E48093B80085E48093BC000895D8
:1059C0000F93413208F04AC09091F5069111FCCF37
:1059D00092E09093F5060093F3069FEF909388066C
:1059E0001092CD064093CC06FB016EEC76E0DB0115
:1059F0009A2F961B941718F491919D93F9CF1092BA
:105A0000F4069091F406880F892B8093F406809118
:105A1000F206813061F41092F2068091F4068093D0
:105A2000BB008091BC0083FDF8CF85EC01C085EE02
:105A30008093BC00222321F08091F5068230E1F3AF
:105A4000809188068F3F61F080918806803251F006
:105A500080918806803341F483E007C081E005C06F
:105A600080E003C082E001C084E00F9108956132BC
:105A700098F42091F506243089F46093AA06FC017D
:105A80008CEA96E0DC012A2F281B261718F42191B6
:105A90002D93F9CF80E0089581E0089582E0089584
:105AA00085ED8093BC008091BC0084FDFCCF1092FA
:105AB000F506089585EC8093BC001092F5060895D4
:105AC0001F920F920FB60F9211242F933F934F9373
:105AD0005F936F937F938F939F93AF93BF93EF9356
