:100000000C941A050C9442050C9442050C9442057C
:100010000C9442050C9442050C9442050C94420544
:100020000C9442050C9442050C9442050C94420534
:100030000C9442050C9442050C9442050C94420524
:100040000C94D72F0C9442050C9491320C94C3322B
:100050000C9442050C9442050C9442050C94420504
:100060000C94AA2E0C9442052D2D20534156454444
:10007000202D2D005349474E3A00465245513A2013
:100080002020202047487A0020204641562043481F
:10009000414E3A004348414E3A004100420045007B
:1000A000462F4169727761766500432F526163651F
:1000B00000442F352E33202020200042414E443A68
:1000C000004155544F205345454B004641564F5231
:1000D000495445004D414E55414C0042414E44204B
:1000E0005343414E4E4552004D4F44453A00534113
:1000F00056452053455454494E47530053415645A5
:10010000202620455849540043414C49425241540D
:10011000452052535349005349474E203A20004F3F
:100120004646004F4E200042454550533A20004677
:1001300052455155454E4359004348414E4E454C5A
:100140002020004F524445523A2000534554555008
:10015000204D454E55005245434549564552204293
:100160000052454345495645522041004155544FA0
:1001700000444956455253495459004C4F57205357
:1001800049474E414C005253534900414E5420427E
:1001900000414E542041004155544F002020200082
:1001A00020202000353934350035383030003533E3
:1001B0003632004D696E3A20202020204D61783A79
:1001C000005253534920534554555000424553540F
:1001D0003A0042414E44205343414E4E4552004165
:1001E00055544F205345454B204D4F4445004155F4
:1001F000544F204D4F4445204C4F434B004120204D
:1002000020202020202000422020202020202020EC
:100210000045202020202020202000462F41697208
:100220007761766500432F5261636520202000448A
:100230002F352E332020202000454D5054590046A4
:1002400041564F524954455300544F54414C204657
:1002500041562F45533D0052454F5247414E495A52
:10026000494E47204641562F4553200052454F5294
:1002700047414E495A494E470053454C4543544522
:1002800044204641564F52495445204348002D2DA5
:100290002044454C45544544202D2D0046415620D0
:1002A0004348414E4E454C3A004348414E4E454C22
:1002B00020465245513A0044454C4554452046415C
:1002C000564F52495445204348414E003539343544
:1002D000003538303000353336320042414E443A32
:1002E000004155544F205345454B204D4F44450048
:1002F0004D414E55414C204D4F4445004641564FCF
:1003000052495445204D4F444500202020202020B4
:10031000202020004641564F52495445530044493D
:1003200056455253495459004D414E55414C204D6C
:100330004F44450042414E44205343414E4E4552A6
:10034000004155544F204D4F4445004D4F444520EA
:1003500053454C454354494F4E0020002020202057
:100360002020202020005345545550204D454E5507
:10037000004D4F44452053454C454354494F4E0092
:1003800044495341424C45440020454E41424C456E
:1003900044004469766572736974793A004F4B0082
:1003A000506F7765723A00426F6F742043686563DF
:1003B0006B0028292A2B2C2D2E2F131220112110EF
:1003C0000722081806091905230A1A040B1B03241F
:1003D0000C1C020D1D25010E1E000F1F26141527D3
:1003E0001617A1A2A3A4A5A6A7A8B1B2B3B4B5B687
:1003F000B7B8E1E2E3E4E5E6E7E8F1F2F3F4F5F6B5
:10040000F7F8C1C2C3C4C5C6C7C8D1D2D3D4D5D6E4
:10041000D7D8E916D516C116AD16991685167116D8
:100420005D16651678168B169E16B116C416D7166D
:10043000EA164916351621160D16FD161117251741
:1004400039176C1680169416A816BC16D016E4162A
:10045000F8161A163F1664168916AE16D316F81635
:100460001D17F21417153C1561158615AB15D0151F
:10047000F515052A9B29912987291D291329092961
:100480009F2803290C2916291F29892992299C298B
:10049000052A95288B28812817280F2A192A832AAC
:1004A0008D2A062910291A2984298E299829022A99
:1004B0000C2A1D2890280229152987299A290C2AF7
:1004C0001F2A09261C268E260127132786279827F0
:1004D0000B2800000000003E5B4F5B3E3E6B4F6B05
:1004E0003E1C3E7C3E1C183C7E3C181C577D571C15
:1004F0001C5E7F5E1C00183C1800FFE7C3E7FF008E
:1005000018241800FFE7DBE7FF30483A060E2629DB
:10051000792926407F050507407F05253F5A3CE79E
:100520003C5A7F3E1C1C08081C1C3E7F14227F2264
:10053000145F5F005F5F06097F017F006689956A2F
:10054000606060606094A2FFA29408047E040810BA
:10055000207E201008082A1C08081C2A08081E10E3
:100560001010100C1E0C1E0C30383E3830060E3E9B
:100570000E06000000000000005F000000070007FA
:1005800000147F147F14242A7F2A12231308646224
:1005900036495620500008070300001C2241000085
:1005A00041221C002A1C7F1C2A08083E08080080E3
:1005B000703000080808080800006060002010087B
:1005C00004023E5149453E00427F4000724949497C
:1005D000462141494D331814127F102745454539AE
:1005E0003C4A4949314121110907364949493646B2
:1005F0004949291E00001400000040340000000892
:100600001422411414141414004122140802015934
:1006100009063E415D594E7C1211127C7F494949C1
:10062000363E414141227F4141413E7F4949494156
:100630007F090909013E414151737F0808087F0085
:10064000417F41002040413F017F081422417F400B
:100650004040407F021C027F7F0408107F3E4141E2
:10066000413E7F090909063E4151215E7F09192952
:1006700046264949493203017F01033F4040403F3C
:100680001F2040201F3F4038403F6314081463037D
:10069000047804036159494D43007F4141410204FC
:1006A000081020004141417F040201020440404003
:1006B0004040000307080020545478407F284444F9
:1006C000383844444428384444287F385454541813
:1006D00000087E090218A4A49C787F08040478000E
:1006E000447D40002040403D007F102844000041F0
:1006F0007F40007C047804787C0804047838444403
:100700004438FC1824241818242418FC7C080404F9
:1007100008485454542404043F44243C4040207C62
:100720001C2040201C3C4030403C44281028444CB5
:100730009090907C4464544C440008364100000082
:10074000770000004136080002010204023C262323
:10075000263C1EA1A161123A4040207A38545455DB
:1007600059215555794122545478422155547840A5
:1007700020545579400C1E5272123955555559392D
:100780005454545939555454580000457C41000282
:10079000457D420001457C407D1211127DF02825E7
:1007A00028F07C545545002054547C547C0A097F21
:1007B0004932494949323A4444443A324A48483035
:1007C0003A4141217A3A42402078009DA0A07D3DE7
:1007D0004242423D3D4040403D3C24FF2424487E6F
:1007E0004943662B2FFC2F2BFF0929F620C0887E5A
:1007F000090320545479410000447D413048484A5F
:1008000032384040227A007A0A0A727D0D19317D11
:100810002629292F28262929292630484D402038E5
:100820000808080808080808382F10C8ACBA2F10A4
:100830002834FA00007B000008142A142222142A0B
:1008400014085500550055AA55AA55AAFF55FF553D
:10085000FF000000FF00101010FF00141414FF0030
:100860001010FF00FF1010F010F0141414FC00140E
:1008700014F700FF0000FF00FF1414F404FC14142C
:1008800017101F10101F101F1414141F0010101029
:10089000F0000000001F101010101F10101010F0BA
:1008A00010000000FF101010101010101010FF109A
:1008B000000000FF140000FF00FF00001F101700E1
:1008C00000FC04F414141710171414F404F40000BA
:1008D000FF00F714141414141414F700F71414146C
:1008E000171410101F101F141414F4141010F0100B
:1008F000F000001F101F0000001F14000000FC1477
:100900000000F010F01010FF10FF141414FF14106A
:1009100010101F00000000F010FFFFFFFFFFF0F0BD
:10092000F0F0F0FFFFFF0000000000FFFF0F0F0FCF
:100930000F0F3844443844FC4A4A4A347E020206C7
:1009400006027E027E0263554941633844443C04FA
:10095000407E201E2006027E020299A5E7A5991C72
:100960002A492A1C4C7201724C304A4D4D30304895
:10097000784830BC625A463D3E494949007E0101F3
:10098000017E2A2A2A2A2A44445F444440514A4488
:100990004040444A51400000FF0103E080FF000056
:1009A00008086B6B083612362436060F090F06004E
:1009B0000018180000001010003040FF0101001F57
:1009C00001011E00191D1712003C3C3C3C000000B8
:1009D00000000000000800020100000304070000FE
:1009E0000000000000000102040810204080010205
:1009F0000408102001020408102004040404040464
:100A000004040202020202020303030303030000C0
:100A10000000230026002900000000002500280017
:100A20002B0000000000240027002A008516411A30
:100A3000082EF33211241FBECFEFD8E0DEBFCDBFAA
:100A400015E0A0E0B1E0ECECFEE602C005900D92EE
:100A5000A23CB107D9F727E0A2ECB5E001C01D9296
:100A6000A43AB207E1F71AE0C4E3DAE004C022973F
:100A7000FE010E942F37CC32D107C9F70E94823481
:100A80000C9464370C940000A0EFB5E020E0FC016A
:100A90003491332331F02E3121F03D9301962F5FB5
:100AA000F6CFE22FF0E0E051FA4F308380EF95E08F
:100AB00008952FEFFC0122831082089582EC95E0C7
:100AC0000E94952640E050E060E070E082EC95E006
:100AD0000E94222D61E082EC95E00E94282D61E0C9
:100AE00070E082EC95E00C942E2DCF92DF92EF9285
:100AF000FF920F931F93CF93DF936C01EB0121E0E3
:100B00004CE362E082EC95E00E94102782EC95E0D5
:100B10000E94452860ED77E080E090E00E94503030
:100B2000C6010E945E05E091C205F091C305C6842E
:100B3000D78482EC95E00E943D2DEE24E394F12CC5
:100B40000BE010E09C0140E050E060E070E082ECDF
:100B500095E0F601099560E070E082EC95E00E9476
:100B60002E2D82EC95E00E943D2DBC016C53710945
:100B700077FF02C06F5F7F4F7595679542E050E049
:100B800082EC95E00E94222D87EA93E00E944405C2
:100B9000BC0182EC95E00E94743361E070E082EC6D
:100BA00095E00E942E2D4CE050E060E070E082EC79
:100BB00095E00E94222D80EA93E00E944405BC014A
:100BC00082EC95E00E94743382EC95E00E943D2D0A
:100BD000BC016C5071094CE050E082EC95E00E9441
:100BE000222D8DE993E00E944405BC0182EC95E042
:100BF0000E94743344E150E060E070E082EC95E0E4
:100C00000E94222D82EC95E00E94452882E993E023
:100C10000E944405BC0182EC95E00E94743382EC92
:100C200095E00E9445286AEF70E080E090E00E9425
:100C3000503082EC95E00E943D2DBC01605371095B
:100C400044E150E082EC95E00E94222D85E10E9473
:100C5000D03005971CF089E893E002C080E893E06B
:100C60000E944405BC0182EC95E00E94743382EC42
:100C700095E00E943D2DFE0101900020E9F731979B
:100C8000EC1BFD0B4CE04E9F90014F9F300D11244B
:100C9000BC01621B730B7695679544E250E082ECD1
:100CA00095E00E94222D62E082EC95E00E94282DC2
:100CB000BE0182EC95E00E94743382EC95E00E94C4
:100CC000452862EE74E080E090E00E94503080E0C1
:100CD000DF91CF911F910F91FF90EF90DF90CF9018
:100CE0000895CF92DF92EF92FF920F931F93CF93CD
:100CF000DF93EB01E091C205F091C305C484D58474
:100D000082EC95E00E94412D8C0182EC95E00E94DE
:100D10003D2DEE24E394F12C9C0140E050E060E096
:100D200070E082EC95E0F6010995E091C205F09142
:100D3000C305C684D78482EC95E00E943D2D0BE06C
:100D400010E09C0140E050E060E070E082EC95E053
:100D5000F601099561E082EC95E00E94282D60E0A3
:100D600070E082EC95E00E942E2D82EC95E00E94CE
:100D70003D2DFE0101900020E9F73197EC1BFD0BA2
:100D800046E04E9F90014F9F300D1124BC01621B25
:100D9000730B7695679542E050E082EC95E00E94F7
:100DA000222DBE0182EC95E00E94743361E070E078
:100DB00082EC95E0DF91CF911F910F91FF90EF9022
:100DC000DF90CF900C942E2DDF92EF92FF920F9335
:100DD0001F93CF93DF93EC01D62E0E945E0581E72F
:100DE00093E00E944405BC01CE010E947106E0918F
:100DF000C205F091C305C685D78582EC95E00E94B7
:100E00003D2D2AE0D29EA0011124445F5F4FEE24C5
:100E1000E394F12C0AE010E09C0160E070E082ECC9
:100E200095E0FE010995C1E0D0E0D11002C0C0E01C
:100E3000D0E0BE0182EC95E00E942E2D4DE050E006
:100E400065E070E082EC95E00E94222D86E693E05A
:100E50000E944405BC0182EC95E00E9474338CE54D
:100E600093E00E944405BC0182EC95E00E9474333B
:100E7000E091C205F091C3050190F081E02D68E199
:100E800082EC95E00995BE0182EC95E00E942E2D42
:100E900047E150E065E070E082EC95E00E94222D91
:100EA0008AE593E00E944405BC0182EC95E00E9433
:100EB000743382EC95E0DF91CF911F910F91FF90F9
:100EC000EF90DF900C944528DF92EF92FF920F9302
:100ED0001F93CF93DF93EC01D62E0E945E058BE427
:100EE00093E00E944405BC01CE010E947106E0918E
:100EF000C205F091C305C685D78582EC95E00E94B6
:100F00003D2D2AE0D29EA0011124445F5F4FEE24C4
:100F1000E394F12C0AE010E09C0160E070E082ECC8
:100F200095E0FE01099561E070E0D11002C060E03B
:100F300070E082EC95E00E942E2D4DE050E065E0DF
:100F400070E082EC95E00E94222D81E493E00E9403
:100F50004405BC0182EC95E00E94743361E070E0CE
:100F6000F1E0DF1202C060E070E082EC95E00E94E8
:100F70002E2D47E150E065E070E082EC95E00E94A4
:100F8000222D84E393E00E944405BC0182EC95E0AD
:100F90000E94743361E070E022E0D21202C060E08F
:100FA00070E082EC95E00E942E2D41E250E065E079
:100FB00070E082EC95E00E94222D88E293E00E948E
:100FC0004405BC0182EC95E00E94743385E10E94E7
:100FD000D0300597E4F061E070E083E0D81202C001
:100FE00060E070E082EC95E00E942E2D4BE250E034
:100FF00065E070E082EC95E00E94222D8EE193E0A6
:101000000E944405BC0182EC95E00E94743361E0CB
:1010100070E0E4E0DE1202C060E070E082EC95E097
:101020000E942E2D45E350E065E070E082EC95E0F3
:101030000E94222D84E193E00E944405BC0182ECD1
:1010400095E00E9474338AE093E00E944405BC015D
:1010500082EC95E00E947433E091C205F091C305E3
:101060000190F081E02D69E182EC95E0099582EC38
:1010700095E0DF91CF911F910F91FF90EF90DF905E
:101080000C944528AF92BF92CF92DF92EF92FF92DD
:101090000F931F93CF93DF931F92CDB7DEB78C01D1
:1010A0008FEFF8018283C80169830E945E05698120
:1010B000693019F48CEF92E009C0633019F480EFC5
:1010C00092E004C0613041F481EE92E00E94440558
:1010D000BC01C8010E94710661E070E082EC95E0FD
:1010E0000E942E2DE091C205F091C305C680D780E5
:1010F00082EC95E00E943D2DEE24E394F12C04E176
:1011000010E09C0144E150E060E070E082EC95E08A
:10111000F6010995E091C205F091C305C680D7801C
:1011200082EC95E00E943D2D00E210E09C0140E23F
:1011300050E060E070E082EC95E0F60109954CE04B
:1011400050E065E070E082EC95E00E94222DE09195
:10115000C205F091C3050680F781E02D04E110E09F
:1011600021E630E04BE050E061E670E082EC95E093
:1011700009958BED92E00E944405BC0182EC95E05C
:101180000E94743311E3A8E0CA2ED12C47E150E04D
:10119000B60182EC95E00E94222D612F82EC95E051
:1011A0000E947633FFE0CF0ED11C1F5F193371F719
:1011B000E091C205F091C305C680D78082EC95E02E
:1011C0000E943D2DEE24E394F12C04E210E09C01FA
:1011D00044E250E060E070E082EC95E0F6010995B1
:1011E000E091C205F091C305A680B78082EC95E03E
:1011F0000E94412D8C0182EC95E00E943D2D6C01F6
:1012000082EC95E00E94412D0B501109AC014B502E
:101210005109960160E070E082EC95E0F5010995D6
:1012200082EC95E00E94412DAC014950510962E0E9
:1012300070E082EC95E00E94222D86ED92E00E9403
:101240004405BC0182EC95E00E94743382EC95E089
:101250000E94412DAC014950510967E370E082ECD6
:1012600095E00E94222D81ED92E00E944405BC0190
:1012700082EC95E00E94743382EC95E00E94412D4F
:101280008C0182EC95E00E943D2DA8014950510946
:10129000BC016951710982EC95E00E94222D8CEC11
:1012A00092E00E944405BC0182EC95E00E947433F8
:1012B00082EC95E00F90DF91CF911F910F91FF90FD
:1012C000EF90DF90CF90BF90AF900C944528FF92A5
:1012D0000F931F93CF93DF93EC018B01F42E0E94A9
:1012E0005E0587EB92E00E944405BC01CE010E949E
:1012F000710661E070E082EC95E00E942E2D4CE0DA
:1013000050E065E070E082EC95E00E94222D89EAD1
:1013100092E00E944405BC0182EC95E00E94743387
:101320004CE050E065E570E082EC95E00E94222DF3
:101330004AE050E0B80182EC95E00E94323444E18A
:1013400050E065E070E082EC95E00E94222D8CE98F
:1013500092E00E944405BC0182EC95E00E94743347
:1013600044E150E065E570E082EC95E00E94222DBA
:101370004AE050E06F2D82EC95E00E942B3482EC25
:1013800095E00E943D2D8254910997FD0196BC0184
:101390007595679544E350E082EC95E00E94222D1C
:1013A0008EE892E00E944405BC0182EC95E00E9428
:1013B000743382EC95E0DF91CF911F910F91FF90F4
:1013C0000C9445281F93CF93DF93EC01162F0E94B6
:1013D0005E0589E792E00E944405BC01CE010E94AF
:1013E000710665E082EC95E00E94282D61E070E0D6
:1013F00082EC95E00E942E2D44E150E064E170E023
:1014000082EC95E00E94222D4AE050E0612F82ECB0
:1014100095E00E942B3482EC95E00E944528CE0195
:101420000E945E05CE01DF91CF911F910C945E0565
:101430001F93CF93DF93EC01162F0E945E058CE67D
:1014400092E00E944405BC01CE010E94710661E059
:1014500082EC95E00E94282D61E070E082EC95E03E
:101460000E942E2D44E150E065E070E082EC95E0B2
:101470000E94222D87E592E00E944405BC0182EC87
:1014800095E00E94743382EC95E00E943D2D8254D9
:10149000910997FD0196BC017595679544E250E06E
:1014A00082EC95E00E94222D89E492E00E9444059E
:1014B000BC0182EC95E00E9474334AE050E0612F59
:1014C00082EC95E00E942B3482EC95E00E94452846
:1014D000CE010E945E05CE010E945E056CED75E0B6
:1014E00080E090E0DF91CF911F910C945030CF932A
:1014F000DF93EC010E945E058FE392E00E944405B9
:10150000BC01CE010E94710663E082EC95E00E946E
:10151000282D61E070E082EC95E00E942E2D44E1E0
:1015200050E064E170E082EC95E00E94222D89E3B6
:1015300092E00E944405BC0182EC95E00E94743365
:1015400082EC95E0DF91CF910C9445282F923F9249
:101550004F925F926F927F928F929F92AF92BF92C3
:10156000CF92DF92EF92FF920F931F93CF93DF936F
:1015700000D000D0CDB7DEB71C016983142F922EA6
:10158000B02E2701CA828A2CFC018281281709F417
:101590009DC0821710F483E001C08FEF80930B0190
:1015A00040E050E061E070E082EC95E00E94342D74
:1015B0004CE050E064E270E082EC95E00E94222D65
:1015C000183218F08FE292E016C0103218F085E25F
:1015D00092E011C0183118F08BE192E00CC010318C
:1015E00018F081E192E007C0183018F087E092E02F
:1015F00002C08DEF91E00E944405BC0182EC95E0B1
:101600000E947433812F877034E0632E712C1C820A
:101610001B82C82ED12CE091C205F091C305EE24A7
:10162000E394F12C8B819C818C159D0511F0E12CAC
:10163000F12C0684F785E02D0BE010E02EE030E081
:1016400045E150E0B30182EC95E0099561E070E07E
:10165000EB81FC81EC15FD0511F460E070E082EC9B
:1016600095E00E942E2DB3016C5F7F4F47E150E063
:1016700082EC95E00E94222D6B816F5C82EC95E0FC
:101680000E9476338B819C8101969C838B839FE0A3
:10169000690E711CEB81FC81389709F0BCCF4CE0DE
:1016A00050E065E670E082EC95E00E94222D40E07B
:1016B00050E061E070E082EC95E00E94342D4AE059
:1016C00050E0B20182EC95E00E94323482EC95E069
:1016D0000E943D2D4B2C512C612C712C0397AA2775
:1016E00097FDA095BA2FBF93AF939F938F93A12C93
:1016F000B12C6501A39414E6E12EF12C00E010E07A
:1017000021E030E040E050E0C301B2010E943834F3
:10171000A62EE091C205F091C305C684D78482EC61
:1017200095E00E943D2DB12C9C01235031092A19CE
:101730003B09B5016F5F7F4FE12CF12C03E010E016
:1017400041E250E082EC95E0F6010995E091C20596
:10175000F091C3050684F785E02DEE24E394F12C87
:10176000950141E250E061E070E082EC95E009957E
:101770001F921F921F92FEE0FF93A12CB12C6501D6
:10178000A39414E6E12EF12C00E010E021E030E01B
:1017900040E050E0C301B2010E943834E091C2053C
:1017A000F091C30566847784C62ED12C82EC95E037
:1017B0000E94412D23E0929E50011124E4E0AE0EE0
:1017C000B11C0EE010E00C191D09AC014A51510981
:1017D000E12CF12C22E030E0B50182EC95E0F30140
:1017E0000995E091C205F091C3056684778482EC87
:1017F00095E00E94412DAC014C5051094C195D09F6
:10180000EE24E394F12C860122E030E0B50182EC75
:1018100095E0F30109950FB6F894DEBF0FBECDBF7A
:101820009981913009F005C1E091C205F091C3059D
:10183000C684D78482EC95E00E94412DAC014A51C8
:101840005109E5E09E9EB0011124759567956C5F86
:101850007F4F80910B01680F711D87FD7A95E12CF8
:10186000F12C0EE010E021E030E082EC95E0F60192
:101870000995FA816F2F70E080E090E01F921F922F
:101880001F922EE02F93A12CB12C6501A39414E696
:10189000E12EF12C00E010E021E030E040E050E0EB
:1018A0000E943834A62EE091C205F091C305C6848B
:1018B000D78482EC95E00E94412DAC014A51510938
:1018C000E12CF12C0EE010E022E030E061E070E06D
:1018D00082EC95E0F6010995E091C205F091C3050F
:1018E000C680D78082EC95E00E94412DB12C8C01FE
:1018F0000C5011090A191B0982EC95E00E94412D38
:10190000AC014C5051094A195B09EE24E394F12CC7
:1019100022E030E061E070E082EC95E0F6010995AC
:10192000E091C205F091C305C684D78482EC95E0AE
:101930000E94412D8C0182EC95E00E943D2DA80172
:101940004A515109BC0163507109E12CF12C0EE0A0
:1019500010E022E030E082EC95E0F6010995E0919C
:10196000C205F091C305C680D78082EC95E00E9445
:10197000412D8C010C5011090A191B0982EC95E0CC
:101980000E943D2D3C0182EC95E00E94412D0C9778
:101990002C014A185B0882EC95E00E943D2DBC01A9
:1019A00063507109EE24E394F12C9301A20182ECBF
:1019B00095E0F60109950F900F900F900F9041E080
:1019C00050E060E070E082EC95E08820B1F00E9489
:1019D000342D82EC95E00E943D2D8455910997FDB0
:1019E0000196BC017595679542E050E082EC95E068
:1019F0000E94222D8EEE91E015C00E94342D82ECC3
:101A000095E00E943D2D8455910997FD0196BC01FA
:101A10007595679542E050E082EC95E00E94222D9A
:101A20008FED91E00E944405BC0182EC95E00E949C
:101A30007433F101928282EC95E00F900F900F9039
:101A40000F90DF91CF911F910F91FF90EF90DF905A
:101A5000CF90BF90AF909F908F907F906F905F904E
:101A60004F903F902F900C944528AF92BF92CF9209
:101A7000DF92EF92FF920F931F93CF93DF931F920A
:101A8000CDB7DEB78C0169830E945E05F801118233
:101A90006981623099F482ED91E00E944405BC01B5
:101AA000C8010E9471064CE050E065E070E082ECF5
:101AB00095E00E94222D8CEC91E012C081EC91E027
:101AC0000E944405BC01C8010E9471064CE050E030
:101AD00065E070E082EC95E00E94222D83EB91E0BE
:101AE0000E944405BC0182EC95E00E947433E091B1
:101AF000C205F091C305C680D78082EC95E00E94B4
:101B00003D2DEE24E394F12C04E110E09C0144E12E
:101B100050E060E070E082EC95E0F6010995E0911C
:101B2000C205F091C305A680B78082EC95E00E94C3
:101B3000412D8C0182EC95E00E943D2D6C0182ECE0
:101B400095E00E94412D0B501109AC014B505109F9
:101B5000960160E070E082EC95E0F501099582EC79
:101B600095E00E94412DAC014950510962E070E0BE
:101B700082EC95E00E94222D8EEA91E00E944405BD
:101B8000BC0182EC95E00E94743382EC95E00E94E7
:101B9000412DAC014950510967E370E082EC95E0BA
:101BA0000E94222D89EA91E00E944405BC0182EC4A
:101BB00095E00E94743382EC95E00E94412D8C01E7
:101BC00082EC95E00E943D2DA80149505109BC01CD
:101BD0006951710982EC95E00E94222D84EA91E01E
:101BE0000E944405BC0182EC95E00E94743382ECB3
:101BF00095E00F90DF91CF911F910F91FF90EF90A3
:101C0000DF90CF90BF90AF900C9445282F923F92D9
:101C10004F925F926F927F928F929F92AF92BF92FC
:101C2000CF92DF92EF92FF920F931F93CF93DF93A8
:101C3000CDB7DEB72A970FB6F894DEBF0FBECDBF83
:101C40002C01662E842E922E702EFC82EB82DE8278
:101C5000CD82B886AF82622F70E080E090E01F9264
:101C60001F921F922EE12F93A12CB12C6501A394FA
:101C700014E6E12EF12C00E010E021E030E040E03D
:101C800050E00E943834C62E82EC95E00E94412D2F
:101C90005C010F900F900F900F90D20112968C91D3
:101CA000881609F45BC0D12CE091C205F091C30500
:101CB000268537853A83298382EC95E00E94412D61
:101CC000E5E08E9ED0011124B595A795BA87A98726
:101CD0001D01F4E02F0E311C0EE110E00C191D095E
:101CE000AC014A525109E12CF12C22E030E0B10163
:101CF00082EC95E0E981FA810995E091C205F091C5
:101D0000C305A5014C5051094C195D090684F7859E
:101D1000E02DEE24E394F12C860122E030E0B101C5
:101D200082EC95E00995E091C205F091C305C68467
:101D3000D78482EC95E00E94412DAC014A525109B2
:101D400069857A85695F7F4FE12CF12C0EE110E007
:101D500021E030E082EC95E0F6010995611042C087
:101D6000F0E5F91508F090C0D20111968C91119709
:101D7000891530F511969C9240E050E061E070E0EA
:101D800082EC95E00E94342D4CE050E064E270E07B
:101D900082EC95E00E94222D40E150E0672D82EC1C
:101DA00095E00E942B344CE050E064E370E082EC5C
:101DB00095E00E94222D4AE050E06B817C8160C05A
:101DC00000910A0110E0075F1F4F82EC95E00E942E
:101DD0003D2D0C97081719070CF456C08CE380931F
:101DE0000A0152C04CE050E06EE170E082EC95E0F8
:101DF0000E94222D40E050E061E070E082EC95E02E
:101E00000E94342D80EA91E00E944405BC0182ECDE
:101E100095E00E9474334CE050E06EE170E082EC9B
:101E200095E00E94222D4AE050E06D817E8182EC97
:101E300095E00E9432344CE050E065E570E082ECC1
:101E400095E00E94222D40E050E061E070E082ECDD
:101E500095E00E94342D4CE050E065E570E082ECA6
:101E600095E00E94222D8CE991E00E944405BC017E
:101E700082EC95E00E9474334AE050E06F817885EF
:101E800082EC95E00E94323482EC95E00E94452875
:101E9000F20182822A960FB6F894DEBF0FBECDBF44
:101EA000DF91CF911F910F91FF90EF90DF90CF9036
:101EB000BF90AF909F908F907F906F905F904F906A
:101EC0003F902F900895DF92EF92FF920F931F9310
:101ED000CF93DF93D62EF42EE9010E945E0564E0D5
:101EE00082EC95E00E94282D61E070E082EC95E0A4
:101EF0000E942E2D40E050E062E070E082EC95E020
:101F00000E94222D4AE050E0BE0182EC95E00E9442
:101F1000323461E082EC95E00E94282D4CE150E0E3
:101F200060E070E082EC95E00E94222DB80182EC26
:101F300095E00E94743362E082EC95E00E94282DC7
:101F400042E050E062E670E082EC95E00E94222DD3
:101F500061E070E082EC95E00E942E2D40E150E0BF
:101F60006F2D82EC95E00E942B3461E082EC95E0CD
:101F70000E94282DE091C205F091C3050680F781EB
:101F8000E02DE12CF12C0BE110E022E330E04BE1FD
:101F900050E060E070E082EC95E0099585E10E94F8
:101FA000D03005973CF144E150E062E670E082EC0D
:101FB00095E00E94222D40E050E061E070E082EC6C
:101FC00095E00E94342D81E0D81659F0D81630F0F3
:101FD000E2E0DE120FC08BE891E005C087E991E0F6
:101FE00002C081E991E00E944405BC0182EC95E0C9
:101FF0000E94743341E050E060E070E082EC95E0D4
:102000000E94342DE091C205F091C305C685D785A5
:1020100082EC95E00E94412DAC014B515109EE2418
:10202000E394F12C0DE010E027E030E060E070E098
:1020300082EC95E0FE01099582EC95E00E94412D2D
:10204000AC014851510961E070E082EC95E00E94DA
:10205000222D6EE575E082EC95E00E947433E091EC
:10206000C205F091C3050190F081E02D6AE082EC99
:1020700095E0099541E050E060E070E082EC95E089
:102080000E94342DE091C205F091C305C685D78525
:1020900082EC95E00E94412DAC014D50510927E0A2
:1020A00030E060E070E082EC95E0FE01099582ECA2
:1020B00095E00E94412DAC014B50510961E070E068
:1020C00082EC95E00E94222D60E675E082EC95E0BE
:1020D0000E94743382EC95E0DF91CF911F910F91B4
:1020E000FF90EF90DF900C9445287F928F929F9203
:1020F000AF92BF92CF92DF92EF92FF920F931F9316
:10210000CF93DF931F92CDB7DEB7762E842E902E1D
:1021100085E129830E94D030298105970CF4DDC028
:10212000622F70E080E090E01F921F921F9227E7DD
:102130002F93A3E0AA2EB12CC12CD12C14E6E12EB2
:10214000F12C00E010E021E030E040E050E00E949F
:102150003834E091C205F091C305A684B784C62E39
:10216000D12C82EC95E00E94412D27E730E02C191C
:102170003D09AC014B515109B601695F7F4FE12C1C
:10218000F12C0DE010E082EC95E0F50109950F903F
:102190000F900F900F90E091C205F091C30581E080
:1021A000A684B7847816C9F082EC95E00E94412D90
:1021B000AC014B515109E12CF12C0DE010E027E767
:1021C00030E067E070E082EC95E0F5010995E09180
:1021D000C205F091C305A484B58482EC95E00E9409
:1021E000412DAC014B515109EE24E394F12C9601A1
:1021F00067E070E082EC95E0F5010995692D70E0EB
:1022000080E090E01F921F921F9227E72F93E3E058
:10221000AE2EB12CC12CD12C14E6E12EF12C00E015
:1022200010E021E030E040E050E00E943834E091DE
:10223000C205F091C305A684B784C62ED12C82ECCA
:1022400095E00E94412D27E730E02C193D09AC01B3
:102250004D505109B601695F7F4FE12CF12C0DE023
:1022600010E082EC95E0F50109950F900F900F902A
:102270000F90E091C205F091C30582E0A684B78477
:102280007816C9F082EC95E00E94412DAC014D50CA
:102290005109E12CF12C0DE010E027E730E067E078
:1022A00070E082EC95E0F5010995E091C205F091AE
:1022B000C305A484B58482EC95E00E94412DAC0155
:1022C0004D505109EE24E394F12C960167E070E043
:1022D00082EC95E0F501099589C060E070E082EC40
:1022E00095E00E942E2DE091C205F091C305C684B1
:1022F000D78482EC95E00E94412DAC014B515109ED
:10230000EE24E394F12C03E110E029E130E060E0F9
:1023100070E082EC95E0F601099582EC95E00E9470
:10232000412DAC014D50510961E070E082EC95E027
:102330000E94222D86E891E00E944405BC0182ECB7
:1023400095E00E947433882D90E0A0E0B0E01F92E9
:102350001F921F9225E62F93A12CB12C6501A39407
:1023600014E6E12EF12C00E010E021E030E040E046
:1023700050E0BC01CD010E943834E091C205F091DB
:10238000C305A684B784C62ED12C82EC95E00E94AA
:10239000412D25E630E02C193D09AC01435151098E
:1023A000B601675E7F4FE12CF12C03E110E082EC77
:1023B00095E0F5010995E091C205F091C305A68469
:1023C000B78482EC95E00E94412DAC014B5151093C
:1023D000EE24E394F12C960169E170E082EC95E043
:1023E000F50109950F900F900F900F90F3E1F815FC
:1023F00078F10E9421302AEF30E040E050E00E9466
:10240000CD3621E030E06D3771058105910510F082
:1024100020E030E040E050E0B90182EC95E00E941D
:10242000342D82EC95E00E94412DAC0142515109BE
:102430006DE270E082EC95E00E94222D8BE791E046
:102440000E944405BC0182EC95E00E94743303C0F5
:1024500085E10E94D03082EC95E00F90DF91CF9122
:102460001F910F91FF90EF90DF90CF90BF90AF90B2
:102470009F908F907F900C944528CF92DF92EF929F
:10248000FF920F931F93CF93DF93EC01D62E0E9400
:102490005E0581E791E00E944405BC01CE010E94E7
:1024A0007106E091C205F091C305C685D78582EC1F
:1024B00095E00E943D2D2AE0D29EA0011124445FA8
:1024C0005F4FEE24E394F12C0AE010E09C0160E001
:1024D00070E082EC95E0FE01099561E070E0D110BA
:1024E00002C060E070E082EC95E00E942E2D4DE08D
:1024F00050E065E070E082EC95E00E94222D8CE6D1
:1025000091E00E944405BC0182EC95E00E94743386
:1025100061E070E0F1E0DF1202C060E070E082ECA8
:1025200095E00E942E2D47E150E065E070E082ECDE
:1025300095E00E94222D81E691E00E944405BC01B5
:1025400082EC95E00E94743361E070E022E0D212E8
:1025500002C060E070E082EC95E00E942E2D41E226
:1025600050E065E070E082EC95E00E94222D86E567
:1025700091E00E944405BC0182EC95E00E94743316
:1025800061E070E082EC95E00E942E2DE091C205A2
:10259000F091C305C485D58582EC95E00E943D2D60
:1025A0006C0182EC95E00E94412DAC01455151092E
:1025B000EE24E394F12C0BE010E0960160E070E073
:1025C00082EC95E0FE01099582EC95E00E94412D98
:1025D000AC014351510965E070E082EC95E00E9446
:1025E000222D62E675E082EC95E00E94743382EC65
:1025F00095E00E94412DAC014950510965E070E021
:1026000082EC95E00E94222D65E675E082EC95E073
:102610000E94743382EC95E0DF91CF911F910F916E
:10262000FF90EF90DF90CF900C944528AF92BF922F
:10263000CF92DF92EF92FF920F931F93CF93DF938E
:10264000C62FD22F642F70E080E090E01F921F927F
:102650001F922CE62F93A12CB12C6501A39414E6B4
:10266000E12EF12C00E010E021E030E040E050E00D
:102670000E943834E091C205F091C305A684B78466
:10268000C62ED12C82EC95E00E94412D2CE630E044
:102690002C193D09AC0143515109B6016E5E7F4FC3
:1026A000E12CF12C07E010E082EC95E0F5010995B2
:1026B0000F900F900F900F90E091C205F091C3051D
:1026C000A684B78482EC95E0C130C1F00E94412D10
:1026D000AC0143515109E12CF12C07E010E09601C7
:1026E00062E170E082EC95E0F5010995E091C205A8
:1026F000F091C305A484B58482EC95E00E94412D3D
:10270000AC0143515109EE24E394F12C960162E1AE
:1027100070E082EC95E0F50109956D2F70E080E0A6
:1027200090E01F921F921F922CE62F93A12CB12CA8
:102730006501A39414E6E12EF12C00E010E021E005
:1027400030E040E050E00E943834E091C205F09162
:10275000C305A684B784C62ED12C82EC95E00E94D6
:10276000412D2CE630E02C193D09AC0149505109AE
:10277000B6016E5E7F4FE12CF12C07E010E082EC99
:1027800095E0F50109950F900F900F900F90E09153
:10279000C205F091C305C23019F4C685D7851AC0A9
:1027A000C685D78582EC95E00E94412DAC01495049
:1027B0005109E12CF12C07E010E0960162E170E094
:1027C00082EC95E0FE010995E091C205F091C30508
:1027D000C485D58582EC95E00E94412DAC0149501D
:1027E0005109EE24E394F12C960162E170E082EC51
:1027F00095E0FE01099582EC95E0DF91CF911F9164
:102800000F91FF90EF90DF90CF90BF90AF900C941E
:10281000452808958F929F92AF92BF92CF92DF92F8
:10282000EF92FF920F931F93CF93DF93EC01D62E7D
:10283000B42EA22E902EC12E8E2C0E945E058BE40B
:1028400091E00E944405BC01CE010E947106E09116
:10285000C205F091C305C685D78582EC95E00E943C
:102860003D2D2AE0D29EA0011124445F5F4FEE244B
:10287000E394F12C0AE010E09C0160E070E082EC4F
:1028800095E0FE01099561E070E0D11002C060E0C2
:1028900070E082EC95E00E942E2D4DE050E065E066
:1028A00070E082EC95E00E94222D83E491E00E948A
:1028B0004405BC0182EC95E00E947433AA2019F013
:1028C00089E391E002C08FE291E00E944405BC01DF
:1028D00082EC95E00E94743361E070E0F1E0DF1279
:1028E00002C060E070E082EC95E00E942E2D47E18E
:1028F00050E065E070E082EC95E00E94222D87E2D6
:1029000091E00E944405BC0182EC95E00E94743382
:10291000BB2019F083E291E002C08FE191E00E94B8
:102920004405BC0182EC95E00E94743361E070E0E4
:1029300022E0D21202C060E070E082EC95E00E94DA
:102940002E2D41E250E065E070E082EC95E00E94BF
:10295000222D87E191E00E944405BC0182EC95E0C4
:102960000E94743387FC4FC0E091C205F091C3050B
:10297000C685D78582EC95E00E943D2D9C012A52A8
:102980003109E12CF12C08E010E041E250E069E26D
:1029900070E082EC95E0FE010995A82CBB24A7FC11
:1029A000B094E091C205F091C305282D86E028027D
:1029B000B0011124625D7F4F0684F785E02DEE247F
:1029C000E394F12C27E030E041E250E082EC95E026
:1029D0000995C92DDC2D00E010E061E070E00A15DA
:1029E0001B0511F460E070E082EC95E00E942E2D52
:1029F000699182EC95E00E9476330F5F1F4F0A3099
:102A0000110559F706C0692D7C2D82EC95E00E94D6
:102A1000743361E070E093E0D91202C060E070E0CE
:102A200082EC95E00E942E2D4BE250E065E070E0D4
:102A300082EC95E00E94222D88E091E00E944405FE
:102A4000BC0182EC95E00E94743361E070E0E4E048
:102A5000DE1202C060E070E082EC95E00E942E2D54
:102A600045E350E065E070E082EC95E00E94222DA5
:102A70008CEF90E00E944405BC0182EC95E00E943E
:102A8000743382EC95E0DF91CF911F910F91FF900D
:102A9000EF90DF90CF90BF90AF909F908F900C946D
:102AA0004528AF92BF92CF92DF92EF92FF920F93A1
:102AB0001F93CF93DF93EC01A62EB42E69010E94E1
:102AC0005E058EEE90E00E944405BC01CE010E949E
:102AD000710661E070E082EC95E00E942E2D4CE0E2
:102AE00050E065E070E082EC95E00E94222D88EED7
:102AF00090E00E944405BC0182EC95E00E94743392
:102B00004CE050E066E270E082EC95E00E94222DFD
:102B100082E0A81689F08A1530F081E0A81218C06A
:102B200081EC90E00EC083E0A81649F089E0A8127D
:102B30000FC08BEC90E005C08BED90E002C084EDFF
:102B400090E00E944405BC0182EC95E00E94743341
:102B500044E150E065E070E082EC95E00E94222DB7
:102B60008BEB90E00E944405BC0182EC95E00E9452
:102B7000743344E150E066E270E082EC95E00E943C
:102B8000222D87E28B1518F481EB90E01AC08FE1BB
:102B90008B1518F48AEA90E014C087E18B1518F4BD
:102BA00080EA90E00EC08FE08B1518F48EE990E07B
:102BB00008C087E08B1518F48CE990E002C08AE920
:102BC00090E00E944405BC0182EC95E00E947433C1
:102BD0004CE150E065E070E082EC95E00E94222D2F
:102BE00084E990E00E944405BC0182EC95E00E94DB
:102BF00074334CE150E066E270E082EC95E00E94B4
:102C0000222D6B2D67706F5F4AE050E082EC95E0FB
:102C10000E942B348DE9E8168FEFF80681F088E8E2
:102C200090E00E944405BC0182EC95E00E94743360
:102C30004AE050E0B70182EC95E00E94163444E28D
:102C400050E065E070E082EC95E00E94222D8AE77A
:102C500090E00E944405BC0182EC95E00E94743330
:102C600044E250E066E270E082EC95E00E94222DA2
:102C70004AE050E0B60182EC95E00E9432344CE22A
:102C800050E065E070E082EC95E00E94222D84E740
:102C900090E00E944405BC0182EC95E00E947433F0
:102CA0004CE250E066E270E082EC95E00E94222D5A
:102CB000B80182EC95E00E94743382EC95E00E94AA
:102CC0003D2D8254910997FD0196BC01759567953C
:102CD00044E350E082EC95E00E94222D88E690E0EB
:102CE0000E944405BC0182EC95E00E94743382ECA2
:102CF00095E0DF91CF911F910F91FF90EF90DF90C2
:102D0000CF90BF90AF900C94452864E082EC95E0A2
:102D10000C947C260C944E370C945637DC01ED91C4
:102D2000FC910190F081E02D0994CF93DF93EC01A9
:102D300061E08DE00E944F3180910D01882321F0E8
:102D400060E086E00E944F31BE017695679580E095
:102D500090E00E94503060E08DE00E944F3161E0D1
:102D600086E0DF91CF910C944F31982FE2EBF3E0A6
:102D700080E02491291729F08F5F31968033C9F7BD
:102D800080E008950E94213020912B0630912C067E
:102D9000621B730B6931710548F489E190E0861B71
:102DA000970BBC0180E090E00C945030089598B1EE
:102DB0009C7F813011F4916001C0926098B980933A
:102DC000240108952F923F924F925F926F927F92CB
:102DD0008F929F92AF92BF92CF92DF92EF92FF922B
:102DE0000F931F93CF93DF93382EAAE0FA2E00E0C3
:102DF00010E0C0E0D0E084E10E94D03084E10E9485
:102E0000D030C80FD91F85E10E94D03085E10E94E3
:102E1000D030080F191FFA9471F72AE030E0CE0184
:102E2000B9010E94B936FB01C801B9010E94B93647
:102E30004B0180912201873061F5809118019091BA
:102E40001901E817F90720F4F0931901E09318012C
:102E500080911601909117018E179F0720F4F0932F
:102E60001701E093160180911001909111018816CD
:102E7000990620F4909211018092100180910E0128
:102E800090910F018815990520F490920F0180927E
:102E90000E01E0901A01F0901B0100E010E020917B
:102EA0001C0130911D0140E050E0BF01882777FDF3
:102EB0008095982F1F921F921F92E4E62E2E2F923C
:102EC000A12CB12C6501A3940E9438342B013C0144
:102ED000EB01E0901201F090130100E010E020916E
:102EE00014013091150140E050E0B401882777FDCE
:102EF0008095982F1F921F921F922F920E94383414
:102F00004B015C018B018DB79EB708960FB6F89404
:102F10009EBF0FBE8DBF9FEF39125CC080913306FC
:102F2000882321F0823009F04DC04FC0B4018827BA
:102F300077FD8095982F0E9492356B017C01B2013C
:102F4000882777FD8095982F0E949235A7019601DA
:102F50000E949234A70196010E94F73420E030E0ED
:102F600048EC52E40E9446366B017C0120E030E0E0
:102F7000A9010E94423618161CF4C701B60103C00D
:102F8000C701B60190580E945F3564307105BCF0EE
:102F9000809132060C171D0724F4181654F4815042
:102FA00006C0C017D1072CF487301CF48F5F8093C4
:102FB000320680913206882329F0873034F430902D
:102FC000240105C03324339402C092E0392E832DAE
:102FD0000E94D71681E0381629F0809122018730AF
:102FE00009F0E4011C161D063CF4CE01C536D105DE
:102FF0002CF084E690E002C081E090E0DF91CF9178
:103000001F910F91FF90EF90DF90CF90BF90AF9006
:103010009F908F907F906F905F904F903F902F90F8
:1030200008958FEF0C94E21660E08CE00E944F311F
:1030300081E090E00E948A3061E08AE00E944F3196
:1030400081E090E00E948A3061E08CE00E944F3184
:1030500081E090E00E948A3060E08CE00E944F3175
:1030600081E090E00C948A3060E08CE00E944F3167
:1030700081E090E00E948A3060E08AE00E944F3157
:1030800081E090E00E948A3061E08CE00E944F3144
:1030900081E090E00E948A3060E08CE00E944F3135
:1030A00081E090E00C948A3081E090E00E948A30C8
:1030B00060E08BE00E944F3181E090E00C948A3018
:1030C00081E090E00E948A3061E08BE00E944F3105
:1030D00081E090E00C948A301F93CF93DF93E82F28
:1030E000F0E0EE0FFF1FEE58FB4FC591D4910E9408
:1030F000601881E090E00E948A300E9454180E947B
:1031000034180E9434180E9434180E9414180E9427
:10311000341814E10E9434181150E1F70E9460182D
:1031200081E090E00E948A300E9454180E9460184A
:103130000E9454180E9414180E9434180E943418D7
:103140000E9434180E94141810E1C0FF03C00E94AE
:10315000141802C00E943418D695C7951150A9F7CB
:103160000E9434180E9434180E9434180E943418A7
:103170000E94601881E090E00E948A3060E08BE05D
:103180000E944F3160E08CE00E944F3160E08AE0A5
:10319000DF91CF911F910C944F310F931F93CF93D9
:1031A000DF9361E08DE00E94163161E08DE00E94C6
:1031B0004F3162E081E10E94163161E086E00E94B9
:1031C000163161E086E00E944F3160E082E00E94AB
:1031D000163162E082E00E944F3160E083E00E949D
:1031E000163162E083E00E944F3160E084E00E948B
:1031F000163162E084E00E944F3160E085E00E9479
:10320000163162E085E00E944F3161E08EE00E945D
:10321000163161E08FE00E94163181E00E94D716DE
:1032200061E08BE00E94163161E08AE00E94163175
:1032300061E08CE00E94163180E090E00E948A16E6
:103240008F3F09F058C061E080E090E00E948C164A
:1032500060E081E090E00E948C1660910D018BE0AF
:1032600090E00E948C1660910C018CE090E00E942E
:103270008C166AE582E090E00E948C1660E083E0A4
:1032800090E00E948C166CED84E090E00E948C1619
:1032900060E085E090E00E948C1668E675E083E1CE
:1032A00096E00E94473703E116E0C4E1D0E0F80160
:1032B00061918F01CE010E948C162196CE31D105ED
:1032C000B1F76091330686E090E00E948C166AE5C3
:1032D00087E090E00E948C1660E088E090E00E9419
:1032E0008C166CED89E090E00E948C1660E08AE01C
:1032F00090E00E948C1680E090E00E948A168093F5
:10330000220181E090E00E948A16809335060E9497
:103310006C1880913506809330068BE090E00E9417
:103320008A1691E0811101C090E090930D018CE02C
:1033300090E00E948A1691E0811101C090E0909384
:103340000C0103E116E0C4E1D0E0CE010E948A1630
:10335000F80181938F012196CE31D105B1F783E039
:1033600090E00E948A16C82F82E090E00E948A16A0
:103370002C2F30E0322F2227282B30931D01209351
:103380001C0185E090E00E948A16C82F84E090E03E
:103390000E948A162C2F30E0322F2227282B3093C0
:1033A0001B0120931A0186E090E00E948A16809308
:1033B000330688E090E00E948A16C82F87E090E0EC
:1033C0000E948A162C2F30E0322F2227282B309390
:1033D0001501209314018AE090E00E948A16C82FFC
:1033E00089E090E00E948A162C2F30E0322F2227AD
:1033F000282B309313012093120181E08093200643
:1034000063E176E087E396E00E94750518168CF478
:103410008DE00E94853161E0892B09F060E08DE04C
:103420000E944F3164E670E080E090E00E945030EE
:10343000EFCF85E10E94D030059714F41092330647
:1034400060E08DE0DF91CF911F910F910C944F318F
:1034500020E030E0F901EE0FFF1FEB5DFE4F4081F1
:1034600051814F3F510539F48F3F910521F09183F0
:1034700080832CE030E02F5F3F4F2A30310554F33A
:10348000089587E396E00C9459051F93CF93DF933B
:1034900084E690E00E94951664E670E080E090E09B
:1034A0000E94503084E690E00E94951662E070E041
:1034B00087E097E00E948E166091350612E0160FA5
:1034C00087E097E00E942C32C3E1D6E06991662341
:1034D00061F0160F772767FD709587E097E00E94EF
:1034E0008E1686E0CD31D80789F763E070E087E07B
:1034F00097E00E948E16612F87E097E0DF91CF91D1
:103500001F910C942C326F927F928F929F92AF9268
:10351000BF92CF92DF92EF92FF920F931F93CF93C0
:10352000DF931F92CDB7DEB783E00E948531892BF0
:10353000A9F51092270610922806109229061092DB
:103540002A0682E390E00E94951664E670E080E02F
:1035500090E00E94503082E390E00E94951664E66D
:1035600070E080E090E00E94503010E083E00E9424
:103570008531892B19F41A3009F0A9C680912201EE
:10358000811103C081E0809322011A3008F427C61C
:1035900086E0809322018FEF809320011092310604
:1035A00085E00E948531892B19F486E08093220101
:1035B0008091200660912201811105C08091200137
:1035C000681709F4F7C110922006633009F4ABC6FE
:1035D00048F4613009F46AC0623009F0E7C16093D1
:1035E000210151C0673021F1693009F4C1C1663051
:1035F00009F0DCC16091350681E090E00E948C16F4
:103600006091210180E090E00E948C1660910D0194
:103610008BE090E00E948C1660910C018CE090E0B1
:103620000E948C1603E116E054E1E52EF12C56C001
:10363000E2E3F0E0F0931D01E0931C014CE251E065
:1036400050931B0140931A012CED30E03093190187
:10365000209318018AE590E090931701809316015A
:10366000F0931501E093140150931301409312015C
:10367000309311012093100190930F0180930E015C
:1036800083E080931D0610923606E2EBF3E0E491AE
:10369000E093350610921F0610921E0681E080937B
:1036A000210687E396E00E94350D80C180E5809376
:1036B000230110921F0610921E0660932F0610928F
:1036C0002706109228061092290610922A06609169
:1036D000220187E396E00E94420854C1F8016191FB
:1036E0008F01C7010E948C16FFEFEF1AFF0A2EE12F
:1036F000E216F10499F76091330686E090E00E94AB
:103700008C1680912001853009F467C080912101D9
:10371000893009F462C080914B0190914C010E9464
:103720008A168F3FE9F08CE690E00E948A16082FF7
:1037300010E00930110519F00F5F1F4F02C000E0C3
:1037400010E0F801EE0FFF1FE75CFE4F6FEF808186
:1037500091810E948C16602F8CE690E00E948C165E
:10376000E12CF12CF701EE0FFF1FE75CFE4F00810B
:103770001181C8010E948A168F3F69F46091350655
:10378000C8010E948C166E2D8CE690E00E948C166B
:103790002CE0E22EF12C8FEFE81AF80AEAE0EE16A0
:1037A000F10404F38CE690E00E948A1640913506FD
:1037B000E42FF0E0EE0FFF1FEE5EFB4F25913491FA
:1037C000E82EF12CFFEFEF1AFF0A03E116E06091FB
:1037D000210187E396E00E945115809120018530F8
:1037E000B1F440913506E42FF0E0EE0FFF1FEE5EDE
:1037F000FB4F259134910DE9E02EFF24FA9403E16B
:1038000016E06091210187E396E00E9451158091B6
:103810002101893009F091C0809120018F3F09F08A
:103820008CC0E0910E06F0910F06EE0FFF1FE75CD3
:10383000FE4F6FEF808191810E948C16E0913506DA
:10384000F0E0EE0FFF1FEE5EFB4F6591749140912B
:103850000E064F5F87E396E00E946709E5E2F1E01C
:103860008FEF90E08193919321E0E933F207D1F754
:1038700009E311E0E12CF12CF801819191918F0184
:103880000E948A168F3F31F090E00E94281AFFEFC5
:10389000EF1AFF0A21E00D34120771F709E311E076
:1038A00075E2C72E71E0D72EF6016081F2E0CF0EEF
:1038B000D11CF801819191918F010E948C16F9E33E
:1038C000CF16F1E0DF0681F784E690E00E949516BE
:1038D0006E2D87E396E00E94180A109211066CE2A2
:1038E00071E080E090E00E94503060E08CE690E073
:1038F0000E948C160091390110913A01C8010E9472
:103900008A168093350610920F0610920E06C80193
:103910000E948A168093350661E087E396E00E9454
:10392000E209809135060E94B516809336066091B3
:10393000350681E090E00E948C1615E084E690E068
:103940000E94951664E670E080E090E00E9450309E
:103950001150A1F768EB7BE080E090E00E945030CE
:10396000809121018093220181E0809320061EC076
:103970000E942130609327067093280680932906C1
:1039800090932A0680912101823031F0893021F014
:1039900080912001873031F481E090E00E948A1606
:1039A000809335068091220180932101809122012C
:1039B0008093200180912201883009F03EC08091DF
:1039C0003506E82FF0E0EE0FFF1FEE5EFB4F25916E
:1039D0003491E82FF0E0EE51FC4F449103E116E002
:1039E0006091330687E396E00E94630F0E941118EE
:1039F0008093340682E00E94E216082F81E00E9444
:103A0000E216282F409134066091240187E396E066
:103A10000E94751083E00E948531019709F08EC4E1
:103A200082E00E948531019709F088C484E00E94F9
:103A30008531019709F082C4D9CF843009F04CC098
:103A40001091330601E010933306612F87E396E06F
:103A50000E943D120E94111882E00E94E216282F57
:103A600081E029830E94E2162981482F6091240178
:103A700087E396E00E94161383E00E948531019748
:103A800051F482E00E948531019729F484E00E947C
:103A900085310197F9F283E00E948531892B09F481
:103AA00062C482E00E948531892B09F054C4115010
:103AB00013300CF45AC410E082E390E00E94951693
:103AC00068EC70E080E090E00E9450300111BBCFC4
:103AD000809121018093220180912201893019F087
:103AE000109211064CC00E94C2160E9411188093B9
:103AF000340620911E0630911F0690E0821793072E
:103B000008F4C90190931F0680931E068091110648
:103B100081111FC069E080E090E00E948C16109235
:103B2000120659E3E52E51E0F52E10E001E0F70111
:103B3000819191917F010E948A168F3F21F010930D
:103B40001006009312061F5F1A3089F781E08093F8
:103B5000110682E00E948531892B09F40AC484E0B1
:103B60000E948531892B09F468C480911206811165
:103B7000C9C46091220187E396E00E94770A809190
:103B80002201982F9D7F913009F091C10E94C216A9
:103B90000E9411188093340620911E0630911F0652
:103BA00090E08217930708F4C90190931F06809351
:103BB0001E06809135060E94B516809336068091C8
:103BC0002201833009F07EC0C0902306D0902406E5
:103BD000E0902506F0902606F8EECF0EF3E0DF1E0B
:103BE000E11CF11C0E942130C616D706E806F90632
:103BF00028F480913406833308F488C482E00E945C
:103C00008531892B39F50E94213060932706709306
:103C100028068093290690932A0682E390E00E946A
:103C2000951668EC70E080E090E00E945030809142
:103C300035068F5F80933506909136069F5F9033EF
:103C40001CF49093360602C010923606803310F0B2
:103C50001092350684E00E948531892B29F50E9457
:103C6000213060932706709328068093290690934D
:103C70002A0682E390E00E94951668EC70E080E0EE
:103C800090E00E9450308091350681508093350637
:103C900090913606915097FD9FE2909336068033BF
:103CA00018F08FE28093350680910C0181110AC0D3
:103CB000E0913606FF27E7FDF095EE54FC4FE491C6
:103CC000E093350680912201813009F098C060911F
:103CD0001E0670911F0680E090E00E9490352DEC4A
:103CE0003CEC4CE45FE30E9446360E945F35209135
:103CF000230130E02617370714F460932301209145
:103D00002206211152C020912F06211122C030918C
:103D10003406209123012317E0F481E080932206EA
:103D20000E9421306093270670932806809329060D
:103D300090932A0684E690E00E94951664E670E06F
:103D400080E090E00E94503084E690E00E9495165A
:103D50002CC010922F062091360630911F01230FA0
:103D60002093360620332CF0609323011092360600
:103D700007C027FF09C0609323018FE280933606B6
:103D800010921F0610921E0680912301853008F4C0
:103D900085E080932301E0913606FF27E7FDF0954B
:103DA000EE54FC4FE491E093350682E00E948531A9
:103DB000892B29F084E00E948531892B01F582E06E
:103DC0000E948531892B09F0AEC381E080931F01E9
:103DD00082E390E00E94951668EC70E080E090E04D
:103DE0000E94503081E080932F061092220610929C
:103DF0002706109228061092290610922A06809013
:103E0000270690902806A0902906B0902A0628E858
:103E1000820E23E1921EA11CB11C0E942130C09091
:103E20002706D0902806E0902906F0902A068616EC
:103E30009706A806B90650F4C114D104E104F104B0
:103E400029F080913406833308F06FC3C114D10484
:103E5000E104F10471F00E942130E0E1CE0EE7E2CE
:103E6000DE1EE11CF11CC616D706E806F90608F4AA
:103E70005CC340913506E42FF0E0EE0FFF1FEE5ECD
:103E8000FB4FE590F490AA24A3948091220681111F
:103E900001C0A12CC0902301009134062091360668
:103EA0006091220187E396E00E94A60AEFC082306B
:103EB00019F0873009F0EAC080912106882351F07B
:103EC00010922106809135060E946C18809135066B
:103ED000809330060E94C2160E9411188093340607
:103EE00070912201723079F4813568F09C0133279A
:103EF00040911E0650911F064217530720F430933D
:103F00001F0620931E0620913506E22FF0E0EE51A9
:103F1000FC4F0491E22FF0E0EE0FFF1FEE5EFB4F2F
:103F2000E590F490A0901601B0901701C090180190
:103F3000D090190161E0773009F060E0282F4091BE
:103F4000360687E396E00E94060E809136068F3291
:103F500024F48F5F8093360674C0109236068091E9
:103F60002201873009F06DC080911D069FEF980FE8
:103F700090931D06811165C060911801809119010F
:103F800060931C0180931D0180911601909117018F
:103F90008D37910510F48CED90E090931B01809388
:103FA0001A0182E090E00E948C1660911D0183E06E
:103FB00090E00E948C1660911A0184E090E00E94CB
:103FC0008C1660911B0185E090E00E948C1685E1C3
:103FD0000E94D03005975CF1609110018091110131
:103FE000609314018093150180910E0190910F014F
:103FF0008D37910510F48CED90E090931301809330
:10400000120187E090E00E948C166091150188E013
:1040100090E00E948C166091120189E090E00E946D
:104020008C16609113018AE090E00E948C1680E06B
:1040300090E00E948A168093220188EE93E00E940D
:10404000951682E00E948531892BB1F482E390E0DD
:104050000E94951668EC70E080E090E00E9450307D
:104060008FEF809320011092360681E08093210625
:1040700010921F0610921E06E0913606FF27E7FDFC
:10408000F095EE54FC4FE491E093350680912201C7
:10409000853009F05FC087E396E00E94091466242A
:1040A0006A94762CF12CDD24D394FDE7CF2EA0E288
:1040B000BA2EB7E0AB2E16E0912E88248394E62C1E
:1040C00003E116E020910C0140910D016F2D87E373
:1040D00096E00E940A1412E3115009F458C283E0DA
:1040E0000E948531019789F482E00E948531019711
:1040F00061F484E00E948531019739F464E670E050
:1041000080E090E00E945030E7CF83E00E9485314C
:10411000892B09F06DC2F2E0FF1609F44FC2FF15BA
:104120000CF443C2F11038C280910C0188258093B1
:104130000C0182E390E00E94951666E970E080E051
:1041400090E00E9450302FEF6216720609F483C28D
:10415000D110B5CF8091350690913006981709F4AB
:1041600091C20E946C1880913506809330060E949F
:10417000213060932B0670932C0680932D0690932C
:104180002E0680911E01882309F47CC210921E0124
:1041900084E690E00E94951664E670E080E090E08E
:1041A0000E94503084E690E00E94951664E670E02C
:1041B00080E090E00E94503084E690E00F90DF9124
:1041C000CF911F910F91FF90EF90DF90CF90BF9014
:1041D000AF909F908F907F906F900C949516F2E027
:1041E000BF2E03E0A9E0FA2EB5E0EB2E14E0D12EAD
:1041F00011E082E0C82E22E0B216F1F02B1554F047
:10420000BB2099F081E0B8122AC0C0922201B0927E
:1042100021062FC0E4E0BE16F9F0BE1684F0F5E0EA
:10422000BF121DC0B09222011DC010932201109335
:104230002F06109222061DC0009322011AC085E1AC
:104240000E94D03005971CF0D092220112C0E0925B
:104250002201E4E0BE2E0DC0F09222010AC024E04B
:104260002B153CF46BEF6B0D87E396E00E94E406A0
:1042700005C06B2D87E396E00E94640783E00E94EF
:104280008531892BD9F382E00E948531892BB1F3E6
:1042900084E00E948531892B89F372E3A72EAA94CA
:1042A00021F183E00E9485310197C9F482E00E94E8
:1042B00085310197A1F484E00E948531019779F45A
:1042C00064E670E080E090E00E945030E8CF64E661
:1042D00070E080E090E00E9450301F5F47C983E0AB
:1042E0000E948531892B09F024C183E00E94853129
:1042F000892B21F0809121018093220184E690E0B6
:104300000E94951662E370E080E090E00E945030D9
:1043100084E690E00E94951662E370E080E090E011
:104320000E94503038C90E94213060932706709354
:1043300028068093290690932A06C9C980912101F5
:1043400080932201109227061092280610922906C7
:1043500010922A0697C184E00E948531892B09F0CA
:10436000A7CB1F5FA5CB00E0A3CB17FFA5CB12E027
:10437000A3CB68EC70E080E090E00E945030809128
:104380000E0690910F06019690930F0680930E06ED
:104390002091100630E02817390724F410920F06F8
:1043A00010920E0600910E0610910F06F801EE0F06
:1043B000FF1FE75CFE4F808191810E948A168093E7
:1043C00035068F3F99F161E0600F87E396E00E9428
:1043D000E209809135060E94B516809336060E9448
:1043E00021306093270670932806809329069093C6
:1043F0002A0682E390E00E94951668EC70E080E067
:1044000090E00E94503080913606803314F0109274
:10441000360680913506803310F010923506609193
:10442000350681E090E00E948C1699CB015011096D
:1044300010930F0600930E0692CB68EC70E080E0BC
:1044400090E00E94503080910E0690910F060197E7
:1044500090930F0680930E0697FF07C08091100679
:1044600090E090930F0680930E0600910E06109137
:104470000F06F801EE0FFF1FE75CFE4F8081918170
:104480000E948A16809335068F3FA9F161E0600F84
:1044900087E396E00E94E209809135060E94B516F6
:1044A000809336060E942130609327067093280679
:1044B0008093290690932A0682E390E00E94951645
:1044C00068EC70E080E090E00E9450308091360609
:1044D00087FF03C08FE280933606809135068033D4
:1044E00018F08FE2809335066091350681E090E008
:1044F0000E948C163ACB0F5F1F4F10930F0600934C
:104500000E0633CB88E08093220139CB0E94451AF6
:104510000E94213060932306709324068093250621
:10452000909326066BCB8FEF51CC88E080932201CD
:10453000A0CC82E00E948531892B59F4AB2CBA942F
:1045400085E10E94D030059754F483E0B81207C08B
:104550001AC084E00E948531892B09F4B394E5E008
:10456000EB152CF0B7FE04C065E0B62E01C0B12CEF
:1045700082E390E00E94951668EC70E080E090E0A5
:104580000E94503038CE6EEFB62EBA0CE8CF809134
:10459000210180932201DECD21E0F21252C08091F0
:1045A0000D018F2580930D01C4CD83E0F81679F0BD
:1045B000E4E0FE1246C09092220118C0FFEF6F1A8D
:1045C0007F0A2AE0621671040CF058C0B2CD1AE0DE
:1045D00089E190E00E94951669E170E080E090E04A
:1045E0000E9450301150A1F7A0922201D12CA1CDF0
:1045F00082E00E948531892B79F48FEF6816780666
:1046000011F4FA941EC0F301ED5EF94F80818F5FC3
:104610008E37A4F0B08215C084E00E948531892BCA
:1046200081F4EFEF6E167E0611F4F3940AC0F301E5
:10463000ED5EF94F80818150803214F0808301C09B
:10464000C082F4E0FF152CF0F7FE73CD74E0F72E76
:1046500070CDF12C6ECD83E00E948531892B09F459
:104660006CCD82E00E948531892B09F466CD84E00F
:104670000E948531892B09F460CD6ACD66246A9445
:10468000762C57CD0F90DF91CF911F910F91FF9016
:10469000EF90DF90CF90BF90AF909F908F907F90E2
:1046A0006F9008950F931F93CF93DF93EC018D8943
:1046B000823061F08330D9F0813009F0C8C0EC81DC
:1046C000FD81E41BF50B3197DB0118C08C819D81C6
:1046D000DC01A61BB70BBD018E819F81FC01E41B91
:1046E000F50BAF0141505109621B730BB0C0AE8195
:1046F000BF81A61BB70BA21BB30BFA01F7FD05C1C7
:104700008C819D81E817F9070CF0FFC0B7FF04C04A
:104710002A0F3B1FA0E0B0E08E819F81AD01420FC8
:10472000531F841795071CF49C012A1B3B0B121680
:1047300013060CF0EAC0422F8A2F8695869586953F
:1047400090E8899FE00DF11D1124E35AFE4FA770F8
:1047500069F158E05A1B852F90E0EC01CB5ADE4FEF
:104760006881251760F4DC01A21BB1098FEF90E08E
:104770000A2E02C0959587950A94E2F768230130C6
:10478000110539F048F00230110551F48081862777
:1047900006C08081862B03C060958081862380833C
:1047A000451708F4B2C0451BE058FF4F4830A0F150
:1047B00002301105A9F4DF01842F9C9190959C9300
:1047C000A058BF4F88508830C0F788EF840F869577
:1047D00086958695B0E88B9FE00DF11D112419C0D8
:1047E00081E00130110509F080E0982F9195EF01EB
:1047F000842F9883C058DF4F88508830D0F788EFD7
:10480000840F86958695869590E8899FE00DF11D29
:104810001124E058FF4F4770442309F476C0A42FB9
:10482000B0E0A35BBE4F9C910130110541F050F008
:104830000230110509F069C08081892706C0808196
:10484000892B03C090958081892380835EC057FDAA
:104850005CC08E819F81481759070CF056C077FFC6
:1048600004C0260F371F60E070E08C819D81FB0142
:10487000E20FF31F8E179F071CF49C01261B370BBA
:10488000121613060CF041C0CA0157FD0796E3E06B
:1048900095958795EA95E1F79695982F88279795AE
:1048A0008795835A9E4F860F971F4770552761E063
:1048B00070E001C0660F4A95EAF7462F01301105F6
:1048C00041F088F00230110501F5FC01280F391F75
:1048D00015C0FC01280F391FE217F307B1F08081E2
:1048E000842B8193F9CF6095FC01280F391FE217C3
:1048F000F30759F0808186238193F9CFE217F307FC
:1049000021F0808184278193F9CFDF91CF911F918E
:104910000F9108950F931F93CF93DF93FC01858927
:10492000823069F08330E1F0813009F082C0C481C7
:10493000D581C41BD50BC21BD30BDB0117C08481EF
:104940009581DC01A61BB70BBD0161507109868101
:104950009781DC01A41BB50BAD01421B530B69C051
:10496000A681B781A61BB70B1197EA01B7FD08C155
:1049700086819781A817B9070CF002C1D7FF04C040
:104980002C0F3D1FC0E0D0E084819581AE01420F25
:10499000531F841795071CF49C012C1B3D0B12160A
:1049A00013060CF0EDC0CD01B7FD079643E09595D9
:1049B00087954A95E1F79695982F8827979587953B
:1049C000835A9E4F8C0F9D1FA770BB2741E050E07C
:1049D0000A2E01C0440F0A94EAF7642F0130110532
:1049E00049F098F00230110509F0CAC0FC01280F07
:1049F000391F17C0FC01280F391FE217F30709F40C
:104A0000BFC08081862B8193F8CF4095FC01280F91
:104A1000391FE217F30709F4B3C08081842381931F
:104A2000F8CFE217F30709F4ABC0808186278193A2
:104A3000F8CF77FDA5C084819581681779070CF0C0
:104A40009FC057FF04C0240F351F40E050E086810F
:104A50009781FA01E20FF31F8E179F071CF49C0148
:104A6000241B350B121613060CF08AC0522F842F0C
:104A7000869586958695FB01B0E88B9FE00DF11D2C
:104A80001124E35AFE4F477069F168E0641B862FDA
:104A900090E0EC01CB5ADE4F4881261760F4DC0130
:104AA000A21BB1098FEF90E00A2E02C09595879561
:104AB0000A94E2F748230130110539F048F002303A
:104AC000110551F48081842706C08081842B03C0A6
:104AD0004095808184238083561708F451C0561B6B
:104AE000E058FF4F5830A0F102301105A9F4DF0162
:104AF000852F9C9190959C93A058BF4F88508830EB
:104B0000C0F788EF850F869586958695B0E88B9FD0
:104B1000E00DF11D112419C081E00130110509F0EB
:104B200080E0982F9195EF01852F9883C058DF4F33
:104B300088508830D0F788EF850F869586958695C2
:104B400090E8899FE00DF11D1124E058FF4F577048
:104B50005523B1F0A52FB0E0A35BBE4F9C9101306F
:104B6000110539F048F00230110551F48081892790
:104B700006C08081892B03C0909580818923808322
:104B8000DF91CF911F910F910895CF92DF92EF9215
:104B9000FF920F931F93CF93DF937C018B01EA0168
:104BA000690177FDA0C00E943D2D081719070CF080
:104BB0009AC0D7FD98C0C7010E94412DC817D907D8
:104BC0000CF091C0C7010E943A2D823009F07FC0DD
:104BD000F701848195819C01201B310B89010150D3
:104BE000110986819781FC01EC1BFD0BEF012197D8
:104BF0000BC0813049F4F701848195818C1B9D0B9A
:104C0000E8018C0101501109F1E0CF16D10431F017
:104C100010F132E0C316D104E1F165C0FE01D7FD09
:104C2000379683E0F595E7958A95E1F7F695FE2F9F
:104C3000EE27F795E795E00FF11FE35AFE4FC77097
:104C4000DD2781E090E00C2E01C0880F0A94EAF77E
:104C50009081982B3AC0FE01D7FD3796A3E0F595D9
:104C6000E795AA95E1F7F695FE2FEE27F795E795DC
:104C7000E00FF11FE35AFE4FC770DD2781E090E09F
:104C80000C2E01C0880F0A94EAF780959081982332
:104C90001CC0FE01D7FD379663E0F595E7956A9550
:104CA000E1F7F695FE2FEE27F795E795E00FF11F58
:104CB000E35AFE4FC770DD2781E090E00C2E01C063
:104CC000880F0A94EAF79081982790830CC083306C
:104CD00009F08FCFF70186819781801B910B8E01A0
:104CE000EC01219791CFDF91CF911F910F91FF9010
:104CF000EF90DF90CF9008951F93CF93DF93EC0157
:104D0000162F40E450E060E870E00E94892A86E7B0
:104D100095E0998388838FEF8C8F88A38E8F8D8FFA
:104D20001F8FDF91CF911F91089580E094E0EDE512
:104D3000F1E0DF019C011D9221503040E1F7089520
:104D4000FC0181A1882339F06EBD00000DB407FE7F
:104D5000FDCF8EB5089588E090E030E8A4A1B5A11C
:104D60004C9123A5209524232C93A2A1B3A122A585
:104D7000432F462321F04C91422B4C9304C04C917D
:104D8000209524232C93A4A1B5A12C9143A5242BD9
:104D90002C933695019711F708951F93CF93DF93C6
:104DA000EC01162F8C8D8F3F09F1EEA1FFA18081C0
:104DB0009CA5892B8083E8A5F9A590818DA5809578
:104DC00089238083EEA1FFA190818CA58095892302
:104DD0008083CE010E94A026EEA1FFA180819CA528
:104DE000892B8083DF91CF911F9108958A8D682F41
:104DF000772767FD70958EE396E00E94F02D60E0C6
:104E00008EE396E00E949D2D612F8EE396E00E9436
:104E10009D2D8EE396E0DF91CF911F910C94052E8E
:104E20000F931F93CF93DF93EC01162F022F6B8FFD
:104E30004A8F8C8D8F3F09F48CC061E08E8D0E946B
:104E4000163161E088A10E94163188A1992787FD5B
:104E50009095FC01E650F64FE491F0E0EE0FFF1F55
:104E6000E85EF54F259134913FA32EA3FC01EA5152
:104E7000F64F84918CA78E8D992787FD9095FC0124
:104E8000E650F64FE491F0E0EE0FFF1FE85EF54FBD
:104E90002591349139A728A7FC01EA51F64F849156
:104EA0008DA789A1811134C061E08C8D0E941631DB
:104EB00061E08D8D0E9416318D8D992787FD90952B
:104EC000FC01E650F64FE491F0E0EE0FFF1FE85EC4
:104ED000F54F259134913DA32CA3FC01EA51F64FE7
:104EE00084918BA78C8D992787FD9095FC01E650C6
:104EF000F64FE491F0E0EE0FFF1FE85EF54F2591CD
:104F000034913BA32AA3FC01EA51F64F84918AA76E
:104F100089A1882311F10E94CC2880913C06882326
:104F200099F09FB7F89480913C06813059F48DB385
:104F300080933A062DB380913B06809582238DBBEA
:104F40009FBF02C090933A0680E58CBD81E08DBD85
:104F500004C08EE396E00E94DC2D0023F1F08F8DDB
:104F600087FD1BC061E00E94163161E08F8D0E94B9
:104F70004F3161E070E080E090E00E94503060E0EE
:104F80008F8D0E944F316AE070E080E090E00E94D7
:104F9000503061E08F8D0E944F316EEACE010E9449
:104FA000CD2665EDCE010E94CD2660E8CE010E949F
:104FB000CD2668EACE010E94CD266FE3CE010E9485
:104FC000CD2663EDCE010E94CD2660E0CE010E9489
:104FD000CD2660E4CE010E94CD266DE8CE010E9470
:104FE000CD26113011F460E101C064E1CE010E94D0
:104FF000CD2660E2CE010E94CD2660E0CE010E9467
:10500000CD2661EACE010E94CD2668ECCE010E9439
:10501000CD266AEDCE010E94CD2662E1CE010E942E
:10502000CD2661E8CE010E94CD26113011F46FE942
:1050300001C06FECCE010E94CD2669EDCE010E9429
:10504000CD26113011F462E201C061EFCE010E9461
:10505000CD266BEDCE010E94CD2660E4CE010E94EC
:10506000CD2664EACE010E94CD2666EACE010E94DA
:10507000CD266EE2CE010E94CD266FEACE01DF91F1
:10508000CF911F910F910C94CD26DF92EF92FF925A
:105090000F931F93CF93DF93EC0161E20E94CD2623
:1050A00060E0CE010E94CD266FE7CE010E94CD26A2
:1050B00062E2CE010E94CD2660E0CE010E94CD26A4
:1050C00067E0CE010E94CD268C8D8F3F31F1EEA19D
:1050D000FFA180819CA5892B8083E8A5F9A580810B
:1050E0009DA5892B8083EEA1FFA190818CA5809541
:1050F000892380830DE511E0F80161918F01CE01D4
:105100000E94A026F5E00D351F07B1F7EEA1FFA123
:1051100080819CA5892B808337C0D090B8008CE01B
:105120008093B8000DE511E06A8D772767FD7095D3
:105130008EE396E00E94F02DE0913E06F0913F064E
:105140000190F081E02D60E48EE396E00995E12C7A
:10515000F12CF801EE0DFF1D60818EE396E00E94B8
:105160009D2D8FEFE81AF80AE0E1EE16F10489F7B9
:105170008EE396E00E94052E005F1F4FF5E00D358F
:105180001F0791F6D092B800DF91CF911F910F9138
:10519000FF90EF90DF900895CF93CFB7F894809170
:1051A0003D06811127C0E4E0FAE08491E0EFF9E0E8
:1051B0009491E82FF0E0EE0FFF1FEE5DF54FA59103
:1051C000B4918C91892321F461E08AE00E944F31EF
:1051D00061E08AE00E9416318CB580618CBD8CB58F
:1051E00080648CBD61E08DE00E94163161E08BE04F
:1051F0000E94163180913D068F5F80933D06CFBFA0
:10520000CF9108952F923F924F925F926F927F922B
:105210008F929F92AF92BF92CF92DF92EF92FF92C6
:105220000F931F93CF93DF9300D000D0CDB7DEB79D
:105230004C017C836B836A015901C8018701AC0171
:105240004C195D0957FF03C05195419551099501CE
:105250006B817C81261B370B37FF03C0319521956D
:10526000310922242394312C2417350714F0212CE2
:10527000312C2114310459F03A2D2B2D5C01832F50
:10528000922F3B812C81DC82CB82C32ED22EAB812C
:10529000BC81AA16BB065CF43C2D2D2D6C01832F1E
:1052A000922F3B812C81BC82AB82A32EB22E250192
:1052B000EB81FC814E1A5F0A3C016C187D0877FE79
:1052C00003C0719461947108720157FE03C0FFEF2F
:1052D000EF1AFF0AF594E794C816D9062CF421E0DA
:1052E00030E03A83298324C06FEF7FEF7A836983AC
:1052F0001FC0D401ED91FC910480F581E02D98014F
:1053000021143104D9F04B815C81B601C4010995A7
:10531000E618F708F7FE06C0E981FA81CE0EDF1E17
:10532000E40CF51C2B813C812F5F3F4F3C832B838A
:105330006B817C81A616B706E4F604C0A6016B81DA
:105340007C81E4CF0F900F900F900F90DF91CF9161
:105350001F910F91FF90EF90DF90CF90BF90AF9093
:105360009F908F907F906F905F904F903F902F9085
:1053700008956F927F928F929F92AF92BF92CF9239
:10538000DF92EF92FF920F931F93CF93DF93EC0185
:105390005B016A0139014801E881F9810284F385E2
:1053A000E02D87010995E881F981A601480D591D75
:1053B000415051090284F385E02D9301B501CE01DE
:1053C0000995E881F9810084F185E02D9401A60119
:1053D000B501CE010995E881F981B501660D771D0A
:1053E000615071090084F185E02D9401A601CE0180
:1053F0000995DF91CF911F910F91FF90EF90DF9072
:10540000CF90BF90AF909F908F907F906F900895B6
:10541000EF92FF920F931F93DC01ED91FC91240F0B
:10542000351F215031090680F781E02D780189016F
:105430009B0109951F910F91FF90EF900895EF92B6
:10544000FF920F931F93DC01ED91FC91260F371F04
:10545000215031090680F781E02D78018A010995F4
:105460001F910F91FF90EF9008956F927F928F920E
:105470009F92AF92BF92CF92DF92EF92FF920F93E3
:105480001F93CF93DF935C014A0169013801EB015F
:10549000C60ED71ECC15DD0574F4D501ED91FC9137
:1054A0000084F185E02D87019301A401BE01C501AF
:1054B00009952196EFCFDF91CF911F910F91FF902A
:1054C000EF90DF90CF90BF90AF909F908F907F90A4
:1054D0006F900895EF92FF920F931F93DC01ED916F
:1054E000FC9111971A960D911C911B9718962D916E
:1054F0003C9119970684F785E02D7B0140E050E050
:1055000060E070E009951F910F91FF90EF90089572
:105510000895FC01138212828EE895E091838083C6
:105520007583648357834683718760875387428777
:10553000158A158614861786168621E0248B8FEF30
:105540009FEF938B828B918B808B268B178A118E8A
:10555000108E08952F923F924F925F926F927F929A
:105560008F929F92AF92BF92CF92DF92EF92FF9273
:105570000F931F93CF93DF93CDB7DEB76A970FB624
:10558000F894DEBF0FBECDBF1C0158874F831C8728
:105590000B87FA86E986CC82DC0158964D915C91A6
:1055A00059974115510509F0A6C018968D919C9107
:1055B0001997681779070CF056C11A968D919C912E
:1055C0001B97EF81F885E817F9070CF04CC1D12C37
:1055D000CB013C81F6E03F9F800D911D11241816F0
:1055E00019060CF040C1C60103E0880F991F0A9507
:1055F000E1F74F815885840F951F181619060CF096
:1056000032C157968C91811103C0203B08F02F5F67
:105610007E876D874B01198212EDA12E14E0B12E09
:10562000A61AB70A55E0259FA00CB11C1124898148
:10563000853039F0ED85FE85EA0DFB1D94919A8346
:1056400001C01A826F8078842301A8E0AD83BA81FB
:10565000B0FF12C0D101ED91FC91BC81B13031F4A9
:105660000480F581E02D2B853C8518C00684F785E4
:10567000E02DEB84FC841DC0E985FA852B853C85F3
:10568000E217F307E1F0D101ED91FC91BC81B1305B
:1056900059F40480F581E02D29853A85A2016D85B4
:1056A0007E85C10109950BC00684F785E02DE9844C
:1056B000FA8486019601A301B401C1010995EA812A
:1056C000E695EA83FD81F150FD836C0C7D1C2FEF84
:1056D000421A520AF111BBCF39813F5F39838C0CDA
:1056E0009D1C4D855E854F5F5F4F5E874D873630D1
:1056F00009F09DCFB8C0FA01349634913297859164
:105700009491231BA7E02A9F800D911D1124FA017B
:1057100025913491398B288BFC01459154915A8FF6
:10572000498FFC013296549159873196A491AF87E5
:105730003196E491FC013596249131968491BC8197
:10574000B23050F0622E772467FC7094E82FFF2768
:10575000E7FDF095FE87ED87FC81CF2ED12C6C9C68
:1057600040016D9C900C7C9C900C1124860E971E21
:10577000A12C1982DE8ACD8AAB01420F511D27FD73
:105780005A955E834D83AF81B885A80FB11D87FD03
:10579000BA95B88FAF8B59818F85581708F063C0C1
:1057A000852F90E02D853E85280F391F2C9DD00137
:1057B0002D9DB00D3C9DB00D1124EF81F885EA0FB1
:1057C000FB1FFB83EA836D807E802401FA2D2D81EF
:1057D000F21BFA8B4F89588D480F591F5C8B4B8BEE
:1057E0009A89960D862D2D81821B39858317B0F5F8
:1057F000977061F4898D9A8D0196E889F989298DD0
:105800003A8DE20FF31FB4909A8F898FB7FE1DC0B7
:10581000D101ED91FC91BC81B13059F40480F58146
:10582000E02D2B853C854B895C89B301C10109952D
:105830000CC00684F785E02DEB84FC84860196017C
:105840004A815B81B201C1010995BB0CED89FE89DA
:105850004E0E5F1EFFEF6F1A7F0AC2CFA30E498163
:105860004F5F498398CF6A960FB6F894DEBF0FBE9C
:10587000CDBFDF91CF911F910F91FF90EF90DF90FF
:10588000CF90BF90AF909F908F907F906F905F90E0
:105890004F903F902F900895AF92BF92CF92EF928A
:1058A000FF920F931F93CF93DF93EC01262F888DE8
:1058B000998D009709F042C06A3069F42C898E8571
:1058C0009F8538E0239F800D911D11249F878E872F
:1058D0001D861C86ABC06D3009F4A8C08E89882354
:1058E000C1F03C898C859D8546E0349F800D911DDB
:1058F000112448855985841795075CF01D861C8600
:105900008E859F85E8E03E9F800D911D11249F8725
:105910008E87EA88FB88088919894E855F856C85A2
:105920007D85CC88CE010E94AA2A2C898C859D85F4
:10593000F6E02F9F800D911D112441C06A3079F44B
:105940001D861C864C89FC01369684912E853F85E8
:10595000489F200D311D11243F872E8767C06D3071
:1059600009F464C0AC014C5F5F4FFA0134916317D6
:1059700008F45CC03196E491E61708F457C0FA01C8
:105980004491362F341BFC013296A590B490F7E079
:105990003F9FA00CB11C1124F5013296A4913196C1
:1059A000E491AA2311F0E1110DC0F5013496A49001
:1059B0002C898C859D85A29E800D911D11249D872B
:1059C0008C8734C0F5013596E4913E89332309F183
:1059D0003C89B0E0AE0FB11DE7FDBA953A9FA0013A
:1059E0003B9F500D11246C857D85460F571F6885A0
:1059F0007985461757076CF01D861C86FC01369684
:105A000084914E855F85389F400D511D11245F871D
:105A10004E87EA88FB88088919894E855F856C85E1
:105A20007D85CC88CE010E94AA2ABFCF81E090E07C
:105A3000DF91CF911F910F91FF90EF90CF90BF908A
:105A4000AF900895FC01758764875787468708954E
:105A5000611101C061E0FC01648B0895FC01738B4E
:105A6000628B718B608B0895FC01718B608B538B03
:105A7000428B0895FC0185890895FC0180859185FC
:105A80000895FC0182859385089580916E0690E0CB
:105A900020916F06821B9109089520916F068091D5
:105AA0006E06281750F4E22FF0E0E059F94F80819C
:105AB00090E02F5F20936F0608958FEF9FEF08957A
:105AC000E0916F0680916E06E81730F4F0E0E0593F
:105AD000F94F808190E008958FEF9FEF089508952A
