:100000000C94D8040C9400050C9400050C94000585
:100010000C9400050C9400050C9400050C9400054C
:100020000C9400050C9400050C9400050C9400053C
:100030000C9400050C9400050C9400050C9400052C
:100040000C94F6150C9400050C94D2140C94AC147A
:100050000C9400050C9400050C9400050C9400050C
:100060000C9440160C940005D42BDC2BE32BE72BCF
:10007000F52BF92B002CFC2B46494E44204D4F44C8
:10008000454C004F4646004F4E20004F53443A2007
:100090000020002020202020202020200053455434
:1000A0005550204D454E55004D41494E204D454E31
:1000B0005500202020202020202020004641564F9F
:1000C00052495445530044495645525349545900E6
:1000D0004D414E55414C204D4F44450042414E4408
:1000E000205343414E4E4552004155544F204D4FF1
:1000F0004445004D4F44452053454C454354494FDA
:100100004E0035393435003538303000353336322D
:10011000004D696E3A20202020204D61783A00522F
:1001200053534920534554555000424553543A00C7
:1001300042414E44205343414E4E455200353934DE
:1001400035003538303000353336320042414E44C8
:100150003A004155544F205345454B204D4F44459F
:10016000004D414E55414C204D4F444500464156AF
:100170004F52495445204D4F4445002D2D204445B4
:100180004C45544544202D2D0046415620434841BE
:100190004E4E454C3A004348414E4E454C20465247
:1001A00045513A0044454C455445204641564F522E
:1001B000495445204348414E0042004100414E54BD
:1001C000204200414E542041004155544F004C4FB5
:1001D00057205349474E414C0025204100420041E1
:1001E0003A00524543454956455220420052454344
:1001F00045495645522041004155544F0044495607
:1002000045525349545900454D50545900464156A2
:100210004F5249544553004155544F205345454B87
:10022000204D4F4445004155544F204D4F444520EB
:100230004C4F434B00412020202020202020004212
:1002400020202020202020200045202020202020A9
:10025000202000462F4169727761766500432F5256
:1002600061636520202000442F352E33202020207C
:100270000020202000202020005341564520262029
:10028000455849540043414C49425241544520523B
:10029000535349005349474E203A20004449562FB2
:1002A000545920434F4C4C4543544F523A00465208
:1002B000455155454E4359004348414E4E454C200B
:1002C00020004F524445523A200053455455502087
:1002D0004D454E5500A1A2A3A4A5A6A7A8B1B2B3AF
:1002E000B4B5B6B7B8E1E2E3E4E5E6E7E8F1F2F386
:1002F000F4F5F6F7F8C1C2C3C4C5C6C7C8D1D2D396
:10030000D4D5D6D7D8E916D516C116AD1699168507
:100310001671165D16651678168B169E16B116C4E4
:1003200016D716EA164916351621160D16FD1611A2
:1003300017251739176C1680169416A816BC16D0F8
:1003400016E416F8161A163F1664168916AE16D35A
:1003500016F8161D17F21417153C1561158615AB06
:1003600015D015F51528292A2B2C2D2E2F131220E8
:100370001121100722081806091905230A1A040B6F
:100380001B03240C1C020D1D25010E1E000F1F2631
:100390001415271617052A9B29912987291D29132A
:1003A0002909299F2803290C2916291F29892992FF
:1003B000299C29052A95288B28812817280F2A1976
:1003C0002A832A8D2A062910291A2984298E2998F8
:1003D00029022A0C2A1D2890280229152987299AE2
:1003E000290C2A1F2A09261C268E26012713278658
:1003F0002798270B2800000000003E5B4F5B3E3E25
:100400006B4F6B3E1C3E7C3E1C183C7E3C181C57C0
:100410007D571C1C5E7F5E1C00183C1800FFE7C364
:10042000E7FF0018241800FFE7DBE7FF30483A0633
:100430000E2629792926407F050507407F05253F9F
:100440005A3CE73C5A7F3E1C1C08081C1C3E7F148B
:10045000227F22145F5F005F5F06097F017F0066D5
:1004600089956A606060606094A2FFA29408047E2F
:10047000040810207E201008082A1C08081C2A08DE
:10048000081E101010100C1E0C1E0C30383E383098
:10049000060E3E0E06000000000000005F00000097
:1004A00007000700147F147F14242A7F2A122313C5
:1004B00008646236495620500008070300001C22D9
:1004C00041000041221C002A1C7F1C2A08083E080B
:1004D000080080703000080808080800006060000C
:1004E00020100804023E5149453E00427F40007200
:1004F000494949462141494D331814127F10274577
:100500004545393C4A494931412111090736494994
:100510004936464949291E000014000000403400B5
:100520000000081422411414141414004122140869
:1005300002015909063E415D594E7C1211127C7F21
:10054000494949363E414141227F4141413E7F492F
:100550004949417F090909013E414151737F08081A
:10056000087F00417F41002040413F017F08142265
:10057000417F404040407F021C027F7F0408107F83
:100580003E4141413E7F090909063E4151215E7FBE
:1005900009192946264949493203017F01033F4091
:1005A00040403F1F2040201F3F4038403F63140819
:1005B000146303047804036159494D43007F4141AA
:1005C000410204081020004141417F04020102045D
:1005D0004040404040000307080020545478407FCA
:1005E000284444383844444428384444287F385404
:1005F00054541800087E090218A4A49C787F0804AB
:10060000047800447D40002040403D007F10284495
:100610000000417F40007C047804787C0804047862
:100620003844444438FC1824241818242418FC7C2A
:1006300008040408485454542404043F44243C400F
:1006400040207C1C2040201C3C4030403C44281072
:1006500028444C9090907C4464544C4400083641AB
:100660000000007700000041360800020102040289
:100670003C2623263C1EA1A161123A4040207A3834
:100680005454555921555579412254547842215595
:1006900054784020545579400C1E527212395555E9
:1006A0005559395454545939555454580000457CBF
:1006B000410002457D420001457C407D1211127DC2
:1006C000F0282528F07C545545002054547C547C57
:1006D0000A097F4932494949323A4444443A324A44
:1006E0004848303A4141217A3A42402078009DA062
:1006F000A07D3D4242423D3D4040403D3C24FF24E0
:1007000024487E4943662B2FFC2F2BFF0929F62016
:10071000C0887E090320545479410000447D413053
:1007200048484A32384040227A007A0A0A727D0DDF
:1007300019317D2629292F28262929292630484D97
:100740004020380808080808080808382F10C8ACE6
:10075000BA2F102834FA00007B000008142A142253
:1007600022142A14085500550055AA55AA55AAFF67
:1007700055FF55FF000000FF00101010FF0014147B
:1007800014FF001010FF00FF1010F010F0141414EC
:10079000FC001414F700FF0000FF00FF1414F40421
:1007A000FC141417101F10101F101F1414141F0016
:1007B000101010F0000000001F101010101F10107B
:1007C0001010F010000000FF10101010101010108A
:1007D00010FF10000000FF140000FF00FF00001FCA
:1007E00010170000FC04F414141710171414F40468
:1007F000F40000FF00F714141414141414F700F795
:10080000141414171410101F101F141414F41410BF
:1008100010F010F000001F101F0000001F14000057
:1008200000FC140000F010F01010FF10FF1414145E
:10083000FF141010101F00000000F010FFFFFFFF5A
:10084000FFF0F0F0F0F0FFFFFF0000000000FFFFFE
:100850000F0F0F0F0F3844443844FC4A4A4A347E85
:1008600002020606027E027E026355494163384455
:10087000443C04407E201E2006027E020299A5E729
:10088000A5991C2A492A1C4C7201724C304A4D4DC4
:10089000303048784830BC625A463D3E49494900AC
:1008A0007E0101017E2A2A2A2A2A44445F444440C8
:1008B000514A444040444A51400000FF0103E08057
:1008C000FF000008086B6B083612362436060F0945
:1008D0000F06000018180000001010003040FF0143
:1008E00001001F01011E00191D1712003C3C3C3C79
:1008F000000000000000000000240027002A000083
:10090000000000250028002B000000000023002626
:100910000029000404040404040404020202020284
:1009200002030303030303010204081020408001B3
:100930000204081020010204081020000000080032
:100940000201000003040700000000000000005343
:10095000454C4543544544204641564F5249544521
:10096000204348002D2D205341564544202D2D0075
:10097000465245513A202020202047487A00202026
:10098000464156204348414E3A004348414E3A00C2
:1009900053455454494E4753205341564544005300
:1009A0004156452053455454494E475300000730A3
:1009B00011241FBECFEFD8E0DEBFCDBF27E0AAEDE8
:1009C000B5E001C01D92AB39B207E1F715E0A0E038
:1009D000B1E0ECE4F7E602C005900D92AA3DB10744
:1009E000D9F714E0C8EDD4E004C02197FE010E94BD
:1009F0009430C73DD107C9F70E946F1A0C94A433F5
:100A00000C9400006F927F928F929F92AF92BF9250
:100A1000CF92DF92EF92FF920F931F93CF93DF93CA
:100A2000EC014B015A0169013801E881F981028426
:100A3000F385E02D87010995E881F981A501460D2F
:100A4000571D415051090284F385E02D9601B401F0
:100A5000CE010995E881F9810084F185E02D9301AB
:100A6000A501B401CE010995E881F981C80CD91C12
:100A7000B601615071090084F185E02D9301A50153
:100A8000CE010995DF91CF911F910F91FF90EF90CB
:100A9000DF90CF90BF90AF909F908F907F906F909E
:100AA00008952F923F924F925F926F927F928F9212
:100AB0009F92AF92BF92CF92DF92EF92FF920F93ED
:100AC0001F93CF93DF9300D01F92CDB7DEB74C01B9
:100AD0007B836A836A01590117019801241B350B36
:100AE00037FF03C0319521953109C5014A815B81EA
:100AF000841B950B97FF03C091958195910951E057
:100B000059838217930714F019820BC09A2D8B2DED
:100B10005801092F182F9A818B81DB82CA82C92E36
:100B2000D82E8A819B81A816B9065CF49C2D8D2D48
:100B30006801092F182F9A818B81BB82AA82A92E66
:100B4000B82E2501AA81BB814A1A5B0A38016C18AC
:100B50007D0877FE03C0719461947108720157FE9D
:100B600003C0BFEFEB1AFB0AF594E794C016D10659
:100B70001CF00FEF1FEF1FC001E010E01CC0D401FC
:100B8000ED91FC91B9810480F581E02D9101BB23A9
:100B9000C1F04A815B81B601C4010995E618F708E6
:100BA000F7FE04C0C00ED11EE40CF51CEA81FB81E7
:100BB0003196FB83EA834A815B81A416B506FCF675
:100BC00004C0A6016A817B81E7CF0F900F900F9040
:100BD000DF91CF911F910F91FF90EF90DF90CF9019
:100BE000BF90AF909F908F907F906F905F904F904D
:100BF0003F902F9008950F931F93CF93DF93DC01C5
:100C000055968C915597823071F0833009F181307F
:100C100009F08CC01496ED91FC911597E41BF50B2F
:100C2000E21BF30B20C01496ED91FC911597CF01B8
:100C3000861B970BBC01615071091696ED91FC91D2
:100C40001797CF01841B950BAC01421B530B6EC051
:100C50001696ED91FC911797CF01861B970BBC015F
:100C600061507109FA0177FD1BC116968D919C9117
:100C70001797681779070CF013C1F7FF04C02E0F00
:100C80003F1FE0E0F0E014968D919C911597AF0125
:100C9000420F531F841795071CF49C012E1B3F0B1A
:100CA000121613060CF0FCC0CB0177FD079643E04B
:100CB000959587954A95E1F79695982F882797956A
:100CC0008795E80FF91FE45BFE4F6770772781E097
:100CD00090E001C0880F6A95EAF7482F01301105AE
:100CE00041F088F00230110509F0DAC02E0F3F1FE5
:100CF00015C02E0F3F1FE217F30709F4D1C0808102
:100D0000842B8193F8CF80952E0F3F1FE217F307B6
:100D100009F4C6C0908198239193F8CFE217F307A6
:100D200009F4BEC0808184278193F8CF77FDB8C0D5
:100D300014968D919C911597681779070CF0B0C0A7
:100D400057FF04C0240F351F40E050E016968D91E8
:100D50009C911797FA01E20FF31F8E179F071CF45F
:100D60009C01241B350B121613060CF099C0A22F00
:100D7000842F86958695869590E8899F600D711DD4
:100D80001124FB01E45BFE4F4770A9F198E0941B2E
:100D9000492F50E0EA01CC56DA4F8881291790F4A8
:100DA000421B51092FEF30E002C0359527954A9537
:100DB000E2F782230130110541F068F0023011059D
:100DC00089F06EC00130110519F42081822B0CC00E
:100DD0000130110520F480952081822305C0023066
:100DE000110531F4208182278083A91708F458C0A7
:100DF000A91BE058FF4FA83048F10230110559F403
:100E0000EF018A2F988190959883C058DF4F8850C2
:100E10008830C0F730C081E00130110509F080E072
:100E20008195EF019A2F8883C058DF4F98509830F2
:100E3000D0F788EF8A0F86958695869590E8899FEA
:100E4000E00DF11D1124E058FF4FA770AA2341F1D6
:100E5000B0E0A457BA4F8C910130110529F038F059
:100E600002301105D1F01CC09081892B18C08095EB
:100E70009081892314C088EF8A0F86958695869580
:100E800090E8899FE00DF11D1124E058FF4FA770F5
:100E900039F0B0E0A457BA4F8C91908189278083B4
:100EA000DF91CF911F910F9108950F931F93CF93CF
:100EB000DF93DC01FB0155968C915597823081F0D0
:100EC000833019F1813051F514968D919C911597CD
:100ED000BC01641B750BAB0141505109BF0181C0BE
:100EE00014966D917C911597CB018E1B9F0BFC0185
:100EF00016968D919C911797BC01641B750BAB01E5
:100F000041505109E21BF30B09C016966D917C917B
:100F100017976E1B7F0B621B730B63C057FD1CC1C1
:100F200016968D919C911797481759070CF014C18C
:100F3000F7FF04C02E0F3F1FE0E0F0E014968D9104
:100F40009C911597BF01620F731F861797071CF4BA
:100F50009C012E1B3F0B121613060CF0FDC0CA019C
:100F600057FD079663E0959587956A95E1F7969505
:100F7000982F882797958795E80FF91FE45BFE4F18
:100F80004770552781E090E001C0880F4A95EAF745
:100F9000482F0130110541F088F00230110509F0A9
:100FA000DBC02E0F3F1F15C02E0F3F1FE217F307A8
:100FB00009F4D2C08081842B8193F8CF80952E0FC5
:100FC0003F1FE217F30709F4C7C09081982391935C
:100FD000F8CFE217F30709F4BFC08081842781931B
:100FE000F8CF57FDB9C014968D919C91159748176D
:100FF00059070CF0B1C077FF04C0260F371F60E01F
:1010000070E016968D919C911797FB01E20FF31FEC
:101010008E179F071CF49C01261B370B1216130614
:101020000CF09AC0A22F862F86958695869590E81B
:10103000899F400D511D1124FA01E45BFE4F67703A
:10104000A9F198E0961B492F50E0EA01CC56DA4FFF
:101050008881291790F4421B51092FEF30E002C01C
:10106000359527954A95E2F782230130110541F025
:1010700068F00230110589F06FC00130110519F4D4
:101080002081822B0CC00130110520F48095208135
:10109000822305C00230110531F42081822780832C
:1010A000A91708F459C0A91BE058FF4FA83048F110
:1010B0000230110559F4EF018A2F98819095988399
:1010C000C058DF4F88508830C0F731C081E0013010
:1010D000110509F080E08195EF019A2F8883C058AF
:1010E000DF4F98509830D0F788EF8A0F8695869515
:1010F000869560E8869FE00DF11D1124E058FF4FB2
:10110000A770AA2349F1B0E0A457BA4F8C910130DF
:10111000110529F038F002301105D9F01DC0908179
:10112000892B03C0809590818923808315C088EF27
:101130008A0F86958695869570E8879FE00DF11D4C
:101140001124E058FF4FA77039F0B0E0A457BA4F10
:101150008C9190818927E9CFDF91CF911F910F91D9
:101160000895FC0177FD9AC08085918568177907FD
:101170000CF094C057FD92C082859385481759079B
:101180000CF08CC08589823009F07CC08481958107
:10119000DC01A61BB70BBD016150710986819781E7
:1011A000FC01E41BF50BAF01415051090AC081302D
:1011B00041F484819581841B950BAB01BC01615086
:1011C00071092130310529F008F122303105E1F1B2
:1011D0000895FA0157FD3796A3E0F595E795AA958E
:1011E000E1F7F695FE2FEE27F795E7956E0F7F1F37
:1011F000FB01E45BFE4F4770552781E090E001C0A2
:10120000880F4A95EAF79081892B3AC0FA0157FD79
:10121000379623E0F595E7952A95E1F7F695FE2FA9
:10122000EE27F795E7956E0F7F1FFB01E45BFE4FFE
:101230004770552781E090E001C0880F4A95EAF792
:101240008095908189231CC0FA0157FD379683E071
:10125000F595E7958A95E1F7F695FE2FEE27F79538
:10126000E7956E0F7F1FFB01E45BFE4F477055272C
:1012700081E090E001C0880F4A95EAF790818927C4
:1012800080830895833009F092CF86819781861BF1
:10129000970BBA01AC014150510993CF08952B9A95
:1012A00008952C982A982C9A2C9808952C982A9A6C
:1012B0002C9A2C9808950C943B330C94333386EB82
:1012C00096E00E94E80F1816190694F486EB96E053
:1012D0000E94C60F8D3511F482E003C08B3521F4D6
:1012E00081E08093E20508951092E20580E0089580
:1012F00008950F931F93CF93DF93CDB7DEB7C555F6
:10130000D1090FB6F894DEBF0FBECDBF20912E01DC
:101310008091300190913101211105C08D392FEF5D
:10132000920709F0B2C040E250E060E070E0219620
:101330004CAF5DAF6EAF7FAF219722961FAE229765
:101340008E01075D1F4F24E1D8011D922A95E9F710
:101350004AE0BE016F5A7F4F0E94FE324AE0BE0152
:10136000645B7F4F80913201909133010E94FE3285
:101370004AE0BE01695B7F4F809134019091350155
:101380000E94FE324AE0BE016E5B7F4F80913601C3
:10139000909137010E94FE3288E0E4E6F5E0DE013C
:1013A000559601900D928A95E1F7FE017D968CE0AD
:1013B000DF011D928A95E9F78AE0E8E7F5E0DE01B2
:1013C000119601900D928A95E1F7FE013B968AE015
:1013D000DF011D928A95E9F76AE371E0C8010E9476
:1013E000EC3280913001909131018D399F4F39F06D
:1013F00080913601909137010196A1F40AC0D8017D
:10140000FE01759684E18E0F91919D938E13FCCF12
:10141000EFCFD801FE01319684E18E0F91919D931B
:101420008E13FCCFBE01635C7F4FC8010E94EC327B
:10143000BE016F5A7F4FC8010E94EC32BE01635C4F
:101440007F4FC8010E94EC32BE01645B7F4FC80130
:101450000E94EC32BE01635C7F4FC8010E94EC32F7
:10146000BE01695B7F4FC8010E94EC32B80186EB78
:1014700096E00E94971464ED75E086EB96E00E947A
:1014800097141092370110923601CB5ADF4F0FB6E6
:10149000F894DEBF0FBECDBFDF91CF911F910F91AA
:1014A00008950F931F93CF93E82FF0E0EE0FFF1FE7
:1014B000EB56FC4F059114910E944F092B980E9406
:1014C00051090E9451090E9451090E9456090E9427
:1014D0005109C4E10E945109C150E1F70E944F092E
:1014E0002B980E944F092B980E9456090E9451097F
:1014F0000E9451090E9451090E945609C0E100FF53
:1015000003C00E94560902C00E9451091695079512
:10151000C150A9F70E9451090E9451090E94510926
:101520000E9451090E944F092B982C982A98CF911C
:101530001F910F9108952F923F924F925F926F9259
:101540007F928F929F92AF92BF92CF92DF92EF9253
:10155000FF920F931F93CF93DF93782E9FE0F92E86
:10156000C0E0D0E000E010E084E10E94991584E141
:101570000E949915080F191F85E10E94991585E1B0
:101580000E949915C80FD91FFA94F110EDCFEFE022
:10159000F0E0C801BF010E9480309B01CE01BF0175
:1015A0000E9480308B0180912F01873061F58091FE
:1015B0002601909127012817390720F4309327013D
:1015C0002093260180912401909125018217930791
:1015D00020F4309325012093240180911E019091E5
:1015E0001F010817190720F410931F0100931E0113
:1015F00080911C0190911D018017910720F4109398
:101600001D0100931C01C0902A01D0902B01E12CF8
:10161000F12CC901330FAA0BBB0B9C01AD012C1996
:101620003D094E095F09A3E6B0E00E9468332091AE
:101630002801309129014901A12CB12CA501940167
:101640002C193D094E095F090E94493369017A014D
:101650008FEFC81AD80AE80AF80AE601809022013A
:1016600090902301A12CB12CC801110FAA0BBB0B28
:101670009C01AD01281939094A095B09A3E6B0E0CC
:101680000E9468332091200130912101890120E0DE
:1016900030E0A9019801281939094A095B090E941B
:1016A000493349015A018FEF881A980AA80AB80AE3
:1016B00084018FEF781281C08091DF05882321F0AB
:1016C000823009F45FC05BC0B401092C000C880BA8
:1016D000990B0E94C5312B013C01B6010D2C000C69
:1016E000880B990B0E94C531A30192010E94AE3074
:1016F000A30192010E941B3120E030E048EC52E44B
:101700000E9456322B013C0120E030E0A9010E94EA
:10171000513218161CF4C301B20103C0C301B20157
:1017200090580E948D316430710534F18091190612
:101730000C171D0724F4181694F481500EC0C0171E
:10174000D1076CF420911A0130E0482F082E000CCC
:10175000550B421753071CF48F5F80931906809135
:101760001906882361F0082E000C990B20911A01AC
:1017700030E08217930734F47090040105C0772499
:10178000739402C082E0782E8091390190E0272D79
:10179000072C000C330B8217930779F070923901F4
:1017A00081E0781204C088B18C7F816003C088B169
:1017B0008C7F826088B97092040181E0781631F0E4
:1017C00080912F01873011F0E40101C0E601809182
:1017D0002E01882391F12090150630901606409036
:1017E000170650901806211431044104510429F1C0
:1017F0000E94EA1592018101005C104E2F4F3F4F6D
:101800000617170728073907C0F480912F01883081
:10181000A1F4209104018091380182131BC08091B2
:10182000140690E0AE014C5351098417950794F0CB
:1018300048585F4F481759076CF01C161D063CF4BA
:10184000CE01C536D10574F184E690E02BC081E06D
:1018500090E028C020933801C0931406D092310143
:10186000C09230019092330180923201872D770C23
:10187000990B90933501809334018FEF9FEF9093F4
:101880003701809336010E94790981E090E0A0E061
:10189000B0E08093150690931606A0931706B093B8
:1018A0001806CBCFDF91CF911F910F91FF90EF9052
:1018B000DF90CF90BF90AF909F908F907F906F9070
:1018C0005F904F903F902F9008950E94EA1560938B
:1018D00015067093160680931706909318060E94BB
:1018E000EA152091DA053091DB05621B730B6E312E
:1018F000710550F48EE190E09C01261B370BB90175
:1019000080E090E00C94B0150895982FE5E6F3E0A0
:1019100080E02491291729F08F5F31968033C9F731
:1019200080E008950F931F93CF93DF9387B1836077
:1019300087B9409AE091C606F091C70682E080839D
:10194000E091C606F091C7061082E091C206F091C0
:10195000C3061082E091C406F091C50680E1808341
:101960001092CE06E091CA06F091CB0686E0808305
:10197000E091C806F091C906808180618083E09182
:10198000C806F091C906808188608083E091C8060E
:10199000F091C906808180688083E091C806F0914B
:1019A000C90680818F7D808380917A0084608093D6
:1019B0007A0080917A008D7F80937A0080917A00FE
:1019C0008E7F80937A0061E08DE00E945D1561E07A
:1019D0008DE00E942D1561E086E00E945D1561E0BA
:1019E00086E00E942D1560E082E00E945D1562E0B5
:1019F00082E00E942D1560E083E00E945D1562E0A8
:101A000083E00E942D1560E084E00E945D1562E095
:101A100084E00E942D1560E085E00E945D1562E083
:101A200085E00E942D1561E08BE00E945D1561E06C
:101A30008AE00E945D1561E08CE00E945D1580E007
:101A400090E00E945D098F3F09F05EC061E080E098
:101A500090E00E945B0960E081E090E00E945B09F9
:101A600060911A018BE090E00E945B0960912E0169
:101A700081E790E00E945B09609119018CE090E0A1
:101A80000E945B096AE582E090E00E945B0960E0E9
:101A900083E090E00E945B096CED84E090E00E949E
:101AA0005B0960E085E090E00E945B0967ED75E00E
:101AB00081E997E00E94F73201E917E0C4E1D0E044
:101AC000F80161918F01CE010E945B092196CE3110
:101AD000D105B1F76091DF0586E090E00E945B09D7
:101AE0006AE587E090E00E945B0960E088E090E0B2
:101AF0000E945B096CED89E090E00E945B0960E068
:101B00008AE090E00E945B0980E090E00E945D091D
:101B100080932F0181E090E00E945D098093E005B1
:101B20000E94510A8091E0058093DE058BE090E0F1
:101B30000E945D0980931A0181E790E00E945D098F
:101B400091E0811101C090E090932E018CE090E033
:101B50000E945D0991E0811101C090E0909319010C
:101B600001E917E0C4E1D0E0CE010E945D09F8016F
:101B700081938F012196CE31D105B1F783E090E0BA
:101B80000E945D09C82F82E090E00E945D092C2F21
:101B900030E0322F2227282B30932B0120932A016B
:101BA00085E090E00E945D09C82F84E090E00E94EB
:101BB0005D092C2F30E0322F2227282B309329016A
:101BC0002093280186E090E00E945D098093DF0564
:101BD00088E090E00E945D09C82F87E090E00E94B5
:101BE0005D092C2F30E0322F2227282B3093230140
:101BF000209322018AE090E00E945D09C82F89E0CD
:101C000090E00E945D092C2F30E0322F2227282BF4
:101C1000309321012093200181E08093E10592E03F
:101C200090937D079CE390937C0790917E079F3F64
:101C300009F4BDC061E0809180070E945D1561E0FC
:101C4000809182070E945D1580918207082E000C0A
:101C5000990BFC01ED5EF64FE491F0E0EE0FFF1FF3
:101C6000E150F74F259134913093890720938807ED
:101C7000FC01E95DF64FE491E0938E0780918007C7
:101C8000082E000C990BFC01ED5EF64FE491F0E09C
:101C9000EE0FFF1FE150F74F2591349130938B07E2
:101CA00020938A07FC01E95DF64FE491E0938F07EA
:101CB0008091830781113EC061E080917E070E9480
:101CC0005D1561E080917F070E945D1580917F071F
:101CD000082E000C990BFC01ED5EF64FE491F0E04C
:101CE000EE0FFF1FE150F74F259134913093870796
:101CF00020938607FC01E95DF64FE491E0938D07A0
:101D000080917E07082E000C990BFC01ED5EF64FCA
:101D1000E491F0E0EE0FFF1FE150F74F2591349171
:101D20003093850720938407FC01E95DF64FE49129
:101D3000E0938C0780918307882309F45EC0CFB7B6
:101D4000F89480911306811127C0EDE1F9E08491A8
:101D5000E1E3F9E09491E82FF0E0EE0FFF1FEB5084
:101D6000F74FA591B491EC91E92321F461E08AE069
:101D70000E942D1561E08AE00E945D158CB580619E
:101D80008CBD8CB580648CBD61E08DE00E945D15DA
:101D900061E08BE00E945D15809113068F5F809358
:101DA0001306CFBF80E58CBD81E08DBD26C01092AB
:101DB0001B0610921A06109294061092B506109205
:101DC00092068093910610926C0661E082E10E9477
:101DD0002D1561E083E10E942D158091B9008E7F61
:101DE0008093B9008091B9008D7F8093B90088E419
:101DF0008093B80085E48093BC008091810787FDC3
:101E00001EC061E00E945D1561E0809181070E9423
:101E10002D1561E070E080E090E00E94B01560E078
:101E2000809181070E942D156AE070E080E090E0CB
:101E30000E94B01561E0809181070E942D158EEA05
:101E40000E941A1885ED0E941A1880E80E941A183C
:101E500088EA0E941A188FE30E941A1883ED0E94E4
:101E60001A1880E00E941A1880E40E941A188DE85F
:101E70000E941A1884E10E941A1880E20E941A181F
:101E800080E00E941A1881EA0E941A1888EC0E94C9
:101E90001A188AED0E941A1882E10E941A1881E825
:101EA0000E941A188FEC0E941A1889ED0E941A18C5
:101EB00081EF0E941A188BED0E941A1880E40E948C
:101EC0001A1884EA0E941A1886EA0E941A188EE2EA
:101ED0000E941A188FEA0E941A180E94631860ED77
:101EE00077E080E090E00E94B0150E94011885E143
:101EF0000E949915059714F41092DF0560E08DE0BB
:101F0000DF91CF911F910F910C942D15FC01A5EF3E
:101F1000B5E090E02491222331F09E3121F02D9301
:101F200031969F5FF7CFE92FF0E0EB50FA4F208317
:101F300085EF95E00895CF92DF92EF92FF920F9395
:101F40001F93CF93DF936C017A018B01C0E0D0E047
:101F5000CE15DF0589F0D8016D918D01D601ED9187
:101F6000FC910190F081E02DC6010995892B11F4B7
:101F70007E0102C02196ECCFC701DF91CF911F9166
:101F80000F91FF90EF90DF90CF900895FC01918D1D
:101F9000828D981761F0828DDF01A80FB11D5D96CB
:101FA0008C91928D9F5F9F73928F90E008958FEF39
:101FB0009FEF0895FC01918D828D981731F0828DED
:101FC000E80FF11D858D90E008958FEF9FEF089544
:101FD000FC01918D228D892F90E0805C9F4F821BA8
:101FE00091098F739927089586EB96E00E94E80F78
:101FF00021E0892B09F420E0822F0895FC01848DD3
:10200000DF01A80FB11DA35ABF4F2C91848D90E022
:1020100001968F739927848FA689B7892C93A089FD
:10202000B1898C9180648C93938D848D981306C0B4
:102030000288F389E02D80818F7D80830895EF925F
:10204000FF920F931F93CF93DF93EC0181E0888F72
:102050009B8D8C8D981305C0E889F989808185FD59
:1020600024C0F62E0B8D10E00F5F1F4F0F7311274A
:10207000E02E8C8DE8120CC00FB607FCFACFE88971
:10208000F989808185FFF5CFCE010E94FE0FF1CF47
:102090008B8DFE01E80FF11DE35AFF4FF0820B8F8D
:1020A000EA89FB898081806207C0EE89FF896083AD
:1020B000E889F98980818064808381E090E0DF9104
:1020C000CF911F910F91FF90EF900895CF93DF93E1
:1020D000EC01888D8823C9F0EA89FB89808185FD20
:1020E00005C0A889B9898C9186FD0FC00FB607FC81
:1020F000F5CF808185FFF2CFA889B9898C9185FFC2
:10210000EDCFCE010E94FE0FE7CFDF91CF91089572
:1021100080E090E0892B29F00E94F40F81110C944B
:1021200000000895833081F028F4813099F08230E6
:10213000A1F008958730A9F08830B9F08430D1F447
:10214000809180008F7D03C0809180008F77809385
:102150008000089584B58F7702C084B58F7D84BDDB
:1021600008958091B0008F7703C08091B0008F7D7B
:102170008093B00008953FB7F894809168069091DD
:102180006906A0916A06B0916B0626B5A89B05C0AA
:102190002F3F19F00196A11DB11D3FBFBA2FA92FE6
:1021A000982F8827820F911DA11DB11DBC01CD0163
:1021B00042E0660F771F881F991F4A95D1F708954F
:1021C00085ED8093BC008091BC0084FDFCCF109213
:1021D0009206089540913E06262F30E0240F311DCF
:1021E00021323105DCF4209192062430C9F4FC013F
:1021F00080E090E0861758F430913E062191DC0192
:10220000A45EB94FA30FB11D2C930196F3CF80911B
:102210003E06680F60933E0680E0089581E00895D1
:1022200082E00895089581E090E030911B062091AE
:102230001A06321710F480E090E09195819591098B
:10224000089580911B0690911A06891730F48F5FCC
:1022500080931B0680E090E008958FEF9FEF089534
:1022600080911A0690E020911B06821B9109089527
:10227000CF92DF92EF92FF920F931F93CF93DF9352
:102280007C01262F972F8A0180919306882391F055
:10229000C62FD72F6E01C40ED51ECC15DD0571F0EB
:1022A0006991D701ED91FC910190F081E02DC7017A
:1022B0000995F3CF642F822F0E94EA10C801DF91A5
:1022C000CF911F910F91FF90EF90DF90CF900895E5
:1022D000CF93DF931F92CDB7DEB76983209193062A
:1022E0002223D1F02091B506203240F021E030E0E9
:1022F000FC013383228380E090E015C08091940636
:10230000E82FF0E0EB56F94F998190838F5F80932F
:1023100094068093B50605C061E0CE0101960E9447
:10232000EA1081E090E00F90DF91CF910895089539
:102330002F923F924F925F926F927F928F929F92D5
:10234000AF92BF92CF92DF92EF92FF920F931F93C3
:10235000CF93DF93CDB7DEB76B970FB6F894DEBFA0
:102360000FBECDBF4C015A8349831F830E83FD826C
:10237000EC82CB82DC0158964D915C9159974115C6
:10238000510509F0A5C018968D919C911997681771
:1023900079070CF05AC11A968D919C911B97E9818F
:1023A000FA81E817F9070CF050C1D12CCB013B8121
:1023B000F6E03F9F800D911D1124181619060CF0B0
:1023C00044C1C60133E0880F991F3A95E1F749816E
:1023D0005A81840F951F181619060CF036C15796AE
:1023E0008C91811103C0203B08F02F5F55E0259FA1
:1023F000900111247E876D875B01212CC901861B0A
:10240000970B99878887A981BA811896BB87AA8775
:10241000B5E02B1641F0E885F985EA0DFB1DEB5080
:10242000FC4F349001C0312C69807A80230130FE4A
:1024300012C0D401ED91FC91BB81B13031F4048024
:10244000F581E02D2E813F8118C00684F785E02DAF
:10245000EE80FF801CC0EC81FD812E813F81E21760
:10246000F307E1F0D401ED91FC91BB81B13051F45F
:102470000480F581E02D2C813D81A301B501C401CB
:1024800009950CC00684F785E02DEC80FD8086015F
:102490009601A2016D857E85C40109953694EFEF02
:1024A0006E1A7E0A4C0C5D1C2A853B8562167306EB
:1024B00009F0BDCF23943FEFA31AB30A4D855E8583
:1024C0004C0D5D1D5E874D8756E02512A1CFBDC026
:1024D000FA0134963491329785919491231BA7E0A9
:1024E0002A9F800D911D1124FA01259134913A8B78
:1024F000298BFC0125903490FC0132963491388769
:10250000319644914C873196E491FC013596A49123
:10251000319684915B81523050F06A2E0A2E000C65
:102520007708E82F082E000CFF0BFB87EA87FB815A
:10253000CF2ED12C6C9C90016D9C300D7C9C300D6D
:102540001124A901460F571F588B4F871C82A12CBD
:10255000EA2FAA0FFF0B3B016E0E7F1E5885650FF9
:10256000711DDB01AE0FBF1FBF8BAE8BE981FA81FE
:10257000E80FF11D87FDFA95F98FE88F9C85A91664
:1025800008F063C08A2D90E04A855B85480F591F8B
:102590004C9D90014D9D300D5C9D300D1124A98105
:1025A000BA81A20FB31FBE87AD877B8E6A8E4F8420
:1025B0005888BC81B619BB8BE88DF98DE80FF91FDF
:1025C000FD8BEC8B8B89FA8D8F0F2A8D3B8D4E897D
:1025D0005F892417350799F1877041F4C10101968D
:1025E000E989FA89E20DF31DB4901C01B7FE1EC003
:1025F000D401ED91FC91BB81B13061F40480F5818F
:10260000E02D2E813F814C895D896A8D7B8DC401CF
:1026100009950CC00684F785E02DEE80FF808601C9
:1026200096014D855E85B201C4010995BB0CEA8D0A
:10263000FB8D3196FB8FEA8F4C0C5D1CC3CF5C8108
:102640008885580F5C83A39499CF6B960FB6F89446
:10265000DEBF0FBECDBFDF91CF911F910F91FF90D5
:10266000EF90DF90CF90BF90AF909F908F907F9032
:102670006F905F904F903F902F900895AF92BF92D0
:10268000CF92EF92FF920F931F93CF93DF93EC01C2
:10269000262F888D998D009709F042C06A3069F421
:1026A0002C898E859F8538E0239F800D911D1124F4
:1026B0009F878E871D861C86ACC06D3009F4A9C02B
:1026C0008E898823C1F03C898C859D8546E0349FA6
:1026D000800D911D112448855985841795075CF05C
:1026E0001D861C868E859F85E8E03E9F800D911D8E
:1026F00011249F878E87EA88FB88088919894E856F
:102700005F856C857D85CC88CE010E9498112C89CF
:102710008C859D85F6E02F9F800D911D112441C071
:102720006A3079F41D861C862C89FC013696E4916A
:102730008E859F852E9F800D911D11249F878E87EA
:1027400068C06D3009F465C0AC014C5F5F4FFA01A1
:102750003491631708F45DC03196E491E61708F4EC
:1027600058C0FA014491362F341BFC013296A590D3
:10277000B490F7E03F9FA00CB11C1124F5013296F4
:1027800034913196E491332311F0E1110DC0F5013C
:102790003496E4912C898C859D85E29F800D911D56
:1027A00011249D878C8735C0F501359644915E894B
:1027B000552311F16C89E32FF0E0E40FF11D47FD83
:1027C000FA956E9FD0016F9FB00D11244C855D85E9
:1027D0004A0F5B1FE885F9854E175F076CF01D8671
:1027E0001C86FC013696E4918E859F856E9F800D38
:1027F000911D11249F878E87EA88FB880889198993
:102800004E855F856C857D85CC88CE010E949811B0
:10281000BECF81E090E0DF91CF911F910F91FF90AB
:10282000EF90CF90BF90AF900895EF92FF920F93EB
:102830001F93DC01ED91FC9111971A960D911C915B
:102840001B9718962D913C9119970684F785E02DDA
:102850007B0140E050E060E070E009951F910F912E
:10286000FF90EF9008956F927F928F929F92AF9218
:10287000BF92CF92DF92EF92FF920F931F93CF936D
:10288000DF936C015A014801EB013B01620E731E9C
:10289000C615D70574F4D601ED91FC910084F1853D
:1028A000E02D87019401A501BE01C601099521967D
:1028B000EFCFDF91CF911F910F91FF90EF90DF90BD
:1028C000CF90BF90AF909F908F907F906F90089522
:1028D000EF92FF920F931F93DC01ED91FC91260F75
:1028E000371F215031090680F781E02D78018A01D8
:1028F00009951F910F91FF90EF900895EF92FF922D
:102900000F931F937801DC01ED91FC91240F351F8B
:102910008901015011090680F781E02D9B0109957D
:102920001F910F91FF90EF9008950E94E73261157B
:10293000710579F0FB0101900020E9F73197AF01B3
:10294000461B570BDC01ED91FC910280F381E02DD9
:10295000099480E090E008951F920F920FB60F92B5
:1029600011242F933F934F935F936F937F938F9394
:102970009F93AF93BF93EF93FF9386EB96E00E94F4
:10298000FE0FFF91EF91BF91AF919F918F917F913A
:102990006F915F914F913F912F910F900FBE0F90CC
:1029A0001F9018951F920F920FB60F9211242F931C
:1029B0008F939F93EF93FF93E091C606F091C70624
:1029C0008081E091CC06F091CD0682FD12C090810D
:1029D0008091CF068F5F8F732091D006821751F0C0
:1029E000E091CF06F0E0EA54F94F958F8093CF063F
:1029F00001C08081FF91EF919F918F912F910F9056
:102A00000FBE0F901F901895CF93DF93282F30E0C3
:102A1000F901E55CF64F8491F901E95DF64FD49137
:102A2000F901ED5EF64FC491CC2391F081110E9423
:102A30009210EC2FF0E0EE0FFF1FE75FF64FA5912D
:102A4000B491EC91ED2381E090E021F480E002C0AC
:102A500080E090E0DF91CF9108951F93CF93DF93B3
:102A6000282F30E0F901E55CF64F8491F901E95D2A
:102A7000F64FD491F901ED5EF64FC491CC23C9F025
:102A8000162F81110E949210EC2FF0E0EE0FFF1F25
:102A9000E150F74FA591B4918FB7F894111105C08B
:102AA0009C91ED2FE095E92302C0EC91ED2BEC9386
:102AB0008FBFDF91CF911F910895CF93DF9390E067
:102AC000FC01E95DF64F2491FC01ED5EF64F849127
:102AD000882361F190E0880F991FFC01EB50F74FBC
:102AE000C591D491FC01E150F74FA591B4916111CA
:102AF00009C09FB7F8948881209582238883EC9140
:102B00002E230BC0623061F49FB7F8943881822F76
:102B1000809583238883EC912E2B2C939FBF06C036
:102B20008FB7F894E8812E2B28838FBFDF91CF9148
:102B300008958E3008F08E508770806480937C00FA
:102B400080917A00806480937A0080917A0086FD7B
:102B5000FCCF809178002091790090E0922B08952D
:102B60008F929F92AF92BF92CF92DF92EF92FF929D
:102B70006B017C010E94BB104B015C01C114D104AC
:102B8000E104F104F1F00E94BB10DC01CB018819D3
:102B90009909AA09BB09883E9340A105B10570F3C4
:102BA00021E0C21AD108E108F10888EE880E83E01E
:102BB000981EA11CB11CC114D104E104F10419F741
:102BC000DDCFFF90EF90DF90CF90BF90AF909F90C0
:102BD0008F9008952FB7F894609164067091650600
:102BE00080916606909167062FBF08951F920F92FD
:102BF0000FB60F9211242F933F938F939F93AF9310
:102C0000BF938091640690916506A0916606B0918D
:102C100067063091630623E0230F2D3720F40196D9
:102C2000A11DB11D05C026E8230F0296A11DB11DEF
:102C3000209363068093640690936506A0936606CE
:102C4000B09367068091680690916906A0916A0624
:102C5000B0916B060196A11DB11D809368069093FB
:102C60006906A0936A06B0936B06BF91AF919F91DE
:102C70008F913F912F910F900FBE0F901F9018953D
:102C80001F920F920FB60F9211242F933F934F93E1
:102C90005F936F937F938F939F93AF93BF93EF93C4
:102CA000FF938091B900887F803609F49CC068F555
:102CB000883209F45BC090F4803109F454C038F4D0
:102CC000882309F4F6C0883009F44DC0F6C0883175
:102CD00009F44CC0803209F45DC0EFC0803409F4BF
:102CE00068C048F4803309F455C0883309F0E5C062
:102CF00080939006D8C0803509F44FC0883509F418
:102D00005DC0883409F0D9C0D6C0883909F4C7C07D
:102D1000A8F4883709F467C038F4883609F463C02A
:102D2000803709F460C0C9C0883809F4B8C0803958
:102D300009F45FC0803809F0C0C05BC0803B09F473
:102D400086C038F4803A09F466C0883A09F47FC036
:102D5000B4C0803C09F4A7C0883C09F4A4C0883BF7
:102D600009F48AC0AAC080916D0610C090918F06A8
:102D700080918E06981770F5E0918F0681E08E0F96
:102D800080938F06F0E0E259F94F80818093BB0079
:102D900085EC86C0809390068EC0E0918F0681E01E
:102DA0008E0F80938F068091BB00F0E0E259F94FBF
:102DB000808390918F0680918E066EC0E0918F0681
:102DC00081E08E0F80938F068091BB00F0E0E25986
:102DD000F94F80838091910681116DC081E08093CD
:102DE0006C0684EA61C083E08093920610926206CA
:102DF000CFCF80916206803208F051C0E091620628
:102E000081E08E0F809362068091BB00F0E0EE5B64
:102E1000F94F8083BDCF85EC8093BC001092920661
:102E200080916206803230F4E0916206F0E0EE5B61
:102E3000F94F10826091620670E0E0914006F091D7
:102E4000410682E496E009951092620636C084E05D
:102E50008093920610923F0610923E06E0913C0647
:102E6000F0913D06099580913E06811105C081E0F3
:102E700080933E0610921C06E0913F0681E08E0F83
:102E800080933F06F0E0E45EF94F80818093BB00C1
:102E900090913F0680913E06981708F479CF85E817
:102EA0008093BC000AC085EC8093BC00109292060F
:102EB00004C0109290060E94E010FF91EF91BF9124
:102EC000AF919F918F917F916F915F914F913F91C2
:102ED0002F910F900FBE0F901F9018952091B5065F
:102EE00090919007213208F04AC08091920681119A
:102EF000FCCF32E03093920631E0309391063FEF01
:102F00003093900610928F0620938E06A5E9B6E0C6
:102F10004EE656E0FA013E2F341B321718F43D916D
:102F20003193F9CF10926D0620916D06990F922B77
:102F300090936D0690916C06913061F410926C063E
:102F400090916D069093BB009091BC0093FDF8CFDB
:102F500095EC01C095EE9093BC0090919206923052
:102F6000E1F3909190069F3F79F080919006803236
:102F700041F080919006803331F084E005C081E01B
:102F800003C082E001C083E0109294061092B5065F
:102F900010929306089590918307992339F08EBD7E
:102FA00000000DB407FEFDCF8EB5089528E030E097
:102FB00040E8E0918607F0918707508190918D0756
:102FC000909595239083E0918407F09185079091E7
:102FD0008C07542F582319F05081952B03C0508132
:102FE000909595239083E0918607F0918707508113
:102FF00090918D07952B9083469521503109C9F604
:10300000089580E094E0ECE4F1E0DF019C011D9282
:1030100021503040E1F7E2E6F7E015861486178686
:10302000168681E0848B81E090E0938B828B918B7C
:10303000808B0895CF93C82F80917E078F3F59F1E1
:10304000E0918807F0918907808190918E07982BF5
:103050009083E0918A07F0918B07208190918F07F0
:10306000909592239083E0918807F09189072081C1
:1030700090918E079095922390838C2F0E94CB176E
:10308000E0918807F0918907908180918E07892BC4
:103090008083CF91089580917C0791E0909393066F
:1030A00080939007109294061092B50660E083E535
:1030B00097E00E9468116C2F83E597E00E946811E9
:1030C000CF910C946E17EF92FF920F931F93CF93B3
:1030D000DF9381E20E941A1880E00E941A188FE79D
:1030E0000E941A1882E20E941A1880E00E941A18A0
:1030F00087E00E941A1880917E078F3F79F1E09156
:103100008807F0918907908180918E07892B8083B1
:10311000E0918A07F0918B07908180918F07892B2E
:103120008083E0918807F0918907908180918E07D4
:10313000809589238083CCE4D1E089910E94CB17CC
:1031400085E0CC34D807C9F7E0918807F09189076A
:10315000908180918E07892B808330C0F090B800D9
:103160008CE08093B800CCE4D1E0EE24E39480912D
:103170007C07E09293068093900710929406109239
:10318000B50660E483E597E00E94681100E010E076
:10319000FE01E00FF11F608183E597E00E94681156
:1031A0000F5F1F4F0031110599F70E946E1760964F
:1031B00085E0CC34D807D9F6F092B800DF91CF91F2
:1031C0001F910F91FF90EF900895BC0182E697E068
:1031D0000C949714CF92DF92EF92FF920F931F936C
:1031E000CF93DF936C01C2E6D7E00A851B85288563
:1031F0003985EE24E394F12C40E050E060E070E08B
:10320000CE010E940205288539850BE010E040E0E0
:1032100050E060E070E0CE010E94331481E08C8BBE
:103220001B8A1A8A198A188AF60101900020E9F788
:103230003197EC19FD0926E02E9FC0012F9F900DBC
:10324000112428853985281B390B369527953D870C
:103250002C8782E090E09F878E87C6010E94E51848
:1032600081E090E09B8B8A8B998B888BDF91CF914B
:103270001F910F91FF90EF90DF90CF9008958F9264
:103280009F92AF92BF920F931F93CF93DF93CDB7CF
:10329000DEB7A1970FB6F894DEBF0FBECDBF19A25F
:1032A000423008F44AE08E010F5D1F4F842E912CAE
:1032B000A12CB12CA50194010E947333E62FB90112
:1032C000CA0101501109EA3014F4E05D01C0E95C63
:1032D000D801EC93232B242B252B61F7B80182E630
:1032E00097E00E949714A1960FB6F894DEBF0FBE28
:1032F000CDBFDF91CF911F910F91BF90AF909F9065
:103300008F900895CF93C82F0E9401188FE499E001
:103310000E94860F0E94EA18E2E6F7E085E0848BBF
:1033200081E090E0938B828B918B808B84E190E0A5
:1033300095878487978786876C2F70E080E090E080
:103340004AE00E943F190E946318CF910C94011823
:10335000E0916207F09163070190F081E02D682F02
:1033600082E697E00994CF92DF92EF92FF920F935B
:103370001F93CF93DF93182FEB016A010E9401186E
:103380008FE999E00E94860F0E94EA1881E090E0A0
:1033900090937507809374079093730780937207D7
:1033A00035E0E32EF12CF0926F07E0926E078CE08F
:1033B00090E0909371078093700780E999E00E94F4
:1033C000860F0E94E518F0926F07E0926E074CE1BD
:1033D000E42EF12CF0927107E09270078AE899E0F0
:1033E0000E94860F0E94E51886E290E090936F0796
:1033F00080936E07F0927107E0927007612F6770FB
:103400006F5F70E080E090E04AE00E943F198DE934
:10341000C8168FEFD806E9F08EE799E00E94860F74
:103420000E94E5180D2C000CEE08FF08F7FE0CC0FA
:103430008DE20E94A81966277727CB016C197D09B8
:103440008E099F094AE003C04AE0C701B6010E9405
:103450003F1985E090E090936F0780936E0704E238
:1034600010E0109371070093700780E799E00E94C5
:10347000860F0E94E51886E290E090936F07809394
:103480006E071093710700937007BE0180E090E013
:103490004AE00E943F1980916A0790916B0782541D
:1034A000910997FD01969595879590936F07809365
:1034B0006E0784E390E0909371078093700784E631
:1034C00099E00E94860F0E94E518DF91CF911F912D
:1034D0000F91FF90EF90DF90CF900C946318CF93F3
:1034E000DF93CDB7DEB72D970FB6F894DEBF0FBED2
:1034F000CDBF789484B5826084BD84B5816084BD7D
:1035000085B5826085BD85B5816085BD80916E0081
:10351000816080936E0010928100809181008260B2
:1035200080938100809181008160809381008091EF
:1035300080008160809380008091B10084608093DE
:10354000B1008091B00081608093B00080917A00DA
:10355000846080937A0080917A00826080937A0000
:1035600080917A00816080937A0080917A008068EF
:1035700080937A001092C1000E94920C45E0642E64
:10358000712C83E00E940415892B09F066C010920B
:10359000F1051092F2051092F3051092F40569E11D
:1035A00070E080E090E00E94B01564E670E080E09A
:1035B00090E00E94B01569E170E080E090E00E9428
:1035C000B01564E670E080E090E00E94B015D12C68
:1035D00083E00E940415892B59F42AE0D21641F0A9
:1035E00064E670E080E090E00E94B015D394F0CFE4
:1035F000109231011092300183E090E090933301FA
:10360000809332010E94790980912F01811103C0BA
:1036100081E080932F0132E03A8382E3898387E15E
:10362000882E912C91E2292E312C25E3422E512C0B
:1036300035E0A32E99E09D1510F00C94C62B86E082
:1036400080932F018EEF9FEF909331018093300193
:103650000E9479098FEF80932C011092ED0585E08F
:103660000E940415892B19F486E080932F01809124
:10367000E10510912F01811105C080912C011817CF
:1036800009F4EBC31092E105133011F40C94FC2DF6
:1036900048F4113009F4FDC0123009F0DAC3109378
:1036A0002D0152C0173029F1193009F4B5C3163075
:1036B00009F0CFC36091E00581E090E00E945B09D2
:1036C00060912D0180E090E00E945B0960911A01F9
:1036D0008BE090E00E945B09609119018CE090E022
:1036E0000E945B0961E9E62E67E0F62E04E110E036
:1036F000CDC162E370E070932B0160932A014CE22C
:1037000051E050932901409328012CED30E0309393
:103710002701209326018AE590E09093250180936C
:10372000240170932301609322015093210140935F
:10373000200130931F0120931E0190931D0180935F
:103740001C0183E08093EC051092EB05E5E6F3E0C5
:10375000E491E093E0051092EA051092E90581E01A
:103760008093EE050E94011810926007123099F4C0
:1037700080E391E00E94860F0E94EA1870926F0722
:1037800060926E078CE090E09093710780937007D1
:103790008AE291E012C08FE191E00E94860F0E94C0
:1037A000EA1870926F0760926E078CE090E0909339
:1037B00071078093700781E191E00E94860F0E945B
:1037C000E51820916A0730916B07EE24E394F12C01
:1037D00004E110E044E150E060E070E082E697E050
:1037E0000E94510540916C0750916D074B50510953
:1037F00020916A0730916B078A0160E070E082E6F1
:1038000097E00E94510580916C0790916D07099790
:1038100022E030E030936F0720936E07909371079A
:10382000809370078CE091E00E94860F0E94E5185B
:1038300080916C0790916D07099727E330E03093F2
:103840006F0720936E07909371078093700787E04E
:1038500091E00E94860F0E94E51880916C0790917C
:103860006D07099720916A0730916B07295131093B
:1038700030936F0720936E079093710780937007C2
:1038800082E091E00E94860F0E94E5180E94631872
:10389000E0C280E580931B011092EA051092E905D1
:1038A0001093F0051092F1051092F2051092F305B5
:1038B0001092F4058FEF809361070E940118193070
:1038C00019F48DE691E009C0133019F481E691E016
:1038D00004C0113031F482E591E00E94860F0E940D
:1038E000EA1881E090E090937507809374079093B5
:1038F00073078093720720916A0730916B0701E08C
:1039000010E044E150E060E070E082E697E00E9461
:10391000550720916A0730916B0740E250E060E064
:1039200070E082E697E00E94550770926F07609200
:103930006E078CE090E09093710780937007EE24FF
:10394000E394F12C04E110E021E630E04BE050E09C
:1039500061E670E082E697E00E9451058CE491E018
:103960000E94860F0E94E51821E308E010E0F7E1CD
:10397000EF2EF12C10936F0700936E07F0927107F2
:10398000E0927007822F2B870E94A819015F1F4FBA
:103990002B852F5F293371F720916A0730916B07D0
:1039A000EE24E394F12C04E210E044E250E060E005
:1039B00070E082E697E00E94510540916C075091BB
:1039C0006D074B50510920916A0730916B078A01AE
:1039D00060E070E082E697E00E94510580916C07FC
:1039E00090916D07099722E030E030936F072093A4
:1039F0006E07909371078093700787E491E00E94AF
:103A0000860F0E94E51880916C0790916D070997C9
:103A100027E330E030936F0720936E079093710790
:103A20008093700782E491E00E94860F0E94E5185F
:103A300080916C0790916D07099720916A073091EA
:103A40006B072951310930936F0720936E079093CC
:103A50007107809370078DE391E00E94860F0E94AA
:103A6000E5180E94631880912D01823031F0893071
:103A700021F080912C01873031F481E090E00E94A8
:103A80005D098093E00580912F01E1C1F70161910B
:103A90007F01C8010E945B090F5F1F4F0E311105A6
:103AA000A9F76091DF0586E090E00E945B098091B4
:103AB0002C01853009F46BC080912D01893009F407
:103AC00066C08FE690E00E945D098F3FE9F08CE6CA
:103AD00090E00E945D0990E08930910521F08C0111
:103AE0000F5F1F4F02C000E010E0F801EE0FFF1F54
:103AF000E05BFA4F6FEF808191810E945B09602F3C
:103B00008CE690E00E945B09E12CF12CF701EE0FAE
:103B1000FF1FE05BFA4F00811181C8010E945D091F
:103B20008F3F69F46091E005C8010E945B096E2D2A
:103B30008CE690E00E945B093CE0E32EF12CFFEF65
:103B4000EF1AFF0A2AE0E216F10404F38EEF9FEF6A
:103B50009093310180933001109233011092320121
:103B60000E9479098CE690E00E945D099091E00541
:103B7000E92FF0E0EE0FFF1FEB5FFC4F65917491B2
:103B8000482F50E04F5F5F4F892F0E94B3198091FB
:103B90002C018530D1F48EEF9FEF9093310180930B
:103BA000300110923301109232010E947909809104
:103BB000E005E82FF0E0EE0FFF1FEB5FFC4F659193
:103BC00074914DE95FEF0E94B31980912D01893006
:103BD00009F00BC180912C018F3F09F006C18DEFD8
:103BE0009FEF909331018093300110923301109236
:103BF00032010E947909E091E705F091E805EE0FA6
:103C0000FF1FE05BFA4F6FEF808191810E945B099B
:103C1000D090E705D394E091E005F0E0EE0FFF1FB0
:103C2000EB5FFC4FA590B4900E94011884EA91E0EC
:103C30000E94860F0E94EA1881E090E09093750739
:103C400080937407909373078093720770926F0745
:103C500060926E07BCE0EB2EF12CF0927107E092BF
:103C6000700786E991E00E94860F0E94E51805E53D
:103C700010E010936F0700936E07F0927107E092C7
:103C80007007B50180E090E04AE00E943F19709211
:103C90006F0760926E0784E1E82EF12CF0927107B5
:103CA000E092700789E891E00E94860F0E94E51873
:103CB00010936F0700936E07F0927107E092700700
:103CC0006D2D70E080E090E04AE00E943F19809105
:103CD0006A0790916B078254910997FD019695951B
:103CE000879590936F0780936E0784E390E090939D
:103CF0007107809370078BE791E00E94860F0E9406
:103D0000E5180E94631865E0E62E61E0F62EF701E3
:103D10008FEF90E08193919331E0E931F307D1F790
:103D200000E515E06801F601819191916F010E9413
:103D30005D098F3F31F4F4E6CF16F5E0DF0699F721
:103D400017C090E020E030E0F901EE0FFF1FEB5FBD
:103D5000FE4F408151814F3F510521F49183808373
:103D60002CE030E02F5F3F4F2A3031056CF3E3CF7A
:103D7000F7016081F2E0EF0EF11CF8018191919161
:103D80008F010E945B09F9E1EF16F1E0FF0681F770
:103D90001092E60568EE73E080E090E00E94B015B6
:103DA00060E08CE690E00E945B0984E690E00E946F
:103DB0005D098093E0051092E8051092E70584E61E
:103DC00090E00E945D098093E00581E00E948219E5
:103DD0006091E005862F6B870E94850C8093EB0530
:103DE0006B8581E090E00E945B0915E064E670E07D
:103DF00080E090E00E94B0151150C1F760E273E0DE
:103E000080E090E00E94B01580912D0180932F01F9
:103E100081E08093E1051DC00E94EA156093F105E1
:103E20007093F2058093F3059093F40580912D0132
:103E3000823031F0893021F080912C01873031F4CB
:103E400081E090E00E945D098093E00589E0809325
:103E50002D0180912F0180932C0180912F01982FAB
:103E60009D7F983009F0BDC26091E00570E0FB01D4
:103E7000EE0FFF1FEB5FFC4FE590F490FB01EB5260
:103E8000FD4FA490B090DF050E94011884E080935C
:103E9000760788248394912C9092750780927407FA
:103EA000909273078092720702E010E010936F0700
:103EB00000936E071092710710927007B70180E0AF
:103EC00090E04AE00E943F19FF24F394F0927607B5
:103ED00010926F0710926E078CE190E0909371073B
:103EE0008093700781E997E00E94E51882E0809353
:103EF000760722E6C22ED12CD0926F07C0926E07B1
:103F00001093710700937007909275078092740761
:103F100090927307809272076A2D70E080E090E0C3
:103F200040E10E943F19F0927607E12CF12C0BE161
:103F300010E022E330E04BE150E060E070E082E628
:103F400097E00E94510585E10E949915059734F18B
:103F5000D0926F07C0926E0784E190E09093710752
:103F60008093700790927307809272071092750782
:103F70001092740721E0B21659F0B21630F032E018
:103F8000B3120CC08DEB91E005C089EC91E002C04A
:103F900083EC91E00E94860F0E94E518109273074F
:103FA00010927207CC24C394D12CD0927507C09282
:103FB000740740916C0750916D074B515109EE24E5
:103FC000E394F12C0DE010E027E030E060E070E0D9
:103FD00082E697E00E94331480916C0790916D0700
:103FE0004897D0926F07C0926E07909371078093A5
:103FF00070078BEB91E00E94860F0E94E5186AE043
:1040000082E697E00E943E131092730710927207A7
:10401000D0927507C092740740916C0750916D075C
:104020004D50510927E030E060E070E082E697E013
:104030000E94331480916C0790916D070B97D0927A
:104040006F07C0926E07909371078093700789EB9A
:1040500091E00E94860F0E94E5180E9463180E945A
:10406000EA156093F1057093F2058093F305909340
:10407000F40588248394912C07E7A02EB12C8FEFB0
:104080000E949B0A8093E505C090F105D090F2054F
:10409000E090F305F090F405C114D104E104F104BB
:1040A00079F00E94EA15E0E7CE0EE7E1DE1EE11CA2
:1040B000F11CC616D706E806F90610F40C94082E73
:1040C00082E00E949B0AD82E81E00E949B0A89838D
:1040D0005090E505C090040180912F018A3009F0CD
:1040E00068C00E940118F9812F2E312C412C512CCF
:1040F000A20191012150310941095109A4E7B0E021
:104100000E94683323E630E040E050E00E944933EB
:10411000DA01C9010396A11DB11D282F30E0EE245C
:10412000E394F12C0EE110E04EE150E060E070E02D
:1041300082E697E00E94331427E730E04EE150E03A
:1041400060E070E082E697E00E94020524E02093A0
:104150007607909275078092740790927307809209
:10416000720784E190E090936F0780936E0710923E
:104170007107109270074AE0C201B1010E943F1915
:1041800089ED91E00E94860F0E94E51810926F075A
:1041900010926E07109271071092700799819233F6
:1041A00010F068E101C069E182E697E00E943E13E9
:1041B000FAC085E10E94991505970CF4BFC0E9810A
:1041C0008E2F90E0A0E0B0E09C01AD0121503109BC
:1041D00041095109A4E7B0E00E94683323E630E0CA
:1041E00040E050E00E944933DA01C9010396A11D65
:1041F000B11D282E312C95012219330940916C07ED
:1042000050916D074B515109B101695F7F4FE12C0E
:10421000F12C0DE010E082E697E00E94331440910B
:104220006C0750916D07F1E04B515109CF120BC053
:10423000EE24E394F12C910167E070E082E697E0D0
:104240000E9433141CC0E12CF12C0DE010E027E794
:1042500030E067E070E082E697E00E94331440911E
:104260006C0750916D074B515109EE24E394F12CEA
:10427000910167E070E082E697E00E9402058D2DD3
:1042800090E0A0E0B0E09C01AD012150310941096E
:104290005109A4E7B0E00E94683323E630E040E033
:1042A00050E00E944933DA01C9010396A11DB11DF6
:1042B000282E312C95012219330940916C07509119
:1042C0006D074D505109B101695F7F4FE12CF12C11
:1042D0000DE010E082E697E00E94331440916C07F5
:1042E00050916D0722E04D505109C2120BC0EE24CF
:1042F000E394F12C910167E070E082E697E00E9480
:1043000033141CC0E12CF12C0DE010E027E730E065
:1043100067E070E082E697E00E94331440916C07FA
:1043200050916D074D505109EE24E394F12C910109
:1043300067E070E082E697E00E94020533E1351500
:1043400078F10E94EA152AEF30E040E050E00E9448
:10435000733321E030E06D3771058105910510F070
:1043600020E030E0309373072093720710927507B6
:104370001092740780916C0790916D074297EDE25F
:10438000F0E0F0936F07E0936E07909371078093CE
:1043900070078EEC91E00E94860F0E94E51803C022
:1043A00085E10E9499150E94631883E00E9404151C
:1043B000019711F00C941A2E82E00E9404150197C7
:1043C00011F00C941A2E84E00E940415019711F04C
:1043D0000C941A2E0E945F09882309F450CE0C9485
:1043E0001A2E843009F0C7C14090DF0587E1882E7E
:1043F000912C91E2292E312C2CE6A22EB12C409248
:10440000DF050E9401188DEF91E00E94860F0E9447
:10441000EA1820916A0730916B07FAE04F9EA001DD
:104420001124445F5F4FEE24E394F12C0AE010E086
:1044300060E070E082E697E00E94331481E090E053
:10444000411002C080E090E090937507809374075C
:10445000909373078093720770926F0760926E0754
:104460002DE030E0309371072093700788EF91E0E2
:104470000E94860F0E94E51881E090E031E043122F
:1044800002C080E090E0909375078093740790934A
:1044900073078093720770926F0760926E07909215
:1044A0007107809270078DEE91E00E94860F0E9446
:1044B000E51881E090E0E2E04E1202C080E090E07A
:1044C0009093750780937407909373078093720796
:1044D00070926F0760926E0730927107209270079A
:1044E00082EE91E00E94860F0E94E51881E090E044
:1044F0009093750780937407909373078093720766
:1045000020916A0730916B0740916C0750916D07BD
:1045100045515109EE24E394F12C0BE010E060E0EA
:1045200070E082E697E00E94020580916C0790910E
:104530006D07439770926F0760926E0790937107B3
:10454000809370078FED91E00E94860F0E94E5181E
:1045500080916C0790916D07099770926F07609238
:104560006E0790937107809370078DED91E00E9424
:10457000860F0E94E5180E9463188FEF0E949B0A25
:1045800082E00E949B0A898381E00E949B0A5090EE
:10459000040190E0A0E0B0E09C01AD0121503109A0
:1045A00041095109ABE6B0E00E94683323E630E0F0
:1045B00040E050E00E944933DA01C9010196A11D93
:1045C000B11DC82ED12C95012C193D0940916C07C5
:1045D00050916D0743515109B6016E5E7F4FE12C3A
:1045E000F12C07E010E082E697E00E94331440913E
:1045F0006C0750916D07F1E0435151095F120BC0F8
:10460000EE24E394F12C960162E170E082E697E0FB
:104610000E9433141BC0E12CF12C07E010E096013E
:1046200062E170E082E697E00E94331440916C07EB
:1046300050916D0743515109EE24E394F12C9601FA
:1046400062E170E082E697E00E9402052981822FF4
:1046500090E0A0E0B0E09C01AD012150310941099A
:104660005109ABE6B0E00E94683323E630E040E059
:1046700050E00E944933DA01C9010196A11DB11D24
:10468000C82ED12C95012C193D0940916C075091F1
:104690006D0749505109B6016E5E7F4FE12CF12C38
:1046A00007E010E082E697E00E94331440916C0727
:1046B00050916D0732E04950510953120BC0EE245E
:1046C000E394F12C960162E170E082E697E00E94AB
:1046D00033141BC0E12CF12C07E010E0960162E1DD
:1046E00070E082E697E00E94331440916C0750918D
:1046F0006D0749505109EE24E394F12C960162E1D3
:1047000070E082E697E00E9402050E94631883E051
:104710000E940415019779F482E00E940415019724
:1047200051F484E00E940415019729F40E945F0966
:10473000882309F422CF83E00E940415892B11F00D
:104740000C941F2E10E082E0841514F00C94292E96
:10475000412C69E170E080E090E00E94B01568ECC7
:1047600070E080E090E00E94B015111148CE809179
:104770002D0180932F0180912F01893019F0109223
:10478000E605A5C00E94650C8FEF0E949B0A8093EE
:10479000E5052091E9053091EA0590E0821793073D
:1047A00008F4C9019093EA058093E9050E94EA158F
:1047B0006093F1057093F2058093F3059093F405EF
:1047C0008091E60581111FC069E080E090E00E94C1
:1047D0005B091092E40560E5E62E65E0F62E10E038
:1047E00001E0F701819191917F010E945D098F3F66
:1047F00021F01093E3050093E4051F5F1A3089F759
:1048000081E08093E60582E00E940415892B11F473
:104810000C94432E8091E205813011F40C94432EC8
:1048200084E00E940415892B11F40C94A72E80912A
:10483000E205823011F40C94A72E8091E4058111D9
:104840000C943E2E0E9401188DE092E00E94860F8B
:104850000E94EA1883E08093760781E090E09093CD
:10486000750780937407909373078093720784E1B0
:1048700090E090936F0780936E07909371078093F9
:10488000700787E092E00E94860F0E94E5180E9460
:10489000631884E090E09093310180933001E091BF
:1048A000E005F0E0EE0FFF1FEB5FFC4F8591949168
:1048B00090933301809332018091E7059091E80550
:1048C000019690933501809334010E94790980917B
:1048D0002F01982F9D7F913009F097C30E94650C9E
:1048E0008FEF0E949B0A8093E5050E945F09182FB5
:1048F0008093E2050091E005802F0E94850CF82E40
:104900008093EB0580912F01833009F082C083E012
:1049100090E0909331018093300182E00E94041571
:10492000892B11F0113009F50E94EA156093F10509
:104930007093F2058093F3059093F40568EC70E0B2
:1049400080E090E00E94B0151092E2050F5F0093A6
:10495000E00581E08F0D803314F40C94062F109243
:10496000EB05003310F01092E00584E00E9404157E
:10497000892B21F08091E205823019F50E94EA1519
:104980006093F1057093F2058093F3059093F4051D
:1049900068EC70E080E090E00E94B0151092E205B3
:1049A0009091E00591509093E0058091EB05815046
:1049B00087FD8FE28093EB05903318F08FE28093B0
:1049C000E0058091E00590E0880F991F8B5F9C4F78
:1049D000FC012591349140913201509133014217ED
:1049E000530749F0FC012591349130933301209312
:1049F00032010E9479098091190181110AC0E09168
:104A0000EB050E2E000CFF0BEB59FC4FE491E093ED
:104A1000E00580912F01813009F0A2C082E090E092
:104A200090933101809330016091E9057091EA051E
:104A300080E090E00E94C3312DEC3CEC4CE45FE35D
:104A40000E9456320E948D3120911B0130E02617C2
:104A5000370714F460931B012091EF05211144C026
:104A60002091F005211114C03091E50520911B0122
:104A7000231770F481E08093EF050E94EA1560939C
:104A8000F1057093F2058093F3059093F4052CC023
:104A90001092F0053091EB0520910301230F209334
:104AA000EB0520332CF060931B011092EB0507C03F
:104AB00027FF09C060931B018FE28093EB051092E2
:104AC000EA051092E90580911B01853008F485E024
:104AD00080931B01E091EB050E2E000CFF0BEB59B0
:104AE000FC4FE491E093E0050E945F09182F80934A
:104AF000E20582E00E940415892B49F084E00E94BF
:104B00000415892B21F08FEF810F823038F582E078
:104B10000E940415892B21F0113011F00C940A2FFA
:104B200081E08093030169E170E080E090E00E9401
:104B3000B0151092E20568EC70E080E090E00E9411
:104B4000B01581E08093F0051092EF051092F10509
:104B50001092F2051092F3051092F4050E94790963
:104B6000C090F105D090F205E090F305F090F405C7
:104B70000E94EA159701860108571C4E2F4F3F4FA0
:104B8000061717072807390760F4C114D104E10498
:104B9000F104D9F08091E505833310F00C940D2FCA
:104BA00005C0C114D104E104F10479F00E94EA15B2
:104BB000F0E7CF0EF7E1DF1EE11CF11CC616D706A9
:104BC000E806F90610F40C940D2F1091E005809181
:104BD000DE05811709F406C42090EF0530901B0113
:104BE000E12FF0E0EE0FFF1FEB5FFC4F85909490FC
:104BF0005090E5054090EB0520912F01298380918D
:104C00006107481609F4A3C0841510F483E001C0BD
:104C10008FEF8093000181E090E090937307809381
:104C20007207109275071092740784E290E09093D7
:104C30006F0780936E078CE090E0909371078093EC
:104C40007007183218F087E692E016C0103218F09C
:104C50008DE592E011C0183118F083E592E00CC0A8
:104C6000103118F089E492E007C0183018F08FE393
:104C700092E002C085E392E00E94860F0E94E51850
:104C8000177084E0A82EB12CC12CD12C812F90E07C
:104C90009B838A83EE24E394F12CEA81FB81CE1678
:104CA000DF0611F0E12CF12C0BE010E02EE030E0FB
:104CB00045E150E0B50182E697E00E94331481E0BF
:104CC00090E02A813B81C216D30611F480E090E087
:104CD000909375078093740790937307809372077E
:104CE000C501049690936F0780936E0787E190E06B
:104CF000909371078093700781E38C0D0E94A8192F
:104D00009FEFC91AD90AEFE0AE0EB11CF8E0CF163A
:104D1000D10409F0BFCF85E690E090936F078093B0
:104D20006E078CE090E0909371078093700781E0AC
:104D300090E090937307809372071092750710921A
:104D40007407B40180E090E04AE00E943F190091AE
:104D50006A0710916B0703501109852C912CA12C27
:104D6000B12C21E0821A9108A108B108C801012ED6
:104D7000000CAA0BBB0BBC01CD016150710981096C
:104D80009109A50194010E94703023E630E040E0D3
:104D900050E00E944933DA01C9010196A11DB11DFD
:104DA000C82ED12C98012C193D09B6016F5F7F4F99
:104DB000E12CF12C03E010E041E250E082E697E0C4
:104DC0000E943314EE24E394F12C960141E250E06A
:104DD00061E070E082E697E00E943314ADE0B0E05D
:104DE000A50194010E94683323E630E040E050E0E2
:104DF0000E94493349015A018FEF881A980AA80A7C
:104E0000B80A93E0499E60011124E4E0CE0ED11C63
:104E10000EE010E00819190940916C0750916D07D8
:104E20004A515109E12CF12C22E030E0B60182E632
:104E300097E00E94331440916C0750916D074C50DD
:104E4000510948195909EE24E394F12C840122E018
:104E500030E0B60182E697E00E943314F981F13028
:104E600009F0BFC040916C0750916D074A5151093C
:104E700025E0429EB0011124759567956C5F7F4FC8
:104E800080910001680F711D87FD7A95E12CF12C4E
:104E90000EE010E021E030E082E697E00E9433145B
:104EA00040916C0750916D074A51510922E030E062
:104EB00061E070E082E697E00E943314832D90E079
:104EC000A0E0B0E09C01AD01215031094109510938
:104ED000ADE0B0E00E94683323E630E040E050E00F
:104EE0000E94493349015A018FEF881A980AA80A8B
:104EF000B80A40916C0750916D074C505109481900
:104F00005909EE24E394F12C8A0122E030E061E0BB
:104F100070E082E697E00E94510540916C07509145
:104F20006D074A51510960916A0770916B07635090
:104F30007109E12CF12C0EE010E022E030E082E675
:104F400097E00E94331440916C0750916D074C50CC
:104F500051094819590920916A0730916B07B90125
:104F600063507109EE24E394F12C8A0182E697E004
:104F70000E94510580916A0790916B071092730708
:104F80001092720721E030E0309375072093740788
:104F900084559109222089F097FD01969595879572
:104FA00090936F0780936E0782E090E09093710773
:104FB0008093700786E292E010C097FD0196959568
:104FC000879590936F0780936E0782E090E09093AF
:104FD00071078093700787E192E00E94860F0E941C
:104FE000E518409261070E946318E091E005F0E047
:104FF000EE0FFF1FEB5FFC4F85919491909333016F
:10500000809332010E947909EDC1823019F0873016
:1050100009F0E8C18FEF9FEF909331018093300149
:105020000E9479098091EE05882349F01092EE05DF
:105030001091E005812F0E94510A1093DE050E9415
:10504000650C8FEF0E949B0A6C01482E8093E5054A
:1050500090912F019983923081F4E0E5EC1568F48A
:10506000C60199272091E9053091EA0528173907EB
:1050700020F49093EA058093E9058091E00590E0A3
:10508000FC01EB52FD4F24912C83FC01EE0FFF1F1E
:10509000EB5FFC4F859194919A878987E091240179
:1050A000F0912501FE83ED832091260130912701A7
:1050B00038872F835090EB0520906C0730906D0758
:1050C00080916107581609F45CC0842D90E0A0E03F
:1050D000B0E09C01AD012150310941095109ADE118
:1050E000B0E00E94683323E630E040E050E00E94E8
:1050F000493349015A018FEF881A980AA80AB80A59
:1051000095E0599E90011124F901F595E795FD87E9
:10511000EC873496FB83EA830EE110E00819190945
:10512000A1014A525109E12CF12C22E030E0BF01EB
:1051300082E697E00E943314A1014C5051094819AE
:105140005909EE24E394F12C840122E030E06A81D5
:105150007B8182E697E00E94331440916C07509166
:105160006D074A5251096C857D85695F7F4FE12C3F
:10517000F12C0EE110E021E030E082E697E00E94A1
:105180003314F981F73009F447C020E5241508F0FD
:1051900091C080916007841568F5C092600781E036
:1051A00090E09093730780937207109275071092A6
:1051B000740784E290E090936F0780936E070CE091
:1051C00010E010937107009370073C81632F70E02B
:1051D00080E090E040E10E943F1984E390E09093EA
:1051E0006F0780936E071093710700937007E9852E
:1051F000FA855AC08091010190E0099620916A07D2
:1052000030916B072C503109821793070CF452C070
:105210008CE3809301014EC0BEE1CB2ED12CD09205
:105220006F07C0926E071CE0E12EF12CF09271071F
:10523000E092700701E010E010937307009372078B
:10524000109275071092740785E792E00E94860F0E
:105250000E94E518D0926F07C0926E07F092710716
:10526000E09270072F813885B90180E090E04AE034
:105270000E943F1985E590E090936F0780936E0739
:10528000F0927107E0927007109373070093720712
:10529000109275071092740781E792E00E94860FC2
:1052A0000E94E518ED81FE81BF0180E090E04AE0B8
:1052B0000E943F190E946318509261078091EB058C
:1052C0008F3224F48F5F8093EB0574C01092EB054E
:1052D00080912F01873009F06DC08091EC059FEF20
:1052E000980F9093EC05811165C060912601809123
:1052F000270160932A0180932B01809124019091D2
:1053000025018D37910510F48CED90E090932901E3
:105310008093280182E090E00E945B0960912B015C
:1053200083E090E00E945B096091280184E090E0B6
:105330000E945B096091290185E090E00E945B0971
:1053400085E10E94991505977CF160911E0180917D
:105350001F01609322018093230180911C01909191
:105360001D0190932101809320018D37910530F428
:105370008CED90E0909321018093200187E090E0F4
:105380000E945B096091230188E090E00E945B0924
:105390006091200189E090E00E945B096091210109
:1053A0008AE090E00E945B0980E090E00E945D0945
:1053B00080932F010E945F09182F8093E20582E0FD
:1053C0000E940415892B09F435C5113009F432C542
:1053D000E091EB050E2E000CFF0BEB59FC4FE49116
:1053E000E093E00580912F01853009F092C181E0C2
:1053F00090E090933101809330019093330180933A
:1054000032010E947909CC24CA94DC2C1A82E7E18B
:105410008E2E912C22242394312CABE24A2E512C37
:10542000C982A0901901B0901A010E9401188AEC5B
:1054300092E00E94860F0E94EA1820916A0730913C
:105440006B07FA818AE0F802A0011124445F5F4FE4
:10545000EE24E394F12C0AE010E060E070E082E6D4
:1054600097E00E94331481E090E0EA81E11102C0EC
:1054700080E090E090937507809374079093730792
:105480008093720770926F0760926E072DE030E094
:10549000309371072093700782EC92E00E94860F90
:1054A0000E94E518AA2019F088EB92E002C08EEA6B
:1054B00092E00E94860F0E94E51881E090E03A8118
:1054C000313011F480E090E0909375078093740779
:1054D000909373078093720770926F0760926E07C4
:1054E00090927107809270078CE992E00E94860F7B
:1054F0000E94E5186B2D70E080E090E04AE00E9489
:105500003F1981E090E0EA81E23011F480E090E020
:105510009093750780937407909373078093720735
:1055200070926F0760926E0721E230E0309371074E
:105530002093700784E992E00E94860F0E94E5188C
:10554000398137FD48C020916A0730916B072A5294
:105550003109E12CF12C08E010E041E250E069E271
:1055600070E082E697E00E9433148981A82E082E0D
:10557000000CBB0896E08902B0011124625D7F4FE8
:10558000EE24E394F12C27E030E041E250E082E6A3
:1055900097E00E94331401E917E0E12CF12C81E03F
:1055A00090E0EA14FB0411F480E090E0909375071A
:1055B000809374079093730780937207F801819129
:1055C0008F010E94A819FFEFEF1AFF0A2AE0E216E6
:1055D000F10429F704C081E997E00E94E51881E011
:1055E00090E03A81333011F480E090E090937507B9
:1055F00080937407909373078093720770926F077C
:1056000060926E07509271074092700785E892E0B1
:105610000E94860F0E94E51881E090E0EA81E43064
:1056200011F480E090E09093750780937407909355
:1056300073078093720770926F0760926E0725E37D
:1056400030E0309371072093700789E792E00E9461
:10565000860F0E94E5180E94631812E3115009F4A6
:10566000D1C483E00E9404150197A9F482E00E944E
:105670000415019781F484E00E940415019759F400
:105680000E945F09811107C064E670E080E090E04D
:105690000E94B015E3CF83E00E940415892B09F026
:1056A00052C43A81323009F442C40CF423C48A81D2
:1056B000833009F024C41AE069E170E080E090E0F2
:1056C0000E94B0151150C1F787E080932F013092EE
:1056D000310120923001FA818F2FFF0F990B019633
:1056E00090933301809332010E94790969E170E05F
:1056F00080E090E00E94B01566E970E080E090E004
:105700000E94B0152FEFC216D20609F437C411114A
:1057100087CE1091E0058091DE05811799F1812FE8
:105720000E94510A1093DE050E94EA156093DA0583
:105730007093DB058093DC059093DD058091020179
:10574000882301F11092020162E370E080E090E0B2
:105750000E94B01564E670E080E090E00E94B01511
:1057600062E370E080E090E00E94B01564E670E0D3
:1057700080E090E00E94B01562E370E080E090E08D
:105780000E94B0150E9488100C94C11AEA818E2FD5
:10579000EE0F990BAA0BBB0B8830910588F5FC0125
:1057A000EC5CFF4F0C94943081E080932F01809348
:1057B000F0051092EF05D0C082E080932F0181E0C8
:1057C0008093EE05C9C0F3E0F0932F01C5C085E1D9
:1057D0000E949915059724F024E020932F01BCC066
:1057E000A0922F0134E03A83B7C089E080932F0163
:1057F000B3C0A0922F0108C09AE090932F0104C07B
:10580000EA81E5300CF4A8C0B0902E011BEFC12E48
:10581000FA81CF0E0E94011888EA90E00E94860F5C
:105820000E94EA1820916A0730916B078AE0C89EAF
:10583000A0011124445F5F4FEE24E394F12C0AE0B1
:1058400010E060E070E082E697E00E94331401E02F
:1058500010E0C11002C000E010E010937507009343
:105860007407109373070093720770926F0760922A
:105870006E07EDE0F0E0F0937107E09370078DE9BB
:1058800090E00E94860F0E94E51883E990E00E9454
:10589000860F0E94E51868E182E697E00E943E13B9
:1058A00010937507009374071093730700937207A2
:1058B00070926F0760926E079092710780927007E6
:1058C00081E990E00E94860F0E94E51881E090E057
:1058D000F1E0CF1202C080E090E0909375078093D2
:1058E0007407909373078093720770926F076092AA
:1058F0006E0790927107809270078BE890E00E948B
:10590000860F0E94E518BB2019F087E890E002C0DE
:1059100083E890E00E94860F0E94E51881E090E005
:1059200022E0C21202C080E090E09093750780935D
:105930007407909373078093720770926F07609259
:105940006E07309271072092700788E790E00E94FE
:10595000860F0E94E518C3C00E94011883EF90E0F3
:105960000E94860F0E94EA1820916A0730916B0707
:105970009A818AE0989FA0011124445F5F4FEE2432
:10598000E394F12C0AE010E060E070E082E697E03A
:105990000E94331481E090E0EA81E11102C080E0CE
:1059A00090E09093750780937407909373078093AA
:1059B000720770926F0760926E072DE030E03093AF
:1059C00071072093700789EE90E00E94860F0E9475
:1059D000E51881E090E03A81313011F480E090E008
:1059E0009093750780937407909373078093720761
:1059F00070926F0760926E079092710780927007A5
:105A00008CED90E00E94860F0E94E51881E090E006
:105A1000EA81E23011F480E090E090937507809382
:105A20007407909373078093720770926F07609268
:105A30006E07309271072092700780ED90E00E940F
:105A4000860F0E94E51885E10E9499150597FCF0E4
:105A500081E090E0FA81F33011F480E090E09093DF
:105A60007507809374079093730780937207709201
:105A70006F0760926E072BE230E03093710720933E
:105A8000700786EC90E00E94860F0E94E51881E086
:105A900090E03A81343011F480E090E09093750703
:105AA00080937407909373078093720770926F07C7
:105AB00060926E0750927107409270078CEB90E0F5
:105AC0000E94860F0E94E51882EB90E00E94860FEC
:105AD0000E94E51869E182E697E00E943E130E9469
