:100000000C9419050C9441050C9441050C94410580
:100010000C9441050C9441050C9441050C94410548
:100020000C9441050C9441050C9441050C94410538
:100030000C9441050C9441050C9441050C94410528
:100040000C946C2E0C9441050C9426310C94583170
:100050000C9441050C9441050C9441050C94410508
:100060000C943F2D0C9441052D2D205341564544B1
:10007000202D2D005349474E3A00465245513A2013
:100080002020202047487A0020204641562043481F
:10009000414E3A004348414E3A004100420045007B
:1000A000462F4169727761766500432F526163651F
:1000B00000442F352E33202020200042414E443A68
:1000C000004155544F205345454B004641564F5231
:1000D000495445004D414E55414C0042414E44204B
:1000E0005343414E4E4552004D4F44453A00534113
:1000F00056452053455454494E47530053415645A5
:10010000202620455849540043414C49425241540D
:10011000452052535349005349474E203A20004F3F
:100120004646004F4E200042454550533A20004677
:1001300052455155454E4359004348414E4E454C5A
:100140002020004F524445523A2000534554555008
:10015000204D454E55005245434549564552204293
:100160000052454345495645522041004155544FA0
:1001700000444956455253495459004C4F57205357
:1001800049474E414C0052535349004200410041FF
:100190004E54204200414E542041004155544F00DE
:1001A000202020002020200035393435003538301B
:1001B000300035333632004D696E3A202020202041
:1001C0004D61783A005253534920534554555000DD
:1001D000424553543A0042414E44205343414E4E0F
:1001E0004552004155544F205345454B204D4F44F7
:1001F00045004155544F204D4F4445204C4F434BF3
:1002000000412020202020202020004220202020EB
:1002100020202020004520202020202020200046D3
:100220002F4169727761766500432F5261636520C3
:10023000202000442F352E33202020200046415618
:100240004F524954455300544F54414C2046415657
:100250002F45533D0052454F5247414E495A494E52
:1002600047204641562F4553200052454F524741A3
:100270004E495A494E470053454C45435445442046
:100280004641564F52495445204348002D2D2044A5
:10029000454C45544544202D2D00464156204348A9
:1002A000414E4E454C3A004348414E4E454C204647
:1002B0005245513A0044454C455445204641564F1D
:1002C00052495445204348414E00353934350035B4
:1002D00038303000353336320042414E443A004126
:1002E00055544F205345454B204D4F4445004D41FB
:1002F0004E55414C204D4F4445004641564F5249C2
:100300005445204D4F44450020202020202020200F
:1003100020004641564F52495445530044495645E2
:100320005253495459004D414E55414C204D4F4474
:10033000450042414E44205343414E4E45520041F8
:1003400055544F204D4F4445004D4F444520534593
:100350004C454354494F4E002000202020202020AF
:10036000202020005345545550204D454E55004DFA
:100370004F44452053454C454354494F4E00444952
:100380005341424C45440020454E41424C454400B7
:100390004469766572736974793A004F4B00506F07
:1003A0007765723A00426F6F7420436865636B0033
:1003B00028292A2B2C2D2E2F131220112110072231
:1003C000081806091905230A1A040B1B03240C1C20
:1003D000020D1D25010E1E000F1F261415271617CE
:1003E000A1A2A3A4A5A6A7A8B1B2B3B4B5B6B7B845
:1003F000E1E2E3E4E5E6E7E8F1F2F3F4F5F6F7F835
:10040000C1C2C3C4C5C6C7C8D1D2D3D4D5D6D7D824
:10041000E916D516C116AD169916851671165D1614
:10042000651678168B169E16B116C416D716EA16E0
:100430004916351621160D16FD16111725173917F1
:100440006C1680169416A816BC16D016E416F8166C
:100450001A163F1664168916AE16D316F8161D170F
:10046000F21417153C1561158615AB15D015F51549
:10047000052A9B29912987291D29132909299F28A4
:1004800003290C2916291F29892992299C29052A23
:1004900095288B28812817280F2A192A832A8D2A24
:1004A000062910291A2984298E299829022A0C2A1A
:1004B0001D288F2802291429872999290C2A1E2AE8
:1004C00009261C268E2601271327862798270B2806
:1004D00000000000003E5B4F5B3E3E6B4F6B3E1CDE
:1004E0003E7C3E1C183C7E3C181C577D571C1C5EF5
:1004F0007F5E1C00183C1800FFE7C3E7FF001824CC
:100500001800FFE7DBE7FF30483A060E2629792975
:1005100026407F050507407F05253F5A3CE73C5AAA
:100520007F3E1C1C08081C1C3E7F14227F22145F87
:100530005F005F5F06097F017F006689956A6060E2
:1005400060606094A2FFA29408047E040810207EDC
:10055000201008082A1C08081C2A08081E10101061
:10056000100C1E0C1E0C30383E3830060E3E0E06A7
:10057000000000000000005F0000000700070014FA
:100580007F147F14242A7F2A1223130864623649B9
:100590005620500008070300001C224100004122A1
:1005A0001C002A1C7F1C2A08083E080800807030A6
:1005B0000008080808080000606000201008040215
:1005C0003E5149453E00427F40007249494946211B
:1005D00041494D331814127F1027454545393C4A8F
:1005E00049493141211109073649494936464949A6
:1005F000291E0000140000004034000000081422EE
:10060000411414141414004122140802015909065B
:100610003E415D594E7C1211127C7F494949363E5C
:10062000414141227F4141413E7F494949417F0942
:100630000909013E414151737F0808087F00417F4D
:1006400041002040413F017F081422417F4040404B
:10065000407F021C027F7F0408107F3E4141413EE3
:100660007F090909063E4151215E7F091929462665
:100670004949493203017F01033F4040403F1F2069
:1006800040201F3F4038403F631408146303047840
:1006900004036159494D43007F4141410204081060
:1006A00020004141417F040201020440404040409B
:1006B000000307080020545478407F284444383809
:1006C00044444428384444287F385454541800087B
:1006D0007E090218A4A49C787F0804047800447D55
:1006E00040002040403D007F1028440000417F40F2
:1006F000007C047804787C08040478384444443846
:10070000FC1824241818242418FC7C080404084825
:100710005454542404043F44243C4040207C1C2076
:1007200040201C3C4030403C44281028444C9090D1
:10073000907C4464544C440008364100000077002B
:1007400000004136080002010204023C2623263C38
:100750001EA1A161123A4040207A385454555921C3
:1007600055557941225454784221555478402054AB
:100770005579400C1E5272123955555559395454F9
:10078000545939555454580000457C410002457D68
:10079000420001457C407D1211127DF0282528F091
:1007A0007C545545002054547C547C0A097F4932BE
:1007B000494949323A4444443A324A4848303A4135
:1007C00041217A3A42402078009DA0A07D3D4242DE
:1007D000423D3D4040403D3C24FF2424487E494367
:1007E000662B2FFC2F2BFF0929F620C0887E0903DA
:1007F00020545479410000447D413048484A323801
:100800004040227A007A0A0A727D0D19317D26292C
:10081000292F28262929292630484D402038080824
:10082000080808080808382F10C8ACBA2F10283458
:10083000FA00007B000008142A142222142A14084B
:100840005500550055AA55AA55AAFF55FF55FF005A
:100850000000FF00101010FF00141414FF0010100F
:10086000FF00FF1010F010F0141414FC001414F723
:1008700000FF0000FF00FF1414F404FC1414171010
:100880001F10101F101F1414141F00101010F00060
:100890000000001F101010101F10101010F010009A
:1008A0000000FF101010101010101010FF100000AA
:1008B00000FF140000FF00FF00001F10170000FCE5
:1008C00004F414141710171414F404F40000FF00B7
:1008D000F714141414141414F700F7141414171440
:1008E00010101F101F141414F4141010F010F00046
:1008F000001F101F0000001F14000000FC14000067
:10090000F010F01010FF10FF141414FF141010104A
:100910001F00000000F010FFFFFFFFFFF0F0F0F0FD
:10092000F0FFFFFF0000000000FFFF0F0F0F0F0F91
:100930003844443844FC4A4A4A347E0202060602DD
:100940007E027E0263554941633844443C04407E44
:10095000201E2006027E020299A5E7A5991C2A49BD
:100960002A1C4C7201724C304A4D4D303048784848
:1009700030BC625A463D3E494949007E0101017E34
:100980002A2A2A2A2A44445F444440514A44404087
:10099000444A51400000FF0103E080FF00000808C6
:1009A0006B6B083612362436060F090F0600001846
:1009B000180000001010003040FF0101001F01016D
:1009C0001E00191D1712003C3C3C3C0000000000BA
:1009D00000000008000201000003040700000000FE
:1009E00000000000010204081020408001020408F9
:1009F0001020010204081020040404040404040468
:100A000002020202020203030303030300000000C8
:100A100023002600290000000000250028002B00EC
:100A200000000000240027002A007F16401A9D2C99
:100A3000883111241FBECFEFD8E0DEBFCDBF15E057
:100A4000A0E0B1E0E6EFFBE602C005900D92AE3B00
:100A5000B107D9F727E0AEEBB5E001C01D92AB3985
:100A6000B207E1F71AE0C2E3DAE004C02297FE0120
:100A70000E94C435CA32D107C9F70E9417330C94BB
:100A8000F9350C940000AAEEB5E020E0FC013491A9
:100A9000332331F02E3121F03D9301962F5FF6CFB5
:100AA000E22FF0E0E651FA4F30838AEE95E00895A8
:100AB0002FEFFC012283108208958EEB95E00E94B7
:100AC000892640E050E060E070E08EEB95E00E9407
:100AD000B72B61E08EEB95E00E94BD2B61E070E0EA
:100AE0008EEB95E00C94C32BCF92DF92EF92FF92A6
:100AF0000F931F93CF93DF936C01EB0121E04CE345
:100B000062E08EEB95E00E9404278EEB95E00E9458
:100B10001E2860ED77E080E090E00E94E52EC6019F
:100B20000E945D05E091BE05F091BF05C684D784A3
:100B30008EEB95E00E94D22BEE24E394F12C0BE097
:100B400010E09C0140E050E060E070E08EEB95E04A
:100B5000F601099560E070E08EEB95E00E94C32BF2
:100B60008EEB95E00E94D22BBC016C53710977FF8C
:100B700002C06F5F7F4F7595679542E050E08EEB46
:100B800095E00E94B72B85EA93E00E944305BC01E3
:100B90008EEB95E00E94093261E070E08EEB95E00B
:100BA0000E94C32B4CE050E060E070E08EEB95E0DB
:100BB0000E94B72B8EE993E00E944305BC018EEBA7
:100BC00095E00E9409328EEB95E00E94D22BBC0189
:100BD0006C5071094CE050E08EEB95E00E94B72B11
:100BE0008BE993E00E944305BC018EEB95E00E94E7
:100BF000093244E150E060E070E08EEB95E00E9445
:100C0000B72B8EEB95E00E941E2880E993E00E94AE
:100C10004305BC018EEB95E00E9409328EEB95E016
:100C20000E941E286AEF70E080E090E00E94E52EAE
:100C30008EEB95E00E94D22BBC016053710944E118
:100C400050E08EEB95E00E94B72B85E10E94652F66
:100C500005971CF087E893E002C08EE793E00E94BE
:100C60004305BC018EEB95E00E9409328EEB95E0C6
:100C70000E94D22BFE0101900020E9F73197EC1B76
:100C8000FD0B4CE04E9F90014F9F300D1124BC0195
:100C9000621B730B7695679544E250E08EEB95E00E
:100CA0000E94B72B62E08EEB95E00E94BD2BBE0147
:100CB0008EEB95E00E9409328EEB95E00E941E2893
:100CC00062EE74E080E090E00E94E52E80E0DF912B
:100CD000CF911F910F91FF90EF90DF90CF900895EB
:100CE000CF92DF92EF92FF920F931F93CF93DF93F8
:100CF000EB01E091BE05F091BF05C484D5848EEB75
:100D000095E00E94D62B8C018EEB95E00E94D22BB1
:100D1000EE24E394F12C9C0140E050E060E070E0B0
:100D20008EEB95E0F6010995E091BE05F091BF05C7
:100D3000C684D7848EEB95E00E94D22B0BE010E0A6
:100D40009C0140E050E060E070E08EEB95E0F60141
:100D5000099561E08EEB95E00E94BD2B60E070E0AC
:100D60008EEB95E00E94C32B8EEB95E00E94D22B78
:100D7000FE0101900020E9F73197EC1BFD0B46E0E6
:100D80004E9F90014F9F300D1124BC01621B730BCD
:100D90007695679542E050E08EEB95E00E94B72B88
:100DA000BE018EEB95E00E94093261E070E08EEBAF
:100DB00095E0DF91CF911F910F91FF90EF90DF9021
:100DC000CF900C94C32BDF92EF92FF920F931F935F
:100DD000CF93DF93EC01D62E0E945D058FE693E062
:100DE0000E944305BC01CE010E947006E091BE0541
:100DF000F091BF05C685D7858EEB95E00E94D22B7A
:100E00002AE0D29EA0011124445F5F4FEE24E394B8
:100E1000F12C0AE010E09C0160E070E08EEB95E0C0
:100E2000FE010995C1E0D0E0D11002C0C0E0D0E0E1
:100E3000BE018EEB95E00E94C32B4DE050E065E0D3
:100E400070E08EEB95E00E94B72B84E693E00E9461
:100E50004305BC018EEB95E00E9409328AE593E0E0
:100E60000E944305BC018EEB95E00E940932E0919F
:100E7000BE05F091BF050190F081E02D68E18EEB99
:100E800095E00995BE018EEB95E00E94C32B47E1EA
:100E900050E065E070E08EEB95E00E94B72B88E5AE
:100EA00093E00E944305BC018EEB95E00E9409325D
:100EB0008EEB95E0DF91CF911F910F91FF90EF9016
:100EC000DF900C941E28DF92EF92FF920F931F93F6
:100ED000CF93DF93EC01D62E0E945D0589E493E069
:100EE0000E944305BC01CE010E947006E091BE0540
:100EF000F091BF05C685D7858EEB95E00E94D22B79
:100F00002AE0D29EA0011124445F5F4FEE24E394B7
:100F1000F12C0AE010E09C0160E070E08EEB95E0BF
:100F2000FE01099561E070E0D11002C060E070E060
:100F30008EEB95E00E94C32B4DE050E065E070E041
:100F40008EEB95E00E94B72B8FE393E00E94430560
:100F5000BC018EEB95E00E94093261E070E0F1E0A7
:100F6000DF1202C060E070E08EEB95E00E94C32BC0
:100F700047E150E065E070E08EEB95E00E94B72B12
:100F800082E393E00E944305BC018EEB95E00E9452
:100F9000093261E070E022E0D21202C060E070E04D
:100FA0008EEB95E00E94C32B41E250E065E070E0DB
:100FB0008EEB95E00E94B72B86E293E00E944305FA
:100FC000BC018EEB95E00E94093285E10E94652FFD
:100FD0000597E4F061E070E083E0D81202C060E0C1
:100FE00070E08EEB95E00E94C32B4BE250E065E091
:100FF00070E08EEB95E00E94B72B8CE193E00E94AD
:101000004305BC018EEB95E00E94093261E070E07F
:10101000E4E0DE1202C060E070E08EEB95E00E943A
:10102000C32B45E350E065E070E08EEB95E00E9455
:10103000B72B82E193E00E944305BC018EEB95E063
:101040000E94093288E093E00E944305BC018EEBC8
:1010500095E00E940932E091BE05F091BF05019034
:10106000F081E02D69E18EEB95E009958EEB95E03E
:10107000DF91CF911F910F91FF90EF90DF900C9433
:101080001E28AF92BF92CF92DF92EF92FF920F9302
:101090001F93CF93DF931F92CDB7DEB78C018FEFF5
:1010A000F8018283C80169830E945D056981693006
:1010B00019F48AEF92E009C0633019F48EEE92E0E1
:1010C00004C0613041F48FED92E00E944305BC0101
:1010D000C8010E94700661E070E08EEB95E00E940E
:1010E000C32BE091BE05F091BF05C680D7808EEB83
:1010F00095E00E94D22BEE24E394F12C04E110E061
:101100009C0144E150E060E070E08EEB95E0F60178
:101110000995E091BE05F091BF05C680D7808EEBA2
:1011200095E00E94D22B00E210E09C0140E250E0EA
:1011300060E070E08EEB95E0F60109954CE050E040
:1011400065E070E08EEB95E00E94B72BE091BE0564
:10115000F091BF050680F781E02D04E110E021E663
:1011600030E04BE050E061E670E08EEB95E00995F1
:1011700089ED92E00E944305BC018EEB95E00E9450
:10118000093211E3A8E0CA2ED12C47E150E0B601A4
:101190008EEB95E00E94B72B612F8EEB95E00E94BD
:1011A0000B32FFE0CF0ED11C1F5F193371F7E091B6
:1011B000BE05F091BF05C680D7808EEB95E00E94FA
:1011C000D22BEE24E394F12C04E210E09C0144E2E3
:1011D00050E060E070E08EEB95E0F6010995E0915B
:1011E000BE05F091BF05A680B7808EEB95E00E940A
:1011F000D62B8C018EEB95E00E94D22B6C018EEBEE
:1012000095E00E94D62B0B501109AC014B505109AF
:10121000960160E070E08EEB95E0F50109958EEBAC
:1012200095E00E94D62BAC014950510962E070E074
:101230008EEB95E00E94B72B84ED92E00E9443056F
:10124000BC018EEB95E00E9409328EEB95E00E9486
:10125000D62BAC014950510967E370E08EEB95E065
:101260000E94B72B8FEC92E00E944305BC018EEBED
:1012700095E00E9409328EEB95E00E94D62B8C01FE
:101280008EEB95E00E94D22BA80149505109BC0178
:10129000695171098EEB95E00E94B72B8AEC92E0C0
:1012A0000E944305BC018EEB95E00E9409328EEB53
:1012B00095E00F90DF91CF911F910F91FF90EF90EC
:1012C000DF90CF90BF90AF900C941E28FF920F93A9
:1012D0001F93CF93DF93EC018B01F42E0E945D05E9
:1012E00085EB92E00E944305BC01CE010E9470068E
:1012F00061E070E08EEB95E00E94C32B4CE050E083
:1013000065E070E08EEB95E00E94B72B87EA92E0F3
:101310000E944305BC018EEB95E00E9409324CE02F
:1013200050E065E570E08EEB95E00E94B72B4AE057
:1013300050E0B8018EEB95E00E94C73244E150E0E6
:1013400065E070E08EEB95E00E94B72B8AE992E0B1
:101350000E944305BC018EEB95E00E94093244E1F6
:1013600050E065E570E08EEB95E00E94B72B4AE017
:1013700050E06F2D8EEB95E00E94C0328EEB95E031
:101380000E94D22B8254910997FD0196BC0175955C
:10139000679544E350E08EEB95E00E94B72B8CE814
:1013A00092E00E944305BC018EEB95E00E94093259
:1013B0008EEB95E0DF91CF911F910F91FF900C94F0
:1013C0001E281F93CF93DF93EC01162F0E945D051B
:1013D00087E792E00E944305BC01CE010E9470069F
:1013E00065E08EEB95E00E94BD2B61E070E08EEB36
:1013F00095E00E94C32B44E150E064E170E08EEB85
:1014000095E00E94B72B4AE050E0612F8EEB95E00B
:101410000E94C0328EEB95E00E941E28CE010E94F1
:101420005D05CE01DF91CF911F910C945D051F9357
:10143000CF93DF93EC01162F0E945D058AE692E0C0
:101440000E944305BC01CE010E94700661E08EEB54
:1014500095E00E94BD2B61E070E08EEB95E00E946C
:10146000C32B44E150E065E070E08EEB95E00E9414
:10147000B72B85E592E00E944305BC018EEB95E019
:101480000E9409328EEB95E00E94D22B8254910982
:1014900097FD0196BC017595679544E250E08EEB8F
:1014A00095E00E94B72B87E492E00E944305BC01BF
:1014B0008EEB95E00E9409324AE050E0612F8EEBFE
:1014C00095E00E94C0328EEB95E00E941E28CE016E
:1014D0000E945D05CE010E945D056CED75E080E027
:1014E00090E0DF91CF911F910C94E52ECF93DF9385
:1014F000EC010E945D058DE392E00E944305BC0172
:10150000CE010E94700663E08EEB95E00E94BD2B39
:1015100061E070E08EEB95E00E94C32B44E150E067
:1015200064E170E08EEB95E00E94B72B68E575E012
:101530008EEB95E00E9409328EEB95E0DF91CF9122
:101540000C941E282F923F924F925F926F927F923F
:101550008F929F92AF92BF92CF92DF92EF92FF92C3
:101560000F931F93CF93DF9300D000D0CDB7DEB79A
:101570001C016983142F922EB02E2701CA828A2C57
:10158000FC018281281709F49DC0821710F483E0C2
:1015900001C08FEF8093050140E050E061E070E012
:1015A0008EEB95E00E94C92B4CE050E064E270E0C5
:1015B0008EEB95E00E94B72B183218F083E392E08F
:1015C00016C0103218F089E292E011C0183118F0FC
:1015D0008FE192E00CC0103118F085E192E007C075
:1015E000183018F08BE092E002C081E092E00E9497
:1015F0004305BC018EEB95E00E940932812F877074
:1016000034E0632E712C1C821B82C82ED12CE091F9
:10161000BE05F091BF05EE24E394F12C8B819C81F3
:101620008C159D0511F0E12CF12C0684F785E02D39
:101630000BE010E02EE030E045E150E0B3018EEB2E
:1016400095E0099561E070E0EB81FC81EC15FD050A
:1016500011F460E070E08EEB95E00E94C32BB301C3
:101660006C5F7F4F47E150E08EEB95E00E94B72B17
:101670006B816F5C8EEB95E00E940B328B819C81BD
:1016800001969C838B839FE0690E711CEB81FC812A
:10169000389709F0BCCF4CE050E065E670E08EEB87
:1016A00095E00E94B72B40E050E061E070E08EEBE7
:1016B00095E00E94C92B4AE050E0B2018EEB95E024
:1016C0000E94C7328EEB95E00E94D22B4B2C512CFE
:1016D000612C712C0397AA2797FDA095BA2FBF9371
:1016E000AF939F938F93A12CB12C6501A39414E623
:1016F000E12EF12C00E010E021E030E040E050E08D
:10170000C301B2010E94CD32A62EE091BE05F09138
:10171000BF05C684D7848EEB95E00E94D22BB12CF6
:101720009C01235031092A193B09B5016F5F7F4F96
:10173000E12CF12C03E010E041E250E08EEB95E06B
:10174000F6010995E091BE05F091BF050684F78585
:10175000E02DEE24E394F12C950141E250E061E0AC
:1017600070E08EEB95E009951F921F921F92FEE0AC
:10177000FF93A12CB12C6501A39414E6E12EF12C6A
:1017800000E010E021E030E040E050E0C301B201B1
:101790000E94CD32E091BE05F091BF05668477844A
:1017A000C62ED12C8EEB95E00E94D62B23E0929E84
:1017B00050011124E4E0AE0EB11C0EE010E00C1953
:1017C0001D09AC014A515109E12CF12C22E030E015
:1017D000B5018EEB95E0F3010995E091BE05F0911E
:1017E000BF05668477848EEB95E00E94D62BAC0112
:1017F0004C5051094C195D09EE24E394F12C8601FB
:1018000022E030E0B5018EEB95E0F30109950FB6CB
:10181000F894DEBF0FBECDBF9981913009F005C1AC
:10182000E091BE05F091BF05C684D7848EEB95E0AC
:101830000E94D62BAC014A515109E5E09E9EB001B1
:101840001124759567956C5F7F4F80910501680F36
:10185000711D87FD7A95E12CF12C0EE010E021E05E
:1018600030E08EEB95E0F6010995FA816F2F70E07C
:1018700080E090E01F921F921F922EE02F93A12CE8
:10188000B12C6501A39414E6E12EF12C00E010E0E8
:1018900021E030E040E050E00E94CD32A62EE09101
:1018A000BE05F091BF05C684D7848EEB95E00E94FB
:1018B000D62BAC014A515109E12CF12C0EE010E07D
:1018C00022E030E061E070E08EEB95E0F6010995F2
:1018D000E091BE05F091BF05C680D7808EEB95E004
:1018E0000E94D62BB12C8C010C5011090A191B092E
:1018F0008EEB95E00E94D62BAC014C5051094A1951
:101900005B09EE24E394F12C22E030E061E070E02A
:101910008EEB95E0F6010995E091BE05F091BF05CB
:10192000C684D7848EEB95E00E94D62B8C018EEB7B
:1019300095E00E94D22BA8014A515109BC01635085
:101940007109E12CF12C0EE010E022E030E08EEB8A
:1019500095E0F6010995E091BE05F091BF05C680BE
:10196000D7808EEB95E00E94D62B8C010C5011098C
:101970000A191B098EEB95E00E94D22B3C018EEBDD
:1019800095E00E94D62B0C972C014A185B088EEB31
:1019900095E00E94D22BBC0163507109EE24E394C0
:1019A000F12C9301A2018EEB95E0F60109950F90C1
:1019B0000F900F900F9041E050E060E070E08EEBF0
:1019C00095E08820B1F00E94C92B8EEB95E00E9433
:1019D000D22B8455910997FD0196BC0175956795A9
:1019E00042E050E08EEB95E00E94B72B82EF91E051
:1019F00015C00E94C92B8EEB95E00E94D22B845516
:101A0000910997FD0196BC017595679542E050E0FC
:101A10008EEB95E00E94B72B83EE91E00E94430588
:101A2000BC018EEB95E00E940932F10192828EEBAF
:101A300095E00F900F900F900F90DF91CF911F9135
:101A40000F91FF90EF90DF90CF90BF90AF909F905D
:101A50008F907F906F905F904F903F902F900C945D
:101A60001E28AF92BF92CF92DF92EF92FF920F9318
:101A70001F93CF93DF931F92CDB7DEB78C0169839D
:101A80000E945D05F80111826981623099F486ED4A
:101A900091E00E944305BC01C8010E9470064CE021
:101AA00050E065E070E08EEB95E00E94B72B80ED92
:101AB00091E012C085EC91E00E944305BC01C80191
:101AC0000E9470064CE050E065E070E08EEB95E01F
:101AD0000E94B72B87EB91E00E944305BC018EEB7F
:101AE00095E00E940932E091BE05F091BF05C680E5
:101AF000D7808EEB95E00E94D22BEE24E394F12C5C
:101B000004E110E09C0144E150E060E070E08EEB05
:101B100095E0F6010995E091BE05F091BF05A6801C
:101B2000B7808EEB95E00E94D62B8C018EEB95E072
:101B30000E94D22B6C018EEB95E00E94D62B0B50AD
:101B40001109AC014B505109960160E070E08EEB39
:101B500095E0F50109958EEB95E00E94D62BAC013E
:101B60004950510962E070E08EEB95E00E94B72B7E
:101B700082EB91E00E944305BC018EEB95E00E9450
:101B800009328EEB95E00E94D62BAC0149505109E9
:101B900067E370E08EEB95E00E94B72B8DEA91E051
:101BA0000E944305BC018EEB95E00E9409328EEB4A
:101BB00095E00E94D62B8C018EEB95E00E94D22BF3
:101BC000A80149505109BC01695171098EEB95E09A
:101BD0000E94B72B88EA91E00E944305BC018EEB7E
:101BE00095E00E9409328EEB95E00F90DF91CF9146
:101BF0001F910F91FF90EF90DF90CF90BF90AF902B
:101C00000C941E282F923F924F925F926F927F9278
:101C10008F929F92AF92BF92CF92DF92EF92FF92FC
:101C20000F931F93CF93DF93CDB7DEB72A970FB6ED
:101C3000F894DEBF0FBECDBF2C01662E842E922EEF
:101C4000702EFC82EB82DE82CD82B886AF82622F5C
:101C500070E080E090E01F921F921F922EE12F9380
:101C6000A12CB12C6501A39414E6E12EF12C00E027
:101C700010E021E030E040E050E00E94CD32C62E7E
:101C80008EEB95E00E94D62B5C010F900F900F9089
:101C90000F90D20112968C91881609F45BC0D12C5A
:101CA000E091BE05F091BF05268537853A832983EB
:101CB0008EEB95E00E94D62BE5E08E9ED00111249C
:101CC000B595A795BA87A9871D01F4E02F0E311CA1
:101CD0000EE110E00C191D09AC014A525109E12C2A
:101CE000F12C22E030E0B1018EEB95E0E981FA8140
:101CF0000995E091BE05F091BF05A5014C50510931
:101D00004C195D090684F785E02DEE24E394F12C4F
:101D1000860122E030E0B1018EEB95E00995E0917B
:101D2000BE05F091BF05C684D7848EEB95E00E9476
:101D3000D62BAC014A52510969857A85695F7F4F7C
:101D4000E12CF12C0EE110E021E030E08EEB95E08B
:101D5000F6010995611042C0F0E5F91508F090C050
:101D6000D20111968C911197891530F511969C929C
:101D700040E050E061E070E08EEB95E00E94C92BFE
:101D80004CE050E064E270E08EEB95E00E94B72BEF
:101D900040E150E0672D8EEB95E00E94C0324CE0B0
:101DA00050E064E370E08EEB95E00E94B72B4AE0D0
:101DB00050E06B817C8160C00091040110E0075FFE
:101DC0001F4F8EEB95E00E94D22B0C970817190736
:101DD0000CF456C08CE38093040152C04CE050E0F8
:101DE0006EE170E08EEB95E00E94B72B40E050E092
:101DF00061E070E08EEB95E00E94C92B84EA91E0EF
:101E00000E944305BC018EEB95E00E9409324CE034
:101E100050E06EE170E08EEB95E00E94B72B4AE057
:101E200050E06D817E818EEB95E00E94C7324CE0E0
:101E300050E065E570E08EEB95E00E94B72B40E046
:101E400050E061E070E08EEB95E00E94C92B4CE021
:101E500050E065E570E08EEB95E00E94B72B80EADC
:101E600091E00E944305BC018EEB95E00E9409328F
:101E70004AE050E06F8178858EEB95E00E94C73292
:101E80008EEB95E00E941E28F20182822A960FB600
:101E9000F894DEBF0FBECDBFDF91CF911F910F91A0
:101EA000FF90EF90DF90CF90BF90AF909F908F907A
:101EB0007F906F905F904F903F902F900895EF929A
:101EC000FF920F931F93CF93DF93F62EE42EE90139
:101ED0000E945D0566E08EEB95E00E94BD2B61E0FF
:101EE00070E08EEB95E00E94C32B40E050E060E094
:101EF00070E08EEB95E00E94B72B40E150E06E2D34
:101F00008EEB95E00E94C03261E08EEB95E00E947E
:101F1000BD2B40E050E066E470E08EEB95E00E945F
:101F2000B72BB8018EEB95E00E94093262E08EEB90
:101F300095E00E94BD2B4CE150E066E470E08EEB32
:101F400095E00E94B72B61E070E08EEB95E00E9477
:101F5000C32B4AE050E0BE018EEB95E00E94C732F1
:101F600061E08EEB95E00E94BD2B85E10E94652F1C
:101F700005970CF48AC042E150E066E470E08EEB15
:101F800095E00E94B72B81E0F81659F0F81630F072
:101F9000E2E0FE120FC08FE891E005C08BE991E00E
:101FA00002C085E991E00E944305BC018EEB95E0FB
:101FB0000E94093241E050E060E070E08EEB95E075
:101FC0000E94C92BE091BE05F091BF05C685D7855B
:101FD0008EEB95E00E94D62BAC0143515109EE24C3
:101FE000E394F12C09E010E027E030E060E070E0DD
:101FF0008EEB95E0FE0109958EEB95E00E94D62BC5
:10200000AC014251510961E070E08EEB95E00E9415
:10201000B72B8DE891E00E944305BC018EEB95E063
:102020000E94093241E050E060E070E08EEB95E004
:102030000E94C92BE091BE05F091BF05C685D785EA
:102040008EEB95E00E94D62BAC014950510927E058
:1020500030E060E070E08EEB95E0FE0109958EEBDC
:1020600095E00E94D62BAC014850510961E070E028
:102070008EEB95E00E94B72B8BE891E00E94430520
:10208000BC018EEB95E00E9409328EEB95E0DF916A
:10209000CF911F910F91FF90EF900C941E287F928B
:1020A0008F929F92AF92BF92CF92DF92EF92FF9268
:1020B0000F931F93CF93DF931F92CDB7DEB7762E8A
:1020C000842E902E85E129830E94652F2981059712
:1020D0000CF4DDC0622F70E080E090E01F921F9250
:1020E0001F9227E72F93A3E0AA2EB12CC12CD12C4D
:1020F00014E6E12EF12C00E010E021E030E040E0B9
:1021000050E00E94CD32E091BE05F091BF05A6845B
:10211000B784C62ED12C8EEB95E00E94D62B27E7F4
:1021200030E02C193D09AC0143515109B601695FFA
:102130007F4FE12CF12C09E010E08EEB95E0F501EA
:1021400009950F900F900F900F90E091BE05F091C0
:10215000BF0581E0A684B7847816C9F08EEB95E0C0
:102160000E94D62BAC0143515109E12CF12C09E01E
:1021700010E027E730E067E070E08EEB95E0F501D6
:102180000995E091BE05F091BF05A484B5848EEB5E
:1021900095E00E94D62BAC0143515109EE24E39403
:1021A000F12C960167E070E08EEB95E0F501099562
:1021B000692D70E080E090E01F921F921F9227E748
:1021C0002F93E3E0AE2EB12CC12CD12C14E6E12EDE
:1021D000F12C00E010E021E030E040E050E00E940F
:1021E000CD32E091BE05F091BF05A684B784C62E1E
:1021F000D12C8EEB95E00E94D62B27E730E02C19EE
:102200003D09AC0149505109B601695F7F4FE12C8E
:10221000F12C09E010E08EEB95E0F50109950F90A7
:102220000F900F900F90E091BE05F091BF0582E0F6
:10223000A684B7847816C9F08EEB95E00E94D62B61
:10224000AC0149505109E12CF12C09E010E027E7DD
:1022500030E067E070E08EEB95E0F5010995E091E4
:10226000BE05F091BF05A484B5848EEB95E00E9475
:10227000D62BAC0149505109EE24E394F12C960180
:1022800067E070E08EEB95E0F501099589C060E0AC
:1022900070E08EEB95E00E94C32BE091BE05F091BB
:1022A000BF05C684D7848EEB95E00E94D62BAC0187
:1022B00043515109EE24E394F12C03E110E029E1AC
:1022C00030E060E070E08EEB95E0F60109958EEB72
:1022D00095E00E94D62BAC014D50510961E070E0B1
:1022E0008EEB95E00E94B72B86E891E00E944305B3
:1022F000BC018EEB95E00E940932882D90E0A0E0B1
:10230000B0E01F921F921F9225E62F93A12CB12CB3
:102310006501A39414E6E12EF12C00E010E021E029
:1023200030E040E050E0BC01CD010E94CD32E091B0
:10233000BE05F091BF05A684B784C62ED12C8EEBC6
:1023400095E00E94D62B25E630E02C193D09AC0122
:1023500043515109B601675E7F4FE12CF12C03E137
:1023600010E08EEB95E0F5010995E091BE05F09146
:10237000BF05A684B7848EEB95E00E94D62BAC01F6
:1023800043515109EE24E394F12C960169E170E088
:102390008EEB95E0F50109950F900F900F900F903F
:1023A000F3E1F81578F10E94B62E2AEF30E040E014
:1023B00050E00E94623521E030E06D377105810503
:1023C000910510F020E030E040E050E0B9018EEBE4
:1023D00095E00E94C92B8EEB95E00E94D62BAC01B4
:1023E0004D50510962E370E08EEB95E00E94B72BEF
:1023F0008BE791E00E944305BC018EEB95E00E94C3
:10240000093223C085E10E94652F0597F4F0E09121
:10241000BE05F091BF05C680D7808EEB95E00E9487
:10242000D62B8C018EEB95E00E94D62B0A50110919
:10243000AC014A505109E12CF12C2EE630E062E368
:1024400070E08EEB95E0F60109958EEB95E00F902C
:10245000DF91CF911F910F91FF90EF90DF90CF9080
:10246000BF90AF909F908F907F900C941E28CF923A
:10247000DF92EF92FF920F931F93CF93DF93EC01C4
:10248000D62E0E945D0581E791E00E944305BC01C4
:10249000CE010E947006E091BE05F091BF05C68591
:1024A000D7858EEB95E00E94D22B2AE0D29EA00128
:1024B0001124445F5F4FEE24E394F12C0AE010E016
:1024C0009C0160E070E08EEB95E0FE01099561E013
:1024D00070E0D11002C060E070E08EEB95E00E94E9
:1024E000C32B4DE050E065E070E08EEB95E00E947C
:1024F000B72B8CE691E00E944305BC018EEB95E082
:102500000E94093261E070E0F1E0DF1202C060E099
:1025100070E08EEB95E00E94C32B47E150E065E050
:1025200070E08EEB95E00E94B72B81E691E00E946F
:102530004305BC018EEB95E00E94093261E070E03A
:1025400022E0D21202C060E070E08EEB95E00E94C3
:10255000C32B41E250E065E070E08EEB95E00E9415
:10256000B72B86E591E00E944305BC018EEB95E018
:102570000E94093261E070E08EEB95E00E94C32B6F
:10258000E091BE05F091BF05C485D5858EEB95E041
:102590000E94D22B6C018EEB95E00E94D62BAC01F1
:1025A00045515109EE24E394F12C0BE010E0960123
:1025B00060E070E08EEB95E0FE0109958EEB95E012
:1025C0000E94D62BAC014351510965E070E08EEBBF
:1025D00095E00E94B72B6EE575E08EEB95E00E94CA
:1025E00009328EEB95E00E94D62BAC01495051097F
:1025F00065E070E08EEB95E00E94B72B61E675E038
:102600008EEB95E00E9409328EEB95E0DF91CF9141
:102610001F910F91FF90EF90DF90CF900C941E28A8
:10262000AF92BF92CF92DF92EF92FF920F931F93E0
:10263000CF93DF93C62FD22F642F70E080E090E01D
:102640001F921F921F922CE62F93A12CB12C650193
:10265000A39414E6E12EF12C00E010E021E030E03C
:1026600040E050E00E94CD32E091BE05F091BF0500
:10267000A684B784C62ED12C8EEB95E00E94D62B73
:102680002CE630E02C193D09AC0143515109B6014B
:102690006E5E7F4FE12CF12C07E010E08EEB95E0B1
:1026A000F50109950F900F900F900F90E091BE05E6
:1026B000F091BF05A684B7848EEB95E0C130C1F0E0
:1026C0000E94D62BAC0143515109E12CF12C07E0BB
:1026D00010E0960162E170E08EEB95E0F50109955E
:1026E000E091BE05F091BF05A484B5848EEB95E022
:1026F0000E94D62BAC0143515109EE24E394F12CF6
:10270000960162E170E08EEB95E0F50109956D2F81
:1027100070E080E090E01F921F921F922CE62F93B2
:10272000A12CB12C6501A39414E6E12EF12C00E05C
:1027300010E021E030E040E050E00E94CD32E09136
:10274000BE05F091BF05A684B784C62ED12C8EEBB2
:1027500095E00E94D62B2CE630E02C193D09AC0107
:1027600049505109B6016E5E7F4FE12CF12C07E014
:1027700010E08EEB95E0F50109950F900F900F900A
:102780000F90E091BE05F091BF05C23019F4C685E7
:10279000D7851AC0C685D7858EEB95E00E94D62BCB
:1027A000AC0149505109E12CF12C07E010E09601F1
:1027B00062E170E08EEB95E0FE010995E091BE05C7
:1027C000F091BF05C485D5858EEB95E00E94D62B90
:1027D000AC0149505109EE24E394F12C960162E1D9
:1027E00070E08EEB95E0FE0109958EEB95E0DF91B0
:1027F000CF911F910F91FF90EF90DF90CF90BF90FE
:10280000AF900C941E2808958F929F92AF92BF9222
:10281000CF92DF92EF92FF920F931F93CF93DF93AC
:10282000EC01D62EB42EA22E902EC12E8E2C0E94FC
:102830005D058BE491E00E944305BC01CE010E943E
:102840007006E091BE05F091BF05C685D7858EEB79
:1028500095E00E94D22B2AE0D29EA0011124445F71
:102860005F4FEE24E394F12C0AE010E09C0160E05D
:1028700070E08EEB95E0FE01099561E070E0D1100B
:1028800002C060E070E08EEB95E00E94C32B4DE04B
:1028900050E065E070E08EEB95E00E94B72B83E49A
:1028A00091E00E944305BC018EEB95E00E94093245
:1028B000AA2019F089E391E002C08FE291E00E9422
:1028C0004305BC018EEB95E00E94093261E070E0A7
:1028D000F1E0DF1202C060E070E08EEB95E00E9454
:1028E000C32B47E150E065E070E08EEB95E00E947D
:1028F000B72B87E291E00E944305BC018EEB95E087
:102900000E940932BB2019F083E291E002C08FE1FE
:1029100091E00E944305BC018EEB95E00E940932D4
:1029200061E070E022E0D21202C060E070E08EEB65
:1029300095E00E94C32B41E250E065E070E08EEB31
:1029400095E00E94B72B87E191E00E944305BC010E
:102950008EEB95E00E94093287FC4FC0E091BE05E6
:10296000F091BF05C685D7858EEB95E00E94D22BEE
:102970009C012A523109E12CF12C08E010E041E2DF
:1029800050E069E270E08EEB95E0FE010995A82C1D
:10299000BB24A7FCB094E091BE05F091BF05282DA3
:1029A00086E02802B0011124625D7F4F0684F7851E
:1029B000E02DEE24E394F12C27E030E041E250E0FA
:1029C0008EEB95E00995C92DDC2D00E010E061E06B
:1029D00070E00A151B0511F460E070E08EEB95E0E5
:1029E0000E94C32B69918EEB95E00E940B320F5F22
:1029F0001F4F0A30110559F706C0692D7C2D8EEB4B
:102A000095E00E94093261E070E093E0D91202C0C3
:102A100060E070E08EEB95E00E94C32B4BE250E04B
:102A200065E070E08EEB95E00E94B72B88E091E0C6
:102A30000E944305BC018EEB95E00E94093261E0E3
:102A400070E0E4E0DE1202C060E070E08EEB95E042
:102A50000E94C32B45E350E065E070E08EEB95E00B
:102A60000E94B72B8CEF90E00E944305BC018EEBD7
:102A700095E00E9409328EEB95E0DF91CF911F9196
:102A80000F91FF90EF90DF90CF90BF90AF909F900D
:102A90008F900C941E28AF92BF92CF92DF92EF924C
:102AA000FF920F931F93CF93DF93EC01A62EB42ECA
:102AB00069010E945D058EEE90E00E944305BC0115
:102AC000CE010E94700661E070E08EEB95E00E94FE
:102AD000C32B4CE050E065E070E08EEB95E00E9487
:102AE000B72B88EE90E00E944305BC018EEB95E089
:102AF0000E9409324CE050E066E270E08EEB95E017
:102B00000E94B72B82E0A81689F08A1530F081E088
:102B1000A81218C081EC90E00EC083E0A81649F01E
:102B200089E0A8120FC08BEC90E005C08BED90E01F
:102B300002C084ED90E00E944305BC018EEB95E05D
:102B40000E94093244E150E065E070E08EEB95E0D0
:102B50000E94B72B8BEB90E00E944305BC018EEBEB
:102B600095E00E94093244E150E066E270E08EEBAD
:102B700095E00E94B72B87E28B1518F481EB90E06B
:102B80001AC08FE18B1518F48AEA90E014C087E12F
:102B90008B1518F480EA90E00EC08FE08B1518F4C6
:102BA0008EE990E008C087E08B1518F48CE990E07E
:102BB00002C08AE990E00E944305BC018EEB95E0DB
:102BC0000E9409324CE150E065E070E08EEB95E048
:102BD0000E94B72B84E990E00E944305BC018EEB74
:102BE00095E00E9409324CE150E066E270E08EEB25
:102BF00095E00E94B72B6B2D67706F5F4AE050E045
:102C00008EEB95E00E94C0328DE9E8168FEFF80652
:102C100081F088E890E00E944305BC018EEB95E0CE
:102C20000E9409324AE050E0B7018EEB95E00E9425
:102C3000AB3244E250E065E070E08EEB95E00E943C
:102C4000B72B8AE790E00E944305BC018EEB95E02C
:102C50000E94093244E250E066E270E08EEB95E0BB
:102C60000E94B72B4AE050E0B6018EEB95E00E943F
:102C7000C7324CE250E065E070E08EEB95E00E94D8
:102C8000B72B84E790E00E944305BC018EEB95E0F2
:102C90000E9409324CE250E066E270E08EEB95E073
:102CA0000E94B72BB8018EEB95E00E9409328EEBA3
:102CB00095E00E94D22B8254910997FD0196BC01A8
:102CC0007595679544E350E08EEB95E00E94B72B35
:102CD00088E690E00E944305BC018EEB95E00E94DF
:102CE00009328EEB95E0DF91CF911F910F91FF900C
:102CF000EF90DF90CF90BF90AF900C941E2864E0CF
:102D00008EEB95E00C9470260C94E3350C94EB3527
:102D1000DC01ED91FC910190F081E02D0994CF93BD
:102D2000DF93EC0161E08DE00E94E42F80910701C8
:102D3000882321F060E086E00E94E42FBE017695B2
:102D4000679580E090E00E94E52E60E08DE00E94B3
:102D5000E42F61E086E0DF91CF910C94E42F982F6F
:102D6000E0EBF3E080E02491291729F08F5F3196A2
:102D70008033C9F780E008950E94B62E2091250681
:102D800030912606621B730B6931710548F489E1A5
:102D900090E0861B970BBC0180E090E00C94E52E40
:102DA0000895CF93C82F60E0813031F48FE00E9406
:102DB000E42F61E08EE005C08EE00E94E42F61E028
:102DC0008FE00E94E42FC0931E01CF9108952F92AF
:102DD0003F924F925F926F927F928F929F92AF92AB
:102DE000BF92CF92DF92EF92FF920F931F93CF93F8
:102DF000DF93382EA2E3FA2E00E010E0C0E0D0E02E
:102E000084E10E94652FC80FD91F85E10E94652FBC
:102E1000080F191FFA94A1F722E330E0CE01B9019F
:102E20000E944E35FB01C801B9010E944E354B018D
:102E300080911C01873061F58091120190911301FE
:102E4000E817F90720F4F0931301E0931201809141
:102E50001001909111018E179F0720F4F09311013A
:102E6000E093100180910A0190910B018816990658
:102E700020F490920B0180920A01809108019091B8
:102E800009018815990520F49092090180920801A2
:102E9000E0901401F090150100E010E0209116017F
:102EA0003091170140E050E0BF01882777FD809501
:102EB000982F1F921F921F92E4E62E2E2F92A12C84
:102EC000B12C6501A3940E94CD322B013C01EB0192
:102ED000E0900C01F0900D0100E010E020910E0157
:102EE00030910F0140E050E0B401882777FD8095D4
:102EF000982F1F921F921F922F920E94CD324B014A
:102F00005C018B018DB79EB708960FB6F8949EBFF3
:102F10000FBE8DBF9FEF39125CC080912D068823B4
:102F200021F0823009F04DC04FC0B401882777FDF1
:102F30008095982F0E9427346B017C01B20188276D
:102F400077FD8095982F0E942734A70196010E9453
:102F50002733A70196010E948C3320E030E048EC33
:102F600052E40E94DB346B017C0120E030E0A901D7
:102F70000E94D73418161CF4C701B60103C0C7015C
:102F8000B60190580E94F43364307105BCF0809112
:102F90002C060C171D0724F4181654F4815006C093
:102FA000C017D1072CF487301CF48F5F80932C0658
:102FB00080912C06882329F0873034F430901E014C
:102FC00005C03324339402C092E0392E832D0E9431
:102FD000D11681E0381629F080911C01873009F064
:102FE000E4011C161D063CF4CE01C536D1052CF0BB
:102FF00084E690E002C081E090E0DF91CF911F91E4
:103000000F91FF90EF90DF90CF90BF90AF909F9087
:103010008F907F906F905F904F903F902F9008958A
:103020008FEF0C94E71660E08CE00E94E42F81E0C3
:1030300090E00E941F2F61E08AE00E94E42F81E06F
:1030400090E00E941F2F61E08CE00E94E42F81E05D
:1030500090E00E941F2F60E08CE00E94E42F81E04E
:1030600090E00C941F2F60E08CE00E94E42F81E040
:1030700090E00E941F2F60E08AE00E94E42F81E030
:1030800090E00E941F2F61E08CE00E94E42F81E01D
:1030900090E00E941F2F60E08CE00E94E42F81E00E
:1030A00090E00C941F2F81E090E00E941F2F60E0C1
:1030B0008BE00E94E42F81E090E00C941F2F81E0D0
:1030C00090E00E941F2F61E08BE00E94E42F81E0DE
:1030D00090E00C941F2F1F93CF93DF93E82FF0E025
:1030E000EE0FFF1FE059FB4FC591D4910E945F186E
:1030F00081E090E00E941F2F0E9453180E94331815
:103100000E9433180E9433180E9413180E9433182B
:1031100014E10E9433181150E1F70E945F1881E01A
:1031200090E00E941F2F0E9453180E945F180E9477
:1031300053180E9413180E9433180E9433180E94DB
:1031400033180E94131810E1C0FF03C00E94131827
:1031500002C00E943318D695C7951150A9F70E9456
:1031600033180E9433180E9433180E9433180E94AB
:103170005F1881E090E00E941F2F60E08BE00E94CA
:10318000E42F60E08CE00E94E42F60E08AE0DF91B1
:10319000CF911F910C94E42F0F931F93CF93DF9344
:1031A00061E08DE00E94AB2F61E08DE00E94E42F92
:1031B00062E081E10E94AB2F61E086E00E94AB2FCC
:1031C00061E086E00E94E42F60E082E00E94AB2F85
:1031D00062E082E00E94E42F60E083E00E94AB2F77
:1031E00062E083E00E94E42F60E084E00E94AB2F65
:1031F00062E084E00E94E42F60E085E00E94AB2F53
:1032000062E085E00E94E42F61E08EE00E94AB2F37
:1032100061E08FE00E94AB2F81E00E94D11661E057
:103220008BE00E94AB2F61E08AE00E94AB2F61E04F
:103230008CE00E94AB2F80E090E00E9484168F3FCC
:1032400009F058C061E080E090E00E94861660E0DE
:1032500081E090E00E948616609107018BE090E08B
:103260000E948616609106018CE090E00E9486160E
:103270006AE582E090E00E94861660E083E090E0DC
:103280000E9486166CED84E090E00E94861660E055
:1032900085E090E00E94861664E675E08DE096E099
:1032A0000E94DC350DE016E0C4E1D0E0F801619148
:1032B0008F01CE010E9486162196CE31D105B1F73D
:1032C00060912D0686E090E00E9486166AE587E010
:1032D00090E00E94861660E088E090E00E948616EA
:1032E0006CED89E090E00E94861660E08AE090E054
:1032F0000E94861680E090E00E94841680931C0154
:1033000081E090E00E94841680932F060E946B1843
:1033100080912F0680932A068BE090E00E9484160D
:1033200091E0811101C090E0909307018CE090E062
:103330000E94841691E0811101C090E090930601F3
:103340000DE016E0C4E1D0E0CE010E948416F80141
:1033500081938F012196CE31D105B1F783E090E0C2
:103360000E948416C82F82E090E00E9484162C2FC1
:1033700030E0322F2227282B30931701209316019B
:1033800085E090E00E948416C82F84E090E00E94BF
:1033900084162C2F30E0322F2227282B3093150152
:1033A0002093140186E090E00E94841680932D06FD
:1033B00088E090E00E948416C82F87E090E00E9489
:1033C00084162C2F30E0322F2227282B30930F0128
:1033D00020930E018AE090E00E948416C82F89E0B5
:1033E00090E00E9484162C2F30E0322F2227282BC9
:1033F00030930D0120930C0181E080931A066DE05B
:1034000076E081E396E00E94740518168CF48DE056
:103410000E941A3061E0892B09F060E08DE00E9483
:10342000E42F64E670E080E090E00E94E52EEFCFAC
:1034300085E10E94652F059714F410922D0660E037
:103440008DE0DF91CF911F910F910C94E42F20E03C
:1034500030E0F901EE0FFF1FE15EFE4F4081518128
:103460004F3F510539F48F3F910521F091838083BF
:103470002CE030E02F5F3F4F2A30310554F30895A0
:1034800081E396E00C9458051F93CF93DF9384E675
:1034900090E00E948F1664E670E080E090E00E9469
:1034A000E52E84E690E00E948F1662E070E08EEFD9
:1034B00096E00E94881660912F0612E0160F8EEF9C
:1034C00096E00E94C130CDE0D6E06991662361F0BC
:1034D000160F772767FD70958EEF96E00E9488168D
:1034E00086E0C731D80789F763E070E08EEF96E099
:1034F0000E948816612F8EEF96E0DF91CF911F9189
:103500000C94C1306F927F928F929F92AF92BF9234
:10351000CF92DF92EF92FF920F931F93CF93DF939F
:103520001F92CDB7DEB783E00E941A30892BB9F520
:103530001092210610922206109223061092240661
:1035400082E390E00E948F1664E670E080E090E0F5
:103550000E94E52E82E390E00E948F1664E670E000
:1035600080E090E00E94E52E10E083E00E941A3097
:10357000892B19F41A3009F09EC690911B01809195
:103580001C01811103C081E080931C011A3008F4F2
:103590001AC686E080931C018FEF80931A01109267
:1035A0002B0685E00E941A30892B19F486E080935F
:1035B0001C0180911A0660911C01811105C0809147
:1035C0001A01681709F4EAC110921A06633009F467
:1035D0009EC648F4613009F46AC0623009F0DAC16D
:1035E00060931B0151C0673021F1693009F4B4C107
:1035F000663009F0CFC160912F0681E090E00E9413
:10360000861660911B0180E090E00E948616609112
:1036100007018BE090E00E948616609106018CE025
:1036200090E00E9486160DE016E054E1E52EF12CA4
:1036300056C0E2E3F0E0F0931701E09316014CE28C
:1036400051E050931501409314012CED30E030937C
:103650001301209312018AE590E090931101809369
:103660001001F0930F01E0930E0150930D01409370
:103670000C0130930B0120930A0190930901809370
:10368000080183E08093170610923006E0EBF3E028
:10369000E491E0932F06109219061092180681E02B
:1036A00080931B0681E396E00E94310D73C180E593
:1036B00080931D0110921906109218066093290636
:1036C00010922106109222061092230610922406D0
:1036D00060911C0181E396E00E94410847C1F80116
:1036E00061918F01C7010E948616FFEFEF1AFF0A52
:1036F0002EE1E216F10499F760912D0686E090E044
:103700000E94861680911A01853009F467C0809165
:103710001B01893009F462C08091470190914801F2
:103720000E9484168F3FE9F08CE690E00E94841698
:10373000082F10E00A3011051CF00F5F1F4F02C068
:1037400000E010E0F801EE0FFF1FED5CFE4F6FEFA1
:10375000808191810E948616602F8CE690E00E9405
:103760008616E12CF12CF701EE0FFF1FED5CFE4FEA
:1037700000811181C8010E9484168F3F69F4609115
:103780002F06C8010E9486166E2D8CE690E00E94DE
:1037900086162CE0E22EF12C8FEFE81AF80AEAE008
:1037A000EE16F10404F38CE690E00E94841640913A
:1037B0002F06E42FF0E0EE0FFF1FE05FFB4F259197
:1037C0003491E82EF12CFFEFEF1AFF0A0DE016E01E
:1037D00060911B0181E396E00E944B1580911A01D4
:1037E0008530B1F440912F06E42FF0E0EE0FFF1F7B
:1037F000E05FFB4F259134910DE9E02EFF24FA9410
:103800000DE016E060911B0181E396E00E944B15EC
:1038100080911B01893009F084C080911A018F3F8B
:1038200009F07FC0E0910806F0910906EE0FFF1F36
:10383000ED5CFE4F6FEF808191810E948616E091D2
:103840002F06F0E0EE0FFF1FE05FFB4F65917491D4
:10385000409108064F5F81E396E00E946609EFE120
:10386000F1E08FEF90E08193919321E0E333F20751
:10387000D1F703E311E0F12CF801819191918F01CF
:103880000E9484168F3F21F090E00E94271AF39443
:10389000F1E007341F0781F703E311E07FE1C72E52
:1038A00071E0D72EF6016081F2E0CF0ED11CF80155
:1038B000819191918F010E948616F3E3CF16F1E07A
:1038C000DF0681F784E690E00E948F166F2D81E37A
:1038D00096E00E94170A10920B0664EF71E080E0F8
:1038E00090E00E94E52E60E08CE690E00E94861653
:1038F00080913301909134010E94841680932F06A9
:1039000061E081E396E00E94E10980912F060E9428
:10391000AF168093300660912F0681E090E00E9400
:10392000861615E084E690E00E948F1664E670E04B
:1039300080E090E00E94E52E1150A1F768EB7BE05B
:1039400080E090E00E94E52E80911B0180931C0195
:1039500081E080931A061EC00E94B62E6093210655
:1039600070932206809323069093240680911B0176
:10397000823031F0893021F080911A01873031F4A2
:1039800081E090E00E94841680932F0680911C01B4
:1039900080931B0180911C0180931A0180911C016E
:1039A000883009F03EC080912F06E82FF0E0EE0F3E
:1039B000FF1FE05FFB4F25913491E82FF0E0E052CC
:1039C000FC4F44910DE016E060912D0681E396E0F6
:1039D0000E945F0F0E94101880932E0682E00E94C2
:1039E000E716082F81E00E94E716282F40912E0647
:1039F00060911E0181E396E00E944F1083E00E94D7
:103A00001A30019709F08EC482E00E941A300197A3
:103A100009F088C484E00E941A30019709F082C43A
:103A2000D9CF843009F04CC010912D0601E01093DD
:103A30002D06612F81E396E00E9437120E94101834
:103A400082E00E94E716282F81E029830E94E71672
:103A50002981482F60911E0181E396E00E94101396
:103A600083E00E941A30019751F482E00E941A30DC
:103A7000019729F484E00E941A300197F9F283E05B
:103A80000E941A30892B09F462C482E00E941A3025
:103A9000892B09F054C4115013300CF45AC410E0AF
:103AA00082E390E00E948F1668EC70E080E090E086
:103AB0000E94E52E0111BBCF80911B0180931C0158
:103AC00080911C01893019F010920B064CC00E94A5
:103AD000BC160E94101880932E0620911806309173
:103AE000190690E08217930708F4C901909319060C
:103AF0008093180680910B0681111FC069E080E059
:103B000090E00E94861610920C0653E3E52E51E0D9
:103B1000F52E10E001E0F701819191917F010E9463
:103B200084168F3F21F010930A0600930C061F5F46
:103B30001A3089F781E080930B0682E00E941A30E8
:103B4000892B09F40AC484E00E941A30892B09F4F5
:103B500068C480910C068111C9C460911C0181E385
:103B600096E00E94760A80911C01982F9D7F9130EB
:103B700009F091C10E94BC160E94101880932E0675
:103B8000209118063091190690E08217930708F4E7
:103B9000C901909319068093180680912F060E9400
:103BA000AF168093300680911C01833009F07EC0EF
:103BB000C0901D06D0901E06E0901F06F0902006D3
:103BC000F8EECF0EF3E0DF1EE11CF11C0E94B62ED2
:103BD000C616D706E806F90628F480912E06833328
:103BE00008F488C482E00E941A30892B39F50E94BB
:103BF000B62E60932106709322068093230690933D
:103C0000240682E390E00E948F1668EC70E080E06A
:103C100090E00E94E52E80912F068F5F80932F0603
:103C2000909130069F5F90331CF49093300602C051
:103C300010923006803310F010922F0684E00E941C
:103C40001A30892B29F50E94B62E609321067093B5
:103C50002206809323069093240682E390E00E943C
:103C60008F1668EC70E080E090E00E94E52E809175
:103C70002F06815080932F0690913006915097FD2A
:103C80009FE290933006803318F08FE280932F06E6
:103C90008091060181110AC0E0913006FF27E7FDFF
:103CA000F095E055FC4FE491E0932F0680911C01C4
:103CB000813009F098C0609118067091190680E073
:103CC00090E00E9425342DEC3CEC4CE45FE30E9434
:103CD000DB340E94F43320911D0130E026173707B2
:103CE00014F460931D0120911C06211152C02091F3
:103CF0002906211122C030912E0620911D01231783
:103D0000E0F481E080931C060E94B62E60932106A9
:103D100070932206809323069093240684E690E015
:103D20000E948F1664E670E080E090E00E94E52E2D
:103D300084E690E00E948F162CC0109229062091F4
:103D4000300630911901230F2093300620332CF0D8
:103D500060931D011092300607C027FF09C06093D1
:103D60001D018FE2809330061092190610921806FA
:103D700080911D01853008F485E080931D01E0915C
:103D80003006FF27E7FDF095E055FC4FE491E09306
:103D90002F0682E00E941A30892B29F084E00E94CD
:103DA0001A30892B01F582E00E941A30892B09F024
:103DB000AEC381E08093190182E390E00E948F16E8
:103DC00068EC70E080E090E00E94E52E81E0809356
:103DD000290610921C0610922106109222061092BB
:103DE0002306109224068090210690902206A0902F
:103DF0002306B090240628E8820E23E1921EA11C1F
:103E0000B11C0E94B62EC0902106D0902206E090F0
:103E10002306F090240686169706A806B90650F4E5
:103E2000C114D104E104F10429F080912E068333FA
:103E300008F06FC3C114D104E104F10471F00E94D1
:103E4000B62EE0E1CE0EE7E2DE1EE11CF11CC61646
:103E5000D706E806F90608F45CC340912F06E42F64
:103E6000F0E0EE0FFF1FE05FFB4FE590F490AA2417
:103E7000A39480911C06811101C0A12CC0901D014A
:103E800000912E062091300660911C0181E396E09E
:103E90000E94A20AEFC0823019F0873009F0EAC010
:103EA00080911B06882351F010921B0680912F06EB
:103EB0000E946B1880912F0680932A060E94BC16E0
:103EC0000E94101880932E0670911C01723079F4B4
:103ED000813568F09C0133274091180650911906EE
:103EE0004217530720F430931906209318062091A7
:103EF0002F06E22FF0E0E052FC4F0491E22FF0E0B9
:103F0000EE0FFF1FE05FFB4FE590F490A0901001D3
:103F1000B0901101C0901201D090130161E0773090
:103F200009F060E0282F4091300681E396E00E947E
:103F3000020E809130068F3224F48F5F809330061A
:103F400074C01092300680911C01873009F06DC05A
:103F5000809117069FEF980F90931706811165C007
:103F600060911201809113016093160180931701F3
:103F700080911001909111018D37910510F48CED15
:103F800090E0909315018093140182E090E00E94EC
:103F900086166091170183E090E00E94861660917A
:103FA000140184E090E00E9486166091150185E07E
:103FB00090E00E94861685E10E94652F05975CF1CE
:103FC00060910A0180910B0160930E0180930F01B3
:103FD00080910801909109018D37910510F48CEDC5
:103FE00090E090930D0180930C0187E090E00E9497
:103FF000861660910F0188E090E00E94861660911D
:104000000C0189E090E00E94861660910D018AE023
:1040100090E00E94861680E090E00E9484168093D3
:104020001C0188EE93E00E948F1682E00E941A30F5
:10403000892BB1F482E390E00E948F1668EC70E067
:1040400080E090E00E94E52E8FEF80931A0110929D
:10405000300681E080931B06109219061092180614
:10406000E0913006FF27E7FDF095E055FC4FE49125
:10407000E0932F0680911C01853009F05FC081E339
:1040800096E00E94031466246A94762CF12CDD24B9
:10409000D394FDE7CF2EA0E2BA2EB7E0AB2E16E008
:1040A000912E88248394E62C0DE016E020910601E1
:1040B000409107016F2D81E396E00E94041412E302
:1040C000115009F458C283E00E941A30019789F414
:1040D00082E00E941A30019761F484E00E941A3055
:1040E000019739F464E670E080E090E00E94E52EEC
:1040F000E7CF83E00E941A30892B09F06DC2F2E00D
:10410000FF1609F44FC2FF150CF443C2F11038C278
:104110008091060188258093060182E390E00E9449
:104120008F1666E970E080E090E00E94E52E2FEFA8
:104130006216720609F483C2D110B5CF80912F06A2
:1041400090912A06981709F491C20E946B188091E9
:104150002F0680932A060E94B62E60932506709340
:1041600026068093270690932806809118018823BD
:1041700009F47CC21092180184E690E00E948F1628
:1041800064E670E080E090E00E94E52E84E690E036
:104190000E948F1664E670E080E090E00E94E52EB9
:1041A00084E690E00F90DF91CF911F910F91FF90E7
:1041B000EF90DF90CF90BF90AF909F908F907F90C7
:1041C0006F900C948F16BB24BA94B90E03E0F9E0FB
:1041D000FF2EA5E0EA2EB4E0DB2E11E082E0C82E2F
:1041E00022E0B216F1F02B1554F0BB2099F081E0DB
:1041F000B8122AC0C0921C01B0921B062EC0E4E087
:10420000BE16F9F0BE1684F0F5E0BF121DC0B092E4
:104210001C011DC010931C011093290610921C064E
:104220001CC000931C0119C085E10E94652F0597F1
:104230001CF0D0921C0111C0E0921C01E4E0BE2EE3
:104240000CC0F0921C0109C024E02B1534F46B2D36
:1042500081E396E00E94E30605C06B2D81E396E0C2
:104260000E94630783E00E941A30892BD9F382E011
:104270000E941A30892BB1F384E00E941A30892BF6
:1042800089F372E3A72EAA9421F183E00E941A30E9
:104290000197C9F482E00E941A300197A1F484E0EA
:1042A0000E941A30019779F464E670E080E090E0B3
:1042B0000E94E52EE8CF64E670E080E090E00E9486
:1042C000E52E1F5F52C983E00E941A30892B09F046
:1042D00024C183E00E941A30892B21F080911B01B8
:1042E00080931C0184E690E00E948F1662E370E0E8
:1042F00080E090E00E94E52E84E690E00E948F1618
:1043000062E370E080E090E00E94E52E45C90E94E3
:10431000B62E609321067093220680932306909315
:104320002406D6C980911B0180931C01109221069E
:1043300010922206109223061092240697C184E060
:104340000E941A30892B09F0A7CB1F5FA5CB00E094
:10435000A3CB17FFA5CB12E0A3CB68EC70E080E005
:1043600090E00E94E52E8091080690910906019642
:10437000909309068093080620910A0630E02817DA
:10438000390724F4109209061092080600910806D5
:1043900010910906F801EE0FFF1FED5CFE4F8081C2
:1043A00091810E94841680932F068F3F99F161E0DE
:1043B000600F81E396E00E94E10980912F060E9440
:1043C000AF16809330060E94B62E6093210670933C
:1043D0002206809323069093240682E390E00E94B5
:1043E0008F1668EC70E080E090E00E94E52E8091EE
:1043F0003006803314F01092300680912F068033FF
:1044000010F010922F0660912F0681E090E00E943C
:10441000861699CB015011091093090600930806DE
:1044200092CB68EC70E080E090E00E94E52E8091F5
:104430000806909109060197909309068093080653
:1044400097FF07C080910A0690E090930906809339
:1044500008060091080610910906F801EE0FFF1FEB
:10446000ED5CFE4F808191810E94841680932F061F
:104470008F3FA9F161E0600F81E396E00E94E109BE
:1044800080912F060E94AF16809330060E94B62EB0
:10449000609321067093220680932306909324064E
:1044A00082E390E00E948F1668EC70E080E090E07C
:1044B0000E94E52E8091300687FF03C08FE2809333
:1044C000300680912F06803318F08FE280932F06FC
:1044D00060912F0681E090E00E9486163ACB0F5F34
:1044E0001F4F109309060093080633CB88E0809392
:1044F0001C0139CB0E94441A0E94B62E60931D06FF
:1045000070931E0680931F06909320066BCB8FEF4F
:1045100051CC88E080931C01A0CC82E00E941A302C
:10452000892B59F4AB2CBA9485E10E94652F05972D
:1045300054F483E0B81207C01AC084E00E941A3015
:10454000892B09F4B394E5E0EB152CF0B7FE04C019
:1045500065E0B62E01C0B12C82E390E00E948F1678
:1045600068EC70E080E090E00E94E52E39CE6EEFBE
:10457000B62EBA0CE8CF80911B0180931C01DECDD2
:1045800021E0F21252C0809107018F25809307012C
:10459000C4CD83E0F81679F0E4E0FE1246C09092B4
:1045A0001C0118C0FFEF6F1A7F0A2AE0621671041F
:1045B0000CF058C0B2CD1AE089E190E00E948F164D
:1045C00069E170E080E090E00E94E52E1150A1F7D3
:1045D000A0921C01D12CA1CD82E00E941A30892B1F
:1045E00079F48FEF6816780611F4FA941EC0F3017F
:1045F000E35FF94F80818F5F8E37A4F0B08215C0E2
:1046000084E00E941A30892B81F4EFEF6E167E064B
:1046100011F4F3940AC0F301E35FF94F80818150F4
:10462000803214F0808301C0C082F4E0FF152CF0CA
:10463000F7FE73CD74E0F72E70CDF12C6ECD83E0D4
:104640000E941A30892B09F46CCD82E00E941A3046
:10465000892B09F466CD84E00E941A30892B09F475
:1046600060CD6ACD66246A94762C57CD0F90DF9189
:10467000CF911F910F91FF90EF90DF90CF90BF905F
:10468000AF909F908F907F906F9008950F931F939E
:10469000CF93DF93EC018D89823061F08330D9F0C4
:1046A000813009F0C8C0EC81FD81E41BF50B319726
:1046B000DB0118C08C819D81DC01A61BB70BBD01FD
:1046C0008E819F81FC01E41BF50BAF014150510924
:1046D000621B730BB0C0AE81BF81A61BB70BA21BC0
:1046E000B30BFA01F7FD05C18C819D81E817F9072D
:1046F0000CF0FFC0B7FF04C02A0F3B1FA0E0B0E0E2
:104700008E819F81AD01420F531F841795071CF4C2
:104710009C012A1B3B0B121613060CF0EAC0422F19
:104720008A2F86958695869590E8899FE00DF11DE4
:104730001124E95AFE4FA77069F158E05A1B852FE2
:1047400090E0EC01C15BDE4F6881251760F4DC016D
:10475000A21BB1098FEF90E00A2E02C095958795B4
:104760000A94E2F768230130110539F048F002306D
:10477000110551F48081862706C08081862B03C0F5
:104780006095808186238083451708F4B2C0451B5D
:10479000E058FF4F4830A0F102301105A9F4DF01C5
:1047A000842F9C9190959C93A058BF4F885088303F
:1047B000C0F788EF840F869586958695B0E88B9F25
:1047C000E00DF11D112419C081E00130110509F03F
:1047D00080E0982F9195EF01842F9883C058DF4F88
:1047E00088508830D0F788EF840F86958695869517
:1047F00090E8899FE00DF11D1124E058FF4F4770AC
:10480000442309F476C0A42FB0E0A95BBE4F9C916D
:104810000130110541F050F00230110509F069C076
:104820008081892706C08081892B03C09095808173
:10483000892380835EC057FD5CC08E819F814817AD
:1048400059070CF056C077FF04C0260F371F60E0F1
:1048500070E08C819D81FB01E20FF31F8E179F0793
:104860001CF49C01261B370B121613060CF041C0DA
:10487000CA0157FD0796E3E095958795EA95E1F71C
:104880009695982F882797958795895A9E4F860FDA
:10489000971F4770552761E070E001C0660F4A9589
:1048A000EAF7462F0130110541F088F0023011057A
:1048B00001F5FC01280F391F15C0FC01280F391F15
:1048C000E217F307B1F08081842B8193F9CF6095D3
:1048D000FC01280F391FE217F30759F08081862366
:1048E0008193F9CFE217F30721F080818427819328
:1048F000F9CFDF91CF911F910F9108950F931F93DF
:10490000CF93DF93FC018589823069F08330E1F039
:10491000813009F082C0C481D581C41BD50BC21B74
:10492000D30BDB0117C084819581DC01A61BB70B7B
:10493000BD016150710986819781DC01A41BB50B13
:10494000AD01421B530B69C0A681B781A61BB70BF3
:104950001197EA01B7FD08C186819781A817B907A9
:104960000CF002C1D7FF04C02C0F3D1FC0E0D0E007
:1049700084819581AE01420F531F841795071CF463
:104980009C012C1B3D0B121613060CF0EDC0CD0143
:10499000B7FD079643E0959587954A95E1F796957B
:1049A000982F882797958795895A9E4F8C0F9D1F22
:1049B000A770BB2741E050E00A2E01C0440F0A94C3
:1049C000EAF7642F0130110549F098F00230110523
:1049D00009F0CAC0FC01280F391F17C0FC01280FBD
:1049E000391FE217F30709F4BFC08081862B81933A
:1049F000F8CF4095FC01280F391FE217F30709F49F
:104A0000B3C0808184238193F8CFE217F30709F4C0
:104A1000ABC0808186278193F8CF77FDA5C08481C4
:104A20009581681779070CF09FC057FF04C0240FC9
:104A3000351F40E050E086819781FA01E20FF31FB5
:104A40008E179F071CF49C01241B350B12161306AE
:104A50000CF08AC0522F842F869586958695FB018F
:104A6000B0E88B9FE00DF11D1124E95AFE4F47700D
:104A700069F168E0641B862F90E0EC01C15BDE4FBA
:104A80004881261760F4DC01A21BB1098FEF90E08A
:104A90000A2E02C0959587950A94E2F748230130C3
:104AA000110539F048F00230110551F48081842756
:104AB00006C08081842B03C040958081842380833D
:104AC000561708F451C0561BE058FF4F5830A0F15C
:104AD00002301105A9F4DF01852F9C9190959C93DC
:104AE000A058BF4F88508830C0F788EF850F869553
:104AF00086958695B0E88B9FE00DF11D112419C0B5
:104B000081E00130110509F080E0982F9195EF01C7
:104B1000852F9883C058DF4F88508830D0F788EFB2
:104B2000850F86958695869590E8899FE00DF11D05
:104B30001124E058FF4F57705523B1F0A52FB0E076
:104B4000A95BBE4F9C910130110539F048F002304D
:104B5000110551F48081892706C08081892B03C00B
:104B60009095808189238083DF91CF911F910F9150
:104B70000895CF92DF92EF92FF920F931F93CF93FE
:104B8000DF937C018B01EA01690177FDA0C00E94DF
:104B9000D22B081719070CF09AC0D7FD98C0C7018F
:104BA0000E94D62BC817D9070CF091C0C7010E94EC
:104BB000CF2B823009F07FC0F701848195819C0161
:104BC000201B310B89010150110986819781FC015D
:104BD000EC1BFD0BEF0121970BC0813049F4F7016D
:104BE000848195818C1B9D0BE8018C01015011097A
:104BF000F1E0CF16D10431F010F132E0C316D10448
:104C0000E1F165C0FE01D7FD379683E0F595E795A4
:104C10008A95E1F7F695FE2FEE27F795E795E00FD9
:104C2000F11FE95AFE4FC770DD2781E090E00C2E9E
:104C300001C0880F0A94EAF79081982B3AC0FE01D0
:104C4000D7FD3796A3E0F595E795AA95E1F7F69598
:104C5000FE2FEE27F795E795E00FF11FE95AFE4F7B
:104C6000C770DD2781E090E00C2E01C0880F0A9408
:104C7000EAF78095908198231CC0FE01D7FD3796F6
:104C800063E0F595E7956A95E1F7F695FE2FEE2737
:104C9000F795E795E00FF11FE95AFE4FC770DD2742
:104CA00081E090E00C2E01C0880F0A94EAF7908111
:104CB000982790830CC0833009F08FCFF70186814D
:104CC0009781801B910B8E01EC01219791CFDF9191
:104CD000CF911F910F91FF90EF90DF90CF900895AB
:104CE0001F93CF93DF93EC01162F40E450E060E870
:104CF00070E00E94622A82E795E0998388838FEFB3
:104D00008A8F8E8F8C8F8B8F1D8FDF91CF911F910C
:104D1000089580E094E0E7E5F1E0DF019C011D9259
:104D200021503040E1F70895FC01878D882339F048
:104D30006EBD00000DB407FEFDCF8EB5089588E06E
:104D400090E030E8A2A1B3A14C9121A520952423A5
:104D50002C93A0A1B1A120A5432F462321F04C9173
:104D6000422B4C9304C04C91209524232C93A2A158
:104D7000B3A12C9141A5242B2C933695019711F7C3
:104D800008951F93CF93DF93EC01162F8A8D8F3FE9
:104D900009F1ECA1FDA180819AA5892B8083EEA168
:104DA000FFA190818BA5809589238083ECA1FDA133
:104DB00090818AA5809589238083CE010E949426C4
:104DC000ECA1FDA180819AA5892B8083DF91CF91F1
:104DD0001F910895888D682F772767FD709585E36B
:104DE00096E00E94852C60E085E396E00E94322CDC
:104DF000612F85E396E00E94322C85E396E0DF91F7
:104E0000CF911F910C949A2C0F931F93CF93DF9304
:104E1000EC01162F022F698F488F8A8D8F3F09F47E
:104E200077C061E08C8D0E94AB2F61E08E8D0E9477
:104E3000AB2F8E8D992787FD9095FC01E850F64F9A
:104E4000E491F0E0EE0FFF1FEA5EF54F25913491FB
:104E50003DA32CA3FC01EC51F64F84918AA78C8DC5
:104E6000992787FD9095FC01E850F64FE491F0E01A
:104E7000EE0FFF1FEA5EF54F259134913FA32EA35D
:104E8000FC01EC51F64F84918BA78F8D811134C0BA
:104E900061E08A8D0E94AB2F61E08B8D0E94AB2F69
:104EA0008B8D992787FD9095FC01E850F64FE49192
:104EB000F0E0EE0FFF1FEA5EF54F259134913BA322
:104EC0002AA3FC01EC51F64F849189A78A8D99277A
:104ED00087FD9095FC01E850F64FE491F0E0EE0F6D
:104EE000FF1FEA5EF54F2591349139A328A3FC01F9
:104EF000EC51F64F849188A78F8D882369F00E942A
:104F0000A5288CB58C7F8CBD8DB581608DBD04C00E
:104F100085E396E00E94712C0023E1F061E08D8D25
:104F20000E94AB2F61E08D8D0E94E42F61E070E064
:104F300080E090E00E94E52E60E08D8D0E94E42FDD
:104F40006AE070E080E090E00E94E52E61E08D8DE7
:104F50000E94E42F6EEACE010E94C12665EDCE01CB
:104F60000E94C12660E8CE010E94C12668EACE01F7
:104F70000E94C1266FE3CE010E94C12663EDCE01DF
:104F80000E94C12660E0CE010E94C12660E4CE01ED
:104F90000E94C1266DE8CE010E94C126113011F495
:104FA00060E101C064E1CE010E94C12660E2CE0151
:104FB0000E94C12660E0CE010E94C12661EACE01B6
:104FC0000E94C12668ECCE010E94C1266AEDCE0186
:104FD0000E94C12662E1CE010E94C12661E8CE0195
:104FE0000E94C126113011F46FE901C06FECCE01AF
:104FF0000E94C12669EDCE010E94C126113011F434
:1050000062E201C061EFCE010E94C1266BEDCE01CC
:105010000E94C12660E4CE010E94C12664EACE014E
:105020000E94C12666EACE010E94C1266FEACE0127
:10503000DF91CF911F910F910C94C126DF92EF92D7
:10504000FF920F931F93CF93DF93EC0161E20E94D5
:10505000C12660E0CE010E94C1266FE7CE010E940A
:10506000C12662E2CE010E94C12660E0CE010E940C
:10507000C12667E0CE010E94C1268A8D8F3F31F1A3
:10508000ECA1FDA180819AA5892B8083EEA1FFA1CF
:1050900080819BA5892B8083ECA1FDA190818AA5AD
:1050A00080958923808307E511E0F80161918F01E4
:1050B000CE010E949426F5E007351F07B1F7ECA159
:1050C000FDA180819AA5892B808337C0D090B8003C
:1050D0008CE08093B80007E511E0688D772767FDC5
:1050E000709585E396E00E94852CE0913506F0915D
:1050F00036060190F081E02D60E485E396E00995A5
:10510000E12CF12CF801EE0DFF1D608185E396E0A6
:105110000E94322C8FEFE81AF80AE0E1EE16F10453
:1051200089F785E396E00E949A2C005F1F4FF5E017
:1051300007351F0791F6D092B800DF91CF911F91EC
:105140000F91FF90EF90DF900895CF93CFB7F89431
:1051500080913406811127C0E2E0FAE08491EEEEFE
:10516000F9E09491E82FF0E0EE0FFF1FE05EF54FBD
:10517000A591B4918C91892321F461E08AE00E9489
:10518000E42F61E08AE00E94AB2F8CB580618CBD7A
:105190008CB580648CBD61E08DE00E94AB2F61E036
:1051A0008BE00E94AB2F809134068F5F8093340692
:1051B000CFBFCF9108952F923F924F925F926F92FF
:1051C0007F928F929F92AF92BF92CF92DF92EF9297
:1051D000FF920F931F93CF93DF9300D000D0CDB7F2
:1051E000DEB74C017C836B836A015901C8018701DA
:1051F000AC014C195D0957FF03C051954195510908
:1052000095016B817C81261B370B37FF03C03195DD
:105210002195310922242394312C2417350714F0C9
:10522000212C312C2114310459F03A2D2B2D5C0105
:10523000832F922F3B812C81DC82CB82C32ED22EF6
:10524000AB81BC81AA16BB065CF43C2D2D2D6C01F4
:10525000832F922F3B812C81BC82AB82A32EB22E56
:105260002501EB81FC814E1A5F0A3C016C187D0818
:1052700077FE03C0719461947108720157FE03C0F8
:10528000FFEFEF1AFF0AF594E794C816D9062CF43D
:1052900021E030E03A83298324C06FEF7FEF7A83E7
:1052A00069831FC0D401ED91FC910480F581E02D4C
:1052B000980121143104D9F04B815C81B601C401FD
:1052C0000995E618F708F7FE06C0E981FA81CE0EC7
:1052D000DF1EE40CF51C2B813C812F5F3F4F3C838C
:1052E0002B836B817C81A616B706E4F604C0A60169
:1052F0006B817C81E4CF0F900F900F900F90DF9126
:10530000CF911F910F91FF90EF90DF90CF90BF90C2
:10531000AF909F908F907F906F905F904F903F9055
:105320002F9008956F927F928F929F92AF92BF922B
:10533000CF92DF92EF92FF920F931F93CF93DF9361
:10534000EC015B016A0139014801E881F9810284BD
:10535000F385E02D87010995E881F981A601480DC3
:10536000591D415051090284F385E02D9301B50187
:10537000CE010995E881F9810084F185E02D940141
:10538000A601B501CE010995E881F981B501660D47
:10539000771D615071090084F185E02D9401A6010B
:1053A000CE010995DF91CF911F910F91FF90EF9062
:1053B000DF90CF90BF90AF909F908F907F906F9035
:1053C0000895EF92FF920F931F93DC01ED91FC91F2
:1053D000240F351F215031090680F781E02D780117
:1053E00089019B0109951F910F91FF90EF900895FE
:1053F000EF92FF920F931F93DC01ED91FC91260F2A
:10540000371F215031090680F781E02D78018A018C
:1054100009951F910F91FF90EF9008956F927F92E1
:105420008F929F92AF92BF92CF92DF92EF92FF92B4
:105430000F931F93CF93DF935C014A0169013801F9
:10544000EB01C60ED71ECC15DD0574F4D501ED9128
:10545000FC910084F185E02D87019301A401BE0138
:10546000C50109952196EFCFDF91CF911F910F9143
:10547000FF90EF90DF90CF90BF90AF909F908F9074
:105480007F906F900895EF92FF920F931F93DC012E
:10549000ED91FC9111971A960D911C911B971896FE
:1054A0002D913C9119970684F785E02D7B0140E012
:1054B00050E060E070E009951F910F91FF90EF9030
:1054C00008950895FC01138212828AE895E0918381
:1054D000808375836483578346837187608753878E
:1054E0004287158A158614861786168621E0248B36
:1054F0008FEF9FEF938B828B918B808B268B178AFC
:1055000008952F923F924F925F926F927F928F9267
:105510009F92AF92BF92CF92DF92EF92FF920F9342
:105520001F93CF93DF93CDB7DEB72C970FB6F894C8
:10553000DEBF0FBECDBF9C878B873A0118870F83D4
:10554000FA86E986CD82DC0118968D919C91199797
:10555000681779070CF09EC01A968D919C911B9745
:10556000481759070CF096C08C2C912CCB01B6E053
:10557000CB9E800D911D1124181619060CF08AC0BF
:10558000C401E3E0880F991FEA95E1F7840F951FA6
:10559000181619060CF07EC0AB85BC8557968C9109
:1055A000811103C0203B08F02F5F5B016B011C825F
:1055B00050ED452E54E0552E461A570AB5E02B9F64
:1055C000400C511C1124EC81E53031F0F201EA0D60
:1055D000FB1D24912B8301C01B827A8269821301F7
:1055E0001E823B8130FF13C0AB85BC85ED91FC91E1
:1055F000BD81B13031F40480F581E02D2F813885F3
:1056000019C00684F785E02DEF80F8841EC0E98577
:10561000FA852F813885E217F307F9F0AB85BC8551
:10562000ED91FC91BD81B13059F40480F581E02DFC
:1056300029853A85A101B5018B859C8509950DC009
:105640000684F785E02DE984FA8484019401498178
:105650005A81B6018B859C850995EB81E695EB8394
:10566000FE81FF5FFE8329813A81280D391D3A832F
:1056700029833FEF231A330AF83009F0B2CF4C8167
:105680004F5F4C83C80CD91C8FEFA81AB80A46305C
:1056900009F099CF2C960FB6F894DEBF0FBECDBFA0
:1056A000DF91CF911F910F91FF90EF90DF90CF90FE
:1056B000BF90AF909F908F907F906F905F904F9032
:1056C0003F902F900895CF92EF92FF920F931F93E8
:1056D000CF93DF93EC01262F6A3049F42C898E8515
:1056E0009F8538E0239F800D911D112432C06D30BD
:1056F000A1F1EA88FB88088919894E855F856C8548
:105700007D85CC880E94812A2C89422F50E08C858F
:105710009D8536E0239F800D911D11249D878C87E8
:105720002E892223D1F06AEF64039001659F300D2A
:10573000112468857985260F371F281739076CF4DF
:10574000F3E0440F551FFA95E1F78E859F85840F8E
:10575000951F9F878E871D861C8681E090E0DF91D4
:10576000CF911F910F91FF90EF90CF900895FC0182
:1057700075876487578746870895611101C061E086
:10578000FC01648B0895FC01738B628B718B608BC1
:105790000895FC01718B608B538B428B0895FC0143
:1057A00085890895FC01808591850895FC01828595
:1057B000938508958091650690E020916606821B8E
:1057C000910908952091660680916506281750F486
:1057D000E22FF0E0E959F94F808190E02F5F2093AC
:1057E000660608958FEF9FEF0895E0916606809119
:1057F0006506E81730F4F0E0E959F94F808190E050
:1058000008958FEF9FEF08950895CF92DF92EF9262
:10581000FF920F931F93CF93DF937C01CB018A01FB
:1058200020914106222389F0EB016B01C40ED51EA5
:10583000CC15DD0569F06991D701ED91FC910190DE
:10584000F081E02DC7010995F3CF642F0E94162D3A
:10585000C801DF91CF911F910F91FF90EF90DF90E2
:10586000CF900895CF93DF931F92CDB7DEB76983B2
:10587000209141062223D1F020914206203240F0AF
:1058800021E030E0FC013383228380E090E015C00A
:1058900080914306E82FF0E0EC5BF94F998190830B
:1058A0008F5F809343068093420605C061E0CE017E
:1058B00001960E94162D81E090E00F90DF91CF912C
:1058C0000895FC011382128248EE53E060E070E01C
:1058D000448355836683778382EA95E0918380834E
:1058E0000895109266061092650610924306109273
:1058F00042060C94A12C81E08093410660936406DB
:10590000109243061092420608950C947B2C0F933C
:10591000062F21E04091420664E476E0809164061F
:105920000E94BF2C1092430610924206109241062C
:105930000F91089561E00C94872C85E396E00C9418
:10594000612C1092F40681E08093F2061092F10629
:1059500061E082E10E94E42F61E083E10E94E42F94
:10596000E9EBF0E080818E7F808380818D7F808372
:1059700088E48093B80085E48093BC0008950F9379
:10598000413208F04AC09091F4069111FCCF92E0A8
:105990009093F4060093F2069FEF9093870610927F
:1059A000CC064093CB06FB016DEC76E0DB019A2F31
:1059B000961B941718F491919D93F9CF1092F306CA
:1059C0009091F306880F892B8093F3068091F1065E
:1059D000813061F41092F1068091F3068093BB0050
:1059E0008091BC0083FDF8CF85EC01C085EE8093EB
:1059F000BC00222321F08091F4068230E1F38091F3
:105A000087068F3F61F080918706803251F0809148
:105A10008706803341F483E007C081E005C080E061
:105A200003C082E001C084E00F910895613298F4D0
:105A30002091F406243089F46093A906FC018BEAD6
:105A400096E0DC012A2F281B261718F421912D93AC
:105A5000F9CF80E0089581E0089582E0089585ED12
:105A60008093BC008091BC0084FDFCCF1092F406B2
:105A7000089585EC8093BC001092F40608951F925F
:105A80000F920FB60F9211242F933F934F935F9372
:105A90006F937F938F939F93AF93BF93EF93FF93F6
:105AA0008091B900887F803609F49EC078F58832ED
:105AB00009F45DC090F4803109F456C038F48823AD
:105AC00009F4F5C0883009F44FC0F5C0883109F4F5
:105AD0004EC0803209F45FC0EEC0803409F46AC061
